{
  "abi": [
    {
      "inputs": [
        {
          "internalType": "Token",
          "name": "bnt",
          "type": "address"
        },
        {
          "internalType": "contract ICarbonController",
          "name": "carbonController",
          "type": "address"
        },
        {
          "internalType": "contract IBancorNetwork",
          "name": "bancorNetwork",
          "type": "address"
        }
      ],
      "stateMutability": "nonpayable",
      "type": "constructor"
    },
    {
      "inputs": [],
      "name": "AccessDenied",
      "type": "error"
    },
    {
      "inputs": [],
      "name": "AlreadyInitialized",
      "type": "error"
    },
    {
      "inputs": [],
      "name": "DuplicateToken",
      "type": "error"
    },
    {
      "inputs": [],
      "name": "InvalidAddress",
      "type": "error"
    },
    {
      "inputs": [],
      "name": "InvalidFee",
      "type": "error"
    },
    {
      "inputs": [],
      "name": "InvalidToken",
      "type": "error"
    },
    {
      "inputs": [],
      "name": "InvalidTokenLength",
      "type": "error"
    },
    {
      "inputs": [],
      "name": "Overflow",
      "type": "error"
    },
    {
      "anonymous": false,
      "inputs": [
        {
          "indexed": false,
          "internalType": "uint8",
          "name": "version",
          "type": "uint8"
        }
      ],
      "name": "Initialized",
      "type": "event"
    },
    {
      "anonymous": false,
      "inputs": [
        {
          "indexed": false,
          "internalType": "uint256",
          "name": "prevRewardsPPM",
          "type": "uint256"
        },
        {
          "indexed": false,
          "internalType": "uint256",
          "name": "newRewardsPPM",
          "type": "uint256"
        }
      ],
      "name": "RewardsUpdated",
      "type": "event"
    },
    {
      "anonymous": false,
      "inputs": [
        {
          "indexed": true,
          "internalType": "bytes32",
          "name": "role",
          "type": "bytes32"
        },
        {
          "indexed": true,
          "internalType": "bytes32",
          "name": "previousAdminRole",
          "type": "bytes32"
        },
        {
          "indexed": true,
          "internalType": "bytes32",
          "name": "newAdminRole",
          "type": "bytes32"
        }
      ],
      "name": "RoleAdminChanged",
      "type": "event"
    },
    {
      "anonymous": false,
      "inputs": [
        {
          "indexed": true,
          "internalType": "bytes32",
          "name": "role",
          "type": "bytes32"
        },
        {
          "indexed": true,
          "internalType": "address",
          "name": "account",
          "type": "address"
        },
        {
          "indexed": true,
          "internalType": "address",
          "name": "sender",
          "type": "address"
        }
      ],
      "name": "RoleGranted",
      "type": "event"
    },
    {
      "anonymous": false,
      "inputs": [
        {
          "indexed": true,
          "internalType": "bytes32",
          "name": "role",
          "type": "bytes32"
        },
        {
          "indexed": true,
          "internalType": "address",
          "name": "account",
          "type": "address"
        },
        {
          "indexed": true,
          "internalType": "address",
          "name": "sender",
          "type": "address"
        }
      ],
      "name": "RoleRevoked",
      "type": "event"
    },
    {
      "anonymous": false,
      "inputs": [
        {
          "indexed": true,
          "internalType": "address",
          "name": "caller",
          "type": "address"
        },
        {
          "indexed": false,
          "internalType": "Token[]",
          "name": "tokens",
          "type": "address[]"
        },
        {
          "indexed": false,
          "internalType": "uint256[]",
          "name": "rewardAmounts",
          "type": "uint256[]"
        },
        {
          "indexed": false,
          "internalType": "uint256",
          "name": "burnAmount",
          "type": "uint256"
        }
      ],
      "name": "TokensBurned",
      "type": "event"
    },
    {
      "inputs": [],
      "name": "DEFAULT_ADMIN_ROLE",
      "outputs": [
        {
          "internalType": "bytes32",
          "name": "",
          "type": "bytes32"
        }
      ],
      "stateMutability": "view",
      "type": "function"
    },
    {
      "inputs": [
        {
          "internalType": "Token",
          "name": "token",
          "type": "address"
        }
      ],
      "name": "availableTokens",
      "outputs": [
        {
          "internalType": "uint256",
          "name": "",
          "type": "uint256"
        }
      ],
      "stateMutability": "view",
      "type": "function"
    },
    {
      "inputs": [
        {
          "internalType": "Token[]",
          "name": "tokens",
          "type": "address[]"
        }
      ],
      "name": "execute",
      "outputs": [],
      "stateMutability": "nonpayable",
      "type": "function"
    },
    {
      "inputs": [
        {
          "internalType": "bytes32",
          "name": "role",
          "type": "bytes32"
        }
      ],
      "name": "getRoleAdmin",
      "outputs": [
        {
          "internalType": "bytes32",
          "name": "",
          "type": "bytes32"
        }
      ],
      "stateMutability": "view",
      "type": "function"
    },
    {
      "inputs": [
        {
          "internalType": "bytes32",
          "name": "role",
          "type": "bytes32"
        },
        {
          "internalType": "uint256",
          "name": "index",
          "type": "uint256"
        }
      ],
      "name": "getRoleMember",
      "outputs": [
        {
          "internalType": "address",
          "name": "",
          "type": "address"
        }
      ],
      "stateMutability": "view",
      "type": "function"
    },
    {
      "inputs": [
        {
          "internalType": "bytes32",
          "name": "role",
          "type": "bytes32"
        }
      ],
      "name": "getRoleMemberCount",
      "outputs": [
        {
          "internalType": "uint256",
          "name": "",
          "type": "uint256"
        }
      ],
      "stateMutability": "view",
      "type": "function"
    },
    {
      "inputs": [
        {
          "internalType": "bytes32",
          "name": "role",
          "type": "bytes32"
        },
        {
          "internalType": "address",
          "name": "account",
          "type": "address"
        }
      ],
      "name": "grantRole",
      "outputs": [],
      "stateMutability": "nonpayable",
      "type": "function"
    },
    {
      "inputs": [
        {
          "internalType": "bytes32",
          "name": "role",
          "type": "bytes32"
        },
        {
          "internalType": "address",
          "name": "account",
          "type": "address"
        }
      ],
      "name": "hasRole",
      "outputs": [
        {
          "internalType": "bool",
          "name": "",
          "type": "bool"
        }
      ],
      "stateMutability": "view",
      "type": "function"
    },
    {
      "inputs": [],
      "name": "initialize",
      "outputs": [],
      "stateMutability": "nonpayable",
      "type": "function"
    },
    {
      "inputs": [
        {
          "internalType": "bytes",
          "name": "data",
          "type": "bytes"
        }
      ],
      "name": "postUpgrade",
      "outputs": [],
      "stateMutability": "nonpayable",
      "type": "function"
    },
    {
      "inputs": [
        {
          "internalType": "bytes32",
          "name": "role",
          "type": "bytes32"
        },
        {
          "internalType": "address",
          "name": "account",
          "type": "address"
        }
      ],
      "name": "renounceRole",
      "outputs": [],
      "stateMutability": "nonpayable",
      "type": "function"
    },
    {
      "inputs": [
        {
          "internalType": "bytes32",
          "name": "role",
          "type": "bytes32"
        },
        {
          "internalType": "address",
          "name": "account",
          "type": "address"
        }
      ],
      "name": "revokeRole",
      "outputs": [],
      "stateMutability": "nonpayable",
      "type": "function"
    },
    {
      "inputs": [],
      "name": "rewardsPPM",
      "outputs": [
        {
          "internalType": "uint256",
          "name": "",
          "type": "uint256"
        }
      ],
      "stateMutability": "view",
      "type": "function"
    },
    {
      "inputs": [],
      "name": "roleAdmin",
      "outputs": [
        {
          "internalType": "bytes32",
          "name": "",
          "type": "bytes32"
        }
      ],
      "stateMutability": "pure",
      "type": "function"
    },
    {
      "inputs": [
        {
          "internalType": "uint256",
          "name": "newRewardsPPM",
          "type": "uint256"
        }
      ],
      "name": "setRewardsPPM",
      "outputs": [],
      "stateMutability": "nonpayable",
      "type": "function"
    },
    {
      "inputs": [
        {
          "internalType": "bytes4",
          "name": "interfaceId",
          "type": "bytes4"
        }
      ],
      "name": "supportsInterface",
      "outputs": [
        {
          "internalType": "bool",
          "name": "",
          "type": "bool"
        }
      ],
      "stateMutability": "view",
      "type": "function"
    },
    {
      "inputs": [],
      "name": "totalBurned",
      "outputs": [
        {
          "internalType": "uint256",
          "name": "",
          "type": "uint256"
        }
      ],
      "stateMutability": "view",
      "type": "function"
    },
    {
      "inputs": [],
      "name": "version",
      "outputs": [
        {
          "internalType": "uint16",
          "name": "",
          "type": "uint16"
        }
      ],
      "stateMutability": "pure",
      "type": "function"
    },
    {
      "stateMutability": "payable",
      "type": "receive"
    }
  ],
  "bytecode": {
    "object": "0x60e06040523480156200001157600080fd5b5060405162003153380380620031538339810160408190526200003491620006ef565b81620000408162000087565b836200004c8162000087565b82620000588162000087565b6001600160a01b0380861660805284811660a052861660c0526200007b620000b2565b50505050505062000743565b6001600160a01b038116620000af5760405163e6c4247b60e01b815260040160405180910390fd5b50565b600054610100900460ff1615808015620000d35750600054600160ff909116105b80620000ef5750303b158015620000ef575060005460ff166001145b620001585760405162461bcd60e51b815260206004820152602e60248201527f496e697469616c697a61626c653a20636f6e747261637420697320616c72656160448201526d191e481a5b9a5d1a585b1a5e995960921b60648201526084015b60405180910390fd5b6000805460ff1916600117905580156200017c576000805461ff0019166101001790555b62000186620001cf565b8015620000af576000805461ff0019169055604051600181527f7f26b83ff96e1f2b6a682f133852f6798a09c465da95921460cefb38474024989060200160405180910390a150565b600054610100900460ff166200022b5760405162461bcd60e51b815260206004820152602b60248201526000805160206200313383398151915260448201526a6e697469616c697a696e6760a81b60648201526084016200014f565b620002356200024b565b6200023f620002bb565b6200024962000321565b565b600054610100900460ff16620002a75760405162461bcd60e51b815260206004820152602b60248201526000805160206200313383398151915260448201526a6e697469616c697a696e6760a81b60648201526084016200014f565b620002b16200038b565b62000249620003e7565b600054610100900460ff16620003175760405162461bcd60e51b815260206004820152602b60248201526000805160206200313383398151915260448201526a6e697469616c697a696e6760a81b60648201526084016200014f565b6200024962000487565b600054610100900460ff166200037d5760405162461bcd60e51b815260206004820152602b60248201526000805160206200313383398151915260448201526a6e697469616c697a696e6760a81b60648201526084016200014f565b62000249620186a0620004ea565b600054610100900460ff16620002495760405162461bcd60e51b815260206004820152602b60248201526000805160206200313383398151915260448201526a6e697469616c697a696e6760a81b60648201526084016200014f565b600054610100900460ff16620004435760405162461bcd60e51b815260206004820152602b60248201526000805160206200313383398151915260448201526a6e697469616c697a696e6760a81b60648201526084016200014f565b60c9805461ffff191660011790556200046c60008051602062003113833981519152806200053d565b62000249600080516020620031138339815191523362000588565b600054610100900460ff16620004e35760405162461bcd60e51b815260206004820152602b60248201526000805160206200313383398151915260448201526a6e697469616c697a696e6760a81b60648201526084016200014f565b600160fb55565b61012e54818103620004fa575050565b61012e82905560408051828152602081018490527fcd7c861d63893659123f817b192b8621ff1923a7c4589c260173cedcf9e986a6910160405180910390a15050565b600082815260656020526040808220600101805490849055905190918391839186917fbd79b86ffe0ab8e8776151514217cd7cacd52c909f66475c3af44e129f0b00ff9190a4505050565b62000594828262000598565b5050565b620005a48282620005c3565b6000828152609760205260409020620005be908262000667565b505050565b60008281526065602090815260408083206001600160a01b038516845290915290205460ff16620005945760008281526065602090815260408083206001600160a01b03851684529091529020805460ff19166001179055620006233390565b6001600160a01b0316816001600160a01b0316837f2f8788117e7eff1d82e926ec794901d17c78024a50270940304540a733656f0d60405160405180910390a45050565b60006200067e836001600160a01b03841662000687565b90505b92915050565b6000818152600183016020526040812054620006d05750815460018181018455600084815260208082209093018490558454848252828601909352604090209190915562000681565b50600062000681565b6001600160a01b0381168114620000af57600080fd5b6000806000606084860312156200070557600080fd5b83516200071281620006d9565b60208501519093506200072581620006d9565b60408501519092506200073881620006d9565b809150509250925092565b60805160a05160c051612968620007ab6000396000818161078c0152818161086301528181610e68015281816112b901526113050152600081816108a901528181610edb01528181611161015261119401526000818161059d0152610b3b01526129686000f3fe60806040526004361061012d5760003560e01c806391d14854116100a5578063c7f5387411610074578063d547741f11610059578063d547741f1461037b578063d89135cd1461039b578063ebf80ff5146103b157600080fd5b8063c7f5387414610345578063ca15c8731461035b57600080fd5b806391d148541461029757806393867fb5146102dd57806394cb094714610310578063a217fddf1461033057600080fd5b80634c0a0dfa116100fc5780638129fc1c116100e15780638129fc1c1461022a5780638cd2403d1461023f5780639010d07c1461025f57600080fd5b80634c0a0dfa146101ee57806354fd4d501461020e57600080fd5b806301ffc9a714610139578063248a9ca31461016e5780632f2ff15d146101ac57806336568abe146101ce57600080fd5b3661013457005b600080fd5b34801561014557600080fd5b506101596101543660046124c0565b6103d1565b60405190151581526020015b60405180910390f35b34801561017a57600080fd5b5061019e610189366004612502565b60009081526065602052604090206001015490565b604051908152602001610165565b3480156101b857600080fd5b506101cc6101c7366004612530565b61042d565b005b3480156101da57600080fd5b506101cc6101e9366004612530565b610457565b3480156101fa57600080fd5b506101cc610209366004612560565b6104e8565b34801561021a57600080fd5b5060405160028152602001610165565b34801561023657600080fd5b506101cc610944565b34801561024b57600080fd5b506101cc61025a3660046125d5565b610a64565b34801561026b57600080fd5b5061027f61027a366004612635565b610acf565b6040516001600160a01b039091168152602001610165565b3480156102a357600080fd5b506101596102b2366004612530565b60009182526065602090815260408084206001600160a01b0393909316845291905290205460ff1690565b3480156102e957600080fd5b507f2172861495e7b85edac73e3cd5fbb42dd675baadf627720e687bcfdaca02509661019e565b34801561031c57600080fd5b5061019e61032b366004612657565b610aee565b34801561033c57600080fd5b5061019e600081565b34801561035157600080fd5b5061012e5461019e565b34801561036757600080fd5b5061019e610376366004612502565b610bb0565b34801561038757600080fd5b506101cc610396366004612530565b610bc7565b3480156103a757600080fd5b5061012d5461019e565b3480156103bd57600080fd5b506101cc6103cc366004612502565b610bec565b60007fffffffff0000000000000000000000000000000000000000000000000000000082167f5a05180f000000000000000000000000000000000000000000000000000000001480610427575061042782610c29565b92915050565b60008281526065602052604090206001015461044881610cc0565b6104528383610cca565b505050565b6001600160a01b03811633146104da5760405162461bcd60e51b815260206004820152602f60248201527f416363657373436f6e74726f6c3a2063616e206f6e6c792072656e6f756e636560448201527f20726f6c657320666f722073656c66000000000000000000000000000000000060648201526084015b60405180910390fd5b6104e48282610cec565b5050565b6104f0610d0e565b81816104fc8282610d67565b8260008167ffffffffffffffff81111561051857610518612674565b604051908082528060200260200182016040528015610541578160200160208202803683370190505b50905060008267ffffffffffffffff81111561055f5761055f612674565b604051908082528060200260200182016040528015610588578160200160208202803683370190505b5061012e5490915060005b8481101561072c577f00000000000000000000000000000000000000000000000000000000000000006001600160a01b0316639ba372c28a8a848181106105dc576105dc61268a565b90506020020160208101906105f19190612657565b6040517fffffffff0000000000000000000000000000000000000000000000000000000060e084901b1681526001600160a01b03909116600482015260001960248201523060448201526064016020604051808303816000875af115801561065d573d6000803e3d6000fd5b505050506040513d601f19601f8201168201806040525081019061068191906126a0565b506106bc308a8a848181106106985761069861268a565b90506020020160208101906106ad9190612657565b6001600160a01b031690610f99565b8482815181106106ce576106ce61268a565b6020026020010181815250506107078482815181106106ef576106ef61268a565b602002602001015183620f424063ffffffff16611040565b8382815181106107195761071961268a565b6020908102919091010152600101610593565b5060005b8481101561092757600089898381811061074c5761074c61268a565b90506020020160208101906107619190612657565b90508482815181106107755761077561268a565b6020026020010151600014806107bc57506107bc817f00000000000000000000000000000000000000000000000000000000000000006001600160a01b0390811691161490565b156107c7575061091f565b60008483815181106107db576107db61268a565b60200260200101518684815181106107f5576107f561268a565b602002602001015103905061080a8282611134565b600061081e836001600160a01b03166111d0565b61082957600061082b565b815b6040517fd3a4acd30000000000000000000000000000000000000000000000000000000081526001600160a01b0385811660048301527f0000000000000000000000000000000000000000000000000000000000000000811660248301526044820185905260016064830152426084830152600060a48301529192507f00000000000000000000000000000000000000000000000000000000000000009091169063d3a4acd390839060c40160206040518083038185885af11580156108f5573d6000803e3d6000fd5b50505050506040513d601f19601f8201168201806040525081019061091a91906126a0565b505050505b600101610730565b50610934338989856111f7565b5050505050506104e4600160fb55565b600054610100900460ff16158080156109645750600054600160ff909116105b8061097e5750303b15801561097e575060005460ff166001145b6109f05760405162461bcd60e51b815260206004820152602e60248201527f496e697469616c697a61626c653a20636f6e747261637420697320616c72656160448201527f647920696e697469616c697a656400000000000000000000000000000000000060648201526084016104d1565b6000805460ff191660011790558015610a13576000805461ff0019166101001790555b610a1b61138c565b8015610a61576000805461ff0019169055604051600181527f7f26b83ff96e1f2b6a682f133852f6798a09c465da95921460cefb38474024989060200160405180910390a15b50565b60c954600090610a799061ffff1660016126cf565b905061ffff8116600214610ab9576040517f0dc149f000000000000000000000000000000000000000000000000000000000815260040160405180910390fd5b60c9805461ffff191661ffff8316179055505050565b6000828152609760205260408120610ae79083611411565b9392505050565b6000610b036001600160a01b03831630610f99565b6040517ffcf666640000000000000000000000000000000000000000000000000000000081526001600160a01b0384811660048301527f0000000000000000000000000000000000000000000000000000000000000000169063fcf6666490602401602060405180830381865afa158015610b82573d6000803e3d6000fd5b505050506040513d601f19601f82011682018060405250810190610ba691906126a0565b61042791906126ea565b60008181526097602052604081206104279061141d565b600082815260656020526040902060010154610be281610cc0565b6104528383610cec565b610c167f2172861495e7b85edac73e3cd5fbb42dd675baadf627720e687bcfdaca02509633611427565b80610c2081611483565b6104e4826114c6565b60007fffffffff0000000000000000000000000000000000000000000000000000000082167f7965db0b00000000000000000000000000000000000000000000000000000000148061042757507f01ffc9a7000000000000000000000000000000000000000000000000000000007fffffffff00000000000000000000000000000000000000000000000000000000831614610427565b610a618133611518565b610cd4828261158d565b6000828152609760205260409020610452908261162f565b610cf68282611644565b600082815260976020526040902061045290826116c7565b600260fb5403610d605760405162461bcd60e51b815260206004820152601f60248201527f5265656e7472616e637947756172643a207265656e7472616e742063616c6c0060448201526064016104d1565b600260fb55565b806000819003610da3576040517f7dee3bcb00000000000000000000000000000000000000000000000000000000815260040160405180910390fd5b60005b81811015610f93576000848483818110610dc257610dc261268a565b9050602002016020810190610dd79190612657565b9050600182015b83811015610e6157610e2282878784818110610dfc57610dfc61268a565b9050602002016020810190610e119190612657565b6001600160a01b0390811691161490565b15610e59576040517f464e3f6a00000000000000000000000000000000000000000000000000000000815260040160405180910390fd5b600101610dde565b50610e99817f00000000000000000000000000000000000000000000000000000000000000006001600160a01b039081169116141590565b8015610f5357506040517f9bca0e700000000000000000000000000000000000000000000000000000000081526001600160a01b0382811660048301526000917f000000000000000000000000000000000000000000000000000000000000000090911690639bca0e7090602401602060405180830381865afa158015610f24573d6000803e3d6000fd5b505050506040513d601f19601f82011682018060405250810190610f4891906126fd565b6001600160a01b0316145b15610f8a576040517fc1ab6dc100000000000000000000000000000000000000000000000000000000815260040160405180910390fd5b50600101610da6565b50505050565b6000610fa4836111d0565b15610fba57506001600160a01b03811631610427565b826040517f70a082310000000000000000000000000000000000000000000000000000000081526001600160a01b03848116600483015291909116906370a0823190602401602060405180830381865afa15801561101c573d6000803e3d6000fd5b505050506040513d601f19601f82011682018060405250810190610ae791906126a0565b600080600061104f86866116dc565b91509150816000036110745783818161106a5761106a61271a565b0492505050610ae7565b8382106110ad576040517f35278d1200000000000000000000000000000000000000000000000000000000815260040160405180910390fd5b60006110ba878787611717565b90506000806110ca858585611732565b91509150816000036110f2578681816110e5576110e561271a565b0495505050505050610ae7565b6000878103881690611105848484611762565b90506000611121838b8161111b5761111b61271a565b0461179f565b919091029b9a5050505050505050505050565b611146826001600160a01b03166111d0565b1561114f575050565b60006111856001600160a01b038416307f00000000000000000000000000000000000000000000000000000000000000006117c7565b905081811015610452576104527f00000000000000000000000000000000000000000000000000000000000000006111bf83600019612730565b6001600160a01b0386169190611875565b60006001600160a01b03821673eeeeeeeeeeeeeeeeeeeeeeeeeeeeeeeeeeeeeeee14610427565b8160005b818110156112a95760008585838181106112175761121761268a565b905060200201602081019061122c9190612657565b905060008483815181106112425761124261268a565b602002602001015190508060000361125b5750506112a1565b61126d826001600160a01b03166111d0565b1561128a576112856001600160a01b0389168261189c565b61129e565b61129e6001600160a01b03831689836119b5565b50505b6001016111fb565b5060006112df6001600160a01b037f00000000000000000000000000000000000000000000000000000000000000001630610f99565b9050801561137d578061012d60008282546112fa91906126ea565b9091555061133590507f00000000000000000000000000000000000000000000000000000000000000006001600160a01b03811690836119b5565b856001600160a01b03167f907848d27eec20126a73629db507f65182b8da8ba77d96a99ff9c952d65466e8868686856040516113749493929190612743565b60405180910390a25b505050505050565b600160fb55565b600054610100900460ff166113f75760405162461bcd60e51b815260206004820152602b60248201527f496e697469616c697a61626c653a20636f6e7472616374206973206e6f74206960448201526a6e697469616c697a696e6760a81b60648201526084016104d1565b6113ff611a1a565b611407611a95565b61140f611b08565b565b6000610ae78383611b7f565b6000610427825490565b60008281526065602090815260408083206001600160a01b038516845290915290205460ff166104e4576040517f4ca8886700000000000000000000000000000000000000000000000000000000815260040160405180910390fd5b620f424063ffffffff82161115610a61576040517f58d620b300000000000000000000000000000000000000000000000000000000815260040160405180910390fd5b61012e548181036114d5575050565b61012e82905560408051828152602081018490527fcd7c861d63893659123f817b192b8621ff1923a7c4589c260173cedcf9e986a6910160405180910390a15050565b60008281526065602090815260408083206001600160a01b038516845290915290205460ff166104e45761154b81611ba9565b611556836020611bbb565b6040516020016115679291906127fc565b60408051601f198184030181529082905262461bcd60e51b82526104d19160040161287d565b60008281526065602090815260408083206001600160a01b038516845290915290205460ff166104e45760008281526065602090815260408083206001600160a01b03851684529091529020805460ff191660011790556115eb3390565b6001600160a01b0316816001600160a01b0316837f2f8788117e7eff1d82e926ec794901d17c78024a50270940304540a733656f0d60405160405180910390a45050565b6000610ae7836001600160a01b038416611de4565b60008281526065602090815260408083206001600160a01b038516845290915290205460ff16156104e45760008281526065602090815260408083206001600160a01b0385168085529252808320805460ff1916905551339285917ff6391f5c32d9c69d2a47ea670b442974b53935d1edc7fd64eb21e047a839171b9190a45050565b6000610ae7836001600160a01b038416611e33565b60008060006116eb8585611f26565b9050848402808210611704579081900392509050611710565b60018183030393509150505b9250929050565b600081806117275761172761271a565b838509949350505050565b600080828410611748575083905081830361175a565b611753600186612730565b9150508183035b935093915050565b60008061178083808303816117795761177961271a565b0460010190565b90508284816117915761179161271a565b048186021795945050505050565b60006001815b60088110156117c057838202600203820291506001016117a5565b5092915050565b60006117d2846111d0565b156117df57506000610ae7565b836040517fdd62ed3e0000000000000000000000000000000000000000000000000000000081526001600160a01b0385811660048301528481166024830152919091169063dd62ed3e90604401602060405180830381865afa158015611849573d6000803e3d6000fd5b505050506040513d601f19601f8201168201806040525081019061186d91906126a0565b949350505050565b61187e836111d0565b1561188857505050565b6104526001600160a01b0384168383611f35565b804710156118ec5760405162461bcd60e51b815260206004820152601d60248201527f416464726573733a20696e73756666696369656e742062616c616e636500000060448201526064016104d1565b6000826001600160a01b03168260405160006040518083038185875af1925050503d8060008114611939576040519150601f19603f3d011682016040523d82523d6000602084013e61193e565b606091505b50509050806104525760405162461bcd60e51b815260206004820152603a60248201527f416464726573733a20756e61626c6520746f2073656e642076616c75652c207260448201527f6563697069656e74206d6179206861766520726576657274656400000000000060648201526084016104d1565b806000036119c257505050565b6119cb836111d0565b15611a06576040516001600160a01b0383169082156108fc029083906000818181858888f19350505050158015610f93573d6000803e3d6000fd5b6104526001600160a01b0384168383612074565b600054610100900460ff16611a855760405162461bcd60e51b815260206004820152602b60248201527f496e697469616c697a61626c653a20636f6e7472616374206973206e6f74206960448201526a6e697469616c697a696e6760a81b60648201526084016104d1565b611a8d6120bd565b61140f612128565b600054610100900460ff16611b005760405162461bcd60e51b815260206004820152602b60248201527f496e697469616c697a61626c653a20636f6e7472616374206973206e6f74206960448201526a6e697469616c697a696e6760a81b60648201526084016104d1565b61140f6121f5565b600054610100900460ff16611b735760405162461bcd60e51b815260206004820152602b60248201527f496e697469616c697a61626c653a20636f6e7472616374206973206e6f74206960448201526a6e697469616c697a696e6760a81b60648201526084016104d1565b61140f620186a06114c6565b6000826000018281548110611b9657611b9661268a565b9060005260206000200154905092915050565b60606104276001600160a01b03831660145b60606000611bca8360026128b0565b611bd59060026126ea565b67ffffffffffffffff811115611bed57611bed612674565b6040519080825280601f01601f191660200182016040528015611c17576020820181803683370190505b5090507f300000000000000000000000000000000000000000000000000000000000000081600081518110611c4e57611c4e61268a565b60200101907effffffffffffffffffffffffffffffffffffffffffffffffffffffffffffff1916908160001a9053507f780000000000000000000000000000000000000000000000000000000000000081600181518110611cb157611cb161268a565b60200101907effffffffffffffffffffffffffffffffffffffffffffffffffffffffffffff1916908160001a9053506000611ced8460026128b0565b611cf89060016126ea565b90505b6001811115611d95577f303132333435363738396162636465660000000000000000000000000000000085600f1660108110611d3957611d3961268a565b1a60f81b828281518110611d4f57611d4f61268a565b60200101907effffffffffffffffffffffffffffffffffffffffffffffffffffffffffffff1916908160001a90535060049490941c93611d8e816128c7565b9050611cfb565b508315610ae75760405162461bcd60e51b815260206004820181905260248201527f537472696e67733a20686578206c656e67746820696e73756666696369656e7460448201526064016104d1565b6000818152600183016020526040812054611e2b57508154600181810184556000848152602080822090930184905584548482528286019093526040902091909155610427565b506000610427565b60008181526001830160205260408120548015611f1c576000611e57600183612730565b8554909150600090611e6b90600190612730565b9050818114611ed0576000866000018281548110611e8b57611e8b61268a565b9060005260206000200154905080876000018481548110611eae57611eae61268a565b6000918252602080832090910192909255918252600188019052604090208390555b8554869080611ee157611ee16128de565b600190038181906000526020600020016000905590558560010160008681526020019081526020016000206000905560019350505050610427565b6000915050610427565b60006000198284099392505050565b6040517fdd62ed3e0000000000000000000000000000000000000000000000000000000081523060048201526001600160a01b0383811660248301526000919085169063dd62ed3e90604401602060405180830381865afa158015611f9e573d6000803e3d6000fd5b505050506040513d601f19601f82011682018060405250810190611fc291906126a0565b9050610f93847f095ea7b30000000000000000000000000000000000000000000000000000000085611ff486866126ea565b6040516001600160a01b03909216602483015260448201526064015b60408051601f198184030181529190526020810180517bffffffffffffffffffffffffffffffffffffffffffffffffffffffff167fffffffff0000000000000000000000000000000000000000000000000000000090931692909217909152612260565b6040516001600160a01b0383166024820152604481018290526104529084907fa9059cbb0000000000000000000000000000000000000000000000000000000090606401612010565b600054610100900460ff1661140f5760405162461bcd60e51b815260206004820152602b60248201527f496e697469616c697a61626c653a20636f6e7472616374206973206e6f74206960448201526a6e697469616c697a696e6760a81b60648201526084016104d1565b600054610100900460ff166121935760405162461bcd60e51b815260206004820152602b60248201527f496e697469616c697a61626c653a20636f6e7472616374206973206e6f74206960448201526a6e697469616c697a696e6760a81b60648201526084016104d1565b60c9805461ffff191660011790556121cb7f2172861495e7b85edac73e3cd5fbb42dd675baadf627720e687bcfdaca02509680612348565b61140f7f2172861495e7b85edac73e3cd5fbb42dd675baadf627720e687bcfdaca02509633612393565b600054610100900460ff166113855760405162461bcd60e51b815260206004820152602b60248201527f496e697469616c697a61626c653a20636f6e7472616374206973206e6f74206960448201526a6e697469616c697a696e6760a81b60648201526084016104d1565b60006122b5826040518060400160405280602081526020017f5361666545524332303a206c6f772d6c6576656c2063616c6c206661696c6564815250856001600160a01b031661239d9092919063ffffffff16565b90508051600014806122d65750808060200190518101906122d691906128f4565b6104525760405162461bcd60e51b815260206004820152602a60248201527f5361666545524332303a204552433230206f7065726174696f6e20646964206e60448201527f6f7420737563636565640000000000000000000000000000000000000000000060648201526084016104d1565b600082815260656020526040808220600101805490849055905190918391839186917fbd79b86ffe0ab8e8776151514217cd7cacd52c909f66475c3af44e129f0b00ff9190a4505050565b6104e48282610cca565b606061186d848460008585600080866001600160a01b031685876040516123c49190612916565b60006040518083038185875af1925050503d8060008114612401576040519150601f19603f3d011682016040523d82523d6000602084013e612406565b606091505b509150915061241787838387612422565b979650505050505050565b6060831561249157825160000361248a576001600160a01b0385163b61248a5760405162461bcd60e51b815260206004820152601d60248201527f416464726573733a2063616c6c20746f206e6f6e2d636f6e747261637400000060448201526064016104d1565b508161186d565b61186d83838151156124a65781518083602001fd5b8060405162461bcd60e51b81526004016104d1919061287d565b6000602082840312156124d257600080fd5b81357fffffffff0000000000000000000000000000000000000000000000000000000081168114610ae757600080fd5b60006020828403121561251457600080fd5b5035919050565b6001600160a01b0381168114610a6157600080fd5b6000806040838503121561254357600080fd5b8235915060208301356125558161251b565b809150509250929050565b6000806020838503121561257357600080fd5b823567ffffffffffffffff8082111561258b57600080fd5b818501915085601f83011261259f57600080fd5b8135818111156125ae57600080fd5b8660208260051b85010111156125c357600080fd5b60209290920196919550909350505050565b600080602083850312156125e857600080fd5b823567ffffffffffffffff8082111561260057600080fd5b818501915085601f83011261261457600080fd5b81358181111561262357600080fd5b8660208285010111156125c357600080fd5b6000806040838503121561264857600080fd5b50508035926020909101359150565b60006020828403121561266957600080fd5b8135610ae78161251b565b634e487b7160e01b600052604160045260246000fd5b634e487b7160e01b600052603260045260246000fd5b6000602082840312156126b257600080fd5b5051919050565b634e487b7160e01b600052601160045260246000fd5b61ffff8181168382160190808211156117c0576117c06126b9565b80820180821115610427576104276126b9565b60006020828403121561270f57600080fd5b8151610ae78161251b565b634e487b7160e01b600052601260045260246000fd5b81810381811115610427576104276126b9565b6060808252810184905260008560808301825b878110156127865782356127698161251b565b6001600160a01b0316825260209283019290910190600101612756565b5060209150838103828501528086518083528383019150838801925060005b818110156127c1578351835292840192918401916001016127a5565b505080935050505082604083015295945050505050565b60005b838110156127f35781810151838201526020016127db565b50506000910152565b7f416363657373436f6e74726f6c3a206163636f756e74200000000000000000008152600083516128348160178501602088016127d8565b7f206973206d697373696e6720726f6c652000000000000000000000000000000060179184019182015283516128718160288401602088016127d8565b01602801949350505050565b602081526000825180602084015261289c8160408501602087016127d8565b601f01601f19169190910160400192915050565b8082028115828204841417610427576104276126b9565b6000816128d6576128d66126b9565b506000190190565b634e487b7160e01b600052603160045260246000fd5b60006020828403121561290657600080fd5b81518015158114610ae757600080fd5b600082516129288184602087016127d8565b919091019291505056fea264697066735822122025256f43c83a39632b7e8429f16d96866b39f40a47c9dca7287a4150e050311464736f6c634300081300332172861495e7b85edac73e3cd5fbb42dd675baadf627720e687bcfdaca025096496e697469616c697a61626c653a20636f6e7472616374206973206e6f742069",
    "linkReferences": {}
  },
  "methodIdentifiers": {
    "DEFAULT_ADMIN_ROLE()": "a217fddf",
    "availableTokens(address)": "94cb0947",
    "execute(address[])": "4c0a0dfa",
    "getRoleAdmin(bytes32)": "248a9ca3",
    "getRoleMember(bytes32,uint256)": "9010d07c",
    "getRoleMemberCount(bytes32)": "ca15c873",
    "grantRole(bytes32,address)": "2f2ff15d",
    "hasRole(bytes32,address)": "91d14854",
    "initialize()": "8129fc1c",
    "postUpgrade(bytes)": "8cd2403d",
    "renounceRole(bytes32,address)": "36568abe",
    "revokeRole(bytes32,address)": "d547741f",
    "rewardsPPM()": "c7f53874",
    "roleAdmin()": "93867fb5",
    "setRewardsPPM(uint256)": "ebf80ff5",
    "supportsInterface(bytes4)": "01ffc9a7",
    "totalBurned()": "d89135cd",
    "version()": "54fd4d50"
  },
  "id": 36
}