{
  "abi": [
    {
      "inputs": [],
      "name": "Overflow",
      "type": "error"
    },
    {
      "inputs": [
        {
          "internalType": "uint256",
          "name": "x",
          "type": "uint256"
        },
        {
          "internalType": "uint256",
          "name": "y",
          "type": "uint256"
        }
      ],
      "name": "minFactor",
      "outputs": [
        {
          "internalType": "uint256",
          "name": "",
          "type": "uint256"
        }
      ],
      "stateMutability": "pure",
      "type": "function"
    },
    {
      "inputs": [
        {
          "internalType": "uint256",
          "name": "x",
          "type": "uint256"
        },
        {
          "internalType": "uint256",
          "name": "y",
          "type": "uint256"
        },
        {
          "internalType": "uint256",
          "name": "z",
          "type": "uint256"
        }
      ],
      "name": "mulDivC",
      "outputs": [
        {
          "internalType": "uint256",
          "name": "",
          "type": "uint256"
        }
      ],
      "stateMutability": "pure",
      "type": "function"
    },
    {
      "inputs": [
        {
          "internalType": "uint256",
          "name": "x",
          "type": "uint256"
        },
        {
          "internalType": "uint256",
          "name": "y",
          "type": "uint256"
        },
        {
          "internalType": "uint256",
          "name": "z",
          "type": "uint256"
        }
      ],
      "name": "mulDivF",
      "outputs": [
        {
          "internalType": "uint256",
          "name": "",
          "type": "uint256"
        }
      ],
      "stateMutability": "pure",
      "type": "function"
    }
  ],
  "bytecode": {
    "object": "0x608060405234801561001057600080fd5b5061043e806100206000396000f3fe608060405234801561001057600080fd5b50600436106100405760003560e01c80629593f314610045578063a0175ab31461006a578063f2dad2501461007d575b600080fd5b610058610053366004610351565b610090565b60405190815260200160405180910390f35b610058610078366004610351565b6100a7565b61005861008b36600461037d565b6100b4565b600061009d8484846100c9565b90505b9392505050565b600061009d848484610131565b60006100c08383610225565b90505b92915050565b6000806100d7858585610131565b905060006100e6868686610257565b111561009d576000198110610127576040517f35278d1200000000000000000000000000000000000000000000000000000000815260040160405180910390fd5b60010190506100a0565b60008060006101408686610272565b91509150816000036101655783818161015b5761015b61039f565b04925050506100a0565b83821061019e576040517f35278d1200000000000000000000000000000000000000000000000000000000815260040160405180910390fd5b60006101ab878787610257565b90506000806101bb8585856102ad565b91509150816000036101e3578681816101d6576101d661039f565b04955050505050506100a0565b60008781038816906101f68484846102dd565b90506000610212838b8161020c5761020c61039f565b0461031a565b919091029b9a5050505050505050505050565b60008060006102348585610272565b9150915080198211610249578160010161024e565b816002015b95945050505050565b600081806102675761026761039f565b838509949350505050565b60008060006102818585610342565b905084840280821061029a5790819003925090506102a6565b60018183030393509150505b9250929050565b6000808284106102c357508390508183036102d5565b6102ce6001866103ce565b9150508183035b935093915050565b6000806102fb83808303816102f4576102f461039f565b0460010190565b905082848161030c5761030c61039f565b048186021795945050505050565b60006001815b600881101561033b5783820260020382029150600101610320565b5092915050565b60006000198284099392505050565b60008060006060848603121561036657600080fd5b505081359360208301359350604090920135919050565b6000806040838503121561039057600080fd5b50508035926020909101359150565b7f4e487b7100000000000000000000000000000000000000000000000000000000600052601260045260246000fd5b818103818111156100c3577f4e487b7100000000000000000000000000000000000000000000000000000000600052601160045260246000fdfea2646970667358221220c196c09c095f09de8ece6acfeef06eeb3556c9fa94f796b752665b7315a174db64736f6c63430008130033",
    "linkReferences": {}
  },
  "methodIdentifiers": {
    "minFactor(uint256,uint256)": "f2dad250",
    "mulDivC(uint256,uint256,uint256)": "009593f3",
    "mulDivF(uint256,uint256,uint256)": "a0175ab3"
  },
  "id": 12
}