{
  "abi": [
    {
      "inputs": [],
      "name": "AccessDenied",
      "type": "error"
    },
    {
      "inputs": [],
      "name": "AlreadyInitialized",
      "type": "error"
    },
    {
      "inputs": [],
      "name": "BatchNotSupported",
      "type": "error"
    },
    {
      "inputs": [],
      "name": "InvalidAddress",
      "type": "error"
    },
    {
      "inputs": [],
      "name": "InvalidIndices",
      "type": "error"
    },
    {
      "anonymous": false,
      "inputs": [
        {
          "indexed": true,
          "internalType": "address",
          "name": "owner",
          "type": "address"
        },
        {
          "indexed": true,
          "internalType": "address",
          "name": "approved",
          "type": "address"
        },
        {
          "indexed": true,
          "internalType": "uint256",
          "name": "tokenId",
          "type": "uint256"
        }
      ],
      "name": "Approval",
      "type": "event"
    },
    {
      "anonymous": false,
      "inputs": [
        {
          "indexed": true,
          "internalType": "address",
          "name": "owner",
          "type": "address"
        },
        {
          "indexed": true,
          "internalType": "address",
          "name": "operator",
          "type": "address"
        },
        {
          "indexed": false,
          "internalType": "bool",
          "name": "approved",
          "type": "bool"
        }
      ],
      "name": "ApprovalForAll",
      "type": "event"
    },
    {
      "anonymous": false,
      "inputs": [
        {
          "indexed": false,
          "internalType": "string",
          "name": "newBaseExtension",
          "type": "string"
        }
      ],
      "name": "BaseExtensionUpdated",
      "type": "event"
    },
    {
      "anonymous": false,
      "inputs": [
        {
          "indexed": false,
          "internalType": "string",
          "name": "newBaseURI",
          "type": "string"
        }
      ],
      "name": "BaseURIUpdated",
      "type": "event"
    },
    {
      "anonymous": false,
      "inputs": [
        {
          "indexed": false,
          "internalType": "uint8",
          "name": "version",
          "type": "uint8"
        }
      ],
      "name": "Initialized",
      "type": "event"
    },
    {
      "anonymous": false,
      "inputs": [
        {
          "indexed": true,
          "internalType": "bytes32",
          "name": "role",
          "type": "bytes32"
        },
        {
          "indexed": true,
          "internalType": "bytes32",
          "name": "previousAdminRole",
          "type": "bytes32"
        },
        {
          "indexed": true,
          "internalType": "bytes32",
          "name": "newAdminRole",
          "type": "bytes32"
        }
      ],
      "name": "RoleAdminChanged",
      "type": "event"
    },
    {
      "anonymous": false,
      "inputs": [
        {
          "indexed": true,
          "internalType": "bytes32",
          "name": "role",
          "type": "bytes32"
        },
        {
          "indexed": true,
          "internalType": "address",
          "name": "account",
          "type": "address"
        },
        {
          "indexed": true,
          "internalType": "address",
          "name": "sender",
          "type": "address"
        }
      ],
      "name": "RoleGranted",
      "type": "event"
    },
    {
      "anonymous": false,
      "inputs": [
        {
          "indexed": true,
          "internalType": "bytes32",
          "name": "role",
          "type": "bytes32"
        },
        {
          "indexed": true,
          "internalType": "address",
          "name": "account",
          "type": "address"
        },
        {
          "indexed": true,
          "internalType": "address",
          "name": "sender",
          "type": "address"
        }
      ],
      "name": "RoleRevoked",
      "type": "event"
    },
    {
      "anonymous": false,
      "inputs": [
        {
          "indexed": true,
          "internalType": "address",
          "name": "from",
          "type": "address"
        },
        {
          "indexed": true,
          "internalType": "address",
          "name": "to",
          "type": "address"
        },
        {
          "indexed": true,
          "internalType": "uint256",
          "name": "tokenId",
          "type": "uint256"
        }
      ],
      "name": "Transfer",
      "type": "event"
    },
    {
      "anonymous": false,
      "inputs": [
        {
          "indexed": false,
          "internalType": "bool",
          "name": "newUseGlobalURI",
          "type": "bool"
        }
      ],
      "name": "UseGlobalURIUpdated",
      "type": "event"
    },
    {
      "inputs": [],
      "name": "DEFAULT_ADMIN_ROLE",
      "outputs": [
        {
          "internalType": "bytes32",
          "name": "",
          "type": "bytes32"
        }
      ],
      "stateMutability": "view",
      "type": "function"
    },
    {
      "inputs": [
        {
          "internalType": "address",
          "name": "to",
          "type": "address"
        },
        {
          "internalType": "uint256",
          "name": "tokenId",
          "type": "uint256"
        }
      ],
      "name": "approve",
      "outputs": [],
      "stateMutability": "nonpayable",
      "type": "function"
    },
    {
      "inputs": [
        {
          "internalType": "address",
          "name": "owner",
          "type": "address"
        }
      ],
      "name": "balanceOf",
      "outputs": [
        {
          "internalType": "uint256",
          "name": "",
          "type": "uint256"
        }
      ],
      "stateMutability": "view",
      "type": "function"
    },
    {
      "inputs": [
        {
          "internalType": "uint256",
          "name": "tokenId",
          "type": "uint256"
        }
      ],
      "name": "burn",
      "outputs": [],
      "stateMutability": "nonpayable",
      "type": "function"
    },
    {
      "inputs": [
        {
          "internalType": "uint256",
          "name": "tokenId",
          "type": "uint256"
        }
      ],
      "name": "burnTest",
      "outputs": [],
      "stateMutability": "nonpayable",
      "type": "function"
    },
    {
      "inputs": [
        {
          "internalType": "uint256",
          "name": "tokenId",
          "type": "uint256"
        }
      ],
      "name": "getApproved",
      "outputs": [
        {
          "internalType": "address",
          "name": "",
          "type": "address"
        }
      ],
      "stateMutability": "view",
      "type": "function"
    },
    {
      "inputs": [
        {
          "internalType": "bytes32",
          "name": "role",
          "type": "bytes32"
        }
      ],
      "name": "getRoleAdmin",
      "outputs": [
        {
          "internalType": "bytes32",
          "name": "",
          "type": "bytes32"
        }
      ],
      "stateMutability": "view",
      "type": "function"
    },
    {
      "inputs": [
        {
          "internalType": "bytes32",
          "name": "role",
          "type": "bytes32"
        },
        {
          "internalType": "uint256",
          "name": "index",
          "type": "uint256"
        }
      ],
      "name": "getRoleMember",
      "outputs": [
        {
          "internalType": "address",
          "name": "",
          "type": "address"
        }
      ],
      "stateMutability": "view",
      "type": "function"
    },
    {
      "inputs": [
        {
          "internalType": "bytes32",
          "name": "role",
          "type": "bytes32"
        }
      ],
      "name": "getRoleMemberCount",
      "outputs": [
        {
          "internalType": "uint256",
          "name": "",
          "type": "uint256"
        }
      ],
      "stateMutability": "view",
      "type": "function"
    },
    {
      "inputs": [
        {
          "internalType": "bytes32",
          "name": "role",
          "type": "bytes32"
        },
        {
          "internalType": "address",
          "name": "account",
          "type": "address"
        }
      ],
      "name": "grantRole",
      "outputs": [],
      "stateMutability": "nonpayable",
      "type": "function"
    },
    {
      "inputs": [
        {
          "internalType": "bytes32",
          "name": "role",
          "type": "bytes32"
        },
        {
          "internalType": "address",
          "name": "account",
          "type": "address"
        }
      ],
      "name": "hasRole",
      "outputs": [
        {
          "internalType": "bool",
          "name": "",
          "type": "bool"
        }
      ],
      "stateMutability": "view",
      "type": "function"
    },
    {
      "inputs": [
        {
          "internalType": "bool",
          "name": "newUseGlobalURI",
          "type": "bool"
        },
        {
          "internalType": "string",
          "name": "newBaseURI",
          "type": "string"
        },
        {
          "internalType": "string",
          "name": "newBaseExtension",
          "type": "string"
        }
      ],
      "name": "initialize",
      "outputs": [],
      "stateMutability": "nonpayable",
      "type": "function"
    },
    {
      "inputs": [
        {
          "internalType": "address",
          "name": "owner",
          "type": "address"
        },
        {
          "internalType": "address",
          "name": "operator",
          "type": "address"
        }
      ],
      "name": "isApprovedForAll",
      "outputs": [
        {
          "internalType": "bool",
          "name": "",
          "type": "bool"
        }
      ],
      "stateMutability": "view",
      "type": "function"
    },
    {
      "inputs": [
        {
          "internalType": "address",
          "name": "owner",
          "type": "address"
        },
        {
          "internalType": "uint256",
          "name": "tokenId",
          "type": "uint256"
        }
      ],
      "name": "mint",
      "outputs": [],
      "stateMutability": "nonpayable",
      "type": "function"
    },
    {
      "inputs": [],
      "name": "name",
      "outputs": [
        {
          "internalType": "string",
          "name": "",
          "type": "string"
        }
      ],
      "stateMutability": "view",
      "type": "function"
    },
    {
      "inputs": [
        {
          "internalType": "uint256",
          "name": "tokenId",
          "type": "uint256"
        }
      ],
      "name": "ownerOf",
      "outputs": [
        {
          "internalType": "address",
          "name": "",
          "type": "address"
        }
      ],
      "stateMutability": "view",
      "type": "function"
    },
    {
      "inputs": [
        {
          "internalType": "bytes",
          "name": "data",
          "type": "bytes"
        }
      ],
      "name": "postUpgrade",
      "outputs": [],
      "stateMutability": "nonpayable",
      "type": "function"
    },
    {
      "inputs": [
        {
          "internalType": "bytes32",
          "name": "role",
          "type": "bytes32"
        },
        {
          "internalType": "address",
          "name": "account",
          "type": "address"
        }
      ],
      "name": "renounceRole",
      "outputs": [],
      "stateMutability": "nonpayable",
      "type": "function"
    },
    {
      "inputs": [
        {
          "internalType": "bytes32",
          "name": "role",
          "type": "bytes32"
        },
        {
          "internalType": "address",
          "name": "account",
          "type": "address"
        }
      ],
      "name": "revokeRole",
      "outputs": [],
      "stateMutability": "nonpayable",
      "type": "function"
    },
    {
      "inputs": [],
      "name": "roleAdmin",
      "outputs": [
        {
          "internalType": "bytes32",
          "name": "",
          "type": "bytes32"
        }
      ],
      "stateMutability": "pure",
      "type": "function"
    },
    {
      "inputs": [],
      "name": "roleMinter",
      "outputs": [
        {
          "internalType": "bytes32",
          "name": "",
          "type": "bytes32"
        }
      ],
      "stateMutability": "pure",
      "type": "function"
    },
    {
      "inputs": [
        {
          "internalType": "address",
          "name": "owner",
          "type": "address"
        },
        {
          "internalType": "uint256",
          "name": "tokenId",
          "type": "uint256"
        }
      ],
      "name": "safeMintTest",
      "outputs": [],
      "stateMutability": "nonpayable",
      "type": "function"
    },
    {
      "inputs": [
        {
          "internalType": "address",
          "name": "from",
          "type": "address"
        },
        {
          "internalType": "address",
          "name": "to",
          "type": "address"
        },
        {
          "internalType": "uint256",
          "name": "tokenId",
          "type": "uint256"
        }
      ],
      "name": "safeTransferFrom",
      "outputs": [],
      "stateMutability": "nonpayable",
      "type": "function"
    },
    {
      "inputs": [
        {
          "internalType": "address",
          "name": "from",
          "type": "address"
        },
        {
          "internalType": "address",
          "name": "to",
          "type": "address"
        },
        {
          "internalType": "uint256",
          "name": "tokenId",
          "type": "uint256"
        },
        {
          "internalType": "bytes",
          "name": "data",
          "type": "bytes"
        }
      ],
      "name": "safeTransferFrom",
      "outputs": [],
      "stateMutability": "nonpayable",
      "type": "function"
    },
    {
      "inputs": [
        {
          "internalType": "address",
          "name": "operator",
          "type": "address"
        },
        {
          "internalType": "bool",
          "name": "approved",
          "type": "bool"
        }
      ],
      "name": "setApprovalForAll",
      "outputs": [],
      "stateMutability": "nonpayable",
      "type": "function"
    },
    {
      "inputs": [
        {
          "internalType": "string",
          "name": "newBaseExtension",
          "type": "string"
        }
      ],
      "name": "setBaseExtension",
      "outputs": [],
      "stateMutability": "nonpayable",
      "type": "function"
    },
    {
      "inputs": [
        {
          "internalType": "string",
          "name": "newBaseURI",
          "type": "string"
        }
      ],
      "name": "setBaseURI",
      "outputs": [],
      "stateMutability": "nonpayable",
      "type": "function"
    },
    {
      "inputs": [
        {
          "internalType": "bytes4",
          "name": "interfaceId",
          "type": "bytes4"
        }
      ],
      "name": "supportsInterface",
      "outputs": [
        {
          "internalType": "bool",
          "name": "",
          "type": "bool"
        }
      ],
      "stateMutability": "view",
      "type": "function"
    },
    {
      "inputs": [],
      "name": "symbol",
      "outputs": [
        {
          "internalType": "string",
          "name": "",
          "type": "string"
        }
      ],
      "stateMutability": "view",
      "type": "function"
    },
    {
      "inputs": [
        {
          "internalType": "uint256",
          "name": "tokenId",
          "type": "uint256"
        }
      ],
      "name": "tokenURI",
      "outputs": [
        {
          "internalType": "string",
          "name": "",
          "type": "string"
        }
      ],
      "stateMutability": "view",
      "type": "function"
    },
    {
      "inputs": [
        {
          "internalType": "address",
          "name": "owner",
          "type": "address"
        },
        {
          "internalType": "uint256",
          "name": "startIndex",
          "type": "uint256"
        },
        {
          "internalType": "uint256",
          "name": "endIndex",
          "type": "uint256"
        }
      ],
      "name": "tokensByOwner",
      "outputs": [
        {
          "internalType": "uint256[]",
          "name": "",
          "type": "uint256[]"
        }
      ],
      "stateMutability": "view",
      "type": "function"
    },
    {
      "inputs": [
        {
          "internalType": "address",
          "name": "from",
          "type": "address"
        },
        {
          "internalType": "address",
          "name": "to",
          "type": "address"
        },
        {
          "internalType": "uint256",
          "name": "tokenId",
          "type": "uint256"
        }
      ],
      "name": "transferFrom",
      "outputs": [],
      "stateMutability": "nonpayable",
      "type": "function"
    },
    {
      "inputs": [
        {
          "internalType": "bool",
          "name": "newUseGlobalURI",
          "type": "bool"
        }
      ],
      "name": "useGlobalURI",
      "outputs": [],
      "stateMutability": "nonpayable",
      "type": "function"
    },
    {
      "inputs": [],
      "name": "version",
      "outputs": [
        {
          "internalType": "uint16",
          "name": "",
          "type": "uint16"
        }
      ],
      "stateMutability": "pure",
      "type": "function"
    }
  ],
  "bytecode": {
    "object": "0x60806040523480156200001157600080fd5b5062000047600160405180606001604052806035815260200162003984603591396040805160208101909152600081526200004d565b62000845565b600054610100900460ff16158080156200006e5750600054600160ff909116105b806200008a5750303b1580156200008a575060005460ff166001145b620000f35760405162461bcd60e51b815260206004820152602e60248201527f496e697469616c697a61626c653a20636f6e747261637420697320616c72656160448201526d191e481a5b9a5d1a585b1a5e995960921b60648201526084015b60405180910390fd5b6000805460ff19166001179055801562000117576000805461ff0019166101001790555b6200012484848462000171565b80156200016b576000805461ff0019169055604051600181527f7f26b83ff96e1f2b6a682f133852f6798a09c465da95921460cefb38474024989060200160405180910390a15b50505050565b600054610100900460ff16620001cd5760405162461bcd60e51b815260206004820152602b6024820152600080516020620039d983398151915260448201526a6e697469616c697a696e6760a81b6064820152608401620000ea565b620001d762000230565b6200021e604051806060016040528060218152602001620039636021913960408051808201909152600c81526b10d0549093d38b54d514905560a21b6020820152620002a2565b6200022b8383836200030e565b505050565b600054610100900460ff166200028c5760405162461bcd60e51b815260206004820152602b6024820152600080516020620039d983398151915260448201526a6e697469616c697a696e6760a81b6064820152608401620000ea565b62000296620003d3565b620002a06200042f565b565b600054610100900460ff16620002fe5760405162461bcd60e51b815260206004820152602b6024820152600080516020620039d983398151915260448201526a6e697469616c697a696e6760a81b6064820152608401620000ea565b6200030a8282620004cf565b5050565b600054610100900460ff166200036a5760405162461bcd60e51b815260206004820152602b6024820152600080516020620039d983398151915260448201526a6e697469616c697a696e6760a81b6064820152608401620000ea565b620003a57faeaef46186eb59f884e36929b6d682a6ae35e1e43d8f05f058dcefb92b601461600080516020620039b983398151915262000548565b61012d805460ff191684151517905561012e620003c3838262000779565b5061012f6200016b828262000779565b600054610100900460ff16620002a05760405162461bcd60e51b815260206004820152602b6024820152600080516020620039d983398151915260448201526a6e697469616c697a696e6760a81b6064820152608401620000ea565b600054610100900460ff166200048b5760405162461bcd60e51b815260206004820152602b6024820152600080516020620039d983398151915260448201526a6e697469616c697a696e6760a81b6064820152608401620000ea565b60c9805461ffff19166001179055620004b4600080516020620039b98339815191528062000548565b620002a0600080516020620039b98339815191523362000593565b600054610100900460ff166200052b5760405162461bcd60e51b815260206004820152602b6024820152600080516020620039d983398151915260448201526a6e697469616c697a696e6760a81b6064820152608401620000ea565b60fb62000539838262000779565b5060fc6200022b828262000779565b600082815260656020526040808220600101805490849055905190918391839186917fbd79b86ffe0ab8e8776151514217cd7cacd52c909f66475c3af44e129f0b00ff9190a4505050565b6200030a8282620005a58282620005bf565b60008281526097602052604090206200022b908262000663565b60008281526065602090815260408083206001600160a01b038516845290915290205460ff166200030a5760008281526065602090815260408083206001600160a01b03851684529091529020805460ff191660011790556200061f3390565b6001600160a01b0316816001600160a01b0316837f2f8788117e7eff1d82e926ec794901d17c78024a50270940304540a733656f0d60405160405180910390a45050565b60006200067a836001600160a01b03841662000683565b90505b92915050565b6000818152600183016020526040812054620006cc575081546001818101845560008481526020808220909301849055845484825282860190935260409020919091556200067d565b5060006200067d565b634e487b7160e01b600052604160045260246000fd5b600181811c908216806200070057607f821691505b6020821081036200072157634e487b7160e01b600052602260045260246000fd5b50919050565b601f8211156200022b57600081815260208120601f850160051c81016020861015620007505750805b601f850160051c820191505b8181101562000771578281556001016200075c565b505050505050565b81516001600160401b03811115620007955762000795620006d5565b620007ad81620007a68454620006eb565b8462000727565b602080601f831160018114620007e55760008415620007cc5750858301515b600019600386901b1c1916600185901b17855562000771565b600085815260208120601f198616915b828110156200081657888601518255948401946001909101908401620007f5565b5085821015620008355787850151600019600388901b60f8161c191681555b5050505050600190811b01905550565b61310e80620008556000396000f3fe608060405234801561001057600080fd5b50600436106102265760003560e01c806355f804b31161012a578063a217fddf116100bd578063ca15c8731161008c578063da3ef23f11610071578063da3ef23f14610506578063e985e9c514610519578063ff8d96f01461055657600080fd5b8063ca15c873146104e0578063d547741f146104f357600080fd5b8063a217fddf1461049f578063a22cb465146104a7578063b88d4fde146104ba578063c87b56dd146104cd57600080fd5b80639010d07c116100f95780639010d07c1461042557806391d148541461043857806393867fb51461047157806395d89b411461049757600080fd5b806355f804b3146103d95780636352211e146103ec57806370a08231146103ff5780638cd2403d1461041257600080fd5b806336568abe116101bd57806343198ac41161018c57806349ade0961161017157806349ade0961461039157806351f13b83146103a457806354fd4d50146103ca57600080fd5b806343198ac41461035e57806348c3e9cd1461037e57600080fd5b806336568abe1461031257806340c10f191461032557806342842e0e1461033857806342966c681461034b57600080fd5b806323b872dd116101f957806323b872dd146102a8578063248a9ca3146102bb5780632c8e0415146102ec5780632f2ff15d146102ff57600080fd5b806301ffc9a71461022b57806306fdde0314610253578063081812fc14610268578063095ea7b314610293575b600080fd5b61023e61023936600461286d565b610569565b60405190151581526020015b60405180910390f35b61025b61057a565b60405161024a91906128da565b61027b6102763660046128ed565b61060c565b6040516001600160a01b03909116815260200161024a565b6102a66102a1366004612922565b610633565b005b6102a66102b636600461294c565b610769565b6102de6102c93660046128ed565b60009081526065602052604090206001015490565b60405190815260200161024a565b6102a66102fa366004612a44565b6107f0565b6102a661030d366004612ab8565b610916565b6102a6610320366004612ab8565b61093b565b6102a6610333366004612922565b6109c7565b6102a661034636600461294c565b6109fc565b6102a66103593660046128ed565b610a17565b61037161036c366004612ae4565b610a4b565b60405161024a9190612b17565b6102a661038c3660046128ed565b610b7b565b6102a661039f366004612b5b565b610b87565b7faeaef46186eb59f884e36929b6d682a6ae35e1e43d8f05f058dcefb92b6014616102de565b6040516001815260200161024a565b6102a66103e7366004612b76565b610c0b565b61027b6103fa3660046128ed565b610c72565b6102de61040d366004612bab565b610cd7565b6102a6610420366004612bc6565b610d71565b61027b610433366004612c38565b610ddc565b61023e610446366004612ab8565b60009182526065602090815260408084206001600160a01b0393909316845291905290205460ff1690565b7f2172861495e7b85edac73e3cd5fbb42dd675baadf627720e687bcfdaca0250966102de565b61025b610dfb565b6102de600081565b6102a66104b5366004612c5a565b610e0a565b6102a66104c8366004612c84565b610e15565b61025b6104db3660046128ed565b610e9d565b6102de6104ee3660046128ed565b610f1a565b6102a6610501366004612ab8565b610f31565b6102a6610514366004612b76565b610f56565b61023e610527366004612d00565b6001600160a01b0391821660009081526101006020908152604080832093909416825291909152205460ff1690565b6102a6610564366004612922565b610fbd565b600061057482610fc7565b92915050565b606060fb805461058990612d2a565b80601f01602080910402602001604051908101604052809291908181526020018280546105b590612d2a565b80156106025780601f106105d757610100808354040283529160200191610602565b820191906000526020600020905b8154815290600101906020018083116105e557829003601f168201915b5050505050905090565b600061061782611039565b50600090815260ff60205260409020546001600160a01b031690565b600061063e82610c72565b9050806001600160a01b0316836001600160a01b0316036106cc5760405162461bcd60e51b815260206004820152602160248201527f4552433732313a20617070726f76616c20746f2063757272656e74206f776e6560448201527f720000000000000000000000000000000000000000000000000000000000000060648201526084015b60405180910390fd5b336001600160a01b03821614806106e857506106e88133610527565b61075a5760405162461bcd60e51b815260206004820152603d60248201527f4552433732313a20617070726f76652063616c6c6572206973206e6f7420746f60448201527f6b656e206f776e6572206f7220617070726f76656420666f7220616c6c00000060648201526084016106c3565b610764838361109d565b505050565b6107733382611118565b6107e55760405162461bcd60e51b815260206004820152602d60248201527f4552433732313a2063616c6c6572206973206e6f7420746f6b656e206f776e6560448201527f72206f7220617070726f7665640000000000000000000000000000000000000060648201526084016106c3565b610764838383611198565b600054610100900460ff16158080156108105750600054600160ff909116105b8061082a5750303b15801561082a575060005460ff166001145b61089c5760405162461bcd60e51b815260206004820152602e60248201527f496e697469616c697a61626c653a20636f6e747261637420697320616c72656160448201527f647920696e697469616c697a656400000000000000000000000000000000000060648201526084016106c3565b6000805460ff1916600117905580156108bf576000805461ff0019166101001790555b6108ca8484846113db565b8015610910576000805461ff0019169055604051600181527f7f26b83ff96e1f2b6a682f133852f6798a09c465da95921460cefb38474024989060200160405180910390a15b50505050565b600082815260656020526040902060010154610931816114b0565b61076483836114ba565b6001600160a01b03811633146109b95760405162461bcd60e51b815260206004820152602f60248201527f416363657373436f6e74726f6c3a2063616e206f6e6c792072656e6f756e636560448201527f20726f6c657320666f722073656c66000000000000000000000000000000000060648201526084016106c3565b6109c382826114dc565b5050565b7faeaef46186eb59f884e36929b6d682a6ae35e1e43d8f05f058dcefb92b6014616109f281336114fe565b610764838361155a565b61076483838360405180602001604052806000815250610e15565b7faeaef46186eb59f884e36929b6d682a6ae35e1e43d8f05f058dcefb92b601461610a4281336114fe565b6109c382611574565b606083610a5781611624565b6001600160a01b03851660009081526101306020526040812090610a7a82611664565b9050841580610a8857508085115b15610a91578094505b84861115610acb576040517f2cd4dad300000000000000000000000000000000000000000000000000000000815260040160405180910390fd5b6000610ad78787612d7a565b905060008167ffffffffffffffff811115610af457610af4612998565b604051908082528060200260200182016040528015610b1d578160200160208202803683370190505b50905060005b82811015610b6e57610b3f610b38828b612d8d565b869061166e565b828281518110610b5157610b51612da0565b602090810291909101015280610b6681612db6565b915050610b23565b5098975050505050505050565b610b8481611574565b50565b610bb17f2172861495e7b85edac73e3cd5fbb42dd675baadf627720e687bcfdaca025096336114fe565b61012d5460ff16151581151514610b845761012d805460ff19168215159081179091556040519081527f97b12620440c99b10431803699fdba59f6ada913f01df22599100da54860f045906020015b60405180910390a150565b610c357f2172861495e7b85edac73e3cd5fbb42dd675baadf627720e687bcfdaca025096336114fe565b61012e610c428282612e1e565b507f6741b2fc379fad678116fe3d4d4b9a1a184ab53ba36b86ad0fa66340b1ab41ad81604051610c0091906128da565b600081815260fd60205260408120546001600160a01b0316806105745760405162461bcd60e51b815260206004820152601860248201527f4552433732313a20696e76616c696420746f6b656e204944000000000000000060448201526064016106c3565b60006001600160a01b038216610d555760405162461bcd60e51b815260206004820152602960248201527f4552433732313a2061646472657373207a65726f206973206e6f74206120766160448201527f6c6964206f776e6572000000000000000000000000000000000000000000000060648201526084016106c3565b506001600160a01b0316600090815260fe602052604090205490565b60c954600090610d869061ffff166001612ede565b905061ffff8116600114610dc6576040517f0dc149f000000000000000000000000000000000000000000000000000000000815260040160405180910390fd5b60c9805461ffff191661ffff8316179055505050565b6000828152609760205260408120610df4908361166e565b9392505050565b606060fc805461058990612d2a565b6109c333838361167a565b610e1f3383611118565b610e915760405162461bcd60e51b815260206004820152602d60248201527f4552433732313a2063616c6c6572206973206e6f7420746f6b656e206f776e6560448201527f72206f7220617070726f7665640000000000000000000000000000000000000060648201526084016106c3565b61091084848484611749565b6060610ea882611039565b6000610eb26117d2565b61012d5490915060ff1615610ec75792915050565b805115610f045780610ed8846117e2565b61012f604051602001610eed93929190612ef9565b604051602081830303815290604052915050919050565b5050604080516020810190915260008152919050565b600081815260976020526040812061057490611664565b600082815260656020526040902060010154610f4c816114b0565b61076483836114dc565b610f807f2172861495e7b85edac73e3cd5fbb42dd675baadf627720e687bcfdaca025096336114fe565b61012f610f8d8282612e1e565b507f497a2ce104c6e48bc47b6b9084280dcda949acc005c5e715f19a96de56781ada81604051610c0091906128da565b6109c3828261155a565b60006001600160e01b031982167f80ac58cd00000000000000000000000000000000000000000000000000000000148061102a57506001600160e01b031982167f5b5e139f00000000000000000000000000000000000000000000000000000000145b80610574575061057482611882565b600081815260fd60205260409020546001600160a01b0316610b845760405162461bcd60e51b815260206004820152601860248201527f4552433732313a20696e76616c696420746f6b656e204944000000000000000060448201526064016106c3565b600081815260ff60205260409020805473ffffffffffffffffffffffffffffffffffffffff19166001600160a01b03841690811790915581906110df82610c72565b6001600160a01b03167f8c5be1e5ebec7d5bd14f71427d1e84f3dd0314c0f7b2291e5b200ac8c7c3b92560405160405180910390a45050565b60008061112483610c72565b9050806001600160a01b0316846001600160a01b0316148061116c57506001600160a01b038082166000908152610100602090815260408083209388168352929052205460ff165b806111905750836001600160a01b03166111858461060c565b6001600160a01b0316145b949350505050565b826001600160a01b03166111ab82610c72565b6001600160a01b0316146112275760405162461bcd60e51b815260206004820152602560248201527f4552433732313a207472616e736665722066726f6d20696e636f72726563742060448201527f6f776e657200000000000000000000000000000000000000000000000000000060648201526084016106c3565b6001600160a01b0382166112a25760405162461bcd60e51b8152602060048201526024808201527f4552433732313a207472616e7366657220746f20746865207a65726f2061646460448201527f726573730000000000000000000000000000000000000000000000000000000060648201526084016106c3565b6112af83838360016118c0565b826001600160a01b03166112c282610c72565b6001600160a01b03161461133e5760405162461bcd60e51b815260206004820152602560248201527f4552433732313a207472616e736665722066726f6d20696e636f72726563742060448201527f6f776e657200000000000000000000000000000000000000000000000000000060648201526084016106c3565b600081815260ff60209081526040808320805473ffffffffffffffffffffffffffffffffffffffff199081169091556001600160a01b0387811680865260fe855283862080546000190190559087168086528386208054600101905586865260fd90945282852080549092168417909155905184937fddf252ad1be2c89b69c2b068fc378daa952ba7f163c4a11628f55a4df523b3ef91a4505050565b600054610100900460ff166114465760405162461bcd60e51b815260206004820152602b60248201527f496e697469616c697a61626c653a20636f6e7472616374206973206e6f74206960448201526a6e697469616c697a696e6760a81b60648201526084016106c3565b61144e6119ea565b6114a56040518060600160405280602181526020016130b8602191396040518060400160405280600c81526020017f434152424f4e2d53545241540000000000000000000000000000000000000000815250611a67565b610764838383611adc565b610b848133611bbb565b6114c48282611c30565b60008281526097602052604090206107649082611cd2565b6114e68282611ce7565b60008281526097602052604090206107649082611d6a565b60008281526065602090815260408083206001600160a01b038516845290915290205460ff166109c3576040517f4ca8886700000000000000000000000000000000000000000000000000000000815260040160405180910390fd5b6109c3828260405180602001604052806000815250611d7f565b600061157f82610c72565b905061158f8160008460016118c0565b61159882610c72565b600083815260ff60209081526040808320805473ffffffffffffffffffffffffffffffffffffffff199081169091556001600160a01b03851680855260fe8452828520805460001901905587855260fd909352818420805490911690555192935084927fddf252ad1be2c89b69c2b068fc378daa952ba7f163c4a11628f55a4df523b3ef908390a45050565b6001600160a01b038116610b84576040517fe6c4247b00000000000000000000000000000000000000000000000000000000815260040160405180910390fd5b6000610574825490565b6000610df48383611e08565b816001600160a01b0316836001600160a01b0316036116db5760405162461bcd60e51b815260206004820152601960248201527f4552433732313a20617070726f766520746f2063616c6c65720000000000000060448201526064016106c3565b6001600160a01b0383811660008181526101006020908152604080832094871680845294825291829020805460ff191686151590811790915591519182527f17307eab39ab6107e8899845ad3d59bd9653f200f220920489ca2b5937696c31910160405180910390a3505050565b611754848484611198565b61176084848484611e32565b6109105760405162461bcd60e51b815260206004820152603260248201527f4552433732313a207472616e7366657220746f206e6f6e20455243373231526560448201527f63656976657220696d706c656d656e746572000000000000000000000000000060648201526084016106c3565b606061012e805461058990612d2a565b606060006117ef83611fbb565b600101905060008167ffffffffffffffff81111561180f5761180f612998565b6040519080825280601f01601f191660200182016040528015611839576020820181803683370190505b5090508181016020015b600019017f3031323334353637383961626364656600000000000000000000000000000000600a86061a8153600a850494508461184357509392505050565b60006001600160e01b031982167f5a05180f00000000000000000000000000000000000000000000000000000000148061057457506105748261209d565b60018111156118fb576040517f05fbc73900000000000000000000000000000000000000000000000000000000815260040160405180910390fd5b6001600160a01b038416611932576001600160a01b03831660009081526101306020526040902061192c9083612104565b50611970565b826001600160a01b0316846001600160a01b031614611970576001600160a01b03841660009081526101306020526040902061196e9083612110565b505b6001600160a01b0383166119a7576001600160a01b0384166000908152610130602052604090206119a19083612110565b50610910565b836001600160a01b0316836001600160a01b031614610910576001600160a01b0383166000908152610130602052604090206119e39083612104565b5050505050565b600054610100900460ff16611a555760405162461bcd60e51b815260206004820152602b60248201527f496e697469616c697a61626c653a20636f6e7472616374206973206e6f74206960448201526a6e697469616c697a696e6760a81b60648201526084016106c3565b611a5d61211c565b611a65612187565b565b600054610100900460ff16611ad25760405162461bcd60e51b815260206004820152602b60248201527f496e697469616c697a61626c653a20636f6e7472616374206973206e6f74206960448201526a6e697469616c697a696e6760a81b60648201526084016106c3565b6109c38282612254565b600054610100900460ff16611b475760405162461bcd60e51b815260206004820152602b60248201527f496e697469616c697a61626c653a20636f6e7472616374206973206e6f74206960448201526a6e697469616c697a696e6760a81b60648201526084016106c3565b611b917faeaef46186eb59f884e36929b6d682a6ae35e1e43d8f05f058dcefb92b6014617f2172861495e7b85edac73e3cd5fbb42dd675baadf627720e687bcfdaca0250966122d8565b61012d805460ff191684151517905561012e611bad8382612e1e565b5061012f6109108282612e1e565b60008281526065602090815260408083206001600160a01b038516845290915290205460ff166109c357611bee81612323565b611bf9836020612335565b604051602001611c0a929190612f99565b60408051601f198184030181529082905262461bcd60e51b82526106c3916004016128da565b60008281526065602090815260408083206001600160a01b038516845290915290205460ff166109c35760008281526065602090815260408083206001600160a01b03851684529091529020805460ff19166001179055611c8e3390565b6001600160a01b0316816001600160a01b0316837f2f8788117e7eff1d82e926ec794901d17c78024a50270940304540a733656f0d60405160405180910390a45050565b6000610df4836001600160a01b03841661255e565b60008281526065602090815260408083206001600160a01b038516845290915290205460ff16156109c35760008281526065602090815260408083206001600160a01b0385168085529252808320805460ff1916905551339285917ff6391f5c32d9c69d2a47ea670b442974b53935d1edc7fd64eb21e047a839171b9190a45050565b6000610df4836001600160a01b0384166125ad565b611d8983836126a7565b611d966000848484611e32565b6107645760405162461bcd60e51b815260206004820152603260248201527f4552433732313a207472616e7366657220746f206e6f6e20455243373231526560448201527f63656976657220696d706c656d656e746572000000000000000000000000000060648201526084016106c3565b6000826000018281548110611e1f57611e1f612da0565b9060005260206000200154905092915050565b60006001600160a01b0384163b15611fb0576040517f150b7a020000000000000000000000000000000000000000000000000000000081526001600160a01b0385169063150b7a0290611e8f90339089908890889060040161301a565b6020604051808303816000875af1925050508015611eca575060408051601f3d908101601f19168201909252611ec791810190613056565b60015b611f7d573d808015611ef8576040519150601f19603f3d011682016040523d82523d6000602084013e611efd565b606091505b508051600003611f755760405162461bcd60e51b815260206004820152603260248201527f4552433732313a207472616e7366657220746f206e6f6e20455243373231526560448201527f63656976657220696d706c656d656e746572000000000000000000000000000060648201526084016106c3565b805181602001fd5b6001600160e01b0319167f150b7a0200000000000000000000000000000000000000000000000000000000149050611190565b506001949350505050565b6000807a184f03e93ff9f4daa797ed6e38ed64bf6a1f0100000000000000008310612004577a184f03e93ff9f4daa797ed6e38ed64bf6a1f010000000000000000830492506040015b6d04ee2d6d415b85acef81000000008310612030576d04ee2d6d415b85acef8100000000830492506020015b662386f26fc10000831061204e57662386f26fc10000830492506010015b6305f5e1008310612066576305f5e100830492506008015b612710831061207a57612710830492506004015b6064831061208c576064830492506002015b600a83106105745760010192915050565b60006001600160e01b031982167f7965db0b00000000000000000000000000000000000000000000000000000000148061057457507f01ffc9a7000000000000000000000000000000000000000000000000000000006001600160e01b0319831614610574565b6000610df4838361255e565b6000610df483836125ad565b600054610100900460ff16611a655760405162461bcd60e51b815260206004820152602b60248201527f496e697469616c697a61626c653a20636f6e7472616374206973206e6f74206960448201526a6e697469616c697a696e6760a81b60648201526084016106c3565b600054610100900460ff166121f25760405162461bcd60e51b815260206004820152602b60248201527f496e697469616c697a61626c653a20636f6e7472616374206973206e6f74206960448201526a6e697469616c697a696e6760a81b60648201526084016106c3565b60c9805461ffff1916600117905561222a7f2172861495e7b85edac73e3cd5fbb42dd675baadf627720e687bcfdaca025096806122d8565b611a657f2172861495e7b85edac73e3cd5fbb42dd675baadf627720e687bcfdaca0250963361284d565b600054610100900460ff166122bf5760405162461bcd60e51b815260206004820152602b60248201527f496e697469616c697a61626c653a20636f6e7472616374206973206e6f74206960448201526a6e697469616c697a696e6760a81b60648201526084016106c3565b60fb6122cb8382612e1e565b5060fc6107648282612e1e565b600082815260656020526040808220600101805490849055905190918391839186917fbd79b86ffe0ab8e8776151514217cd7cacd52c909f66475c3af44e129f0b00ff9190a4505050565b60606105746001600160a01b03831660145b60606000612344836002613073565b61234f906002612d8d565b67ffffffffffffffff81111561236757612367612998565b6040519080825280601f01601f191660200182016040528015612391576020820181803683370190505b5090507f3000000000000000000000000000000000000000000000000000000000000000816000815181106123c8576123c8612da0565b60200101907effffffffffffffffffffffffffffffffffffffffffffffffffffffffffffff1916908160001a9053507f78000000000000000000000000000000000000000000000000000000000000008160018151811061242b5761242b612da0565b60200101907effffffffffffffffffffffffffffffffffffffffffffffffffffffffffffff1916908160001a9053506000612467846002613073565b612472906001612d8d565b90505b600181111561250f577f303132333435363738396162636465660000000000000000000000000000000085600f16601081106124b3576124b3612da0565b1a60f81b8282815181106124c9576124c9612da0565b60200101907effffffffffffffffffffffffffffffffffffffffffffffffffffffffffffff1916908160001a90535060049490941c936125088161308a565b9050612475565b508315610df45760405162461bcd60e51b815260206004820181905260248201527f537472696e67733a20686578206c656e67746820696e73756666696369656e7460448201526064016106c3565b60008181526001830160205260408120546125a557508154600181810184556000848152602080822090930184905584548482528286019093526040902091909155610574565b506000610574565b600081815260018301602052604081205480156126965760006125d1600183612d7a565b85549091506000906125e590600190612d7a565b905081811461264a57600086600001828154811061260557612605612da0565b906000526020600020015490508087600001848154811061262857612628612da0565b6000918252602080832090910192909255918252600188019052604090208390555b855486908061265b5761265b6130a1565b600190038181906000526020600020016000905590558560010160008681526020019081526020016000206000905560019350505050610574565b6000915050610574565b5092915050565b6001600160a01b0382166126fd5760405162461bcd60e51b815260206004820181905260248201527f4552433732313a206d696e7420746f20746865207a65726f206164647265737360448201526064016106c3565b600081815260fd60205260409020546001600160a01b0316156127625760405162461bcd60e51b815260206004820152601c60248201527f4552433732313a20746f6b656e20616c7265616479206d696e7465640000000060448201526064016106c3565b6127706000838360016118c0565b600081815260fd60205260409020546001600160a01b0316156127d55760405162461bcd60e51b815260206004820152601c60248201527f4552433732313a20746f6b656e20616c7265616479206d696e7465640000000060448201526064016106c3565b6001600160a01b038216600081815260fe602090815260408083208054600101905584835260fd909152808220805473ffffffffffffffffffffffffffffffffffffffff19168417905551839291907fddf252ad1be2c89b69c2b068fc378daa952ba7f163c4a11628f55a4df523b3ef908290a45050565b6109c382826114ba565b6001600160e01b031981168114610b8457600080fd5b60006020828403121561287f57600080fd5b8135610df481612857565b60005b838110156128a557818101518382015260200161288d565b50506000910152565b600081518084526128c681602086016020860161288a565b601f01601f19169290920160200192915050565b602081526000610df460208301846128ae565b6000602082840312156128ff57600080fd5b5035919050565b80356001600160a01b038116811461291d57600080fd5b919050565b6000806040838503121561293557600080fd5b61293e83612906565b946020939093013593505050565b60008060006060848603121561296157600080fd5b61296a84612906565b925061297860208501612906565b9150604084013590509250925092565b8035801515811461291d57600080fd5b634e487b7160e01b600052604160045260246000fd5b600067ffffffffffffffff808411156129c9576129c9612998565b604051601f8501601f19908116603f011681019082821181831017156129f1576129f1612998565b81604052809350858152868686011115612a0a57600080fd5b858560208301376000602087830101525050509392505050565b600082601f830112612a3557600080fd5b610df4838335602085016129ae565b600080600060608486031215612a5957600080fd5b612a6284612988565b9250602084013567ffffffffffffffff80821115612a7f57600080fd5b612a8b87838801612a24565b93506040860135915080821115612aa157600080fd5b50612aae86828701612a24565b9150509250925092565b60008060408385031215612acb57600080fd5b82359150612adb60208401612906565b90509250929050565b600080600060608486031215612af957600080fd5b612b0284612906565b95602085013595506040909401359392505050565b6020808252825182820181905260009190848201906040850190845b81811015612b4f57835183529284019291840191600101612b33565b50909695505050505050565b600060208284031215612b6d57600080fd5b610df482612988565b600060208284031215612b8857600080fd5b813567ffffffffffffffff811115612b9f57600080fd5b61119084828501612a24565b600060208284031215612bbd57600080fd5b610df482612906565b60008060208385031215612bd957600080fd5b823567ffffffffffffffff80821115612bf157600080fd5b818501915085601f830112612c0557600080fd5b813581811115612c1457600080fd5b866020828501011115612c2657600080fd5b60209290920196919550909350505050565b60008060408385031215612c4b57600080fd5b50508035926020909101359150565b60008060408385031215612c6d57600080fd5b612c7683612906565b9150612adb60208401612988565b60008060008060808587031215612c9a57600080fd5b612ca385612906565b9350612cb160208601612906565b925060408501359150606085013567ffffffffffffffff811115612cd457600080fd5b8501601f81018713612ce557600080fd5b612cf4878235602084016129ae565b91505092959194509250565b60008060408385031215612d1357600080fd5b612d1c83612906565b9150612adb60208401612906565b600181811c90821680612d3e57607f821691505b602082108103612d5e57634e487b7160e01b600052602260045260246000fd5b50919050565b634e487b7160e01b600052601160045260246000fd5b8181038181111561057457610574612d64565b8082018082111561057457610574612d64565b634e487b7160e01b600052603260045260246000fd5b60006000198203612dc957612dc9612d64565b5060010190565b601f82111561076457600081815260208120601f850160051c81016020861015612df75750805b601f850160051c820191505b81811015612e1657828155600101612e03565b505050505050565b815167ffffffffffffffff811115612e3857612e38612998565b612e4c81612e468454612d2a565b84612dd0565b602080601f831160018114612e815760008415612e695750858301515b600019600386901b1c1916600185901b178555612e16565b600085815260208120601f198616915b82811015612eb057888601518255948401946001909101908401612e91565b5085821015612ece5787850151600019600388901b60f8161c191681555b5050505050600190811b01905550565b61ffff8181168382160190808211156126a0576126a0612d64565b600084516020612f0c8285838a0161288a565b855191840191612f1f8184848a0161288a565b8554920191600090612f3081612d2a565b60018281168015612f485760018114612f5d57612f89565b60ff1984168752821515830287019450612f89565b896000528560002060005b84811015612f8157815489820152908301908701612f68565b505082870194505b50929a9950505050505050505050565b7f416363657373436f6e74726f6c3a206163636f756e7420000000000000000000815260008351612fd181601785016020880161288a565b7f206973206d697373696e6720726f6c6520000000000000000000000000000000601791840191820152835161300e81602884016020880161288a565b01602801949350505050565b60006001600160a01b0380871683528086166020840152508360408301526080606083015261304c60808301846128ae565b9695505050505050565b60006020828403121561306857600080fd5b8151610df481612857565b808202811582820484141761057457610574612d64565b60008161309957613099612d64565b506000190190565b634e487b7160e01b600052603160045260246000fdfe436172626f6e204175746f6d617465642054726164696e67205374726174656779a26469706673582212203f5c97abb0defc0cee4cf50c6148c6119a4e82f1857e7b3a8115c8acef9c96e864736f6c63430008130033436172626f6e204175746f6d617465642054726164696e67205374726174656779697066733a2f2f516d557944557a51747741684d4231687259615141716d52546267743973556e77713131476571797a7a5375716e2172861495e7b85edac73e3cd5fbb42dd675baadf627720e687bcfdaca025096496e697469616c697a61626c653a20636f6e7472616374206973206e6f742069",
    "linkReferences": {}
  },
  "methodIdentifiers": {
    "DEFAULT_ADMIN_ROLE()": "a217fddf",
    "approve(address,uint256)": "095ea7b3",
    "balanceOf(address)": "70a08231",
    "burn(uint256)": "42966c68",
    "burnTest(uint256)": "48c3e9cd",
    "getApproved(uint256)": "081812fc",
    "getRoleAdmin(bytes32)": "248a9ca3",
    "getRoleMember(bytes32,uint256)": "9010d07c",
    "getRoleMemberCount(bytes32)": "ca15c873",
    "grantRole(bytes32,address)": "2f2ff15d",
    "hasRole(bytes32,address)": "91d14854",
    "initialize(bool,string,string)": "2c8e0415",
    "isApprovedForAll(address,address)": "e985e9c5",
    "mint(address,uint256)": "40c10f19",
    "name()": "06fdde03",
    "ownerOf(uint256)": "6352211e",
    "postUpgrade(bytes)": "8cd2403d",
    "renounceRole(bytes32,address)": "36568abe",
    "revokeRole(bytes32,address)": "d547741f",
    "roleAdmin()": "93867fb5",
    "roleMinter()": "51f13b83",
    "safeMintTest(address,uint256)": "ff8d96f0",
    "safeTransferFrom(address,address,uint256)": "42842e0e",
    "safeTransferFrom(address,address,uint256,bytes)": "b88d4fde",
    "setApprovalForAll(address,bool)": "a22cb465",
    "setBaseExtension(string)": "da3ef23f",
    "setBaseURI(string)": "55f804b3",
    "supportsInterface(bytes4)": "01ffc9a7",
    "symbol()": "95d89b41",
    "tokenURI(uint256)": "c87b56dd",
    "tokensByOwner(address,uint256,uint256)": "43198ac4",
    "transferFrom(address,address,uint256)": "23b872dd",
    "useGlobalURI(bool)": "49ade096",
    "version()": "54fd4d50"
  },
  "id": 21
}