{
  "abi": [
    {
      "inputs": [],
      "name": "Overflow",
      "type": "error"
    },
    {
      "inputs": [
        {
          "internalType": "uint256",
          "name": "amount",
          "type": "uint256"
        },
        {
          "internalType": "uint32",
          "name": "timeElapsed",
          "type": "uint32"
        },
        {
          "internalType": "uint32",
          "name": "halfLife",
          "type": "uint32"
        }
      ],
      "name": "calcExpDecay",
      "outputs": [
        {
          "internalType": "uint256",
          "name": "",
          "type": "uint256"
        }
      ],
      "stateMutability": "pure",
      "type": "function"
    }
  ],
  "bytecode": {
    "object": "0x608060405234801561001057600080fd5b506107f0806100206000396000f3fe608060405234801561001057600080fd5b506004361061002b5760003560e01c806337627dde14610030575b600080fd5b61004361003e366004610715565b610055565b60405190815260200160405180910390f35b600061006284848461006c565b90505b9392505050565b6040805180820190915263ffffffff80841682528216602082015260009081610094826100b3565b90506100a986826020015183600001516104b7565b9695505050505050565b604080518082019091526000808252602082015260006100ec6f58b90bfbe8e7bcd5e4f1d9cc01f97b57846000015185602001516104b7565b905060008080700800000000000000000000000000000000841061013c576040517f35278d1200000000000000000000000000000000000000000000000000000000815260040160405180910390fd5b6f10000000000000000000000000000000840692508291506001607f1b8280020491506710e1b3be415a00008202016001607f1b8383020491506705a0913f6b1e00008202016001607f1b838302049150670168244fdac780008202016001607f1b838302049150664807432bc180008202016001607f1b838302049150660c0135dca040008202016001607f1b8383020491506601b707b1cdc0008202016001607f1b8383020491506536e0f639b8008202016001607f1b838302049150650618fee9f8008202016001607f1b838302049150649c197dcc008202016001607f1b838302049150640e30dce4008202016001607f1b83830204915064012ebd13008202016001607f1b8383020491506317499f008202016001607f1b8383020491506301a9d4808202016001607f1b838302049150621c63808202016001607f1b8383020491506201c6388202016001607f1b838302049150611ab88202016001607f1b83830204915061017c8202016001607f1b83830204915060148202016001607f1b83830204915081016001607f1b836721c3677c82b400008304010190506f100000000000000000000000000000008416156103215770018ebef9eac820ae8682b9793ac6d1e7767001c3d6a24ed82218787d624d3e5eba95f982020490505b6f20000000000000000000000000000000841615610363577001368b2fc6f9609fe7aceb46aa619baed470018ebef9eac820ae8682b9793ac6d1e77882020490505b6f400000000000000000000000000000008416156103a4576fbc5ab1b16779be3575bd8f0520a9f21f7001368b2fc6f9609fe7aceb46aa619baed582020490505b6001607f1b8416156103d8576f454aaa8efe072e7f6ddbab84b40a55c96fbc5ab1b16779be3575bd8f0520a9f21e82020490505b700100000000000000000000000000000000841615610419576f0960aadc109e7a3bf4578099615711ea6f454aaa8efe072e7f6ddbab84b40a55c582020490505b700200000000000000000000000000000000841615610459576e2bf84208204f5977f9a8cf01fdce3d6f0960aadc109e7a3bf4578099615711d782020490505b700400000000000000000000000000000000841615610497576d03c6ab775dd0b95b4cbee7e65d116e2bf84208204f5977f9a8cf01fdc30782020490505b604080518082019091529081526001607f1b602082015295945050505050565b60008060006104c686866105b6565b91509150816000036104eb578381816104e1576104e1610751565b0492505050610065565b838210610524576040517f35278d1200000000000000000000000000000000000000000000000000000000815260040160405180910390fd5b60006105318787876105f8565b9050600080610541858585610613565b91509150816000036105695786818161055c5761055c610751565b0495505050505050610065565b60008761057760008a61064b565b1690506000610587848484610655565b905060006105a3838b8161059d5761059d610751565b0461069a565b919091029b9a5050505050505050505050565b60008060006105c585856106cf565b90508484028082106105de5790819003925090506105f1565b60016105ea838361064b565b0393509150505b9250929050565b6000818061060857610608610751565b838509949350505050565b6000808284106106295750839050818303610643565b610634600186610780565b61063e858561064b565b915091505b935093915050565b8082035b92915050565b60008061067b8361066760008661064b565b8161067457610674610751565b0460010190565b905082848161068c5761068c610751565b048186021795945050505050565b60006001815b60088110156106c8576106be826106ba600287830261064b565b0290565b91506001016106a0565b5092915050565b60007fffffffffffffffffffffffffffffffffffffffffffffffffffffffffffffffff8284099392505050565b803563ffffffff8116811461071057600080fd5b919050565b60008060006060848603121561072a57600080fd5b8335925061073a602085016106fc565b9150610748604085016106fc565b90509250925092565b7f4e487b7100000000000000000000000000000000000000000000000000000000600052601260045260246000fd5b8181038181111561064f577f4e487b7100000000000000000000000000000000000000000000000000000000600052601160045260246000fdfea26469706673582212209092b7e62feeb036367ba7071c781289babc07e3f3e39750c713fb7911961b6564736f6c63430008130033",
    "linkReferences": {}
  },
  "methodIdentifiers": {
    "calcExpDecay(uint256,uint32,uint32)": "37627dde"
  },
  "id": 10
}