{
  "address": "0x51aA24A9230e62CfaF259c47DE3133578cE36317",
  "abi": [
    {
      "inputs": [
        {
          "internalType": "contract IVoucher",
          "name": "initVoucher",
          "type": "address"
        },
        {
          "internalType": "address",
          "name": "proxy",
          "type": "address"
        }
      ],
      "stateMutability": "nonpayable",
      "type": "constructor"
    },
    {
      "inputs": [],
      "name": "AccessDenied",
      "type": "error"
    },
    {
      "inputs": [],
      "name": "AlreadyInitialized",
      "type": "error"
    },
    {
      "inputs": [],
      "name": "BalanceMismatch",
      "type": "error"
    },
    {
      "inputs": [],
      "name": "DeadlineExpired",
      "type": "error"
    },
    {
      "inputs": [],
      "name": "GreaterThanMaxInput",
      "type": "error"
    },
    {
      "inputs": [],
      "name": "IdenticalAddresses",
      "type": "error"
    },
    {
      "inputs": [],
      "name": "InsufficientCapacity",
      "type": "error"
    },
    {
      "inputs": [],
      "name": "InsufficientLiquidity",
      "type": "error"
    },
    {
      "inputs": [],
      "name": "InsufficientNativeTokenReceived",
      "type": "error"
    },
    {
      "inputs": [],
      "name": "InvalidAddress",
      "type": "error"
    },
    {
      "inputs": [],
      "name": "InvalidFee",
      "type": "error"
    },
    {
      "inputs": [],
      "name": "InvalidIndices",
      "type": "error"
    },
    {
      "inputs": [],
      "name": "InvalidRate",
      "type": "error"
    },
    {
      "inputs": [],
      "name": "InvalidTradeActionAmount",
      "type": "error"
    },
    {
      "inputs": [],
      "name": "InvalidTradeActionStrategyId",
      "type": "error"
    },
    {
      "inputs": [],
      "name": "LowerThanMinReturn",
      "type": "error"
    },
    {
      "inputs": [],
      "name": "NativeAmountMismatch",
      "type": "error"
    },
    {
      "inputs": [],
      "name": "OrderDisabled",
      "type": "error"
    },
    {
      "inputs": [],
      "name": "OutDated",
      "type": "error"
    },
    {
      "inputs": [],
      "name": "Overflow",
      "type": "error"
    },
    {
      "inputs": [],
      "name": "PairAlreadyExists",
      "type": "error"
    },
    {
      "inputs": [],
      "name": "PairDoesNotExist",
      "type": "error"
    },
    {
      "inputs": [],
      "name": "UnknownDelegator",
      "type": "error"
    },
    {
      "inputs": [],
      "name": "UnnecessaryNativeTokenReceived",
      "type": "error"
    },
    {
      "inputs": [],
      "name": "ZeroValue",
      "type": "error"
    },
    {
      "anonymous": false,
      "inputs": [
        {
          "indexed": true,
          "internalType": "Token",
          "name": "token",
          "type": "address"
        },
        {
          "indexed": true,
          "internalType": "address",
          "name": "recipient",
          "type": "address"
        },
        {
          "indexed": true,
          "internalType": "uint256",
          "name": "amount",
          "type": "uint256"
        },
        {
          "indexed": false,
          "internalType": "address",
          "name": "sender",
          "type": "address"
        }
      ],
      "name": "FeesWithdrawn",
      "type": "event"
    },
    {
      "anonymous": false,
      "inputs": [
        {
          "indexed": false,
          "internalType": "uint8",
          "name": "version",
          "type": "uint8"
        }
      ],
      "name": "Initialized",
      "type": "event"
    },
    {
      "anonymous": false,
      "inputs": [
        {
          "indexed": true,
          "internalType": "uint128",
          "name": "pairId",
          "type": "uint128"
        },
        {
          "indexed": true,
          "internalType": "Token",
          "name": "token0",
          "type": "address"
        },
        {
          "indexed": true,
          "internalType": "Token",
          "name": "token1",
          "type": "address"
        }
      ],
      "name": "PairCreated",
      "type": "event"
    },
    {
      "anonymous": false,
      "inputs": [
        {
          "indexed": true,
          "internalType": "Token",
          "name": "token0",
          "type": "address"
        },
        {
          "indexed": true,
          "internalType": "Token",
          "name": "token1",
          "type": "address"
        },
        {
          "indexed": false,
          "internalType": "uint32",
          "name": "prevFeePPM",
          "type": "uint32"
        },
        {
          "indexed": false,
          "internalType": "uint32",
          "name": "newFeePPM",
          "type": "uint32"
        }
      ],
      "name": "PairTradingFeePPMUpdated",
      "type": "event"
    },
    {
      "anonymous": false,
      "inputs": [
        {
          "indexed": true,
          "internalType": "bytes32",
          "name": "role",
          "type": "bytes32"
        },
        {
          "indexed": true,
          "internalType": "bytes32",
          "name": "previousAdminRole",
          "type": "bytes32"
        },
        {
          "indexed": true,
          "internalType": "bytes32",
          "name": "newAdminRole",
          "type": "bytes32"
        }
      ],
      "name": "RoleAdminChanged",
      "type": "event"
    },
    {
      "anonymous": false,
      "inputs": [
        {
          "indexed": true,
          "internalType": "bytes32",
          "name": "role",
          "type": "bytes32"
        },
        {
          "indexed": true,
          "internalType": "address",
          "name": "account",
          "type": "address"
        },
        {
          "indexed": true,
          "internalType": "address",
          "name": "sender",
          "type": "address"
        }
      ],
      "name": "RoleGranted",
      "type": "event"
    },
    {
      "anonymous": false,
      "inputs": [
        {
          "indexed": true,
          "internalType": "bytes32",
          "name": "role",
          "type": "bytes32"
        },
        {
          "indexed": true,
          "internalType": "address",
          "name": "account",
          "type": "address"
        },
        {
          "indexed": true,
          "internalType": "address",
          "name": "sender",
          "type": "address"
        }
      ],
      "name": "RoleRevoked",
      "type": "event"
    },
    {
      "anonymous": false,
      "inputs": [
        {
          "indexed": false,
          "internalType": "uint256",
          "name": "id",
          "type": "uint256"
        },
        {
          "indexed": true,
          "internalType": "address",
          "name": "owner",
          "type": "address"
        },
        {
          "indexed": true,
          "internalType": "Token",
          "name": "token0",
          "type": "address"
        },
        {
          "indexed": true,
          "internalType": "Token",
          "name": "token1",
          "type": "address"
        },
        {
          "components": [
            {
              "internalType": "uint128",
              "name": "y",
              "type": "uint128"
            },
            {
              "internalType": "uint128",
              "name": "z",
              "type": "uint128"
            },
            {
              "internalType": "uint64",
              "name": "A",
              "type": "uint64"
            },
            {
              "internalType": "uint64",
              "name": "B",
              "type": "uint64"
            }
          ],
          "indexed": false,
          "internalType": "struct Order",
          "name": "order0",
          "type": "tuple"
        },
        {
          "components": [
            {
              "internalType": "uint128",
              "name": "y",
              "type": "uint128"
            },
            {
              "internalType": "uint128",
              "name": "z",
              "type": "uint128"
            },
            {
              "internalType": "uint64",
              "name": "A",
              "type": "uint64"
            },
            {
              "internalType": "uint64",
              "name": "B",
              "type": "uint64"
            }
          ],
          "indexed": false,
          "internalType": "struct Order",
          "name": "order1",
          "type": "tuple"
        }
      ],
      "name": "StrategyCreated",
      "type": "event"
    },
    {
      "anonymous": false,
      "inputs": [
        {
          "indexed": false,
          "internalType": "uint256",
          "name": "id",
          "type": "uint256"
        },
        {
          "indexed": true,
          "internalType": "address",
          "name": "owner",
          "type": "address"
        },
        {
          "indexed": true,
          "internalType": "Token",
          "name": "token0",
          "type": "address"
        },
        {
          "indexed": true,
          "internalType": "Token",
          "name": "token1",
          "type": "address"
        },
        {
          "components": [
            {
              "internalType": "uint128",
              "name": "y",
              "type": "uint128"
            },
            {
              "internalType": "uint128",
              "name": "z",
              "type": "uint128"
            },
            {
              "internalType": "uint64",
              "name": "A",
              "type": "uint64"
            },
            {
              "internalType": "uint64",
              "name": "B",
              "type": "uint64"
            }
          ],
          "indexed": false,
          "internalType": "struct Order",
          "name": "order0",
          "type": "tuple"
        },
        {
          "components": [
            {
              "internalType": "uint128",
              "name": "y",
              "type": "uint128"
            },
            {
              "internalType": "uint128",
              "name": "z",
              "type": "uint128"
            },
            {
              "internalType": "uint64",
              "name": "A",
              "type": "uint64"
            },
            {
              "internalType": "uint64",
              "name": "B",
              "type": "uint64"
            }
          ],
          "indexed": false,
          "internalType": "struct Order",
          "name": "order1",
          "type": "tuple"
        }
      ],
      "name": "StrategyDeleted",
      "type": "event"
    },
    {
      "anonymous": false,
      "inputs": [
        {
          "indexed": true,
          "internalType": "uint256",
          "name": "id",
          "type": "uint256"
        },
        {
          "indexed": true,
          "internalType": "Token",
          "name": "token0",
          "type": "address"
        },
        {
          "indexed": true,
          "internalType": "Token",
          "name": "token1",
          "type": "address"
        },
        {
          "components": [
            {
              "internalType": "uint128",
              "name": "y",
              "type": "uint128"
            },
            {
              "internalType": "uint128",
              "name": "z",
              "type": "uint128"
            },
            {
              "internalType": "uint64",
              "name": "A",
              "type": "uint64"
            },
            {
              "internalType": "uint64",
              "name": "B",
              "type": "uint64"
            }
          ],
          "indexed": false,
          "internalType": "struct Order",
          "name": "order0",
          "type": "tuple"
        },
        {
          "components": [
            {
              "internalType": "uint128",
              "name": "y",
              "type": "uint128"
            },
            {
              "internalType": "uint128",
              "name": "z",
              "type": "uint128"
            },
            {
              "internalType": "uint64",
              "name": "A",
              "type": "uint64"
            },
            {
              "internalType": "uint64",
              "name": "B",
              "type": "uint64"
            }
          ],
          "indexed": false,
          "internalType": "struct Order",
          "name": "order1",
          "type": "tuple"
        },
        {
          "indexed": false,
          "internalType": "uint8",
          "name": "reason",
          "type": "uint8"
        }
      ],
      "name": "StrategyUpdated",
      "type": "event"
    },
    {
      "anonymous": false,
      "inputs": [
        {
          "indexed": true,
          "internalType": "address",
          "name": "trader",
          "type": "address"
        },
        {
          "indexed": true,
          "internalType": "Token",
          "name": "sourceToken",
          "type": "address"
        },
        {
          "indexed": true,
          "internalType": "Token",
          "name": "targetToken",
          "type": "address"
        },
        {
          "indexed": false,
          "internalType": "uint256",
          "name": "sourceAmount",
          "type": "uint256"
        },
        {
          "indexed": false,
          "internalType": "uint256",
          "name": "targetAmount",
          "type": "uint256"
        },
        {
          "indexed": false,
          "internalType": "uint128",
          "name": "tradingFeeAmount",
          "type": "uint128"
        },
        {
          "indexed": false,
          "internalType": "bool",
          "name": "byTargetAmount",
          "type": "bool"
        }
      ],
      "name": "TokensTraded",
      "type": "event"
    },
    {
      "anonymous": false,
      "inputs": [
        {
          "indexed": false,
          "internalType": "uint32",
          "name": "prevFeePPM",
          "type": "uint32"
        },
        {
          "indexed": false,
          "internalType": "uint32",
          "name": "newFeePPM",
          "type": "uint32"
        }
      ],
      "name": "TradingFeePPMUpdated",
      "type": "event"
    },
    {
      "inputs": [],
      "name": "DEFAULT_ADMIN_ROLE",
      "outputs": [
        {
          "internalType": "bytes32",
          "name": "",
          "type": "bytes32"
        }
      ],
      "stateMutability": "view",
      "type": "function"
    },
    {
      "inputs": [
        {
          "internalType": "Token",
          "name": "token",
          "type": "address"
        }
      ],
      "name": "accumulatedFees",
      "outputs": [
        {
          "internalType": "uint256",
          "name": "",
          "type": "uint256"
        }
      ],
      "stateMutability": "view",
      "type": "function"
    },
    {
      "inputs": [
        {
          "internalType": "Token",
          "name": "sourceToken",
          "type": "address"
        },
        {
          "internalType": "Token",
          "name": "targetToken",
          "type": "address"
        },
        {
          "components": [
            {
              "internalType": "uint256",
              "name": "strategyId",
              "type": "uint256"
            },
            {
              "internalType": "uint128",
              "name": "amount",
              "type": "uint128"
            }
          ],
          "internalType": "struct TradeAction[]",
          "name": "tradeActions",
          "type": "tuple[]"
        }
      ],
      "name": "calculateTradeSourceAmount",
      "outputs": [
        {
          "internalType": "uint128",
          "name": "",
          "type": "uint128"
        }
      ],
      "stateMutability": "view",
      "type": "function"
    },
    {
      "inputs": [
        {
          "internalType": "Token",
          "name": "sourceToken",
          "type": "address"
        },
        {
          "internalType": "Token",
          "name": "targetToken",
          "type": "address"
        },
        {
          "components": [
            {
              "internalType": "uint256",
              "name": "strategyId",
              "type": "uint256"
            },
            {
              "internalType": "uint128",
              "name": "amount",
              "type": "uint128"
            }
          ],
          "internalType": "struct TradeAction[]",
          "name": "tradeActions",
          "type": "tuple[]"
        }
      ],
      "name": "calculateTradeTargetAmount",
      "outputs": [
        {
          "internalType": "uint128",
          "name": "",
          "type": "uint128"
        }
      ],
      "stateMutability": "view",
      "type": "function"
    },
    {
      "inputs": [],
      "name": "controllerType",
      "outputs": [
        {
          "internalType": "uint16",
          "name": "",
          "type": "uint16"
        }
      ],
      "stateMutability": "pure",
      "type": "function"
    },
    {
      "inputs": [
        {
          "internalType": "Token",
          "name": "token0",
          "type": "address"
        },
        {
          "internalType": "Token",
          "name": "token1",
          "type": "address"
        }
      ],
      "name": "createPair",
      "outputs": [
        {
          "components": [
            {
              "internalType": "uint128",
              "name": "id",
              "type": "uint128"
            },
            {
              "internalType": "Token[2]",
              "name": "tokens",
              "type": "address[2]"
            }
          ],
          "internalType": "struct Pair",
          "name": "",
          "type": "tuple"
        }
      ],
      "stateMutability": "nonpayable",
      "type": "function"
    },
    {
      "inputs": [
        {
          "internalType": "Token",
          "name": "token0",
          "type": "address"
        },
        {
          "internalType": "Token",
          "name": "token1",
          "type": "address"
        },
        {
          "components": [
            {
              "internalType": "uint128",
              "name": "y",
              "type": "uint128"
            },
            {
              "internalType": "uint128",
              "name": "z",
              "type": "uint128"
            },
            {
              "internalType": "uint64",
              "name": "A",
              "type": "uint64"
            },
            {
              "internalType": "uint64",
              "name": "B",
              "type": "uint64"
            }
          ],
          "internalType": "struct Order[2]",
          "name": "orders",
          "type": "tuple[2]"
        }
      ],
      "name": "createStrategy",
      "outputs": [
        {
          "internalType": "uint256",
          "name": "",
          "type": "uint256"
        }
      ],
      "stateMutability": "payable",
      "type": "function"
    },
    {
      "inputs": [
        {
          "internalType": "uint256",
          "name": "strategyId",
          "type": "uint256"
        }
      ],
      "name": "deleteStrategy",
      "outputs": [],
      "stateMutability": "nonpayable",
      "type": "function"
    },
    {
      "inputs": [
        {
          "internalType": "bytes32",
          "name": "role",
          "type": "bytes32"
        }
      ],
      "name": "getRoleAdmin",
      "outputs": [
        {
          "internalType": "bytes32",
          "name": "",
          "type": "bytes32"
        }
      ],
      "stateMutability": "view",
      "type": "function"
    },
    {
      "inputs": [
        {
          "internalType": "bytes32",
          "name": "role",
          "type": "bytes32"
        },
        {
          "internalType": "uint256",
          "name": "index",
          "type": "uint256"
        }
      ],
      "name": "getRoleMember",
      "outputs": [
        {
          "internalType": "address",
          "name": "",
          "type": "address"
        }
      ],
      "stateMutability": "view",
      "type": "function"
    },
    {
      "inputs": [
        {
          "internalType": "bytes32",
          "name": "role",
          "type": "bytes32"
        }
      ],
      "name": "getRoleMemberCount",
      "outputs": [
        {
          "internalType": "uint256",
          "name": "",
          "type": "uint256"
        }
      ],
      "stateMutability": "view",
      "type": "function"
    },
    {
      "inputs": [
        {
          "internalType": "bytes32",
          "name": "role",
          "type": "bytes32"
        },
        {
          "internalType": "address",
          "name": "account",
          "type": "address"
        }
      ],
      "name": "grantRole",
      "outputs": [],
      "stateMutability": "nonpayable",
      "type": "function"
    },
    {
      "inputs": [
        {
          "internalType": "bytes32",
          "name": "role",
          "type": "bytes32"
        },
        {
          "internalType": "address",
          "name": "account",
          "type": "address"
        }
      ],
      "name": "hasRole",
      "outputs": [
        {
          "internalType": "bool",
          "name": "",
          "type": "bool"
        }
      ],
      "stateMutability": "view",
      "type": "function"
    },
    {
      "inputs": [],
      "name": "initialize",
      "outputs": [],
      "stateMutability": "nonpayable",
      "type": "function"
    },
    {
      "inputs": [
        {
          "internalType": "Token",
          "name": "token0",
          "type": "address"
        },
        {
          "internalType": "Token",
          "name": "token1",
          "type": "address"
        }
      ],
      "name": "pair",
      "outputs": [
        {
          "components": [
            {
              "internalType": "uint128",
              "name": "id",
              "type": "uint128"
            },
            {
              "internalType": "Token[2]",
              "name": "tokens",
              "type": "address[2]"
            }
          ],
          "internalType": "struct Pair",
          "name": "",
          "type": "tuple"
        }
      ],
      "stateMutability": "view",
      "type": "function"
    },
    {
      "inputs": [
        {
          "internalType": "Token",
          "name": "token0",
          "type": "address"
        },
        {
          "internalType": "Token",
          "name": "token1",
          "type": "address"
        }
      ],
      "name": "pairTradingFeePPM",
      "outputs": [
        {
          "internalType": "uint32",
          "name": "",
          "type": "uint32"
        }
      ],
      "stateMutability": "view",
      "type": "function"
    },
    {
      "inputs": [],
      "name": "pairs",
      "outputs": [
        {
          "internalType": "Token[2][]",
          "name": "",
          "type": "address[2][]"
        }
      ],
      "stateMutability": "view",
      "type": "function"
    },
    {
      "inputs": [
        {
          "internalType": "bytes",
          "name": "data",
          "type": "bytes"
        }
      ],
      "name": "postUpgrade",
      "outputs": [],
      "stateMutability": "nonpayable",
      "type": "function"
    },
    {
      "inputs": [
        {
          "internalType": "bytes32",
          "name": "role",
          "type": "bytes32"
        },
        {
          "internalType": "address",
          "name": "account",
          "type": "address"
        }
      ],
      "name": "renounceRole",
      "outputs": [],
      "stateMutability": "nonpayable",
      "type": "function"
    },
    {
      "inputs": [
        {
          "internalType": "bytes32",
          "name": "role",
          "type": "bytes32"
        },
        {
          "internalType": "address",
          "name": "account",
          "type": "address"
        }
      ],
      "name": "revokeRole",
      "outputs": [],
      "stateMutability": "nonpayable",
      "type": "function"
    },
    {
      "inputs": [],
      "name": "roleAdmin",
      "outputs": [
        {
          "internalType": "bytes32",
          "name": "",
          "type": "bytes32"
        }
      ],
      "stateMutability": "pure",
      "type": "function"
    },
    {
      "inputs": [],
      "name": "roleFeesManager",
      "outputs": [
        {
          "internalType": "bytes32",
          "name": "",
          "type": "bytes32"
        }
      ],
      "stateMutability": "pure",
      "type": "function"
    },
    {
      "inputs": [
        {
          "internalType": "Token",
          "name": "token0",
          "type": "address"
        },
        {
          "internalType": "Token",
          "name": "token1",
          "type": "address"
        },
        {
          "internalType": "uint32",
          "name": "newPairTradingFeePPM",
          "type": "uint32"
        }
      ],
      "name": "setPairTradingFeePPM",
      "outputs": [],
      "stateMutability": "nonpayable",
      "type": "function"
    },
    {
      "inputs": [
        {
          "internalType": "uint32",
          "name": "newTradingFeePPM",
          "type": "uint32"
        }
      ],
      "name": "setTradingFeePPM",
      "outputs": [],
      "stateMutability": "nonpayable",
      "type": "function"
    },
    {
      "inputs": [
        {
          "internalType": "Token",
          "name": "token0",
          "type": "address"
        },
        {
          "internalType": "Token",
          "name": "token1",
          "type": "address"
        },
        {
          "internalType": "uint256",
          "name": "startIndex",
          "type": "uint256"
        },
        {
          "internalType": "uint256",
          "name": "endIndex",
          "type": "uint256"
        }
      ],
      "name": "strategiesByPair",
      "outputs": [
        {
          "components": [
            {
              "internalType": "uint256",
              "name": "id",
              "type": "uint256"
            },
            {
              "internalType": "address",
              "name": "owner",
              "type": "address"
            },
            {
              "internalType": "Token[2]",
              "name": "tokens",
              "type": "address[2]"
            },
            {
              "components": [
                {
                  "internalType": "uint128",
                  "name": "y",
                  "type": "uint128"
                },
                {
                  "internalType": "uint128",
                  "name": "z",
                  "type": "uint128"
                },
                {
                  "internalType": "uint64",
                  "name": "A",
                  "type": "uint64"
                },
                {
                  "internalType": "uint64",
                  "name": "B",
                  "type": "uint64"
                }
              ],
              "internalType": "struct Order[2]",
              "name": "orders",
              "type": "tuple[2]"
            }
          ],
          "internalType": "struct Strategy[]",
          "name": "",
          "type": "tuple[]"
        }
      ],
      "stateMutability": "view",
      "type": "function"
    },
    {
      "inputs": [
        {
          "internalType": "Token",
          "name": "token0",
          "type": "address"
        },
        {
          "internalType": "Token",
          "name": "token1",
          "type": "address"
        }
      ],
      "name": "strategiesByPairCount",
      "outputs": [
        {
          "internalType": "uint256",
          "name": "",
          "type": "uint256"
        }
      ],
      "stateMutability": "view",
      "type": "function"
    },
    {
      "inputs": [
        {
          "internalType": "uint256",
          "name": "id",
          "type": "uint256"
        }
      ],
      "name": "strategy",
      "outputs": [
        {
          "components": [
            {
              "internalType": "uint256",
              "name": "id",
              "type": "uint256"
            },
            {
              "internalType": "address",
              "name": "owner",
              "type": "address"
            },
            {
              "internalType": "Token[2]",
              "name": "tokens",
              "type": "address[2]"
            },
            {
              "components": [
                {
                  "internalType": "uint128",
                  "name": "y",
                  "type": "uint128"
                },
                {
                  "internalType": "uint128",
                  "name": "z",
                  "type": "uint128"
                },
                {
                  "internalType": "uint64",
                  "name": "A",
                  "type": "uint64"
                },
                {
                  "internalType": "uint64",
                  "name": "B",
                  "type": "uint64"
                }
              ],
              "internalType": "struct Order[2]",
              "name": "orders",
              "type": "tuple[2]"
            }
          ],
          "internalType": "struct Strategy",
          "name": "",
          "type": "tuple"
        }
      ],
      "stateMutability": "view",
      "type": "function"
    },
    {
      "inputs": [
        {
          "internalType": "bytes4",
          "name": "interfaceId",
          "type": "bytes4"
        }
      ],
      "name": "supportsInterface",
      "outputs": [
        {
          "internalType": "bool",
          "name": "",
          "type": "bool"
        }
      ],
      "stateMutability": "view",
      "type": "function"
    },
    {
      "inputs": [
        {
          "internalType": "Token",
          "name": "sourceToken",
          "type": "address"
        },
        {
          "internalType": "Token",
          "name": "targetToken",
          "type": "address"
        },
        {
          "components": [
            {
              "internalType": "uint256",
              "name": "strategyId",
              "type": "uint256"
            },
            {
              "internalType": "uint128",
              "name": "amount",
              "type": "uint128"
            }
          ],
          "internalType": "struct TradeAction[]",
          "name": "tradeActions",
          "type": "tuple[]"
        },
        {
          "internalType": "uint256",
          "name": "deadline",
          "type": "uint256"
        },
        {
          "internalType": "uint128",
          "name": "minReturn",
          "type": "uint128"
        }
      ],
      "name": "tradeBySourceAmount",
      "outputs": [
        {
          "internalType": "uint128",
          "name": "",
          "type": "uint128"
        }
      ],
      "stateMutability": "payable",
      "type": "function"
    },
    {
      "inputs": [
        {
          "internalType": "Token",
          "name": "sourceToken",
          "type": "address"
        },
        {
          "internalType": "Token",
          "name": "targetToken",
          "type": "address"
        },
        {
          "components": [
            {
              "internalType": "uint256",
              "name": "strategyId",
              "type": "uint256"
            },
            {
              "internalType": "uint128",
              "name": "amount",
              "type": "uint128"
            }
          ],
          "internalType": "struct TradeAction[]",
          "name": "tradeActions",
          "type": "tuple[]"
        },
        {
          "internalType": "uint256",
          "name": "deadline",
          "type": "uint256"
        },
        {
          "internalType": "uint128",
          "name": "maxInput",
          "type": "uint128"
        }
      ],
      "name": "tradeByTargetAmount",
      "outputs": [
        {
          "internalType": "uint128",
          "name": "",
          "type": "uint128"
        }
      ],
      "stateMutability": "payable",
      "type": "function"
    },
    {
      "inputs": [],
      "name": "tradingFeePPM",
      "outputs": [
        {
          "internalType": "uint32",
          "name": "",
          "type": "uint32"
        }
      ],
      "stateMutability": "view",
      "type": "function"
    },
    {
      "inputs": [
        {
          "internalType": "uint256",
          "name": "strategyId",
          "type": "uint256"
        },
        {
          "components": [
            {
              "internalType": "uint128",
              "name": "y",
              "type": "uint128"
            },
            {
              "internalType": "uint128",
              "name": "z",
              "type": "uint128"
            },
            {
              "internalType": "uint64",
              "name": "A",
              "type": "uint64"
            },
            {
              "internalType": "uint64",
              "name": "B",
              "type": "uint64"
            }
          ],
          "internalType": "struct Order[2]",
          "name": "currentOrders",
          "type": "tuple[2]"
        },
        {
          "components": [
            {
              "internalType": "uint128",
              "name": "y",
              "type": "uint128"
            },
            {
              "internalType": "uint128",
              "name": "z",
              "type": "uint128"
            },
            {
              "internalType": "uint64",
              "name": "A",
              "type": "uint64"
            },
            {
              "internalType": "uint64",
              "name": "B",
              "type": "uint64"
            }
          ],
          "internalType": "struct Order[2]",
          "name": "newOrders",
          "type": "tuple[2]"
        }
      ],
      "name": "updateStrategy",
      "outputs": [],
      "stateMutability": "payable",
      "type": "function"
    },
    {
      "inputs": [],
      "name": "version",
      "outputs": [
        {
          "internalType": "uint16",
          "name": "",
          "type": "uint16"
        }
      ],
      "stateMutability": "pure",
      "type": "function"
    },
    {
      "inputs": [
        {
          "internalType": "Token",
          "name": "token",
          "type": "address"
        },
        {
          "internalType": "uint256",
          "name": "amount",
          "type": "uint256"
        },
        {
          "internalType": "address",
          "name": "recipient",
          "type": "address"
        }
      ],
      "name": "withdrawFees",
      "outputs": [
        {
          "internalType": "uint256",
          "name": "",
          "type": "uint256"
        }
      ],
      "stateMutability": "nonpayable",
      "type": "function"
    }
  ],
  "transactionHash": "0xe6e39cc2cbbe7ed6b3f68962055b74501ca4f9fb755f324b8114b10715f31b4f",
  "args": [
    "0x5E994Ac7d65d81f51a76e0bB5a236C6fDA8dBF9A",
    "0x6619871118D144c1c28eC3b23036FC1f0829ed3a"
  ],
  "numDeployments": 2,
  "solcInputHash": "eccaf0c7187879236db5b8ca00a4398f",
  "bytecode": "0x60c06040523480156200001157600080fd5b506040516200650638038062006506833981016040819052620000349162000893565b6001600160a01b0381166080526200004c826200006b565b6001600160a01b03821660a0526200006362000096565b505062000903565b6001600160a01b038116620000935760405163e6c4247b60e01b815260040160405180910390fd5b50565b600054610100900460ff1615808015620000b75750600054600160ff909116105b80620000d35750303b158015620000d3575060005460ff166001145b6200013c5760405162461bcd60e51b815260206004820152602e60248201527f496e697469616c697a61626c653a20636f6e747261637420697320616c72656160448201526d191e481a5b9a5d1a585b1a5e995960921b60648201526084015b60405180910390fd5b6000805460ff19166001179055801562000160576000805461ff0019166101001790555b6200016a620001b3565b801562000093576000805461ff0019169055604051600181527f7f26b83ff96e1f2b6a682f133852f6798a09c465da95921460cefb38474024989060200160405180910390a150565b600054610100900460ff166200020f5760405162461bcd60e51b815260206004820152602b6024820152600080516020620064e683398151915260448201526a6e697469616c697a696e6760a81b606482015260840162000133565b6200021962000243565b62000223620002a9565b6200022d6200030f565b620002376200037f565b62000241620003e5565b565b600054610100900460ff166200029f5760405162461bcd60e51b815260206004820152602b6024820152600080516020620064e683398151915260448201526a6e697469616c697a696e6760a81b606482015260840162000133565b620002416200047c565b600054610100900460ff16620003055760405162461bcd60e51b815260206004820152602b6024820152600080516020620064e683398151915260448201526a6e697469616c697a696e6760a81b606482015260840162000133565b62000241620004d8565b600054610100900460ff166200036b5760405162461bcd60e51b815260206004820152602b6024820152600080516020620064e683398151915260448201526a6e697469616c697a696e6760a81b606482015260840162000133565b620003756200047c565b6200024162000541565b600054610100900460ff16620003db5760405162461bcd60e51b815260206004820152602b6024820152600080516020620064e683398151915260448201526a6e697469616c697a696e6760a81b606482015260840162000133565b62000241620005f8565b600054610100900460ff16620004415760405162461bcd60e51b815260206004820152602b6024820152600080516020620064e683398151915260448201526a6e697469616c697a696e6760a81b606482015260840162000133565b620002417f24a843cae781765d8cdc3bca1cc42497522c0508f4e621c2ca36ceea2fda7b16600080516020620064c68339815191526200065c565b600054610100900460ff16620002415760405162461bcd60e51b815260206004820152602b6024820152600080516020620064e683398151915260448201526a6e697469616c697a696e6760a81b606482015260840162000133565b600054610100900460ff16620005345760405162461bcd60e51b815260206004820152602b6024820152600080516020620064e683398151915260448201526a6e697469616c697a696e6760a81b606482015260840162000133565b62000241610fa0620006a7565b600054610100900460ff166200059d5760405162461bcd60e51b815260206004820152602b6024820152600080516020620064e683398151915260448201526a6e697469616c697a696e6760a81b606482015260840162000133565b620005ab60016006620008d2565b61012d805461ffff191661ffff92909216919091179055620005dd600080516020620064c6833981519152806200065c565b62000241600080516020620064c6833981519152336200072c565b600054610100900460ff16620006545760405162461bcd60e51b815260206004820152602b6024820152600080516020620064e683398151915260448201526a6e697469616c697a696e6760a81b606482015260840162000133565b600161015f55565b600082815260c96020526040808220600101805490849055905190918391839186917fbd79b86ffe0ab8e8776151514217cd7cacd52c909f66475c3af44e129f0b00ff9190a4505050565b60655463ffffffff600160801b90910481169082168103620006c7575050565b6065805463ffffffff60801b1916600160801b63ffffffff8581169182029290921790925560408051918416825260208201929092527f66db0986e1156e2e747795714bf0301c7e1c695c149a738cb01bcf5cfead8465910160405180910390a15050565b6200073882826200073c565b5050565b62000748828262000767565b600082815260fb602052604090206200076290826200080b565b505050565b600082815260c9602090815260408083206001600160a01b038516845290915290205460ff166200073857600082815260c9602090815260408083206001600160a01b03851684529091529020805460ff19166001179055620007c73390565b6001600160a01b0316816001600160a01b0316837f2f8788117e7eff1d82e926ec794901d17c78024a50270940304540a733656f0d60405160405180910390a45050565b600062000822836001600160a01b0384166200082b565b90505b92915050565b6000818152600183016020526040812054620008745750815460018181018455600084815260208082209093018490558454848252828601909352604090209190915562000825565b50600062000825565b6001600160a01b03811681146200009357600080fd5b60008060408385031215620008a757600080fd5b8251620008b4816200087d565b6020840151909250620008c7816200087d565b809150509250929050565b61ffff828116828216039080821115620008fc57634e487b7160e01b600052601160045260246000fd5b5092915050565b60805160a051615b7a6200094c600039600081816108b401528181610d2101528181610dcb01528181610f33015281816111a501526111ff015260006113580152615b7a6000f3fe6080604052600436106102195760003560e01c806391d148541161011d578063ca15c873116100b0578063f2bda26d1161007f578063f74dad8111610064578063f74dad811461069a578063fcf66664146106c7578063ffb0a4a0146106e757600080fd5b8063f2bda26d14610667578063f727473a1461068757600080fd5b8063ca15c873146105e5578063d547741f14610605578063f06f8acd14610625578063f1c5e0141461065457600080fd5b8063b76040cd116100ec578063b76040cd1461054f578063ba0a868b14610563578063bc88d7e414610598578063c9c65396146105c557600080fd5b806391d14854146104a157806393867fb5146104e75780639ba372c21461051a578063a217fddf1461053a57600080fd5b806336568abe116101b05780638129fc1c1161017f578063873020371161016457806387302037146104295780638cd2403d146104495780639010d07c1461046957600080fd5b80638129fc1c146103e75780638672d545146103fc57600080fd5b806336568abe1461036457806354fd4d501461038457806355817d1d146103a757806369a4dea7146103c757600080fd5b80632ab2fad1116101ec5780632ab2fad1146102d15780632c40de1b146102f15780632f2ff15d14610324578063322cf8441461034457600080fd5b806301ffc9a71461021e578063102ee9ba1461025357806321589fa11461027e578063248a9ca314610293575b600080fd5b34801561022a57600080fd5b5061023e610239366004614fef565b610709565b60405190151581526020015b60405180910390f35b6102666102613660046150a7565b610765565b6040516001600160801b03909116815260200161024a565b61029161028c36600461513a565b610877565b005b34801561029f57600080fd5b506102c36102ae36600461517a565b600090815260c9602052604090206001015490565b60405190815260200161024a565b3480156102dd57600080fd5b506102666102ec366004615193565b6109e3565b3480156102fd57600080fd5b507f24a843cae781765d8cdc3bca1cc42497522c0508f4e621c2ca36ceea2fda7b166102c3565b34801561033057600080fd5b5061029161033f3660046151f8565b610a3d565b34801561035057600080fd5b506102c361035f366004615228565b610a62565b34801561037057600080fd5b5061029161037f3660046151f8565b610a85565b34801561039057600080fd5b5060065b60405161ffff909116815260200161024a565b3480156103b357600080fd5b506102916103c236600461526a565b610b16565b3480156103d357600080fd5b506102916103e23660046152a8565b610b69565b3480156103f357600080fd5b50610291610ba6565b34801561040857600080fd5b5061041c610417366004615228565b610cc6565b60405161024a91906152ef565b34801561043557600080fd5b5061029161044436600461517a565b610ce9565b34801561045557600080fd5b50610291610464366004615313565b610dfc565b34801561047557600080fd5b50610489610484366004615385565b610e69565b6040516001600160a01b03909116815260200161024a565b3480156104ad57600080fd5b5061023e6104bc3660046151f8565b600091825260c9602090815260408084206001600160a01b0393909316845291905290205460ff1690565b3480156104f357600080fd5b507f2172861495e7b85edac73e3cd5fbb42dd675baadf627720e687bcfdaca0250966102c3565b34801561052657600080fd5b506102c36105353660046153a7565b610e81565b34801561054657600080fd5b506102c3600081565b34801561055b57600080fd5b506001610394565b34801561056f57600080fd5b5061058361057e366004615228565b610ef8565b60405163ffffffff909116815260200161024a565b3480156105a457600080fd5b506105b86105b336600461517a565b610f14565b60405161024a919061548b565b3480156105d157600080fd5b5061041c6105e0366004615228565b610f58565b3480156105f157600080fd5b506102c361060036600461517a565b610f91565b34801561061157600080fd5b506102916106203660046151f8565b610fa8565b34801561063157600080fd5b50606554700100000000000000000000000000000000900463ffffffff16610583565b6102666106623660046150a7565b610fcd565b34801561067357600080fd5b50610266610682366004615193565b61107b565b6102c361069536600461549a565b6110d1565b3480156106a657600080fd5b506106ba6106b53660046154da565b6111dd565b60405161024a9190615520565b3480156106d357600080fd5b506102c36106e236600461556f565b611223565b3480156106f357600080fd5b506106fc61124c565b60405161024a919061558c565b60007fffffffff0000000000000000000000000000000000000000000000000000000082167f5a05180f00000000000000000000000000000000000000000000000000000000148061075f575061075f8261125b565b92915050565b600061076f6112f2565b61077761134d565b61078487878534866113b1565b610796876001600160a01b0316611444565b156107de57816001600160801b03163410156107de576040517f7038b89900000000000000000000000000000000000000000000000000000000815260040160405180910390fd5b60006107ea888861146b565b6040805161010081018252338152815180830183526001600160a01b038c811682528b166020828101919091528201526001918101919091526001600160801b038516606082015234608082015260a08101829052600060c0820181905260e082015290915061085b87878361150f565b60c0015191505061086d600161015f55565b9695505050505050565b61087f6112f2565b61088761134d565b600061089b6108968560801c90565b611ad4565b6040516331a9108f60e11b8152600481018690529091507f00000000000000000000000000000000000000000000000000000000000000006001600160a01b031690636352211e90602401602060405180830381865afa158015610903573d6000803e3d6000fd5b505050506040513d601f19601f8201168201806040525081019061092791906155d9565b6001600160a01b0316336001600160a01b03161461095857604051634ca8886760e01b815260040160405180910390fd5b600034118015610984575060208101516109829060005b60200201516001600160a01b0316611444565b155b801561099d5750602081015161099b90600161096f565b155b156109bb57604051631334bf4f60e11b815260040160405180910390fd5b6109c482611bac565b6109d2848484843334611d38565b506109de600161015f55565b505050565b60006109ef8585612150565b60006109fb868661146b565b604080518082019091526001600160a01b038089168252871660208201529091506000610a2b82878786856121af565b6020015193505050505b949350505050565b600082815260c96020526040902060010154610a5881612373565b6109de838361237d565b6000610a6e8383612150565b6000610a7a848461146b565b9050610a358161239f565b6001600160a01b0381163314610b085760405162461bcd60e51b815260206004820152602f60248201527f416363657373436f6e74726f6c3a2063616e206f6e6c792072656e6f756e636560448201527f20726f6c657320666f722073656c66000000000000000000000000000000000060648201526084015b60405180910390fd5b610b1282826123c1565b5050565b610b407f2172861495e7b85edac73e3cd5fbb42dd675baadf627720e687bcfdaca025096336123e3565b80610b4a81612426565b6000610b56858561146b565b9050610b628184612469565b5050505050565b610b937f2172861495e7b85edac73e3cd5fbb42dd675baadf627720e687bcfdaca025096336123e3565b80610b9d81612426565b610b1282612552565b600054610100900460ff1615808015610bc65750600054600160ff909116105b80610be05750303b158015610be0575060005460ff166001145b610c525760405162461bcd60e51b815260206004820152602e60248201527f496e697469616c697a61626c653a20636f6e747261637420697320616c72656160448201527f647920696e697469616c697a65640000000000000000000000000000000000006064820152608401610aff565b6000805460ff191660011790558015610c75576000805461ff0019166101001790555b610c7d612608565b8015610cc3576000805461ff0019169055604051600181527f7f26b83ff96e1f2b6a682f133852f6798a09c465da95921460cefb38474024989060200160405180910390a15b50565b610cce614e6a565b610cd88383612150565b610ce2838361146b565b9392505050565b610cf16112f2565b610cf961134d565b6000610d086108968360801c90565b6040516331a9108f60e11b8152600481018490529091507f00000000000000000000000000000000000000000000000000000000000000006001600160a01b031690636352211e90602401602060405180830381865afa158015610d70573d6000803e3d6000fd5b505050506040513d601f19601f82011682018060405250810190610d9491906155d9565b6001600160a01b0316336001600160a01b031614610dc557604051634ca8886760e01b815260040160405180910390fd5b610df0827f00000000000000000000000000000000000000000000000000000000000000008361269b565b50610cc3600161015f55565b61012d54600090610e129061ffff166001615622565b905061ffff8116600614610e52576040517f0dc149f000000000000000000000000000000000000000000000000000000000815260040160405180910390fd5b61012d805461ffff191661ffff8316179055505050565b600082815260fb60205260408120610ce2908361285a565b60007f24a843cae781765d8cdc3bca1cc42497522c0508f4e621c2ca36ceea2fda7b16610eae81336123e3565b82610eb881612866565b85610ec281612866565b85610ecc816128a6565b610ed46112f2565b610ee033888a896128e0565b9450610eed600161015f55565b505050509392505050565b600080610f05848461146b565b9050610a358160000151612994565b610f1c614e92565b6000610f2b6108968460801c90565b9050610ce2837f0000000000000000000000000000000000000000000000000000000000000000836129e3565b610f60614e6a565b610f686112f2565b610f7061134d565b610f7a8383612150565b610f848383612ae4565b905061075f600161015f55565b600081815260fb6020526040812061075f90612c46565b600082815260c96020526040902060010154610fc381612373565b6109de83836123c1565b6000610fd76112f2565b610fdf61134d565b610fec87878534866113b1565b6000610ff8888861146b565b6040805161010081018252338152815180830183526001600160a01b038c811682528b1660208281019190915282015260009181018290526001600160801b038616606082015234608082015260a0810183905260c0810182905260e081019190915290915061106987878361150f565b60e0015191505061086d600161015f55565b60006110878585612150565b6000611093868661146b565b604080518082019091526001600160a01b0380891682528716602082015290915060006110c48287878660016121af565b5198975050505050505050565b60006110db6112f2565b6110e361134d565b6110ed8484612150565b60003411801561110c575061110a846001600160a01b0316611444565b155b80156111275750611125836001600160a01b0316611444565b155b1561114557604051631334bf4f60e11b815260040160405180910390fd5b61114e82611bac565b611156614e6a565b6111608585612c50565b6111755761116e8585612ae4565b9050611182565b61117f858561146b565b90505b604080518082019091526001600160a01b038087168252851660208201526111ce7f00000000000000000000000000000000000000000000000000000000000000008286853334612cb3565b92505050610ce2600161015f55565b60606111e98585612150565b60006111f5868661146b565b905061086d8185857f0000000000000000000000000000000000000000000000000000000000000000612ee0565b60008161122f81612866565b50506001600160a01b031660009081526068602052604090205490565b6060611256613025565b905090565b60007fffffffff0000000000000000000000000000000000000000000000000000000082167f7965db0b00000000000000000000000000000000000000000000000000000000148061075f57507f01ffc9a7000000000000000000000000000000000000000000000000000000007fffffffff0000000000000000000000000000000000000000000000000000000083161461075f565b600261015f54036113455760405162461bcd60e51b815260206004820152601f60248201527f5265656e7472616e637947756172643a207265656e7472616e742063616c6c006044820152606401610aff565b600261015f55565b306001600160a01b037f000000000000000000000000000000000000000000000000000000000000000016146113af576040517fd0c8bfe500000000000000000000000000000000000000000000000000000000815260040160405180910390fd5b565b428310156113eb576040517f1ab7da6b00000000000000000000000000000000000000000000000000000000815260040160405180910390fd5b6113fd816001600160801b03166128a6565b6114078585612150565b6000821180156114265750611424856001600160a01b0316611444565b155b15610b6257604051631334bf4f60e11b815260040160405180910390fd5b60006001600160a01b03821673eeeeeeeeeeeeeeeeeeeeeeeeeeeeeeeeeeeeeeee1461075f565b611473614e6a565b61147d8383612c50565b6114b3576040517fc5fc4bf400000000000000000000000000000000000000000000000000000000815260040160405180910390fd5b60006114bf8484613144565b80516001600160a01b039081166000908152603460209081526040808320828601519094168352928152908290205482518084019093526001600160801b03168252810191909152949350505050565b600061154e8260200151602001518360a0015160200151600060028110611538576115386155f6565b60200201516001600160a01b0390811691161490565b905060005b8381101561184a57600085858381811061156f5761156f6155f6565b9050604002016020016020810190611587919061563d565b9050600086868481811061159d5761159d6155f6565b60409081029290920135600081815260666020528381208451606081019586905292955093909250839060039082845b8154815260200190600101908083116115cd57505050505090506000806115f3836131aa565b9150915061160a8960a0015160000151868861329e565b6000808215158a151514611624578351602085015161162c565b602084015184515b91509150600080611642848b8f60400151613335565b91509150806001600160801b031684600001516001600160801b03161015611696576040517fbb55fd2700000000000000000000000000000000000000000000000000000000815260040160405180910390fd5b83518190036001600160801b031684528251829084906116b7908390615658565b6001600160801b03908116909152845160208601519082169116101590506116ea5782516001600160801b031660208401525b60006116f68787613411565b80518a55602080820151908a01519192501461171757602081015160018a01555b604080820151908901511461173157604081015160028a01555b8d60a001516020015186611746576001611749565b60005b60ff166002811061175c5761175c6155f6565b60200201516001600160a01b03168e60a00151602001518761177f576000611782565b60015b60ff1660028110611795576117956155f6565b60200201516001600160a01b03168b7f720da23a5c920b1d8827ec83c4d3c4d90d9419eadb0036b88cb4c2ffa91aef7d8a600060200201518b6001602002015160016040516117e693929190615678565b60405180910390a4828e60c0018181516118009190615658565b6001600160801b031690525060e08e018051839190611820908390615658565b6001600160801b03169052506118439a508b995061353f98505050505050505050565b9050611553565b50600082604001511561191857600061186f8460c001518560a0015160000151613545565b90508360c00151816118819190615716565b6001600160801b0380831660c087018190526060870151929450911610156118d5576040517f0699263d00000000000000000000000000000000000000000000000000000000815260040160405180910390fd5b602080850151516001600160a01b0316600090815260689091526040812080546001600160801b038516929061190c908490615736565b909155506119d6915050565b60006119308460e001518560a001516000015161357c565b9050808460e001516119429190615716565b6001600160801b0380831660e08701819052606087015192945091161115611996576040517ff602de8f00000000000000000000000000000000000000000000000000000000815260040160405180910390fd5b6020808501518101516001600160a01b0316600090815260689091526040812080546001600160801b03851692906119cf908490615736565b9091555050505b611a0183602001516000015184600001518560c001516001600160801b0316866080015160006135b6565b611a2583602001516020015184600001518560e001516001600160801b03166136de565b8260200151602001516001600160a01b03168360200151600001516001600160a01b031684600001516001600160a01b03167f95f3b01351225fea0e69a46f68b164c9dea10284f12cd4a907ce66510ab7af6a8660c001518760e00151868960400151604051611abd94939291906001600160801b039485168152928416602084015292166040820152901515606082015260800190565b60405180910390a45050505050565b600161015f55565b611adc614e6a565b6001600160801b0382166000908152603560205260408082208151808301928390529160029082845b81546001600160a01b03168152600190910190602001808311611b05575050505050905060006001600160a01b031681600060028110611b4757611b476155f6565b60200201516001600160a01b031603611b8c576040517fc5fc4bf400000000000000000000000000000000000000000000000000000000815260040160405180910390fd5b604080518082019091526001600160801b03909316835260208301525090565b60005b6002811015610b1257818160028110611bca57611bca6155f6565b608002016000016020810190611be0919061563d565b6001600160801b0316828260028110611bfb57611bfb6155f6565b608002016020016020810190611c11919061563d565b6001600160801b03161015611c52576040517f5cef583a00000000000000000000000000000000000000000000000000000000815260040160405180910390fd5b611c99828260028110611c6757611c676155f6565b608002016040016020810190611c7d9190615761565b67ffffffffffffffff166601000000000000908190041c151590565b611ccf576040517f6a43f8d100000000000000000000000000000000000000000000000000000000815260040160405180910390fd5b611cfa828260028110611ce457611ce46155f6565b608002016060016020810190611c7d9190615761565b611d30576040517f6a43f8d100000000000000000000000000000000000000000000000000000000815260040160405180910390fd5b600101611baf565b60008681526066602052604080822081516060810192839052909291839060039082845b815481526020019060010190808311611d5c5750505050509050600080611d82836131aa565b604080518082019091529193509150611dd2908a60026000835b82821015611dc857611db960808302850136819003810190615792565b81526020019060010190611d9c565b5050505083613729565b611e08576040517f811cb74a00000000000000000000000000000000000000000000000000000000815260040160405180910390fd5b60408051808201909152600090611e55908a600284835b82821015611e4b57611e3c60808302850136819003810190615792565b81526020019060010190611e1f565b5050505083613411565b8051855191925014611e6657805185555b6020808201519085015114611e8057602081015160018601555b6040808201519085015114611e9a57604081015160028601555b6000611ea68984613888565b905060005b60028110156120e8576000828260028110611ec857611ec86155f6565b60200201519050858260028110611ee157611ee16155f6565b6020020151516001600160801b03168c8360028110611f0257611f026155f6565b608002016000016020810190611f18919061563d565b6001600160801b03161015611f8f5760008c8360028110611f3b57611f3b6155f6565b608002016000016020810190611f51919061563d565b878460028110611f6357611f636155f6565b602002015151611f739190615716565b9050611f89828c836001600160801b03166136de565b5061204e565b858260028110611fa157611fa16155f6565b6020020151516001600160801b03168c8360028110611fc257611fc26155f6565b608002016000016020810190611fd8919061563d565b6001600160801b0316111561204e576000868360028110611ffb57611ffb6155f6565b6020020151518d8460028110612013576120136155f6565b608002016000016020810190612029919061563d565b6120339190615716565b905061204c828c836001600160801b03168d60016135b6565b505b60008911801561206b575061206b816001600160a01b0316611444565b80156120c75750858260028110612084576120846155f6565b6020020151516001600160801b03168c83600281106120a5576120a56155f6565b6080020160000160208101906120bb919061563d565b6001600160801b031611155b156120df576120df6001600160a01b038b168a61390b565b50600101611eab565b50602081015181516040516001600160a01b0392831692909116908e907f720da23a5c920b1d8827ec83c4d3c4d90d9419eadb0036b88cb4c2ffa91aef7d9061213a908f90608082019060009061587c565b60405180910390a4505050505050505050505050565b8161215a81612866565b8161216481612866565b6001600160a01b03808516908416036121a9576040517fbd969eb000000000000000000000000000000000000000000000000000000000815260040160405180910390fd5b50505050565b604080518082019091526000808252602082015260006121e487602001518560200151600060028110611538576115386155f6565b905060005b85811015612323576000878783818110612205576122056155f6565b905060400201602001602081019061221d919061563d565b90506000888884818110612233576122336155f6565b60409081029290920135600081815260666020528381208451606081019586905292955090939192509060039082845b8154815260200190600101908083116122635750505050509050600080612289836131aa565b9150915061229c8a60000151858761329e565b6000811515881515146122b05782516122b6565b60208301515b90506000806122c683898e613335565b91509150818b6000018181516122dc9190615658565b6001600160801b031690525060208b0180518291906122fc908390615658565b6001600160801b031690525061231c975088965061353f95505050505050565b90506121e9565b50821561234857815184516123389190613545565b6001600160801b03168252612369565b61235a8260200151856000015161357c565b6001600160801b031660208301525b5095945050505050565b610cc38133613a24565b6123878282613a99565b600082815260fb602052604090206109de9082613b3b565b80516001600160801b03166000908152606760205260408120610ce281612c46565b6123cb8282613b50565b600082815260fb602052604090206109de9082613bd3565b600082815260c9602090815260408083206001600160a01b038516845290915290205460ff16610b1257604051634ca8886760e01b815260040160405180910390fd5b620f424063ffffffff82161115610cc3576040517f58d620b300000000000000000000000000000000000000000000000000000000815260040160405180910390fd5b81516001600160801b031660009081526069602052604090205463ffffffff908116908216810361249957505050565b82516001600160801b03166000908152606960209081526040822080547fffffffffffffffffffffffffffffffffffffffffffffffffffffffff000000001663ffffffff861617905580850151908101516001600160a01b03169160200201516001600160a01b03167f831434d05f3ad5f63be733ea463b2933c70d2162697fd200a22b5d56f5c454b6838560405161254592919063ffffffff92831681529116602082015260400190565b60405180910390a3505050565b60655463ffffffff7001000000000000000000000000000000009091048116908216810361257e575050565b606580547fffffffffffffffffffffffff00000000ffffffffffffffffffffffffffffffff1670010000000000000000000000000000000063ffffffff8581169182029290921790925560408051918416825260208201929092527f66db0986e1156e2e747795714bf0301c7e1c695c149a738cb01bcf5cfead8465910160405180910390a15050565b600054610100900460ff166126735760405162461bcd60e51b815260206004820152602b60248201527f496e697469616c697a61626c653a20636f6e7472616374206973206e6f74206960448201526a6e697469616c697a696e6760a81b6064820152608401610aff565b61267b613be8565b612683613c5b565b61268b613cce565b612693613d49565b6113af613dbc565b60006126a88484846129e3565b80516040517f42966c680000000000000000000000000000000000000000000000000000000081529192506001600160a01b038516916342966c68916126f49160040190815260200190565b600060405180830381600087803b15801561270e57600080fd5b505af1158015612722573d6000803e3d6000fd5b50508251600090815260666020526040812081815560018101829055600201555061274a9050565b805182516001600160801b0316600090815260676020526040902061276e91613e71565b506040810151516020820151606083015161279c92919060005b6020020151516001600160801b03166136de565b60408101516020908101519082015160608301516127bd9291906001612788565b604081015160208101516001600160a01b031690600060200201516001600160a01b031682602001516001600160a01b03167f4d5b6e0627ea711d8e9312b6ba56f50e0b51d41816fd6fd38643495ac81d38b68460000151856060015160006002811061282c5761282c6155f6565b602002015160608701516001602002015160405161284c93929190615898565b60405180910390a450505050565b6000610ce28383613e7d565b6001600160a01b038116610cc3576040517fe6c4247b00000000000000000000000000000000000000000000000000000000815260040160405180910390fd5b80600003610cc3576040517f7c946ed700000000000000000000000000000000000000000000000000000000815260040160405180910390fd5b6001600160a01b03821660009081526068602052604081205480820361290a576000915050610a35565b80851115612916578094505b612920858261592f565b6001600160a01b0385166000908152606860205260409020556129448484876136de565b6040516001600160a01b0387811682528691818616918716907f2f4e8fcae66f01952d258445c03f43cf56d3ce389e017ecd2afa8a79e77175889060200160405180910390a45092949350505050565b6001600160801b03811660009081526069602052604081205463ffffffff1680156129bf5780610ce2565b5050606554700100000000000000000000000000000000900463ffffffff16919050565b6129eb614e92565b6040516331a9108f60e11b8152600481018590526000906001600160a01b03851690636352211e90602401602060405180830381865afa158015612a33573d6000803e3d6000fd5b505050506040513d601f19601f82011682018060405250810190612a5791906155d9565b600086815260666020526040808220815160608101928390529394509192919060039082845b815481526020019060010190808311612a7d5750505050509050600080612aa3836131aa565b915091506000612ab38783613888565b604080516080810182528b81526001600160a01b039097166020880152860152505060608301525090509392505050565b612aec614e6a565b612af68383612c50565b15612b2d576040517fc9bb25eb00000000000000000000000000000000000000000000000000000000815260040160405180910390fd5b6000612b398484613144565b603354909150600090612b56906001600160801b03166001615658565b603380546fffffffffffffffffffffffffffffffff19166001600160801b0383169081179091556000908152603560205260409020909150612b9a90836002614ebe565b5081516001600160a01b039081166000908152603460209081526040808320828701805186168552925280832080546fffffffffffffffffffffffffffffffff19166001600160801b0387169081179091559151865191519085169491909116927f6365c594f5448f79c1cc1e6f661bdbf1d16f2e8f85747e13f8e80f1fd168b7c391a46040518060400160405280826001600160801b03168152602001838152509250505092915050565b600061075f825490565b600080612c5d8484613144565b80516001600160a01b039081166000908152603460209081526040808320828601519094168352929052908120549192506001600160801b039091169003612ca957600091505061075f565b5060019392505050565b8451600090612ce7908487845b608002016000016020810190612cd6919061563d565b6001600160801b03168560016135b6565b6020860151612cf99084876001612cc0565b606554600090612d13906001600160801b03166001615658565b606580546001600160801b0383166fffffffffffffffffffffffffffffffff199182168117909255875192935060009260801b161786516001600160801b03166000908152606760205260409020909150612d6e9082613ea7565b5087516020870151600091612d84916001611538565b60408051808201909152909150612dd2908960026000835b82821015612dc857612db960808302850136819003810190615792565b81526020019060010190612d9c565b5050505082613411565b6000838152606660205260409020612deb916003614f2a565b506040517f40c10f190000000000000000000000000000000000000000000000000000000081526001600160a01b038781166004830152602482018490528b16906340c10f1990604401600060405180830381600087803b158015612e4f57600080fd5b505af1158015612e63573d6000803e3d6000fd5b5050505088600160028110612e7a57612e7a6155f6565b602002015189516040516001600160a01b0392831692918216918916907fff24554f8ccfe540435cfc8854831f8dcf1cf2068708cfaf46e8b52a4ccc4c8d90612ecb9087908e906080820190615942565b60405180910390a45098975050505050505050565b83516001600160801b03166000908152606760205260408120606091612f0582612c46565b9050841580612f1357508085115b15612f1c578094505b84861115612f56576040517f2cd4dad300000000000000000000000000000000000000000000000000000000815260040160405180910390fd5b6000612f62878761592f565b905060008167ffffffffffffffff811115612f7f57612f7f61577c565b604051908082528060200260200182016040528015612fb857816020015b612fa5614e92565b815260200190600190039081612f9d5790505b50905060005b82811015613018576000612fdc612fd5838c615736565b879061285a565b9050612fe981898d6129e3565b838381518110612ffb57612ffb6155f6565b6020026020010181905250506130118160010190565b9050612fbe565b5098975050505050505050565b6033546060906001600160801b031660008167ffffffffffffffff81111561304f5761304f61577c565b60405190808252806020026020018201604052801561308857816020015b613075614f58565b81526020019060019003908161306d5790505b50905060005b826001600160801b0316816001600160801b0316101561313d57603560006130b7836001615658565b6001600160801b03168152602081019190915260409081016000208151808301928390529160029082845b81546001600160a01b031681526001909101906020018083116130e257505050505082826001600160801b03168151811061311f5761311f6155f6565b6020026020010181905250808061313590615964565b91505061308e565b5092915050565b61314c614f58565b816001600160a01b0316836001600160a01b03161061318857604080518082019091526001600160a01b03808416825284166020820152610ce2565b50604080518082019091526001600160a01b0392831681529116602082015290565b6131b2614f76565b6040805160c0808201835284516001600160801b0390811683850190815260208088018051841660608701528051608090811c67ffffffffffffffff1681880152905190941c60a0860152908452845180840186528751841c8152878601519092168282015260009490840192908201908760026020020151901c67ffffffffffffffff16815260200160c1600188600260038110613253576132536155f6565b6020020151901b901c67ffffffffffffffff169052905291507f8000000000000000000000000000000000000000000000000000000000000000836002602002015110159050915091565b826001600160801b03166132b28360801c90565b6001600160801b0316146132f2576040517fb7b067f900000000000000000000000000000000000000000000000000000000815260040160405180910390fd5b806001600160801b03166000036109de576040517feb1a139600000000000000000000000000000000000000000000000000000000815260040160405180910390fd5b600080600085600001516001600160801b03169050600086602001516001600160801b031690506000613388886040015167ffffffffffffffff1665ffffffffffff811666010000000000009091041b90565b905060006133b6896060015167ffffffffffffffff1665ffffffffffff811666010000000000009091041b90565b905086156133e6576133dc6133d7896001600160801b031686868686613eb3565b613fb2565b9550879450613405565b8795506134026133d7896001600160801b031686868686614035565b94505b50505050935093915050565b613419614fbc565b604080516060808201835260208681015151875151608091821b6fffffffffffffffffffffffffffffffff19166001600160801b03918216178552885193840151848701519484015160c09190911b7fffffffffffffffff000000000000000000000000000000000000000000000000169490921b77ffffffffffffffff00000000000000000000000000000000169116179190911790820152908101836134c25760006134e4565b7f80000000000000000000000000000000000000000000000000000000000000005b60c086600160200201516060015167ffffffffffffffff16901b608087600160200201516040015167ffffffffffffffff16901b60008860016020020151602001516001600160801b0316901b171717815250905092915050565b60010190565b60008061355183612994565b9050610a356133d76001600160801b038616620f4240613571858261598a565b63ffffffff16614174565b60008061358883612994565b9050610a356133d76001600160801b0386166135a784620f424061598a565b63ffffffff16620f42406141dc565b6135c8856001600160a01b0316611444565b156136315782821015613607576040517f677606af00000000000000000000000000000000000000000000000000000000815260040160405180910390fd5b8282111561362c5761362c61361c848461592f565b6001600160a01b0386169061390b565b610b62565b8215610b625780156136c95760006136526001600160a01b038716306142d0565b90506136696001600160a01b038716863087614377565b600061367e6001600160a01b038816306142d0565b90508461368b838361592f565b146136c2576040517fca3e0a6800000000000000000000000000000000000000000000000000000000815260040160405180910390fd5b5050610b62565b610b626001600160a01b038616853086614377565b806000036136eb57505050565b6136fd836001600160a01b0316611444565b15613715576109de6001600160a01b0383168261390b565b6109de6001600160a01b03841683836143a1565b6000805b6002811015612ca957828160028110613748576137486155f6565b6020020151516001600160801b0316848260028110613769576137696155f6565b6020020151516001600160801b03161415806137cb5750828160028110613792576137926155f6565b6020020151602001516001600160801b03168482600281106137b6576137b66155f6565b6020020151602001516001600160801b031614155b8061381e57508281600281106137e3576137e36155f6565b60200201516040015167ffffffffffffffff16848260028110613808576138086155f6565b60200201516040015167ffffffffffffffff1614155b806138715750828160028110613836576138366155f6565b60200201516060015167ffffffffffffffff1684826002811061385b5761385b6155f6565b60200201516060015167ffffffffffffffff1614155b1561388057600091505061075f565b60010161372d565b613890614f58565b8161389f578260200151610ce2565b604051806040016040528084602001516001600281106138c1576138c16155f6565b60200201516001600160a01b03166001600160a01b0316815260200184602001516000600281106138f4576138f46155f6565b60200201516001600160a01b031690529392505050565b8047101561395b5760405162461bcd60e51b815260206004820152601d60248201527f416464726573733a20696e73756666696369656e742062616c616e63650000006044820152606401610aff565b6000826001600160a01b03168260405160006040518083038185875af1925050503d80600081146139a8576040519150601f19603f3d011682016040523d82523d6000602084013e6139ad565b606091505b50509050806109de5760405162461bcd60e51b815260206004820152603a60248201527f416464726573733a20756e61626c6520746f2073656e642076616c75652c207260448201527f6563697069656e74206d617920686176652072657665727465640000000000006064820152608401610aff565b600082815260c9602090815260408083206001600160a01b038516845290915290205460ff16610b1257613a5781614406565b613a62836020614418565b604051602001613a739291906159e1565b60408051601f198184030181529082905262461bcd60e51b8252610aff91600401615a62565b600082815260c9602090815260408083206001600160a01b038516845290915290205460ff16610b1257600082815260c9602090815260408083206001600160a01b03851684529091529020805460ff19166001179055613af73390565b6001600160a01b0316816001600160a01b0316837f2f8788117e7eff1d82e926ec794901d17c78024a50270940304540a733656f0d60405160405180910390a45050565b6000610ce2836001600160a01b038416614641565b600082815260c9602090815260408083206001600160a01b038516845290915290205460ff1615610b1257600082815260c9602090815260408083206001600160a01b0385168085529252808320805460ff1916905551339285917ff6391f5c32d9c69d2a47ea670b442974b53935d1edc7fd64eb21e047a839171b9190a45050565b6000610ce2836001600160a01b038416614690565b600054610100900460ff16613c535760405162461bcd60e51b815260206004820152602b60248201527f496e697469616c697a61626c653a20636f6e7472616374206973206e6f74206960448201526a6e697469616c697a696e6760a81b6064820152608401610aff565b6113af614783565b600054610100900460ff16613cc65760405162461bcd60e51b815260206004820152602b60248201527f496e697469616c697a61626c653a20636f6e7472616374206973206e6f74206960448201526a6e697469616c697a696e6760a81b6064820152608401610aff565b6113af6147ee565b600054610100900460ff16613d395760405162461bcd60e51b815260206004820152602b60248201527f496e697469616c697a61626c653a20636f6e7472616374206973206e6f74206960448201526a6e697469616c697a696e6760a81b6064820152608401610aff565b613d41614783565b6113af614864565b600054610100900460ff16613db45760405162461bcd60e51b815260206004820152602b60248201527f496e697469616c697a61626c653a20636f6e7472616374206973206e6f74206960448201526a6e697469616c697a696e6760a81b6064820152608401610aff565b6113af614946565b600054610100900460ff16613e275760405162461bcd60e51b815260206004820152602b60248201527f496e697469616c697a61626c653a20636f6e7472616374206973206e6f74206960448201526a6e697469616c697a696e6760a81b6064820152608401610aff565b6113af7f24a843cae781765d8cdc3bca1cc42497522c0508f4e621c2ca36ceea2fda7b167f2172861495e7b85edac73e3cd5fbb42dd675baadf627720e687bcfdaca0250966149b1565b6000610ce28383614690565b6000826000018281548110613e9457613e946155f6565b9060005260206000200154905092915050565b6000610ce28383614641565b600082600003613f225781600003613ef7576040517f4e305c4b00000000000000000000000000000000000000000000000000000000815260040160405180910390fd5b613f1b86613f0c660100000000000080615a95565b613f168580615a95565b614174565b9050613fa9565b66010000000000008402858402838602016000613f3f868a615a95565b613f49908361592f565b90506000613f5784856149fc565b90506000613f6584846149fc565b90506000613f738383614a2b565b90506000613f82878884614174565b90506000613f918787856141dc565b9050613f9e8e8383614174565b985050505050505050505b95945050505050565b60006001600160801b038211156140315760405162461bcd60e51b815260206004820152602760248201527f53616665436173743a2076616c756520646f65736e27742066697420696e203160448201527f32382062697473000000000000000000000000000000000000000000000000006064820152608401610aff565b5090565b60008260000361409d5781600003614079576040517f4e305c4b00000000000000000000000000000000000000000000000000000000815260040160405180910390fd5b613f1b866140878480615a95565b614098660100000000000080615a95565b6141dc565b660100000000000084028584028386020160006140ba8983615a95565b905060006140c884856149fc565b905060006140d683896149fc565b905060006140e48383614a2b565b905060006140f3878884614174565b90506000614102868c85614174565b90506000806141118484614a41565b9150915081156141405761412f89614129878b615aac565b836141dc565b9a5050505050505050505050613fa9565b61414b8a8b8a614174565b614155908e615736565b61415f908a615aac565b9a505050505050505050505095945050505050565b6000806141828585856141dc565b90506000614191868686614a6a565b1115610a355760001981106141d2576040517f35278d1200000000000000000000000000000000000000000000000000000000815260040160405180910390fd5b6001019050610ce2565b60008060006141eb8686614a85565b915091508160000361421057838181614206576142066159a7565b0492505050610ce2565b838210614249576040517f35278d1200000000000000000000000000000000000000000000000000000000815260040160405180910390fd5b6000614256878787614a6a565b9050600080614266858585614abe565b915091508160000361428e57868181614281576142816159a7565b0495505050505050610ce2565b60008781038816906142a1848484614aee565b905060006142bd838b816142b7576142b76159a7565b04614b2b565b919091029b9a5050505050505050505050565b60006142db83611444565b156142f157506001600160a01b0381163161075f565b826040517f70a082310000000000000000000000000000000000000000000000000000000081526001600160a01b03848116600483015291909116906370a0823190602401602060405180830381865afa158015614353573d6000803e3d6000fd5b505050506040513d601f19601f82011682018060405250810190610ce29190615ace565b801580614388575061438884611444565b6121a9576121a96001600160a01b038516848484614b4c565b806000036143ae57505050565b6143b783611444565b156143f2576040516001600160a01b0383169082156108fc029083906000818181858888f193505050501580156121a9573d6000803e3d6000fd5b6109de6001600160a01b0384168383614bfd565b606061075f6001600160a01b03831660145b60606000614427836002615a95565b614432906002615736565b67ffffffffffffffff81111561444a5761444a61577c565b6040519080825280601f01601f191660200182016040528015614474576020820181803683370190505b5090507f3000000000000000000000000000000000000000000000000000000000000000816000815181106144ab576144ab6155f6565b60200101907effffffffffffffffffffffffffffffffffffffffffffffffffffffffffffff1916908160001a9053507f78000000000000000000000000000000000000000000000000000000000000008160018151811061450e5761450e6155f6565b60200101907effffffffffffffffffffffffffffffffffffffffffffffffffffffffffffff1916908160001a905350600061454a846002615a95565b614555906001615736565b90505b60018111156145f2577f303132333435363738396162636465660000000000000000000000000000000085600f1660108110614596576145966155f6565b1a60f81b8282815181106145ac576145ac6155f6565b60200101907effffffffffffffffffffffffffffffffffffffffffffffffffffffffffffff1916908160001a90535060049490941c936145eb81615ae7565b9050614558565b508315610ce25760405162461bcd60e51b815260206004820181905260248201527f537472696e67733a20686578206c656e67746820696e73756666696369656e746044820152606401610aff565b60008181526001830160205260408120546146885750815460018181018455600084815260208082209093018490558454848252828601909352604090209190915561075f565b50600061075f565b600081815260018301602052604081205480156147795760006146b460018361592f565b85549091506000906146c89060019061592f565b905081811461472d5760008660000182815481106146e8576146e86155f6565b906000526020600020015490508087600001848154811061470b5761470b6155f6565b6000918252602080832090910192909255918252600188019052604090208390555b855486908061473e5761473e615afe565b60019003818190600052602060002001600090559055856001016000868152602001908152602001600020600090556001935050505061075f565b600091505061075f565b600054610100900460ff166113af5760405162461bcd60e51b815260206004820152602b60248201527f496e697469616c697a61626c653a20636f6e7472616374206973206e6f74206960448201526a6e697469616c697a696e6760a81b6064820152608401610aff565b600054610100900460ff166148595760405162461bcd60e51b815260206004820152602b60248201527f496e697469616c697a61626c653a20636f6e7472616374206973206e6f74206960448201526a6e697469616c697a696e6760a81b6064820152608401610aff565b6113af610fa0612552565b600054610100900460ff166148cf5760405162461bcd60e51b815260206004820152602b60248201527f496e697469616c697a61626c653a20636f6e7472616374206973206e6f74206960448201526a6e697469616c697a696e6760a81b6064820152608401610aff565b6148db60016006615b14565b61012d805461ffff191661ffff9290921691909117905561491c7f2172861495e7b85edac73e3cd5fbb42dd675baadf627720e687bcfdaca025096806149b1565b6113af7f2172861495e7b85edac73e3cd5fbb42dd675baadf627720e687bcfdaca02509633614c46565b600054610100900460ff16611acc5760405162461bcd60e51b815260206004820152602b60248201527f496e697469616c697a61626c653a20636f6e7472616374206973206e6f74206960448201526a6e697469616c697a696e6760a81b6064820152608401610aff565b600082815260c96020526040808220600101805490849055905190918391839186917fbd79b86ffe0ab8e8776151514217cd7cacd52c909f66475c3af44e129f0b00ff9190a4505050565b6000806000614a0b8585614a85565b9150915080198211614a205781600101613fa9565b506002019392505050565b6000818311614a3a5781610ce2565b5090919050565b60008083830184811015614a5c576000809250925050614a63565b6001925090505b9250929050565b60008180614a7a57614a7a6159a7565b838509949350505050565b6000806000614a948585614c50565b9050848402808210614aad579081900392509050614a63565b600181830303969095509350505050565b600080828410614ad45750839050818303614ae6565b614adf60018661592f565b9150508183035b935093915050565b600080614b0c8380830381614b0557614b056159a7565b0460010190565b9050828481614b1d57614b1d6159a7565b048186021795945050505050565b60006001815b600881101561313d5783820260020382029150600101614b31565b6040516001600160a01b03808516602483015283166044820152606481018290526121a99085907f23b872dd00000000000000000000000000000000000000000000000000000000906084015b60408051601f198184030181529190526020810180517bffffffffffffffffffffffffffffffffffffffffffffffffffffffff167fffffffff0000000000000000000000000000000000000000000000000000000090931692909217909152614c5f565b6040516001600160a01b0383166024820152604481018290526109de9084907fa9059cbb0000000000000000000000000000000000000000000000000000000090606401614b99565b610b12828261237d565b60006000198284099392505050565b6000614cb4826040518060400160405280602081526020017f5361666545524332303a206c6f772d6c6576656c2063616c6c206661696c6564815250856001600160a01b0316614d479092919063ffffffff16565b9050805160001480614cd5575080806020019051810190614cd59190615b2f565b6109de5760405162461bcd60e51b815260206004820152602a60248201527f5361666545524332303a204552433230206f7065726174696f6e20646964206e60448201527f6f742073756363656564000000000000000000000000000000000000000000006064820152608401610aff565b6060610a35848460008585600080866001600160a01b03168587604051614d6e9190615b51565b60006040518083038185875af1925050503d8060008114614dab576040519150601f19603f3d011682016040523d82523d6000602084013e614db0565b606091505b5091509150614dc187838387614dcc565b979650505050505050565b60608315614e3b578251600003614e34576001600160a01b0385163b614e345760405162461bcd60e51b815260206004820152601d60248201527f416464726573733a2063616c6c20746f206e6f6e2d636f6e74726163740000006044820152606401610aff565b5081610a35565b610a358383815115614e505781518083602001fd5b8060405162461bcd60e51b8152600401610aff9190615a62565b604051806040016040528060006001600160801b03168152602001614e8d614f58565b905290565b6040805160808101825260008082526020820152908101614eb1614f58565b8152602001614e8d614f76565b8260028101928215614f1e579160200282015b82811115614f1e57825182547fffffffffffffffffffffffff0000000000000000000000000000000000000000166001600160a01b03909116178255602090920191600190910190614ed1565b50614031929150614fda565b8260038101928215614f1e579160200282015b82811115614f1e578251825591602001919060010190614f3d565b60405180604001604052806002906020820280368337509192915050565b60405180604001604052806002905b604080516080810182526000808252602080830182905292820181905260608201528252600019909201910181614f855790505090565b60405180606001604052806003906020820280368337509192915050565b5b808211156140315760008155600101614fdb565b60006020828403121561500157600080fd5b81357fffffffff0000000000000000000000000000000000000000000000000000000081168114610ce257600080fd5b6001600160a01b0381168114610cc357600080fd5b60008083601f84011261505857600080fd5b50813567ffffffffffffffff81111561507057600080fd5b6020830191508360208260061b8501011115614a6357600080fd5b80356001600160801b03811681146150a257600080fd5b919050565b60008060008060008060a087890312156150c057600080fd5b86356150cb81615031565b955060208701356150db81615031565b9450604087013567ffffffffffffffff8111156150f757600080fd5b61510389828a01615046565b9095509350506060870135915061511c6080880161508b565b90509295509295509295565b80610100810183101561075f57600080fd5b6000806000610220848603121561515057600080fd5b833592506151618560208601615128565b9150615171856101208601615128565b90509250925092565b60006020828403121561518c57600080fd5b5035919050565b600080600080606085870312156151a957600080fd5b84356151b481615031565b935060208501356151c481615031565b9250604085013567ffffffffffffffff8111156151e057600080fd5b6151ec87828801615046565b95989497509550505050565b6000806040838503121561520b57600080fd5b82359150602083013561521d81615031565b809150509250929050565b6000806040838503121561523b57600080fd5b823561524681615031565b9150602083013561521d81615031565b803563ffffffff811681146150a257600080fd5b60008060006060848603121561527f57600080fd5b833561528a81615031565b9250602084013561529a81615031565b915061517160408501615256565b6000602082840312156152ba57600080fd5b610ce282615256565b8060005b60028110156121a95781516001600160a01b03168452602093840193909101906001016152c7565b81516001600160801b03168152602080830151606083019161313d908401826152c3565b6000806020838503121561532657600080fd5b823567ffffffffffffffff8082111561533e57600080fd5b818501915085601f83011261535257600080fd5b81358181111561536157600080fd5b86602082850101111561537357600080fd5b60209290920196919550909350505050565b6000806040838503121561539857600080fd5b50508035926020909101359150565b6000806000606084860312156153bc57600080fd5b83356153c781615031565b92506020840135915060408401356153de81615031565b809150509250925092565b8051825260206001600160a01b03818301511681840152604082015161541260408501826152c3565b506060820151608080850160005b6002811015615482576154728285516001600160801b0380825116835280602083015116602084015250604081015167ffffffffffffffff808216604085015280606084015116606085015250505050565b9284019290820190600101615420565b50505050505050565b610180810161075f82846153e9565b600080600061014084860312156154b057600080fd5b83356154bb81615031565b925060208401356154cb81615031565b91506151718560408601615128565b600080600080608085870312156154f057600080fd5b84356154fb81615031565b9350602085013561550b81615031565b93969395505050506040820135916060013590565b6020808252825182820181905260009190848201906040850190845b818110156155635761554f8385516153e9565b92840192610180929092019160010161553c565b50909695505050505050565b60006020828403121561558157600080fd5b8135610ce281615031565b602080825282518282018190526000919060409081850190868401855b828110156155cc576155bc8483516152c3565b92840192908501906001016155a9565b5091979650505050505050565b6000602082840312156155eb57600080fd5b8151610ce281615031565b634e487b7160e01b600052603260045260246000fd5b634e487b7160e01b600052601160045260246000fd5b61ffff81811683821601908082111561313d5761313d61560c565b60006020828403121561564f57600080fd5b610ce28261508b565b6001600160801b0381811683821601908082111561313d5761313d61560c565b61012081016156c582866001600160801b0380825116835280602083015116602084015250604081015167ffffffffffffffff808216604085015280606084015116606085015250505050565b83516001600160801b03908116608084015260208501511660a0830152604084015167ffffffffffffffff90811660c084015260608501511660e08301525b60ff8316610100830152949350505050565b6001600160801b0382811682821603908082111561313d5761313d61560c565b8082018082111561075f5761075f61560c565b803567ffffffffffffffff811681146150a257600080fd5b60006020828403121561577357600080fd5b610ce282615749565b634e487b7160e01b600052604160045260246000fd5b6000608082840312156157a457600080fd5b6040516080810181811067ffffffffffffffff821117156157d557634e487b7160e01b600052604160045260246000fd5b6040526157e18361508b565b81526157ef6020840161508b565b602082015261580060408401615749565b604082015261581160608401615749565b60608201529392505050565b6001600160801b038061582f8361508b565b1683528061583f6020840161508b565b1660208401525061585260408201615749565b67ffffffffffffffff80821660408501528061587060608501615749565b16606085015250505050565b610120810161588b828661581d565b615704608083018561581d565b83815261012081016158eb60208301856001600160801b0380825116835280602083015116602084015250604081015167ffffffffffffffff808216604085015280606084015116606085015250505050565b82516001600160801b0390811660a084015260208401511660c0830152604083015167ffffffffffffffff90811660e0840152606084015116610100830152610a35565b8181038181111561075f5761075f61560c565b8381526101208101615957602083018561581d565b610a3560a083018461581d565b60006001600160801b038083168181036159805761598061560c565b6001019392505050565b63ffffffff82811682821603908082111561313d5761313d61560c565b634e487b7160e01b600052601260045260246000fd5b60005b838110156159d85781810151838201526020016159c0565b50506000910152565b7f416363657373436f6e74726f6c3a206163636f756e7420000000000000000000815260008351615a198160178501602088016159bd565b7f206973206d697373696e6720726f6c65200000000000000000000000000000006017918401918201528351615a568160288401602088016159bd565b01602801949350505050565b6020815260008251806020840152615a818160408501602087016159bd565b601f01601f19169190910160400192915050565b808202811582820484141761075f5761075f61560c565b600082615ac957634e487b7160e01b600052601260045260246000fd5b500490565b600060208284031215615ae057600080fd5b5051919050565b600081615af657615af661560c565b506000190190565b634e487b7160e01b600052603160045260246000fd5b61ffff82811682821603908082111561313d5761313d61560c565b600060208284031215615b4157600080fd5b81518015158114610ce257600080fd5b60008251615b638184602087016159bd565b919091019291505056fea164736f6c6343000813000a2172861495e7b85edac73e3cd5fbb42dd675baadf627720e687bcfdaca025096496e697469616c697a61626c653a20636f6e7472616374206973206e6f742069",
  "devdoc": {
    "details": "Carbon Controller contract",
    "events": {
      "FeesWithdrawn(address,address,uint256,address)": {
        "details": "triggered when fees are withdrawn"
      },
      "Initialized(uint8)": {
        "details": "Triggered when the contract has been initialized or reinitialized."
      },
      "PairCreated(uint128,address,address)": {
        "details": "triggered when a new pair is created"
      },
      "PairTradingFeePPMUpdated(address,address,uint32,uint32)": {
        "details": "triggered when the custom trading fee for a given pair is updated"
      },
      "RoleAdminChanged(bytes32,bytes32,bytes32)": {
        "details": "Emitted when `newAdminRole` is set as ``role``'s admin role, replacing `previousAdminRole` `DEFAULT_ADMIN_ROLE` is the starting admin for all roles, despite {RoleAdminChanged} not being emitted signaling this. _Available since v3.1._"
      },
      "RoleGranted(bytes32,address,address)": {
        "details": "Emitted when `account` is granted `role`. `sender` is the account that originated the contract call, an admin role bearer except when using {AccessControl-_setupRole}."
      },
      "RoleRevoked(bytes32,address,address)": {
        "details": "Emitted when `account` is revoked `role`. `sender` is the account that originated the contract call:   - if using `revokeRole`, it is the admin role bearer   - if using `renounceRole`, it is the role bearer (i.e. `account`)"
      },
      "StrategyCreated(uint256,address,address,address,(uint128,uint128,uint64,uint64),(uint128,uint128,uint64,uint64))": {
        "details": "triggered when a strategy is created"
      },
      "StrategyDeleted(uint256,address,address,address,(uint128,uint128,uint64,uint64),(uint128,uint128,uint64,uint64))": {
        "details": "triggered when a strategy is deleted"
      },
      "StrategyUpdated(uint256,address,address,(uint128,uint128,uint64,uint64),(uint128,uint128,uint64,uint64),uint8)": {
        "details": "triggered when a strategy is updated"
      },
      "TokensTraded(address,address,address,uint256,uint256,uint128,bool)": {
        "details": "triggered when tokens are traded"
      },
      "TradingFeePPMUpdated(uint32,uint32)": {
        "details": "triggered when the network fee is updated"
      }
    },
    "kind": "dev",
    "methods": {
      "accumulatedFees(address)": {
        "details": "returns the amount of fees accumulated for the specified token"
      },
      "calculateTradeSourceAmount(address,address,(uint256,uint128)[])": {
        "details": "returns the source amount required when trading by target amount"
      },
      "calculateTradeTargetAmount(address,address,(uint256,uint128)[])": {
        "details": "returns the target amount expected when trading by source amount"
      },
      "constructor": {
        "details": "used to set immutable state variables and initialize the implementation"
      },
      "controllerType()": {
        "details": "returns the type of the controller"
      },
      "createPair(address,address)": {
        "details": "creates a new pair of provided token0 and token1"
      },
      "createStrategy(address,address,(uint128,uint128,uint64,uint64)[2])": {
        "details": "creates a new strategy, returns the strategy's id requirements: - the caller must have approved the tokens with assigned liquidity in the order, if any"
      },
      "deleteStrategy(uint256)": {
        "details": "deletes a strategy matching the provided id notes: - 100% of liquidity is withdrawn and sent to the owner requirements: - the caller must be the owner of the NFT voucher"
      },
      "getRoleAdmin(bytes32)": {
        "details": "Returns the admin role that controls `role`. See {grantRole} and {revokeRole}. To change a role's admin, use {_setRoleAdmin}."
      },
      "getRoleMember(bytes32,uint256)": {
        "details": "Returns one of the accounts that have `role`. `index` must be a value between 0 and {getRoleMemberCount}, non-inclusive. Role bearers are not sorted in any particular way, and their ordering may change at any point. WARNING: When using {getRoleMember} and {getRoleMemberCount}, make sure you perform all queries on the same block. See the following https://forum.openzeppelin.com/t/iterating-over-elements-on-enumerableset-in-openzeppelin-contracts/2296[forum post] for more information."
      },
      "getRoleMemberCount(bytes32)": {
        "details": "Returns the number of accounts that have `role`. Can be used together with {getRoleMember} to enumerate all bearers of a role."
      },
      "grantRole(bytes32,address)": {
        "details": "Grants `role` to `account`. If `account` had not been already granted `role`, emits a {RoleGranted} event. Requirements: - the caller must have ``role``'s admin role. May emit a {RoleGranted} event."
      },
      "hasRole(bytes32,address)": {
        "details": "Returns `true` if `account` has been granted `role`."
      },
      "initialize()": {
        "details": "fully initializes the contract and its parents"
      },
      "pair(address,address)": {
        "details": "returns a pair's metadata matching the provided token0 and token1"
      },
      "pairTradingFeePPM(address,address)": {
        "details": "returns the trading fee for a given pair (in units of PPM)"
      },
      "pairs()": {
        "details": "returns a list of all supported pairs"
      },
      "postUpgrade(bytes)": {
        "details": "performs post-upgrade initialization requirements: - this must and can be called only once per-upgrade"
      },
      "renounceRole(bytes32,address)": {
        "details": "Revokes `role` from the calling account. Roles are often managed via {grantRole} and {revokeRole}: this function's purpose is to provide a mechanism for accounts to lose their privileges if they are compromised (such as when a trusted device is misplaced). If the calling account had been revoked `role`, emits a {RoleRevoked} event. Requirements: - the caller must be `account`. May emit a {RoleRevoked} event."
      },
      "revokeRole(bytes32,address)": {
        "details": "Revokes `role` from `account`. If `account` had been granted `role`, emits a {RoleRevoked} event. Requirements: - the caller must have ``role``'s admin role. May emit a {RoleRevoked} event."
      },
      "roleAdmin()": {
        "details": "returns the admin role"
      },
      "roleFeesManager()": {
        "details": "returns the fees manager role"
      },
      "setPairTradingFeePPM(address,address,uint32)": {
        "details": "sets the custom trading fee for a given pair (in units of PPM) requirements: - the caller must be the admin of the contract"
      },
      "setTradingFeePPM(uint32)": {
        "details": "sets the trading fee (in units of PPM) requirements: - the caller must be the admin of the contract"
      },
      "strategiesByPair(address,address,uint256,uint256)": {
        "details": "returns strategies belonging to a specific pair note that for the full list of strategies pass 0 to both startIndex and endIndex"
      },
      "strategiesByPairCount(address,address)": {
        "details": "returns the count of strategies belonging to a specific pair"
      },
      "strategy(uint256)": {
        "details": "returns a strategy matching the provided id, note tokens and orders are returned sorted as provided upon creation"
      },
      "supportsInterface(bytes4)": {
        "details": "See {IERC165-supportsInterface}."
      },
      "tradeBySourceAmount(address,address,(uint256,uint128)[],uint256,uint128)": {
        "details": "performs a trade by specifying a fixed source amount notes: - excess native token is returned to the sender if any requirements: - the caller must have approved the source token"
      },
      "tradeByTargetAmount(address,address,(uint256,uint128)[],uint256,uint128)": {
        "details": "performs a trade by specifying a fixed target amount notes: - excess native token is returned to the sender if any requirements: - the caller must have approved the source token"
      },
      "tradingFeePPM()": {
        "details": "returns the trading fee (in units of PPM)"
      },
      "updateStrategy(uint256,(uint128,uint128,uint64,uint64)[2],(uint128,uint128,uint64,uint64)[2])": {
        "details": "updates an existing strategy notes: - currentOrders should reflect the orders values at the time of sending the tx this prevents cases in which the strategy was updated due to a trade between the time the transaction was sent and the time it was mined, thus, giving more control to the strategy owner. - reduced liquidity is refunded to the owner - increased liquidity is deposited - excess native token is returned to the sender if any - the sorting of orders is expected to equal the sorting upon creation requirements: - the caller must have approved the tokens with increased liquidity, if any"
      },
      "withdrawFees(address,uint256,address)": {
        "details": "transfers the accumulated fees to the specified recipient notes: `amount` is capped to the available amount returns the amount withdrawn"
      }
    },
    "version": 1
  },
  "userdoc": {
    "kind": "user",
    "methods": {},
    "version": 1
  },
  "storageLayout": {
    "storage": [
      {
        "astId": 588,
        "contract": "contracts/carbon/CarbonController.sol:CarbonController",
        "label": "_initialized",
        "offset": 0,
        "slot": "0",
        "type": "t_uint8"
      },
      {
        "astId": 591,
        "contract": "contracts/carbon/CarbonController.sol:CarbonController",
        "label": "_initializing",
        "offset": 1,
        "slot": "0",
        "type": "t_bool"
      },
      {
        "astId": 2318,
        "contract": "contracts/carbon/CarbonController.sol:CarbonController",
        "label": "__gap",
        "offset": 0,
        "slot": "1",
        "type": "t_array(t_uint256)50_storage"
      },
      {
        "astId": 13175,
        "contract": "contracts/carbon/CarbonController.sol:CarbonController",
        "label": "_lastPairId",
        "offset": 0,
        "slot": "51",
        "type": "t_uint128"
      },
      {
        "astId": 13183,
        "contract": "contracts/carbon/CarbonController.sol:CarbonController",
        "label": "_pairIds",
        "offset": 0,
        "slot": "52",
        "type": "t_mapping(t_userDefinedValueType(Token)19710,t_mapping(t_userDefinedValueType(Token)19710,t_uint128))"
      },
      {
        "astId": 13190,
        "contract": "contracts/carbon/CarbonController.sol:CarbonController",
        "label": "_pairsStorage",
        "offset": 0,
        "slot": "53",
        "type": "t_mapping(t_uint128,t_array(t_userDefinedValueType(Token)19710)2_storage)"
      },
      {
        "astId": 13196,
        "contract": "contracts/carbon/CarbonController.sol:CarbonController",
        "label": "__gap",
        "offset": 0,
        "slot": "54",
        "type": "t_array(t_uint256)47_storage"
      },
      {
        "astId": 13666,
        "contract": "contracts/carbon/CarbonController.sol:CarbonController",
        "label": "_strategyCounter",
        "offset": 0,
        "slot": "101",
        "type": "t_uint128"
      },
      {
        "astId": 13668,
        "contract": "contracts/carbon/CarbonController.sol:CarbonController",
        "label": "_tradingFeePPM",
        "offset": 16,
        "slot": "101",
        "type": "t_uint32"
      },
      {
        "astId": 13674,
        "contract": "contracts/carbon/CarbonController.sol:CarbonController",
        "label": "_packedOrdersByStrategyId",
        "offset": 0,
        "slot": "102",
        "type": "t_mapping(t_uint256,t_array(t_uint256)3_storage)"
      },
      {
        "astId": 13679,
        "contract": "contracts/carbon/CarbonController.sol:CarbonController",
        "label": "_strategyIdsByPairIdStorage",
        "offset": 0,
        "slot": "103",
        "type": "t_mapping(t_uint128,t_struct(UintSet)4058_storage)"
      },
      {
        "astId": 13684,
        "contract": "contracts/carbon/CarbonController.sol:CarbonController",
        "label": "_accumulatedFees",
        "offset": 0,
        "slot": "104",
        "type": "t_mapping(t_userDefinedValueType(Token)19710,t_uint256)"
      },
      {
        "astId": 13688,
        "contract": "contracts/carbon/CarbonController.sol:CarbonController",
        "label": "_customTradingFeePPM",
        "offset": 0,
        "slot": "105",
        "type": "t_mapping(t_uint128,t_uint32)"
      },
      {
        "astId": 13694,
        "contract": "contracts/carbon/CarbonController.sol:CarbonController",
        "label": "__gap",
        "offset": 0,
        "slot": "106",
        "type": "t_array(t_uint256)45_storage"
      },
      {
        "astId": 2591,
        "contract": "contracts/carbon/CarbonController.sol:CarbonController",
        "label": "__gap",
        "offset": 0,
        "slot": "151",
        "type": "t_array(t_uint256)50_storage"
      },
      {
        "astId": 184,
        "contract": "contracts/carbon/CarbonController.sol:CarbonController",
        "label": "_roles",
        "offset": 0,
        "slot": "201",
        "type": "t_mapping(t_bytes32,t_struct(RoleData)179_storage)"
      },
      {
        "astId": 479,
        "contract": "contracts/carbon/CarbonController.sol:CarbonController",
        "label": "__gap",
        "offset": 0,
        "slot": "202",
        "type": "t_array(t_uint256)49_storage"
      },
      {
        "astId": 33,
        "contract": "contracts/carbon/CarbonController.sol:CarbonController",
        "label": "_roleMembers",
        "offset": 0,
        "slot": "251",
        "type": "t_mapping(t_bytes32,t_struct(AddressSet)3901_storage)"
      },
      {
        "astId": 143,
        "contract": "contracts/carbon/CarbonController.sol:CarbonController",
        "label": "__gap",
        "offset": 0,
        "slot": "252",
        "type": "t_array(t_uint256)49_storage"
      },
      {
        "astId": 21198,
        "contract": "contracts/carbon/CarbonController.sol:CarbonController",
        "label": "_initializations",
        "offset": 0,
        "slot": "301",
        "type": "t_uint16"
      },
      {
        "astId": 21204,
        "contract": "contracts/carbon/CarbonController.sol:CarbonController",
        "label": "__gap",
        "offset": 0,
        "slot": "302",
        "type": "t_array(t_uint256)49_storage"
      },
      {
        "astId": 764,
        "contract": "contracts/carbon/CarbonController.sol:CarbonController",
        "label": "_status",
        "offset": 0,
        "slot": "351",
        "type": "t_uint256"
      },
      {
        "astId": 833,
        "contract": "contracts/carbon/CarbonController.sol:CarbonController",
        "label": "__gap",
        "offset": 0,
        "slot": "352",
        "type": "t_array(t_uint256)49_storage"
      },
      {
        "astId": 12179,
        "contract": "contracts/carbon/CarbonController.sol:CarbonController",
        "label": "_deprecated",
        "offset": 0,
        "slot": "401",
        "type": "t_bool"
      },
      {
        "astId": 12183,
        "contract": "contracts/carbon/CarbonController.sol:CarbonController",
        "label": "__deprecated",
        "offset": 0,
        "slot": "402",
        "type": "t_array(t_uint256)49_storage"
      },
      {
        "astId": 12190,
        "contract": "contracts/carbon/CarbonController.sol:CarbonController",
        "label": "__gap",
        "offset": 0,
        "slot": "451",
        "type": "t_array(t_uint256)50_storage"
      }
    ],
    "types": {
      "t_address": {
        "encoding": "inplace",
        "label": "address",
        "numberOfBytes": "20"
      },
      "t_array(t_bytes32)dyn_storage": {
        "base": "t_bytes32",
        "encoding": "dynamic_array",
        "label": "bytes32[]",
        "numberOfBytes": "32"
      },
      "t_array(t_uint256)3_storage": {
        "base": "t_uint256",
        "encoding": "inplace",
        "label": "uint256[3]",
        "numberOfBytes": "96"
      },
      "t_array(t_uint256)45_storage": {
        "base": "t_uint256",
        "encoding": "inplace",
        "label": "uint256[45]",
        "numberOfBytes": "1440"
      },
      "t_array(t_uint256)47_storage": {
        "base": "t_uint256",
        "encoding": "inplace",
        "label": "uint256[47]",
        "numberOfBytes": "1504"
      },
      "t_array(t_uint256)49_storage": {
        "base": "t_uint256",
        "encoding": "inplace",
        "label": "uint256[49]",
        "numberOfBytes": "1568"
      },
      "t_array(t_uint256)50_storage": {
        "base": "t_uint256",
        "encoding": "inplace",
        "label": "uint256[50]",
        "numberOfBytes": "1600"
      },
      "t_array(t_userDefinedValueType(Token)19710)2_storage": {
        "base": "t_userDefinedValueType(Token)19710",
        "encoding": "inplace",
        "label": "Token[2]",
        "numberOfBytes": "64"
      },
      "t_bool": {
        "encoding": "inplace",
        "label": "bool",
        "numberOfBytes": "1"
      },
      "t_bytes32": {
        "encoding": "inplace",
        "label": "bytes32",
        "numberOfBytes": "32"
      },
      "t_mapping(t_address,t_bool)": {
        "encoding": "mapping",
        "key": "t_address",
        "label": "mapping(address => bool)",
        "numberOfBytes": "32",
        "value": "t_bool"
      },
      "t_mapping(t_bytes32,t_struct(AddressSet)3901_storage)": {
        "encoding": "mapping",
        "key": "t_bytes32",
        "label": "mapping(bytes32 => struct EnumerableSetUpgradeable.AddressSet)",
        "numberOfBytes": "32",
        "value": "t_struct(AddressSet)3901_storage"
      },
      "t_mapping(t_bytes32,t_struct(RoleData)179_storage)": {
        "encoding": "mapping",
        "key": "t_bytes32",
        "label": "mapping(bytes32 => struct AccessControlUpgradeable.RoleData)",
        "numberOfBytes": "32",
        "value": "t_struct(RoleData)179_storage"
      },
      "t_mapping(t_bytes32,t_uint256)": {
        "encoding": "mapping",
        "key": "t_bytes32",
        "label": "mapping(bytes32 => uint256)",
        "numberOfBytes": "32",
        "value": "t_uint256"
      },
      "t_mapping(t_uint128,t_array(t_userDefinedValueType(Token)19710)2_storage)": {
        "encoding": "mapping",
        "key": "t_uint128",
        "label": "mapping(uint128 => Token[2])",
        "numberOfBytes": "32",
        "value": "t_array(t_userDefinedValueType(Token)19710)2_storage"
      },
      "t_mapping(t_uint128,t_struct(UintSet)4058_storage)": {
        "encoding": "mapping",
        "key": "t_uint128",
        "label": "mapping(uint128 => struct EnumerableSetUpgradeable.UintSet)",
        "numberOfBytes": "32",
        "value": "t_struct(UintSet)4058_storage"
      },
      "t_mapping(t_uint128,t_uint32)": {
        "encoding": "mapping",
        "key": "t_uint128",
        "label": "mapping(uint128 => uint32)",
        "numberOfBytes": "32",
        "value": "t_uint32"
      },
      "t_mapping(t_uint256,t_array(t_uint256)3_storage)": {
        "encoding": "mapping",
        "key": "t_uint256",
        "label": "mapping(uint256 => uint256[3])",
        "numberOfBytes": "32",
        "value": "t_array(t_uint256)3_storage"
      },
      "t_mapping(t_userDefinedValueType(Token)19710,t_mapping(t_userDefinedValueType(Token)19710,t_uint128))": {
        "encoding": "mapping",
        "key": "t_userDefinedValueType(Token)19710",
        "label": "mapping(Token => mapping(Token => uint128))",
        "numberOfBytes": "32",
        "value": "t_mapping(t_userDefinedValueType(Token)19710,t_uint128)"
      },
      "t_mapping(t_userDefinedValueType(Token)19710,t_uint128)": {
        "encoding": "mapping",
        "key": "t_userDefinedValueType(Token)19710",
        "label": "mapping(Token => uint128)",
        "numberOfBytes": "32",
        "value": "t_uint128"
      },
      "t_mapping(t_userDefinedValueType(Token)19710,t_uint256)": {
        "encoding": "mapping",
        "key": "t_userDefinedValueType(Token)19710",
        "label": "mapping(Token => uint256)",
        "numberOfBytes": "32",
        "value": "t_uint256"
      },
      "t_struct(AddressSet)3901_storage": {
        "encoding": "inplace",
        "label": "struct EnumerableSetUpgradeable.AddressSet",
        "members": [
          {
            "astId": 3900,
            "contract": "contracts/carbon/CarbonController.sol:CarbonController",
            "label": "_inner",
            "offset": 0,
            "slot": "0",
            "type": "t_struct(Set)3586_storage"
          }
        ],
        "numberOfBytes": "64"
      },
      "t_struct(RoleData)179_storage": {
        "encoding": "inplace",
        "label": "struct AccessControlUpgradeable.RoleData",
        "members": [
          {
            "astId": 176,
            "contract": "contracts/carbon/CarbonController.sol:CarbonController",
            "label": "members",
            "offset": 0,
            "slot": "0",
            "type": "t_mapping(t_address,t_bool)"
          },
          {
            "astId": 178,
            "contract": "contracts/carbon/CarbonController.sol:CarbonController",
            "label": "adminRole",
            "offset": 0,
            "slot": "1",
            "type": "t_bytes32"
          }
        ],
        "numberOfBytes": "64"
      },
      "t_struct(Set)3586_storage": {
        "encoding": "inplace",
        "label": "struct EnumerableSetUpgradeable.Set",
        "members": [
          {
            "astId": 3581,
            "contract": "contracts/carbon/CarbonController.sol:CarbonController",
            "label": "_values",
            "offset": 0,
            "slot": "0",
            "type": "t_array(t_bytes32)dyn_storage"
          },
          {
            "astId": 3585,
            "contract": "contracts/carbon/CarbonController.sol:CarbonController",
            "label": "_indexes",
            "offset": 0,
            "slot": "1",
            "type": "t_mapping(t_bytes32,t_uint256)"
          }
        ],
        "numberOfBytes": "64"
      },
      "t_struct(UintSet)4058_storage": {
        "encoding": "inplace",
        "label": "struct EnumerableSetUpgradeable.UintSet",
        "members": [
          {
            "astId": 4057,
            "contract": "contracts/carbon/CarbonController.sol:CarbonController",
            "label": "_inner",
            "offset": 0,
            "slot": "0",
            "type": "t_struct(Set)3586_storage"
          }
        ],
        "numberOfBytes": "64"
      },
      "t_uint128": {
        "encoding": "inplace",
        "label": "uint128",
        "numberOfBytes": "16"
      },
      "t_uint16": {
        "encoding": "inplace",
        "label": "uint16",
        "numberOfBytes": "2"
      },
      "t_uint256": {
        "encoding": "inplace",
        "label": "uint256",
        "numberOfBytes": "32"
      },
      "t_uint32": {
        "encoding": "inplace",
        "label": "uint32",
        "numberOfBytes": "4"
      },
      "t_uint8": {
        "encoding": "inplace",
        "label": "uint8",
        "numberOfBytes": "1"
      },
      "t_userDefinedValueType(Token)19710": {
        "encoding": "inplace",
        "label": "Token",
        "numberOfBytes": "20"
      }
    }
  }
}