{
  "address": "0x37A65Dda75A4C32959834C9b391a24dCa17eeC10",
  "abi": [
    {
      "inputs": [
        {
          "internalType": "contract ICarbonController",
          "name": "carbonController",
          "type": "address"
        },
        {
          "internalType": "contract IVault",
          "name": "vault",
          "type": "address"
        },
        {
          "internalType": "Token",
          "name": "targetTokenInit",
          "type": "address"
        },
        {
          "internalType": "Token",
          "name": "finalTargetTokenInit",
          "type": "address"
        }
      ],
      "stateMutability": "nonpayable",
      "type": "constructor"
    },
    {
      "inputs": [],
      "name": "AccessDenied",
      "type": "error"
    },
    {
      "inputs": [],
      "name": "AlreadyInitialized",
      "type": "error"
    },
    {
      "inputs": [],
      "name": "DuplicateToken",
      "type": "error"
    },
    {
      "inputs": [],
      "name": "GreaterThanMaxInput",
      "type": "error"
    },
    {
      "inputs": [],
      "name": "InsufficientAmountForTrading",
      "type": "error"
    },
    {
      "inputs": [],
      "name": "InsufficientNativeTokenSent",
      "type": "error"
    },
    {
      "inputs": [],
      "name": "InvalidAddress",
      "type": "error"
    },
    {
      "inputs": [],
      "name": "InvalidAmountLength",
      "type": "error"
    },
    {
      "inputs": [],
      "name": "InvalidFee",
      "type": "error"
    },
    {
      "inputs": [],
      "name": "InvalidPrice",
      "type": "error"
    },
    {
      "inputs": [],
      "name": "InvalidToken",
      "type": "error"
    },
    {
      "inputs": [],
      "name": "InvalidTokenLength",
      "type": "error"
    },
    {
      "inputs": [],
      "name": "InvalidTrade",
      "type": "error"
    },
    {
      "inputs": [],
      "name": "Overflow",
      "type": "error"
    },
    {
      "inputs": [],
      "name": "PairDisabled",
      "type": "error"
    },
    {
      "inputs": [],
      "name": "TradingDisabled",
      "type": "error"
    },
    {
      "inputs": [],
      "name": "UnnecessaryNativeTokenReceived",
      "type": "error"
    },
    {
      "inputs": [],
      "name": "ZeroValue",
      "type": "error"
    },
    {
      "anonymous": false,
      "inputs": [
        {
          "indexed": true,
          "internalType": "Token[]",
          "name": "tokens",
          "type": "address[]"
        },
        {
          "indexed": true,
          "internalType": "address",
          "name": "caller",
          "type": "address"
        },
        {
          "indexed": true,
          "internalType": "address",
          "name": "target",
          "type": "address"
        },
        {
          "indexed": false,
          "internalType": "uint256[]",
          "name": "amounts",
          "type": "uint256[]"
        }
      ],
      "name": "FundsWithdrawn",
      "type": "event"
    },
    {
      "anonymous": false,
      "inputs": [
        {
          "indexed": false,
          "internalType": "uint8",
          "name": "version",
          "type": "uint8"
        }
      ],
      "name": "Initialized",
      "type": "event"
    },
    {
      "anonymous": false,
      "inputs": [
        {
          "indexed": false,
          "internalType": "uint128",
          "name": "prevTargetTokenSaleAmount",
          "type": "uint128"
        },
        {
          "indexed": false,
          "internalType": "uint128",
          "name": "newTargetTokenSaleAmount",
          "type": "uint128"
        }
      ],
      "name": "MaxTargetTokenSaleAmountUpdated",
      "type": "event"
    },
    {
      "anonymous": false,
      "inputs": [
        {
          "indexed": false,
          "internalType": "uint32",
          "name": "prevMinTokenSaleAmountMultiplier",
          "type": "uint32"
        },
        {
          "indexed": false,
          "internalType": "uint32",
          "name": "newMinTokenSaleAmountMultiplier",
          "type": "uint32"
        }
      ],
      "name": "MinTokenSaleAmountMultiplierUpdated",
      "type": "event"
    },
    {
      "anonymous": false,
      "inputs": [
        {
          "indexed": true,
          "internalType": "Token",
          "name": "token",
          "type": "address"
        },
        {
          "indexed": false,
          "internalType": "uint128",
          "name": "prevMinTokenSaleAmount",
          "type": "uint128"
        },
        {
          "indexed": false,
          "internalType": "uint128",
          "name": "newMinTokenSaleAmount",
          "type": "uint128"
        }
      ],
      "name": "MinTokenSaleAmountUpdated",
      "type": "event"
    },
    {
      "anonymous": false,
      "inputs": [
        {
          "indexed": true,
          "internalType": "Token",
          "name": "token",
          "type": "address"
        },
        {
          "indexed": false,
          "internalType": "bool",
          "name": "prevStatus",
          "type": "bool"
        },
        {
          "indexed": false,
          "internalType": "bool",
          "name": "newStatus",
          "type": "bool"
        }
      ],
      "name": "PairDisabledStatusUpdated",
      "type": "event"
    },
    {
      "anonymous": false,
      "inputs": [
        {
          "indexed": false,
          "internalType": "uint32",
          "name": "prevPriceDecayHalfLife",
          "type": "uint32"
        },
        {
          "indexed": false,
          "internalType": "uint32",
          "name": "newPriceDecayHalfLife",
          "type": "uint32"
        }
      ],
      "name": "PriceDecayHalfLifeUpdated",
      "type": "event"
    },
    {
      "anonymous": false,
      "inputs": [
        {
          "indexed": false,
          "internalType": "uint32",
          "name": "prevPriceResetMultiplier",
          "type": "uint32"
        },
        {
          "indexed": false,
          "internalType": "uint32",
          "name": "newPriceResetMultiplier",
          "type": "uint32"
        }
      ],
      "name": "PriceResetMultiplierUpdated",
      "type": "event"
    },
    {
      "anonymous": false,
      "inputs": [
        {
          "indexed": true,
          "internalType": "Token",
          "name": "token",
          "type": "address"
        },
        {
          "components": [
            {
              "internalType": "uint128",
              "name": "sourceAmount",
              "type": "uint128"
            },
            {
              "internalType": "uint128",
              "name": "targetAmount",
              "type": "uint128"
            }
          ],
          "indexed": false,
          "internalType": "struct ICarbonVortex.Price",
          "name": "price",
          "type": "tuple"
        }
      ],
      "name": "PriceUpdated",
      "type": "event"
    },
    {
      "anonymous": false,
      "inputs": [
        {
          "indexed": false,
          "internalType": "uint32",
          "name": "prevRewardsPPM",
          "type": "uint32"
        },
        {
          "indexed": false,
          "internalType": "uint32",
          "name": "newRewardsPPM",
          "type": "uint32"
        }
      ],
      "name": "RewardsUpdated",
      "type": "event"
    },
    {
      "anonymous": false,
      "inputs": [
        {
          "indexed": true,
          "internalType": "bytes32",
          "name": "role",
          "type": "bytes32"
        },
        {
          "indexed": true,
          "internalType": "bytes32",
          "name": "previousAdminRole",
          "type": "bytes32"
        },
        {
          "indexed": true,
          "internalType": "bytes32",
          "name": "newAdminRole",
          "type": "bytes32"
        }
      ],
      "name": "RoleAdminChanged",
      "type": "event"
    },
    {
      "anonymous": false,
      "inputs": [
        {
          "indexed": true,
          "internalType": "bytes32",
          "name": "role",
          "type": "bytes32"
        },
        {
          "indexed": true,
          "internalType": "address",
          "name": "account",
          "type": "address"
        },
        {
          "indexed": true,
          "internalType": "address",
          "name": "sender",
          "type": "address"
        }
      ],
      "name": "RoleGranted",
      "type": "event"
    },
    {
      "anonymous": false,
      "inputs": [
        {
          "indexed": true,
          "internalType": "bytes32",
          "name": "role",
          "type": "bytes32"
        },
        {
          "indexed": true,
          "internalType": "address",
          "name": "account",
          "type": "address"
        },
        {
          "indexed": true,
          "internalType": "address",
          "name": "sender",
          "type": "address"
        }
      ],
      "name": "RoleRevoked",
      "type": "event"
    },
    {
      "anonymous": false,
      "inputs": [
        {
          "indexed": false,
          "internalType": "uint32",
          "name": "prevPriceDecayHalfLife",
          "type": "uint32"
        },
        {
          "indexed": false,
          "internalType": "uint32",
          "name": "newPriceDecayHalfLife",
          "type": "uint32"
        }
      ],
      "name": "TargetTokenPriceDecayHalfLifeOnResetUpdated",
      "type": "event"
    },
    {
      "anonymous": false,
      "inputs": [
        {
          "indexed": false,
          "internalType": "uint32",
          "name": "prevPriceDecayHalfLife",
          "type": "uint32"
        },
        {
          "indexed": false,
          "internalType": "uint32",
          "name": "newPriceDecayHalfLife",
          "type": "uint32"
        }
      ],
      "name": "TargetTokenPriceDecayHalfLifeUpdated",
      "type": "event"
    },
    {
      "anonymous": false,
      "inputs": [
        {
          "indexed": true,
          "internalType": "address",
          "name": "caller",
          "type": "address"
        },
        {
          "indexed": true,
          "internalType": "Token",
          "name": "token",
          "type": "address"
        },
        {
          "indexed": false,
          "internalType": "uint128",
          "name": "sourceAmount",
          "type": "uint128"
        },
        {
          "indexed": false,
          "internalType": "uint128",
          "name": "targetAmount",
          "type": "uint128"
        }
      ],
      "name": "TokenTraded",
      "type": "event"
    },
    {
      "anonymous": false,
      "inputs": [
        {
          "indexed": true,
          "internalType": "Token",
          "name": "token",
          "type": "address"
        },
        {
          "components": [
            {
              "internalType": "uint128",
              "name": "sourceAmount",
              "type": "uint128"
            },
            {
              "internalType": "uint128",
              "name": "targetAmount",
              "type": "uint128"
            }
          ],
          "indexed": false,
          "internalType": "struct ICarbonVortex.Price",
          "name": "price",
          "type": "tuple"
        }
      ],
      "name": "TradingReset",
      "type": "event"
    },
    {
      "anonymous": false,
      "inputs": [
        {
          "indexed": true,
          "internalType": "address",
          "name": "prevTransferAddress",
          "type": "address"
        },
        {
          "indexed": true,
          "internalType": "address",
          "name": "newTransferAddress",
          "type": "address"
        }
      ],
      "name": "TransferAddressUpdated",
      "type": "event"
    },
    {
      "inputs": [],
      "name": "DEFAULT_ADMIN_ROLE",
      "outputs": [
        {
          "internalType": "bytes32",
          "name": "",
          "type": "bytes32"
        }
      ],
      "stateMutability": "view",
      "type": "function"
    },
    {
      "inputs": [
        {
          "internalType": "Token",
          "name": "token",
          "type": "address"
        }
      ],
      "name": "amountAvailableForTrading",
      "outputs": [
        {
          "internalType": "uint128",
          "name": "",
          "type": "uint128"
        }
      ],
      "stateMutability": "view",
      "type": "function"
    },
    {
      "inputs": [
        {
          "internalType": "Token",
          "name": "token",
          "type": "address"
        }
      ],
      "name": "availableTokens",
      "outputs": [
        {
          "internalType": "uint256",
          "name": "",
          "type": "uint256"
        }
      ],
      "stateMutability": "view",
      "type": "function"
    },
    {
      "inputs": [
        {
          "internalType": "Token",
          "name": "token",
          "type": "address"
        },
        {
          "internalType": "bool",
          "name": "disabled",
          "type": "bool"
        }
      ],
      "name": "disablePair",
      "outputs": [],
      "stateMutability": "nonpayable",
      "type": "function"
    },
    {
      "inputs": [
        {
          "internalType": "Token[]",
          "name": "tokens",
          "type": "address[]"
        }
      ],
      "name": "execute",
      "outputs": [],
      "stateMutability": "nonpayable",
      "type": "function"
    },
    {
      "inputs": [
        {
          "internalType": "Token",
          "name": "token",
          "type": "address"
        },
        {
          "internalType": "uint128",
          "name": "targetAmount",
          "type": "uint128"
        }
      ],
      "name": "expectedTradeInput",
      "outputs": [
        {
          "internalType": "uint128",
          "name": "",
          "type": "uint128"
        }
      ],
      "stateMutability": "view",
      "type": "function"
    },
    {
      "inputs": [
        {
          "internalType": "Token",
          "name": "token",
          "type": "address"
        },
        {
          "internalType": "uint128",
          "name": "sourceAmount",
          "type": "uint128"
        }
      ],
      "name": "expectedTradeReturn",
      "outputs": [
        {
          "internalType": "uint128",
          "name": "",
          "type": "uint128"
        }
      ],
      "stateMutability": "view",
      "type": "function"
    },
    {
      "inputs": [],
      "name": "finalTargetToken",
      "outputs": [
        {
          "internalType": "Token",
          "name": "",
          "type": "address"
        }
      ],
      "stateMutability": "view",
      "type": "function"
    },
    {
      "inputs": [
        {
          "internalType": "bytes32",
          "name": "role",
          "type": "bytes32"
        }
      ],
      "name": "getRoleAdmin",
      "outputs": [
        {
          "internalType": "bytes32",
          "name": "",
          "type": "bytes32"
        }
      ],
      "stateMutability": "view",
      "type": "function"
    },
    {
      "inputs": [
        {
          "internalType": "bytes32",
          "name": "role",
          "type": "bytes32"
        },
        {
          "internalType": "uint256",
          "name": "index",
          "type": "uint256"
        }
      ],
      "name": "getRoleMember",
      "outputs": [
        {
          "internalType": "address",
          "name": "",
          "type": "address"
        }
      ],
      "stateMutability": "view",
      "type": "function"
    },
    {
      "inputs": [
        {
          "internalType": "bytes32",
          "name": "role",
          "type": "bytes32"
        }
      ],
      "name": "getRoleMemberCount",
      "outputs": [
        {
          "internalType": "uint256",
          "name": "",
          "type": "uint256"
        }
      ],
      "stateMutability": "view",
      "type": "function"
    },
    {
      "inputs": [
        {
          "internalType": "bytes32",
          "name": "role",
          "type": "bytes32"
        },
        {
          "internalType": "address",
          "name": "account",
          "type": "address"
        }
      ],
      "name": "grantRole",
      "outputs": [],
      "stateMutability": "nonpayable",
      "type": "function"
    },
    {
      "inputs": [
        {
          "internalType": "bytes32",
          "name": "role",
          "type": "bytes32"
        },
        {
          "internalType": "address",
          "name": "account",
          "type": "address"
        }
      ],
      "name": "hasRole",
      "outputs": [
        {
          "internalType": "bool",
          "name": "",
          "type": "bool"
        }
      ],
      "stateMutability": "view",
      "type": "function"
    },
    {
      "inputs": [
        {
          "internalType": "address payable",
          "name": "transferAddressInit",
          "type": "address"
        }
      ],
      "name": "initialize",
      "outputs": [],
      "stateMutability": "nonpayable",
      "type": "function"
    },
    {
      "inputs": [],
      "name": "minTargetTokenSaleAmount",
      "outputs": [
        {
          "internalType": "uint128",
          "name": "",
          "type": "uint128"
        }
      ],
      "stateMutability": "view",
      "type": "function"
    },
    {
      "inputs": [
        {
          "internalType": "Token",
          "name": "token",
          "type": "address"
        }
      ],
      "name": "minTokenSaleAmount",
      "outputs": [
        {
          "internalType": "uint128",
          "name": "",
          "type": "uint128"
        }
      ],
      "stateMutability": "view",
      "type": "function"
    },
    {
      "inputs": [],
      "name": "minTokenSaleAmountMultiplier",
      "outputs": [
        {
          "internalType": "uint32",
          "name": "",
          "type": "uint32"
        }
      ],
      "stateMutability": "view",
      "type": "function"
    },
    {
      "inputs": [
        {
          "internalType": "Token",
          "name": "token",
          "type": "address"
        }
      ],
      "name": "pairDisabled",
      "outputs": [
        {
          "internalType": "bool",
          "name": "",
          "type": "bool"
        }
      ],
      "stateMutability": "view",
      "type": "function"
    },
    {
      "inputs": [
        {
          "internalType": "bool",
          "name": "checkVersion",
          "type": "bool"
        },
        {
          "internalType": "bytes",
          "name": "data",
          "type": "bytes"
        }
      ],
      "name": "postUpgrade",
      "outputs": [],
      "stateMutability": "nonpayable",
      "type": "function"
    },
    {
      "inputs": [],
      "name": "priceDecayHalfLife",
      "outputs": [
        {
          "internalType": "uint32",
          "name": "",
          "type": "uint32"
        }
      ],
      "stateMutability": "view",
      "type": "function"
    },
    {
      "inputs": [],
      "name": "priceResetMultiplier",
      "outputs": [
        {
          "internalType": "uint32",
          "name": "",
          "type": "uint32"
        }
      ],
      "stateMutability": "view",
      "type": "function"
    },
    {
      "inputs": [
        {
          "internalType": "bytes32",
          "name": "role",
          "type": "bytes32"
        },
        {
          "internalType": "address",
          "name": "account",
          "type": "address"
        }
      ],
      "name": "renounceRole",
      "outputs": [],
      "stateMutability": "nonpayable",
      "type": "function"
    },
    {
      "inputs": [
        {
          "internalType": "bytes32",
          "name": "role",
          "type": "bytes32"
        },
        {
          "internalType": "address",
          "name": "account",
          "type": "address"
        }
      ],
      "name": "revokeRole",
      "outputs": [],
      "stateMutability": "nonpayable",
      "type": "function"
    },
    {
      "inputs": [],
      "name": "rewardsPPM",
      "outputs": [
        {
          "internalType": "uint32",
          "name": "",
          "type": "uint32"
        }
      ],
      "stateMutability": "view",
      "type": "function"
    },
    {
      "inputs": [],
      "name": "roleAdmin",
      "outputs": [
        {
          "internalType": "bytes32",
          "name": "",
          "type": "bytes32"
        }
      ],
      "stateMutability": "pure",
      "type": "function"
    },
    {
      "inputs": [
        {
          "internalType": "uint128",
          "name": "newMaxTargetTokenSaleAmount",
          "type": "uint128"
        }
      ],
      "name": "setMaxTargetTokenSaleAmount",
      "outputs": [],
      "stateMutability": "nonpayable",
      "type": "function"
    },
    {
      "inputs": [
        {
          "internalType": "uint128",
          "name": "newMinTargetTokenSaleAmount",
          "type": "uint128"
        }
      ],
      "name": "setMinTargetTokenSaleAmount",
      "outputs": [],
      "stateMutability": "nonpayable",
      "type": "function"
    },
    {
      "inputs": [
        {
          "internalType": "uint32",
          "name": "newMinTokenSaleAmountMultiplier",
          "type": "uint32"
        }
      ],
      "name": "setMinTokenSaleAmountMultiplier",
      "outputs": [],
      "stateMutability": "nonpayable",
      "type": "function"
    },
    {
      "inputs": [
        {
          "internalType": "uint32",
          "name": "newPriceDecayHalfLife",
          "type": "uint32"
        }
      ],
      "name": "setPriceDecayHalfLife",
      "outputs": [],
      "stateMutability": "nonpayable",
      "type": "function"
    },
    {
      "inputs": [
        {
          "internalType": "uint32",
          "name": "newPriceResetMultiplier",
          "type": "uint32"
        }
      ],
      "name": "setPriceResetMultiplier",
      "outputs": [],
      "stateMutability": "nonpayable",
      "type": "function"
    },
    {
      "inputs": [
        {
          "internalType": "uint32",
          "name": "newRewardsPPM",
          "type": "uint32"
        }
      ],
      "name": "setRewardsPPM",
      "outputs": [],
      "stateMutability": "nonpayable",
      "type": "function"
    },
    {
      "inputs": [
        {
          "internalType": "uint32",
          "name": "newPriceDecayHalfLife",
          "type": "uint32"
        }
      ],
      "name": "setTargetTokenPriceDecayHalfLife",
      "outputs": [],
      "stateMutability": "nonpayable",
      "type": "function"
    },
    {
      "inputs": [
        {
          "internalType": "uint32",
          "name": "newPriceDecayHalfLife",
          "type": "uint32"
        }
      ],
      "name": "setTargetTokenPriceDecayHalfLifeOnReset",
      "outputs": [],
      "stateMutability": "nonpayable",
      "type": "function"
    },
    {
      "inputs": [
        {
          "internalType": "address",
          "name": "newTransferAddress",
          "type": "address"
        }
      ],
      "name": "setTransferAddress",
      "outputs": [],
      "stateMutability": "nonpayable",
      "type": "function"
    },
    {
      "inputs": [
        {
          "internalType": "bytes4",
          "name": "interfaceId",
          "type": "bytes4"
        }
      ],
      "name": "supportsInterface",
      "outputs": [
        {
          "internalType": "bool",
          "name": "",
          "type": "bool"
        }
      ],
      "stateMutability": "view",
      "type": "function"
    },
    {
      "inputs": [],
      "name": "targetToken",
      "outputs": [
        {
          "internalType": "Token",
          "name": "",
          "type": "address"
        }
      ],
      "stateMutability": "view",
      "type": "function"
    },
    {
      "inputs": [],
      "name": "targetTokenPriceDecayHalfLife",
      "outputs": [
        {
          "internalType": "uint32",
          "name": "",
          "type": "uint32"
        }
      ],
      "stateMutability": "view",
      "type": "function"
    },
    {
      "inputs": [],
      "name": "targetTokenPriceDecayHalfLifeOnReset",
      "outputs": [
        {
          "internalType": "uint32",
          "name": "",
          "type": "uint32"
        }
      ],
      "stateMutability": "view",
      "type": "function"
    },
    {
      "inputs": [],
      "name": "targetTokenSaleAmount",
      "outputs": [
        {
          "components": [
            {
              "internalType": "uint128",
              "name": "initial",
              "type": "uint128"
            },
            {
              "internalType": "uint128",
              "name": "current",
              "type": "uint128"
            }
          ],
          "internalType": "struct ICarbonVortex.SaleAmount",
          "name": "",
          "type": "tuple"
        }
      ],
      "stateMutability": "view",
      "type": "function"
    },
    {
      "inputs": [
        {
          "internalType": "Token",
          "name": "token",
          "type": "address"
        }
      ],
      "name": "tokenPrice",
      "outputs": [
        {
          "components": [
            {
              "internalType": "uint128",
              "name": "sourceAmount",
              "type": "uint128"
            },
            {
              "internalType": "uint128",
              "name": "targetAmount",
              "type": "uint128"
            }
          ],
          "internalType": "struct ICarbonVortex.Price",
          "name": "",
          "type": "tuple"
        }
      ],
      "stateMutability": "view",
      "type": "function"
    },
    {
      "inputs": [],
      "name": "totalCollected",
      "outputs": [
        {
          "internalType": "uint256",
          "name": "",
          "type": "uint256"
        }
      ],
      "stateMutability": "view",
      "type": "function"
    },
    {
      "inputs": [
        {
          "internalType": "Token",
          "name": "token",
          "type": "address"
        },
        {
          "internalType": "uint128",
          "name": "targetAmount",
          "type": "uint128"
        },
        {
          "internalType": "uint128",
          "name": "maxInput",
          "type": "uint128"
        }
      ],
      "name": "trade",
      "outputs": [],
      "stateMutability": "payable",
      "type": "function"
    },
    {
      "inputs": [
        {
          "internalType": "Token",
          "name": "token",
          "type": "address"
        }
      ],
      "name": "tradingEnabled",
      "outputs": [
        {
          "internalType": "bool",
          "name": "",
          "type": "bool"
        }
      ],
      "stateMutability": "view",
      "type": "function"
    },
    {
      "inputs": [],
      "name": "transferAddress",
      "outputs": [
        {
          "internalType": "address",
          "name": "",
          "type": "address"
        }
      ],
      "stateMutability": "view",
      "type": "function"
    },
    {
      "inputs": [],
      "name": "version",
      "outputs": [
        {
          "internalType": "uint16",
          "name": "",
          "type": "uint16"
        }
      ],
      "stateMutability": "pure",
      "type": "function"
    },
    {
      "inputs": [
        {
          "internalType": "Token[]",
          "name": "tokens",
          "type": "address[]"
        },
        {
          "internalType": "address payable",
          "name": "target",
          "type": "address"
        },
        {
          "internalType": "uint256[]",
          "name": "amounts",
          "type": "uint256[]"
        }
      ],
      "name": "withdrawFunds",
      "outputs": [],
      "stateMutability": "nonpayable",
      "type": "function"
    },
    {
      "stateMutability": "payable",
      "type": "receive"
    }
  ],
  "transactionHash": "0x964d46b2736ba8f499f58b7dbe407f9a6c444814dccd2a7af1fa82c6514c2b81",
  "args": [
    "0x6619871118D144c1c28eC3b23036FC1f0829ed3a",
    "0x8cE318919438982514F9f479FDfB40D32C6ab749",
    "0xEeeeeEeeeEeEeeEeEeEeeEEEeeeeEeeeeeeeEEeE",
    "0x66803FB87aBd4aaC3cbB3fAd7C3aa01f6F3FB207"
  ],
  "numDeployments": 4,
  "solcInputHash": "0e061707db6e3673ccad8afc8b9b0187",
  "bytecode": "0x6101006040523480156200001257600080fd5b5060405162005a8838038062005a88833981016040819052620000359162000177565b81620000418162000075565b6001600160a01b0380861660805284811660a05283811660c052821660e0526200006a620000a0565b5050505050620001df565b6001600160a01b0381166200009d5760405163e6c4247b60e01b815260040160405180910390fd5b50565b600054610100900460ff16156200010d5760405162461bcd60e51b815260206004820152602760248201527f496e697469616c697a61626c653a20636f6e747261637420697320696e697469604482015266616c697a696e6760c81b606482015260840160405180910390fd5b60005460ff908116146200015f576000805460ff191660ff9081179091556040519081527f7f26b83ff96e1f2b6a682f133852f6798a09c465da95921460cefb38474024989060200160405180910390a15b565b6001600160a01b03811681146200009d57600080fd5b600080600080608085870312156200018e57600080fd5b84516200019b8162000161565b6020860151909450620001ae8162000161565b6040860151909350620001c18162000161565b6060860151909250620001d48162000161565b939692955090935050565b60805160a05160c05160e051615734620003546000396000818161050c0152818161100b0152818161109001528181613138015281816131bc0152818161324a015281816132bd015281816132f5015281816137ab01526138520152600081816104260152818161095901528181611059015281816110c10152818161146f01528181611b3001528181611c7c015281816123d30152818161248201528181612544015281816125b90152818161263601528181612b4d0152818161307801528181613288015281816133a90152818161340e01528181613459015281816134ba0152818161353a01528181613649015281816136cd0152818161375b015281816137dc01528181613889015281816138f40152818161393c015281816143f4015281816144410152614465015260008181610cea01528181610e2101528181610e8d0152818161163f015261167b015260008181610cc401528181610d900152818161156001526115c501526157346000f3fe6080604052600436106103015760003560e01c80639c18c7631161018f578063cb8ea538116100e1578063ea2e12e51161008a578063ef7cbc4a11610064578063ef7cbc4a146109e7578063f444fdd814610a07578063fa6ca9e814610a2657600080fd5b8063ea2e12e51461094a578063ecd844ae1461099f578063eec245e2146109c757600080fd5b8063debcf1fe116100bb578063debcf1fe146108d4578063e29eb836146108f4578063e60963f81461090a57600080fd5b8063cb8ea53814610874578063d1591fa614610894578063d547741f146108b457600080fd5b8063ac5b12ec11610143578063c735ce431161011d578063c735ce4314610818578063c7f5387414610838578063ca15c8731461085457600080fd5b8063ac5b12ec146107ac578063bedf9525146107d8578063c4d66de8146107f857600080fd5b8063a1a660a711610174578063a1a660a714610757578063a217fddf14610777578063a7ae00d21461078c57600080fd5b80639c18c763146106fd5780639dee50ea1461073757600080fd5b806354fd4d50116102535780638619c0d9116101fc57806393867fb5116101d657806393867fb51461068a57806394717ae9146106bd57806394cb0947146106dd57600080fd5b80638619c0d9146105d85780639010d07c1461062457806391d148541461064457600080fd5b80636b36b05b1161022d5780636b36b05b14610553578063824316881461057357806384ba3f69146105ab57600080fd5b806354fd4d50146104e1578063613ef7ed146104fd57806363ee9e4e1461053057600080fd5b80632f2ff15d116102b55780634b4e97ee1161028f5780634b4e97ee1461047e5780634bb69ddb146104a15780634c0a0dfa146104c157600080fd5b80632f2ff15d146103f7578063327107f71461041757806336568abe1461045e57600080fd5b80630d108f2c116102e65780630d108f2c14610377578063185a567114610399578063248a9ca3146103b957600080fd5b806301ffc9a71461030d578063035dff191461034257600080fd5b3661030857005b600080fd5b34801561031957600080fd5b5061032d610328366004614df9565b610a39565b60405190151581526020015b60405180910390f35b34801561034e57600080fd5b5061012e54640100000000900463ffffffff165b60405163ffffffff9091168152602001610339565b34801561038357600080fd5b50610397610392366004614e3b565b610a95565b005b3480156103a557600080fd5b506103976103b4366004614e76565b610adc565b3480156103c557600080fd5b506103e96103d4366004614e93565b60009081526065602052604090206001015490565b604051908152602001610339565b34801561040357600080fd5b50610397610412366004614eac565b610b12565b34801561042357600080fd5b507f00000000000000000000000000000000000000000000000000000000000000005b6040516001600160a01b039091168152602001610339565b34801561046a57600080fd5b50610397610479366004614eac565b610b3c565b34801561048a57600080fd5b5061012e54600160801b900463ffffffff16610362565b3480156104ad57600080fd5b506103976104bc366004614e3b565b610bc9565b3480156104cd57600080fd5b506103976104dc366004614f21565b610c0c565b3480156104ed57600080fd5b5060405160048152602001610339565b34801561050957600080fd5b507f0000000000000000000000000000000000000000000000000000000000000000610446565b34801561053c57600080fd5b5061012e54600160a01b900463ffffffff16610362565b34801561055f57600080fd5b5061039761056e366004614e3b565b6112b4565b34801561057f57600080fd5b5061059361058e366004614f7a565b6112f1565b6040516001600160801b039091168152602001610339565b3480156105b757600080fd5b506105cb6105c6366004614e76565b6113ac565b6040516103399190614faf565b3480156105e457600080fd5b5060408051808201825260008082526020918201528151808301909252610133546001600160801b038082168452600160801b90910416908201526105cb565b34801561063057600080fd5b5061044661063f366004614fd3565b6114f6565b34801561065057600080fd5b5061032d61065f366004614eac565b60009182526065602090815260408084206001600160a01b0393909316845291905290205460ff1690565b34801561069657600080fd5b507f2172861495e7b85edac73e3cd5fbb42dd675baadf627720e687bcfdaca0250966103e9565b3480156106c957600080fd5b506103976106d8366004614ff5565b611515565b3480156106e957600080fd5b506103e96106f8366004614e76565b61155b565b34801561070957600080fd5b5061032d610718366004614e76565b6001600160a01b0316600090815261012f602052604090205460ff1690565b34801561074357600080fd5b50610397610752366004614e3b565b6116c9565b34801561076357600080fd5b50610397610772366004615010565b61170c565b34801561078357600080fd5b506103e9600081565b34801561079857600080fd5b506105936107a7366004614f7a565b611870565b3480156107b857600080fd5b5061012e546c01000000000000000000000000900463ffffffff16610362565b3480156107e457600080fd5b5061032d6107f3366004614e76565b611917565b34801561080457600080fd5b50610397610813366004614e76565b61193e565b34801561082457600080fd5b506103976108333660046150a3565b611a60565b34801561084457600080fd5b5061012e5463ffffffff16610362565b34801561086057600080fd5b506103e961086f366004614e93565b611a94565b34801561088057600080fd5b5061039761088f366004614e3b565b611aab565b3480156108a057600080fd5b506103976108af366004614ff5565b611aee565b3480156108c057600080fd5b506103976108cf366004614eac565b611b55565b3480156108e057600080fd5b506103976108ef3660046150d1565b611b7a565b34801561090057600080fd5b5061012d546103e9565b34801561091657600080fd5b50610593610925366004614e76565b6001600160a01b0316600090815261013260205260409020546001600160801b031690565b34801561095657600080fd5b507f00000000000000000000000000000000000000000000000000000000000000006001600160a01b0316600090815261013260205260409020546001600160801b0316610593565b3480156109ab57600080fd5b5061012e5468010000000000000000900463ffffffff16610362565b3480156109d357600080fd5b506105936109e2366004614e76565b611c01565b3480156109f357600080fd5b50610397610a02366004614e3b565b611c0c565b348015610a1357600080fd5b50610134546001600160a01b0316610446565b610397610a34366004615156565b611c4f565b60007fffffffff0000000000000000000000000000000000000000000000000000000082167f5a05180f000000000000000000000000000000000000000000000000000000001480610a8f5750610a8f82611d2d565b92915050565b610abf7f2172861495e7b85edac73e3cd5fbb42dd675baadf627720e687bcfdaca02509633611dc4565b8063ffffffff16610acf81611e20565b610ad882611e5a565b5050565b610b067f2172861495e7b85edac73e3cd5fbb42dd675baadf627720e687bcfdaca02509633611dc4565b610b0f81611ef1565b50565b600082815260656020526040902060010154610b2d81611f77565b610b378383611f81565b505050565b6001600160a01b0381163314610bbf5760405162461bcd60e51b815260206004820152602f60248201527f416363657373436f6e74726f6c3a2063616e206f6e6c792072656e6f756e636560448201527f20726f6c657320666f722073656c66000000000000000000000000000000000060648201526084015b60405180910390fd5b610ad88282611fa3565b610bf37f2172861495e7b85edac73e3cd5fbb42dd675baadf627720e687bcfdaca02509633611dc4565b8063ffffffff16610c0381611e20565b610ad882611fc5565b610c1461205e565b8181610c2082826120b7565b8260008167ffffffffffffffff811115610c3c57610c3c61519b565b604051908082528060200260200182016040528015610c65578160200160208202803683370190505b50905060008267ffffffffffffffff811115610c8357610c8361519b565b604051908082528060200260200182016040528015610cac578160200160208202803683370190505b5061012e5490915063ffffffff166001600160a01b037f000000000000000000000000000000000000000000000000000000000000000081161515907f000000000000000000000000000000000000000000000000000000000000000016151560005b86811015610f4e5760008b8b83818110610d2b57610d2b6151b1565b9050602002016020810190610d409190614e76565b905060008415610e0a576040517f9ba372c20000000000000000000000000000000000000000000000000000000081526001600160a01b03838116600483015260001960248301523060448301527f00000000000000000000000000000000000000000000000000000000000000001690639ba372c2906064016020604051808303816000875af1158015610dd9573d6000803e3d6000fd5b505050506040513d601f19601f82011682018060405250810190610dfd91906151c7565b610e0790826151f6565b90505b8315610efb576000610e456001600160a01b0384167f0000000000000000000000000000000000000000000000000000000000000000612201565b6040517f1c20fadd0000000000000000000000000000000000000000000000000000000081526001600160a01b038581166004830152306024830152604482018390529192507f000000000000000000000000000000000000000000000000000000000000000090911690631c20fadd90606401600060405180830381600087803b158015610ed357600080fd5b505af1158015610ee7573d6000803e3d6000fd5b505050508082610ef791906151f6565b9150505b80888481518110610f0e57610f0e6151b1565b6020908102919091010152610f278187620f42406122a8565b878481518110610f3957610f396151b1565b60209081029190910101525050600101610d0f565b5060005b868110156112625760008b8b83818110610f6e57610f6e6151b1565b9050602002016020810190610f839190614e76565b90506000878381518110610f9957610f996151b1565b602002602001015190506000878481518110610fb757610fb76151b1565b6020026020010151905060008183610fcf9190615209565b9050821580610ff757506001600160a01b038416600090815261012f602052604090205460ff165b15611005575050505061125a565b61103b847f00000000000000000000000000000000000000000000000000000000000000006001600160a01b0390811691161490565b156110535761104a8482612383565b5050505061125a565b611089847f00000000000000000000000000000000000000000000000000000000000000006001600160a01b0390811691161490565b15611166577f00000000000000000000000000000000000000000000000000000000000000006001600160a01b03166110eb576110e67f000000000000000000000000000000000000000000000000000000000000000082612383565b611255565b6001600160a01b0384166000908152610130602052604090205463ffffffff16158061114957506001600160a01b038416600090815261013260205260409020546001600160801b031661113e856123cb565b6001600160801b0316105b8061115857506111588461243c565b156110e6576110e682612506565b6000611171856123cb565b905061119b856001600160a01b03166000908152610130602052604090205463ffffffff16151590565b15806111d757506001600160a01b038516600090815261013260205260409020546001600160801b03908116906111d59084908416615209565b105b8061123557506001600160a01b0385166000908152610132602052604090205461012e54611220916001600160801b03169068010000000000000000900463ffffffff1661521c565b6001600160801b0316816001600160801b0316115b8061124457506112448561243c565b15611253576112538584612699565b505b505050505b600101610f52565b506112a2338b8b80806020026020016040519081016040528093929190818152602001838360200280828437600092019190915250899250612794915050565b5050505050505050610ad8600160fb55565b6112de7f2172861495e7b85edac73e3cd5fbb42dd675baadf627720e687bcfdaca02509633611dc4565b806112e88161280c565b610ad88261284f565b6000826112fd816128bb565b6000611308856113ac565b905061131381612965565b600061134b61134683602001516001600160801b0316876001600160801b031685600001516001600160801b03166122a8565b6129bd565b9050611356866123cb565b6001600160801b0316816001600160801b031611156113a1576040517f8e26ecdf00000000000000000000000000000000000000000000000000000000815260040160405180910390fd5b9250505b5092915050565b60408051808201909152600080825260208201526001600160a01b0382166000908152610130602052604081205463ffffffff169081900361141a576040517fbcb8b8fb00000000000000000000000000000000000000000000000000000000815260040160405180910390fd5b60006114268242615247565b6001600160a01b038581166000818152610131602090815260408083208151808301909252546001600160801b038082168352600160801b9091041691810191909152939450917f000000000000000000000000000000000000000000000000000000000000000016146114aa5761012e54600160a01b900463ffffffff166114c5565b61012e546c01000000000000000000000000900463ffffffff165b90506114e261134683600001516001600160801b03168584612a40565b6001600160801b0316825250949350505050565b600082815260976020526040812061150e9083612ac8565b9392505050565b61153f7f2172861495e7b85edac73e3cd5fbb42dd675baadf627720e687bcfdaca02509633611dc4565b806001600160801b031661155281611e20565b610ad882612ad4565b6000807f00000000000000000000000000000000000000000000000000000000000000006001600160a01b03161561163d576040517ffcf666640000000000000000000000000000000000000000000000000000000081526001600160a01b0384811660048301527f0000000000000000000000000000000000000000000000000000000000000000169063fcf6666490602401602060405180830381865afa15801561160c573d6000803e3d6000fd5b505050506040513d601f19601f8201168201806040525081019061163091906151c7565b61163a90826151f6565b90505b7f00000000000000000000000000000000000000000000000000000000000000006001600160a01b0316156116ac5761169f6001600160a01b0384167f0000000000000000000000000000000000000000000000000000000000000000612201565b6116a990826151f6565b90505b6116bf6001600160a01b03841630612201565b61150e90826151f6565b6116f37f2172861495e7b85edac73e3cd5fbb42dd675baadf627720e687bcfdaca02509633611dc4565b8063ffffffff1661170381611e20565b610ad882612be1565b8261171681612c78565b858561172282826120b7565b61172a61205e565b6117547f2172861495e7b85edac73e3cd5fbb42dd675baadf627720e687bcfdaca02509633611dc4565b8684811461178e576040517f0b83f83800000000000000000000000000000000000000000000000000000000815260040160405180910390fd5b60005b818110156117f5576117ed888888848181106117af576117af6151b1565b905060200201358c8c858181106117c8576117c86151b1565b90506020020160208101906117dd9190614e76565b6001600160a01b03169190612cb8565b600101611791565b50866001600160a01b0316336001600160a01b03168a8a60405161181a929190615264565b60405180910390207f928c965b5a7ac3964d452392d2920cfe16f13634362554650837410a99cc3b5589896040516118539291906152a6565b60405180910390a450611866600160fb55565b5050505050505050565b60008261187c816128bb565b611885846123cb565b6001600160801b0316836001600160801b031611156118d0576040517f8e26ecdf00000000000000000000000000000000000000000000000000000000815260040160405180910390fd5b60006118db856113ac565b90506118e681612965565b6113a161134682600001516001600160801b0316866001600160801b031684602001516001600160801b0316612cfa565b6001600160a01b0381166000908152610130602052604081205463ffffffff161515610a8f565b600054610100900460ff161580801561195e5750600054600160ff909116105b806119785750303b158015611978575060005460ff166001145b6119ea5760405162461bcd60e51b815260206004820152602e60248201527f496e697469616c697a61626c653a20636f6e747261637420697320616c72656160448201527f647920696e697469616c697a65640000000000000000000000000000000000006064820152608401610bb6565b6000805460ff191660011790558015611a0d576000805461ff0019166101001790555b611a1682612d51565b8015610ad8576000805461ff0019169055604051600181527f7f26b83ff96e1f2b6a682f133852f6798a09c465da95921460cefb3847402498906020015b60405180910390a15050565b611a8a7f2172861495e7b85edac73e3cd5fbb42dd675baadf627720e687bcfdaca02509633611dc4565b610ad88282612dd5565b6000818152609760205260408120610a8f90612e61565b611ad57f2172861495e7b85edac73e3cd5fbb42dd675baadf627720e687bcfdaca02509633611dc4565b8063ffffffff16611ae581611e20565b610ad882612e6b565b611b187f2172861495e7b85edac73e3cd5fbb42dd675baadf627720e687bcfdaca02509633611dc4565b806001600160801b0316611b2b81611e20565b610ad87f000000000000000000000000000000000000000000000000000000000000000083612f0c565b600082815260656020526040902060010154611b7081611f77565b610b378383611fa3565b60c954600090611b8f9061ffff1660016152f8565b90506004848015611ba857508061ffff168261ffff1614155b15611bdf576040517f0dc149f000000000000000000000000000000000000000000000000000000000815260040160405180910390fd5b84611be8578091505b60c9805461ffff191661ffff84161790555b5050505050565b6000610a8f826123cb565b611c367f2172861495e7b85edac73e3cd5fbb42dd675baadf627720e687bcfdaca02509633611dc4565b8063ffffffff16611c4681611e20565b610ad882612fc7565b611c5761205e565b82611c61816128bb565b826001600160801b0316611c7481611e20565b6000611cac867f00000000000000000000000000000000000000000000000000000000000000006001600160a01b0390811691161490565b15611cc257611cbb8585613070565b9050611cd0565b611ccd8686866135a1565b90505b604080516001600160801b038084168252871660208201526001600160a01b0388169133917f16ddee9b3f1b2e6f797172fe2cd10a214e749294074e075e451f95aecd0b958c910160405180910390a3505050610b37600160fb55565b60007fffffffff0000000000000000000000000000000000000000000000000000000082167f7965db0b000000000000000000000000000000000000000000000000000000001480610a8f57507f01ffc9a7000000000000000000000000000000000000000000000000000000007fffffffff00000000000000000000000000000000000000000000000000000000831614610a8f565b60008281526065602090815260408083206001600160a01b038516845290915290205460ff16610ad8576040517f4ca8886700000000000000000000000000000000000000000000000000000000815260040160405180910390fd5b80600003610b0f576040517f7c946ed700000000000000000000000000000000000000000000000000000000815260040160405180910390fd5b61012e5463ffffffff600160a01b90910481169082168103611e7a575050565b61012e80547fffffffffffffffff00000000ffffffffffffffffffffffffffffffffffffffff16600160a01b63ffffffff8581169182029290921790925560408051918416825260208201929092527f91a3ff80be5536f6b4a03994984844ded4c1470ac2e7c1a1f9445464358788c39101611a54565b610134546001600160a01b039081169082168103611f0d575050565b61013480547fffffffffffffffffffffffff0000000000000000000000000000000000000000166001600160a01b0384811691821790925560405190918316907f0c752b9b11fd9a446c76e6b4cec603d51f2dc603428e800999192409062cbabe90600090a35050565b610b0f81336139a1565b611f8b8282613a16565b6000828152609760205260409020610b379082613ab8565b611fad8282613acd565b6000828152609760205260409020610b379082613b50565b61012e5463ffffffff64010000000090910481169082168103611fe6575050565b61012e80547fffffffffffffffffffffffffffffffffffffffffffffffff00000000ffffffff1664010000000063ffffffff8581169182029290921790925560408051918416825260208201929092527f33f05f943b1d9d33ead056b32deb8d9918421c996ac02108cb2753a7c1cc42cb9101611a54565b600260fb54036120b05760405162461bcd60e51b815260206004820152601f60248201527f5265656e7472616e637947756172643a207265656e7472616e742063616c6c006044820152606401610bb6565b600260fb55565b8060008190036120f3576040517f7dee3bcb00000000000000000000000000000000000000000000000000000000815260040160405180910390fd5b60005b818110156121fb576000848483818110612112576121126151b1565b90506020020160208101906121279190614e76565b90506001600160a01b038116612169576040517fc1ab6dc100000000000000000000000000000000000000000000000000000000815260040160405180910390fd5b600182015b838110156121f1576121b28287878481811061218c5761218c6151b1565b90506020020160208101906121a19190614e76565b6001600160a01b0390811691161490565b156121e9576040517f464e3f6a00000000000000000000000000000000000000000000000000000000815260040160405180910390fd5b60010161216e565b50506001016120f6565b50505050565b600061220c83613b65565b1561222257506001600160a01b03811631610a8f565b826040517f70a082310000000000000000000000000000000000000000000000000000000081526001600160a01b03848116600483015291909116906370a0823190602401602060405180830381865afa158015612284573d6000803e3d6000fd5b505050506040513d601f19601f8201168201806040525081019061150e91906151c7565b60008060006122b78686613b8c565b91509150816000036122dc578381816122d2576122d2615313565b049250505061150e565b8382106122fc57604051631a93c68960e11b815260040160405180910390fd5b6000612309878787613bc7565b9050600080612319858585613be2565b91509150816000036123415786818161233457612334615313565b049550505050505061150e565b6000878103881690612354848484613c12565b90506000612370838b8161236a5761236a615313565b04613c4f565b919091029b9a5050505050505050505050565b8061012d600082825461239691906151f6565b9091555050610134546001600160a01b03166123b0575050565b61013454610ad8906001600160a01b03848116911683612cb8565b6000612403827f00000000000000000000000000000000000000000000000000000000000000006001600160a01b0390811691161490565b1561242157505061013354600160801b90046001600160801b031690565b610a8f6113466001600160a01b03841630612201565b919050565b6001600160a01b0381166000908152610130602052604081205463ffffffff1680820361246c5750600092915050565b60006124788242615247565b905060006124b2857f00000000000000000000000000000000000000000000000000000000000000006001600160a01b0390811691161490565b6124cc5761012e54600160a01b900463ffffffff166124e7565b61012e546c01000000000000000000000000900463ffffffff165b905060806124f58284615329565b63ffffffff16101595945050505050565b60408051808201825260008082526020918201819052825180840184526001600160801b0380825264e8d4a510008285019081526001600160a01b037f00000000000000000000000000000000000000000000000000000000000000001684526101308552858420805463ffffffff421663ffffffff19909116179055610131909452938220815193518516600160801b02939094169290921790925590506125fb611346836125df6001600160a01b037f00000000000000000000000000000000000000000000000000000000000000001630612201565b6125e99190615209565b610133546001600160801b0316613c70565b61013380546001600160801b03928316600160801b02921691909117905561012e546126349063ffffffff600160a01b90910416612fc7565b7f00000000000000000000000000000000000000000000000000000000000000006001600160a01b03167f5ca7720c6803d2fa51e59501f044b092942f5ca58436a564f81c63c7e5b954668260405161268d9190614faf565b60405180910390a25050565b60408051808201825260008082526020918201819052825180840184526001600160801b0380825264e8d4a510008285019081526001600160a01b03881684526101308552858420805463ffffffff421663ffffffff19909116179055610131909452938220815193518516600160801b029390941692909217909255905061274e83600261273f856127356001600160a01b03851630612201565b6113469190615209565b612749919061534c565b612f0c565b826001600160a01b03167f5ca7720c6803d2fa51e59501f044b092942f5ca58436a564f81c63c7e5b95466826040516127879190614faf565b60405180910390a2505050565b815160005b81811015611bfa5760008482815181106127b5576127b56151b1565b6020026020010151905060008483815181106127d3576127d36151b1565b602002602001015190506127fb8782846001600160a01b0316612cb89092919063ffffffff16565b5050600101612799565b600160fb55565b620f424063ffffffff82161115610b0f576040517f58d620b300000000000000000000000000000000000000000000000000000000815260040160405180910390fd5b61012e5463ffffffff9081169082168103612868575050565b61012e805463ffffffff191663ffffffff84811691821790925560408051928416835260208301919091527fae6032c8c5e2de64a0ea5bae16212679a17117929d901adc5ad7852d503d8a129101611a54565b6001600160a01b0381166000908152610130602052604090205463ffffffff16612911576040517fbcb8b8fb00000000000000000000000000000000000000000000000000000000815260040160405180910390fd5b6001600160a01b038116600090815261012f602052604090205460ff1615610b0f576040517f74c5330a00000000000000000000000000000000000000000000000000000000815260040160405180910390fd5b80516001600160801b03161580612987575060208101516001600160801b0316155b15610b0f576040517ebfc92100000000000000000000000000000000000000000000000000000000815260040160405180910390fd5b60006001600160801b03821115612a3c5760405162461bcd60e51b815260206004820152602760248201527f53616665436173743a2076616c756520646f65736e27742066697420696e203160448201527f32382062697473000000000000000000000000000000000000000000000000006064820152608401610bb6565b5090565b600080612a4d8385615329565b63ffffffff1690506000612a618486615366565b63ffffffff169050600060405180604001604052808381526020018663ffffffff1681525090506000612a9382613c86565b9050612abc888260200151866002612aab919061556b565b8451612ab79190615577565b6122a8565b98975050505050505050565b600061150e8383614064565b610133546001600160801b039081169082168103612af0575050565b61013380547fffffffffffffffffffffffffffffffff00000000000000000000000000000000166001600160801b0384811691821792839055600160801b9092049091161115612ba157612b82611346612b736001600160a01b037f00000000000000000000000000000000000000000000000000000000000000001630612201565b846001600160801b0316613c70565b61013380546001600160801b03928316600160801b0292169190911790555b604080516001600160801b038084168252841660208201527fdbd15ecc744064a04fd47221c1e039aaebacbc20c59b7b833fe499efb1999cd39101611a54565b61012e5463ffffffff600160801b90910481169082168103612c01575050565b61012e80547fffffffffffffffffffffffff00000000ffffffffffffffffffffffffffffffff16600160801b63ffffffff8581169182029290921790925560408051918416825260208201929092527f0975e374c098c5a9a021fe12dff984574b06a6da66d816004d0a6e12e387c02b9101611a54565b6001600160a01b038116610b0f576040517fe6c4247b00000000000000000000000000000000000000000000000000000000815260040160405180910390fd5b80600003612cc557505050565b612cce83613b65565b15612ce657610b376001600160a01b0383168261408e565b610b376001600160a01b03841683836141a7565b600080612d088585856122a8565b90506000612d17868686613bc7565b1115612d49576000198110612d3f57604051631a93c68960e11b815260040160405180910390fd5b600101905061150e565b949350505050565b600054610100900460ff16612dbc5760405162461bcd60e51b815260206004820152602b60248201527f496e697469616c697a61626c653a20636f6e7472616374206973206e6f74206960448201526a6e697469616c697a696e6760a81b6064820152608401610bb6565b612dc4614250565b612dcc6142cd565b610b0f81614340565b6001600160a01b038216600090815261012f602052604090205460ff1681151581151503612e0257505050565b6001600160a01b038316600081815261012f6020908152604091829020805460ff191686151590811790915582518515158152918201527ffee4ac8750f51e1aaece4e95e80a8a961f8865ad4cc9938493b7d3d280cf18ff9101612787565b6000610a8f825490565b61012e5463ffffffff6801000000000000000090910481169082168103612e90575050565b61012e80547fffffffffffffffffffffffffffffffffffffffff00000000ffffffffffffffff166801000000000000000063ffffffff8581169182029290921790925560408051918416825260208201929092527f5f8c28c7dd7c58bccf13b50fb8815ac0278a1edd75b439e06ebfb0bb0a65dce19101611a54565b6001600160a01b038216600090815261013260205260409020546001600160801b039081169082168103612f3f57505050565b6001600160a01b0383166000818152610132602090815260409182902080547fffffffffffffffffffffffffffffffff00000000000000000000000000000000166001600160801b0387811691821790925583519186168252918101919091527f5a387f90e98064d45229fc077854834539bef69df2b1447346ce29f8761a158f9101612787565b61012e5463ffffffff6c0100000000000000000000000090910481169082168103612ff0575050565b61012e80547fffffffffffffffffffffffffffffffff00000000ffffffffffffffffffffffff166c0100000000000000000000000063ffffffff8581169182029290921790925560408051918416825260208201929092527f294a5aed6c155d82e90637e2643e9b498d502610ff21b79c0bd25fc8432113289101611a54565b60008061309d7f000000000000000000000000000000000000000000000000000000000000000085611870565b9050806001600160801b03166000036130e2576040517fd69b537900000000000000000000000000000000000000000000000000000000815260040160405180910390fd5b826001600160801b0316816001600160801b0316111561312e576040517f0699263d00000000000000000000000000000000000000000000000000000000815260040160405180910390fd5b6001600160a01b037f00000000000000000000000000000000000000000000000000000000000000001673eeeeeeeeeeeeeeeeeeeeeeeeeeeeeeeeeeeeeeee1415801561317b5750600034115b156131b2576040517f26697e9e00000000000000000000000000000000000000000000000000000000815260040160405180910390fd5b6001600160a01b037f00000000000000000000000000000000000000000000000000000000000000001673eeeeeeeeeeeeeeeeeeeeeeeeeeeeeeeeeeeeeeee1480156132065750806001600160801b031634105b1561323d576040517f9086bdc100000000000000000000000000000000000000000000000000000000815260040160405180910390fd5b61327b6001600160a01b037f00000000000000000000000000000000000000000000000000000000000000001633306001600160801b0385166144a8565b6132b86001600160a01b037f000000000000000000000000000000000000000000000000000000000000000016336001600160801b038716612cb8565b6132eb7f0000000000000000000000000000000000000000000000000000000000000000826001600160801b0316612383565b6001600160a01b037f00000000000000000000000000000000000000000000000000000000000000001673eeeeeeeeeeeeeeeeeeeeeeeeeeeeeeeeeeeeeeee14801561333f5750806001600160801b031634115b156133615761336161335a6001600160801b03831634615209565b339061408e565b6101338054859190601090613387908490600160801b90046001600160801b031661558e565b82546101009290920a6001600160801b038181021990931691831602179091557f00000000000000000000000000000000000000000000000000000000000000006001600160a01b03166000908152610132602052604090205461013354908216600160801b9091049091161015905061150e576134346113466125e96001600160a01b037f00000000000000000000000000000000000000000000000000000000000000001630612201565b61013380546001600160801b03928316600160801b029216919091179055600061347d7f00000000000000000000000000000000000000000000000000000000000000006113ac565b61012e548151919250640100000000900463ffffffff169082906134a290839061521c565b6001600160801b039081169091526001600160a01b037f0000000000000000000000000000000000000000000000000000000000000000166000908152610131602090815260408083208651838801518616600160801b908102919096161790556101309091529020805463ffffffff42811663ffffffff199092169190911790915561012e5461353893509190910416612fc7565b7f00000000000000000000000000000000000000000000000000000000000000006001600160a01b03167faa86acbf67bc5e97ce95471a279336f9fa5bd2ac8f64e81ac442a0972b0c633b826040516135919190614faf565b60405180910390a2509392505050565b6000806135ae8585611870565b9050806001600160801b03166000036135f3576040517fd69b537900000000000000000000000000000000000000000000000000000000815260040160405180910390fd5b826001600160801b0316816001600160801b0316111561363f576040517f0699263d00000000000000000000000000000000000000000000000000000000815260040160405180910390fd5b6001600160a01b037f00000000000000000000000000000000000000000000000000000000000000001673eeeeeeeeeeeeeeeeeeeeeeeeeeeeeeeeeeeeeeee1415801561368c5750600034115b156136c3576040517f26697e9e00000000000000000000000000000000000000000000000000000000815260040160405180910390fd5b6001600160a01b037f00000000000000000000000000000000000000000000000000000000000000001673eeeeeeeeeeeeeeeeeeeeeeeeeeeeeeeeeeeeeeee1480156137175750806001600160801b031634105b1561374e576040517f9086bdc100000000000000000000000000000000000000000000000000000000815260040160405180910390fd5b61378c6001600160a01b037f00000000000000000000000000000000000000000000000000000000000000001633306001600160801b0385166144a8565b6137a96001600160a01b038616336001600160801b0387166144d2565b7f00000000000000000000000000000000000000000000000000000000000000006001600160a01b031661380a5761380a7f0000000000000000000000000000000000000000000000000000000000000000826001600160801b0316612383565b6001600160a01b038516600090815261013260205260409020546001600160801b0316613836866123cb565b6001600160801b0316101561385057613850856000612699565b7f00000000000000000000000000000000000000000000000000000000000000006001600160a01b031615801590613923575061012e547f00000000000000000000000000000000000000000000000000000000000000006001600160a01b0316600090815261013260205260409020546138e69168010000000000000000900463ffffffff16906001600160801b031661534c565b6001600160801b03166139187f00000000000000000000000000000000000000000000000000000000000000006123cb565b6001600160801b0316105b15613932576139326000612506565b6001600160a01b037f00000000000000000000000000000000000000000000000000000000000000001673eeeeeeeeeeeeeeeeeeeeeeeeeeeeeeeeeeeeeeee1480156139865750806001600160801b031634115b15612d4957612d4961335a6001600160801b03831634615209565b60008281526065602090815260408083206001600160a01b038516845290915290205460ff16610ad8576139d481614523565b6139df836020614535565b6040516020016139f09291906155d2565b60408051601f198184030181529082905262461bcd60e51b8252610bb691600401615653565b60008281526065602090815260408083206001600160a01b038516845290915290205460ff16610ad85760008281526065602090815260408083206001600160a01b03851684529091529020805460ff19166001179055613a743390565b6001600160a01b0316816001600160a01b0316837f2f8788117e7eff1d82e926ec794901d17c78024a50270940304540a733656f0d60405160405180910390a45050565b600061150e836001600160a01b03841661475e565b60008281526065602090815260408083206001600160a01b038516845290915290205460ff1615610ad85760008281526065602090815260408083206001600160a01b0385168085529252808320805460ff1916905551339285917ff6391f5c32d9c69d2a47ea670b442974b53935d1edc7fd64eb21e047a839171b9190a45050565b600061150e836001600160a01b0384166147ad565b60006001600160a01b03821673eeeeeeeeeeeeeeeeeeeeeeeeeeeeeeeeeeeeeeee14610a8f565b6000806000613b9b85856148a0565b9050848402808210613bb4579081900392509050613bc0565b60018183030393509150505b9250929050565b60008180613bd757613bd7615313565b838509949350505050565b600080828410613bf85750839050818303613c0a565b613c03600186615209565b9150508183035b935093915050565b600080613c308380830381613c2957613c29615313565b0460010190565b9050828481613c4157613c41615313565b048186021795945050505050565b60006001815b60088110156113a55783820260020382029150600101613c55565b6000818310613c7f578161150e565b5090919050565b60408051808201909152600080825260208201526000613cbf6f58b90bfbe8e7bcd5e4f1d9cc01f97b57846000015185602001516122a8565b9050600080807008000000000000000000000000000000008410613cf657604051631a93c68960e11b815260040160405180910390fd5b6f10000000000000000000000000000000840692508291506001607f1b8280020491506710e1b3be415a00008202016001607f1b8383020491506705a0913f6b1e00008202016001607f1b838302049150670168244fdac780008202016001607f1b838302049150664807432bc180008202016001607f1b838302049150660c0135dca040008202016001607f1b8383020491506601b707b1cdc0008202016001607f1b8383020491506536e0f639b8008202016001607f1b838302049150650618fee9f8008202016001607f1b838302049150649c197dcc008202016001607f1b838302049150640e30dce4008202016001607f1b83830204915064012ebd13008202016001607f1b8383020491506317499f008202016001607f1b8383020491506301a9d4808202016001607f1b838302049150621c63808202016001607f1b8383020491506201c6388202016001607f1b838302049150611ab88202016001607f1b83830204915061017c8202016001607f1b83830204915060148202016001607f1b83830204915081016001607f1b836721c3677c82b400008304010190506f10000000000000000000000000000000841615613edb5770018ebef9eac820ae8682b9793ac6d1e7767001c3d6a24ed82218787d624d3e5eba95f982020490505b6f20000000000000000000000000000000841615613f1d577001368b2fc6f9609fe7aceb46aa619baed470018ebef9eac820ae8682b9793ac6d1e77882020490505b6f40000000000000000000000000000000841615613f5e576fbc5ab1b16779be3575bd8f0520a9f21f7001368b2fc6f9609fe7aceb46aa619baed582020490505b6001607f1b841615613f92576f454aaa8efe072e7f6ddbab84b40a55c96fbc5ab1b16779be3575bd8f0520a9f21e82020490505b600160801b841615613fc6576f0960aadc109e7a3bf4578099615711ea6f454aaa8efe072e7f6ddbab84b40a55c582020490505b700200000000000000000000000000000000841615614006576e2bf84208204f5977f9a8cf01fdce3d6f0960aadc109e7a3bf4578099615711d782020490505b700400000000000000000000000000000000841615614044576d03c6ab775dd0b95b4cbee7e65d116e2bf84208204f5977f9a8cf01fdc30782020490505b604080518082019091529081526001607f1b602082015295945050505050565b600082600001828154811061407b5761407b6151b1565b9060005260206000200154905092915050565b804710156140de5760405162461bcd60e51b815260206004820152601d60248201527f416464726573733a20696e73756666696369656e742062616c616e63650000006044820152606401610bb6565b6000826001600160a01b03168260405160006040518083038185875af1925050503d806000811461412b576040519150601f19603f3d011682016040523d82523d6000602084013e614130565b606091505b5050905080610b375760405162461bcd60e51b815260206004820152603a60248201527f416464726573733a20756e61626c6520746f2073656e642076616c75652c207260448201527f6563697069656e74206d617920686176652072657665727465640000000000006064820152608401610bb6565b6040516001600160a01b038316602482015260448101829052610b379084907fa9059cbb00000000000000000000000000000000000000000000000000000000906064015b60408051601f198184030181529190526020810180517bffffffffffffffffffffffffffffffffffffffffffffffffffffffff167fffffffff00000000000000000000000000000000000000000000000000000000909316929092179091526148af565b600054610100900460ff166142bb5760405162461bcd60e51b815260206004820152602b60248201527f496e697469616c697a61626c653a20636f6e7472616374206973206e6f74206960448201526a6e697469616c697a696e6760a81b6064820152608401610bb6565b6142c3614997565b6142cb614a02565b565b600054610100900460ff166143385760405162461bcd60e51b815260206004820152602b60248201527f496e697469616c697a61626c653a20636f6e7472616374206973206e6f74206960448201526a6e697469616c697a696e6760a81b6064820152608401610bb6565b6142cb614acf565b600054610100900460ff166143ab5760405162461bcd60e51b815260206004820152602b60248201527f496e697469616c697a61626c653a20636f6e7472616374206973206e6f74206960448201526a6e697469616c697a696e6760a81b6064820152608401610bb6565b6143b66103e861284f565b6143c06002611fc5565b6143ca6004612e6b565b6143d561a8c0611e5a565b6143e061a8c0612fc7565b6143ec620d2f00612be1565b61443c6144217f00000000000000000000000000000000000000000000000000000000000000006001600160a01b0316614b3a565b61442c90600a615686565b61443790606461521c565b612ad4565b610b067f00000000000000000000000000000000000000000000000000000000000000006144927f00000000000000000000000000000000000000000000000000000000000000006001600160a01b0316614b3a565b61449d90600a615686565b61274990600a61521c565b8015806144b957506144b984613b65565b6121fb576121fb6001600160a01b038516848484614bb4565b806000036144df57505050565b6144e883613b65565b15612ce6576040516001600160a01b0383169082156108fc029083906000818181858888f193505050501580156121fb573d6000803e3d6000fd5b6060610a8f6001600160a01b03831660145b60606000614544836002615577565b61454f9060026151f6565b67ffffffffffffffff8111156145675761456761519b565b6040519080825280601f01601f191660200182016040528015614591576020820181803683370190505b5090507f3000000000000000000000000000000000000000000000000000000000000000816000815181106145c8576145c86151b1565b60200101907effffffffffffffffffffffffffffffffffffffffffffffffffffffffffffff1916908160001a9053507f78000000000000000000000000000000000000000000000000000000000000008160018151811061462b5761462b6151b1565b60200101907effffffffffffffffffffffffffffffffffffffffffffffffffffffffffffff1916908160001a9053506000614667846002615577565b6146729060016151f6565b90505b600181111561470f577f303132333435363738396162636465660000000000000000000000000000000085600f16601081106146b3576146b36151b1565b1a60f81b8282815181106146c9576146c96151b1565b60200101907effffffffffffffffffffffffffffffffffffffffffffffffffffffffffffff1916908160001a90535060049490941c936147088161569e565b9050614675565b50831561150e5760405162461bcd60e51b815260206004820181905260248201527f537472696e67733a20686578206c656e67746820696e73756666696369656e746044820152606401610bb6565b60008181526001830160205260408120546147a557508154600181810184556000848152602080822090930184905584548482528286019093526040902091909155610a8f565b506000610a8f565b600081815260018301602052604081205480156148965760006147d1600183615209565b85549091506000906147e590600190615209565b905081811461484a576000866000018281548110614805576148056151b1565b9060005260206000200154905080876000018481548110614828576148286151b1565b6000918252602080832090910192909255918252600188019052604090208390555b855486908061485b5761485b6156b5565b600190038181906000526020600020016000905590558560010160008681526020019081526020016000206000905560019350505050610a8f565b6000915050610a8f565b60006000198284099392505050565b6000614904826040518060400160405280602081526020017f5361666545524332303a206c6f772d6c6576656c2063616c6c206661696c6564815250856001600160a01b0316614c059092919063ffffffff16565b905080516000148061492557508080602001905181019061492591906156cb565b610b375760405162461bcd60e51b815260206004820152602a60248201527f5361666545524332303a204552433230206f7065726174696f6e20646964206e60448201527f6f742073756363656564000000000000000000000000000000000000000000006064820152608401610bb6565b600054610100900460ff166142cb5760405162461bcd60e51b815260206004820152602b60248201527f496e697469616c697a61626c653a20636f6e7472616374206973206e6f74206960448201526a6e697469616c697a696e6760a81b6064820152608401610bb6565b600054610100900460ff16614a6d5760405162461bcd60e51b815260206004820152602b60248201527f496e697469616c697a61626c653a20636f6e7472616374206973206e6f74206960448201526a6e697469616c697a696e6760a81b6064820152608401610bb6565b60c9805461ffff19166004179055614aa57f2172861495e7b85edac73e3cd5fbb42dd675baadf627720e687bcfdaca02509680614c14565b6142cb7f2172861495e7b85edac73e3cd5fbb42dd675baadf627720e687bcfdaca02509633614c5f565b600054610100900460ff166128055760405162461bcd60e51b815260206004820152602b60248201527f496e697469616c697a61626c653a20636f6e7472616374206973206e6f74206960448201526a6e697469616c697a696e6760a81b6064820152608401610bb6565b6000614b4582613b65565b15614b5257506012919050565b816001600160a01b031663313ce5676040518163ffffffff1660e01b8152600401602060405180830381865afa158015614b90573d6000803e3d6000fd5b505050506040513d601f19601f82011682018060405250810190610a8f91906156e8565b6040516001600160a01b03808516602483015283166044820152606481018290526121fb9085907f23b872dd00000000000000000000000000000000000000000000000000000000906084016141ec565b6060612d498484600085614c69565b600082815260656020526040808220600101805490849055905190918391839186917fbd79b86ffe0ab8e8776151514217cd7cacd52c909f66475c3af44e129f0b00ff9190a4505050565b610ad88282611f81565b606082471015614ce15760405162461bcd60e51b815260206004820152602660248201527f416464726573733a20696e73756666696369656e742062616c616e636520666f60448201527f722063616c6c00000000000000000000000000000000000000000000000000006064820152608401610bb6565b600080866001600160a01b03168587604051614cfd919061570b565b60006040518083038185875af1925050503d8060008114614d3a576040519150601f19603f3d011682016040523d82523d6000602084013e614d3f565b606091505b5091509150614d5087838387614d5b565b979650505050505050565b60608315614dca578251600003614dc3576001600160a01b0385163b614dc35760405162461bcd60e51b815260206004820152601d60248201527f416464726573733a2063616c6c20746f206e6f6e2d636f6e74726163740000006044820152606401610bb6565b5081612d49565b612d498383815115614ddf5781518083602001fd5b8060405162461bcd60e51b8152600401610bb69190615653565b600060208284031215614e0b57600080fd5b81357fffffffff000000000000000000000000000000000000000000000000000000008116811461150e57600080fd5b600060208284031215614e4d57600080fd5b813563ffffffff8116811461150e57600080fd5b6001600160a01b0381168114610b0f57600080fd5b600060208284031215614e8857600080fd5b813561150e81614e61565b600060208284031215614ea557600080fd5b5035919050565b60008060408385031215614ebf57600080fd5b823591506020830135614ed181614e61565b809150509250929050565b60008083601f840112614eee57600080fd5b50813567ffffffffffffffff811115614f0657600080fd5b6020830191508360208260051b8501011115613bc057600080fd5b60008060208385031215614f3457600080fd5b823567ffffffffffffffff811115614f4b57600080fd5b614f5785828601614edc565b90969095509350505050565b80356001600160801b038116811461243757600080fd5b60008060408385031215614f8d57600080fd5b8235614f9881614e61565b9150614fa660208401614f63565b90509250929050565b60408101610a8f828480516001600160801b03908116835260209182015116910152565b60008060408385031215614fe657600080fd5b50508035926020909101359150565b60006020828403121561500757600080fd5b61150e82614f63565b60008060008060006060868803121561502857600080fd5b853567ffffffffffffffff8082111561504057600080fd5b61504c89838a01614edc565b90975095506020880135915061506182614e61565b9093506040870135908082111561507757600080fd5b5061508488828901614edc565b969995985093965092949392505050565b8015158114610b0f57600080fd5b600080604083850312156150b657600080fd5b82356150c181614e61565b91506020830135614ed181615095565b6000806000604084860312156150e657600080fd5b83356150f181615095565b9250602084013567ffffffffffffffff8082111561510e57600080fd5b818601915086601f83011261512257600080fd5b81358181111561513157600080fd5b87602082850101111561514357600080fd5b6020830194508093505050509250925092565b60008060006060848603121561516b57600080fd5b833561517681614e61565b925061518460208501614f63565b915061519260408501614f63565b90509250925092565b634e487b7160e01b600052604160045260246000fd5b634e487b7160e01b600052603260045260246000fd5b6000602082840312156151d957600080fd5b5051919050565b634e487b7160e01b600052601160045260246000fd5b80820180821115610a8f57610a8f6151e0565b81810381811115610a8f57610a8f6151e0565b6001600160801b0381811683821602808216919082811461523f5761523f6151e0565b505092915050565b63ffffffff8281168282160390808211156113a5576113a56151e0565b60008184825b8581101561529b57813561527d81614e61565b6001600160a01b03168352602092830192919091019060010161526a565b509095945050505050565b6020815281602082015260007f07ffffffffffffffffffffffffffffffffffffffffffffffffffffffffffffff8311156152df57600080fd5b8260051b80856040850137919091016040019392505050565b61ffff8181168382160190808211156113a5576113a56151e0565b634e487b7160e01b600052601260045260246000fd5b600063ffffffff8084168061534057615340615313565b92169190910492915050565b60006001600160801b038084168061534057615340615313565b600063ffffffff8084168061537d5761537d615313565b92169190910692915050565b600181815b808511156153c45781600019048211156153aa576153aa6151e0565b808516156153b757918102915b93841c939080029061538e565b509250929050565b600181815b808511156153c457816001600160801b03048211156153f2576153f26151e0565b808516156153ff57918102915b93841c93908002906153d1565b60008261541b57506001610a8f565b8161542857506000610a8f565b816001811461543e576002811461544857615464565b6001915050610a8f565b60ff841115615459576154596151e0565b50506001821b610a8f565b5060208310610133831016604e8410600b8410161715615487575081810a610a8f565b6154918383615389565b80600019048211156154a5576154a56151e0565b029392505050565b6000826154bc57506001610a8f565b816154c957506000610a8f565b816001811461543e576002810361550e5760ff8411156154eb576154eb6151e0565b6001841b91506001600160801b03821115615508576155086151e0565b50610a8f565b5060208310610133831016604e8410600b8410161715615548575081810a6001600160801b03811115615543576155436151e0565b610a8f565b61555283836153cc565b806001600160801b03048211156154a5576154a56151e0565b600061150e838361540c565b8082028115828204841417610a8f57610a8f6151e0565b6001600160801b038281168282160390808211156113a5576113a56151e0565b60005b838110156155c95781810151838201526020016155b1565b50506000910152565b7f416363657373436f6e74726f6c3a206163636f756e742000000000000000000081526000835161560a8160178501602088016155ae565b7f206973206d697373696e6720726f6c652000000000000000000000000000000060179184019182015283516156478160288401602088016155ae565b01602801949350505050565b60208152600082518060208401526156728160408501602087016155ae565b601f01601f19169190910160400192915050565b600061150e60ff84166001600160801b0384166154ad565b6000816156ad576156ad6151e0565b506000190190565b634e487b7160e01b600052603160045260246000fd5b6000602082840312156156dd57600080fd5b815161150e81615095565b6000602082840312156156fa57600080fd5b815160ff8116811461150e57600080fd5b6000825161571d8184602087016155ae565b919091019291505056fea164736f6c6343000813000a",
  "devdoc": {
    "details": "collects fees and allows users to trade tokens in a dutch auction style configurable parameters include the target token, final target token and the halflife auctions are initiated by calling the execute function all auctions start with an initial price of 2^128 - 1 half-life parameter sets the price decay rate - - this is the time in seconds it takes for the price to halve - this parameter can be configured so that tokens reach the market rate faster or slower target token is the token to which all other tokens are traded to (can be native token for example) final target token is an additional token to which the target token is traded to (optional) transferAddress is the address to which all target / final target tokens are sent to",
    "events": {
      "Initialized(uint8)": {
        "details": "Triggered when the contract has been initialized or reinitialized."
      },
      "RoleAdminChanged(bytes32,bytes32,bytes32)": {
        "details": "Emitted when `newAdminRole` is set as ``role``'s admin role, replacing `previousAdminRole` `DEFAULT_ADMIN_ROLE` is the starting admin for all roles, despite {RoleAdminChanged} not being emitted signaling this. _Available since v3.1._"
      },
      "RoleGranted(bytes32,address,address)": {
        "details": "Emitted when `account` is granted `role`. `sender` is the account that originated the contract call, an admin role bearer except when using {AccessControl-_setupRole}."
      },
      "RoleRevoked(bytes32,address,address)": {
        "details": "Emitted when `account` is revoked `role`. `sender` is the account that originated the contract call:   - if using `revokeRole`, it is the admin role bearer   - if using `renounceRole`, it is the role bearer (i.e. `account`)"
      }
    },
    "kind": "dev",
    "methods": {
      "constructor": {
        "details": "used to set immutable state variables"
      },
      "getRoleAdmin(bytes32)": {
        "details": "Returns the admin role that controls `role`. See {grantRole} and {revokeRole}. To change a role's admin, use {_setRoleAdmin}."
      },
      "getRoleMember(bytes32,uint256)": {
        "details": "Returns one of the accounts that have `role`. `index` must be a value between 0 and {getRoleMemberCount}, non-inclusive. Role bearers are not sorted in any particular way, and their ordering may change at any point. WARNING: When using {getRoleMember} and {getRoleMemberCount}, make sure you perform all queries on the same block. See the following https://forum.openzeppelin.com/t/iterating-over-elements-on-enumerableset-in-openzeppelin-contracts/2296[forum post] for more information."
      },
      "getRoleMemberCount(bytes32)": {
        "details": "Returns the number of accounts that have `role`. Can be used together with {getRoleMember} to enumerate all bearers of a role."
      },
      "grantRole(bytes32,address)": {
        "details": "Grants `role` to `account`. If `account` had not been already granted `role`, emits a {RoleGranted} event. Requirements: - the caller must have ``role``'s admin role. May emit a {RoleGranted} event."
      },
      "hasRole(bytes32,address)": {
        "details": "Returns `true` if `account` has been granted `role`."
      },
      "initialize(address)": {
        "details": "fully initializes the contract and its parents"
      },
      "postUpgrade(bool,bytes)": {
        "details": "performs post-upgrade initialization requirements: - this must and can be called only once per-upgrade"
      },
      "renounceRole(bytes32,address)": {
        "details": "Revokes `role` from the calling account. Roles are often managed via {grantRole} and {revokeRole}: this function's purpose is to provide a mechanism for accounts to lose their privileges if they are compromised (such as when a trusted device is misplaced). If the calling account had been revoked `role`, emits a {RoleRevoked} event. Requirements: - the caller must be `account`. May emit a {RoleRevoked} event."
      },
      "revokeRole(bytes32,address)": {
        "details": "Revokes `role` from `account`. If `account` had been granted `role`, emits a {RoleRevoked} event. Requirements: - the caller must have ``role``'s admin role. May emit a {RoleRevoked} event."
      },
      "roleAdmin()": {
        "details": "returns the admin role"
      },
      "supportsInterface(bytes4)": {
        "details": "See {IERC165-supportsInterface}."
      },
      "withdrawFunds(address[],address,uint256[])": {
        "details": "withdraws funds held by the contract and sends them to an account requirements: - the caller must be the admin of the contract"
      }
    },
    "version": 1
  },
  "userdoc": {
    "events": {
      "FundsWithdrawn(address[],address,address,uint256[])": {
        "notice": "triggered when tokens have been withdrawn by the admin"
      },
      "MaxTargetTokenSaleAmountUpdated(uint128,uint128)": {
        "notice": "triggered when the target token sale amount is updated"
      },
      "MinTokenSaleAmountMultiplierUpdated(uint32,uint32)": {
        "notice": "Triggered when the minimum token sale amount multiplier is updated"
      },
      "MinTokenSaleAmountUpdated(address,uint128,uint128)": {
        "notice": "triggered when the min token sale amount is updated"
      },
      "PairDisabledStatusUpdated(address,bool,bool)": {
        "notice": "triggered when pair status is updated"
      },
      "PriceDecayHalfLifeUpdated(uint32,uint32)": {
        "notice": "triggered when the price decay halflife is updated (for all tokens except the target token)"
      },
      "PriceResetMultiplierUpdated(uint32,uint32)": {
        "notice": "triggered when the price reset multiplier is updated"
      },
      "PriceUpdated(address,(uint128,uint128))": {
        "notice": "triggered after the price updates for a token"
      },
      "RewardsUpdated(uint32,uint32)": {
        "notice": "triggered when the rewards ppm are updated"
      },
      "TargetTokenPriceDecayHalfLifeOnResetUpdated(uint32,uint32)": {
        "notice": "triggered when the price decay halflife on price reset is updated (for the target token only)"
      },
      "TargetTokenPriceDecayHalfLifeUpdated(uint32,uint32)": {
        "notice": "triggered when the price decay halflife is updated (for the target token only)"
      },
      "TokenTraded(address,address,uint128,uint128)": {
        "notice": "triggered after a successful trade is executed"
      },
      "TradingReset(address,(uint128,uint128))": {
        "notice": "triggered when trading is reset for a token (dutch auction has been restarted)"
      },
      "TransferAddressUpdated(address,address)": {
        "notice": "triggered when the transfer address is updated"
      }
    },
    "kind": "user",
    "methods": {
      "amountAvailableForTrading(address)": {
        "notice": "returns the amount available for trading for the token"
      },
      "availableTokens(address)": {
        "notice": "returns the total available fees for the given token"
      },
      "disablePair(address,bool)": {
        "notice": "sets if trading is enabled or disabled for a token requirements: - the caller must be the admin of the contract"
      },
      "execute(address[])": {
        "notice": "withdraws the fees of the provided token from Carbon andenables trading for the token if not already enabled"
      },
      "expectedTradeInput(address,uint128)": {
        "notice": "returns the source amount required given a target amount"
      },
      "expectedTradeReturn(address,uint128)": {
        "notice": "returns the target amount expected given a source amount"
      },
      "finalTargetToken()": {
        "notice": "returns the final target token"
      },
      "minTargetTokenSaleAmount()": {
        "notice": "returns the min target token sale amount"
      },
      "minTokenSaleAmount(address)": {
        "notice": "returns the min token sale amount"
      },
      "minTokenSaleAmountMultiplier()": {
        "notice": "returns the min token sale amount multiplier"
      },
      "pairDisabled(address)": {
        "notice": "returns true if pair is disabled (admin-controllable)"
      },
      "priceDecayHalfLife()": {
        "notice": "returns the price decay half-life for all tokens except the target tokenaccording to the exp decay formula"
      },
      "priceResetMultiplier()": {
        "notice": "returns the price reset multiplier"
      },
      "rewardsPPM()": {
        "notice": "returns the rewards ppm"
      },
      "setMaxTargetTokenSaleAmount(uint128)": {
        "notice": "sets the max (or initial) target token sale amount requirements: - the caller must be the admin of the contract"
      },
      "setMinTargetTokenSaleAmount(uint128)": {
        "notice": "sets the min target token sale amount requirements: - the caller must be the admin of the contract"
      },
      "setMinTokenSaleAmountMultiplier(uint32)": {
        "notice": "sets the minimum token sale amount multiplier Requirements: - The caller must be the admin of the contract."
      },
      "setPriceDecayHalfLife(uint32)": {
        "notice": "sets the price decay half-life for all tokens except target requirements: - the caller must be the admin of the contract"
      },
      "setPriceResetMultiplier(uint32)": {
        "notice": "sets the price reset multiplier requirements: - the caller must be the admin of the contract"
      },
      "setRewardsPPM(uint32)": {
        "notice": "sets the rewards ppm requirements: - the caller must be the admin of the contract"
      },
      "setTargetTokenPriceDecayHalfLife(uint32)": {
        "notice": "sets the price decay half-life for the target token requirements: - the caller must be the admin of the contract"
      },
      "setTargetTokenPriceDecayHalfLifeOnReset(uint32)": {
        "notice": "sets the price decay half-life for the target token on reset Requirements: - The caller must be the admin of the contract."
      },
      "setTransferAddress(address)": {
        "notice": "sets the transfer address requirements: - the caller must be the current admin of the contract"
      },
      "targetToken()": {
        "notice": "returns the target token"
      },
      "targetTokenPriceDecayHalfLife()": {
        "notice": "returns the price decay half-life for the target token according to the exp decay formula"
      },
      "targetTokenPriceDecayHalfLifeOnReset()": {
        "notice": "returns the price decay half-life for the target token on reset (slow) according to the exp decay formula"
      },
      "targetTokenSaleAmount()": {
        "notice": "returns the initial and current target token sale amount"
      },
      "tokenPrice(address)": {
        "notice": "returns the current token price (targetToken / TKN)if token == targetToken, returns finalTargetToken / targetToken price"
      },
      "totalCollected()": {
        "notice": "returns the total target (if no final target token has been defined) or final target tokens collected "
      },
      "trade(address,uint128,uint128)": {
        "notice": "trades *targetToken* for *targetAmount* of *token* based on the current token price (trade by target amount)if token == *targetToken*, trades *finalTargetToken* for amount of *targetToken* and alsoresets the current token sale amount if it's below the min amount after a tradereverts if source amount required is greater than maxInput"
      },
      "tradingEnabled(address)": {
        "notice": "returns true if trading is enabled for token (dutch auction started)"
      },
      "transferAddress()": {
        "notice": "returns the transfer address"
      }
    },
    "notice": "CarbonVortex contract",
    "version": 1
  },
  "storageLayout": {
    "storage": [
      {
        "astId": 588,
        "contract": "contracts/vortex/CarbonVortex.sol:CarbonVortex",
        "label": "_initialized",
        "offset": 0,
        "slot": "0",
        "type": "t_uint8"
      },
      {
        "astId": 591,
        "contract": "contracts/vortex/CarbonVortex.sol:CarbonVortex",
        "label": "_initializing",
        "offset": 1,
        "slot": "0",
        "type": "t_bool"
      },
      {
        "astId": 2318,
        "contract": "contracts/vortex/CarbonVortex.sol:CarbonVortex",
        "label": "__gap",
        "offset": 0,
        "slot": "1",
        "type": "t_array(t_uint256)50_storage"
      },
      {
        "astId": 2591,
        "contract": "contracts/vortex/CarbonVortex.sol:CarbonVortex",
        "label": "__gap",
        "offset": 0,
        "slot": "51",
        "type": "t_array(t_uint256)50_storage"
      },
      {
        "astId": 184,
        "contract": "contracts/vortex/CarbonVortex.sol:CarbonVortex",
        "label": "_roles",
        "offset": 0,
        "slot": "101",
        "type": "t_mapping(t_bytes32,t_struct(RoleData)179_storage)"
      },
      {
        "astId": 479,
        "contract": "contracts/vortex/CarbonVortex.sol:CarbonVortex",
        "label": "__gap",
        "offset": 0,
        "slot": "102",
        "type": "t_array(t_uint256)49_storage"
      },
      {
        "astId": 33,
        "contract": "contracts/vortex/CarbonVortex.sol:CarbonVortex",
        "label": "_roleMembers",
        "offset": 0,
        "slot": "151",
        "type": "t_mapping(t_bytes32,t_struct(AddressSet)3901_storage)"
      },
      {
        "astId": 143,
        "contract": "contracts/vortex/CarbonVortex.sol:CarbonVortex",
        "label": "__gap",
        "offset": 0,
        "slot": "152",
        "type": "t_array(t_uint256)49_storage"
      },
      {
        "astId": 21271,
        "contract": "contracts/vortex/CarbonVortex.sol:CarbonVortex",
        "label": "_initializations",
        "offset": 0,
        "slot": "201",
        "type": "t_uint16"
      },
      {
        "astId": 21277,
        "contract": "contracts/vortex/CarbonVortex.sol:CarbonVortex",
        "label": "__gap",
        "offset": 0,
        "slot": "202",
        "type": "t_array(t_uint256)49_storage"
      },
      {
        "astId": 764,
        "contract": "contracts/vortex/CarbonVortex.sol:CarbonVortex",
        "label": "_status",
        "offset": 0,
        "slot": "251",
        "type": "t_uint256"
      },
      {
        "astId": 833,
        "contract": "contracts/vortex/CarbonVortex.sol:CarbonVortex",
        "label": "__gap",
        "offset": 0,
        "slot": "252",
        "type": "t_array(t_uint256)49_storage"
      },
      {
        "astId": 21773,
        "contract": "contracts/vortex/CarbonVortex.sol:CarbonVortex",
        "label": "_totalCollected",
        "offset": 0,
        "slot": "301",
        "type": "t_uint256"
      },
      {
        "astId": 21775,
        "contract": "contracts/vortex/CarbonVortex.sol:CarbonVortex",
        "label": "_rewardsPPM",
        "offset": 0,
        "slot": "302",
        "type": "t_uint32"
      },
      {
        "astId": 21777,
        "contract": "contracts/vortex/CarbonVortex.sol:CarbonVortex",
        "label": "_priceResetMultiplier",
        "offset": 4,
        "slot": "302",
        "type": "t_uint32"
      },
      {
        "astId": 21779,
        "contract": "contracts/vortex/CarbonVortex.sol:CarbonVortex",
        "label": "_minTokenSaleAmountMultiplier",
        "offset": 8,
        "slot": "302",
        "type": "t_uint32"
      },
      {
        "astId": 21781,
        "contract": "contracts/vortex/CarbonVortex.sol:CarbonVortex",
        "label": "_targetTokenPriceDecayHalfLife",
        "offset": 12,
        "slot": "302",
        "type": "t_uint32"
      },
      {
        "astId": 21783,
        "contract": "contracts/vortex/CarbonVortex.sol:CarbonVortex",
        "label": "_targetTokenPriceDecayHalfLifeOnReset",
        "offset": 16,
        "slot": "302",
        "type": "t_uint32"
      },
      {
        "astId": 21785,
        "contract": "contracts/vortex/CarbonVortex.sol:CarbonVortex",
        "label": "_priceDecayHalfLife",
        "offset": 20,
        "slot": "302",
        "type": "t_uint32"
      },
      {
        "astId": 21790,
        "contract": "contracts/vortex/CarbonVortex.sol:CarbonVortex",
        "label": "_disabledPairs",
        "offset": 0,
        "slot": "303",
        "type": "t_mapping(t_userDefinedValueType(Token)19783,t_bool)"
      },
      {
        "astId": 21795,
        "contract": "contracts/vortex/CarbonVortex.sol:CarbonVortex",
        "label": "_tradingStartTimes",
        "offset": 0,
        "slot": "304",
        "type": "t_mapping(t_userDefinedValueType(Token)19783,t_uint32)"
      },
      {
        "astId": 21801,
        "contract": "contracts/vortex/CarbonVortex.sol:CarbonVortex",
        "label": "_initialPrice",
        "offset": 0,
        "slot": "305",
        "type": "t_mapping(t_userDefinedValueType(Token)19783,t_struct(Price)24118_storage)"
      },
      {
        "astId": 21806,
        "contract": "contracts/vortex/CarbonVortex.sol:CarbonVortex",
        "label": "_minTokenSaleAmounts",
        "offset": 0,
        "slot": "306",
        "type": "t_mapping(t_userDefinedValueType(Token)19783,t_uint128)"
      },
      {
        "astId": 21809,
        "contract": "contracts/vortex/CarbonVortex.sol:CarbonVortex",
        "label": "_targetTokenSaleAmount",
        "offset": 0,
        "slot": "307",
        "type": "t_struct(SaleAmount)24123_storage"
      },
      {
        "astId": 21811,
        "contract": "contracts/vortex/CarbonVortex.sol:CarbonVortex",
        "label": "_transferAddress",
        "offset": 0,
        "slot": "308",
        "type": "t_address_payable"
      },
      {
        "astId": 21817,
        "contract": "contracts/vortex/CarbonVortex.sol:CarbonVortex",
        "label": "__gap",
        "offset": 0,
        "slot": "309",
        "type": "t_array(t_uint256)42_storage"
      }
    ],
    "types": {
      "t_address": {
        "encoding": "inplace",
        "label": "address",
        "numberOfBytes": "20"
      },
      "t_address_payable": {
        "encoding": "inplace",
        "label": "address payable",
        "numberOfBytes": "20"
      },
      "t_array(t_bytes32)dyn_storage": {
        "base": "t_bytes32",
        "encoding": "dynamic_array",
        "label": "bytes32[]",
        "numberOfBytes": "32"
      },
      "t_array(t_uint256)42_storage": {
        "base": "t_uint256",
        "encoding": "inplace",
        "label": "uint256[42]",
        "numberOfBytes": "1344"
      },
      "t_array(t_uint256)49_storage": {
        "base": "t_uint256",
        "encoding": "inplace",
        "label": "uint256[49]",
        "numberOfBytes": "1568"
      },
      "t_array(t_uint256)50_storage": {
        "base": "t_uint256",
        "encoding": "inplace",
        "label": "uint256[50]",
        "numberOfBytes": "1600"
      },
      "t_bool": {
        "encoding": "inplace",
        "label": "bool",
        "numberOfBytes": "1"
      },
      "t_bytes32": {
        "encoding": "inplace",
        "label": "bytes32",
        "numberOfBytes": "32"
      },
      "t_mapping(t_address,t_bool)": {
        "encoding": "mapping",
        "key": "t_address",
        "label": "mapping(address => bool)",
        "numberOfBytes": "32",
        "value": "t_bool"
      },
      "t_mapping(t_bytes32,t_struct(AddressSet)3901_storage)": {
        "encoding": "mapping",
        "key": "t_bytes32",
        "label": "mapping(bytes32 => struct EnumerableSetUpgradeable.AddressSet)",
        "numberOfBytes": "32",
        "value": "t_struct(AddressSet)3901_storage"
      },
      "t_mapping(t_bytes32,t_struct(RoleData)179_storage)": {
        "encoding": "mapping",
        "key": "t_bytes32",
        "label": "mapping(bytes32 => struct AccessControlUpgradeable.RoleData)",
        "numberOfBytes": "32",
        "value": "t_struct(RoleData)179_storage"
      },
      "t_mapping(t_bytes32,t_uint256)": {
        "encoding": "mapping",
        "key": "t_bytes32",
        "label": "mapping(bytes32 => uint256)",
        "numberOfBytes": "32",
        "value": "t_uint256"
      },
      "t_mapping(t_userDefinedValueType(Token)19783,t_bool)": {
        "encoding": "mapping",
        "key": "t_userDefinedValueType(Token)19783",
        "label": "mapping(Token => bool)",
        "numberOfBytes": "32",
        "value": "t_bool"
      },
      "t_mapping(t_userDefinedValueType(Token)19783,t_struct(Price)24118_storage)": {
        "encoding": "mapping",
        "key": "t_userDefinedValueType(Token)19783",
        "label": "mapping(Token => struct ICarbonVortex.Price)",
        "numberOfBytes": "32",
        "value": "t_struct(Price)24118_storage"
      },
      "t_mapping(t_userDefinedValueType(Token)19783,t_uint128)": {
        "encoding": "mapping",
        "key": "t_userDefinedValueType(Token)19783",
        "label": "mapping(Token => uint128)",
        "numberOfBytes": "32",
        "value": "t_uint128"
      },
      "t_mapping(t_userDefinedValueType(Token)19783,t_uint32)": {
        "encoding": "mapping",
        "key": "t_userDefinedValueType(Token)19783",
        "label": "mapping(Token => uint32)",
        "numberOfBytes": "32",
        "value": "t_uint32"
      },
      "t_struct(AddressSet)3901_storage": {
        "encoding": "inplace",
        "label": "struct EnumerableSetUpgradeable.AddressSet",
        "members": [
          {
            "astId": 3900,
            "contract": "contracts/vortex/CarbonVortex.sol:CarbonVortex",
            "label": "_inner",
            "offset": 0,
            "slot": "0",
            "type": "t_struct(Set)3586_storage"
          }
        ],
        "numberOfBytes": "64"
      },
      "t_struct(Price)24118_storage": {
        "encoding": "inplace",
        "label": "struct ICarbonVortex.Price",
        "members": [
          {
            "astId": 24115,
            "contract": "contracts/vortex/CarbonVortex.sol:CarbonVortex",
            "label": "sourceAmount",
            "offset": 0,
            "slot": "0",
            "type": "t_uint128"
          },
          {
            "astId": 24117,
            "contract": "contracts/vortex/CarbonVortex.sol:CarbonVortex",
            "label": "targetAmount",
            "offset": 16,
            "slot": "0",
            "type": "t_uint128"
          }
        ],
        "numberOfBytes": "32"
      },
      "t_struct(RoleData)179_storage": {
        "encoding": "inplace",
        "label": "struct AccessControlUpgradeable.RoleData",
        "members": [
          {
            "astId": 176,
            "contract": "contracts/vortex/CarbonVortex.sol:CarbonVortex",
            "label": "members",
            "offset": 0,
            "slot": "0",
            "type": "t_mapping(t_address,t_bool)"
          },
          {
            "astId": 178,
            "contract": "contracts/vortex/CarbonVortex.sol:CarbonVortex",
            "label": "adminRole",
            "offset": 0,
            "slot": "1",
            "type": "t_bytes32"
          }
        ],
        "numberOfBytes": "64"
      },
      "t_struct(SaleAmount)24123_storage": {
        "encoding": "inplace",
        "label": "struct ICarbonVortex.SaleAmount",
        "members": [
          {
            "astId": 24120,
            "contract": "contracts/vortex/CarbonVortex.sol:CarbonVortex",
            "label": "initial",
            "offset": 0,
            "slot": "0",
            "type": "t_uint128"
          },
          {
            "astId": 24122,
            "contract": "contracts/vortex/CarbonVortex.sol:CarbonVortex",
            "label": "current",
            "offset": 16,
            "slot": "0",
            "type": "t_uint128"
          }
        ],
        "numberOfBytes": "32"
      },
      "t_struct(Set)3586_storage": {
        "encoding": "inplace",
        "label": "struct EnumerableSetUpgradeable.Set",
        "members": [
          {
            "astId": 3581,
            "contract": "contracts/vortex/CarbonVortex.sol:CarbonVortex",
            "label": "_values",
            "offset": 0,
            "slot": "0",
            "type": "t_array(t_bytes32)dyn_storage"
          },
          {
            "astId": 3585,
            "contract": "contracts/vortex/CarbonVortex.sol:CarbonVortex",
            "label": "_indexes",
            "offset": 0,
            "slot": "1",
            "type": "t_mapping(t_bytes32,t_uint256)"
          }
        ],
        "numberOfBytes": "64"
      },
      "t_uint128": {
        "encoding": "inplace",
        "label": "uint128",
        "numberOfBytes": "16"
      },
      "t_uint16": {
        "encoding": "inplace",
        "label": "uint16",
        "numberOfBytes": "2"
      },
      "t_uint256": {
        "encoding": "inplace",
        "label": "uint256",
        "numberOfBytes": "32"
      },
      "t_uint32": {
        "encoding": "inplace",
        "label": "uint32",
        "numberOfBytes": "4"
      },
      "t_uint8": {
        "encoding": "inplace",
        "label": "uint8",
        "numberOfBytes": "1"
      },
      "t_userDefinedValueType(Token)19783": {
        "encoding": "inplace",
        "label": "Token",
        "numberOfBytes": "20"
      }
    }
  }
}