{
  "abi": [
    {
      "inputs": [
        {
          "internalType": "address",
          "name": "delegator",
          "type": "address"
        }
      ],
      "stateMutability": "nonpayable",
      "type": "constructor"
    },
    {
      "inputs": [],
      "name": "UnknownDelegator",
      "type": "error"
    },
    {
      "inputs": [],
      "name": "testOnlyProxyDelegate",
      "outputs": [
        {
          "internalType": "bool",
          "name": "",
          "type": "bool"
        }
      ],
      "stateMutability": "view",
      "type": "function"
    }
  ],
  "bytecode": {
    "object": "0x60a060405234801561001057600080fd5b5060405161018338038061018383398101604081905261002f91610040565b6001600160a01b0316608052610070565b60006020828403121561005257600080fd5b81516001600160a01b038116811461006957600080fd5b9392505050565b60805160fb6100886000396000606d015260fb6000f3fe6080604052348015600f57600080fd5b506004361060285760003560e01c8063c4cb3d0c14602d575b600080fd5b60336047565b604051901515815260200160405180910390f35b6000604f6055565b50600190565b3073ffffffffffffffffffffffffffffffffffffffff7f0000000000000000000000000000000000000000000000000000000000000000161460c3576040517fd0c8bfe500000000000000000000000000000000000000000000000000000000815260040160405180910390fd5b56fea26469706673582212201eee408b7beaf37829b9a09c4e49a2d1df6da31a208174ce16090e62b3b3aa7e64736f6c63430008130033",
    "linkReferences": {}
  },
  "methodIdentifiers": {
    "testOnlyProxyDelegate()": "c4cb3d0c"
  },
  "id": 13
}