{
  "abi": [
    {
      "inputs": [],
      "stateMutability": "nonpayable",
      "type": "constructor"
    },
    {
      "inputs": [],
      "name": "AccessDenied",
      "type": "error"
    },
    {
      "inputs": [],
      "name": "AlreadyInitialized",
      "type": "error"
    },
    {
      "inputs": [],
      "name": "BatchNotSupported",
      "type": "error"
    },
    {
      "inputs": [],
      "name": "InvalidAddress",
      "type": "error"
    },
    {
      "inputs": [],
      "name": "InvalidIndices",
      "type": "error"
    },
    {
      "anonymous": false,
      "inputs": [
        {
          "indexed": true,
          "internalType": "address",
          "name": "owner",
          "type": "address"
        },
        {
          "indexed": true,
          "internalType": "address",
          "name": "approved",
          "type": "address"
        },
        {
          "indexed": true,
          "internalType": "uint256",
          "name": "tokenId",
          "type": "uint256"
        }
      ],
      "name": "Approval",
      "type": "event"
    },
    {
      "anonymous": false,
      "inputs": [
        {
          "indexed": true,
          "internalType": "address",
          "name": "owner",
          "type": "address"
        },
        {
          "indexed": true,
          "internalType": "address",
          "name": "operator",
          "type": "address"
        },
        {
          "indexed": false,
          "internalType": "bool",
          "name": "approved",
          "type": "bool"
        }
      ],
      "name": "ApprovalForAll",
      "type": "event"
    },
    {
      "anonymous": false,
      "inputs": [
        {
          "indexed": false,
          "internalType": "string",
          "name": "newBaseExtension",
          "type": "string"
        }
      ],
      "name": "BaseExtensionUpdated",
      "type": "event"
    },
    {
      "anonymous": false,
      "inputs": [
        {
          "indexed": false,
          "internalType": "string",
          "name": "newBaseURI",
          "type": "string"
        }
      ],
      "name": "BaseURIUpdated",
      "type": "event"
    },
    {
      "anonymous": false,
      "inputs": [
        {
          "indexed": false,
          "internalType": "uint8",
          "name": "version",
          "type": "uint8"
        }
      ],
      "name": "Initialized",
      "type": "event"
    },
    {
      "anonymous": false,
      "inputs": [
        {
          "indexed": true,
          "internalType": "bytes32",
          "name": "role",
          "type": "bytes32"
        },
        {
          "indexed": true,
          "internalType": "bytes32",
          "name": "previousAdminRole",
          "type": "bytes32"
        },
        {
          "indexed": true,
          "internalType": "bytes32",
          "name": "newAdminRole",
          "type": "bytes32"
        }
      ],
      "name": "RoleAdminChanged",
      "type": "event"
    },
    {
      "anonymous": false,
      "inputs": [
        {
          "indexed": true,
          "internalType": "bytes32",
          "name": "role",
          "type": "bytes32"
        },
        {
          "indexed": true,
          "internalType": "address",
          "name": "account",
          "type": "address"
        },
        {
          "indexed": true,
          "internalType": "address",
          "name": "sender",
          "type": "address"
        }
      ],
      "name": "RoleGranted",
      "type": "event"
    },
    {
      "anonymous": false,
      "inputs": [
        {
          "indexed": true,
          "internalType": "bytes32",
          "name": "role",
          "type": "bytes32"
        },
        {
          "indexed": true,
          "internalType": "address",
          "name": "account",
          "type": "address"
        },
        {
          "indexed": true,
          "internalType": "address",
          "name": "sender",
          "type": "address"
        }
      ],
      "name": "RoleRevoked",
      "type": "event"
    },
    {
      "anonymous": false,
      "inputs": [
        {
          "indexed": true,
          "internalType": "address",
          "name": "from",
          "type": "address"
        },
        {
          "indexed": true,
          "internalType": "address",
          "name": "to",
          "type": "address"
        },
        {
          "indexed": true,
          "internalType": "uint256",
          "name": "tokenId",
          "type": "uint256"
        }
      ],
      "name": "Transfer",
      "type": "event"
    },
    {
      "anonymous": false,
      "inputs": [
        {
          "indexed": false,
          "internalType": "bool",
          "name": "newUseGlobalURI",
          "type": "bool"
        }
      ],
      "name": "UseGlobalURIUpdated",
      "type": "event"
    },
    {
      "inputs": [],
      "name": "DEFAULT_ADMIN_ROLE",
      "outputs": [
        {
          "internalType": "bytes32",
          "name": "",
          "type": "bytes32"
        }
      ],
      "stateMutability": "view",
      "type": "function"
    },
    {
      "inputs": [
        {
          "internalType": "address",
          "name": "to",
          "type": "address"
        },
        {
          "internalType": "uint256",
          "name": "tokenId",
          "type": "uint256"
        }
      ],
      "name": "approve",
      "outputs": [],
      "stateMutability": "nonpayable",
      "type": "function"
    },
    {
      "inputs": [
        {
          "internalType": "address",
          "name": "owner",
          "type": "address"
        }
      ],
      "name": "balanceOf",
      "outputs": [
        {
          "internalType": "uint256",
          "name": "",
          "type": "uint256"
        }
      ],
      "stateMutability": "view",
      "type": "function"
    },
    {
      "inputs": [
        {
          "internalType": "uint256",
          "name": "tokenId",
          "type": "uint256"
        }
      ],
      "name": "burn",
      "outputs": [],
      "stateMutability": "nonpayable",
      "type": "function"
    },
    {
      "inputs": [
        {
          "internalType": "uint256",
          "name": "tokenId",
          "type": "uint256"
        }
      ],
      "name": "getApproved",
      "outputs": [
        {
          "internalType": "address",
          "name": "",
          "type": "address"
        }
      ],
      "stateMutability": "view",
      "type": "function"
    },
    {
      "inputs": [
        {
          "internalType": "bytes32",
          "name": "role",
          "type": "bytes32"
        }
      ],
      "name": "getRoleAdmin",
      "outputs": [
        {
          "internalType": "bytes32",
          "name": "",
          "type": "bytes32"
        }
      ],
      "stateMutability": "view",
      "type": "function"
    },
    {
      "inputs": [
        {
          "internalType": "bytes32",
          "name": "role",
          "type": "bytes32"
        },
        {
          "internalType": "uint256",
          "name": "index",
          "type": "uint256"
        }
      ],
      "name": "getRoleMember",
      "outputs": [
        {
          "internalType": "address",
          "name": "",
          "type": "address"
        }
      ],
      "stateMutability": "view",
      "type": "function"
    },
    {
      "inputs": [
        {
          "internalType": "bytes32",
          "name": "role",
          "type": "bytes32"
        }
      ],
      "name": "getRoleMemberCount",
      "outputs": [
        {
          "internalType": "uint256",
          "name": "",
          "type": "uint256"
        }
      ],
      "stateMutability": "view",
      "type": "function"
    },
    {
      "inputs": [
        {
          "internalType": "bytes32",
          "name": "role",
          "type": "bytes32"
        },
        {
          "internalType": "address",
          "name": "account",
          "type": "address"
        }
      ],
      "name": "grantRole",
      "outputs": [],
      "stateMutability": "nonpayable",
      "type": "function"
    },
    {
      "inputs": [
        {
          "internalType": "bytes32",
          "name": "role",
          "type": "bytes32"
        },
        {
          "internalType": "address",
          "name": "account",
          "type": "address"
        }
      ],
      "name": "hasRole",
      "outputs": [
        {
          "internalType": "bool",
          "name": "",
          "type": "bool"
        }
      ],
      "stateMutability": "view",
      "type": "function"
    },
    {
      "inputs": [
        {
          "internalType": "bool",
          "name": "newUseGlobalURI",
          "type": "bool"
        },
        {
          "internalType": "string",
          "name": "newBaseURI",
          "type": "string"
        },
        {
          "internalType": "string",
          "name": "newBaseExtension",
          "type": "string"
        }
      ],
      "name": "initialize",
      "outputs": [],
      "stateMutability": "nonpayable",
      "type": "function"
    },
    {
      "inputs": [
        {
          "internalType": "address",
          "name": "owner",
          "type": "address"
        },
        {
          "internalType": "address",
          "name": "operator",
          "type": "address"
        }
      ],
      "name": "isApprovedForAll",
      "outputs": [
        {
          "internalType": "bool",
          "name": "",
          "type": "bool"
        }
      ],
      "stateMutability": "view",
      "type": "function"
    },
    {
      "inputs": [
        {
          "internalType": "address",
          "name": "owner",
          "type": "address"
        },
        {
          "internalType": "uint256",
          "name": "tokenId",
          "type": "uint256"
        }
      ],
      "name": "mint",
      "outputs": [],
      "stateMutability": "nonpayable",
      "type": "function"
    },
    {
      "inputs": [],
      "name": "name",
      "outputs": [
        {
          "internalType": "string",
          "name": "",
          "type": "string"
        }
      ],
      "stateMutability": "view",
      "type": "function"
    },
    {
      "inputs": [
        {
          "internalType": "uint256",
          "name": "tokenId",
          "type": "uint256"
        }
      ],
      "name": "ownerOf",
      "outputs": [
        {
          "internalType": "address",
          "name": "",
          "type": "address"
        }
      ],
      "stateMutability": "view",
      "type": "function"
    },
    {
      "inputs": [
        {
          "internalType": "bytes",
          "name": "data",
          "type": "bytes"
        }
      ],
      "name": "postUpgrade",
      "outputs": [],
      "stateMutability": "nonpayable",
      "type": "function"
    },
    {
      "inputs": [
        {
          "internalType": "bytes32",
          "name": "role",
          "type": "bytes32"
        },
        {
          "internalType": "address",
          "name": "account",
          "type": "address"
        }
      ],
      "name": "renounceRole",
      "outputs": [],
      "stateMutability": "nonpayable",
      "type": "function"
    },
    {
      "inputs": [
        {
          "internalType": "bytes32",
          "name": "role",
          "type": "bytes32"
        },
        {
          "internalType": "address",
          "name": "account",
          "type": "address"
        }
      ],
      "name": "revokeRole",
      "outputs": [],
      "stateMutability": "nonpayable",
      "type": "function"
    },
    {
      "inputs": [],
      "name": "roleAdmin",
      "outputs": [
        {
          "internalType": "bytes32",
          "name": "",
          "type": "bytes32"
        }
      ],
      "stateMutability": "pure",
      "type": "function"
    },
    {
      "inputs": [],
      "name": "roleMinter",
      "outputs": [
        {
          "internalType": "bytes32",
          "name": "",
          "type": "bytes32"
        }
      ],
      "stateMutability": "pure",
      "type": "function"
    },
    {
      "inputs": [
        {
          "internalType": "address",
          "name": "from",
          "type": "address"
        },
        {
          "internalType": "address",
          "name": "to",
          "type": "address"
        },
        {
          "internalType": "uint256",
          "name": "tokenId",
          "type": "uint256"
        }
      ],
      "name": "safeTransferFrom",
      "outputs": [],
      "stateMutability": "nonpayable",
      "type": "function"
    },
    {
      "inputs": [
        {
          "internalType": "address",
          "name": "from",
          "type": "address"
        },
        {
          "internalType": "address",
          "name": "to",
          "type": "address"
        },
        {
          "internalType": "uint256",
          "name": "tokenId",
          "type": "uint256"
        },
        {
          "internalType": "bytes",
          "name": "data",
          "type": "bytes"
        }
      ],
      "name": "safeTransferFrom",
      "outputs": [],
      "stateMutability": "nonpayable",
      "type": "function"
    },
    {
      "inputs": [
        {
          "internalType": "address",
          "name": "operator",
          "type": "address"
        },
        {
          "internalType": "bool",
          "name": "approved",
          "type": "bool"
        }
      ],
      "name": "setApprovalForAll",
      "outputs": [],
      "stateMutability": "nonpayable",
      "type": "function"
    },
    {
      "inputs": [
        {
          "internalType": "string",
          "name": "newBaseExtension",
          "type": "string"
        }
      ],
      "name": "setBaseExtension",
      "outputs": [],
      "stateMutability": "nonpayable",
      "type": "function"
    },
    {
      "inputs": [
        {
          "internalType": "string",
          "name": "newBaseURI",
          "type": "string"
        }
      ],
      "name": "setBaseURI",
      "outputs": [],
      "stateMutability": "nonpayable",
      "type": "function"
    },
    {
      "inputs": [
        {
          "internalType": "bytes4",
          "name": "interfaceId",
          "type": "bytes4"
        }
      ],
      "name": "supportsInterface",
      "outputs": [
        {
          "internalType": "bool",
          "name": "",
          "type": "bool"
        }
      ],
      "stateMutability": "view",
      "type": "function"
    },
    {
      "inputs": [],
      "name": "symbol",
      "outputs": [
        {
          "internalType": "string",
          "name": "",
          "type": "string"
        }
      ],
      "stateMutability": "view",
      "type": "function"
    },
    {
      "inputs": [
        {
          "internalType": "uint256",
          "name": "tokenId",
          "type": "uint256"
        }
      ],
      "name": "tokenURI",
      "outputs": [
        {
          "internalType": "string",
          "name": "",
          "type": "string"
        }
      ],
      "stateMutability": "view",
      "type": "function"
    },
    {
      "inputs": [
        {
          "internalType": "address",
          "name": "owner",
          "type": "address"
        },
        {
          "internalType": "uint256",
          "name": "startIndex",
          "type": "uint256"
        },
        {
          "internalType": "uint256",
          "name": "endIndex",
          "type": "uint256"
        }
      ],
      "name": "tokensByOwner",
      "outputs": [
        {
          "internalType": "uint256[]",
          "name": "",
          "type": "uint256[]"
        }
      ],
      "stateMutability": "view",
      "type": "function"
    },
    {
      "inputs": [
        {
          "internalType": "address",
          "name": "from",
          "type": "address"
        },
        {
          "internalType": "address",
          "name": "to",
          "type": "address"
        },
        {
          "internalType": "uint256",
          "name": "tokenId",
          "type": "uint256"
        }
      ],
      "name": "transferFrom",
      "outputs": [],
      "stateMutability": "nonpayable",
      "type": "function"
    },
    {
      "inputs": [
        {
          "internalType": "bool",
          "name": "newUseGlobalURI",
          "type": "bool"
        }
      ],
      "name": "useGlobalURI",
      "outputs": [],
      "stateMutability": "nonpayable",
      "type": "function"
    },
    {
      "inputs": [],
      "name": "version",
      "outputs": [
        {
          "internalType": "uint16",
          "name": "",
          "type": "uint16"
        }
      ],
      "stateMutability": "pure",
      "type": "function"
    }
  ],
  "bytecode": {
    "object": "0x60806040523480156200001157600080fd5b5062000047600160405180606001604052806035815260200162003913603591396040805160208101909152600081526200004d565b62000845565b600054610100900460ff16158080156200006e5750600054600160ff909116105b806200008a5750303b1580156200008a575060005460ff166001145b620000f35760405162461bcd60e51b815260206004820152602e60248201527f496e697469616c697a61626c653a20636f6e747261637420697320616c72656160448201526d191e481a5b9a5d1a585b1a5e995960921b60648201526084015b60405180910390fd5b6000805460ff19166001179055801562000117576000805461ff0019166101001790555b6200012484848462000171565b80156200016b576000805461ff0019169055604051600181527f7f26b83ff96e1f2b6a682f133852f6798a09c465da95921460cefb38474024989060200160405180910390a15b50505050565b600054610100900460ff16620001cd5760405162461bcd60e51b815260206004820152602b60248201526000805160206200396883398151915260448201526a6e697469616c697a696e6760a81b6064820152608401620000ea565b620001d762000230565b6200021e604051806060016040528060218152602001620038f26021913960408051808201909152600c81526b10d0549093d38b54d514905560a21b6020820152620002a2565b6200022b8383836200030e565b505050565b600054610100900460ff166200028c5760405162461bcd60e51b815260206004820152602b60248201526000805160206200396883398151915260448201526a6e697469616c697a696e6760a81b6064820152608401620000ea565b62000296620003d3565b620002a06200042f565b565b600054610100900460ff16620002fe5760405162461bcd60e51b815260206004820152602b60248201526000805160206200396883398151915260448201526a6e697469616c697a696e6760a81b6064820152608401620000ea565b6200030a8282620004cf565b5050565b600054610100900460ff166200036a5760405162461bcd60e51b815260206004820152602b60248201526000805160206200396883398151915260448201526a6e697469616c697a696e6760a81b6064820152608401620000ea565b620003a57faeaef46186eb59f884e36929b6d682a6ae35e1e43d8f05f058dcefb92b6014616000805160206200394883398151915262000548565b61012d805460ff191684151517905561012e620003c3838262000779565b5061012f6200016b828262000779565b600054610100900460ff16620002a05760405162461bcd60e51b815260206004820152602b60248201526000805160206200396883398151915260448201526a6e697469616c697a696e6760a81b6064820152608401620000ea565b600054610100900460ff166200048b5760405162461bcd60e51b815260206004820152602b60248201526000805160206200396883398151915260448201526a6e697469616c697a696e6760a81b6064820152608401620000ea565b60c9805461ffff19166001179055620004b4600080516020620039488339815191528062000548565b620002a0600080516020620039488339815191523362000593565b600054610100900460ff166200052b5760405162461bcd60e51b815260206004820152602b60248201526000805160206200396883398151915260448201526a6e697469616c697a696e6760a81b6064820152608401620000ea565b60fb62000539838262000779565b5060fc6200022b828262000779565b600082815260656020526040808220600101805490849055905190918391839186917fbd79b86ffe0ab8e8776151514217cd7cacd52c909f66475c3af44e129f0b00ff9190a4505050565b6200030a8282620005a58282620005bf565b60008281526097602052604090206200022b908262000663565b60008281526065602090815260408083206001600160a01b038516845290915290205460ff166200030a5760008281526065602090815260408083206001600160a01b03851684529091529020805460ff191660011790556200061f3390565b6001600160a01b0316816001600160a01b0316837f2f8788117e7eff1d82e926ec794901d17c78024a50270940304540a733656f0d60405160405180910390a45050565b60006200067a836001600160a01b03841662000683565b90505b92915050565b6000818152600183016020526040812054620006cc575081546001818101845560008481526020808220909301849055845484825282860190935260409020919091556200067d565b5060006200067d565b634e487b7160e01b600052604160045260246000fd5b600181811c908216806200070057607f821691505b6020821081036200072157634e487b7160e01b600052602260045260246000fd5b50919050565b601f8211156200022b57600081815260208120601f850160051c81016020861015620007505750805b601f850160051c820191505b8181101562000771578281556001016200075c565b505050505050565b81516001600160401b03811115620007955762000795620006d5565b620007ad81620007a68454620006eb565b8462000727565b602080601f831160018114620007e55760008415620007cc5750858301515b600019600386901b1c1916600185901b17855562000771565b600085815260208120601f198616915b828110156200081657888601518255948401946001909101908401620007f5565b5085821015620008355787850151600019600388901b60f8161c191681555b5050505050600190811b01905550565b61309d80620008556000396000f3fe608060405234801561001057600080fd5b50600436106101f05760003560e01c806355f804b31161010f578063a217fddf116100a2578063ca15c87311610071578063ca15c87314610497578063d547741f146104aa578063da3ef23f146104bd578063e985e9c5146104d057600080fd5b8063a217fddf14610456578063a22cb4651461045e578063b88d4fde14610471578063c87b56dd1461048457600080fd5b80639010d07c116100de5780639010d07c146103dc57806391d14854146103ef57806393867fb51461042857806395d89b411461044e57600080fd5b806355f804b3146103905780636352211e146103a357806370a08231146103b65780638cd2403d146103c957600080fd5b806336568abe1161018757806343198ac41161015657806343198ac41461032857806349ade0961461034857806351f13b831461035b57806354fd4d501461038157600080fd5b806336568abe146102dc57806340c10f19146102ef57806342842e0e1461030257806342966c681461031557600080fd5b806323b872dd116101c357806323b872dd14610272578063248a9ca3146102855780632c8e0415146102b65780632f2ff15d146102c957600080fd5b806301ffc9a7146101f557806306fdde031461021d578063081812fc14610232578063095ea7b31461025d575b600080fd5b6102086102033660046127fc565b61050d565b60405190151581526020015b60405180910390f35b61022561051e565b6040516102149190612869565b61024561024036600461287c565b6105b0565b6040516001600160a01b039091168152602001610214565b61027061026b3660046128b1565b6105d7565b005b6102706102803660046128db565b61070d565b6102a861029336600461287c565b60009081526065602052604090206001015490565b604051908152602001610214565b6102706102c43660046129d3565b610794565b6102706102d7366004612a47565b6108ba565b6102706102ea366004612a47565b6108df565b6102706102fd3660046128b1565b61096b565b6102706103103660046128db565b6109a0565b61027061032336600461287c565b6109bb565b61033b610336366004612a73565b6109ef565b6040516102149190612aa6565b610270610356366004612aea565b610b1f565b7faeaef46186eb59f884e36929b6d682a6ae35e1e43d8f05f058dcefb92b6014616102a8565b60405160018152602001610214565b61027061039e366004612b05565b610ba4565b6102456103b136600461287c565b610c0b565b6102a86103c4366004612b3a565b610c70565b6102706103d7366004612b55565b610d0a565b6102456103ea366004612bc7565b610d75565b6102086103fd366004612a47565b60009182526065602090815260408084206001600160a01b0393909316845291905290205460ff1690565b7f2172861495e7b85edac73e3cd5fbb42dd675baadf627720e687bcfdaca0250966102a8565b610225610d94565b6102a8600081565b61027061046c366004612be9565b610da3565b61027061047f366004612c13565b610dae565b61022561049236600461287c565b610e36565b6102a86104a536600461287c565b610eb3565b6102706104b8366004612a47565b610eca565b6102706104cb366004612b05565b610eef565b6102086104de366004612c8f565b6001600160a01b0391821660009081526101006020908152604080832093909416825291909152205460ff1690565b600061051882610f56565b92915050565b606060fb805461052d90612cb9565b80601f016020809104026020016040519081016040528092919081815260200182805461055990612cb9565b80156105a65780601f1061057b576101008083540402835291602001916105a6565b820191906000526020600020905b81548152906001019060200180831161058957829003601f168201915b5050505050905090565b60006105bb82610fc8565b50600090815260ff60205260409020546001600160a01b031690565b60006105e282610c0b565b9050806001600160a01b0316836001600160a01b0316036106705760405162461bcd60e51b815260206004820152602160248201527f4552433732313a20617070726f76616c20746f2063757272656e74206f776e6560448201527f720000000000000000000000000000000000000000000000000000000000000060648201526084015b60405180910390fd5b336001600160a01b038216148061068c575061068c81336104de565b6106fe5760405162461bcd60e51b815260206004820152603d60248201527f4552433732313a20617070726f76652063616c6c6572206973206e6f7420746f60448201527f6b656e206f776e6572206f7220617070726f76656420666f7220616c6c0000006064820152608401610667565b610708838361102c565b505050565b61071733826110a7565b6107895760405162461bcd60e51b815260206004820152602d60248201527f4552433732313a2063616c6c6572206973206e6f7420746f6b656e206f776e6560448201527f72206f7220617070726f766564000000000000000000000000000000000000006064820152608401610667565b610708838383611127565b600054610100900460ff16158080156107b45750600054600160ff909116105b806107ce5750303b1580156107ce575060005460ff166001145b6108405760405162461bcd60e51b815260206004820152602e60248201527f496e697469616c697a61626c653a20636f6e747261637420697320616c72656160448201527f647920696e697469616c697a65640000000000000000000000000000000000006064820152608401610667565b6000805460ff191660011790558015610863576000805461ff0019166101001790555b61086e84848461136a565b80156108b4576000805461ff0019169055604051600181527f7f26b83ff96e1f2b6a682f133852f6798a09c465da95921460cefb38474024989060200160405180910390a15b50505050565b6000828152606560205260409020600101546108d58161143f565b6107088383611449565b6001600160a01b038116331461095d5760405162461bcd60e51b815260206004820152602f60248201527f416363657373436f6e74726f6c3a2063616e206f6e6c792072656e6f756e636560448201527f20726f6c657320666f722073656c6600000000000000000000000000000000006064820152608401610667565b610967828261146b565b5050565b7faeaef46186eb59f884e36929b6d682a6ae35e1e43d8f05f058dcefb92b601461610996813361148d565b61070883836114e9565b61070883838360405180602001604052806000815250610dae565b7faeaef46186eb59f884e36929b6d682a6ae35e1e43d8f05f058dcefb92b6014616109e6813361148d565b61096782611503565b6060836109fb816115b3565b6001600160a01b03851660009081526101306020526040812090610a1e826115f3565b9050841580610a2c57508085115b15610a35578094505b84861115610a6f576040517f2cd4dad300000000000000000000000000000000000000000000000000000000815260040160405180910390fd5b6000610a7b8787612d09565b905060008167ffffffffffffffff811115610a9857610a98612927565b604051908082528060200260200182016040528015610ac1578160200160208202803683370190505b50905060005b82811015610b1257610ae3610adc828b612d1c565b86906115fd565b828281518110610af557610af5612d2f565b602090810291909101015280610b0a81612d45565b915050610ac7565b5098975050505050505050565b610b497f2172861495e7b85edac73e3cd5fbb42dd675baadf627720e687bcfdaca0250963361148d565b61012d5460ff16151581151514610ba15761012d805460ff19168215159081179091556040519081527f97b12620440c99b10431803699fdba59f6ada913f01df22599100da54860f045906020015b60405180910390a15b50565b610bce7f2172861495e7b85edac73e3cd5fbb42dd675baadf627720e687bcfdaca0250963361148d565b61012e610bdb8282612dad565b507f6741b2fc379fad678116fe3d4d4b9a1a184ab53ba36b86ad0fa66340b1ab41ad81604051610b989190612869565b600081815260fd60205260408120546001600160a01b0316806105185760405162461bcd60e51b815260206004820152601860248201527f4552433732313a20696e76616c696420746f6b656e20494400000000000000006044820152606401610667565b60006001600160a01b038216610cee5760405162461bcd60e51b815260206004820152602960248201527f4552433732313a2061646472657373207a65726f206973206e6f74206120766160448201527f6c6964206f776e657200000000000000000000000000000000000000000000006064820152608401610667565b506001600160a01b0316600090815260fe602052604090205490565b60c954600090610d1f9061ffff166001612e6d565b905061ffff8116600114610d5f576040517f0dc149f000000000000000000000000000000000000000000000000000000000815260040160405180910390fd5b60c9805461ffff191661ffff8316179055505050565b6000828152609760205260408120610d8d90836115fd565b9392505050565b606060fc805461052d90612cb9565b610967338383611609565b610db833836110a7565b610e2a5760405162461bcd60e51b815260206004820152602d60248201527f4552433732313a2063616c6c6572206973206e6f7420746f6b656e206f776e6560448201527f72206f7220617070726f766564000000000000000000000000000000000000006064820152608401610667565b6108b4848484846116d8565b6060610e4182610fc8565b6000610e4b611761565b61012d5490915060ff1615610e605792915050565b805115610e9d5780610e7184611771565b61012f604051602001610e8693929190612e88565b604051602081830303815290604052915050919050565b5050604080516020810190915260008152919050565b6000818152609760205260408120610518906115f3565b600082815260656020526040902060010154610ee58161143f565b610708838361146b565b610f197f2172861495e7b85edac73e3cd5fbb42dd675baadf627720e687bcfdaca0250963361148d565b61012f610f268282612dad565b507f497a2ce104c6e48bc47b6b9084280dcda949acc005c5e715f19a96de56781ada81604051610b989190612869565b60006001600160e01b031982167f80ac58cd000000000000000000000000000000000000000000000000000000001480610fb957506001600160e01b031982167f5b5e139f00000000000000000000000000000000000000000000000000000000145b80610518575061051882611811565b600081815260fd60205260409020546001600160a01b0316610ba15760405162461bcd60e51b815260206004820152601860248201527f4552433732313a20696e76616c696420746f6b656e20494400000000000000006044820152606401610667565b600081815260ff60205260409020805473ffffffffffffffffffffffffffffffffffffffff19166001600160a01b038416908117909155819061106e82610c0b565b6001600160a01b03167f8c5be1e5ebec7d5bd14f71427d1e84f3dd0314c0f7b2291e5b200ac8c7c3b92560405160405180910390a45050565b6000806110b383610c0b565b9050806001600160a01b0316846001600160a01b031614806110fb57506001600160a01b038082166000908152610100602090815260408083209388168352929052205460ff165b8061111f5750836001600160a01b0316611114846105b0565b6001600160a01b0316145b949350505050565b826001600160a01b031661113a82610c0b565b6001600160a01b0316146111b65760405162461bcd60e51b815260206004820152602560248201527f4552433732313a207472616e736665722066726f6d20696e636f72726563742060448201527f6f776e65720000000000000000000000000000000000000000000000000000006064820152608401610667565b6001600160a01b0382166112315760405162461bcd60e51b8152602060048201526024808201527f4552433732313a207472616e7366657220746f20746865207a65726f2061646460448201527f72657373000000000000000000000000000000000000000000000000000000006064820152608401610667565b61123e838383600161184f565b826001600160a01b031661125182610c0b565b6001600160a01b0316146112cd5760405162461bcd60e51b815260206004820152602560248201527f4552433732313a207472616e736665722066726f6d20696e636f72726563742060448201527f6f776e65720000000000000000000000000000000000000000000000000000006064820152608401610667565b600081815260ff60209081526040808320805473ffffffffffffffffffffffffffffffffffffffff199081169091556001600160a01b0387811680865260fe855283862080546000190190559087168086528386208054600101905586865260fd90945282852080549092168417909155905184937fddf252ad1be2c89b69c2b068fc378daa952ba7f163c4a11628f55a4df523b3ef91a4505050565b600054610100900460ff166113d55760405162461bcd60e51b815260206004820152602b60248201527f496e697469616c697a61626c653a20636f6e7472616374206973206e6f74206960448201526a6e697469616c697a696e6760a81b6064820152608401610667565b6113dd611979565b611434604051806060016040528060218152602001613047602191396040518060400160405280600c81526020017f434152424f4e2d535452415400000000000000000000000000000000000000008152506119f6565b610708838383611a6b565b610ba18133611b4a565b6114538282611bbf565b60008281526097602052604090206107089082611c61565b6114758282611c76565b60008281526097602052604090206107089082611cf9565b60008281526065602090815260408083206001600160a01b038516845290915290205460ff16610967576040517f4ca8886700000000000000000000000000000000000000000000000000000000815260040160405180910390fd5b610967828260405180602001604052806000815250611d0e565b600061150e82610c0b565b905061151e81600084600161184f565b61152782610c0b565b600083815260ff60209081526040808320805473ffffffffffffffffffffffffffffffffffffffff199081169091556001600160a01b03851680855260fe8452828520805460001901905587855260fd909352818420805490911690555192935084927fddf252ad1be2c89b69c2b068fc378daa952ba7f163c4a11628f55a4df523b3ef908390a45050565b6001600160a01b038116610ba1576040517fe6c4247b00000000000000000000000000000000000000000000000000000000815260040160405180910390fd5b6000610518825490565b6000610d8d8383611d97565b816001600160a01b0316836001600160a01b03160361166a5760405162461bcd60e51b815260206004820152601960248201527f4552433732313a20617070726f766520746f2063616c6c6572000000000000006044820152606401610667565b6001600160a01b0383811660008181526101006020908152604080832094871680845294825291829020805460ff191686151590811790915591519182527f17307eab39ab6107e8899845ad3d59bd9653f200f220920489ca2b5937696c31910160405180910390a3505050565b6116e3848484611127565b6116ef84848484611dc1565b6108b45760405162461bcd60e51b815260206004820152603260248201527f4552433732313a207472616e7366657220746f206e6f6e20455243373231526560448201527f63656976657220696d706c656d656e74657200000000000000000000000000006064820152608401610667565b606061012e805461052d90612cb9565b6060600061177e83611f4a565b600101905060008167ffffffffffffffff81111561179e5761179e612927565b6040519080825280601f01601f1916602001820160405280156117c8576020820181803683370190505b5090508181016020015b600019017f3031323334353637383961626364656600000000000000000000000000000000600a86061a8153600a85049450846117d257509392505050565b60006001600160e01b031982167f5a05180f00000000000000000000000000000000000000000000000000000000148061051857506105188261202c565b600181111561188a576040517f05fbc73900000000000000000000000000000000000000000000000000000000815260040160405180910390fd5b6001600160a01b0384166118c1576001600160a01b0383166000908152610130602052604090206118bb9083612093565b506118ff565b826001600160a01b0316846001600160a01b0316146118ff576001600160a01b0384166000908152610130602052604090206118fd908361209f565b505b6001600160a01b038316611936576001600160a01b038416600090815261013060205260409020611930908361209f565b506108b4565b836001600160a01b0316836001600160a01b0316146108b4576001600160a01b0383166000908152610130602052604090206119729083612093565b5050505050565b600054610100900460ff166119e45760405162461bcd60e51b815260206004820152602b60248201527f496e697469616c697a61626c653a20636f6e7472616374206973206e6f74206960448201526a6e697469616c697a696e6760a81b6064820152608401610667565b6119ec6120ab565b6119f4612116565b565b600054610100900460ff16611a615760405162461bcd60e51b815260206004820152602b60248201527f496e697469616c697a61626c653a20636f6e7472616374206973206e6f74206960448201526a6e697469616c697a696e6760a81b6064820152608401610667565b61096782826121e3565b600054610100900460ff16611ad65760405162461bcd60e51b815260206004820152602b60248201527f496e697469616c697a61626c653a20636f6e7472616374206973206e6f74206960448201526a6e697469616c697a696e6760a81b6064820152608401610667565b611b207faeaef46186eb59f884e36929b6d682a6ae35e1e43d8f05f058dcefb92b6014617f2172861495e7b85edac73e3cd5fbb42dd675baadf627720e687bcfdaca025096612267565b61012d805460ff191684151517905561012e611b3c8382612dad565b5061012f6108b48282612dad565b60008281526065602090815260408083206001600160a01b038516845290915290205460ff1661096757611b7d816122b2565b611b888360206122c4565b604051602001611b99929190612f28565b60408051601f198184030181529082905262461bcd60e51b825261066791600401612869565b60008281526065602090815260408083206001600160a01b038516845290915290205460ff166109675760008281526065602090815260408083206001600160a01b03851684529091529020805460ff19166001179055611c1d3390565b6001600160a01b0316816001600160a01b0316837f2f8788117e7eff1d82e926ec794901d17c78024a50270940304540a733656f0d60405160405180910390a45050565b6000610d8d836001600160a01b0384166124ed565b60008281526065602090815260408083206001600160a01b038516845290915290205460ff16156109675760008281526065602090815260408083206001600160a01b0385168085529252808320805460ff1916905551339285917ff6391f5c32d9c69d2a47ea670b442974b53935d1edc7fd64eb21e047a839171b9190a45050565b6000610d8d836001600160a01b03841661253c565b611d188383612636565b611d256000848484611dc1565b6107085760405162461bcd60e51b815260206004820152603260248201527f4552433732313a207472616e7366657220746f206e6f6e20455243373231526560448201527f63656976657220696d706c656d656e74657200000000000000000000000000006064820152608401610667565b6000826000018281548110611dae57611dae612d2f565b9060005260206000200154905092915050565b60006001600160a01b0384163b15611f3f576040517f150b7a020000000000000000000000000000000000000000000000000000000081526001600160a01b0385169063150b7a0290611e1e903390899088908890600401612fa9565b6020604051808303816000875af1925050508015611e59575060408051601f3d908101601f19168201909252611e5691810190612fe5565b60015b611f0c573d808015611e87576040519150601f19603f3d011682016040523d82523d6000602084013e611e8c565b606091505b508051600003611f045760405162461bcd60e51b815260206004820152603260248201527f4552433732313a207472616e7366657220746f206e6f6e20455243373231526560448201527f63656976657220696d706c656d656e74657200000000000000000000000000006064820152608401610667565b805181602001fd5b6001600160e01b0319167f150b7a020000000000000000000000000000000000000000000000000000000014905061111f565b506001949350505050565b6000807a184f03e93ff9f4daa797ed6e38ed64bf6a1f0100000000000000008310611f93577a184f03e93ff9f4daa797ed6e38ed64bf6a1f010000000000000000830492506040015b6d04ee2d6d415b85acef81000000008310611fbf576d04ee2d6d415b85acef8100000000830492506020015b662386f26fc100008310611fdd57662386f26fc10000830492506010015b6305f5e1008310611ff5576305f5e100830492506008015b612710831061200957612710830492506004015b6064831061201b576064830492506002015b600a83106105185760010192915050565b60006001600160e01b031982167f7965db0b00000000000000000000000000000000000000000000000000000000148061051857507f01ffc9a7000000000000000000000000000000000000000000000000000000006001600160e01b0319831614610518565b6000610d8d83836124ed565b6000610d8d838361253c565b600054610100900460ff166119f45760405162461bcd60e51b815260206004820152602b60248201527f496e697469616c697a61626c653a20636f6e7472616374206973206e6f74206960448201526a6e697469616c697a696e6760a81b6064820152608401610667565b600054610100900460ff166121815760405162461bcd60e51b815260206004820152602b60248201527f496e697469616c697a61626c653a20636f6e7472616374206973206e6f74206960448201526a6e697469616c697a696e6760a81b6064820152608401610667565b60c9805461ffff191660011790556121b97f2172861495e7b85edac73e3cd5fbb42dd675baadf627720e687bcfdaca02509680612267565b6119f47f2172861495e7b85edac73e3cd5fbb42dd675baadf627720e687bcfdaca025096336127dc565b600054610100900460ff1661224e5760405162461bcd60e51b815260206004820152602b60248201527f496e697469616c697a61626c653a20636f6e7472616374206973206e6f74206960448201526a6e697469616c697a696e6760a81b6064820152608401610667565b60fb61225a8382612dad565b5060fc6107088282612dad565b600082815260656020526040808220600101805490849055905190918391839186917fbd79b86ffe0ab8e8776151514217cd7cacd52c909f66475c3af44e129f0b00ff9190a4505050565b60606105186001600160a01b03831660145b606060006122d3836002613002565b6122de906002612d1c565b67ffffffffffffffff8111156122f6576122f6612927565b6040519080825280601f01601f191660200182016040528015612320576020820181803683370190505b5090507f30000000000000000000000000000000000000000000000000000000000000008160008151811061235757612357612d2f565b60200101907effffffffffffffffffffffffffffffffffffffffffffffffffffffffffffff1916908160001a9053507f7800000000000000000000000000000000000000000000000000000000000000816001815181106123ba576123ba612d2f565b60200101907effffffffffffffffffffffffffffffffffffffffffffffffffffffffffffff1916908160001a90535060006123f6846002613002565b612401906001612d1c565b90505b600181111561249e577f303132333435363738396162636465660000000000000000000000000000000085600f166010811061244257612442612d2f565b1a60f81b82828151811061245857612458612d2f565b60200101907effffffffffffffffffffffffffffffffffffffffffffffffffffffffffffff1916908160001a90535060049490941c9361249781613019565b9050612404565b508315610d8d5760405162461bcd60e51b815260206004820181905260248201527f537472696e67733a20686578206c656e67746820696e73756666696369656e746044820152606401610667565b600081815260018301602052604081205461253457508154600181810184556000848152602080822090930184905584548482528286019093526040902091909155610518565b506000610518565b60008181526001830160205260408120548015612625576000612560600183612d09565b855490915060009061257490600190612d09565b90508181146125d957600086600001828154811061259457612594612d2f565b90600052602060002001549050808760000184815481106125b7576125b7612d2f565b6000918252602080832090910192909255918252600188019052604090208390555b85548690806125ea576125ea613030565b600190038181906000526020600020016000905590558560010160008681526020019081526020016000206000905560019350505050610518565b6000915050610518565b5092915050565b6001600160a01b03821661268c5760405162461bcd60e51b815260206004820181905260248201527f4552433732313a206d696e7420746f20746865207a65726f20616464726573736044820152606401610667565b600081815260fd60205260409020546001600160a01b0316156126f15760405162461bcd60e51b815260206004820152601c60248201527f4552433732313a20746f6b656e20616c7265616479206d696e746564000000006044820152606401610667565b6126ff60008383600161184f565b600081815260fd60205260409020546001600160a01b0316156127645760405162461bcd60e51b815260206004820152601c60248201527f4552433732313a20746f6b656e20616c7265616479206d696e746564000000006044820152606401610667565b6001600160a01b038216600081815260fe602090815260408083208054600101905584835260fd909152808220805473ffffffffffffffffffffffffffffffffffffffff19168417905551839291907fddf252ad1be2c89b69c2b068fc378daa952ba7f163c4a11628f55a4df523b3ef908290a45050565b6109678282611449565b6001600160e01b031981168114610ba157600080fd5b60006020828403121561280e57600080fd5b8135610d8d816127e6565b60005b8381101561283457818101518382015260200161281c565b50506000910152565b60008151808452612855816020860160208601612819565b601f01601f19169290920160200192915050565b602081526000610d8d602083018461283d565b60006020828403121561288e57600080fd5b5035919050565b80356001600160a01b03811681146128ac57600080fd5b919050565b600080604083850312156128c457600080fd5b6128cd83612895565b946020939093013593505050565b6000806000606084860312156128f057600080fd5b6128f984612895565b925061290760208501612895565b9150604084013590509250925092565b803580151581146128ac57600080fd5b634e487b7160e01b600052604160045260246000fd5b600067ffffffffffffffff8084111561295857612958612927565b604051601f8501601f19908116603f0116810190828211818310171561298057612980612927565b8160405280935085815286868601111561299957600080fd5b858560208301376000602087830101525050509392505050565b600082601f8301126129c457600080fd5b610d8d8383356020850161293d565b6000806000606084860312156129e857600080fd5b6129f184612917565b9250602084013567ffffffffffffffff80821115612a0e57600080fd5b612a1a878388016129b3565b93506040860135915080821115612a3057600080fd5b50612a3d868287016129b3565b9150509250925092565b60008060408385031215612a5a57600080fd5b82359150612a6a60208401612895565b90509250929050565b600080600060608486031215612a8857600080fd5b612a9184612895565b95602085013595506040909401359392505050565b6020808252825182820181905260009190848201906040850190845b81811015612ade57835183529284019291840191600101612ac2565b50909695505050505050565b600060208284031215612afc57600080fd5b610d8d82612917565b600060208284031215612b1757600080fd5b813567ffffffffffffffff811115612b2e57600080fd5b61111f848285016129b3565b600060208284031215612b4c57600080fd5b610d8d82612895565b60008060208385031215612b6857600080fd5b823567ffffffffffffffff80821115612b8057600080fd5b818501915085601f830112612b9457600080fd5b813581811115612ba357600080fd5b866020828501011115612bb557600080fd5b60209290920196919550909350505050565b60008060408385031215612bda57600080fd5b50508035926020909101359150565b60008060408385031215612bfc57600080fd5b612c0583612895565b9150612a6a60208401612917565b60008060008060808587031215612c2957600080fd5b612c3285612895565b9350612c4060208601612895565b925060408501359150606085013567ffffffffffffffff811115612c6357600080fd5b8501601f81018713612c7457600080fd5b612c838782356020840161293d565b91505092959194509250565b60008060408385031215612ca257600080fd5b612cab83612895565b9150612a6a60208401612895565b600181811c90821680612ccd57607f821691505b602082108103612ced57634e487b7160e01b600052602260045260246000fd5b50919050565b634e487b7160e01b600052601160045260246000fd5b8181038181111561051857610518612cf3565b8082018082111561051857610518612cf3565b634e487b7160e01b600052603260045260246000fd5b60006000198203612d5857612d58612cf3565b5060010190565b601f82111561070857600081815260208120601f850160051c81016020861015612d865750805b601f850160051c820191505b81811015612da557828155600101612d92565b505050505050565b815167ffffffffffffffff811115612dc757612dc7612927565b612ddb81612dd58454612cb9565b84612d5f565b602080601f831160018114612e105760008415612df85750858301515b600019600386901b1c1916600185901b178555612da5565b600085815260208120601f198616915b82811015612e3f57888601518255948401946001909101908401612e20565b5085821015612e5d5787850151600019600388901b60f8161c191681555b5050505050600190811b01905550565b61ffff81811683821601908082111561262f5761262f612cf3565b600084516020612e9b8285838a01612819565b855191840191612eae8184848a01612819565b8554920191600090612ebf81612cb9565b60018281168015612ed75760018114612eec57612f18565b60ff1984168752821515830287019450612f18565b896000528560002060005b84811015612f1057815489820152908301908701612ef7565b505082870194505b50929a9950505050505050505050565b7f416363657373436f6e74726f6c3a206163636f756e7420000000000000000000815260008351612f60816017850160208801612819565b7f206973206d697373696e6720726f6c65200000000000000000000000000000006017918401918201528351612f9d816028840160208801612819565b01602801949350505050565b60006001600160a01b03808716835280861660208401525083604083015260806060830152612fdb608083018461283d565b9695505050505050565b600060208284031215612ff757600080fd5b8151610d8d816127e6565b808202811582820484141761051857610518612cf3565b60008161302857613028612cf3565b506000190190565b634e487b7160e01b600052603160045260246000fdfe436172626f6e204175746f6d617465642054726164696e67205374726174656779a2646970667358221220e9b19f91cf794ba502786bcbde6e67b580fe80b8682deb511ed92ae3648945ba64736f6c63430008130033436172626f6e204175746f6d617465642054726164696e67205374726174656779697066733a2f2f516d557944557a51747741684d4231687259615141716d52546267743973556e77713131476571797a7a5375716e2172861495e7b85edac73e3cd5fbb42dd675baadf627720e687bcfdaca025096496e697469616c697a61626c653a20636f6e7472616374206973206e6f742069",
    "linkReferences": {}
  },
  "methodIdentifiers": {
    "DEFAULT_ADMIN_ROLE()": "a217fddf",
    "approve(address,uint256)": "095ea7b3",
    "balanceOf(address)": "70a08231",
    "burn(uint256)": "42966c68",
    "getApproved(uint256)": "081812fc",
    "getRoleAdmin(bytes32)": "248a9ca3",
    "getRoleMember(bytes32,uint256)": "9010d07c",
    "getRoleMemberCount(bytes32)": "ca15c873",
    "grantRole(bytes32,address)": "2f2ff15d",
    "hasRole(bytes32,address)": "91d14854",
    "initialize(bool,string,string)": "2c8e0415",
    "isApprovedForAll(address,address)": "e985e9c5",
    "mint(address,uint256)": "40c10f19",
    "name()": "06fdde03",
    "ownerOf(uint256)": "6352211e",
    "postUpgrade(bytes)": "8cd2403d",
    "renounceRole(bytes32,address)": "36568abe",
    "revokeRole(bytes32,address)": "d547741f",
    "roleAdmin()": "93867fb5",
    "roleMinter()": "51f13b83",
    "safeTransferFrom(address,address,uint256)": "42842e0e",
    "safeTransferFrom(address,address,uint256,bytes)": "b88d4fde",
    "setApprovalForAll(address,bool)": "a22cb465",
    "setBaseExtension(string)": "da3ef23f",
    "setBaseURI(string)": "55f804b3",
    "supportsInterface(bytes4)": "01ffc9a7",
    "symbol()": "95d89b41",
    "tokenURI(uint256)": "c87b56dd",
    "tokensByOwner(address,uint256,uint256)": "43198ac4",
    "transferFrom(address,address,uint256)": "23b872dd",
    "useGlobalURI(bool)": "49ade096",
    "version()": "54fd4d50"
  },
  "id": 38
}