{
  "address": "0xb0d39990E1C38B50D0b7f6911525535Fbacb4C26",
  "abi": [
    {
      "inputs": [],
      "stateMutability": "nonpayable",
      "type": "constructor"
    },
    {
      "inputs": [],
      "name": "AccessDenied",
      "type": "error"
    },
    {
      "inputs": [],
      "name": "AlreadyInitialized",
      "type": "error"
    },
    {
      "inputs": [],
      "name": "BatchNotSupported",
      "type": "error"
    },
    {
      "inputs": [],
      "name": "ControllerAlreadySet",
      "type": "error"
    },
    {
      "inputs": [],
      "name": "InvalidAddress",
      "type": "error"
    },
    {
      "inputs": [],
      "name": "InvalidIndices",
      "type": "error"
    },
    {
      "inputs": [],
      "name": "OnlyController",
      "type": "error"
    },
    {
      "anonymous": false,
      "inputs": [
        {
          "indexed": true,
          "internalType": "address",
          "name": "owner",
          "type": "address"
        },
        {
          "indexed": true,
          "internalType": "address",
          "name": "approved",
          "type": "address"
        },
        {
          "indexed": true,
          "internalType": "uint256",
          "name": "tokenId",
          "type": "uint256"
        }
      ],
      "name": "Approval",
      "type": "event"
    },
    {
      "anonymous": false,
      "inputs": [
        {
          "indexed": true,
          "internalType": "address",
          "name": "owner",
          "type": "address"
        },
        {
          "indexed": true,
          "internalType": "address",
          "name": "operator",
          "type": "address"
        },
        {
          "indexed": false,
          "internalType": "bool",
          "name": "approved",
          "type": "bool"
        }
      ],
      "name": "ApprovalForAll",
      "type": "event"
    },
    {
      "anonymous": false,
      "inputs": [
        {
          "indexed": false,
          "internalType": "string",
          "name": "newBaseExtension",
          "type": "string"
        }
      ],
      "name": "BaseExtensionUpdated",
      "type": "event"
    },
    {
      "anonymous": false,
      "inputs": [
        {
          "indexed": false,
          "internalType": "string",
          "name": "newBaseURI",
          "type": "string"
        }
      ],
      "name": "BaseURIUpdated",
      "type": "event"
    },
    {
      "anonymous": false,
      "inputs": [
        {
          "indexed": false,
          "internalType": "uint8",
          "name": "version",
          "type": "uint8"
        }
      ],
      "name": "Initialized",
      "type": "event"
    },
    {
      "anonymous": false,
      "inputs": [
        {
          "indexed": true,
          "internalType": "bytes32",
          "name": "role",
          "type": "bytes32"
        },
        {
          "indexed": true,
          "internalType": "bytes32",
          "name": "previousAdminRole",
          "type": "bytes32"
        },
        {
          "indexed": true,
          "internalType": "bytes32",
          "name": "newAdminRole",
          "type": "bytes32"
        }
      ],
      "name": "RoleAdminChanged",
      "type": "event"
    },
    {
      "anonymous": false,
      "inputs": [
        {
          "indexed": true,
          "internalType": "bytes32",
          "name": "role",
          "type": "bytes32"
        },
        {
          "indexed": true,
          "internalType": "address",
          "name": "account",
          "type": "address"
        },
        {
          "indexed": true,
          "internalType": "address",
          "name": "sender",
          "type": "address"
        }
      ],
      "name": "RoleGranted",
      "type": "event"
    },
    {
      "anonymous": false,
      "inputs": [
        {
          "indexed": true,
          "internalType": "bytes32",
          "name": "role",
          "type": "bytes32"
        },
        {
          "indexed": true,
          "internalType": "address",
          "name": "account",
          "type": "address"
        },
        {
          "indexed": true,
          "internalType": "address",
          "name": "sender",
          "type": "address"
        }
      ],
      "name": "RoleRevoked",
      "type": "event"
    },
    {
      "anonymous": false,
      "inputs": [
        {
          "indexed": true,
          "internalType": "address",
          "name": "from",
          "type": "address"
        },
        {
          "indexed": true,
          "internalType": "address",
          "name": "to",
          "type": "address"
        },
        {
          "indexed": true,
          "internalType": "uint256",
          "name": "tokenId",
          "type": "uint256"
        }
      ],
      "name": "Transfer",
      "type": "event"
    },
    {
      "anonymous": false,
      "inputs": [
        {
          "indexed": false,
          "internalType": "bool",
          "name": "newUseGlobalURI",
          "type": "bool"
        }
      ],
      "name": "UseGlobalURIUpdated",
      "type": "event"
    },
    {
      "inputs": [],
      "name": "DEFAULT_ADMIN_ROLE",
      "outputs": [
        {
          "internalType": "bytes32",
          "name": "",
          "type": "bytes32"
        }
      ],
      "stateMutability": "view",
      "type": "function"
    },
    {
      "inputs": [
        {
          "internalType": "address",
          "name": "to",
          "type": "address"
        },
        {
          "internalType": "uint256",
          "name": "tokenId",
          "type": "uint256"
        }
      ],
      "name": "approve",
      "outputs": [],
      "stateMutability": "nonpayable",
      "type": "function"
    },
    {
      "inputs": [
        {
          "internalType": "address",
          "name": "owner",
          "type": "address"
        }
      ],
      "name": "balanceOf",
      "outputs": [
        {
          "internalType": "uint256",
          "name": "",
          "type": "uint256"
        }
      ],
      "stateMutability": "view",
      "type": "function"
    },
    {
      "inputs": [
        {
          "internalType": "uint256",
          "name": "tokenId",
          "type": "uint256"
        }
      ],
      "name": "burn",
      "outputs": [],
      "stateMutability": "nonpayable",
      "type": "function"
    },
    {
      "inputs": [],
      "name": "controller",
      "outputs": [
        {
          "internalType": "address",
          "name": "",
          "type": "address"
        }
      ],
      "stateMutability": "view",
      "type": "function"
    },
    {
      "inputs": [
        {
          "internalType": "uint256",
          "name": "tokenId",
          "type": "uint256"
        }
      ],
      "name": "getApproved",
      "outputs": [
        {
          "internalType": "address",
          "name": "",
          "type": "address"
        }
      ],
      "stateMutability": "view",
      "type": "function"
    },
    {
      "inputs": [
        {
          "internalType": "bytes32",
          "name": "role",
          "type": "bytes32"
        }
      ],
      "name": "getRoleAdmin",
      "outputs": [
        {
          "internalType": "bytes32",
          "name": "",
          "type": "bytes32"
        }
      ],
      "stateMutability": "view",
      "type": "function"
    },
    {
      "inputs": [
        {
          "internalType": "bytes32",
          "name": "role",
          "type": "bytes32"
        },
        {
          "internalType": "uint256",
          "name": "index",
          "type": "uint256"
        }
      ],
      "name": "getRoleMember",
      "outputs": [
        {
          "internalType": "address",
          "name": "",
          "type": "address"
        }
      ],
      "stateMutability": "view",
      "type": "function"
    },
    {
      "inputs": [
        {
          "internalType": "bytes32",
          "name": "role",
          "type": "bytes32"
        }
      ],
      "name": "getRoleMemberCount",
      "outputs": [
        {
          "internalType": "uint256",
          "name": "",
          "type": "uint256"
        }
      ],
      "stateMutability": "view",
      "type": "function"
    },
    {
      "inputs": [
        {
          "internalType": "bytes32",
          "name": "role",
          "type": "bytes32"
        },
        {
          "internalType": "address",
          "name": "account",
          "type": "address"
        }
      ],
      "name": "grantRole",
      "outputs": [],
      "stateMutability": "nonpayable",
      "type": "function"
    },
    {
      "inputs": [
        {
          "internalType": "bytes32",
          "name": "role",
          "type": "bytes32"
        },
        {
          "internalType": "address",
          "name": "account",
          "type": "address"
        }
      ],
      "name": "hasRole",
      "outputs": [
        {
          "internalType": "bool",
          "name": "",
          "type": "bool"
        }
      ],
      "stateMutability": "view",
      "type": "function"
    },
    {
      "inputs": [
        {
          "internalType": "bool",
          "name": "newUseGlobalURI",
          "type": "bool"
        },
        {
          "internalType": "string",
          "name": "newBaseURI",
          "type": "string"
        },
        {
          "internalType": "string",
          "name": "newBaseExtension",
          "type": "string"
        }
      ],
      "name": "initialize",
      "outputs": [],
      "stateMutability": "nonpayable",
      "type": "function"
    },
    {
      "inputs": [
        {
          "internalType": "address",
          "name": "owner",
          "type": "address"
        },
        {
          "internalType": "address",
          "name": "operator",
          "type": "address"
        }
      ],
      "name": "isApprovedForAll",
      "outputs": [
        {
          "internalType": "bool",
          "name": "",
          "type": "bool"
        }
      ],
      "stateMutability": "view",
      "type": "function"
    },
    {
      "inputs": [
        {
          "internalType": "address",
          "name": "owner",
          "type": "address"
        },
        {
          "internalType": "uint256",
          "name": "tokenId",
          "type": "uint256"
        }
      ],
      "name": "mint",
      "outputs": [],
      "stateMutability": "nonpayable",
      "type": "function"
    },
    {
      "inputs": [],
      "name": "name",
      "outputs": [
        {
          "internalType": "string",
          "name": "",
          "type": "string"
        }
      ],
      "stateMutability": "view",
      "type": "function"
    },
    {
      "inputs": [
        {
          "internalType": "uint256",
          "name": "tokenId",
          "type": "uint256"
        }
      ],
      "name": "ownerOf",
      "outputs": [
        {
          "internalType": "address",
          "name": "",
          "type": "address"
        }
      ],
      "stateMutability": "view",
      "type": "function"
    },
    {
      "inputs": [
        {
          "internalType": "bytes",
          "name": "data",
          "type": "bytes"
        }
      ],
      "name": "postUpgrade",
      "outputs": [],
      "stateMutability": "nonpayable",
      "type": "function"
    },
    {
      "inputs": [
        {
          "internalType": "bytes32",
          "name": "role",
          "type": "bytes32"
        },
        {
          "internalType": "address",
          "name": "account",
          "type": "address"
        }
      ],
      "name": "renounceRole",
      "outputs": [],
      "stateMutability": "nonpayable",
      "type": "function"
    },
    {
      "inputs": [
        {
          "internalType": "bytes32",
          "name": "role",
          "type": "bytes32"
        },
        {
          "internalType": "address",
          "name": "account",
          "type": "address"
        }
      ],
      "name": "revokeRole",
      "outputs": [],
      "stateMutability": "nonpayable",
      "type": "function"
    },
    {
      "inputs": [],
      "name": "roleAdmin",
      "outputs": [
        {
          "internalType": "bytes32",
          "name": "",
          "type": "bytes32"
        }
      ],
      "stateMutability": "pure",
      "type": "function"
    },
    {
      "inputs": [
        {
          "internalType": "address",
          "name": "from",
          "type": "address"
        },
        {
          "internalType": "address",
          "name": "to",
          "type": "address"
        },
        {
          "internalType": "uint256",
          "name": "tokenId",
          "type": "uint256"
        }
      ],
      "name": "safeTransferFrom",
      "outputs": [],
      "stateMutability": "nonpayable",
      "type": "function"
    },
    {
      "inputs": [
        {
          "internalType": "address",
          "name": "from",
          "type": "address"
        },
        {
          "internalType": "address",
          "name": "to",
          "type": "address"
        },
        {
          "internalType": "uint256",
          "name": "tokenId",
          "type": "uint256"
        },
        {
          "internalType": "bytes",
          "name": "data",
          "type": "bytes"
        }
      ],
      "name": "safeTransferFrom",
      "outputs": [],
      "stateMutability": "nonpayable",
      "type": "function"
    },
    {
      "inputs": [
        {
          "internalType": "address",
          "name": "operator",
          "type": "address"
        },
        {
          "internalType": "bool",
          "name": "approved",
          "type": "bool"
        }
      ],
      "name": "setApprovalForAll",
      "outputs": [],
      "stateMutability": "nonpayable",
      "type": "function"
    },
    {
      "inputs": [
        {
          "internalType": "string",
          "name": "newBaseExtension",
          "type": "string"
        }
      ],
      "name": "setBaseExtension",
      "outputs": [],
      "stateMutability": "nonpayable",
      "type": "function"
    },
    {
      "inputs": [
        {
          "internalType": "string",
          "name": "newBaseURI",
          "type": "string"
        }
      ],
      "name": "setBaseURI",
      "outputs": [],
      "stateMutability": "nonpayable",
      "type": "function"
    },
    {
      "inputs": [
        {
          "internalType": "address",
          "name": "controllerAddress",
          "type": "address"
        }
      ],
      "name": "setController",
      "outputs": [],
      "stateMutability": "nonpayable",
      "type": "function"
    },
    {
      "inputs": [
        {
          "internalType": "bytes4",
          "name": "interfaceId",
          "type": "bytes4"
        }
      ],
      "name": "supportsInterface",
      "outputs": [
        {
          "internalType": "bool",
          "name": "",
          "type": "bool"
        }
      ],
      "stateMutability": "view",
      "type": "function"
    },
    {
      "inputs": [],
      "name": "symbol",
      "outputs": [
        {
          "internalType": "string",
          "name": "",
          "type": "string"
        }
      ],
      "stateMutability": "view",
      "type": "function"
    },
    {
      "inputs": [
        {
          "internalType": "uint256",
          "name": "tokenId",
          "type": "uint256"
        }
      ],
      "name": "tokenURI",
      "outputs": [
        {
          "internalType": "string",
          "name": "",
          "type": "string"
        }
      ],
      "stateMutability": "view",
      "type": "function"
    },
    {
      "inputs": [
        {
          "internalType": "address",
          "name": "owner",
          "type": "address"
        },
        {
          "internalType": "uint256",
          "name": "startIndex",
          "type": "uint256"
        },
        {
          "internalType": "uint256",
          "name": "endIndex",
          "type": "uint256"
        }
      ],
      "name": "tokensByOwner",
      "outputs": [
        {
          "internalType": "uint256[]",
          "name": "",
          "type": "uint256[]"
        }
      ],
      "stateMutability": "view",
      "type": "function"
    },
    {
      "inputs": [
        {
          "internalType": "address",
          "name": "from",
          "type": "address"
        },
        {
          "internalType": "address",
          "name": "to",
          "type": "address"
        },
        {
          "internalType": "uint256",
          "name": "tokenId",
          "type": "uint256"
        }
      ],
      "name": "transferFrom",
      "outputs": [],
      "stateMutability": "nonpayable",
      "type": "function"
    },
    {
      "inputs": [
        {
          "internalType": "bool",
          "name": "newUseGlobalURI",
          "type": "bool"
        }
      ],
      "name": "useGlobalURI",
      "outputs": [],
      "stateMutability": "nonpayable",
      "type": "function"
    },
    {
      "inputs": [],
      "name": "version",
      "outputs": [
        {
          "internalType": "uint16",
          "name": "",
          "type": "uint16"
        }
      ],
      "stateMutability": "pure",
      "type": "function"
    }
  ],
  "transactionHash": "0xc5469d60228f5fadaeedee77a56e6a99797bed0a9a23a0ac39ddf5b1954a020c",
  "args": [],
  "numDeployments": 1,
  "solcInputHash": "929c5fcaa0506f3efee89f4e029bac6f",
  "bytecode": "0x60806040523480156200001157600080fd5b5062000047600160405180606001604052806035815260200162003994603591396040805160208101909152600081526200004d565b62000851565b600054610100900460ff16158080156200006e5750600054600160ff909116105b806200008a5750303b1580156200008a575060005460ff166001145b620000f35760405162461bcd60e51b815260206004820152602e60248201527f496e697469616c697a61626c653a20636f6e747261637420697320616c72656160448201526d191e481a5b9a5d1a585b1a5e995960921b60648201526084015b60405180910390fd5b6000805460ff19166001179055801562000117576000805461ff0019166101001790555b6200012484848462000171565b80156200016b576000805461ff0019169055604051600181527f7f26b83ff96e1f2b6a682f133852f6798a09c465da95921460cefb38474024989060200160405180910390a15b50505050565b600054610100900460ff16620001cd5760405162461bcd60e51b815260206004820152602b6024820152600080516020620039e983398151915260448201526a6e697469616c697a696e6760a81b6064820152608401620000ea565b620001d762000230565b6200021e604051806060016040528060218152602001620039736021913960408051808201909152600c81526b10d0549093d38b54d514905560a21b6020820152620002a2565b6200022b8383836200030e565b505050565b600054610100900460ff166200028c5760405162461bcd60e51b815260206004820152602b6024820152600080516020620039e983398151915260448201526a6e697469616c697a696e6760a81b6064820152608401620000ea565b6200029662000398565b620002a0620003f4565b565b600054610100900460ff16620002fe5760405162461bcd60e51b815260206004820152602b6024820152600080516020620039e983398151915260448201526a6e697469616c697a696e6760a81b6064820152608401620000ea565b6200030a8282620004aa565b5050565b600054610100900460ff166200036a5760405162461bcd60e51b815260206004820152602b6024820152600080516020620039e983398151915260448201526a6e697469616c697a696e6760a81b6064820152608401620000ea565b61012d805460ff191684151517905561012e62000388838262000754565b5061012f6200016b828262000754565b600054610100900460ff16620002a05760405162461bcd60e51b815260206004820152602b6024820152600080516020620039e983398151915260448201526a6e697469616c697a696e6760a81b6064820152608401620000ea565b600054610100900460ff16620004505760405162461bcd60e51b815260206004820152602b6024820152600080516020620039e983398151915260448201526a6e697469616c697a696e6760a81b6064820152608401620000ea565b6200045e6001600262000820565b60c9805461ffff191661ffff929092169190911790556200048f600080516020620039c98339815191528062000523565b620002a0600080516020620039c9833981519152336200056e565b600054610100900460ff16620005065760405162461bcd60e51b815260206004820152602b6024820152600080516020620039e983398151915260448201526a6e697469616c697a696e6760a81b6064820152608401620000ea565b60fb62000514838262000754565b5060fc6200022b828262000754565b600082815260656020526040808220600101805490849055905190918391839186917fbd79b86ffe0ab8e8776151514217cd7cacd52c909f66475c3af44e129f0b00ff9190a4505050565b6200030a82826200058082826200059a565b60008281526097602052604090206200022b90826200063e565b60008281526065602090815260408083206001600160a01b038516845290915290205460ff166200030a5760008281526065602090815260408083206001600160a01b03851684529091529020805460ff19166001179055620005fa3390565b6001600160a01b0316816001600160a01b0316837f2f8788117e7eff1d82e926ec794901d17c78024a50270940304540a733656f0d60405160405180910390a45050565b600062000655836001600160a01b0384166200065e565b90505b92915050565b6000818152600183016020526040812054620006a75750815460018181018455600084815260208082209093018490558454848252828601909352604090209190915562000658565b50600062000658565b634e487b7160e01b600052604160045260246000fd5b600181811c90821680620006db57607f821691505b602082108103620006fc57634e487b7160e01b600052602260045260246000fd5b50919050565b601f8211156200022b57600081815260208120601f850160051c810160208610156200072b5750805b601f850160051c820191505b818110156200074c5782815560010162000737565b505050505050565b81516001600160401b03811115620007705762000770620006b0565b6200078881620007818454620006c6565b8462000702565b602080601f831160018114620007c05760008415620007a75750858301515b600019600386901b1c1916600185901b1785556200074c565b600085815260208120601f198616915b82811015620007f157888601518255948401946001909101908401620007d0565b5085821015620008105787850151600019600388901b60f8161c191681555b5050505050600190811b01905550565b61ffff8281168282160390808211156200084a57634e487b7160e01b600052601160045260246000fd5b5092915050565b61311280620008616000396000f3fe608060405234801561001057600080fd5b506004361061020b5760003560e01c80636352211e1161012a578063a217fddf116100bd578063ca15c8731161008c578063da3ef23f11610071578063da3ef23f146104c5578063e985e9c5146104d8578063f77c47911461051557600080fd5b8063ca15c8731461049f578063d547741f146104b257600080fd5b8063a217fddf1461045e578063a22cb46514610466578063b88d4fde14610479578063c87b56dd1461048c57600080fd5b806391d14854116100f957806391d14854146103e457806392eefe9b1461041d57806393867fb51461043057806395d89b411461045657600080fd5b80636352211e1461039857806370a08231146103ab5780638cd2403d146103be5780639010d07c146103d157600080fd5b806336568abe116101a257806343198ac41161017157806343198ac41461034357806349ade0961461036357806354fd4d501461037657806355f804b31461038557600080fd5b806336568abe146102f757806340c10f191461030a57806342842e0e1461031d57806342966c681461033057600080fd5b806323b872dd116101de57806323b872dd1461028d578063248a9ca3146102a05780632c8e0415146102d15780632f2ff15d146102e457600080fd5b806301ffc9a71461021057806306fdde0314610238578063081812fc1461024d578063095ea7b314610278575b600080fd5b61022361021e36600461287f565b610527565b60405190151581526020015b60405180910390f35b610240610538565b60405161022f91906128ec565b61026061025b3660046128ff565b6105ca565b6040516001600160a01b03909116815260200161022f565b61028b610286366004612934565b6105f1565b005b61028b61029b36600461295e565b610727565b6102c36102ae3660046128ff565b60009081526065602052604090206001015490565b60405190815260200161022f565b61028b6102df366004612a56565b6107ae565b61028b6102f2366004612aca565b6108d4565b61028b610305366004612aca565b6108f9565b61028b610318366004612934565b610985565b61028b61032b36600461295e565b610997565b61028b61033e3660046128ff565b6109b2565b610356610351366004612af6565b6109c6565b60405161022f9190612b29565b61028b610371366004612b6d565b610af6565b6040516002815260200161022f565b61028b610393366004612b88565b610b7a565b6102606103a63660046128ff565b610be1565b6102c36103b9366004612bbd565b610c46565b61028b6103cc366004612bd8565b610ce0565b6102606103df366004612c4a565b610d4b565b6102236103f2366004612aca565b60009182526065602090815260408084206001600160a01b0393909316845291905290205460ff1690565b61028b61042b366004612bbd565b610d6a565b7f2172861495e7b85edac73e3cd5fbb42dd675baadf627720e687bcfdaca0250966102c3565b610240610e08565b6102c3600081565b61028b610474366004612c6c565b610e17565b61028b610487366004612c96565b610e22565b61024061049a3660046128ff565b610eaa565b6102c36104ad3660046128ff565b610f27565b61028b6104c0366004612aca565b610f3e565b61028b6104d3366004612b88565b610f63565b6102236104e6366004612d12565b6001600160a01b0391821660009081526101006020908152604080832093909416825291909152205460ff1690565b610131546001600160a01b0316610260565b600061053282610fca565b92915050565b606060fb805461054790612d3c565b80601f016020809104026020016040519081016040528092919081815260200182805461057390612d3c565b80156105c05780601f10610595576101008083540402835291602001916105c0565b820191906000526020600020905b8154815290600101906020018083116105a357829003601f168201915b5050505050905090565b60006105d58261103c565b50600090815260ff60205260409020546001600160a01b031690565b60006105fc82610be1565b9050806001600160a01b0316836001600160a01b03160361068a5760405162461bcd60e51b815260206004820152602160248201527f4552433732313a20617070726f76616c20746f2063757272656e74206f776e6560448201527f720000000000000000000000000000000000000000000000000000000000000060648201526084015b60405180910390fd5b336001600160a01b03821614806106a657506106a681336104e6565b6107185760405162461bcd60e51b815260206004820152603d60248201527f4552433732313a20617070726f76652063616c6c6572206973206e6f7420746f60448201527f6b656e206f776e6572206f7220617070726f76656420666f7220616c6c0000006064820152608401610681565b61072283836110a0565b505050565b610731338261111b565b6107a35760405162461bcd60e51b815260206004820152602d60248201527f4552433732313a2063616c6c6572206973206e6f7420746f6b656e206f776e6560448201527f72206f7220617070726f766564000000000000000000000000000000000000006064820152608401610681565b61072283838361119b565b600054610100900460ff16158080156107ce5750600054600160ff909116105b806107e85750303b1580156107e8575060005460ff166001145b61085a5760405162461bcd60e51b815260206004820152602e60248201527f496e697469616c697a61626c653a20636f6e747261637420697320616c72656160448201527f647920696e697469616c697a65640000000000000000000000000000000000006064820152608401610681565b6000805460ff19166001179055801561087d576000805461ff0019166101001790555b6108888484846113de565b80156108ce576000805461ff0019169055604051600181527f7f26b83ff96e1f2b6a682f133852f6798a09c465da95921460cefb38474024989060200160405180910390a15b50505050565b6000828152606560205260409020600101546108ef816114b3565b61072283836114bd565b6001600160a01b03811633146109775760405162461bcd60e51b815260206004820152602f60248201527f416363657373436f6e74726f6c3a2063616e206f6e6c792072656e6f756e636560448201527f20726f6c657320666f722073656c6600000000000000000000000000000000006064820152608401610681565b61098182826114df565b5050565b61098d611501565b6109818282611548565b61072283838360405180602001604052806000815250610e22565b6109ba611501565b6109c381611562565b50565b6060836109d281611612565b6001600160a01b038516600090815261013060205260408120906109f582611652565b9050841580610a0357508085115b15610a0c578094505b84861115610a46576040517f2cd4dad300000000000000000000000000000000000000000000000000000000815260040160405180910390fd5b6000610a528787612d8c565b905060008167ffffffffffffffff811115610a6f57610a6f6129aa565b604051908082528060200260200182016040528015610a98578160200160208202803683370190505b50905060005b82811015610ae957610aba610ab3828b612d9f565b869061165c565b828281518110610acc57610acc612db2565b602090810291909101015280610ae181612dc8565b915050610a9e565b5098975050505050505050565b610b207f2172861495e7b85edac73e3cd5fbb42dd675baadf627720e687bcfdaca02509633611668565b61012d5460ff161515811515146109c35761012d805460ff19168215159081179091556040519081527f97b12620440c99b10431803699fdba59f6ada913f01df22599100da54860f045906020015b60405180910390a150565b610ba47f2172861495e7b85edac73e3cd5fbb42dd675baadf627720e687bcfdaca02509633611668565b61012e610bb18282612e30565b507f6741b2fc379fad678116fe3d4d4b9a1a184ab53ba36b86ad0fa66340b1ab41ad81604051610b6f91906128ec565b600081815260fd60205260408120546001600160a01b0316806105325760405162461bcd60e51b815260206004820152601860248201527f4552433732313a20696e76616c696420746f6b656e20494400000000000000006044820152606401610681565b60006001600160a01b038216610cc45760405162461bcd60e51b815260206004820152602960248201527f4552433732313a2061646472657373207a65726f206973206e6f74206120766160448201527f6c6964206f776e657200000000000000000000000000000000000000000000006064820152608401610681565b506001600160a01b0316600090815260fe602052604090205490565b60c954600090610cf59061ffff166001612ef0565b905061ffff8116600214610d35576040517f0dc149f000000000000000000000000000000000000000000000000000000000815260040160405180910390fd5b60c9805461ffff191661ffff8316179055505050565b6000828152609760205260408120610d63908361165c565b9392505050565b610d947f2172861495e7b85edac73e3cd5fbb42dd675baadf627720e687bcfdaca02509633611668565b610131546001600160a01b031615610dd8576040517fca231c2300000000000000000000000000000000000000000000000000000000815260040160405180910390fd5b610131805473ffffffffffffffffffffffffffffffffffffffff19166001600160a01b0392909216919091179055565b606060fc805461054790612d3c565b6109813383836116c4565b610e2c338361111b565b610e9e5760405162461bcd60e51b815260206004820152602d60248201527f4552433732313a2063616c6c6572206973206e6f7420746f6b656e206f776e6560448201527f72206f7220617070726f766564000000000000000000000000000000000000006064820152608401610681565b6108ce84848484611793565b6060610eb58261103c565b6000610ebf61181c565b61012d5490915060ff1615610ed45792915050565b805115610f115780610ee58461182c565b61012f604051602001610efa93929190612f0b565b604051602081830303815290604052915050919050565b5050604080516020810190915260008152919050565b600081815260976020526040812061053290611652565b600082815260656020526040902060010154610f59816114b3565b61072283836114df565b610f8d7f2172861495e7b85edac73e3cd5fbb42dd675baadf627720e687bcfdaca02509633611668565b61012f610f9a8282612e30565b507f497a2ce104c6e48bc47b6b9084280dcda949acc005c5e715f19a96de56781ada81604051610b6f91906128ec565b60006001600160e01b031982167f80ac58cd00000000000000000000000000000000000000000000000000000000148061102d57506001600160e01b031982167f5b5e139f00000000000000000000000000000000000000000000000000000000145b806105325750610532826118cc565b600081815260fd60205260409020546001600160a01b03166109c35760405162461bcd60e51b815260206004820152601860248201527f4552433732313a20696e76616c696420746f6b656e20494400000000000000006044820152606401610681565b600081815260ff60205260409020805473ffffffffffffffffffffffffffffffffffffffff19166001600160a01b03841690811790915581906110e282610be1565b6001600160a01b03167f8c5be1e5ebec7d5bd14f71427d1e84f3dd0314c0f7b2291e5b200ac8c7c3b92560405160405180910390a45050565b60008061112783610be1565b9050806001600160a01b0316846001600160a01b0316148061116f57506001600160a01b038082166000908152610100602090815260408083209388168352929052205460ff165b806111935750836001600160a01b0316611188846105ca565b6001600160a01b0316145b949350505050565b826001600160a01b03166111ae82610be1565b6001600160a01b03161461122a5760405162461bcd60e51b815260206004820152602560248201527f4552433732313a207472616e736665722066726f6d20696e636f72726563742060448201527f6f776e65720000000000000000000000000000000000000000000000000000006064820152608401610681565b6001600160a01b0382166112a55760405162461bcd60e51b8152602060048201526024808201527f4552433732313a207472616e7366657220746f20746865207a65726f2061646460448201527f72657373000000000000000000000000000000000000000000000000000000006064820152608401610681565b6112b2838383600161190a565b826001600160a01b03166112c582610be1565b6001600160a01b0316146113415760405162461bcd60e51b815260206004820152602560248201527f4552433732313a207472616e736665722066726f6d20696e636f72726563742060448201527f6f776e65720000000000000000000000000000000000000000000000000000006064820152608401610681565b600081815260ff60209081526040808320805473ffffffffffffffffffffffffffffffffffffffff199081169091556001600160a01b0387811680865260fe855283862080546000190190559087168086528386208054600101905586865260fd90945282852080549092168417909155905184937fddf252ad1be2c89b69c2b068fc378daa952ba7f163c4a11628f55a4df523b3ef91a4505050565b600054610100900460ff166114495760405162461bcd60e51b815260206004820152602b60248201527f496e697469616c697a61626c653a20636f6e7472616374206973206e6f74206960448201526a6e697469616c697a696e6760a81b6064820152608401610681565b611451611a34565b6114a86040518060600160405280602181526020016130e5602191396040518060400160405280600c81526020017f434152424f4e2d53545241540000000000000000000000000000000000000000815250611aaf565b610722838383611b24565b6109c38133611bb9565b6114c78282611c2e565b60008281526097602052604090206107229082611cd0565b6114e98282611ce5565b60008281526097602052604090206107229082611d68565b610131546001600160a01b03163314611546576040517f5990781300000000000000000000000000000000000000000000000000000000815260040160405180910390fd5b565b610981828260405180602001604052806000815250611d7d565b600061156d82610be1565b905061157d81600084600161190a565b61158682610be1565b600083815260ff60209081526040808320805473ffffffffffffffffffffffffffffffffffffffff199081169091556001600160a01b03851680855260fe8452828520805460001901905587855260fd909352818420805490911690555192935084927fddf252ad1be2c89b69c2b068fc378daa952ba7f163c4a11628f55a4df523b3ef908390a45050565b6001600160a01b0381166109c3576040517fe6c4247b00000000000000000000000000000000000000000000000000000000815260040160405180910390fd5b6000610532825490565b6000610d638383611e06565b60008281526065602090815260408083206001600160a01b038516845290915290205460ff16610981576040517f4ca8886700000000000000000000000000000000000000000000000000000000815260040160405180910390fd5b816001600160a01b0316836001600160a01b0316036117255760405162461bcd60e51b815260206004820152601960248201527f4552433732313a20617070726f766520746f2063616c6c6572000000000000006044820152606401610681565b6001600160a01b0383811660008181526101006020908152604080832094871680845294825291829020805460ff191686151590811790915591519182527f17307eab39ab6107e8899845ad3d59bd9653f200f220920489ca2b5937696c31910160405180910390a3505050565b61179e84848461119b565b6117aa84848484611e30565b6108ce5760405162461bcd60e51b815260206004820152603260248201527f4552433732313a207472616e7366657220746f206e6f6e20455243373231526560448201527f63656976657220696d706c656d656e74657200000000000000000000000000006064820152608401610681565b606061012e805461054790612d3c565b6060600061183983611fb9565b600101905060008167ffffffffffffffff811115611859576118596129aa565b6040519080825280601f01601f191660200182016040528015611883576020820181803683370190505b5090508181016020015b600019017f3031323334353637383961626364656600000000000000000000000000000000600a86061a8153600a850494508461188d57509392505050565b60006001600160e01b031982167f5a05180f00000000000000000000000000000000000000000000000000000000148061053257506105328261209b565b6001811115611945576040517f05fbc73900000000000000000000000000000000000000000000000000000000815260040160405180910390fd5b6001600160a01b03841661197c576001600160a01b0383166000908152610130602052604090206119769083612102565b506119ba565b826001600160a01b0316846001600160a01b0316146119ba576001600160a01b0384166000908152610130602052604090206119b8908361210e565b505b6001600160a01b0383166119f1576001600160a01b0384166000908152610130602052604090206119eb908361210e565b506108ce565b836001600160a01b0316836001600160a01b0316146108ce576001600160a01b038316600090815261013060205260409020611a2d9083612102565b5050505050565b600054610100900460ff16611a9f5760405162461bcd60e51b815260206004820152602b60248201527f496e697469616c697a61626c653a20636f6e7472616374206973206e6f74206960448201526a6e697469616c697a696e6760a81b6064820152608401610681565b611aa761211a565b611546612185565b600054610100900460ff16611b1a5760405162461bcd60e51b815260206004820152602b60248201527f496e697469616c697a61626c653a20636f6e7472616374206973206e6f74206960448201526a6e697469616c697a696e6760a81b6064820152608401610681565b6109818282612266565b600054610100900460ff16611b8f5760405162461bcd60e51b815260206004820152602b60248201527f496e697469616c697a61626c653a20636f6e7472616374206973206e6f74206960448201526a6e697469616c697a696e6760a81b6064820152608401610681565b61012d805460ff191684151517905561012e611bab8382612e30565b5061012f6108ce8282612e30565b60008281526065602090815260408083206001600160a01b038516845290915290205460ff1661098157611bec816122ea565b611bf78360206122fc565b604051602001611c08929190612fab565b60408051601f198184030181529082905262461bcd60e51b8252610681916004016128ec565b60008281526065602090815260408083206001600160a01b038516845290915290205460ff166109815760008281526065602090815260408083206001600160a01b03851684529091529020805460ff19166001179055611c8c3390565b6001600160a01b0316816001600160a01b0316837f2f8788117e7eff1d82e926ec794901d17c78024a50270940304540a733656f0d60405160405180910390a45050565b6000610d63836001600160a01b038416612525565b60008281526065602090815260408083206001600160a01b038516845290915290205460ff16156109815760008281526065602090815260408083206001600160a01b0385168085529252808320805460ff1916905551339285917ff6391f5c32d9c69d2a47ea670b442974b53935d1edc7fd64eb21e047a839171b9190a45050565b6000610d63836001600160a01b038416612574565b611d87838361266e565b611d946000848484611e30565b6107225760405162461bcd60e51b815260206004820152603260248201527f4552433732313a207472616e7366657220746f206e6f6e20455243373231526560448201527f63656976657220696d706c656d656e74657200000000000000000000000000006064820152608401610681565b6000826000018281548110611e1d57611e1d612db2565b9060005260206000200154905092915050565b60006001600160a01b0384163b15611fae576040517f150b7a020000000000000000000000000000000000000000000000000000000081526001600160a01b0385169063150b7a0290611e8d90339089908890889060040161302c565b6020604051808303816000875af1925050508015611ec8575060408051601f3d908101601f19168201909252611ec591810190613068565b60015b611f7b573d808015611ef6576040519150601f19603f3d011682016040523d82523d6000602084013e611efb565b606091505b508051600003611f735760405162461bcd60e51b815260206004820152603260248201527f4552433732313a207472616e7366657220746f206e6f6e20455243373231526560448201527f63656976657220696d706c656d656e74657200000000000000000000000000006064820152608401610681565b805181602001fd5b6001600160e01b0319167f150b7a0200000000000000000000000000000000000000000000000000000000149050611193565b506001949350505050565b6000807a184f03e93ff9f4daa797ed6e38ed64bf6a1f0100000000000000008310612002577a184f03e93ff9f4daa797ed6e38ed64bf6a1f010000000000000000830492506040015b6d04ee2d6d415b85acef8100000000831061202e576d04ee2d6d415b85acef8100000000830492506020015b662386f26fc10000831061204c57662386f26fc10000830492506010015b6305f5e1008310612064576305f5e100830492506008015b612710831061207857612710830492506004015b6064831061208a576064830492506002015b600a83106105325760010192915050565b60006001600160e01b031982167f7965db0b00000000000000000000000000000000000000000000000000000000148061053257507f01ffc9a7000000000000000000000000000000000000000000000000000000006001600160e01b0319831614610532565b6000610d638383612525565b6000610d638383612574565b600054610100900460ff166115465760405162461bcd60e51b815260206004820152602b60248201527f496e697469616c697a61626c653a20636f6e7472616374206973206e6f74206960448201526a6e697469616c697a696e6760a81b6064820152608401610681565b600054610100900460ff166121f05760405162461bcd60e51b815260206004820152602b60248201527f496e697469616c697a61626c653a20636f6e7472616374206973206e6f74206960448201526a6e697469616c697a696e6760a81b6064820152608401610681565b6121fc60016002613085565b60c9805461ffff191661ffff9290921691909117905561223c7f2172861495e7b85edac73e3cd5fbb42dd675baadf627720e687bcfdaca02509680612814565b6115467f2172861495e7b85edac73e3cd5fbb42dd675baadf627720e687bcfdaca0250963361285f565b600054610100900460ff166122d15760405162461bcd60e51b815260206004820152602b60248201527f496e697469616c697a61626c653a20636f6e7472616374206973206e6f74206960448201526a6e697469616c697a696e6760a81b6064820152608401610681565b60fb6122dd8382612e30565b5060fc6107228282612e30565b60606105326001600160a01b03831660145b6060600061230b8360026130a0565b612316906002612d9f565b67ffffffffffffffff81111561232e5761232e6129aa565b6040519080825280601f01601f191660200182016040528015612358576020820181803683370190505b5090507f30000000000000000000000000000000000000000000000000000000000000008160008151811061238f5761238f612db2565b60200101907effffffffffffffffffffffffffffffffffffffffffffffffffffffffffffff1916908160001a9053507f7800000000000000000000000000000000000000000000000000000000000000816001815181106123f2576123f2612db2565b60200101907effffffffffffffffffffffffffffffffffffffffffffffffffffffffffffff1916908160001a905350600061242e8460026130a0565b612439906001612d9f565b90505b60018111156124d6577f303132333435363738396162636465660000000000000000000000000000000085600f166010811061247a5761247a612db2565b1a60f81b82828151811061249057612490612db2565b60200101907effffffffffffffffffffffffffffffffffffffffffffffffffffffffffffff1916908160001a90535060049490941c936124cf816130b7565b905061243c565b508315610d635760405162461bcd60e51b815260206004820181905260248201527f537472696e67733a20686578206c656e67746820696e73756666696369656e746044820152606401610681565b600081815260018301602052604081205461256c57508154600181810184556000848152602080822090930184905584548482528286019093526040902091909155610532565b506000610532565b6000818152600183016020526040812054801561265d576000612598600183612d8c565b85549091506000906125ac90600190612d8c565b90508181146126115760008660000182815481106125cc576125cc612db2565b90600052602060002001549050808760000184815481106125ef576125ef612db2565b6000918252602080832090910192909255918252600188019052604090208390555b8554869080612622576126226130ce565b600190038181906000526020600020016000905590558560010160008681526020019081526020016000206000905560019350505050610532565b6000915050610532565b5092915050565b6001600160a01b0382166126c45760405162461bcd60e51b815260206004820181905260248201527f4552433732313a206d696e7420746f20746865207a65726f20616464726573736044820152606401610681565b600081815260fd60205260409020546001600160a01b0316156127295760405162461bcd60e51b815260206004820152601c60248201527f4552433732313a20746f6b656e20616c7265616479206d696e746564000000006044820152606401610681565b61273760008383600161190a565b600081815260fd60205260409020546001600160a01b03161561279c5760405162461bcd60e51b815260206004820152601c60248201527f4552433732313a20746f6b656e20616c7265616479206d696e746564000000006044820152606401610681565b6001600160a01b038216600081815260fe602090815260408083208054600101905584835260fd909152808220805473ffffffffffffffffffffffffffffffffffffffff19168417905551839291907fddf252ad1be2c89b69c2b068fc378daa952ba7f163c4a11628f55a4df523b3ef908290a45050565b600082815260656020526040808220600101805490849055905190918391839186917fbd79b86ffe0ab8e8776151514217cd7cacd52c909f66475c3af44e129f0b00ff9190a4505050565b61098182826114bd565b6001600160e01b0319811681146109c357600080fd5b60006020828403121561289157600080fd5b8135610d6381612869565b60005b838110156128b757818101518382015260200161289f565b50506000910152565b600081518084526128d881602086016020860161289c565b601f01601f19169290920160200192915050565b602081526000610d6360208301846128c0565b60006020828403121561291157600080fd5b5035919050565b80356001600160a01b038116811461292f57600080fd5b919050565b6000806040838503121561294757600080fd5b61295083612918565b946020939093013593505050565b60008060006060848603121561297357600080fd5b61297c84612918565b925061298a60208501612918565b9150604084013590509250925092565b8035801515811461292f57600080fd5b634e487b7160e01b600052604160045260246000fd5b600067ffffffffffffffff808411156129db576129db6129aa565b604051601f8501601f19908116603f01168101908282118183101715612a0357612a036129aa565b81604052809350858152868686011115612a1c57600080fd5b858560208301376000602087830101525050509392505050565b600082601f830112612a4757600080fd5b610d63838335602085016129c0565b600080600060608486031215612a6b57600080fd5b612a748461299a565b9250602084013567ffffffffffffffff80821115612a9157600080fd5b612a9d87838801612a36565b93506040860135915080821115612ab357600080fd5b50612ac086828701612a36565b9150509250925092565b60008060408385031215612add57600080fd5b82359150612aed60208401612918565b90509250929050565b600080600060608486031215612b0b57600080fd5b612b1484612918565b95602085013595506040909401359392505050565b6020808252825182820181905260009190848201906040850190845b81811015612b6157835183529284019291840191600101612b45565b50909695505050505050565b600060208284031215612b7f57600080fd5b610d638261299a565b600060208284031215612b9a57600080fd5b813567ffffffffffffffff811115612bb157600080fd5b61119384828501612a36565b600060208284031215612bcf57600080fd5b610d6382612918565b60008060208385031215612beb57600080fd5b823567ffffffffffffffff80821115612c0357600080fd5b818501915085601f830112612c1757600080fd5b813581811115612c2657600080fd5b866020828501011115612c3857600080fd5b60209290920196919550909350505050565b60008060408385031215612c5d57600080fd5b50508035926020909101359150565b60008060408385031215612c7f57600080fd5b612c8883612918565b9150612aed6020840161299a565b60008060008060808587031215612cac57600080fd5b612cb585612918565b9350612cc360208601612918565b925060408501359150606085013567ffffffffffffffff811115612ce657600080fd5b8501601f81018713612cf757600080fd5b612d06878235602084016129c0565b91505092959194509250565b60008060408385031215612d2557600080fd5b612d2e83612918565b9150612aed60208401612918565b600181811c90821680612d5057607f821691505b602082108103612d7057634e487b7160e01b600052602260045260246000fd5b50919050565b634e487b7160e01b600052601160045260246000fd5b8181038181111561053257610532612d76565b8082018082111561053257610532612d76565b634e487b7160e01b600052603260045260246000fd5b60006000198203612ddb57612ddb612d76565b5060010190565b601f82111561072257600081815260208120601f850160051c81016020861015612e095750805b601f850160051c820191505b81811015612e2857828155600101612e15565b505050505050565b815167ffffffffffffffff811115612e4a57612e4a6129aa565b612e5e81612e588454612d3c565b84612de2565b602080601f831160018114612e935760008415612e7b5750858301515b600019600386901b1c1916600185901b178555612e28565b600085815260208120601f198616915b82811015612ec257888601518255948401946001909101908401612ea3565b5085821015612ee05787850151600019600388901b60f8161c191681555b5050505050600190811b01905550565b61ffff81811683821601908082111561266757612667612d76565b600084516020612f1e8285838a0161289c565b855191840191612f318184848a0161289c565b8554920191600090612f4281612d3c565b60018281168015612f5a5760018114612f6f57612f9b565b60ff1984168752821515830287019450612f9b565b896000528560002060005b84811015612f9357815489820152908301908701612f7a565b505082870194505b50929a9950505050505050505050565b7f416363657373436f6e74726f6c3a206163636f756e7420000000000000000000815260008351612fe381601785016020880161289c565b7f206973206d697373696e6720726f6c6520000000000000000000000000000000601791840191820152835161302081602884016020880161289c565b01602801949350505050565b60006001600160a01b0380871683528086166020840152508360408301526080606083015261305e60808301846128c0565b9695505050505050565b60006020828403121561307a57600080fd5b8151610d6381612869565b61ffff82811682821603908082111561266757612667612d76565b808202811582820484141761053257610532612d76565b6000816130c6576130c6612d76565b506000190190565b634e487b7160e01b600052603160045260246000fdfe436172626f6e204175746f6d617465642054726164696e67205374726174656779a164736f6c6343000813000a436172626f6e204175746f6d617465642054726164696e67205374726174656779697066733a2f2f516d557944557a51747741684d4231687259615141716d52546267743973556e77713131476571797a7a5375716e2172861495e7b85edac73e3cd5fbb42dd675baadf627720e687bcfdaca025096496e697469616c697a61626c653a20636f6e7472616374206973206e6f742069",
  "devdoc": {
    "events": {
      "Approval(address,address,uint256)": {
        "details": "Emitted when `owner` enables `approved` to manage the `tokenId` token."
      },
      "ApprovalForAll(address,address,bool)": {
        "details": "Emitted when `owner` enables or disables (`approved`) `operator` to manage all of its assets."
      },
      "BaseExtensionUpdated(string)": {
        "details": "triggered when updating the baseExtension"
      },
      "BaseURIUpdated(string)": {
        "details": "triggered when updating the baseURI"
      },
      "Initialized(uint8)": {
        "details": "Triggered when the contract has been initialized or reinitialized."
      },
      "RoleAdminChanged(bytes32,bytes32,bytes32)": {
        "details": "Emitted when `newAdminRole` is set as ``role``'s admin role, replacing `previousAdminRole` `DEFAULT_ADMIN_ROLE` is the starting admin for all roles, despite {RoleAdminChanged} not being emitted signaling this. _Available since v3.1._"
      },
      "RoleGranted(bytes32,address,address)": {
        "details": "Emitted when `account` is granted `role`. `sender` is the account that originated the contract call, an admin role bearer except when using {AccessControl-_setupRole}."
      },
      "RoleRevoked(bytes32,address,address)": {
        "details": "Emitted when `account` is revoked `role`. `sender` is the account that originated the contract call:   - if using `revokeRole`, it is the admin role bearer   - if using `renounceRole`, it is the role bearer (i.e. `account`)"
      },
      "Transfer(address,address,uint256)": {
        "details": "Emitted when `tokenId` token is transferred from `from` to `to`."
      },
      "UseGlobalURIUpdated(bool)": {
        "details": "triggered when updating useGlobalURI"
      }
    },
    "kind": "dev",
    "methods": {
      "approve(address,uint256)": {
        "details": "See {IERC721-approve}."
      },
      "balanceOf(address)": {
        "details": "See {IERC721-balanceOf}."
      },
      "burn(uint256)": {
        "details": "destroys the voucher token for the given strategyId requirements: - the caller must be the controller address"
      },
      "constructor": {
        "details": "used to initialize the implementation"
      },
      "controller()": {
        "details": "returns the controller address"
      },
      "getApproved(uint256)": {
        "details": "See {IERC721-getApproved}."
      },
      "getRoleAdmin(bytes32)": {
        "details": "Returns the admin role that controls `role`. See {grantRole} and {revokeRole}. To change a role's admin, use {_setRoleAdmin}."
      },
      "getRoleMember(bytes32,uint256)": {
        "details": "Returns one of the accounts that have `role`. `index` must be a value between 0 and {getRoleMemberCount}, non-inclusive. Role bearers are not sorted in any particular way, and their ordering may change at any point. WARNING: When using {getRoleMember} and {getRoleMemberCount}, make sure you perform all queries on the same block. See the following https://forum.openzeppelin.com/t/iterating-over-elements-on-enumerableset-in-openzeppelin-contracts/2296[forum post] for more information."
      },
      "getRoleMemberCount(bytes32)": {
        "details": "Returns the number of accounts that have `role`. Can be used together with {getRoleMember} to enumerate all bearers of a role."
      },
      "grantRole(bytes32,address)": {
        "details": "Grants `role` to `account`. If `account` had not been already granted `role`, emits a {RoleGranted} event. Requirements: - the caller must have ``role``'s admin role. May emit a {RoleGranted} event."
      },
      "hasRole(bytes32,address)": {
        "details": "Returns `true` if `account` has been granted `role`."
      },
      "initialize(bool,string,string)": {
        "details": "fully initializes the contract and its parents"
      },
      "isApprovedForAll(address,address)": {
        "details": "See {IERC721-isApprovedForAll}."
      },
      "mint(address,uint256)": {
        "details": "creates a new voucher token for the given strategyId, transfers it to the owner requirements: - the caller must be the controller address"
      },
      "name()": {
        "details": "See {IERC721Metadata-name}."
      },
      "ownerOf(uint256)": {
        "details": "See {IERC721-ownerOf}."
      },
      "postUpgrade(bytes)": {
        "details": "performs post-upgrade initialization requirements: - this must and can be called only once per-upgrade"
      },
      "renounceRole(bytes32,address)": {
        "details": "Revokes `role` from the calling account. Roles are often managed via {grantRole} and {revokeRole}: this function's purpose is to provide a mechanism for accounts to lose their privileges if they are compromised (such as when a trusted device is misplaced). If the calling account had been revoked `role`, emits a {RoleRevoked} event. Requirements: - the caller must be `account`. May emit a {RoleRevoked} event."
      },
      "revokeRole(bytes32,address)": {
        "details": "Revokes `role` from `account`. If `account` had been granted `role`, emits a {RoleRevoked} event. Requirements: - the caller must have ``role``'s admin role. May emit a {RoleRevoked} event."
      },
      "roleAdmin()": {
        "details": "returns the admin role"
      },
      "safeTransferFrom(address,address,uint256)": {
        "details": "See {IERC721-safeTransferFrom}."
      },
      "safeTransferFrom(address,address,uint256,bytes)": {
        "details": "See {IERC721-safeTransferFrom}."
      },
      "setApprovalForAll(address,bool)": {
        "details": "See {IERC721-setApprovalForAll}."
      },
      "setBaseExtension(string)": {
        "details": "sets the base extension requirements: - the caller must be the admin of this contract"
      },
      "setBaseURI(string)": {
        "details": "sets the base URI requirements: - the caller must be the admin of this contract"
      },
      "setController(address)": {
        "details": "sets the controller address requirements: - the caller must be the admin of this contract - controller address must not be set"
      },
      "supportsInterface(bytes4)": {
        "details": "Returns true if this contract implements the interface defined by `interfaceId`. See the corresponding https://eips.ethereum.org/EIPS/eip-165#how-interfaces-are-identified[EIP section] to learn more about how these ids are created. This function call must use less than 30 000 gas."
      },
      "symbol()": {
        "details": "See {IERC721Metadata-symbol}."
      },
      "tokenURI(uint256)": {
        "details": "depending on the useGlobalURI flag, returns a unique URI point to a json representing the voucher, or a URI of a global json used for all tokens"
      },
      "tokensByOwner(address,uint256,uint256)": {
        "details": "returns a list of tokenIds belonging to the given owner note that for the full list of tokenIds pass 0 to both startIndex and endIndex"
      },
      "transferFrom(address,address,uint256)": {
        "details": "See {IERC721-transferFrom}."
      },
      "useGlobalURI(bool)": {
        "details": "sets the useGlobalURI flag requirements: - the caller must be the admin of this contract"
      }
    },
    "version": 1
  },
  "userdoc": {
    "kind": "user",
    "methods": {},
    "version": 1
  },
  "storageLayout": {
    "storage": [
      {
        "astId": 588,
        "contract": "contracts/voucher/Voucher.sol:Voucher",
        "label": "_initialized",
        "offset": 0,
        "slot": "0",
        "type": "t_uint8"
      },
      {
        "astId": 591,
        "contract": "contracts/voucher/Voucher.sol:Voucher",
        "label": "_initializing",
        "offset": 1,
        "slot": "0",
        "type": "t_bool"
      },
      {
        "astId": 2318,
        "contract": "contracts/voucher/Voucher.sol:Voucher",
        "label": "__gap",
        "offset": 0,
        "slot": "1",
        "type": "t_array(t_uint256)50_storage"
      },
      {
        "astId": 2591,
        "contract": "contracts/voucher/Voucher.sol:Voucher",
        "label": "__gap",
        "offset": 0,
        "slot": "51",
        "type": "t_array(t_uint256)50_storage"
      },
      {
        "astId": 184,
        "contract": "contracts/voucher/Voucher.sol:Voucher",
        "label": "_roles",
        "offset": 0,
        "slot": "101",
        "type": "t_mapping(t_bytes32,t_struct(RoleData)179_storage)"
      },
      {
        "astId": 479,
        "contract": "contracts/voucher/Voucher.sol:Voucher",
        "label": "__gap",
        "offset": 0,
        "slot": "102",
        "type": "t_array(t_uint256)49_storage"
      },
      {
        "astId": 33,
        "contract": "contracts/voucher/Voucher.sol:Voucher",
        "label": "_roleMembers",
        "offset": 0,
        "slot": "151",
        "type": "t_mapping(t_bytes32,t_struct(AddressSet)3901_storage)"
      },
      {
        "astId": 143,
        "contract": "contracts/voucher/Voucher.sol:Voucher",
        "label": "__gap",
        "offset": 0,
        "slot": "152",
        "type": "t_array(t_uint256)49_storage"
      },
      {
        "astId": 21185,
        "contract": "contracts/voucher/Voucher.sol:Voucher",
        "label": "_initializations",
        "offset": 0,
        "slot": "201",
        "type": "t_uint16"
      },
      {
        "astId": 21191,
        "contract": "contracts/voucher/Voucher.sol:Voucher",
        "label": "__gap",
        "offset": 0,
        "slot": "202",
        "type": "t_array(t_uint256)49_storage"
      },
      {
        "astId": 863,
        "contract": "contracts/voucher/Voucher.sol:Voucher",
        "label": "_name",
        "offset": 0,
        "slot": "251",
        "type": "t_string_storage"
      },
      {
        "astId": 865,
        "contract": "contracts/voucher/Voucher.sol:Voucher",
        "label": "_symbol",
        "offset": 0,
        "slot": "252",
        "type": "t_string_storage"
      },
      {
        "astId": 869,
        "contract": "contracts/voucher/Voucher.sol:Voucher",
        "label": "_owners",
        "offset": 0,
        "slot": "253",
        "type": "t_mapping(t_uint256,t_address)"
      },
      {
        "astId": 873,
        "contract": "contracts/voucher/Voucher.sol:Voucher",
        "label": "_balances",
        "offset": 0,
        "slot": "254",
        "type": "t_mapping(t_address,t_uint256)"
      },
      {
        "astId": 877,
        "contract": "contracts/voucher/Voucher.sol:Voucher",
        "label": "_tokenApprovals",
        "offset": 0,
        "slot": "255",
        "type": "t_mapping(t_uint256,t_address)"
      },
      {
        "astId": 883,
        "contract": "contracts/voucher/Voucher.sol:Voucher",
        "label": "_operatorApprovals",
        "offset": 0,
        "slot": "256",
        "type": "t_mapping(t_address,t_mapping(t_address,t_bool))"
      },
      {
        "astId": 1785,
        "contract": "contracts/voucher/Voucher.sol:Voucher",
        "label": "__gap",
        "offset": 0,
        "slot": "257",
        "type": "t_array(t_uint256)44_storage"
      },
      {
        "astId": 24088,
        "contract": "contracts/voucher/Voucher.sol:Voucher",
        "label": "_useGlobalURI",
        "offset": 0,
        "slot": "301",
        "type": "t_bool"
      },
      {
        "astId": 24090,
        "contract": "contracts/voucher/Voucher.sol:Voucher",
        "label": "__baseURI",
        "offset": 0,
        "slot": "302",
        "type": "t_string_storage"
      },
      {
        "astId": 24092,
        "contract": "contracts/voucher/Voucher.sol:Voucher",
        "label": "_baseExtension",
        "offset": 0,
        "slot": "303",
        "type": "t_string_storage"
      },
      {
        "astId": 24097,
        "contract": "contracts/voucher/Voucher.sol:Voucher",
        "label": "_ownedTokens",
        "offset": 0,
        "slot": "304",
        "type": "t_mapping(t_address,t_struct(UintSet)11994_storage)"
      },
      {
        "astId": 24099,
        "contract": "contracts/voucher/Voucher.sol:Voucher",
        "label": "_controller",
        "offset": 0,
        "slot": "305",
        "type": "t_address"
      },
      {
        "astId": 24105,
        "contract": "contracts/voucher/Voucher.sol:Voucher",
        "label": "__gap",
        "offset": 0,
        "slot": "306",
        "type": "t_array(t_uint256)45_storage"
      }
    ],
    "types": {
      "t_address": {
        "encoding": "inplace",
        "label": "address",
        "numberOfBytes": "20"
      },
      "t_array(t_bytes32)dyn_storage": {
        "base": "t_bytes32",
        "encoding": "dynamic_array",
        "label": "bytes32[]",
        "numberOfBytes": "32"
      },
      "t_array(t_uint256)44_storage": {
        "base": "t_uint256",
        "encoding": "inplace",
        "label": "uint256[44]",
        "numberOfBytes": "1408"
      },
      "t_array(t_uint256)45_storage": {
        "base": "t_uint256",
        "encoding": "inplace",
        "label": "uint256[45]",
        "numberOfBytes": "1440"
      },
      "t_array(t_uint256)49_storage": {
        "base": "t_uint256",
        "encoding": "inplace",
        "label": "uint256[49]",
        "numberOfBytes": "1568"
      },
      "t_array(t_uint256)50_storage": {
        "base": "t_uint256",
        "encoding": "inplace",
        "label": "uint256[50]",
        "numberOfBytes": "1600"
      },
      "t_bool": {
        "encoding": "inplace",
        "label": "bool",
        "numberOfBytes": "1"
      },
      "t_bytes32": {
        "encoding": "inplace",
        "label": "bytes32",
        "numberOfBytes": "32"
      },
      "t_mapping(t_address,t_bool)": {
        "encoding": "mapping",
        "key": "t_address",
        "label": "mapping(address => bool)",
        "numberOfBytes": "32",
        "value": "t_bool"
      },
      "t_mapping(t_address,t_mapping(t_address,t_bool))": {
        "encoding": "mapping",
        "key": "t_address",
        "label": "mapping(address => mapping(address => bool))",
        "numberOfBytes": "32",
        "value": "t_mapping(t_address,t_bool)"
      },
      "t_mapping(t_address,t_struct(UintSet)11994_storage)": {
        "encoding": "mapping",
        "key": "t_address",
        "label": "mapping(address => struct EnumerableSet.UintSet)",
        "numberOfBytes": "32",
        "value": "t_struct(UintSet)11994_storage"
      },
      "t_mapping(t_address,t_uint256)": {
        "encoding": "mapping",
        "key": "t_address",
        "label": "mapping(address => uint256)",
        "numberOfBytes": "32",
        "value": "t_uint256"
      },
      "t_mapping(t_bytes32,t_struct(AddressSet)3901_storage)": {
        "encoding": "mapping",
        "key": "t_bytes32",
        "label": "mapping(bytes32 => struct EnumerableSetUpgradeable.AddressSet)",
        "numberOfBytes": "32",
        "value": "t_struct(AddressSet)3901_storage"
      },
      "t_mapping(t_bytes32,t_struct(RoleData)179_storage)": {
        "encoding": "mapping",
        "key": "t_bytes32",
        "label": "mapping(bytes32 => struct AccessControlUpgradeable.RoleData)",
        "numberOfBytes": "32",
        "value": "t_struct(RoleData)179_storage"
      },
      "t_mapping(t_bytes32,t_uint256)": {
        "encoding": "mapping",
        "key": "t_bytes32",
        "label": "mapping(bytes32 => uint256)",
        "numberOfBytes": "32",
        "value": "t_uint256"
      },
      "t_mapping(t_uint256,t_address)": {
        "encoding": "mapping",
        "key": "t_uint256",
        "label": "mapping(uint256 => address)",
        "numberOfBytes": "32",
        "value": "t_address"
      },
      "t_string_storage": {
        "encoding": "bytes",
        "label": "string",
        "numberOfBytes": "32"
      },
      "t_struct(AddressSet)3901_storage": {
        "encoding": "inplace",
        "label": "struct EnumerableSetUpgradeable.AddressSet",
        "members": [
          {
            "astId": 3900,
            "contract": "contracts/voucher/Voucher.sol:Voucher",
            "label": "_inner",
            "offset": 0,
            "slot": "0",
            "type": "t_struct(Set)3586_storage"
          }
        ],
        "numberOfBytes": "64"
      },
      "t_struct(RoleData)179_storage": {
        "encoding": "inplace",
        "label": "struct AccessControlUpgradeable.RoleData",
        "members": [
          {
            "astId": 176,
            "contract": "contracts/voucher/Voucher.sol:Voucher",
            "label": "members",
            "offset": 0,
            "slot": "0",
            "type": "t_mapping(t_address,t_bool)"
          },
          {
            "astId": 178,
            "contract": "contracts/voucher/Voucher.sol:Voucher",
            "label": "adminRole",
            "offset": 0,
            "slot": "1",
            "type": "t_bytes32"
          }
        ],
        "numberOfBytes": "64"
      },
      "t_struct(Set)11522_storage": {
        "encoding": "inplace",
        "label": "struct EnumerableSet.Set",
        "members": [
          {
            "astId": 11517,
            "contract": "contracts/voucher/Voucher.sol:Voucher",
            "label": "_values",
            "offset": 0,
            "slot": "0",
            "type": "t_array(t_bytes32)dyn_storage"
          },
          {
            "astId": 11521,
            "contract": "contracts/voucher/Voucher.sol:Voucher",
            "label": "_indexes",
            "offset": 0,
            "slot": "1",
            "type": "t_mapping(t_bytes32,t_uint256)"
          }
        ],
        "numberOfBytes": "64"
      },
      "t_struct(Set)3586_storage": {
        "encoding": "inplace",
        "label": "struct EnumerableSetUpgradeable.Set",
        "members": [
          {
            "astId": 3581,
            "contract": "contracts/voucher/Voucher.sol:Voucher",
            "label": "_values",
            "offset": 0,
            "slot": "0",
            "type": "t_array(t_bytes32)dyn_storage"
          },
          {
            "astId": 3585,
            "contract": "contracts/voucher/Voucher.sol:Voucher",
            "label": "_indexes",
            "offset": 0,
            "slot": "1",
            "type": "t_mapping(t_bytes32,t_uint256)"
          }
        ],
        "numberOfBytes": "64"
      },
      "t_struct(UintSet)11994_storage": {
        "encoding": "inplace",
        "label": "struct EnumerableSet.UintSet",
        "members": [
          {
            "astId": 11993,
            "contract": "contracts/voucher/Voucher.sol:Voucher",
            "label": "_inner",
            "offset": 0,
            "slot": "0",
            "type": "t_struct(Set)11522_storage"
          }
        ],
        "numberOfBytes": "64"
      },
      "t_uint16": {
        "encoding": "inplace",
        "label": "uint16",
        "numberOfBytes": "2"
      },
      "t_uint256": {
        "encoding": "inplace",
        "label": "uint256",
        "numberOfBytes": "32"
      },
      "t_uint8": {
        "encoding": "inplace",
        "label": "uint8",
        "numberOfBytes": "1"
      }
    }
  }
}