{
  "abi": [
    {
      "inputs": [
        {
          "internalType": "address",
          "name": "_logic",
          "type": "address"
        },
        {
          "internalType": "address",
          "name": "admin_",
          "type": "address"
        },
        {
          "internalType": "bytes",
          "name": "_data",
          "type": "bytes"
        }
      ],
      "stateMutability": "payable",
      "type": "constructor"
    },
    {
      "anonymous": false,
      "inputs": [
        {
          "indexed": false,
          "internalType": "address",
          "name": "previousAdmin",
          "type": "address"
        },
        {
          "indexed": false,
          "internalType": "address",
          "name": "newAdmin",
          "type": "address"
        }
      ],
      "name": "AdminChanged",
      "type": "event"
    },
    {
      "anonymous": false,
      "inputs": [
        {
          "indexed": true,
          "internalType": "address",
          "name": "beacon",
          "type": "address"
        }
      ],
      "name": "BeaconUpgraded",
      "type": "event"
    },
    {
      "anonymous": false,
      "inputs": [
        {
          "indexed": true,
          "internalType": "address",
          "name": "implementation",
          "type": "address"
        }
      ],
      "name": "Upgraded",
      "type": "event"
    },
    {
      "stateMutability": "payable",
      "type": "fallback"
    },
    {
      "inputs": [],
      "name": "admin",
      "outputs": [
        {
          "internalType": "address",
          "name": "admin_",
          "type": "address"
        }
      ],
      "stateMutability": "nonpayable",
      "type": "function"
    },
    {
      "inputs": [],
      "name": "implementation",
      "outputs": [
        {
          "internalType": "address",
          "name": "implementation_",
          "type": "address"
        }
      ],
      "stateMutability": "nonpayable",
      "type": "function"
    },
    {
      "inputs": [
        {
          "internalType": "address",
          "name": "newImplementation",
          "type": "address"
        }
      ],
      "name": "upgradeTo",
      "outputs": [],
      "stateMutability": "nonpayable",
      "type": "function"
    },
    {
      "inputs": [
        {
          "internalType": "address",
          "name": "newImplementation",
          "type": "address"
        },
        {
          "internalType": "bytes",
          "name": "data",
          "type": "bytes"
        }
      ],
      "name": "upgradeToAndCall",
      "outputs": [],
      "stateMutability": "payable",
      "type": "function"
    },
    {
      "stateMutability": "payable",
      "type": "receive"
    }
  ],
  "bytecode": {
    "object": "0x60a060405260405162000dd938038062000dd9833981016040819052620000269162000403565b82816200005560017f360894a13ba1a3210667c828492db98dca3e2076cc3735a920a3ca505d382bbd620004e3565b60008051602062000d928339815191521462000075576200007562000505565b62000083828260006200013c565b50620000b3905060017fb53127684a568b3173ae13b9f8a6016e243e63b6e8ee1178d6a717850b5d6104620004e3565b60008051602062000d7283398151915214620000d357620000d362000505565b6001600160a01b038216608081905260008051602062000d728339815191528381556040805160008152602081019390935290917f7e644d79422f17c01e4894b5f4f588d331ebfa28653d42ae832dc59e38c9798f910160405180910390a1505050506200056e565b62000147836200016e565b600082511180620001555750805b156200016957620001678383620001b0565b505b505050565b6200017981620001e1565b6040516001600160a01b038216907fbc7cd75a20ee27fd9adebab32041f755214dbc6bffa90cc0225b39da2e5c2d3b90600090a250565b6060620001d8838360405180606001604052806027815260200162000db26027913962000284565b90505b92915050565b6001600160a01b0381163b620002545760405162461bcd60e51b815260206004820152602d60248201527f455243313936373a206e657720696d706c656d656e746174696f6e206973206e60448201526c1bdd08184818dbdb9d1c9858dd609a1b60648201526084015b60405180910390fd5b60008051602062000d9283398151915280546001600160a01b0319166001600160a01b0392909216919091179055565b60606001600160a01b0384163b620002ee5760405162461bcd60e51b815260206004820152602660248201527f416464726573733a2064656c65676174652063616c6c20746f206e6f6e2d636f6044820152651b9d1c9858dd60d21b60648201526084016200024b565b600080856001600160a01b0316856040516200030b91906200051b565b600060405180830381855af49150503d806000811462000348576040519150601f19603f3d011682016040523d82523d6000602084013e6200034d565b606091505b509092509050620003608282866200036c565b925050505b9392505050565b606083156200037d57508162000365565b8251156200038e5782518084602001fd5b8160405162461bcd60e51b81526004016200024b919062000539565b80516001600160a01b0381168114620003c257600080fd5b919050565b634e487b7160e01b600052604160045260246000fd5b60005b83811015620003fa578181015183820152602001620003e0565b50506000910152565b6000806000606084860312156200041957600080fd5b6200042484620003aa565b92506200043460208501620003aa565b60408501519092506001600160401b03808211156200045257600080fd5b818601915086601f8301126200046757600080fd5b8151818111156200047c576200047c620003c7565b604051601f8201601f19908116603f01168101908382118183101715620004a757620004a7620003c7565b81604052828152896020848701011115620004c157600080fd5b620004d4836020830160208801620003dd565b80955050505050509250925092565b81810381811115620001db57634e487b7160e01b600052601160045260246000fd5b634e487b7160e01b600052600160045260246000fd5b600082516200052f818460208701620003dd565b9190910192915050565b60208152600082518060208401526200055a816040850160208701620003dd565b601f01601f19169190910160400192915050565b6080516107c6620005ac6000396000818160ef01528181610145015281816101c70152818161021101528181610242015261026601526107c66000f3fe6080604052600436106100435760003560e01c80633659cfe61461005a5780634f1ef2861461007a5780635c60da1b1461008d578063f851a440146100be57610052565b36610052576100506100d3565b005b6100506100d3565b34801561006657600080fd5b5061005061007536600461063a565b6100ed565b610050610088366004610655565b610143565b34801561009957600080fd5b506100a26101c3565b6040516001600160a01b03909116815260200160405180910390f35b3480156100ca57600080fd5b506100a261020d565b6100db610264565b6100eb6100e661032d565b610360565b565b7f00000000000000000000000000000000000000000000000000000000000000006001600160a01b0316330361013b5761013881604051806020016040528060008152506000610384565b50565b6101386100d3565b7f00000000000000000000000000000000000000000000000000000000000000006001600160a01b031633036101bb576101b68383838080601f01602080910402602001604051908101604052809392919081815260200183838082843760009201919091525060019250610384915050565b505050565b6101b66100d3565b60007f00000000000000000000000000000000000000000000000000000000000000006001600160a01b03163303610202576101fd61032d565b905090565b61020a6100d3565b90565b60007f00000000000000000000000000000000000000000000000000000000000000006001600160a01b0316330361020257507f000000000000000000000000000000000000000000000000000000000000000090565b7f00000000000000000000000000000000000000000000000000000000000000006001600160a01b031633036100eb5760405162461bcd60e51b815260206004820152604260248201527f5472616e73706172656e745570677261646561626c6550726f78793a2061646d60448201527f696e2063616e6e6f742066616c6c6261636b20746f2070726f7879207461726760648201527f6574000000000000000000000000000000000000000000000000000000000000608482015260a4015b60405180910390fd5b60006101fd7f360894a13ba1a3210667c828492db98dca3e2076cc3735a920a3ca505d382bbc546001600160a01b031690565b3660008037600080366000845af43d6000803e80801561037f573d6000f35b3d6000fd5b61038d836103af565b60008251118061039a5750805b156101b6576103a983836103ef565b50505050565b6103b88161041b565b6040516001600160a01b038216907fbc7cd75a20ee27fd9adebab32041f755214dbc6bffa90cc0225b39da2e5c2d3b90600090a250565b6060610414838360405180606001604052806027815260200161076a602791396104f1565b9392505050565b6001600160a01b0381163b6104985760405162461bcd60e51b815260206004820152602d60248201527f455243313936373a206e657720696d706c656d656e746174696f6e206973206e60448201527f6f74206120636f6e7472616374000000000000000000000000000000000000006064820152608401610324565b7f360894a13ba1a3210667c828492db98dca3e2076cc3735a920a3ca505d382bbc80547fffffffffffffffffffffffff0000000000000000000000000000000000000000166001600160a01b0392909216919091179055565b60606001600160a01b0384163b6105705760405162461bcd60e51b815260206004820152602660248201527f416464726573733a2064656c65676174652063616c6c20746f206e6f6e2d636f60448201527f6e747261637400000000000000000000000000000000000000000000000000006064820152608401610324565b600080856001600160a01b03168560405161058b91906106fc565b600060405180830381855af49150503d80600081146105c6576040519150601f19603f3d011682016040523d82523d6000602084013e6105cb565b606091505b50915091506105db8282866105e5565b9695505050505050565b606083156105f4575081610414565b8251156106045782518084602001fd5b8160405162461bcd60e51b81526004016103249190610718565b80356001600160a01b038116811461063557600080fd5b919050565b60006020828403121561064c57600080fd5b6104148261061e565b60008060006040848603121561066a57600080fd5b6106738461061e565b9250602084013567ffffffffffffffff8082111561069057600080fd5b818601915086601f8301126106a457600080fd5b8135818111156106b357600080fd5b8760208285010111156106c557600080fd5b6020830194508093505050509250925092565b60005b838110156106f35781810151838201526020016106db565b50506000910152565b6000825161070e8184602087016106d8565b9190910192915050565b60208152600082518060208401526107378160408501602087016106d8565b601f017fffffffffffffffffffffffffffffffffffffffffffffffffffffffffffffffe016919091016040019291505056fe416464726573733a206c6f772d6c6576656c2064656c65676174652063616c6c206661696c6564a2646970667358221220f6ef2c8cbe7623eb27a218184fa4550146918e7716f884b715e31a1dd0fcc8f164736f6c63430008130033b53127684a568b3173ae13b9f8a6016e243e63b6e8ee1178d6a717850b5d6103360894a13ba1a3210667c828492db98dca3e2076cc3735a920a3ca505d382bbc416464726573733a206c6f772d6c6576656c2064656c65676174652063616c6c206661696c6564",
    "linkReferences": {}
  },
  "methodIdentifiers": {
    "admin()": "f851a440",
    "implementation()": "5c60da1b",
    "upgradeTo(address)": "3659cfe6",
    "upgradeToAndCall(address,bytes)": "4f1ef286"
  },
  "id": 115
}