{
  "abi": [
    {
      "inputs": [
        {
          "internalType": "contract IVoucher",
          "name": "initVoucher",
          "type": "address"
        },
        {
          "internalType": "address",
          "name": "proxy",
          "type": "address"
        }
      ],
      "stateMutability": "nonpayable",
      "type": "constructor"
    },
    {
      "inputs": [],
      "name": "AccessDenied",
      "type": "error"
    },
    {
      "inputs": [],
      "name": "AlreadyInitialized",
      "type": "error"
    },
    {
      "inputs": [],
      "name": "BalanceMismatch",
      "type": "error"
    },
    {
      "inputs": [],
      "name": "DeadlineExpired",
      "type": "error"
    },
    {
      "inputs": [],
      "name": "GreaterThanMaxInput",
      "type": "error"
    },
    {
      "inputs": [],
      "name": "IdenticalAddresses",
      "type": "error"
    },
    {
      "inputs": [],
      "name": "InsufficientCapacity",
      "type": "error"
    },
    {
      "inputs": [],
      "name": "InsufficientLiquidity",
      "type": "error"
    },
    {
      "inputs": [],
      "name": "InsufficientNativeTokenReceived",
      "type": "error"
    },
    {
      "inputs": [],
      "name": "InvalidAddress",
      "type": "error"
    },
    {
      "inputs": [],
      "name": "InvalidFee",
      "type": "error"
    },
    {
      "inputs": [],
      "name": "InvalidIndices",
      "type": "error"
    },
    {
      "inputs": [],
      "name": "InvalidRate",
      "type": "error"
    },
    {
      "inputs": [],
      "name": "InvalidTradeActionAmount",
      "type": "error"
    },
    {
      "inputs": [],
      "name": "InvalidTradeActionStrategyId",
      "type": "error"
    },
    {
      "inputs": [],
      "name": "LowerThanMinReturn",
      "type": "error"
    },
    {
      "inputs": [],
      "name": "NativeAmountMismatch",
      "type": "error"
    },
    {
      "inputs": [],
      "name": "OrderDisabled",
      "type": "error"
    },
    {
      "inputs": [],
      "name": "OutDated",
      "type": "error"
    },
    {
      "inputs": [],
      "name": "Overflow",
      "type": "error"
    },
    {
      "inputs": [],
      "name": "PairAlreadyExists",
      "type": "error"
    },
    {
      "inputs": [],
      "name": "PairDoesNotExist",
      "type": "error"
    },
    {
      "inputs": [],
      "name": "UnknownDelegator",
      "type": "error"
    },
    {
      "inputs": [],
      "name": "UnnecessaryNativeTokenReceived",
      "type": "error"
    },
    {
      "inputs": [],
      "name": "ZeroValue",
      "type": "error"
    },
    {
      "anonymous": false,
      "inputs": [
        {
          "indexed": true,
          "internalType": "Token",
          "name": "token",
          "type": "address"
        },
        {
          "indexed": true,
          "internalType": "address",
          "name": "recipient",
          "type": "address"
        },
        {
          "indexed": true,
          "internalType": "uint256",
          "name": "amount",
          "type": "uint256"
        },
        {
          "indexed": false,
          "internalType": "address",
          "name": "sender",
          "type": "address"
        }
      ],
      "name": "FeesWithdrawn",
      "type": "event"
    },
    {
      "anonymous": false,
      "inputs": [
        {
          "indexed": false,
          "internalType": "uint8",
          "name": "version",
          "type": "uint8"
        }
      ],
      "name": "Initialized",
      "type": "event"
    },
    {
      "anonymous": false,
      "inputs": [
        {
          "indexed": true,
          "internalType": "uint128",
          "name": "pairId",
          "type": "uint128"
        },
        {
          "indexed": true,
          "internalType": "Token",
          "name": "token0",
          "type": "address"
        },
        {
          "indexed": true,
          "internalType": "Token",
          "name": "token1",
          "type": "address"
        }
      ],
      "name": "PairCreated",
      "type": "event"
    },
    {
      "anonymous": false,
      "inputs": [
        {
          "indexed": true,
          "internalType": "Token",
          "name": "token0",
          "type": "address"
        },
        {
          "indexed": true,
          "internalType": "Token",
          "name": "token1",
          "type": "address"
        },
        {
          "indexed": false,
          "internalType": "uint32",
          "name": "prevFeePPM",
          "type": "uint32"
        },
        {
          "indexed": false,
          "internalType": "uint32",
          "name": "newFeePPM",
          "type": "uint32"
        }
      ],
      "name": "PairTradingFeePPMUpdated",
      "type": "event"
    },
    {
      "anonymous": false,
      "inputs": [
        {
          "indexed": false,
          "internalType": "address",
          "name": "account",
          "type": "address"
        }
      ],
      "name": "Paused",
      "type": "event"
    },
    {
      "anonymous": false,
      "inputs": [
        {
          "indexed": true,
          "internalType": "bytes32",
          "name": "role",
          "type": "bytes32"
        },
        {
          "indexed": true,
          "internalType": "bytes32",
          "name": "previousAdminRole",
          "type": "bytes32"
        },
        {
          "indexed": true,
          "internalType": "bytes32",
          "name": "newAdminRole",
          "type": "bytes32"
        }
      ],
      "name": "RoleAdminChanged",
      "type": "event"
    },
    {
      "anonymous": false,
      "inputs": [
        {
          "indexed": true,
          "internalType": "bytes32",
          "name": "role",
          "type": "bytes32"
        },
        {
          "indexed": true,
          "internalType": "address",
          "name": "account",
          "type": "address"
        },
        {
          "indexed": true,
          "internalType": "address",
          "name": "sender",
          "type": "address"
        }
      ],
      "name": "RoleGranted",
      "type": "event"
    },
    {
      "anonymous": false,
      "inputs": [
        {
          "indexed": true,
          "internalType": "bytes32",
          "name": "role",
          "type": "bytes32"
        },
        {
          "indexed": true,
          "internalType": "address",
          "name": "account",
          "type": "address"
        },
        {
          "indexed": true,
          "internalType": "address",
          "name": "sender",
          "type": "address"
        }
      ],
      "name": "RoleRevoked",
      "type": "event"
    },
    {
      "anonymous": false,
      "inputs": [
        {
          "indexed": false,
          "internalType": "uint256",
          "name": "id",
          "type": "uint256"
        },
        {
          "indexed": true,
          "internalType": "address",
          "name": "owner",
          "type": "address"
        },
        {
          "indexed": true,
          "internalType": "Token",
          "name": "token0",
          "type": "address"
        },
        {
          "indexed": true,
          "internalType": "Token",
          "name": "token1",
          "type": "address"
        },
        {
          "components": [
            {
              "internalType": "uint128",
              "name": "y",
              "type": "uint128"
            },
            {
              "internalType": "uint128",
              "name": "z",
              "type": "uint128"
            },
            {
              "internalType": "uint64",
              "name": "A",
              "type": "uint64"
            },
            {
              "internalType": "uint64",
              "name": "B",
              "type": "uint64"
            }
          ],
          "indexed": false,
          "internalType": "struct Order",
          "name": "order0",
          "type": "tuple"
        },
        {
          "components": [
            {
              "internalType": "uint128",
              "name": "y",
              "type": "uint128"
            },
            {
              "internalType": "uint128",
              "name": "z",
              "type": "uint128"
            },
            {
              "internalType": "uint64",
              "name": "A",
              "type": "uint64"
            },
            {
              "internalType": "uint64",
              "name": "B",
              "type": "uint64"
            }
          ],
          "indexed": false,
          "internalType": "struct Order",
          "name": "order1",
          "type": "tuple"
        }
      ],
      "name": "StrategyCreated",
      "type": "event"
    },
    {
      "anonymous": false,
      "inputs": [
        {
          "indexed": false,
          "internalType": "uint256",
          "name": "id",
          "type": "uint256"
        },
        {
          "indexed": true,
          "internalType": "address",
          "name": "owner",
          "type": "address"
        },
        {
          "indexed": true,
          "internalType": "Token",
          "name": "token0",
          "type": "address"
        },
        {
          "indexed": true,
          "internalType": "Token",
          "name": "token1",
          "type": "address"
        },
        {
          "components": [
            {
              "internalType": "uint128",
              "name": "y",
              "type": "uint128"
            },
            {
              "internalType": "uint128",
              "name": "z",
              "type": "uint128"
            },
            {
              "internalType": "uint64",
              "name": "A",
              "type": "uint64"
            },
            {
              "internalType": "uint64",
              "name": "B",
              "type": "uint64"
            }
          ],
          "indexed": false,
          "internalType": "struct Order",
          "name": "order0",
          "type": "tuple"
        },
        {
          "components": [
            {
              "internalType": "uint128",
              "name": "y",
              "type": "uint128"
            },
            {
              "internalType": "uint128",
              "name": "z",
              "type": "uint128"
            },
            {
              "internalType": "uint64",
              "name": "A",
              "type": "uint64"
            },
            {
              "internalType": "uint64",
              "name": "B",
              "type": "uint64"
            }
          ],
          "indexed": false,
          "internalType": "struct Order",
          "name": "order1",
          "type": "tuple"
        }
      ],
      "name": "StrategyDeleted",
      "type": "event"
    },
    {
      "anonymous": false,
      "inputs": [
        {
          "indexed": true,
          "internalType": "uint256",
          "name": "id",
          "type": "uint256"
        },
        {
          "indexed": true,
          "internalType": "Token",
          "name": "token0",
          "type": "address"
        },
        {
          "indexed": true,
          "internalType": "Token",
          "name": "token1",
          "type": "address"
        },
        {
          "components": [
            {
              "internalType": "uint128",
              "name": "y",
              "type": "uint128"
            },
            {
              "internalType": "uint128",
              "name": "z",
              "type": "uint128"
            },
            {
              "internalType": "uint64",
              "name": "A",
              "type": "uint64"
            },
            {
              "internalType": "uint64",
              "name": "B",
              "type": "uint64"
            }
          ],
          "indexed": false,
          "internalType": "struct Order",
          "name": "order0",
          "type": "tuple"
        },
        {
          "components": [
            {
              "internalType": "uint128",
              "name": "y",
              "type": "uint128"
            },
            {
              "internalType": "uint128",
              "name": "z",
              "type": "uint128"
            },
            {
              "internalType": "uint64",
              "name": "A",
              "type": "uint64"
            },
            {
              "internalType": "uint64",
              "name": "B",
              "type": "uint64"
            }
          ],
          "indexed": false,
          "internalType": "struct Order",
          "name": "order1",
          "type": "tuple"
        },
        {
          "indexed": false,
          "internalType": "uint8",
          "name": "reason",
          "type": "uint8"
        }
      ],
      "name": "StrategyUpdated",
      "type": "event"
    },
    {
      "anonymous": false,
      "inputs": [
        {
          "indexed": true,
          "internalType": "address",
          "name": "trader",
          "type": "address"
        },
        {
          "indexed": true,
          "internalType": "Token",
          "name": "sourceToken",
          "type": "address"
        },
        {
          "indexed": true,
          "internalType": "Token",
          "name": "targetToken",
          "type": "address"
        },
        {
          "indexed": false,
          "internalType": "uint256",
          "name": "sourceAmount",
          "type": "uint256"
        },
        {
          "indexed": false,
          "internalType": "uint256",
          "name": "targetAmount",
          "type": "uint256"
        },
        {
          "indexed": false,
          "internalType": "uint128",
          "name": "tradingFeeAmount",
          "type": "uint128"
        },
        {
          "indexed": false,
          "internalType": "bool",
          "name": "byTargetAmount",
          "type": "bool"
        }
      ],
      "name": "TokensTraded",
      "type": "event"
    },
    {
      "anonymous": false,
      "inputs": [
        {
          "indexed": false,
          "internalType": "uint32",
          "name": "prevFeePPM",
          "type": "uint32"
        },
        {
          "indexed": false,
          "internalType": "uint32",
          "name": "newFeePPM",
          "type": "uint32"
        }
      ],
      "name": "TradingFeePPMUpdated",
      "type": "event"
    },
    {
      "anonymous": false,
      "inputs": [
        {
          "indexed": false,
          "internalType": "address",
          "name": "account",
          "type": "address"
        }
      ],
      "name": "Unpaused",
      "type": "event"
    },
    {
      "inputs": [],
      "name": "DEFAULT_ADMIN_ROLE",
      "outputs": [
        {
          "internalType": "bytes32",
          "name": "",
          "type": "bytes32"
        }
      ],
      "stateMutability": "view",
      "type": "function"
    },
    {
      "inputs": [
        {
          "internalType": "Token",
          "name": "token",
          "type": "address"
        }
      ],
      "name": "accumulatedFees",
      "outputs": [
        {
          "internalType": "uint256",
          "name": "",
          "type": "uint256"
        }
      ],
      "stateMutability": "view",
      "type": "function"
    },
    {
      "inputs": [
        {
          "internalType": "Token",
          "name": "sourceToken",
          "type": "address"
        },
        {
          "internalType": "Token",
          "name": "targetToken",
          "type": "address"
        },
        {
          "components": [
            {
              "internalType": "uint256",
              "name": "strategyId",
              "type": "uint256"
            },
            {
              "internalType": "uint128",
              "name": "amount",
              "type": "uint128"
            }
          ],
          "internalType": "struct TradeAction[]",
          "name": "tradeActions",
          "type": "tuple[]"
        }
      ],
      "name": "calculateTradeSourceAmount",
      "outputs": [
        {
          "internalType": "uint128",
          "name": "",
          "type": "uint128"
        }
      ],
      "stateMutability": "view",
      "type": "function"
    },
    {
      "inputs": [
        {
          "internalType": "Token",
          "name": "sourceToken",
          "type": "address"
        },
        {
          "internalType": "Token",
          "name": "targetToken",
          "type": "address"
        },
        {
          "components": [
            {
              "internalType": "uint256",
              "name": "strategyId",
              "type": "uint256"
            },
            {
              "internalType": "uint128",
              "name": "amount",
              "type": "uint128"
            }
          ],
          "internalType": "struct TradeAction[]",
          "name": "tradeActions",
          "type": "tuple[]"
        }
      ],
      "name": "calculateTradeTargetAmount",
      "outputs": [
        {
          "internalType": "uint128",
          "name": "",
          "type": "uint128"
        }
      ],
      "stateMutability": "view",
      "type": "function"
    },
    {
      "inputs": [],
      "name": "controllerType",
      "outputs": [
        {
          "internalType": "uint16",
          "name": "",
          "type": "uint16"
        }
      ],
      "stateMutability": "pure",
      "type": "function"
    },
    {
      "inputs": [
        {
          "internalType": "Token",
          "name": "token0",
          "type": "address"
        },
        {
          "internalType": "Token",
          "name": "token1",
          "type": "address"
        }
      ],
      "name": "createPair",
      "outputs": [
        {
          "components": [
            {
              "internalType": "uint128",
              "name": "id",
              "type": "uint128"
            },
            {
              "internalType": "Token[2]",
              "name": "tokens",
              "type": "address[2]"
            }
          ],
          "internalType": "struct Pair",
          "name": "",
          "type": "tuple"
        }
      ],
      "stateMutability": "nonpayable",
      "type": "function"
    },
    {
      "inputs": [
        {
          "internalType": "Token",
          "name": "token0",
          "type": "address"
        },
        {
          "internalType": "Token",
          "name": "token1",
          "type": "address"
        },
        {
          "components": [
            {
              "internalType": "uint128",
              "name": "y",
              "type": "uint128"
            },
            {
              "internalType": "uint128",
              "name": "z",
              "type": "uint128"
            },
            {
              "internalType": "uint64",
              "name": "A",
              "type": "uint64"
            },
            {
              "internalType": "uint64",
              "name": "B",
              "type": "uint64"
            }
          ],
          "internalType": "struct Order[2]",
          "name": "orders",
          "type": "tuple[2]"
        }
      ],
      "name": "createStrategy",
      "outputs": [
        {
          "internalType": "uint256",
          "name": "",
          "type": "uint256"
        }
      ],
      "stateMutability": "payable",
      "type": "function"
    },
    {
      "inputs": [
        {
          "internalType": "uint256",
          "name": "strategyId",
          "type": "uint256"
        }
      ],
      "name": "deleteStrategy",
      "outputs": [],
      "stateMutability": "nonpayable",
      "type": "function"
    },
    {
      "inputs": [
        {
          "internalType": "bytes32",
          "name": "role",
          "type": "bytes32"
        }
      ],
      "name": "getRoleAdmin",
      "outputs": [
        {
          "internalType": "bytes32",
          "name": "",
          "type": "bytes32"
        }
      ],
      "stateMutability": "view",
      "type": "function"
    },
    {
      "inputs": [
        {
          "internalType": "bytes32",
          "name": "role",
          "type": "bytes32"
        },
        {
          "internalType": "uint256",
          "name": "index",
          "type": "uint256"
        }
      ],
      "name": "getRoleMember",
      "outputs": [
        {
          "internalType": "address",
          "name": "",
          "type": "address"
        }
      ],
      "stateMutability": "view",
      "type": "function"
    },
    {
      "inputs": [
        {
          "internalType": "bytes32",
          "name": "role",
          "type": "bytes32"
        }
      ],
      "name": "getRoleMemberCount",
      "outputs": [
        {
          "internalType": "uint256",
          "name": "",
          "type": "uint256"
        }
      ],
      "stateMutability": "view",
      "type": "function"
    },
    {
      "inputs": [
        {
          "internalType": "bytes32",
          "name": "role",
          "type": "bytes32"
        },
        {
          "internalType": "address",
          "name": "account",
          "type": "address"
        }
      ],
      "name": "grantRole",
      "outputs": [],
      "stateMutability": "nonpayable",
      "type": "function"
    },
    {
      "inputs": [
        {
          "internalType": "bytes32",
          "name": "role",
          "type": "bytes32"
        },
        {
          "internalType": "address",
          "name": "account",
          "type": "address"
        }
      ],
      "name": "hasRole",
      "outputs": [
        {
          "internalType": "bool",
          "name": "",
          "type": "bool"
        }
      ],
      "stateMutability": "view",
      "type": "function"
    },
    {
      "inputs": [],
      "name": "initialize",
      "outputs": [],
      "stateMutability": "nonpayable",
      "type": "function"
    },
    {
      "inputs": [
        {
          "internalType": "Token",
          "name": "token0",
          "type": "address"
        },
        {
          "internalType": "Token",
          "name": "token1",
          "type": "address"
        }
      ],
      "name": "pair",
      "outputs": [
        {
          "components": [
            {
              "internalType": "uint128",
              "name": "id",
              "type": "uint128"
            },
            {
              "internalType": "Token[2]",
              "name": "tokens",
              "type": "address[2]"
            }
          ],
          "internalType": "struct Pair",
          "name": "",
          "type": "tuple"
        }
      ],
      "stateMutability": "view",
      "type": "function"
    },
    {
      "inputs": [
        {
          "internalType": "Token",
          "name": "token0",
          "type": "address"
        },
        {
          "internalType": "Token",
          "name": "token1",
          "type": "address"
        }
      ],
      "name": "pairTradingFeePPM",
      "outputs": [
        {
          "internalType": "uint32",
          "name": "",
          "type": "uint32"
        }
      ],
      "stateMutability": "view",
      "type": "function"
    },
    {
      "inputs": [],
      "name": "pairs",
      "outputs": [
        {
          "internalType": "Token[2][]",
          "name": "",
          "type": "address[2][]"
        }
      ],
      "stateMutability": "view",
      "type": "function"
    },
    {
      "inputs": [],
      "name": "pause",
      "outputs": [],
      "stateMutability": "nonpayable",
      "type": "function"
    },
    {
      "inputs": [],
      "name": "paused",
      "outputs": [
        {
          "internalType": "bool",
          "name": "",
          "type": "bool"
        }
      ],
      "stateMutability": "view",
      "type": "function"
    },
    {
      "inputs": [
        {
          "internalType": "bytes",
          "name": "data",
          "type": "bytes"
        }
      ],
      "name": "postUpgrade",
      "outputs": [],
      "stateMutability": "nonpayable",
      "type": "function"
    },
    {
      "inputs": [
        {
          "internalType": "bytes32",
          "name": "role",
          "type": "bytes32"
        },
        {
          "internalType": "address",
          "name": "account",
          "type": "address"
        }
      ],
      "name": "renounceRole",
      "outputs": [],
      "stateMutability": "nonpayable",
      "type": "function"
    },
    {
      "inputs": [
        {
          "internalType": "bytes32",
          "name": "role",
          "type": "bytes32"
        },
        {
          "internalType": "address",
          "name": "account",
          "type": "address"
        }
      ],
      "name": "revokeRole",
      "outputs": [],
      "stateMutability": "nonpayable",
      "type": "function"
    },
    {
      "inputs": [],
      "name": "roleAdmin",
      "outputs": [
        {
          "internalType": "bytes32",
          "name": "",
          "type": "bytes32"
        }
      ],
      "stateMutability": "pure",
      "type": "function"
    },
    {
      "inputs": [],
      "name": "roleEmergencyStopper",
      "outputs": [
        {
          "internalType": "bytes32",
          "name": "",
          "type": "bytes32"
        }
      ],
      "stateMutability": "pure",
      "type": "function"
    },
    {
      "inputs": [],
      "name": "roleFeesManager",
      "outputs": [
        {
          "internalType": "bytes32",
          "name": "",
          "type": "bytes32"
        }
      ],
      "stateMutability": "pure",
      "type": "function"
    },
    {
      "inputs": [
        {
          "internalType": "Token",
          "name": "token0",
          "type": "address"
        },
        {
          "internalType": "Token",
          "name": "token1",
          "type": "address"
        },
        {
          "internalType": "uint32",
          "name": "newPairTradingFeePPM",
          "type": "uint32"
        }
      ],
      "name": "setPairTradingFeePPM",
      "outputs": [],
      "stateMutability": "nonpayable",
      "type": "function"
    },
    {
      "inputs": [
        {
          "internalType": "uint32",
          "name": "newTradingFeePPM",
          "type": "uint32"
        }
      ],
      "name": "setTradingFeePPM",
      "outputs": [],
      "stateMutability": "nonpayable",
      "type": "function"
    },
    {
      "inputs": [
        {
          "internalType": "Token",
          "name": "token0",
          "type": "address"
        },
        {
          "internalType": "Token",
          "name": "token1",
          "type": "address"
        },
        {
          "internalType": "uint256",
          "name": "startIndex",
          "type": "uint256"
        },
        {
          "internalType": "uint256",
          "name": "endIndex",
          "type": "uint256"
        }
      ],
      "name": "strategiesByPair",
      "outputs": [
        {
          "components": [
            {
              "internalType": "uint256",
              "name": "id",
              "type": "uint256"
            },
            {
              "internalType": "address",
              "name": "owner",
              "type": "address"
            },
            {
              "internalType": "Token[2]",
              "name": "tokens",
              "type": "address[2]"
            },
            {
              "components": [
                {
                  "internalType": "uint128",
                  "name": "y",
                  "type": "uint128"
                },
                {
                  "internalType": "uint128",
                  "name": "z",
                  "type": "uint128"
                },
                {
                  "internalType": "uint64",
                  "name": "A",
                  "type": "uint64"
                },
                {
                  "internalType": "uint64",
                  "name": "B",
                  "type": "uint64"
                }
              ],
              "internalType": "struct Order[2]",
              "name": "orders",
              "type": "tuple[2]"
            }
          ],
          "internalType": "struct Strategy[]",
          "name": "",
          "type": "tuple[]"
        }
      ],
      "stateMutability": "view",
      "type": "function"
    },
    {
      "inputs": [
        {
          "internalType": "Token",
          "name": "token0",
          "type": "address"
        },
        {
          "internalType": "Token",
          "name": "token1",
          "type": "address"
        }
      ],
      "name": "strategiesByPairCount",
      "outputs": [
        {
          "internalType": "uint256",
          "name": "",
          "type": "uint256"
        }
      ],
      "stateMutability": "view",
      "type": "function"
    },
    {
      "inputs": [
        {
          "internalType": "uint256",
          "name": "id",
          "type": "uint256"
        }
      ],
      "name": "strategy",
      "outputs": [
        {
          "components": [
            {
              "internalType": "uint256",
              "name": "id",
              "type": "uint256"
            },
            {
              "internalType": "address",
              "name": "owner",
              "type": "address"
            },
            {
              "internalType": "Token[2]",
              "name": "tokens",
              "type": "address[2]"
            },
            {
              "components": [
                {
                  "internalType": "uint128",
                  "name": "y",
                  "type": "uint128"
                },
                {
                  "internalType": "uint128",
                  "name": "z",
                  "type": "uint128"
                },
                {
                  "internalType": "uint64",
                  "name": "A",
                  "type": "uint64"
                },
                {
                  "internalType": "uint64",
                  "name": "B",
                  "type": "uint64"
                }
              ],
              "internalType": "struct Order[2]",
              "name": "orders",
              "type": "tuple[2]"
            }
          ],
          "internalType": "struct Strategy",
          "name": "",
          "type": "tuple"
        }
      ],
      "stateMutability": "view",
      "type": "function"
    },
    {
      "inputs": [
        {
          "internalType": "bytes4",
          "name": "interfaceId",
          "type": "bytes4"
        }
      ],
      "name": "supportsInterface",
      "outputs": [
        {
          "internalType": "bool",
          "name": "",
          "type": "bool"
        }
      ],
      "stateMutability": "view",
      "type": "function"
    },
    {
      "inputs": [
        {
          "internalType": "Token",
          "name": "sourceToken",
          "type": "address"
        },
        {
          "internalType": "Token",
          "name": "targetToken",
          "type": "address"
        },
        {
          "components": [
            {
              "internalType": "uint256",
              "name": "strategyId",
              "type": "uint256"
            },
            {
              "internalType": "uint128",
              "name": "amount",
              "type": "uint128"
            }
          ],
          "internalType": "struct TradeAction[]",
          "name": "tradeActions",
          "type": "tuple[]"
        },
        {
          "internalType": "uint256",
          "name": "deadline",
          "type": "uint256"
        },
        {
          "internalType": "uint128",
          "name": "minReturn",
          "type": "uint128"
        }
      ],
      "name": "tradeBySourceAmount",
      "outputs": [
        {
          "internalType": "uint128",
          "name": "",
          "type": "uint128"
        }
      ],
      "stateMutability": "payable",
      "type": "function"
    },
    {
      "inputs": [
        {
          "internalType": "Token",
          "name": "sourceToken",
          "type": "address"
        },
        {
          "internalType": "Token",
          "name": "targetToken",
          "type": "address"
        },
        {
          "components": [
            {
              "internalType": "uint256",
              "name": "strategyId",
              "type": "uint256"
            },
            {
              "internalType": "uint128",
              "name": "amount",
              "type": "uint128"
            }
          ],
          "internalType": "struct TradeAction[]",
          "name": "tradeActions",
          "type": "tuple[]"
        },
        {
          "internalType": "uint256",
          "name": "deadline",
          "type": "uint256"
        },
        {
          "internalType": "uint128",
          "name": "maxInput",
          "type": "uint128"
        }
      ],
      "name": "tradeByTargetAmount",
      "outputs": [
        {
          "internalType": "uint128",
          "name": "",
          "type": "uint128"
        }
      ],
      "stateMutability": "payable",
      "type": "function"
    },
    {
      "inputs": [],
      "name": "tradingFeePPM",
      "outputs": [
        {
          "internalType": "uint32",
          "name": "",
          "type": "uint32"
        }
      ],
      "stateMutability": "view",
      "type": "function"
    },
    {
      "inputs": [],
      "name": "unpause",
      "outputs": [],
      "stateMutability": "nonpayable",
      "type": "function"
    },
    {
      "inputs": [
        {
          "internalType": "uint256",
          "name": "strategyId",
          "type": "uint256"
        },
        {
          "components": [
            {
              "internalType": "uint128",
              "name": "y",
              "type": "uint128"
            },
            {
              "internalType": "uint128",
              "name": "z",
              "type": "uint128"
            },
            {
              "internalType": "uint64",
              "name": "A",
              "type": "uint64"
            },
            {
              "internalType": "uint64",
              "name": "B",
              "type": "uint64"
            }
          ],
          "internalType": "struct Order[2]",
          "name": "currentOrders",
          "type": "tuple[2]"
        },
        {
          "components": [
            {
              "internalType": "uint128",
              "name": "y",
              "type": "uint128"
            },
            {
              "internalType": "uint128",
              "name": "z",
              "type": "uint128"
            },
            {
              "internalType": "uint64",
              "name": "A",
              "type": "uint64"
            },
            {
              "internalType": "uint64",
              "name": "B",
              "type": "uint64"
            }
          ],
          "internalType": "struct Order[2]",
          "name": "newOrders",
          "type": "tuple[2]"
        }
      ],
      "name": "updateStrategy",
      "outputs": [],
      "stateMutability": "payable",
      "type": "function"
    },
    {
      "inputs": [],
      "name": "version",
      "outputs": [
        {
          "internalType": "uint16",
          "name": "",
          "type": "uint16"
        }
      ],
      "stateMutability": "pure",
      "type": "function"
    },
    {
      "inputs": [
        {
          "internalType": "Token",
          "name": "token",
          "type": "address"
        },
        {
          "internalType": "uint256",
          "name": "amount",
          "type": "uint256"
        },
        {
          "internalType": "address",
          "name": "recipient",
          "type": "address"
        }
      ],
      "name": "withdrawFees",
      "outputs": [
        {
          "internalType": "uint256",
          "name": "",
          "type": "uint256"
        }
      ],
      "stateMutability": "nonpayable",
      "type": "function"
    }
  ],
  "bytecode": {
    "object": "0x60c06040523480156200001157600080fd5b50604051620069c4380380620069c4833981016040819052620000349162000991565b6001600160a01b0381166080526200004c826200006b565b6001600160a01b03821660a0526200006362000096565b5050620009d0565b6001600160a01b038116620000935760405163e6c4247b60e01b815260040160405180910390fd5b50565b600054610100900460ff1615808015620000b75750600054600160ff909116105b80620000d35750303b158015620000d3575060005460ff166001145b6200013c5760405162461bcd60e51b815260206004820152602e60248201527f496e697469616c697a61626c653a20636f6e747261637420697320616c72656160448201526d191e481a5b9a5d1a585b1a5e995960921b60648201526084015b60405180910390fd5b6000805460ff19166001179055801562000160576000805461ff0019166101001790555b6200016a620001b3565b801562000093576000805461ff0019169055604051600181527f7f26b83ff96e1f2b6a682f133852f6798a09c465da95921460cefb38474024989060200160405180910390a150565b600054610100900460ff166200020f5760405162461bcd60e51b815260206004820152602b6024820152600080516020620069a483398151915260448201526a6e697469616c697a696e6760a81b606482015260840162000133565b620002196200024d565b62000223620002b3565b6200022d62000319565b6200023762000389565b62000241620003ef565b6200024b62000455565b565b600054610100900460ff16620002a95760405162461bcd60e51b815260206004820152602b6024820152600080516020620069a483398151915260448201526a6e697469616c697a696e6760a81b606482015260840162000133565b6200024b62000527565b600054610100900460ff166200030f5760405162461bcd60e51b815260206004820152602b6024820152600080516020620069a483398151915260448201526a6e697469616c697a696e6760a81b606482015260840162000133565b6200024b62000583565b600054610100900460ff16620003755760405162461bcd60e51b815260206004820152602b6024820152600080516020620069a483398151915260448201526a6e697469616c697a696e6760a81b606482015260840162000133565b6200037f62000527565b6200024b620005ec565b600054610100900460ff16620003e55760405162461bcd60e51b815260206004820152602b6024820152600080516020620069a483398151915260448201526a6e697469616c697a696e6760a81b606482015260840162000133565b6200024b6200068d565b600054610100900460ff166200044b5760405162461bcd60e51b815260206004820152602b6024820152600080516020620069a483398151915260448201526a6e697469616c697a696e6760a81b606482015260840162000133565b6200024b620006f1565b600054610100900460ff16620004b15760405162461bcd60e51b815260206004820152602b6024820152600080516020620069a483398151915260448201526a6e697469616c697a696e6760a81b606482015260840162000133565b620004ec7ff28f409b8cbe6b50c7ca45afe893f01f69626f8a4e33cb480bc1bc2d618c0845600080516020620069848339815191526200075a565b6200024b7f24a843cae781765d8cdc3bca1cc42497522c0508f4e621c2ca36ceea2fda7b16600080516020620069848339815191526200075a565b600054610100900460ff166200024b5760405162461bcd60e51b815260206004820152602b6024820152600080516020620069a483398151915260448201526a6e697469616c697a696e6760a81b606482015260840162000133565b600054610100900460ff16620005df5760405162461bcd60e51b815260206004820152602b6024820152600080516020620069a483398151915260448201526a6e697469616c697a696e6760a81b606482015260840162000133565b6200024b6107d0620007a5565b600054610100900460ff16620006485760405162461bcd60e51b815260206004820152602b6024820152600080516020620069a483398151915260448201526a6e697469616c697a696e6760a81b606482015260840162000133565b61012d805461ffff191660011790556200067260008051602062006984833981519152806200075a565b6200024b60008051602062006984833981519152336200082a565b600054610100900460ff16620006e95760405162461bcd60e51b815260206004820152602b6024820152600080516020620069a483398151915260448201526a6e697469616c697a696e6760a81b606482015260840162000133565b600161015f55565b600054610100900460ff166200074d5760405162461bcd60e51b815260206004820152602b6024820152600080516020620069a483398151915260448201526a6e697469616c697a696e6760a81b606482015260840162000133565b610191805460ff19169055565b600082815260c96020526040808220600101805490849055905190918391839186917fbd79b86ffe0ab8e8776151514217cd7cacd52c909f66475c3af44e129f0b00ff9190a4505050565b60655463ffffffff600160801b90910481169082168103620007c5575050565b6065805463ffffffff60801b1916600160801b63ffffffff8581169182029290921790925560408051918416825260208201929092527f66db0986e1156e2e747795714bf0301c7e1c695c149a738cb01bcf5cfead8465910160405180910390a15050565b6200083682826200083a565b5050565b62000846828262000865565b600082815260fb6020526040902062000860908262000909565b505050565b600082815260c9602090815260408083206001600160a01b038516845290915290205460ff166200083657600082815260c9602090815260408083206001600160a01b03851684529091529020805460ff19166001179055620008c53390565b6001600160a01b0316816001600160a01b0316837f2f8788117e7eff1d82e926ec794901d17c78024a50270940304540a733656f0d60405160405180910390a45050565b600062000920836001600160a01b03841662000929565b90505b92915050565b6000818152600183016020526040812054620009725750815460018181018455600084815260208082209093018490558454848252828601909352604090209190915562000923565b50600062000923565b6001600160a01b03811681146200009357600080fd5b60008060408385031215620009a557600080fd5b8251620009b2816200097b565b6020840151909250620009c5816200097b565b809150509250929050565b60805160a051615f6b62000a19600039600081816109a601528181610e8301528181610f2d0152818161109d015281816113270152611381015260006115300152615f6b6000f3fe6080604052600436106102855760003560e01c80638cd2403d11610153578063c9c65396116100cb578063f2bda26d1161007f578063f74dad8111610064578063f74dad811461077c578063fcf66664146107a9578063ffb0a4a0146107c957600080fd5b8063f2bda26d14610749578063f727473a1461076957600080fd5b8063d547741f116100b0578063d547741f146106e7578063f06f8acd14610707578063f1c5e0141461073657600080fd5b8063c9c65396146106a7578063ca15c873146106c757600080fd5b80639ba372c211610122578063b76040cd11610107578063b76040cd14610631578063ba0a868b14610645578063bc88d7e41461067a57600080fd5b80639ba372c2146105fc578063a217fddf1461061c57600080fd5b80638cd2403d1461052b5780639010d07c1461054b57806391d148541461058357806393867fb5146105c957600080fd5b80633f4ba83a1161020157806369a4dea7116101b55780638456cb591161019a5780638456cb59146104c95780638672d545146104de578063873020371461050b57600080fd5b806369a4dea7146104945780638129fc1c146104b457600080fd5b806354fd4d50116101e657806354fd4d501461043857806355817d1d1461045b5780635c975abb1461047b57600080fd5b80633f4ba83a146103f057806341f435b31461040557600080fd5b80632ab2fad1116102585780632f2ff15d1161023d5780632f2ff15d14610390578063322cf844146103b057806336568abe146103d057600080fd5b80632ab2fad11461033d5780632c40de1b1461035d57600080fd5b806301ffc9a71461028a578063102ee9ba146102bf57806321589fa1146102ea578063248a9ca3146102ff575b600080fd5b34801561029657600080fd5b506102aa6102a53660046153d2565b6107eb565b60405190151581526020015b60405180910390f35b6102d26102cd36600461548a565b610847565b6040516001600160801b0390911681526020016102b6565b6102fd6102f836600461551d565b610961565b005b34801561030b57600080fd5b5061032f61031a36600461555d565b600090815260c9602052604090206001015490565b6040519081526020016102b6565b34801561034957600080fd5b506102d2610358366004615576565b610ad5565b34801561036957600080fd5b507f24a843cae781765d8cdc3bca1cc42497522c0508f4e621c2ca36ceea2fda7b1661032f565b34801561039c57600080fd5b506102fd6103ab3660046155db565b610b2f565b3480156103bc57600080fd5b5061032f6103cb36600461560b565b610b54565b3480156103dc57600080fd5b506102fd6103eb3660046155db565b610b77565b3480156103fc57600080fd5b506102fd610c08565b34801561041157600080fd5b507ff28f409b8cbe6b50c7ca45afe893f01f69626f8a4e33cb480bc1bc2d618c084561032f565b34801561044457600080fd5b5060045b60405161ffff90911681526020016102b6565b34801561046757600080fd5b506102fd61047636600461564d565b610c3e565b34801561048757600080fd5b506101915460ff166102aa565b3480156104a057600080fd5b506102fd6104af36600461568b565b610c91565b3480156104c057600080fd5b506102fd610cce565b3480156104d557600080fd5b506102fd610ded565b3480156104ea57600080fd5b506104fe6104f936600461560b565b610e20565b6040516102b691906156d2565b34801561051757600080fd5b506102fd61052636600461555d565b610e43565b34801561053757600080fd5b506102fd6105463660046156f6565b610f5e565b34801561055757600080fd5b5061056b610566366004615768565b610fcb565b6040516001600160a01b0390911681526020016102b6565b34801561058f57600080fd5b506102aa61059e3660046155db565b600091825260c9602090815260408084206001600160a01b0393909316845291905290205460ff1690565b3480156105d557600080fd5b507f2172861495e7b85edac73e3cd5fbb42dd675baadf627720e687bcfdaca02509661032f565b34801561060857600080fd5b5061032f61061736600461578a565b610fe3565b34801561062857600080fd5b5061032f600081565b34801561063d57600080fd5b506001610448565b34801561065157600080fd5b5061066561066036600461560b565b611062565b60405163ffffffff90911681526020016102b6565b34801561068657600080fd5b5061069a61069536600461555d565b61107e565b6040516102b6919061586e565b3480156106b357600080fd5b506104fe6106c236600461560b565b6110c2565b3480156106d357600080fd5b5061032f6106e236600461555d565b611103565b3480156106f357600080fd5b506102fd6107023660046155db565b61111a565b34801561071357600080fd5b50606554700100000000000000000000000000000000900463ffffffff16610665565b6102d261074436600461548a565b61113f565b34801561075557600080fd5b506102d2610764366004615576565b6111f5565b61032f61077736600461587d565b61124b565b34801561078857600080fd5b5061079c6107973660046158bd565b61135f565b6040516102b69190615903565b3480156107b557600080fd5b5061032f6107c4366004615952565b6113a5565b3480156107d557600080fd5b506107de6113ce565b6040516102b6919061596f565b60007fffffffff0000000000000000000000000000000000000000000000000000000082167f5a05180f0000000000000000000000000000000000000000000000000000000014806108415750610841826113dd565b92915050565b6000610851611474565b6108596114cf565b610861611525565b61086e8787853486611587565b610880876001600160a01b031661161a565b156108c857816001600160801b03163410156108c8576040517f7038b89900000000000000000000000000000000000000000000000000000000815260040160405180910390fd5b60006108d48888611641565b6040805161010081018252338152815180830183526001600160a01b038c811682528b166020828101919091528201526001918101919091526001600160801b038516606082015234608082015260a08101829052600060c0820181905260e08201529091506109458787836116e5565b60c00151915050610957600161015f55565b9695505050505050565b610969611474565b6109716114cf565b610979611525565b600061098d6109888560801c90565b611caa565b6040516331a9108f60e11b8152600481018690529091507f00000000000000000000000000000000000000000000000000000000000000006001600160a01b031690636352211e90602401602060405180830381865afa1580156109f5573d6000803e3d6000fd5b505050506040513d601f19601f82011682018060405250810190610a1991906159bc565b6001600160a01b0316336001600160a01b031614610a4a57604051634ca8886760e01b815260040160405180910390fd5b600034118015610a7657506020810151610a749060005b60200201516001600160a01b031661161a565b155b8015610a8f57506020810151610a8d906001610a61565b155b15610aad57604051631334bf4f60e11b815260040160405180910390fd5b610ab682611d82565b610ac4848484843334611f0e565b50610ad0600161015f55565b505050565b6000610ae18585612326565b6000610aed8686611641565b604080518082019091526001600160a01b038089168252871660208201529091506000610b1d8287878685612385565b6020015193505050505b949350505050565b600082815260c96020526040902060010154610b4a81612549565b610ad08383612553565b6000610b608383612326565b6000610b6c8484611641565b9050610b2781612575565b6001600160a01b0381163314610bfa5760405162461bcd60e51b815260206004820152602f60248201527f416363657373436f6e74726f6c3a2063616e206f6e6c792072656e6f756e636560448201527f20726f6c657320666f722073656c66000000000000000000000000000000000060648201526084015b60405180910390fd5b610c048282612597565b5050565b7ff28f409b8cbe6b50c7ca45afe893f01f69626f8a4e33cb480bc1bc2d618c0845610c3381336125b9565b610c3b6125fc565b50565b610c687f2172861495e7b85edac73e3cd5fbb42dd675baadf627720e687bcfdaca025096336125b9565b80610c728161264f565b6000610c7e8585611641565b9050610c8a8184612692565b5050505050565b610cbb7f2172861495e7b85edac73e3cd5fbb42dd675baadf627720e687bcfdaca025096336125b9565b80610cc58161264f565b610c048261277b565b600054610100900460ff1615808015610cee5750600054600160ff909116105b80610d085750303b158015610d08575060005460ff166001145b610d7a5760405162461bcd60e51b815260206004820152602e60248201527f496e697469616c697a61626c653a20636f6e747261637420697320616c72656160448201527f647920696e697469616c697a65640000000000000000000000000000000000006064820152608401610bf1565b6000805460ff191660011790558015610d9d576000805461ff0019166101001790555b610da5612831565b8015610c3b576000805461ff0019169055604051600181527f7f26b83ff96e1f2b6a682f133852f6798a09c465da95921460cefb38474024989060200160405180910390a150565b7ff28f409b8cbe6b50c7ca45afe893f01f69626f8a4e33cb480bc1bc2d618c0845610e1881336125b9565b610c3b6128cc565b610e2861524d565b610e328383612326565b610e3c8383611641565b9392505050565b610e4b611474565b610e536114cf565b610e5b611525565b6000610e6a6109888360801c90565b6040516331a9108f60e11b8152600481018490529091507f00000000000000000000000000000000000000000000000000000000000000006001600160a01b031690636352211e90602401602060405180830381865afa158015610ed2573d6000803e3d6000fd5b505050506040513d601f19601f82011682018060405250810190610ef691906159bc565b6001600160a01b0316336001600160a01b031614610f2757604051634ca8886760e01b815260040160405180910390fd5b610f52827f00000000000000000000000000000000000000000000000000000000000000008361290a565b50610c3b600161015f55565b61012d54600090610f749061ffff166001615a05565b905061ffff8116600414610fb4576040517f0dc149f000000000000000000000000000000000000000000000000000000000815260040160405180910390fd5b61012d805461ffff191661ffff8316179055505050565b600082815260fb60205260408120610e3c9083612ac9565b6000610fed6114cf565b7f24a843cae781765d8cdc3bca1cc42497522c0508f4e621c2ca36ceea2fda7b1661101881336125b9565b8261102281612ad5565b8561102c81612ad5565b8561103681612b15565b61103e611474565b61104a33888a89612b4f565b9450611057600161015f55565b505050509392505050565b60008061106f8484611641565b9050610b278160000151612c03565b611086615275565b60006110956109888460801c90565b9050610e3c837f000000000000000000000000000000000000000000000000000000000000000083612c52565b6110ca61524d565b6110d2611474565b6110da6114cf565b6110e2611525565b6110ec8383612326565b6110f68383612d53565b9050610841600161015f55565b600081815260fb6020526040812061084190612eb5565b600082815260c9602052604090206001015461113581612549565b610ad08383612597565b6000611149611474565b6111516114cf565b611159611525565b6111668787853486611587565b60006111728888611641565b6040805161010081018252338152815180830183526001600160a01b038c811682528b1660208281019190915282015260009181018290526001600160801b038616606082015234608082015260a0810183905260c0810182905260e08101919091529091506111e38787836116e5565b60e00151915050610957600161015f55565b60006112018585612326565b600061120d8686611641565b604080518082019091526001600160a01b03808916825287166020820152909150600061123e828787866001612385565b5198975050505050505050565b6000611255611474565b61125d6114cf565b611265611525565b61126f8484612326565b60003411801561128e575061128c846001600160a01b031661161a565b155b80156112a957506112a7836001600160a01b031661161a565b155b156112c757604051631334bf4f60e11b815260040160405180910390fd5b6112d082611d82565b6112d861524d565b6112e28585612ebf565b6112f7576112f08585612d53565b9050611304565b6113018585611641565b90505b604080518082019091526001600160a01b038087168252851660208201526113507f00000000000000000000000000000000000000000000000000000000000000008286853334612f22565b92505050610e3c600161015f55565b606061136b8585612326565b60006113778686611641565b90506109578185857f000000000000000000000000000000000000000000000000000000000000000061314f565b6000816113b181612ad5565b50506001600160a01b031660009081526068602052604090205490565b60606113d8613294565b905090565b60007fffffffff0000000000000000000000000000000000000000000000000000000082167f7965db0b00000000000000000000000000000000000000000000000000000000148061084157507f01ffc9a7000000000000000000000000000000000000000000000000000000007fffffffff00000000000000000000000000000000000000000000000000000000831614610841565b600261015f54036114c75760405162461bcd60e51b815260206004820152601f60248201527f5265656e7472616e637947756172643a207265656e7472616e742063616c6c006044820152606401610bf1565b600261015f55565b6101915460ff16156115235760405162461bcd60e51b815260206004820152601060248201527f5061757361626c653a20706175736564000000000000000000000000000000006044820152606401610bf1565b565b306001600160a01b037f00000000000000000000000000000000000000000000000000000000000000001614611523576040517fd0c8bfe500000000000000000000000000000000000000000000000000000000815260040160405180910390fd5b428310156115c1576040517f1ab7da6b00000000000000000000000000000000000000000000000000000000815260040160405180910390fd5b6115d3816001600160801b0316612b15565b6115dd8585612326565b6000821180156115fc57506115fa856001600160a01b031661161a565b155b15610c8a57604051631334bf4f60e11b815260040160405180910390fd5b60006001600160a01b03821673eeeeeeeeeeeeeeeeeeeeeeeeeeeeeeeeeeeeeeee14610841565b61164961524d565b6116538383612ebf565b611689576040517fc5fc4bf400000000000000000000000000000000000000000000000000000000815260040160405180910390fd5b600061169584846133b3565b80516001600160a01b039081166000908152603460209081526040808320828601519094168352928152908290205482518084019093526001600160801b03168252810191909152949350505050565b60006117248260200151602001518360a001516020015160006002811061170e5761170e6159d9565b60200201516001600160a01b0390811691161490565b905060005b83811015611a20576000858583818110611745576117456159d9565b905060400201602001602081019061175d9190615a20565b90506000868684818110611773576117736159d9565b60409081029290920135600081815260666020528381208451606081019586905292955093909250839060039082845b8154815260200190600101908083116117a357505050505090506000806117c983613419565b915091506117e08960a0015160000151868861350d565b6000808215158a1515146117fa5783516020850151611802565b602084015184515b91509150600080611818848b8f604001516135a4565b91509150806001600160801b031684600001516001600160801b0316101561186c576040517fbb55fd2700000000000000000000000000000000000000000000000000000000815260040160405180910390fd5b83518190036001600160801b0316845282518290849061188d908390615a3b565b6001600160801b03908116909152845160208601519082169116101590506118c05782516001600160801b031660208401525b60006118cc8787613680565b80518a55602080820151908a0151919250146118ed57602081015160018a01555b604080820151908901511461190757604081015160028a01555b8d60a00151602001518661191c57600161191f565b60005b60ff1660028110611932576119326159d9565b60200201516001600160a01b03168e60a001516020015187611955576000611958565b60015b60ff166002811061196b5761196b6159d9565b60200201516001600160a01b03168b7f720da23a5c920b1d8827ec83c4d3c4d90d9419eadb0036b88cb4c2ffa91aef7d8a600060200201518b6001602002015160016040516119bc93929190615a5b565b60405180910390a4828e60c0018181516119d69190615a3b565b6001600160801b031690525060e08e0180518391906119f6908390615a3b565b6001600160801b0316905250611a199a508b99506137ae98505050505050505050565b9050611729565b506000826040015115611aee576000611a458460c001518560a00151600001516137b4565b90508360c0015181611a579190615af9565b6001600160801b0380831660c08701819052606087015192945091161015611aab576040517f0699263d00000000000000000000000000000000000000000000000000000000815260040160405180910390fd5b602080850151516001600160a01b0316600090815260689091526040812080546001600160801b0385169290611ae2908490615b19565b90915550611bac915050565b6000611b068460e001518560a00151600001516137eb565b9050808460e00151611b189190615af9565b6001600160801b0380831660e08701819052606087015192945091161115611b6c576040517ff602de8f00000000000000000000000000000000000000000000000000000000815260040160405180910390fd5b6020808501518101516001600160a01b0316600090815260689091526040812080546001600160801b0385169290611ba5908490615b19565b9091555050505b611bd783602001516000015184600001518560c001516001600160801b031686608001516000613825565b611bfb83602001516020015184600001518560e001516001600160801b031661394d565b8260200151602001516001600160a01b03168360200151600001516001600160a01b031684600001516001600160a01b03167f95f3b01351225fea0e69a46f68b164c9dea10284f12cd4a907ce66510ab7af6a8660c001518760e00151868960400151604051611c9394939291906001600160801b039485168152928416602084015292166040820152901515606082015260800190565b60405180910390a45050505050565b600161015f55565b611cb261524d565b6001600160801b0382166000908152603560205260408082208151808301928390529160029082845b81546001600160a01b03168152600190910190602001808311611cdb575050505050905060006001600160a01b031681600060028110611d1d57611d1d6159d9565b60200201516001600160a01b031603611d62576040517fc5fc4bf400000000000000000000000000000000000000000000000000000000815260040160405180910390fd5b604080518082019091526001600160801b03909316835260208301525090565b60005b6002811015610c0457818160028110611da057611da06159d9565b608002016000016020810190611db69190615a20565b6001600160801b0316828260028110611dd157611dd16159d9565b608002016020016020810190611de79190615a20565b6001600160801b03161015611e28576040517f5cef583a00000000000000000000000000000000000000000000000000000000815260040160405180910390fd5b611e6f828260028110611e3d57611e3d6159d9565b608002016040016020810190611e539190615b44565b67ffffffffffffffff166601000000000000908190041c151590565b611ea5576040517f6a43f8d100000000000000000000000000000000000000000000000000000000815260040160405180910390fd5b611ed0828260028110611eba57611eba6159d9565b608002016060016020810190611e539190615b44565b611f06576040517f6a43f8d100000000000000000000000000000000000000000000000000000000815260040160405180910390fd5b600101611d85565b60008681526066602052604080822081516060810192839052909291839060039082845b815481526020019060010190808311611f325750505050509050600080611f5883613419565b604080518082019091529193509150611fa8908a60026000835b82821015611f9e57611f8f60808302850136819003810190615b75565b81526020019060010190611f72565b5050505083613998565b611fde576040517f811cb74a00000000000000000000000000000000000000000000000000000000815260040160405180910390fd5b6040805180820190915260009061202b908a600284835b828210156120215761201260808302850136819003810190615b75565b81526020019060010190611ff5565b5050505083613680565b805185519192501461203c57805185555b602080820151908501511461205657602081015160018601555b604080820151908501511461207057604081015160028601555b600061207c8984613af7565b905060005b60028110156122be57600082826002811061209e5761209e6159d9565b602002015190508582600281106120b7576120b76159d9565b6020020151516001600160801b03168c83600281106120d8576120d86159d9565b6080020160000160208101906120ee9190615a20565b6001600160801b031610156121655760008c8360028110612111576121116159d9565b6080020160000160208101906121279190615a20565b878460028110612139576121396159d9565b6020020151516121499190615af9565b905061215f828c836001600160801b031661394d565b50612224565b858260028110612177576121776159d9565b6020020151516001600160801b03168c8360028110612198576121986159d9565b6080020160000160208101906121ae9190615a20565b6001600160801b031611156122245760008683600281106121d1576121d16159d9565b6020020151518d84600281106121e9576121e96159d9565b6080020160000160208101906121ff9190615a20565b6122099190615af9565b9050612222828c836001600160801b03168d6001613825565b505b6000891180156122415750612241816001600160a01b031661161a565b801561229d575085826002811061225a5761225a6159d9565b6020020151516001600160801b03168c836002811061227b5761227b6159d9565b6080020160000160208101906122919190615a20565b6001600160801b031611155b156122b5576122b56001600160a01b038b168a613b7a565b50600101612081565b50602081015181516040516001600160a01b0392831692909116908e907f720da23a5c920b1d8827ec83c4d3c4d90d9419eadb0036b88cb4c2ffa91aef7d90612310908f906080820190600090615c5f565b60405180910390a4505050505050505050505050565b8161233081612ad5565b8161233a81612ad5565b6001600160a01b038085169084160361237f576040517fbd969eb000000000000000000000000000000000000000000000000000000000815260040160405180910390fd5b50505050565b604080518082019091526000808252602082015260006123ba8760200151856020015160006002811061170e5761170e6159d9565b905060005b858110156124f95760008787838181106123db576123db6159d9565b90506040020160200160208101906123f39190615a20565b90506000888884818110612409576124096159d9565b60409081029290920135600081815260666020528381208451606081019586905292955090939192509060039082845b815481526020019060010190808311612439575050505050905060008061245f83613419565b915091506124728a60000151858761350d565b60008115158815151461248657825161248c565b60208301515b905060008061249c83898e6135a4565b91509150818b6000018181516124b29190615a3b565b6001600160801b031690525060208b0180518291906124d2908390615a3b565b6001600160801b03169052506124f297508896506137ae95505050505050565b90506123bf565b50821561251e578151845161250e91906137b4565b6001600160801b0316825261253f565b612530826020015185600001516137eb565b6001600160801b031660208301525b5095945050505050565b610c3b8133613c93565b61255d8282613d08565b600082815260fb60205260409020610ad09082613daa565b80516001600160801b03166000908152606760205260408120610e3c81612eb5565b6125a18282613dbf565b600082815260fb60205260409020610ad09082613e42565b600082815260c9602090815260408083206001600160a01b038516845290915290205460ff16610c0457604051634ca8886760e01b815260040160405180910390fd5b612604613e57565b610191805460ff191690557f5db9ee0a495bf2e6ff9c91a7834c1ba4fdd244a5e8aa4e537bd38aeae4b073aa335b6040516001600160a01b03909116815260200160405180910390a1565b620f424063ffffffff82161115610c3b576040517f58d620b300000000000000000000000000000000000000000000000000000000815260040160405180910390fd5b81516001600160801b031660009081526069602052604090205463ffffffff90811690821681036126c257505050565b82516001600160801b03166000908152606960209081526040822080547fffffffffffffffffffffffffffffffffffffffffffffffffffffffff000000001663ffffffff861617905580850151908101516001600160a01b03169160200201516001600160a01b03167f831434d05f3ad5f63be733ea463b2933c70d2162697fd200a22b5d56f5c454b6838560405161276e92919063ffffffff92831681529116602082015260400190565b60405180910390a3505050565b60655463ffffffff700100000000000000000000000000000000909104811690821681036127a7575050565b606580547fffffffffffffffffffffffff00000000ffffffffffffffffffffffffffffffff1670010000000000000000000000000000000063ffffffff8581169182029290921790925560408051918416825260208201929092527f66db0986e1156e2e747795714bf0301c7e1c695c149a738cb01bcf5cfead8465910160405180910390a15050565b600054610100900460ff1661289c5760405162461bcd60e51b815260206004820152602b60248201527f496e697469616c697a61626c653a20636f6e7472616374206973206e6f74206960448201526a6e697469616c697a696e6760a81b6064820152608401610bf1565b6128a4613eaa565b6128ac613f1d565b6128b4613f90565b6128bc61400b565b6128c461407e565b6115236140f1565b6128d46114cf565b610191805460ff191660011790557f62e78cea01bee320cd4e420270b5ea74000d11b0c9f74754ebdbfc544b05a2586126323390565b6000612917848484612c52565b80516040517f42966c680000000000000000000000000000000000000000000000000000000081529192506001600160a01b038516916342966c68916129639160040190815260200190565b600060405180830381600087803b15801561297d57600080fd5b505af1158015612991573d6000803e3d6000fd5b5050825160009081526066602052604081208181556001810182905560020155506129b99050565b805182516001600160801b031660009081526067602052604090206129dd916141f0565b5060408101515160208201516060830151612a0b92919060005b6020020151516001600160801b031661394d565b6040810151602090810151908201516060830151612a2c92919060016129f7565b604081015160208101516001600160a01b031690600060200201516001600160a01b031682602001516001600160a01b03167f4d5b6e0627ea711d8e9312b6ba56f50e0b51d41816fd6fd38643495ac81d38b684600001518560600151600060028110612a9b57612a9b6159d9565b6020020151606087015160016020020151604051612abb93929190615c7b565b60405180910390a450505050565b6000610e3c83836141fc565b6001600160a01b038116610c3b576040517fe6c4247b00000000000000000000000000000000000000000000000000000000815260040160405180910390fd5b80600003610c3b576040517f7c946ed700000000000000000000000000000000000000000000000000000000815260040160405180910390fd5b6001600160a01b038216600090815260686020526040812054808203612b79576000915050610b27565b80851115612b85578094505b612b8f8582615d12565b6001600160a01b038516600090815260686020526040902055612bb384848761394d565b6040516001600160a01b0387811682528691818616918716907f2f4e8fcae66f01952d258445c03f43cf56d3ce389e017ecd2afa8a79e77175889060200160405180910390a45092949350505050565b6001600160801b03811660009081526069602052604081205463ffffffff168015612c2e5780610e3c565b5050606554700100000000000000000000000000000000900463ffffffff16919050565b612c5a615275565b6040516331a9108f60e11b8152600481018590526000906001600160a01b03851690636352211e90602401602060405180830381865afa158015612ca2573d6000803e3d6000fd5b505050506040513d601f19601f82011682018060405250810190612cc691906159bc565b600086815260666020526040808220815160608101928390529394509192919060039082845b815481526020019060010190808311612cec5750505050509050600080612d1283613419565b915091506000612d228783613af7565b604080516080810182528b81526001600160a01b039097166020880152860152505060608301525090509392505050565b612d5b61524d565b612d658383612ebf565b15612d9c576040517fc9bb25eb00000000000000000000000000000000000000000000000000000000815260040160405180910390fd5b6000612da884846133b3565b603354909150600090612dc5906001600160801b03166001615a3b565b603380546fffffffffffffffffffffffffffffffff19166001600160801b0383169081179091556000908152603560205260409020909150612e09908360026152a1565b5081516001600160a01b039081166000908152603460209081526040808320828701805186168552925280832080546fffffffffffffffffffffffffffffffff19166001600160801b0387169081179091559151865191519085169491909116927f6365c594f5448f79c1cc1e6f661bdbf1d16f2e8f85747e13f8e80f1fd168b7c391a46040518060400160405280826001600160801b03168152602001838152509250505092915050565b6000610841825490565b600080612ecc84846133b3565b80516001600160a01b039081166000908152603460209081526040808320828601519094168352929052908120549192506001600160801b039091169003612f18576000915050610841565b5060019392505050565b8451600090612f56908487845b608002016000016020810190612f459190615a20565b6001600160801b0316856001613825565b6020860151612f689084876001612f2f565b606554600090612f82906001600160801b03166001615a3b565b606580546001600160801b0383166fffffffffffffffffffffffffffffffff199182168117909255875192935060009260801b161786516001600160801b03166000908152606760205260409020909150612fdd9082614226565b5087516020870151600091612ff391600161170e565b60408051808201909152909150613041908960026000835b828210156130375761302860808302850136819003810190615b75565b8152602001906001019061300b565b5050505082613680565b600083815260666020526040902061305a91600361530d565b506040517f40c10f190000000000000000000000000000000000000000000000000000000081526001600160a01b038781166004830152602482018490528b16906340c10f1990604401600060405180830381600087803b1580156130be57600080fd5b505af11580156130d2573d6000803e3d6000fd5b50505050886001600281106130e9576130e96159d9565b602002015189516040516001600160a01b0392831692918216918916907fff24554f8ccfe540435cfc8854831f8dcf1cf2068708cfaf46e8b52a4ccc4c8d9061313a9087908e906080820190615d25565b60405180910390a45098975050505050505050565b83516001600160801b0316600090815260676020526040812060609161317482612eb5565b905084158061318257508085115b1561318b578094505b848611156131c5576040517f2cd4dad300000000000000000000000000000000000000000000000000000000815260040160405180910390fd5b60006131d18787615d12565b905060008167ffffffffffffffff8111156131ee576131ee615b5f565b60405190808252806020026020018201604052801561322757816020015b613214615275565b81526020019060019003908161320c5790505b50905060005b8281101561328757600061324b613244838c615b19565b8790612ac9565b905061325881898d612c52565b83838151811061326a5761326a6159d9565b6020026020010181905250506132808160010190565b905061322d565b5098975050505050505050565b6033546060906001600160801b031660008167ffffffffffffffff8111156132be576132be615b5f565b6040519080825280602002602001820160405280156132f757816020015b6132e461533b565b8152602001906001900390816132dc5790505b50905060005b826001600160801b0316816001600160801b031610156133ac5760356000613326836001615a3b565b6001600160801b03168152602081019190915260409081016000208151808301928390529160029082845b81546001600160a01b0316815260019091019060200180831161335157505050505082826001600160801b03168151811061338e5761338e6159d9565b602002602001018190525080806133a490615d47565b9150506132fd565b5092915050565b6133bb61533b565b816001600160a01b0316836001600160a01b0316106133f757604080518082019091526001600160a01b03808416825284166020820152610e3c565b50604080518082019091526001600160a01b0392831681529116602082015290565b613421615359565b6040805160c0808201835284516001600160801b0390811683850190815260208088018051841660608701528051608090811c67ffffffffffffffff1681880152905190941c60a0860152908452845180840186528751841c8152878601519092168282015260009490840192908201908760026020020151901c67ffffffffffffffff16815260200160c16001886002600381106134c2576134c26159d9565b6020020151901b901c67ffffffffffffffff169052905291507f8000000000000000000000000000000000000000000000000000000000000000836002602002015110159050915091565b826001600160801b03166135218360801c90565b6001600160801b031614613561576040517fb7b067f900000000000000000000000000000000000000000000000000000000815260040160405180910390fd5b806001600160801b0316600003610ad0576040517feb1a139600000000000000000000000000000000000000000000000000000000815260040160405180910390fd5b600080600085600001516001600160801b03169050600086602001516001600160801b0316905060006135f7886040015167ffffffffffffffff1665ffffffffffff811666010000000000009091041b90565b90506000613625896060015167ffffffffffffffff1665ffffffffffff811666010000000000009091041b90565b905086156136555761364b613646896001600160801b031686868686614232565b614331565b9550879450613674565b879550613671613646896001600160801b0316868686866143b4565b94505b50505050935093915050565b61368861539f565b604080516060808201835260208681015151875151608091821b6fffffffffffffffffffffffffffffffff19166001600160801b03918216178552885193840151848701519484015160c09190911b7fffffffffffffffff000000000000000000000000000000000000000000000000169490921b77ffffffffffffffff0000000000000000000000000000000016911617919091179082015290810183613731576000613753565b7f80000000000000000000000000000000000000000000000000000000000000005b60c086600160200201516060015167ffffffffffffffff16901b608087600160200201516040015167ffffffffffffffff16901b60008860016020020151602001516001600160801b0316901b171717815250905092915050565b60010190565b6000806137c083612c03565b9050610b276136466001600160801b038616620f42406137e08582615d6d565b63ffffffff166144f3565b6000806137f783612c03565b9050610b276136466001600160801b03861661381684620f4240615d6d565b63ffffffff16620f424061455b565b613837856001600160a01b031661161a565b156138a05782821015613876576040517f677606af00000000000000000000000000000000000000000000000000000000815260040160405180910390fd5b8282111561389b5761389b61388b8484615d12565b6001600160a01b03861690613b7a565b610c8a565b8215610c8a5780156139385760006138c16001600160a01b0387163061464f565b90506138d86001600160a01b0387168630876146f6565b60006138ed6001600160a01b0388163061464f565b9050846138fa8383615d12565b14613931576040517fca3e0a6800000000000000000000000000000000000000000000000000000000815260040160405180910390fd5b5050610c8a565b610c8a6001600160a01b0386168530866146f6565b8060000361395a57505050565b61396c836001600160a01b031661161a565b1561398457610ad06001600160a01b03831682613b7a565b610ad06001600160a01b0384168383614720565b6000805b6002811015612f18578281600281106139b7576139b76159d9565b6020020151516001600160801b03168482600281106139d8576139d86159d9565b6020020151516001600160801b0316141580613a3a5750828160028110613a0157613a016159d9565b6020020151602001516001600160801b0316848260028110613a2557613a256159d9565b6020020151602001516001600160801b031614155b80613a8d5750828160028110613a5257613a526159d9565b60200201516040015167ffffffffffffffff16848260028110613a7757613a776159d9565b60200201516040015167ffffffffffffffff1614155b80613ae05750828160028110613aa557613aa56159d9565b60200201516060015167ffffffffffffffff16848260028110613aca57613aca6159d9565b60200201516060015167ffffffffffffffff1614155b15613aef576000915050610841565b60010161399c565b613aff61533b565b81613b0e578260200151610e3c565b60405180604001604052808460200151600160028110613b3057613b306159d9565b60200201516001600160a01b03166001600160a01b031681526020018460200151600060028110613b6357613b636159d9565b60200201516001600160a01b031690529392505050565b80471015613bca5760405162461bcd60e51b815260206004820152601d60248201527f416464726573733a20696e73756666696369656e742062616c616e63650000006044820152606401610bf1565b6000826001600160a01b03168260405160006040518083038185875af1925050503d8060008114613c17576040519150601f19603f3d011682016040523d82523d6000602084013e613c1c565b606091505b5050905080610ad05760405162461bcd60e51b815260206004820152603a60248201527f416464726573733a20756e61626c6520746f2073656e642076616c75652c207260448201527f6563697069656e74206d617920686176652072657665727465640000000000006064820152608401610bf1565b600082815260c9602090815260408083206001600160a01b038516845290915290205460ff16610c0457613cc681614785565b613cd1836020614797565b604051602001613ce2929190615dc4565b60408051601f198184030181529082905262461bcd60e51b8252610bf191600401615e45565b600082815260c9602090815260408083206001600160a01b038516845290915290205460ff16610c0457600082815260c9602090815260408083206001600160a01b03851684529091529020805460ff19166001179055613d663390565b6001600160a01b0316816001600160a01b0316837f2f8788117e7eff1d82e926ec794901d17c78024a50270940304540a733656f0d60405160405180910390a45050565b6000610e3c836001600160a01b0384166149c0565b600082815260c9602090815260408083206001600160a01b038516845290915290205460ff1615610c0457600082815260c9602090815260408083206001600160a01b0385168085529252808320805460ff1916905551339285917ff6391f5c32d9c69d2a47ea670b442974b53935d1edc7fd64eb21e047a839171b9190a45050565b6000610e3c836001600160a01b038416614a0f565b6101915460ff166115235760405162461bcd60e51b815260206004820152601460248201527f5061757361626c653a206e6f74207061757365640000000000000000000000006044820152606401610bf1565b600054610100900460ff16613f155760405162461bcd60e51b815260206004820152602b60248201527f496e697469616c697a61626c653a20636f6e7472616374206973206e6f74206960448201526a6e697469616c697a696e6760a81b6064820152608401610bf1565b611523614b02565b600054610100900460ff16613f885760405162461bcd60e51b815260206004820152602b60248201527f496e697469616c697a61626c653a20636f6e7472616374206973206e6f74206960448201526a6e697469616c697a696e6760a81b6064820152608401610bf1565b611523614b6d565b600054610100900460ff16613ffb5760405162461bcd60e51b815260206004820152602b60248201527f496e697469616c697a61626c653a20636f6e7472616374206973206e6f74206960448201526a6e697469616c697a696e6760a81b6064820152608401610bf1565b614003614b02565b611523614be3565b600054610100900460ff166140765760405162461bcd60e51b815260206004820152602b60248201527f496e697469616c697a61626c653a20636f6e7472616374206973206e6f74206960448201526a6e697469616c697a696e6760a81b6064820152608401610bf1565b611523614cb1565b600054610100900460ff166140e95760405162461bcd60e51b815260206004820152602b60248201527f496e697469616c697a61626c653a20636f6e7472616374206973206e6f74206960448201526a6e697469616c697a696e6760a81b6064820152608401610bf1565b611523614d1c565b600054610100900460ff1661415c5760405162461bcd60e51b815260206004820152602b60248201527f496e697469616c697a61626c653a20636f6e7472616374206973206e6f74206960448201526a6e697469616c697a696e6760a81b6064820152608401610bf1565b6141a67ff28f409b8cbe6b50c7ca45afe893f01f69626f8a4e33cb480bc1bc2d618c08457f2172861495e7b85edac73e3cd5fbb42dd675baadf627720e687bcfdaca025096614d94565b6115237f24a843cae781765d8cdc3bca1cc42497522c0508f4e621c2ca36ceea2fda7b167f2172861495e7b85edac73e3cd5fbb42dd675baadf627720e687bcfdaca025096614d94565b6000610e3c8383614a0f565b6000826000018281548110614213576142136159d9565b9060005260206000200154905092915050565b6000610e3c83836149c0565b6000826000036142a15781600003614276576040517f4e305c4b00000000000000000000000000000000000000000000000000000000815260040160405180910390fd5b61429a8661428b660100000000000080615e78565b6142958580615e78565b6144f3565b9050614328565b660100000000000084028584028386020160006142be868a615e78565b6142c89083615d12565b905060006142d68485614ddf565b905060006142e48484614ddf565b905060006142f28383614e0e565b905060006143018788846144f3565b9050600061431087878561455b565b905061431d8e83836144f3565b985050505050505050505b95945050505050565b60006001600160801b038211156143b05760405162461bcd60e51b815260206004820152602760248201527f53616665436173743a2076616c756520646f65736e27742066697420696e203160448201527f32382062697473000000000000000000000000000000000000000000000000006064820152608401610bf1565b5090565b60008260000361441c57816000036143f8576040517f4e305c4b00000000000000000000000000000000000000000000000000000000815260040160405180910390fd5b61429a866144068480615e78565b614417660100000000000080615e78565b61455b565b660100000000000084028584028386020160006144398983615e78565b905060006144478485614ddf565b905060006144558389614ddf565b905060006144638383614e0e565b905060006144728788846144f3565b90506000614481868c856144f3565b90506000806144908484614e24565b9150915081156144bf576144ae896144a8878b615e8f565b8361455b565b9a5050505050505050505050614328565b6144ca8a8b8a6144f3565b6144d4908e615b19565b6144de908a615e8f565b9a505050505050505050505095945050505050565b60008061450185858561455b565b90506000614510868686614e4d565b1115610b27576000198110614551576040517f35278d1200000000000000000000000000000000000000000000000000000000815260040160405180910390fd5b6001019050610e3c565b600080600061456a8686614e68565b915091508160000361458f5783818161458557614585615d8a565b0492505050610e3c565b8382106145c8576040517f35278d1200000000000000000000000000000000000000000000000000000000815260040160405180910390fd5b60006145d5878787614e4d565b90506000806145e5858585614ea1565b915091508160000361460d5786818161460057614600615d8a565b0495505050505050610e3c565b6000878103881690614620848484614ed1565b9050600061463c838b8161463657614636615d8a565b04614f0e565b919091029b9a5050505050505050505050565b600061465a8361161a565b1561467057506001600160a01b03811631610841565b826040517f70a082310000000000000000000000000000000000000000000000000000000081526001600160a01b03848116600483015291909116906370a0823190602401602060405180830381865afa1580156146d2573d6000803e3d6000fd5b505050506040513d601f19601f82011682018060405250810190610e3c9190615eb1565b80158061470757506147078461161a565b61237f5761237f6001600160a01b038516848484614f2f565b8060000361472d57505050565b6147368361161a565b15614771576040516001600160a01b0383169082156108fc029083906000818181858888f1935050505015801561237f573d6000803e3d6000fd5b610ad06001600160a01b0384168383614fe0565b60606108416001600160a01b03831660145b606060006147a6836002615e78565b6147b1906002615b19565b67ffffffffffffffff8111156147c9576147c9615b5f565b6040519080825280601f01601f1916602001820160405280156147f3576020820181803683370190505b5090507f30000000000000000000000000000000000000000000000000000000000000008160008151811061482a5761482a6159d9565b60200101907effffffffffffffffffffffffffffffffffffffffffffffffffffffffffffff1916908160001a9053507f78000000000000000000000000000000000000000000000000000000000000008160018151811061488d5761488d6159d9565b60200101907effffffffffffffffffffffffffffffffffffffffffffffffffffffffffffff1916908160001a90535060006148c9846002615e78565b6148d4906001615b19565b90505b6001811115614971577f303132333435363738396162636465660000000000000000000000000000000085600f1660108110614915576149156159d9565b1a60f81b82828151811061492b5761492b6159d9565b60200101907effffffffffffffffffffffffffffffffffffffffffffffffffffffffffffff1916908160001a90535060049490941c9361496a81615eca565b90506148d7565b508315610e3c5760405162461bcd60e51b815260206004820181905260248201527f537472696e67733a20686578206c656e67746820696e73756666696369656e746044820152606401610bf1565b6000818152600183016020526040812054614a0757508154600181810184556000848152602080822090930184905584548482528286019093526040902091909155610841565b506000610841565b60008181526001830160205260408120548015614af8576000614a33600183615d12565b8554909150600090614a4790600190615d12565b9050818114614aac576000866000018281548110614a6757614a676159d9565b9060005260206000200154905080876000018481548110614a8a57614a8a6159d9565b6000918252602080832090910192909255918252600188019052604090208390555b8554869080614abd57614abd615ee1565b600190038181906000526020600020016000905590558560010160008681526020019081526020016000206000905560019350505050610841565b6000915050610841565b600054610100900460ff166115235760405162461bcd60e51b815260206004820152602b60248201527f496e697469616c697a61626c653a20636f6e7472616374206973206e6f74206960448201526a6e697469616c697a696e6760a81b6064820152608401610bf1565b600054610100900460ff16614bd85760405162461bcd60e51b815260206004820152602b60248201527f496e697469616c697a61626c653a20636f6e7472616374206973206e6f74206960448201526a6e697469616c697a696e6760a81b6064820152608401610bf1565b6115236107d061277b565b600054610100900460ff16614c4e5760405162461bcd60e51b815260206004820152602b60248201527f496e697469616c697a61626c653a20636f6e7472616374206973206e6f74206960448201526a6e697469616c697a696e6760a81b6064820152608401610bf1565b61012d805461ffff19166001179055614c877f2172861495e7b85edac73e3cd5fbb42dd675baadf627720e687bcfdaca02509680614d94565b6115237f2172861495e7b85edac73e3cd5fbb42dd675baadf627720e687bcfdaca02509633615029565b600054610100900460ff16611ca25760405162461bcd60e51b815260206004820152602b60248201527f496e697469616c697a61626c653a20636f6e7472616374206973206e6f74206960448201526a6e697469616c697a696e6760a81b6064820152608401610bf1565b600054610100900460ff16614d875760405162461bcd60e51b815260206004820152602b60248201527f496e697469616c697a61626c653a20636f6e7472616374206973206e6f74206960448201526a6e697469616c697a696e6760a81b6064820152608401610bf1565b610191805460ff19169055565b600082815260c96020526040808220600101805490849055905190918391839186917fbd79b86ffe0ab8e8776151514217cd7cacd52c909f66475c3af44e129f0b00ff9190a4505050565b6000806000614dee8585614e68565b9150915080198211614e035781600101614328565b506002019392505050565b6000818311614e1d5781610e3c565b5090919050565b60008083830184811015614e3f576000809250925050614e46565b6001925090505b9250929050565b60008180614e5d57614e5d615d8a565b838509949350505050565b6000806000614e778585615033565b9050848402808210614e90579081900392509050614e46565b600181830303969095509350505050565b600080828410614eb75750839050818303614ec9565b614ec2600186615d12565b9150508183035b935093915050565b600080614eef8380830381614ee857614ee8615d8a565b0460010190565b9050828481614f0057614f00615d8a565b048186021795945050505050565b60006001815b60088110156133ac5783820260020382029150600101614f14565b6040516001600160a01b038085166024830152831660448201526064810182905261237f9085907f23b872dd00000000000000000000000000000000000000000000000000000000906084015b60408051601f198184030181529190526020810180517bffffffffffffffffffffffffffffffffffffffffffffffffffffffff167fffffffff0000000000000000000000000000000000000000000000000000000090931692909217909152615042565b6040516001600160a01b038316602482015260448101829052610ad09084907fa9059cbb0000000000000000000000000000000000000000000000000000000090606401614f7c565b610c048282612553565b60006000198284099392505050565b6000615097826040518060400160405280602081526020017f5361666545524332303a206c6f772d6c6576656c2063616c6c206661696c6564815250856001600160a01b031661512a9092919063ffffffff16565b90508051600014806150b85750808060200190518101906150b89190615ef7565b610ad05760405162461bcd60e51b815260206004820152602a60248201527f5361666545524332303a204552433230206f7065726174696f6e20646964206e60448201527f6f742073756363656564000000000000000000000000000000000000000000006064820152608401610bf1565b6060610b27848460008585600080866001600160a01b031685876040516151519190615f19565b60006040518083038185875af1925050503d806000811461518e576040519150601f19603f3d011682016040523d82523d6000602084013e615193565b606091505b50915091506151a4878383876151af565b979650505050505050565b6060831561521e578251600003615217576001600160a01b0385163b6152175760405162461bcd60e51b815260206004820152601d60248201527f416464726573733a2063616c6c20746f206e6f6e2d636f6e74726163740000006044820152606401610bf1565b5081610b27565b610b2783838151156152335781518083602001fd5b8060405162461bcd60e51b8152600401610bf19190615e45565b604051806040016040528060006001600160801b0316815260200161527061533b565b905290565b604080516080810182526000808252602082015290810161529461533b565b8152602001615270615359565b8260028101928215615301579160200282015b8281111561530157825182547fffffffffffffffffffffffff0000000000000000000000000000000000000000166001600160a01b039091161782556020909201916001909101906152b4565b506143b09291506153bd565b8260038101928215615301579160200282015b82811115615301578251825591602001919060010190615320565b60405180604001604052806002906020820280368337509192915050565b60405180604001604052806002905b6040805160808101825260008082526020808301829052928201819052606082015282526000199092019101816153685790505090565b60405180606001604052806003906020820280368337509192915050565b5b808211156143b057600081556001016153be565b6000602082840312156153e457600080fd5b81357fffffffff0000000000000000000000000000000000000000000000000000000081168114610e3c57600080fd5b6001600160a01b0381168114610c3b57600080fd5b60008083601f84011261543b57600080fd5b50813567ffffffffffffffff81111561545357600080fd5b6020830191508360208260061b8501011115614e4657600080fd5b80356001600160801b038116811461548557600080fd5b919050565b60008060008060008060a087890312156154a357600080fd5b86356154ae81615414565b955060208701356154be81615414565b9450604087013567ffffffffffffffff8111156154da57600080fd5b6154e689828a01615429565b909550935050606087013591506154ff6080880161546e565b90509295509295509295565b80610100810183101561084157600080fd5b6000806000610220848603121561553357600080fd5b83359250615544856020860161550b565b915061555485610120860161550b565b90509250925092565b60006020828403121561556f57600080fd5b5035919050565b6000806000806060858703121561558c57600080fd5b843561559781615414565b935060208501356155a781615414565b9250604085013567ffffffffffffffff8111156155c357600080fd5b6155cf87828801615429565b95989497509550505050565b600080604083850312156155ee57600080fd5b82359150602083013561560081615414565b809150509250929050565b6000806040838503121561561e57600080fd5b823561562981615414565b9150602083013561560081615414565b803563ffffffff8116811461548557600080fd5b60008060006060848603121561566257600080fd5b833561566d81615414565b9250602084013561567d81615414565b915061555460408501615639565b60006020828403121561569d57600080fd5b610e3c82615639565b8060005b600281101561237f5781516001600160a01b03168452602093840193909101906001016156aa565b81516001600160801b0316815260208083015160608301916133ac908401826156a6565b6000806020838503121561570957600080fd5b823567ffffffffffffffff8082111561572157600080fd5b818501915085601f83011261573557600080fd5b81358181111561574457600080fd5b86602082850101111561575657600080fd5b60209290920196919550909350505050565b6000806040838503121561577b57600080fd5b50508035926020909101359150565b60008060006060848603121561579f57600080fd5b83356157aa81615414565b92506020840135915060408401356157c181615414565b809150509250925092565b8051825260206001600160a01b0381830151168184015260408201516157f560408501826156a6565b506060820151608080850160005b6002811015615865576158558285516001600160801b0380825116835280602083015116602084015250604081015167ffffffffffffffff808216604085015280606084015116606085015250505050565b9284019290820190600101615803565b50505050505050565b610180810161084182846157cc565b6000806000610140848603121561589357600080fd5b833561589e81615414565b925060208401356158ae81615414565b9150615554856040860161550b565b600080600080608085870312156158d357600080fd5b84356158de81615414565b935060208501356158ee81615414565b93969395505050506040820135916060013590565b6020808252825182820181905260009190848201906040850190845b81811015615946576159328385516157cc565b92840192610180929092019160010161591f565b50909695505050505050565b60006020828403121561596457600080fd5b8135610e3c81615414565b602080825282518282018190526000919060409081850190868401855b828110156159af5761599f8483516156a6565b928401929085019060010161598c565b5091979650505050505050565b6000602082840312156159ce57600080fd5b8151610e3c81615414565b634e487b7160e01b600052603260045260246000fd5b634e487b7160e01b600052601160045260246000fd5b61ffff8181168382160190808211156133ac576133ac6159ef565b600060208284031215615a3257600080fd5b610e3c8261546e565b6001600160801b038181168382160190808211156133ac576133ac6159ef565b6101208101615aa882866001600160801b0380825116835280602083015116602084015250604081015167ffffffffffffffff808216604085015280606084015116606085015250505050565b83516001600160801b03908116608084015260208501511660a0830152604084015167ffffffffffffffff90811660c084015260608501511660e08301525b60ff8316610100830152949350505050565b6001600160801b038281168282160390808211156133ac576133ac6159ef565b80820180821115610841576108416159ef565b803567ffffffffffffffff8116811461548557600080fd5b600060208284031215615b5657600080fd5b610e3c82615b2c565b634e487b7160e01b600052604160045260246000fd5b600060808284031215615b8757600080fd5b6040516080810181811067ffffffffffffffff82111715615bb857634e487b7160e01b600052604160045260246000fd5b604052615bc48361546e565b8152615bd26020840161546e565b6020820152615be360408401615b2c565b6040820152615bf460608401615b2c565b60608201529392505050565b6001600160801b0380615c128361546e565b16835280615c226020840161546e565b16602084015250615c3560408201615b2c565b67ffffffffffffffff808216604085015280615c5360608501615b2c565b16606085015250505050565b6101208101615c6e8286615c00565b615ae76080830185615c00565b8381526101208101615cce60208301856001600160801b0380825116835280602083015116602084015250604081015167ffffffffffffffff808216604085015280606084015116606085015250505050565b82516001600160801b0390811660a084015260208401511660c0830152604083015167ffffffffffffffff90811660e0840152606084015116610100830152610b27565b81810381811115610841576108416159ef565b8381526101208101615d3a6020830185615c00565b610b2760a0830184615c00565b60006001600160801b03808316818103615d6357615d636159ef565b6001019392505050565b63ffffffff8281168282160390808211156133ac576133ac6159ef565b634e487b7160e01b600052601260045260246000fd5b60005b83811015615dbb578181015183820152602001615da3565b50506000910152565b7f416363657373436f6e74726f6c3a206163636f756e7420000000000000000000815260008351615dfc816017850160208801615da0565b7f206973206d697373696e6720726f6c65200000000000000000000000000000006017918401918201528351615e39816028840160208801615da0565b01602801949350505050565b6020815260008251806020840152615e64816040850160208701615da0565b601f01601f19169190910160400192915050565b8082028115828204841417610841576108416159ef565b600082615eac57634e487b7160e01b600052601260045260246000fd5b500490565b600060208284031215615ec357600080fd5b5051919050565b600081615ed957615ed96159ef565b506000190190565b634e487b7160e01b600052603160045260246000fd5b600060208284031215615f0957600080fd5b81518015158114610e3c57600080fd5b60008251615f2b818460208701615da0565b919091019291505056fea26469706673582212209c302235969fcbab86da2b510d8218382e4a4d1b6fe46dba8661433bf44b251364736f6c634300081300332172861495e7b85edac73e3cd5fbb42dd675baadf627720e687bcfdaca025096496e697469616c697a61626c653a20636f6e7472616374206973206e6f742069",
    "linkReferences": {}
  },
  "methodIdentifiers": {
    "DEFAULT_ADMIN_ROLE()": "a217fddf",
    "accumulatedFees(address)": "fcf66664",
    "calculateTradeSourceAmount(address,address,(uint256,uint128)[])": "f2bda26d",
    "calculateTradeTargetAmount(address,address,(uint256,uint128)[])": "2ab2fad1",
    "controllerType()": "b76040cd",
    "createPair(address,address)": "c9c65396",
    "createStrategy(address,address,(uint128,uint128,uint64,uint64)[2])": "f727473a",
    "deleteStrategy(uint256)": "87302037",
    "getRoleAdmin(bytes32)": "248a9ca3",
    "getRoleMember(bytes32,uint256)": "9010d07c",
    "getRoleMemberCount(bytes32)": "ca15c873",
    "grantRole(bytes32,address)": "2f2ff15d",
    "hasRole(bytes32,address)": "91d14854",
    "initialize()": "8129fc1c",
    "pair(address,address)": "8672d545",
    "pairTradingFeePPM(address,address)": "ba0a868b",
    "pairs()": "ffb0a4a0",
    "pause()": "8456cb59",
    "paused()": "5c975abb",
    "postUpgrade(bytes)": "8cd2403d",
    "renounceRole(bytes32,address)": "36568abe",
    "revokeRole(bytes32,address)": "d547741f",
    "roleAdmin()": "93867fb5",
    "roleEmergencyStopper()": "41f435b3",
    "roleFeesManager()": "2c40de1b",
    "setPairTradingFeePPM(address,address,uint32)": "55817d1d",
    "setTradingFeePPM(uint32)": "69a4dea7",
    "strategiesByPair(address,address,uint256,uint256)": "f74dad81",
    "strategiesByPairCount(address,address)": "322cf844",
    "strategy(uint256)": "bc88d7e4",
    "supportsInterface(bytes4)": "01ffc9a7",
    "tradeBySourceAmount(address,address,(uint256,uint128)[],uint256,uint128)": "f1c5e014",
    "tradeByTargetAmount(address,address,(uint256,uint128)[],uint256,uint128)": "102ee9ba",
    "tradingFeePPM()": "f06f8acd",
    "unpause()": "3f4ba83a",
    "updateStrategy(uint256,(uint128,uint128,uint64,uint64)[2],(uint128,uint128,uint64,uint64)[2])": "21589fa1",
    "version()": "54fd4d50",
    "withdrawFees(address,uint256,address)": "9ba372c2"
  },
  "id": 0
}