{
  "abi": [
    {
      "inputs": [
        {
          "internalType": "contract ICarbonVortex",
          "name": "carbonVortexInit",
          "type": "address"
        }
      ],
      "stateMutability": "nonpayable",
      "type": "constructor"
    },
    {
      "inputs": [
        {
          "internalType": "Token[]",
          "name": "tokens",
          "type": "address[]"
        }
      ],
      "name": "tryReenterCarbonVortex",
      "outputs": [],
      "stateMutability": "nonpayable",
      "type": "function"
    },
    {
      "stateMutability": "payable",
      "type": "receive"
    }
  ],
  "bytecode": {
    "object": "0x60a060405234801561001057600080fd5b5060405161039638038061039683398101604081905261002f91610040565b6001600160a01b0316608052610070565b60006020828403121561005257600080fd5b81516001600160a01b038116811461006957600080fd5b9392505050565b60805161030561009160003960008181605d015261013101526103056000f3fe6080604052600436106100225760003560e01c8063d030f861146100d957600080fd5b366100d457604080516000815260208101918290527f4c0a0dfa000000000000000000000000000000000000000000000000000000009091527f000000000000000000000000000000000000000000000000000000000000000073ffffffffffffffffffffffffffffffffffffffff16634c0a0dfa6100a4836024810161019e565b600060405180830381600087803b1580156100be57600080fd5b505af11580156100d2573d6000803e3d6000fd5b005b600080fd5b3480156100e557600080fd5b506100d26100f43660046101f8565b6040517f4c0a0dfa00000000000000000000000000000000000000000000000000000000815273ffffffffffffffffffffffffffffffffffffffff7f00000000000000000000000000000000000000000000000000000000000000001690634c0a0dfa90610168908590859060040161026d565b600060405180830381600087803b15801561018257600080fd5b505af1158015610196573d6000803e3d6000fd5b505050505050565b6020808252825182820181905260009190848201906040850190845b818110156101ec57835173ffffffffffffffffffffffffffffffffffffffff16835292840192918401916001016101ba565b50909695505050505050565b6000806020838503121561020b57600080fd5b823567ffffffffffffffff8082111561022357600080fd5b818501915085601f83011261023757600080fd5b81358181111561024657600080fd5b8660208260051b850101111561025b57600080fd5b60209290920196919550909350505050565b6020808252818101839052600090846040840183805b878110156102c257833573ffffffffffffffffffffffffffffffffffffffff81168082146102af578384fd5b8452509284019291840191600101610283565b509097965050505050505056fea2646970667358221220f3376e1319bd6ba0c6c2f5cae8b9d5758f80f695c43590ec6f0cf69df444f75064736f6c63430008130033",
    "linkReferences": {}
  },
  "methodIdentifiers": {
    "tryReenterCarbonVortex(address[])": "d030f861"
  },
  "id": 16
}