{
  "abi": [
    {
      "inputs": [
        {
          "internalType": "string",
          "name": "name",
          "type": "string"
        },
        {
          "internalType": "string",
          "name": "symbol",
          "type": "string"
        },
        {
          "internalType": "uint256",
          "name": "totalSupply",
          "type": "uint256"
        }
      ],
      "stateMutability": "nonpayable",
      "type": "constructor"
    },
    {
      "inputs": [],
      "name": "InvalidShortString",
      "type": "error"
    },
    {
      "inputs": [
        {
          "internalType": "string",
          "name": "str",
          "type": "string"
        }
      ],
      "name": "StringTooLong",
      "type": "error"
    },
    {
      "anonymous": false,
      "inputs": [
        {
          "indexed": true,
          "internalType": "address",
          "name": "owner",
          "type": "address"
        },
        {
          "indexed": true,
          "internalType": "address",
          "name": "spender",
          "type": "address"
        },
        {
          "indexed": false,
          "internalType": "uint256",
          "name": "value",
          "type": "uint256"
        }
      ],
      "name": "Approval",
      "type": "event"
    },
    {
      "anonymous": false,
      "inputs": [],
      "name": "EIP712DomainChanged",
      "type": "event"
    },
    {
      "anonymous": false,
      "inputs": [
        {
          "indexed": true,
          "internalType": "address",
          "name": "from",
          "type": "address"
        },
        {
          "indexed": true,
          "internalType": "address",
          "name": "to",
          "type": "address"
        },
        {
          "indexed": false,
          "internalType": "uint256",
          "name": "value",
          "type": "uint256"
        }
      ],
      "name": "Transfer",
      "type": "event"
    },
    {
      "inputs": [],
      "name": "DOMAIN_SEPARATOR",
      "outputs": [
        {
          "internalType": "bytes32",
          "name": "",
          "type": "bytes32"
        }
      ],
      "stateMutability": "view",
      "type": "function"
    },
    {
      "inputs": [
        {
          "internalType": "address",
          "name": "owner",
          "type": "address"
        },
        {
          "internalType": "address",
          "name": "spender",
          "type": "address"
        }
      ],
      "name": "allowance",
      "outputs": [
        {
          "internalType": "uint256",
          "name": "",
          "type": "uint256"
        }
      ],
      "stateMutability": "view",
      "type": "function"
    },
    {
      "inputs": [
        {
          "internalType": "address",
          "name": "spender",
          "type": "address"
        },
        {
          "internalType": "uint256",
          "name": "amount",
          "type": "uint256"
        }
      ],
      "name": "approve",
      "outputs": [
        {
          "internalType": "bool",
          "name": "",
          "type": "bool"
        }
      ],
      "stateMutability": "nonpayable",
      "type": "function"
    },
    {
      "inputs": [
        {
          "internalType": "address",
          "name": "account",
          "type": "address"
        }
      ],
      "name": "balanceOf",
      "outputs": [
        {
          "internalType": "uint256",
          "name": "",
          "type": "uint256"
        }
      ],
      "stateMutability": "view",
      "type": "function"
    },
    {
      "inputs": [],
      "name": "decimals",
      "outputs": [
        {
          "internalType": "uint8",
          "name": "",
          "type": "uint8"
        }
      ],
      "stateMutability": "view",
      "type": "function"
    },
    {
      "inputs": [
        {
          "internalType": "address",
          "name": "spender",
          "type": "address"
        },
        {
          "internalType": "uint256",
          "name": "subtractedValue",
          "type": "uint256"
        }
      ],
      "name": "decreaseAllowance",
      "outputs": [
        {
          "internalType": "bool",
          "name": "",
          "type": "bool"
        }
      ],
      "stateMutability": "nonpayable",
      "type": "function"
    },
    {
      "inputs": [],
      "name": "eip712Domain",
      "outputs": [
        {
          "internalType": "bytes1",
          "name": "fields",
          "type": "bytes1"
        },
        {
          "internalType": "string",
          "name": "name",
          "type": "string"
        },
        {
          "internalType": "string",
          "name": "version",
          "type": "string"
        },
        {
          "internalType": "uint256",
          "name": "chainId",
          "type": "uint256"
        },
        {
          "internalType": "address",
          "name": "verifyingContract",
          "type": "address"
        },
        {
          "internalType": "bytes32",
          "name": "salt",
          "type": "bytes32"
        },
        {
          "internalType": "uint256[]",
          "name": "extensions",
          "type": "uint256[]"
        }
      ],
      "stateMutability": "view",
      "type": "function"
    },
    {
      "inputs": [
        {
          "internalType": "address",
          "name": "spender",
          "type": "address"
        },
        {
          "internalType": "uint256",
          "name": "addedValue",
          "type": "uint256"
        }
      ],
      "name": "increaseAllowance",
      "outputs": [
        {
          "internalType": "bool",
          "name": "",
          "type": "bool"
        }
      ],
      "stateMutability": "nonpayable",
      "type": "function"
    },
    {
      "inputs": [],
      "name": "name",
      "outputs": [
        {
          "internalType": "string",
          "name": "",
          "type": "string"
        }
      ],
      "stateMutability": "view",
      "type": "function"
    },
    {
      "inputs": [
        {
          "internalType": "address",
          "name": "owner",
          "type": "address"
        }
      ],
      "name": "nonces",
      "outputs": [
        {
          "internalType": "uint256",
          "name": "",
          "type": "uint256"
        }
      ],
      "stateMutability": "view",
      "type": "function"
    },
    {
      "inputs": [
        {
          "internalType": "address",
          "name": "owner",
          "type": "address"
        },
        {
          "internalType": "address",
          "name": "spender",
          "type": "address"
        },
        {
          "internalType": "uint256",
          "name": "value",
          "type": "uint256"
        },
        {
          "internalType": "uint256",
          "name": "deadline",
          "type": "uint256"
        },
        {
          "internalType": "uint8",
          "name": "v",
          "type": "uint8"
        },
        {
          "internalType": "bytes32",
          "name": "r",
          "type": "bytes32"
        },
        {
          "internalType": "bytes32",
          "name": "s",
          "type": "bytes32"
        }
      ],
      "name": "permit",
      "outputs": [],
      "stateMutability": "nonpayable",
      "type": "function"
    },
    {
      "inputs": [
        {
          "internalType": "uint256",
          "name": "feeDivisor",
          "type": "uint256"
        }
      ],
      "name": "setFeeDivisor",
      "outputs": [],
      "stateMutability": "nonpayable",
      "type": "function"
    },
    {
      "inputs": [
        {
          "internalType": "bool",
          "name": "enabled",
          "type": "bool"
        }
      ],
      "name": "setFeeEnabled",
      "outputs": [],
      "stateMutability": "nonpayable",
      "type": "function"
    },
    {
      "inputs": [
        {
          "internalType": "bool",
          "name": "positiveFee",
          "type": "bool"
        }
      ],
      "name": "setFeeSide",
      "outputs": [],
      "stateMutability": "nonpayable",
      "type": "function"
    },
    {
      "inputs": [],
      "name": "symbol",
      "outputs": [
        {
          "internalType": "string",
          "name": "",
          "type": "string"
        }
      ],
      "stateMutability": "view",
      "type": "function"
    },
    {
      "inputs": [],
      "name": "totalSupply",
      "outputs": [
        {
          "internalType": "uint256",
          "name": "",
          "type": "uint256"
        }
      ],
      "stateMutability": "view",
      "type": "function"
    },
    {
      "inputs": [
        {
          "internalType": "address",
          "name": "to",
          "type": "address"
        },
        {
          "internalType": "uint256",
          "name": "amount",
          "type": "uint256"
        }
      ],
      "name": "transfer",
      "outputs": [
        {
          "internalType": "bool",
          "name": "",
          "type": "bool"
        }
      ],
      "stateMutability": "nonpayable",
      "type": "function"
    },
    {
      "inputs": [
        {
          "internalType": "address",
          "name": "from",
          "type": "address"
        },
        {
          "internalType": "address",
          "name": "to",
          "type": "address"
        },
        {
          "internalType": "uint256",
          "name": "amount",
          "type": "uint256"
        }
      ],
      "name": "transferFrom",
      "outputs": [
        {
          "internalType": "bool",
          "name": "",
          "type": "bool"
        }
      ],
      "stateMutability": "nonpayable",
      "type": "function"
    },
    {
      "inputs": [
        {
          "internalType": "uint8",
          "name": "newDecimals",
          "type": "uint8"
        }
      ],
      "name": "updateDecimals",
      "outputs": [],
      "stateMutability": "nonpayable",
      "type": "function"
    }
  ],
  "bytecode": {
    "object": "0x6101606040526009805461ffff19166101121790556103e8600a55600b805460ff191660011790553480156200003457600080fd5b5060405162001a9338038062001a93833981016040819052620000579162000377565b6040805180820190915260018152603160f81b6020820152839081908185600362000083838262000478565b50600462000092828262000478565b50620000a49150839050600562000162565b61012052620000b581600662000162565b61014052815160208084019190912060e052815190820120610100524660a0526200014360e05161010051604080517f8b73c3c69bb8fe3d512ecc4cf759cc79239f7b179b0ffacaa9a75d522b39400f60208201529081019290925260608201524660808201523060a082015260009060c00160405160208183030381529060405280519060200120905090565b60805250503060c052506200015933826200019b565b505050620005c0565b600060208351101562000182576200017a8362000262565b905062000195565b816200018f848262000478565b5060ff90505b92915050565b6001600160a01b038216620001f75760405162461bcd60e51b815260206004820152601f60248201527f45524332303a206d696e7420746f20746865207a65726f20616464726573730060448201526064015b60405180910390fd5b80600260008282546200020b919062000544565b90915550506001600160a01b038216600081815260208181526040808320805486019055518481527fddf252ad1be2c89b69c2b068fc378daa952ba7f163c4a11628f55a4df523b3ef910160405180910390a35050565b600080829050601f8151111562000290578260405163305a27a960e01b8152600401620001ee919062000566565b80516200029d826200059b565b179392505050565b505050565b634e487b7160e01b600052604160045260246000fd5b60005b83811015620002dd578181015183820152602001620002c3565b50506000910152565b600082601f830112620002f857600080fd5b81516001600160401b0380821115620003155762000315620002aa565b604051601f8301601f19908116603f01168101908282118183101715620003405762000340620002aa565b816040528381528660208588010111156200035a57600080fd5b6200036d846020830160208901620002c0565b9695505050505050565b6000806000606084860312156200038d57600080fd5b83516001600160401b0380821115620003a557600080fd5b620003b387838801620002e6565b94506020860151915080821115620003ca57600080fd5b50620003d986828701620002e6565b925050604084015190509250925092565b600181811c90821680620003ff57607f821691505b6020821081036200042057634e487b7160e01b600052602260045260246000fd5b50919050565b601f821115620002a557600081815260208120601f850160051c810160208610156200044f5750805b601f850160051c820191505b8181101562000470578281556001016200045b565b505050505050565b81516001600160401b03811115620004945762000494620002aa565b620004ac81620004a58454620003ea565b8462000426565b602080601f831160018114620004e45760008415620004cb5750858301515b600019600386901b1c1916600185901b17855562000470565b600085815260208120601f198616915b828110156200051557888601518255948401946001909101908401620004f4565b5085821015620005345787850151600019600388901b60f8161c191681555b5050505050600190811b01905550565b808201808211156200019557634e487b7160e01b600052601160045260246000fd5b602081526000825180602084015262000587816040850160208701620002c0565b601f01601f19169190910160400192915050565b80516020808301519190811015620004205760001960209190910360031b1b16919050565b60805160a05160c05160e0516101005161012051610140516114786200061b6000396000610523015260006104f801526000610a15015260006109ed01526000610948015260006109720152600061099c01526114786000f3fe608060405234801561001057600080fd5b50600436106101515760003560e01c806339509351116100cd57806395d89b4111610081578063a9059cbb11610066578063a9059cbb146102fd578063d505accf14610310578063dd62ed3e1461032357600080fd5b806395d89b41146102e2578063a457c2d7146102ea57600080fd5b806370a08231116100b257806370a082311461028b5780637ecebe00146102b457806384b0196e146102c757600080fd5b806339509351146102575780636574b3591461026a57600080fd5b80630db474fa1161012457806323b872dd1161010957806323b872dd14610227578063313ce5671461023a5780633644e5151461024f57600080fd5b80630db474fa146101d057806318160ddd1461021557600080fd5b8063043531b11461015657806306fdde031461016b578063095ea7b3146101895780630ce83a61146101ac575b600080fd5b6101696101643660046110ee565b600a55565b005b61017361035c565b604051610180919061114d565b60405180910390f35b61019c61019736600461117c565b6103ee565b6040519015158152602001610180565b6101696101ba3660046111b7565b6009805460ff191660ff92909216919091179055565b6101696101de3660046111d2565b60098054911515610100027fffffffffffffffffffffffffffffffffffffffffffffffffffffffffffff00ff909216919091179055565b6002545b604051908152602001610180565b61019c6102353660046111f4565b610408565b60095460405160ff9091168152602001610180565b61021961047e565b61019c61026536600461117c565b61048d565b6101696102783660046111d2565b600b805460ff1916911515919091179055565b610219610299366004611230565b6001600160a01b031660009081526020819052604090205490565b6102196102c2366004611230565b6104cc565b6102cf6104ea565b604051610180979695949392919061124b565b61017361058f565b61019c6102f836600461117c565b61059e565b61019c61030b36600461117c565b610658565b61016961031e3660046112fd565b610666565b610219610331366004611367565b6001600160a01b03918216600090815260016020908152604080832093909416825291909152205490565b60606003805461036b9061139a565b80601f01602080910402602001604051908101604052809291908181526020018280546103979061139a565b80156103e45780601f106103b9576101008083540402835291602001916103e4565b820191906000526020600020905b8154815290600101906020018083116103c757829003601f168201915b5050505050905090565b6000336103fc8185856107ca565b60019150505b92915050565b600954600090610100900460ff1661042c57610425848484610922565b9050610477565b6000600a548361043c91906113e4565b600b5490915060009060ff1661045b576104568285611406565b610465565b6104658285611419565b9050610472868683610922565b925050505b9392505050565b600061048861093b565b905090565b3360008181526001602090815260408083206001600160a01b03871684529091528120549091906103fc90829086906104c7908790611406565b6107ca565b6001600160a01b038116600090815260076020526040812054610402565b60006060808280808361051e7f00000000000000000000000000000000000000000000000000000000000000006005610a66565b6105497f00000000000000000000000000000000000000000000000000000000000000006006610a66565b604080516000808252602082019092527f0f000000000000000000000000000000000000000000000000000000000000009b939a50919850469750309650945092509050565b60606004805461036b9061139a565b3360008181526001602090815260408083206001600160a01b0387168452909152812054909190838110156106405760405162461bcd60e51b815260206004820152602560248201527f45524332303a2064656372656173656420616c6c6f77616e63652062656c6f7760448201527f207a65726f00000000000000000000000000000000000000000000000000000060648201526084015b60405180910390fd5b61064d82868684036107ca565b506001949350505050565b6000336103fc818585610b11565b834211156106b65760405162461bcd60e51b815260206004820152601d60248201527f45524332305065726d69743a206578706972656420646561646c696e650000006044820152606401610637565b60007f6e71edae12b1b97f4d1f60370fef10105fa2faae0126114a169c64845d6126c98888886106e58c610d00565b6040805160208101969096526001600160a01b0394851690860152929091166060840152608083015260a082015260c0810186905260e001604051602081830303815290604052805190602001209050600061074082610d28565b9050600061075082878787610d70565b9050896001600160a01b0316816001600160a01b0316146107b35760405162461bcd60e51b815260206004820152601e60248201527f45524332305065726d69743a20696e76616c6964207369676e617475726500006044820152606401610637565b6107be8a8a8a6107ca565b50505050505050505050565b6001600160a01b0383166108455760405162461bcd60e51b8152602060048201526024808201527f45524332303a20617070726f76652066726f6d20746865207a65726f2061646460448201527f72657373000000000000000000000000000000000000000000000000000000006064820152608401610637565b6001600160a01b0382166108c15760405162461bcd60e51b815260206004820152602260248201527f45524332303a20617070726f766520746f20746865207a65726f20616464726560448201527f73730000000000000000000000000000000000000000000000000000000000006064820152608401610637565b6001600160a01b0383811660008181526001602090815260408083209487168084529482529182902085905590518481527f8c5be1e5ebec7d5bd14f71427d1e84f3dd0314c0f7b2291e5b200ac8c7c3b925910160405180910390a3505050565b600033610930858285610d98565b61064d858585610b11565b6000306001600160a01b037f00000000000000000000000000000000000000000000000000000000000000001614801561099457507f000000000000000000000000000000000000000000000000000000000000000046145b156109be57507f000000000000000000000000000000000000000000000000000000000000000090565b610488604080517f8b73c3c69bb8fe3d512ecc4cf759cc79239f7b179b0ffacaa9a75d522b39400f60208201527f0000000000000000000000000000000000000000000000000000000000000000918101919091527f000000000000000000000000000000000000000000000000000000000000000060608201524660808201523060a082015260009060c00160405160208183030381529060405280519060200120905090565b606060ff8314610a8057610a7983610e42565b9050610402565b818054610a8c9061139a565b80601f0160208091040260200160405190810160405280929190818152602001828054610ab89061139a565b8015610b055780601f10610ada57610100808354040283529160200191610b05565b820191906000526020600020905b815481529060010190602001808311610ae857829003601f168201915b50505050509050610402565b6001600160a01b038316610b8d5760405162461bcd60e51b815260206004820152602560248201527f45524332303a207472616e736665722066726f6d20746865207a65726f20616460448201527f64726573730000000000000000000000000000000000000000000000000000006064820152608401610637565b6001600160a01b038216610c095760405162461bcd60e51b815260206004820152602360248201527f45524332303a207472616e7366657220746f20746865207a65726f206164647260448201527f65737300000000000000000000000000000000000000000000000000000000006064820152608401610637565b6001600160a01b03831660009081526020819052604090205481811015610c985760405162461bcd60e51b815260206004820152602660248201527f45524332303a207472616e7366657220616d6f756e742065786365656473206260448201527f616c616e636500000000000000000000000000000000000000000000000000006064820152608401610637565b6001600160a01b03848116600081815260208181526040808320878703905593871680835291849020805487019055925185815290927fddf252ad1be2c89b69c2b068fc378daa952ba7f163c4a11628f55a4df523b3ef910160405180910390a35b50505050565b6001600160a01b03811660009081526007602052604090208054600181018255905b50919050565b6000610402610d3561093b565b836040517f19010000000000000000000000000000000000000000000000000000000000008152600281019290925260228201526042902090565b6000806000610d8187878787610e81565b91509150610d8e81610f45565b5095945050505050565b6001600160a01b038381166000908152600160209081526040808320938616835292905220547fffffffffffffffffffffffffffffffffffffffffffffffffffffffffffffffff8114610cfa5781811015610e355760405162461bcd60e51b815260206004820152601d60248201527f45524332303a20696e73756666696369656e7420616c6c6f77616e63650000006044820152606401610637565b610cfa84848484036107ca565b60606000610e4f836110ad565b604080516020808252818301909252919250600091906020820181803683375050509182525060208101929092525090565b6000807f7fffffffffffffffffffffffffffffff5d576e7357a4501ddfe92f46681b20a0831115610eb85750600090506003610f3c565b6040805160008082526020820180845289905260ff881692820192909252606081018690526080810185905260019060a0016020604051602081039080840390855afa158015610f0c573d6000803e3d6000fd5b5050604051601f1901519150506001600160a01b038116610f3557600060019250925050610f3c565b9150600090505b94509492505050565b6000816004811115610f5957610f5961142c565b03610f615750565b6001816004811115610f7557610f7561142c565b03610fc25760405162461bcd60e51b815260206004820152601860248201527f45434453413a20696e76616c6964207369676e617475726500000000000000006044820152606401610637565b6002816004811115610fd657610fd661142c565b036110235760405162461bcd60e51b815260206004820152601f60248201527f45434453413a20696e76616c6964207369676e6174757265206c656e677468006044820152606401610637565b60038160048111156110375761103761142c565b036110aa5760405162461bcd60e51b815260206004820152602260248201527f45434453413a20696e76616c6964207369676e6174757265202773272076616c60448201527f75650000000000000000000000000000000000000000000000000000000000006064820152608401610637565b50565b600060ff8216601f811115610402576040517fb3512b0c00000000000000000000000000000000000000000000000000000000815260040160405180910390fd5b60006020828403121561110057600080fd5b5035919050565b6000815180845260005b8181101561112d57602081850181015186830182015201611111565b506000602082860101526020601f19601f83011685010191505092915050565b6020815260006104776020830184611107565b80356001600160a01b038116811461117757600080fd5b919050565b6000806040838503121561118f57600080fd5b61119883611160565b946020939093013593505050565b803560ff8116811461117757600080fd5b6000602082840312156111c957600080fd5b610477826111a6565b6000602082840312156111e457600080fd5b8135801515811461047757600080fd5b60008060006060848603121561120957600080fd5b61121284611160565b925061122060208501611160565b9150604084013590509250925092565b60006020828403121561124257600080fd5b61047782611160565b7fff00000000000000000000000000000000000000000000000000000000000000881681526000602060e08184015261128760e084018a611107565b8381036040850152611299818a611107565b606085018990526001600160a01b038816608086015260a0850187905284810360c0860152855180825283870192509083019060005b818110156112eb578351835292840192918401916001016112cf565b50909c9b505050505050505050505050565b600080600080600080600060e0888a03121561131857600080fd5b61132188611160565b965061132f60208901611160565b9550604088013594506060880135935061134b608089016111a6565b925060a0880135915060c0880135905092959891949750929550565b6000806040838503121561137a57600080fd5b61138383611160565b915061139160208401611160565b90509250929050565b600181811c908216806113ae57607f821691505b602082108103610d2257634e487b7160e01b600052602260045260246000fd5b634e487b7160e01b600052601160045260246000fd5b60008261140157634e487b7160e01b600052601260045260246000fd5b500490565b80820180821115610402576104026113ce565b81810381811115610402576104026113ce565b634e487b7160e01b600052602160045260246000fdfea26469706673582212204b9fe4ba06f41bde6ba5092e7b4b0c1a648dac8b06f15ca0b088baccfbefcde464736f6c63430008130033",
    "linkReferences": {}
  },
  "methodIdentifiers": {
    "DOMAIN_SEPARATOR()": "3644e515",
    "allowance(address,address)": "dd62ed3e",
    "approve(address,uint256)": "095ea7b3",
    "balanceOf(address)": "70a08231",
    "decimals()": "313ce567",
    "decreaseAllowance(address,uint256)": "a457c2d7",
    "eip712Domain()": "84b0196e",
    "increaseAllowance(address,uint256)": "39509351",
    "name()": "06fdde03",
    "nonces(address)": "7ecebe00",
    "permit(address,address,uint256,uint256,uint8,bytes32,bytes32)": "d505accf",
    "setFeeDivisor(uint256)": "043531b1",
    "setFeeEnabled(bool)": "0db474fa",
    "setFeeSide(bool)": "6574b359",
    "symbol()": "95d89b41",
    "totalSupply()": "18160ddd",
    "transfer(address,uint256)": "a9059cbb",
    "transferFrom(address,address,uint256)": "23b872dd",
    "updateDecimals(uint8)": "0ce83a61"
  },
  "id": 8
}