{
  "address": "0xd241A762f4CA4E32E723e91B1138Ac97B9bE23cA",
  "abi": [
    {
      "inputs": [
        {
          "internalType": "Token",
          "name": "bnt",
          "type": "address"
        },
        {
          "internalType": "contract ICarbonController",
          "name": "carbonController",
          "type": "address"
        },
        {
          "internalType": "contract IBancorNetwork",
          "name": "bancorNetwork",
          "type": "address"
        }
      ],
      "stateMutability": "nonpayable",
      "type": "constructor"
    },
    {
      "inputs": [],
      "name": "AccessDenied",
      "type": "error"
    },
    {
      "inputs": [],
      "name": "AlreadyInitialized",
      "type": "error"
    },
    {
      "inputs": [],
      "name": "DuplicateToken",
      "type": "error"
    },
    {
      "inputs": [],
      "name": "InvalidAddress",
      "type": "error"
    },
    {
      "inputs": [],
      "name": "InvalidFee",
      "type": "error"
    },
    {
      "inputs": [],
      "name": "InvalidToken",
      "type": "error"
    },
    {
      "inputs": [],
      "name": "InvalidTokenLength",
      "type": "error"
    },
    {
      "inputs": [],
      "name": "Overflow",
      "type": "error"
    },
    {
      "anonymous": false,
      "inputs": [
        {
          "indexed": true,
          "internalType": "Token",
          "name": "token",
          "type": "address"
        },
        {
          "indexed": true,
          "internalType": "address",
          "name": "caller",
          "type": "address"
        },
        {
          "indexed": true,
          "internalType": "address",
          "name": "target",
          "type": "address"
        },
        {
          "indexed": false,
          "internalType": "uint256",
          "name": "amount",
          "type": "uint256"
        }
      ],
      "name": "FundsWithdrawn",
      "type": "event"
    },
    {
      "anonymous": false,
      "inputs": [
        {
          "indexed": false,
          "internalType": "uint8",
          "name": "version",
          "type": "uint8"
        }
      ],
      "name": "Initialized",
      "type": "event"
    },
    {
      "anonymous": false,
      "inputs": [
        {
          "indexed": false,
          "internalType": "uint256",
          "name": "prevRewardsPPM",
          "type": "uint256"
        },
        {
          "indexed": false,
          "internalType": "uint256",
          "name": "newRewardsPPM",
          "type": "uint256"
        }
      ],
      "name": "RewardsUpdated",
      "type": "event"
    },
    {
      "anonymous": false,
      "inputs": [
        {
          "indexed": true,
          "internalType": "bytes32",
          "name": "role",
          "type": "bytes32"
        },
        {
          "indexed": true,
          "internalType": "bytes32",
          "name": "previousAdminRole",
          "type": "bytes32"
        },
        {
          "indexed": true,
          "internalType": "bytes32",
          "name": "newAdminRole",
          "type": "bytes32"
        }
      ],
      "name": "RoleAdminChanged",
      "type": "event"
    },
    {
      "anonymous": false,
      "inputs": [
        {
          "indexed": true,
          "internalType": "bytes32",
          "name": "role",
          "type": "bytes32"
        },
        {
          "indexed": true,
          "internalType": "address",
          "name": "account",
          "type": "address"
        },
        {
          "indexed": true,
          "internalType": "address",
          "name": "sender",
          "type": "address"
        }
      ],
      "name": "RoleGranted",
      "type": "event"
    },
    {
      "anonymous": false,
      "inputs": [
        {
          "indexed": true,
          "internalType": "bytes32",
          "name": "role",
          "type": "bytes32"
        },
        {
          "indexed": true,
          "internalType": "address",
          "name": "account",
          "type": "address"
        },
        {
          "indexed": true,
          "internalType": "address",
          "name": "sender",
          "type": "address"
        }
      ],
      "name": "RoleRevoked",
      "type": "event"
    },
    {
      "anonymous": false,
      "inputs": [
        {
          "indexed": true,
          "internalType": "address",
          "name": "caller",
          "type": "address"
        },
        {
          "indexed": false,
          "internalType": "Token[]",
          "name": "tokens",
          "type": "address[]"
        },
        {
          "indexed": false,
          "internalType": "uint256[]",
          "name": "rewardAmounts",
          "type": "uint256[]"
        },
        {
          "indexed": false,
          "internalType": "uint256",
          "name": "burnAmount",
          "type": "uint256"
        }
      ],
      "name": "TokensBurned",
      "type": "event"
    },
    {
      "inputs": [],
      "name": "DEFAULT_ADMIN_ROLE",
      "outputs": [
        {
          "internalType": "bytes32",
          "name": "",
          "type": "bytes32"
        }
      ],
      "stateMutability": "view",
      "type": "function"
    },
    {
      "inputs": [
        {
          "internalType": "Token",
          "name": "token",
          "type": "address"
        }
      ],
      "name": "availableTokens",
      "outputs": [
        {
          "internalType": "uint256",
          "name": "",
          "type": "uint256"
        }
      ],
      "stateMutability": "view",
      "type": "function"
    },
    {
      "inputs": [
        {
          "internalType": "Token[]",
          "name": "tokens",
          "type": "address[]"
        }
      ],
      "name": "execute",
      "outputs": [],
      "stateMutability": "nonpayable",
      "type": "function"
    },
    {
      "inputs": [
        {
          "internalType": "bytes32",
          "name": "role",
          "type": "bytes32"
        }
      ],
      "name": "getRoleAdmin",
      "outputs": [
        {
          "internalType": "bytes32",
          "name": "",
          "type": "bytes32"
        }
      ],
      "stateMutability": "view",
      "type": "function"
    },
    {
      "inputs": [
        {
          "internalType": "bytes32",
          "name": "role",
          "type": "bytes32"
        },
        {
          "internalType": "uint256",
          "name": "index",
          "type": "uint256"
        }
      ],
      "name": "getRoleMember",
      "outputs": [
        {
          "internalType": "address",
          "name": "",
          "type": "address"
        }
      ],
      "stateMutability": "view",
      "type": "function"
    },
    {
      "inputs": [
        {
          "internalType": "bytes32",
          "name": "role",
          "type": "bytes32"
        }
      ],
      "name": "getRoleMemberCount",
      "outputs": [
        {
          "internalType": "uint256",
          "name": "",
          "type": "uint256"
        }
      ],
      "stateMutability": "view",
      "type": "function"
    },
    {
      "inputs": [
        {
          "internalType": "bytes32",
          "name": "role",
          "type": "bytes32"
        },
        {
          "internalType": "address",
          "name": "account",
          "type": "address"
        }
      ],
      "name": "grantRole",
      "outputs": [],
      "stateMutability": "nonpayable",
      "type": "function"
    },
    {
      "inputs": [
        {
          "internalType": "bytes32",
          "name": "role",
          "type": "bytes32"
        },
        {
          "internalType": "address",
          "name": "account",
          "type": "address"
        }
      ],
      "name": "hasRole",
      "outputs": [
        {
          "internalType": "bool",
          "name": "",
          "type": "bool"
        }
      ],
      "stateMutability": "view",
      "type": "function"
    },
    {
      "inputs": [],
      "name": "initialize",
      "outputs": [],
      "stateMutability": "nonpayable",
      "type": "function"
    },
    {
      "inputs": [
        {
          "internalType": "bytes",
          "name": "data",
          "type": "bytes"
        }
      ],
      "name": "postUpgrade",
      "outputs": [],
      "stateMutability": "nonpayable",
      "type": "function"
    },
    {
      "inputs": [
        {
          "internalType": "bytes32",
          "name": "role",
          "type": "bytes32"
        },
        {
          "internalType": "address",
          "name": "account",
          "type": "address"
        }
      ],
      "name": "renounceRole",
      "outputs": [],
      "stateMutability": "nonpayable",
      "type": "function"
    },
    {
      "inputs": [
        {
          "internalType": "bytes32",
          "name": "role",
          "type": "bytes32"
        },
        {
          "internalType": "address",
          "name": "account",
          "type": "address"
        }
      ],
      "name": "revokeRole",
      "outputs": [],
      "stateMutability": "nonpayable",
      "type": "function"
    },
    {
      "inputs": [],
      "name": "rewardsPPM",
      "outputs": [
        {
          "internalType": "uint256",
          "name": "",
          "type": "uint256"
        }
      ],
      "stateMutability": "view",
      "type": "function"
    },
    {
      "inputs": [],
      "name": "roleAdmin",
      "outputs": [
        {
          "internalType": "bytes32",
          "name": "",
          "type": "bytes32"
        }
      ],
      "stateMutability": "pure",
      "type": "function"
    },
    {
      "inputs": [
        {
          "internalType": "uint256",
          "name": "newRewardsPPM",
          "type": "uint256"
        }
      ],
      "name": "setRewardsPPM",
      "outputs": [],
      "stateMutability": "nonpayable",
      "type": "function"
    },
    {
      "inputs": [
        {
          "internalType": "bytes4",
          "name": "interfaceId",
          "type": "bytes4"
        }
      ],
      "name": "supportsInterface",
      "outputs": [
        {
          "internalType": "bool",
          "name": "",
          "type": "bool"
        }
      ],
      "stateMutability": "view",
      "type": "function"
    },
    {
      "inputs": [],
      "name": "totalBurned",
      "outputs": [
        {
          "internalType": "uint256",
          "name": "",
          "type": "uint256"
        }
      ],
      "stateMutability": "view",
      "type": "function"
    },
    {
      "inputs": [],
      "name": "version",
      "outputs": [
        {
          "internalType": "uint16",
          "name": "",
          "type": "uint16"
        }
      ],
      "stateMutability": "pure",
      "type": "function"
    },
    {
      "inputs": [
        {
          "internalType": "Token",
          "name": "token",
          "type": "address"
        },
        {
          "internalType": "address payable",
          "name": "target",
          "type": "address"
        },
        {
          "internalType": "uint256",
          "name": "amount",
          "type": "uint256"
        }
      ],
      "name": "withdrawFunds",
      "outputs": [],
      "stateMutability": "nonpayable",
      "type": "function"
    },
    {
      "stateMutability": "payable",
      "type": "receive"
    }
  ],
  "transactionHash": "0x757cdf70fea435113cd2e815bcdb8cebb43a284a8cd9be540fda718a7dc9e44b",
  "args": [
    "0x1F573D6Fb3F13d689FF844B4cE37794d79a7FF1C",
    "0xC537e898CD774e2dCBa3B14Ea6f34C93d5eA45e1",
    "0xeEF417e1D5CC832e619ae18D2F140De2999dD4fB"
  ],
  "numDeployments": 3,
  "solcInputHash": "3ab3b98544d4f91a35c872297ab2b893",
  "bytecode": "0x60e06040523480156200001157600080fd5b50604051620033be380380620033be833981016040819052620000349162000705565b81620000408162000087565b836200004c8162000087565b82620000588162000087565b6001600160a01b0380861660805284811660a052861660c0526200007b620000b2565b5050505050506200078a565b6001600160a01b038116620000af5760405163e6c4247b60e01b815260040160405180910390fd5b50565b600054610100900460ff1615808015620000d35750600054600160ff909116105b80620000ef5750303b158015620000ef575060005460ff166001145b620001585760405162461bcd60e51b815260206004820152602e60248201527f496e697469616c697a61626c653a20636f6e747261637420697320616c72656160448201526d191e481a5b9a5d1a585b1a5e995960921b60648201526084015b60405180910390fd5b6000805460ff1916600117905580156200017c576000805461ff0019166101001790555b62000186620001cf565b8015620000af576000805461ff0019169055604051600181527f7f26b83ff96e1f2b6a682f133852f6798a09c465da95921460cefb38474024989060200160405180910390a150565b600054610100900460ff166200022b5760405162461bcd60e51b815260206004820152602b60248201526000805160206200339e83398151915260448201526a6e697469616c697a696e6760a81b60648201526084016200014f565b620002356200024b565b6200023f620002bb565b6200024962000321565b565b600054610100900460ff16620002a75760405162461bcd60e51b815260206004820152602b60248201526000805160206200339e83398151915260448201526a6e697469616c697a696e6760a81b60648201526084016200014f565b620002b16200038b565b62000249620003e7565b600054610100900460ff16620003175760405162461bcd60e51b815260206004820152602b60248201526000805160206200339e83398151915260448201526a6e697469616c697a696e6760a81b60648201526084016200014f565b620002496200049d565b600054610100900460ff166200037d5760405162461bcd60e51b815260206004820152602b60248201526000805160206200339e83398151915260448201526a6e697469616c697a696e6760a81b60648201526084016200014f565b62000249620186a062000500565b600054610100900460ff16620002495760405162461bcd60e51b815260206004820152602b60248201526000805160206200339e83398151915260448201526a6e697469616c697a696e6760a81b60648201526084016200014f565b600054610100900460ff16620004435760405162461bcd60e51b815260206004820152602b60248201526000805160206200339e83398151915260448201526a6e697469616c697a696e6760a81b60648201526084016200014f565b620004516001600362000759565b60c9805461ffff191661ffff92909216919091179055620004826000805160206200337e8339815191528062000553565b620002496000805160206200337e833981519152336200059e565b600054610100900460ff16620004f95760405162461bcd60e51b815260206004820152602b60248201526000805160206200339e83398151915260448201526a6e697469616c697a696e6760a81b60648201526084016200014f565b600160fb55565b61012e5481810362000510575050565b61012e82905560408051828152602081018490527fcd7c861d63893659123f817b192b8621ff1923a7c4589c260173cedcf9e986a6910160405180910390a15050565b600082815260656020526040808220600101805490849055905190918391839186917fbd79b86ffe0ab8e8776151514217cd7cacd52c909f66475c3af44e129f0b00ff9190a4505050565b620005aa8282620005ae565b5050565b620005ba8282620005d9565b6000828152609760205260409020620005d490826200067d565b505050565b60008281526065602090815260408083206001600160a01b038516845290915290205460ff16620005aa5760008281526065602090815260408083206001600160a01b03851684529091529020805460ff19166001179055620006393390565b6001600160a01b0316816001600160a01b0316837f2f8788117e7eff1d82e926ec794901d17c78024a50270940304540a733656f0d60405160405180910390a45050565b600062000694836001600160a01b0384166200069d565b90505b92915050565b6000818152600183016020526040812054620006e65750815460018181018455600084815260208082209093018490558454848252828601909352604090209190915562000697565b50600062000697565b6001600160a01b0381168114620000af57600080fd5b6000806000606084860312156200071b57600080fd5b83516200072881620006ef565b60208501519093506200073b81620006ef565b60408501519092506200074e81620006ef565b809150509250925092565b61ffff8281168282160390808211156200078357634e487b7160e01b600052601160045260246000fd5b5092915050565b60805160a05160c051612b8c620007f2600039600081816108850152818161095c015281816110460152818161149101526114dd0152600081816109a2015281816110b901528181611339015261136c0152600081816106960152610c340152612b8c6000f3fe6080604052600436106101485760003560e01c80639010d07c116100c0578063c7f5387411610074578063d547741f11610059578063d547741f146103b6578063d89135cd146103d6578063ebf80ff5146103ec57600080fd5b8063c7f5387414610380578063ca15c8731461039657600080fd5b806393867fb5116100a557806393867fb51461031857806394cb09471461034b578063a217fddf1461036b57600080fd5b80639010d07c1461029a57806391d14854146102d257600080fd5b806336568abe1161011757806354fd4d50116100fc57806354fd4d50146102495780638129fc1c146102655780638cd2403d1461027a57600080fd5b806336568abe146102095780634c0a0dfa1461022957600080fd5b806301ffc9a7146101545780631c20fadd14610189578063248a9ca3146101ab5780632f2ff15d146101e957600080fd5b3661014f57005b600080fd5b34801561016057600080fd5b5061017461016f3660046126b1565b61040c565b60405190151581526020015b60405180910390f35b34801561019557600080fd5b506101a96101a4366004612708565b610468565b005b3480156101b757600080fd5b506101db6101c6366004612749565b60009081526065602052604090206001015490565b604051908152602001610180565b3480156101f557600080fd5b506101a9610204366004612762565b610526565b34801561021557600080fd5b506101a9610224366004612762565b610550565b34801561023557600080fd5b506101a9610244366004612792565b6105e1565b34801561025557600080fd5b5060405160038152602001610180565b34801561027157600080fd5b506101a9610a3d565b34801561028657600080fd5b506101a9610295366004612807565b610b5d565b3480156102a657600080fd5b506102ba6102b5366004612867565b610bc8565b6040516001600160a01b039091168152602001610180565b3480156102de57600080fd5b506101746102ed366004612762565b60009182526065602090815260408084206001600160a01b0393909316845291905290205460ff1690565b34801561032457600080fd5b507f2172861495e7b85edac73e3cd5fbb42dd675baadf627720e687bcfdaca0250966101db565b34801561035757600080fd5b506101db610366366004612889565b610be7565b34801561037757600080fd5b506101db600081565b34801561038c57600080fd5b5061012e546101db565b3480156103a257600080fd5b506101db6103b1366004612749565b610ca9565b3480156103c257600080fd5b506101a96103d1366004612762565b610cc0565b3480156103e257600080fd5b5061012d546101db565b3480156103f857600080fd5b506101a9610407366004612749565b610ce5565b60007fffffffff0000000000000000000000000000000000000000000000000000000082167f5a05180f000000000000000000000000000000000000000000000000000000001480610462575061046282610d22565b92915050565b8161047281610db9565b61047a610df9565b6104a47f2172861495e7b85edac73e3cd5fbb42dd675baadf627720e687bcfdaca02509633610e52565b8115610516576104be6001600160a01b0385168484610eae565b826001600160a01b0316336001600160a01b0316856001600160a01b03167fc322efa58c9cb2c39cfffdac61d35c8643f5cbf13c6a7d0034de2cf18923aff38560405161050d91815260200190565b60405180910390a45b610520600160fb55565b50505050565b60008281526065602052604090206001015461054181610ef7565b61054b8383610f01565b505050565b6001600160a01b03811633146105d35760405162461bcd60e51b815260206004820152602f60248201527f416363657373436f6e74726f6c3a2063616e206f6e6c792072656e6f756e636560448201527f20726f6c657320666f722073656c66000000000000000000000000000000000060648201526084015b60405180910390fd5b6105dd8282610f23565b5050565b6105e9610df9565b81816105f58282610f45565b8260008167ffffffffffffffff811115610611576106116128a6565b60405190808252806020026020018201604052801561063a578160200160208202803683370190505b50905060008267ffffffffffffffff811115610658576106586128a6565b604051908082528060200260200182016040528015610681578160200160208202803683370190505b5061012e5490915060005b84811015610825577f00000000000000000000000000000000000000000000000000000000000000006001600160a01b0316639ba372c28a8a848181106106d5576106d56128bc565b90506020020160208101906106ea9190612889565b6040517fffffffff0000000000000000000000000000000000000000000000000000000060e084901b1681526001600160a01b03909116600482015260001960248201523060448201526064016020604051808303816000875af1158015610756573d6000803e3d6000fd5b505050506040513d601f19601f8201168201806040525081019061077a91906128d2565b506107b5308a8a84818110610791576107916128bc565b90506020020160208101906107a69190612889565b6001600160a01b031690611171565b8482815181106107c7576107c76128bc565b6020026020010181815250506108008482815181106107e8576107e86128bc565b602002602001015183620f424063ffffffff16611218565b838281518110610812576108126128bc565b602090810291909101015260010161068c565b5060005b84811015610a20576000898983818110610845576108456128bc565b905060200201602081019061085a9190612889565b905084828151811061086e5761086e6128bc565b6020026020010151600014806108b557506108b5817f00000000000000000000000000000000000000000000000000000000000000006001600160a01b0390811691161490565b156108c05750610a18565b60008483815181106108d4576108d46128bc565b60200260200101518684815181106108ee576108ee6128bc565b6020026020010151039050610903828261130c565b6000610917836001600160a01b03166113a8565b610922576000610924565b815b6040517fd3a4acd30000000000000000000000000000000000000000000000000000000081526001600160a01b0385811660048301527f0000000000000000000000000000000000000000000000000000000000000000811660248301526044820185905260016064830152426084830152600060a48301529192507f00000000000000000000000000000000000000000000000000000000000000009091169063d3a4acd390839060c40160206040518083038185885af11580156109ee573d6000803e3d6000fd5b50505050506040513d601f19601f82011682018060405250810190610a1391906128d2565b505050505b600101610829565b50610a2d338989856113cf565b5050505050506105dd600160fb55565b600054610100900460ff1615808015610a5d5750600054600160ff909116105b80610a775750303b158015610a77575060005460ff166001145b610ae95760405162461bcd60e51b815260206004820152602e60248201527f496e697469616c697a61626c653a20636f6e747261637420697320616c72656160448201527f647920696e697469616c697a656400000000000000000000000000000000000060648201526084016105ca565b6000805460ff191660011790558015610b0c576000805461ff0019166101001790555b610b1461155d565b8015610b5a576000805461ff0019169055604051600181527f7f26b83ff96e1f2b6a682f133852f6798a09c465da95921460cefb38474024989060200160405180910390a15b50565b60c954600090610b729061ffff166001612901565b905061ffff8116600314610bb2576040517f0dc149f000000000000000000000000000000000000000000000000000000000815260040160405180910390fd5b60c9805461ffff191661ffff8316179055505050565b6000828152609760205260408120610be090836115e2565b9392505050565b6000610bfc6001600160a01b03831630611171565b6040517ffcf666640000000000000000000000000000000000000000000000000000000081526001600160a01b0384811660048301527f0000000000000000000000000000000000000000000000000000000000000000169063fcf6666490602401602060405180830381865afa158015610c7b573d6000803e3d6000fd5b505050506040513d601f19601f82011682018060405250810190610c9f91906128d2565b610462919061291c565b6000818152609760205260408120610462906115ee565b600082815260656020526040902060010154610cdb81610ef7565b61054b8383610f23565b610d0f7f2172861495e7b85edac73e3cd5fbb42dd675baadf627720e687bcfdaca02509633610e52565b80610d19816115f8565b6105dd8261163b565b60007fffffffff0000000000000000000000000000000000000000000000000000000082167f7965db0b00000000000000000000000000000000000000000000000000000000148061046257507f01ffc9a7000000000000000000000000000000000000000000000000000000007fffffffff00000000000000000000000000000000000000000000000000000000831614610462565b6001600160a01b038116610b5a576040517fe6c4247b00000000000000000000000000000000000000000000000000000000815260040160405180910390fd5b600260fb5403610e4b5760405162461bcd60e51b815260206004820152601f60248201527f5265656e7472616e637947756172643a207265656e7472616e742063616c6c0060448201526064016105ca565b600260fb55565b60008281526065602090815260408083206001600160a01b038516845290915290205460ff166105dd576040517f4ca8886700000000000000000000000000000000000000000000000000000000815260040160405180910390fd5b80600003610ebb57505050565b610ec4836113a8565b15610edc5761054b6001600160a01b0383168261168d565b61054b6001600160a01b03841683836117a6565b600160fb55565b610b5a813361184f565b610f0b82826118c4565b600082815260976020526040902061054b9082611966565b610f2d828261197b565b600082815260976020526040902061054b90826119fe565b806000819003610f81576040517f7dee3bcb00000000000000000000000000000000000000000000000000000000815260040160405180910390fd5b60005b81811015610520576000848483818110610fa057610fa06128bc565b9050602002016020810190610fb59190612889565b9050600182015b8381101561103f5761100082878784818110610fda57610fda6128bc565b9050602002016020810190610fef9190612889565b6001600160a01b0390811691161490565b15611037576040517f464e3f6a00000000000000000000000000000000000000000000000000000000815260040160405180910390fd5b600101610fbc565b50611077817f00000000000000000000000000000000000000000000000000000000000000006001600160a01b039081169116141590565b801561113157506040517f9bca0e700000000000000000000000000000000000000000000000000000000081526001600160a01b0382811660048301526000917f000000000000000000000000000000000000000000000000000000000000000090911690639bca0e7090602401602060405180830381865afa158015611102573d6000803e3d6000fd5b505050506040513d601f19601f82011682018060405250810190611126919061292f565b6001600160a01b0316145b15611168576040517fc1ab6dc100000000000000000000000000000000000000000000000000000000815260040160405180910390fd5b50600101610f84565b600061117c836113a8565b1561119257506001600160a01b03811631610462565b826040517f70a082310000000000000000000000000000000000000000000000000000000081526001600160a01b03848116600483015291909116906370a0823190602401602060405180830381865afa1580156111f4573d6000803e3d6000fd5b505050506040513d601f19601f82011682018060405250810190610be091906128d2565b60008060006112278686611a13565b915091508160000361124c578381816112425761124261294c565b0492505050610be0565b838210611285576040517f35278d1200000000000000000000000000000000000000000000000000000000815260040160405180910390fd5b6000611292878787611a4e565b90506000806112a2858585611a69565b91509150816000036112ca578681816112bd576112bd61294c565b0495505050505050610be0565b60008781038816906112dd848484611a99565b905060006112f9838b816112f3576112f361294c565b04611ad6565b919091029b9a5050505050505050505050565b61131e826001600160a01b03166113a8565b15611327575050565b600061135d6001600160a01b038416307f0000000000000000000000000000000000000000000000000000000000000000611afe565b90508181101561054b5761054b7f000000000000000000000000000000000000000000000000000000000000000061139783600019612962565b6001600160a01b0386169190611bac565b60006001600160a01b03821673eeeeeeeeeeeeeeeeeeeeeeeeeeeeeeeeeeeeeeee14610462565b8160005b818110156114815760008585838181106113ef576113ef6128bc565b90506020020160208101906114049190612889565b9050600084838151811061141a5761141a6128bc565b6020026020010151905080600003611433575050611479565b611445826001600160a01b03166113a8565b156114625761145d6001600160a01b0389168261168d565b611476565b6114766001600160a01b0383168983611bd3565b50505b6001016113d3565b5060006114b76001600160a01b037f00000000000000000000000000000000000000000000000000000000000000001630611171565b90508015611555578061012d60008282546114d2919061291c565b9091555061150d90507f00000000000000000000000000000000000000000000000000000000000000006001600160a01b0381169083611bd3565b856001600160a01b03167f907848d27eec20126a73629db507f65182b8da8ba77d96a99ff9c952d65466e88686868560405161154c9493929190612975565b60405180910390a25b505050505050565b600054610100900460ff166115c85760405162461bcd60e51b815260206004820152602b60248201527f496e697469616c697a61626c653a20636f6e7472616374206973206e6f74206960448201526a6e697469616c697a696e6760a81b60648201526084016105ca565b6115d0611c24565b6115d8611c9f565b6115e0611d12565b565b6000610be08383611d89565b6000610462825490565b620f424063ffffffff82161115610b5a576040517f58d620b300000000000000000000000000000000000000000000000000000000815260040160405180910390fd5b61012e5481810361164a575050565b61012e82905560408051828152602081018490527fcd7c861d63893659123f817b192b8621ff1923a7c4589c260173cedcf9e986a6910160405180910390a15050565b804710156116dd5760405162461bcd60e51b815260206004820152601d60248201527f416464726573733a20696e73756666696369656e742062616c616e636500000060448201526064016105ca565b6000826001600160a01b03168260405160006040518083038185875af1925050503d806000811461172a576040519150601f19603f3d011682016040523d82523d6000602084013e61172f565b606091505b505090508061054b5760405162461bcd60e51b815260206004820152603a60248201527f416464726573733a20756e61626c6520746f2073656e642076616c75652c207260448201527f6563697069656e74206d6179206861766520726576657274656400000000000060648201526084016105ca565b6040516001600160a01b03831660248201526044810182905261054b9084907fa9059cbb00000000000000000000000000000000000000000000000000000000906064015b60408051601f198184030181529190526020810180517bffffffffffffffffffffffffffffffffffffffffffffffffffffffff167fffffffff0000000000000000000000000000000000000000000000000000000090931692909217909152611db3565b60008281526065602090815260408083206001600160a01b038516845290915290205460ff166105dd5761188281611e9b565b61188d836020611ead565b60405160200161189e929190612a2e565b60408051601f198184030181529082905262461bcd60e51b82526105ca91600401612aaf565b60008281526065602090815260408083206001600160a01b038516845290915290205460ff166105dd5760008281526065602090815260408083206001600160a01b03851684529091529020805460ff191660011790556119223390565b6001600160a01b0316816001600160a01b0316837f2f8788117e7eff1d82e926ec794901d17c78024a50270940304540a733656f0d60405160405180910390a45050565b6000610be0836001600160a01b0384166120d6565b60008281526065602090815260408083206001600160a01b038516845290915290205460ff16156105dd5760008281526065602090815260408083206001600160a01b0385168085529252808320805460ff1916905551339285917ff6391f5c32d9c69d2a47ea670b442974b53935d1edc7fd64eb21e047a839171b9190a45050565b6000610be0836001600160a01b038416612125565b6000806000611a228585612218565b9050848402808210611a3b579081900392509050611a47565b60018183030393509150505b9250929050565b60008180611a5e57611a5e61294c565b838509949350505050565b600080828410611a7f5750839050818303611a91565b611a8a600186612962565b9150508183035b935093915050565b600080611ab78380830381611ab057611ab061294c565b0460010190565b9050828481611ac857611ac861294c565b048186021795945050505050565b60006001815b6008811015611af75783820260020382029150600101611adc565b5092915050565b6000611b09846113a8565b15611b1657506000610be0565b836040517fdd62ed3e0000000000000000000000000000000000000000000000000000000081526001600160a01b0385811660048301528481166024830152919091169063dd62ed3e90604401602060405180830381865afa158015611b80573d6000803e3d6000fd5b505050506040513d601f19601f82011682018060405250810190611ba491906128d2565b949350505050565b611bb5836113a8565b15611bbf57505050565b61054b6001600160a01b0384168383612227565b80600003611be057505050565b611be9836113a8565b15610edc576040516001600160a01b0383169082156108fc029083906000818181858888f19350505050158015610520573d6000803e3d6000fd5b600054610100900460ff16611c8f5760405162461bcd60e51b815260206004820152602b60248201527f496e697469616c697a61626c653a20636f6e7472616374206973206e6f74206960448201526a6e697469616c697a696e6760a81b60648201526084016105ca565b611c97612306565b6115e0612371565b600054610100900460ff16611d0a5760405162461bcd60e51b815260206004820152602b60248201527f496e697469616c697a61626c653a20636f6e7472616374206973206e6f74206960448201526a6e697469616c697a696e6760a81b60648201526084016105ca565b6115e0612452565b600054610100900460ff16611d7d5760405162461bcd60e51b815260206004820152602b60248201527f496e697469616c697a61626c653a20636f6e7472616374206973206e6f74206960448201526a6e697469616c697a696e6760a81b60648201526084016105ca565b6115e0620186a061163b565b6000826000018281548110611da057611da06128bc565b9060005260206000200154905092915050565b6000611e08826040518060400160405280602081526020017f5361666545524332303a206c6f772d6c6576656c2063616c6c206661696c6564815250856001600160a01b03166124bd9092919063ffffffff16565b9050805160001480611e29575080806020019051810190611e299190612ae2565b61054b5760405162461bcd60e51b815260206004820152602a60248201527f5361666545524332303a204552433230206f7065726174696f6e20646964206e60448201527f6f7420737563636565640000000000000000000000000000000000000000000060648201526084016105ca565b60606104626001600160a01b03831660145b60606000611ebc836002612b04565b611ec790600261291c565b67ffffffffffffffff811115611edf57611edf6128a6565b6040519080825280601f01601f191660200182016040528015611f09576020820181803683370190505b5090507f300000000000000000000000000000000000000000000000000000000000000081600081518110611f4057611f406128bc565b60200101907effffffffffffffffffffffffffffffffffffffffffffffffffffffffffffff1916908160001a9053507f780000000000000000000000000000000000000000000000000000000000000081600181518110611fa357611fa36128bc565b60200101907effffffffffffffffffffffffffffffffffffffffffffffffffffffffffffff1916908160001a9053506000611fdf846002612b04565b611fea90600161291c565b90505b6001811115612087577f303132333435363738396162636465660000000000000000000000000000000085600f166010811061202b5761202b6128bc565b1a60f81b828281518110612041576120416128bc565b60200101907effffffffffffffffffffffffffffffffffffffffffffffffffffffffffffff1916908160001a90535060049490941c9361208081612b1b565b9050611fed565b508315610be05760405162461bcd60e51b815260206004820181905260248201527f537472696e67733a20686578206c656e67746820696e73756666696369656e7460448201526064016105ca565b600081815260018301602052604081205461211d57508154600181810184556000848152602080822090930184905584548482528286019093526040902091909155610462565b506000610462565b6000818152600183016020526040812054801561220e576000612149600183612962565b855490915060009061215d90600190612962565b90508181146121c257600086600001828154811061217d5761217d6128bc565b90600052602060002001549050808760000184815481106121a0576121a06128bc565b6000918252602080832090910192909255918252600188019052604090208390555b85548690806121d3576121d3612b32565b600190038181906000526020600020016000905590558560010160008681526020019081526020016000206000905560019350505050610462565b6000915050610462565b60006000198284099392505050565b6040517fdd62ed3e0000000000000000000000000000000000000000000000000000000081523060048201526001600160a01b0383811660248301526000919085169063dd62ed3e90604401602060405180830381865afa158015612290573d6000803e3d6000fd5b505050506040513d601f19601f820116820180604052508101906122b491906128d2565b9050610520847f095ea7b300000000000000000000000000000000000000000000000000000000856122e6868661291c565b6040516001600160a01b03909216602483015260448201526064016117eb565b600054610100900460ff166115e05760405162461bcd60e51b815260206004820152602b60248201527f496e697469616c697a61626c653a20636f6e7472616374206973206e6f74206960448201526a6e697469616c697a696e6760a81b60648201526084016105ca565b600054610100900460ff166123dc5760405162461bcd60e51b815260206004820152602b60248201527f496e697469616c697a61626c653a20636f6e7472616374206973206e6f74206960448201526a6e697469616c697a696e6760a81b60648201526084016105ca565b6123e860016003612b48565b60c9805461ffff191661ffff929092169190911790556124287f2172861495e7b85edac73e3cd5fbb42dd675baadf627720e687bcfdaca025096806124cc565b6115e07f2172861495e7b85edac73e3cd5fbb42dd675baadf627720e687bcfdaca02509633612517565b600054610100900460ff16610ef05760405162461bcd60e51b815260206004820152602b60248201527f496e697469616c697a61626c653a20636f6e7472616374206973206e6f74206960448201526a6e697469616c697a696e6760a81b60648201526084016105ca565b6060611ba48484600085612521565b600082815260656020526040808220600101805490849055905190918391839186917fbd79b86ffe0ab8e8776151514217cd7cacd52c909f66475c3af44e129f0b00ff9190a4505050565b6105dd8282610f01565b6060824710156125995760405162461bcd60e51b815260206004820152602660248201527f416464726573733a20696e73756666696369656e742062616c616e636520666f60448201527f722063616c6c000000000000000000000000000000000000000000000000000060648201526084016105ca565b600080866001600160a01b031685876040516125b59190612b63565b60006040518083038185875af1925050503d80600081146125f2576040519150601f19603f3d011682016040523d82523d6000602084013e6125f7565b606091505b509150915061260887838387612613565b979650505050505050565b6060831561268257825160000361267b576001600160a01b0385163b61267b5760405162461bcd60e51b815260206004820152601d60248201527f416464726573733a2063616c6c20746f206e6f6e2d636f6e747261637400000060448201526064016105ca565b5081611ba4565b611ba483838151156126975781518083602001fd5b8060405162461bcd60e51b81526004016105ca9190612aaf565b6000602082840312156126c357600080fd5b81357fffffffff0000000000000000000000000000000000000000000000000000000081168114610be057600080fd5b6001600160a01b0381168114610b5a57600080fd5b60008060006060848603121561271d57600080fd5b8335612728816126f3565b92506020840135612738816126f3565b929592945050506040919091013590565b60006020828403121561275b57600080fd5b5035919050565b6000806040838503121561277557600080fd5b823591506020830135612787816126f3565b809150509250929050565b600080602083850312156127a557600080fd5b823567ffffffffffffffff808211156127bd57600080fd5b818501915085601f8301126127d157600080fd5b8135818111156127e057600080fd5b8660208260051b85010111156127f557600080fd5b60209290920196919550909350505050565b6000806020838503121561281a57600080fd5b823567ffffffffffffffff8082111561283257600080fd5b818501915085601f83011261284657600080fd5b81358181111561285557600080fd5b8660208285010111156127f557600080fd5b6000806040838503121561287a57600080fd5b50508035926020909101359150565b60006020828403121561289b57600080fd5b8135610be0816126f3565b634e487b7160e01b600052604160045260246000fd5b634e487b7160e01b600052603260045260246000fd5b6000602082840312156128e457600080fd5b5051919050565b634e487b7160e01b600052601160045260246000fd5b61ffff818116838216019080821115611af757611af76128eb565b80820180821115610462576104626128eb565b60006020828403121561294157600080fd5b8151610be0816126f3565b634e487b7160e01b600052601260045260246000fd5b81810381811115610462576104626128eb565b6060808252810184905260008560808301825b878110156129b857823561299b816126f3565b6001600160a01b0316825260209283019290910190600101612988565b5060209150838103828501528086518083528383019150838801925060005b818110156129f3578351835292840192918401916001016129d7565b505080935050505082604083015295945050505050565b60005b83811015612a25578181015183820152602001612a0d565b50506000910152565b7f416363657373436f6e74726f6c3a206163636f756e7420000000000000000000815260008351612a66816017850160208801612a0a565b7f206973206d697373696e6720726f6c65200000000000000000000000000000006017918401918201528351612aa3816028840160208801612a0a565b01602801949350505050565b6020815260008251806020840152612ace816040850160208701612a0a565b601f01601f19169190910160400192915050565b600060208284031215612af457600080fd5b81518015158114610be057600080fd5b8082028115828204841417610462576104626128eb565b600081612b2a57612b2a6128eb565b506000190190565b634e487b7160e01b600052603160045260246000fd5b61ffff828116828216039080821115611af757611af76128eb565b60008251612b75818460208701612a0a565b919091019291505056fea164736f6c6343000813000a2172861495e7b85edac73e3cd5fbb42dd675baadf627720e687bcfdaca025096496e697469616c697a61626c653a20636f6e7472616374206973206e6f742069",
  "devdoc": {
    "details": "CarbonVortex contract",
    "events": {
      "FundsWithdrawn(address,address,address,uint256)": {
        "details": "triggered when tokens have been withdrawn by the admin"
      },
      "Initialized(uint8)": {
        "details": "Triggered when the contract has been initialized or reinitialized."
      },
      "RewardsUpdated(uint256,uint256)": {
        "details": "triggered when the rewards ppm are updated"
      },
      "RoleAdminChanged(bytes32,bytes32,bytes32)": {
        "details": "Emitted when `newAdminRole` is set as ``role``'s admin role, replacing `previousAdminRole` `DEFAULT_ADMIN_ROLE` is the starting admin for all roles, despite {RoleAdminChanged} not being emitted signaling this. _Available since v3.1._"
      },
      "RoleGranted(bytes32,address,address)": {
        "details": "Emitted when `account` is granted `role`. `sender` is the account that originated the contract call, an admin role bearer except when using {AccessControl-_setupRole}."
      },
      "RoleRevoked(bytes32,address,address)": {
        "details": "Emitted when `account` is revoked `role`. `sender` is the account that originated the contract call:   - if using `revokeRole`, it is the admin role bearer   - if using `renounceRole`, it is the role bearer (i.e. `account`)"
      },
      "TokensBurned(address,address[],uint256[],uint256)": {
        "details": "triggered after a successful burn is executed"
      }
    },
    "kind": "dev",
    "methods": {
      "availableTokens(address)": {
        "details": "returns the total available fees for the given token"
      },
      "constructor": {
        "details": "used to set immutable state variables and initialize the implementation"
      },
      "execute(address[])": {
        "details": "withdraws the fees of the provided tokens from Carbonconverts them along with the available contract token balance to BNT,rewards the caller and burns the rest of the tokens"
      },
      "getRoleAdmin(bytes32)": {
        "details": "Returns the admin role that controls `role`. See {grantRole} and {revokeRole}. To change a role's admin, use {_setRoleAdmin}."
      },
      "getRoleMember(bytes32,uint256)": {
        "details": "Returns one of the accounts that have `role`. `index` must be a value between 0 and {getRoleMemberCount}, non-inclusive. Role bearers are not sorted in any particular way, and their ordering may change at any point. WARNING: When using {getRoleMember} and {getRoleMemberCount}, make sure you perform all queries on the same block. See the following https://forum.openzeppelin.com/t/iterating-over-elements-on-enumerableset-in-openzeppelin-contracts/2296[forum post] for more information."
      },
      "getRoleMemberCount(bytes32)": {
        "details": "Returns the number of accounts that have `role`. Can be used together with {getRoleMember} to enumerate all bearers of a role."
      },
      "grantRole(bytes32,address)": {
        "details": "Grants `role` to `account`. If `account` had not been already granted `role`, emits a {RoleGranted} event. Requirements: - the caller must have ``role``'s admin role. May emit a {RoleGranted} event."
      },
      "hasRole(bytes32,address)": {
        "details": "Returns `true` if `account` has been granted `role`."
      },
      "initialize()": {
        "details": "fully initializes the contract and its parents"
      },
      "postUpgrade(bytes)": {
        "details": "performs post-upgrade initialization requirements: - this must and can be called only once per-upgrade"
      },
      "renounceRole(bytes32,address)": {
        "details": "Revokes `role` from the calling account. Roles are often managed via {grantRole} and {revokeRole}: this function's purpose is to provide a mechanism for accounts to lose their privileges if they are compromised (such as when a trusted device is misplaced). If the calling account had been revoked `role`, emits a {RoleRevoked} event. Requirements: - the caller must be `account`. May emit a {RoleRevoked} event."
      },
      "revokeRole(bytes32,address)": {
        "details": "Revokes `role` from `account`. If `account` had been granted `role`, emits a {RoleRevoked} event. Requirements: - the caller must have ``role``'s admin role. May emit a {RoleRevoked} event."
      },
      "rewardsPPM()": {
        "details": "returns the rewards percentage ppm"
      },
      "roleAdmin()": {
        "details": "returns the admin role"
      },
      "setRewardsPPM(uint256)": {
        "details": "sets the rewards percentage ppm requirements: - the caller must be the admin of the contract"
      },
      "supportsInterface(bytes4)": {
        "details": "See {IERC165-supportsInterface}."
      },
      "totalBurned()": {
        "details": "returns the total amount burned"
      },
      "withdrawFunds(address,address,uint256)": {
        "details": "withdraws funds held by the contract and sends them to an account requirements: - the caller must be the admin of the contract"
      }
    },
    "version": 1
  },
  "userdoc": {
    "kind": "user",
    "methods": {},
    "version": 1
  },
  "storageLayout": {
    "storage": [
      {
        "astId": 588,
        "contract": "contracts/vortex/CarbonVortex.sol:CarbonVortex",
        "label": "_initialized",
        "offset": 0,
        "slot": "0",
        "type": "t_uint8"
      },
      {
        "astId": 591,
        "contract": "contracts/vortex/CarbonVortex.sol:CarbonVortex",
        "label": "_initializing",
        "offset": 1,
        "slot": "0",
        "type": "t_bool"
      },
      {
        "astId": 2445,
        "contract": "contracts/vortex/CarbonVortex.sol:CarbonVortex",
        "label": "__gap",
        "offset": 0,
        "slot": "1",
        "type": "t_array(t_uint256)50_storage"
      },
      {
        "astId": 2718,
        "contract": "contracts/vortex/CarbonVortex.sol:CarbonVortex",
        "label": "__gap",
        "offset": 0,
        "slot": "51",
        "type": "t_array(t_uint256)50_storage"
      },
      {
        "astId": 184,
        "contract": "contracts/vortex/CarbonVortex.sol:CarbonVortex",
        "label": "_roles",
        "offset": 0,
        "slot": "101",
        "type": "t_mapping(t_bytes32,t_struct(RoleData)179_storage)"
      },
      {
        "astId": 479,
        "contract": "contracts/vortex/CarbonVortex.sol:CarbonVortex",
        "label": "__gap",
        "offset": 0,
        "slot": "102",
        "type": "t_array(t_uint256)49_storage"
      },
      {
        "astId": 33,
        "contract": "contracts/vortex/CarbonVortex.sol:CarbonVortex",
        "label": "_roleMembers",
        "offset": 0,
        "slot": "151",
        "type": "t_mapping(t_bytes32,t_struct(AddressSet)4028_storage)"
      },
      {
        "astId": 143,
        "contract": "contracts/vortex/CarbonVortex.sol:CarbonVortex",
        "label": "__gap",
        "offset": 0,
        "slot": "152",
        "type": "t_array(t_uint256)49_storage"
      },
      {
        "astId": 20547,
        "contract": "contracts/vortex/CarbonVortex.sol:CarbonVortex",
        "label": "_initializations",
        "offset": 0,
        "slot": "201",
        "type": "t_uint16"
      },
      {
        "astId": 20553,
        "contract": "contracts/vortex/CarbonVortex.sol:CarbonVortex",
        "label": "__gap",
        "offset": 0,
        "slot": "202",
        "type": "t_array(t_uint256)49_storage"
      },
      {
        "astId": 891,
        "contract": "contracts/vortex/CarbonVortex.sol:CarbonVortex",
        "label": "_status",
        "offset": 0,
        "slot": "251",
        "type": "t_uint256"
      },
      {
        "astId": 960,
        "contract": "contracts/vortex/CarbonVortex.sol:CarbonVortex",
        "label": "__gap",
        "offset": 0,
        "slot": "252",
        "type": "t_array(t_uint256)49_storage"
      },
      {
        "astId": 20875,
        "contract": "contracts/vortex/CarbonVortex.sol:CarbonVortex",
        "label": "_totalBurned",
        "offset": 0,
        "slot": "301",
        "type": "t_uint256"
      },
      {
        "astId": 20877,
        "contract": "contracts/vortex/CarbonVortex.sol:CarbonVortex",
        "label": "_rewardsPPM",
        "offset": 0,
        "slot": "302",
        "type": "t_uint256"
      },
      {
        "astId": 20883,
        "contract": "contracts/vortex/CarbonVortex.sol:CarbonVortex",
        "label": "__gap",
        "offset": 0,
        "slot": "303",
        "type": "t_array(t_uint256)48_storage"
      }
    ],
    "types": {
      "t_address": {
        "encoding": "inplace",
        "label": "address",
        "numberOfBytes": "20"
      },
      "t_array(t_bytes32)dyn_storage": {
        "base": "t_bytes32",
        "encoding": "dynamic_array",
        "label": "bytes32[]",
        "numberOfBytes": "32"
      },
      "t_array(t_uint256)48_storage": {
        "base": "t_uint256",
        "encoding": "inplace",
        "label": "uint256[48]",
        "numberOfBytes": "1536"
      },
      "t_array(t_uint256)49_storage": {
        "base": "t_uint256",
        "encoding": "inplace",
        "label": "uint256[49]",
        "numberOfBytes": "1568"
      },
      "t_array(t_uint256)50_storage": {
        "base": "t_uint256",
        "encoding": "inplace",
        "label": "uint256[50]",
        "numberOfBytes": "1600"
      },
      "t_bool": {
        "encoding": "inplace",
        "label": "bool",
        "numberOfBytes": "1"
      },
      "t_bytes32": {
        "encoding": "inplace",
        "label": "bytes32",
        "numberOfBytes": "32"
      },
      "t_mapping(t_address,t_bool)": {
        "encoding": "mapping",
        "key": "t_address",
        "label": "mapping(address => bool)",
        "numberOfBytes": "32",
        "value": "t_bool"
      },
      "t_mapping(t_bytes32,t_struct(AddressSet)4028_storage)": {
        "encoding": "mapping",
        "key": "t_bytes32",
        "label": "mapping(bytes32 => struct EnumerableSetUpgradeable.AddressSet)",
        "numberOfBytes": "32",
        "value": "t_struct(AddressSet)4028_storage"
      },
      "t_mapping(t_bytes32,t_struct(RoleData)179_storage)": {
        "encoding": "mapping",
        "key": "t_bytes32",
        "label": "mapping(bytes32 => struct AccessControlUpgradeable.RoleData)",
        "numberOfBytes": "32",
        "value": "t_struct(RoleData)179_storage"
      },
      "t_mapping(t_bytes32,t_uint256)": {
        "encoding": "mapping",
        "key": "t_bytes32",
        "label": "mapping(bytes32 => uint256)",
        "numberOfBytes": "32",
        "value": "t_uint256"
      },
      "t_struct(AddressSet)4028_storage": {
        "encoding": "inplace",
        "label": "struct EnumerableSetUpgradeable.AddressSet",
        "members": [
          {
            "astId": 4027,
            "contract": "contracts/vortex/CarbonVortex.sol:CarbonVortex",
            "label": "_inner",
            "offset": 0,
            "slot": "0",
            "type": "t_struct(Set)3713_storage"
          }
        ],
        "numberOfBytes": "64"
      },
      "t_struct(RoleData)179_storage": {
        "encoding": "inplace",
        "label": "struct AccessControlUpgradeable.RoleData",
        "members": [
          {
            "astId": 176,
            "contract": "contracts/vortex/CarbonVortex.sol:CarbonVortex",
            "label": "members",
            "offset": 0,
            "slot": "0",
            "type": "t_mapping(t_address,t_bool)"
          },
          {
            "astId": 178,
            "contract": "contracts/vortex/CarbonVortex.sol:CarbonVortex",
            "label": "adminRole",
            "offset": 0,
            "slot": "1",
            "type": "t_bytes32"
          }
        ],
        "numberOfBytes": "64"
      },
      "t_struct(Set)3713_storage": {
        "encoding": "inplace",
        "label": "struct EnumerableSetUpgradeable.Set",
        "members": [
          {
            "astId": 3708,
            "contract": "contracts/vortex/CarbonVortex.sol:CarbonVortex",
            "label": "_values",
            "offset": 0,
            "slot": "0",
            "type": "t_array(t_bytes32)dyn_storage"
          },
          {
            "astId": 3712,
            "contract": "contracts/vortex/CarbonVortex.sol:CarbonVortex",
            "label": "_indexes",
            "offset": 0,
            "slot": "1",
            "type": "t_mapping(t_bytes32,t_uint256)"
          }
        ],
        "numberOfBytes": "64"
      },
      "t_uint16": {
        "encoding": "inplace",
        "label": "uint16",
        "numberOfBytes": "2"
      },
      "t_uint256": {
        "encoding": "inplace",
        "label": "uint256",
        "numberOfBytes": "32"
      },
      "t_uint8": {
        "encoding": "inplace",
        "label": "uint8",
        "numberOfBytes": "1"
      }
    }
  }
}