{
  "address": "0xD59BcAbd00721B754aCB79FE668faE4B6A063fF8",
  "abi": [
    {
      "inputs": [
        {
          "internalType": "contract IVoucher",
          "name": "initVoucher",
          "type": "address"
        },
        {
          "internalType": "address",
          "name": "proxy",
          "type": "address"
        }
      ],
      "stateMutability": "nonpayable",
      "type": "constructor"
    },
    {
      "inputs": [],
      "name": "AccessDenied",
      "type": "error"
    },
    {
      "inputs": [],
      "name": "AlreadyInitialized",
      "type": "error"
    },
    {
      "inputs": [],
      "name": "BalanceMismatch",
      "type": "error"
    },
    {
      "inputs": [],
      "name": "DeadlineExpired",
      "type": "error"
    },
    {
      "inputs": [],
      "name": "GreaterThanMaxInput",
      "type": "error"
    },
    {
      "inputs": [],
      "name": "IdenticalAddresses",
      "type": "error"
    },
    {
      "inputs": [],
      "name": "InsufficientCapacity",
      "type": "error"
    },
    {
      "inputs": [],
      "name": "InsufficientLiquidity",
      "type": "error"
    },
    {
      "inputs": [],
      "name": "InsufficientNativeTokenReceived",
      "type": "error"
    },
    {
      "inputs": [],
      "name": "InvalidAddress",
      "type": "error"
    },
    {
      "inputs": [],
      "name": "InvalidFee",
      "type": "error"
    },
    {
      "inputs": [],
      "name": "InvalidIndices",
      "type": "error"
    },
    {
      "inputs": [],
      "name": "InvalidRate",
      "type": "error"
    },
    {
      "inputs": [],
      "name": "InvalidTradeActionAmount",
      "type": "error"
    },
    {
      "inputs": [],
      "name": "InvalidTradeActionStrategyId",
      "type": "error"
    },
    {
      "inputs": [],
      "name": "LowerThanMinReturn",
      "type": "error"
    },
    {
      "inputs": [],
      "name": "NativeAmountMismatch",
      "type": "error"
    },
    {
      "inputs": [],
      "name": "OrderDisabled",
      "type": "error"
    },
    {
      "inputs": [],
      "name": "OutDated",
      "type": "error"
    },
    {
      "inputs": [],
      "name": "Overflow",
      "type": "error"
    },
    {
      "inputs": [],
      "name": "PairAlreadyExists",
      "type": "error"
    },
    {
      "inputs": [],
      "name": "PairDoesNotExist",
      "type": "error"
    },
    {
      "inputs": [],
      "name": "UnknownDelegator",
      "type": "error"
    },
    {
      "inputs": [],
      "name": "UnnecessaryNativeTokenReceived",
      "type": "error"
    },
    {
      "inputs": [],
      "name": "ZeroValue",
      "type": "error"
    },
    {
      "anonymous": false,
      "inputs": [
        {
          "indexed": true,
          "internalType": "Token",
          "name": "token",
          "type": "address"
        },
        {
          "indexed": true,
          "internalType": "address",
          "name": "recipient",
          "type": "address"
        },
        {
          "indexed": true,
          "internalType": "uint256",
          "name": "amount",
          "type": "uint256"
        },
        {
          "indexed": false,
          "internalType": "address",
          "name": "sender",
          "type": "address"
        }
      ],
      "name": "FeesWithdrawn",
      "type": "event"
    },
    {
      "anonymous": false,
      "inputs": [
        {
          "indexed": false,
          "internalType": "uint8",
          "name": "version",
          "type": "uint8"
        }
      ],
      "name": "Initialized",
      "type": "event"
    },
    {
      "anonymous": false,
      "inputs": [
        {
          "indexed": true,
          "internalType": "uint128",
          "name": "pairId",
          "type": "uint128"
        },
        {
          "indexed": true,
          "internalType": "Token",
          "name": "token0",
          "type": "address"
        },
        {
          "indexed": true,
          "internalType": "Token",
          "name": "token1",
          "type": "address"
        }
      ],
      "name": "PairCreated",
      "type": "event"
    },
    {
      "anonymous": false,
      "inputs": [
        {
          "indexed": true,
          "internalType": "Token",
          "name": "token0",
          "type": "address"
        },
        {
          "indexed": true,
          "internalType": "Token",
          "name": "token1",
          "type": "address"
        },
        {
          "indexed": false,
          "internalType": "uint32",
          "name": "prevFeePPM",
          "type": "uint32"
        },
        {
          "indexed": false,
          "internalType": "uint32",
          "name": "newFeePPM",
          "type": "uint32"
        }
      ],
      "name": "PairTradingFeePPMUpdated",
      "type": "event"
    },
    {
      "anonymous": false,
      "inputs": [
        {
          "indexed": false,
          "internalType": "address",
          "name": "account",
          "type": "address"
        }
      ],
      "name": "Paused",
      "type": "event"
    },
    {
      "anonymous": false,
      "inputs": [
        {
          "indexed": true,
          "internalType": "bytes32",
          "name": "role",
          "type": "bytes32"
        },
        {
          "indexed": true,
          "internalType": "bytes32",
          "name": "previousAdminRole",
          "type": "bytes32"
        },
        {
          "indexed": true,
          "internalType": "bytes32",
          "name": "newAdminRole",
          "type": "bytes32"
        }
      ],
      "name": "RoleAdminChanged",
      "type": "event"
    },
    {
      "anonymous": false,
      "inputs": [
        {
          "indexed": true,
          "internalType": "bytes32",
          "name": "role",
          "type": "bytes32"
        },
        {
          "indexed": true,
          "internalType": "address",
          "name": "account",
          "type": "address"
        },
        {
          "indexed": true,
          "internalType": "address",
          "name": "sender",
          "type": "address"
        }
      ],
      "name": "RoleGranted",
      "type": "event"
    },
    {
      "anonymous": false,
      "inputs": [
        {
          "indexed": true,
          "internalType": "bytes32",
          "name": "role",
          "type": "bytes32"
        },
        {
          "indexed": true,
          "internalType": "address",
          "name": "account",
          "type": "address"
        },
        {
          "indexed": true,
          "internalType": "address",
          "name": "sender",
          "type": "address"
        }
      ],
      "name": "RoleRevoked",
      "type": "event"
    },
    {
      "anonymous": false,
      "inputs": [
        {
          "indexed": false,
          "internalType": "uint256",
          "name": "id",
          "type": "uint256"
        },
        {
          "indexed": true,
          "internalType": "address",
          "name": "owner",
          "type": "address"
        },
        {
          "indexed": true,
          "internalType": "Token",
          "name": "token0",
          "type": "address"
        },
        {
          "indexed": true,
          "internalType": "Token",
          "name": "token1",
          "type": "address"
        },
        {
          "components": [
            {
              "internalType": "uint128",
              "name": "y",
              "type": "uint128"
            },
            {
              "internalType": "uint128",
              "name": "z",
              "type": "uint128"
            },
            {
              "internalType": "uint64",
              "name": "A",
              "type": "uint64"
            },
            {
              "internalType": "uint64",
              "name": "B",
              "type": "uint64"
            }
          ],
          "indexed": false,
          "internalType": "struct Order",
          "name": "order0",
          "type": "tuple"
        },
        {
          "components": [
            {
              "internalType": "uint128",
              "name": "y",
              "type": "uint128"
            },
            {
              "internalType": "uint128",
              "name": "z",
              "type": "uint128"
            },
            {
              "internalType": "uint64",
              "name": "A",
              "type": "uint64"
            },
            {
              "internalType": "uint64",
              "name": "B",
              "type": "uint64"
            }
          ],
          "indexed": false,
          "internalType": "struct Order",
          "name": "order1",
          "type": "tuple"
        }
      ],
      "name": "StrategyCreated",
      "type": "event"
    },
    {
      "anonymous": false,
      "inputs": [
        {
          "indexed": false,
          "internalType": "uint256",
          "name": "id",
          "type": "uint256"
        },
        {
          "indexed": true,
          "internalType": "address",
          "name": "owner",
          "type": "address"
        },
        {
          "indexed": true,
          "internalType": "Token",
          "name": "token0",
          "type": "address"
        },
        {
          "indexed": true,
          "internalType": "Token",
          "name": "token1",
          "type": "address"
        },
        {
          "components": [
            {
              "internalType": "uint128",
              "name": "y",
              "type": "uint128"
            },
            {
              "internalType": "uint128",
              "name": "z",
              "type": "uint128"
            },
            {
              "internalType": "uint64",
              "name": "A",
              "type": "uint64"
            },
            {
              "internalType": "uint64",
              "name": "B",
              "type": "uint64"
            }
          ],
          "indexed": false,
          "internalType": "struct Order",
          "name": "order0",
          "type": "tuple"
        },
        {
          "components": [
            {
              "internalType": "uint128",
              "name": "y",
              "type": "uint128"
            },
            {
              "internalType": "uint128",
              "name": "z",
              "type": "uint128"
            },
            {
              "internalType": "uint64",
              "name": "A",
              "type": "uint64"
            },
            {
              "internalType": "uint64",
              "name": "B",
              "type": "uint64"
            }
          ],
          "indexed": false,
          "internalType": "struct Order",
          "name": "order1",
          "type": "tuple"
        }
      ],
      "name": "StrategyDeleted",
      "type": "event"
    },
    {
      "anonymous": false,
      "inputs": [
        {
          "indexed": true,
          "internalType": "uint256",
          "name": "id",
          "type": "uint256"
        },
        {
          "indexed": true,
          "internalType": "Token",
          "name": "token0",
          "type": "address"
        },
        {
          "indexed": true,
          "internalType": "Token",
          "name": "token1",
          "type": "address"
        },
        {
          "components": [
            {
              "internalType": "uint128",
              "name": "y",
              "type": "uint128"
            },
            {
              "internalType": "uint128",
              "name": "z",
              "type": "uint128"
            },
            {
              "internalType": "uint64",
              "name": "A",
              "type": "uint64"
            },
            {
              "internalType": "uint64",
              "name": "B",
              "type": "uint64"
            }
          ],
          "indexed": false,
          "internalType": "struct Order",
          "name": "order0",
          "type": "tuple"
        },
        {
          "components": [
            {
              "internalType": "uint128",
              "name": "y",
              "type": "uint128"
            },
            {
              "internalType": "uint128",
              "name": "z",
              "type": "uint128"
            },
            {
              "internalType": "uint64",
              "name": "A",
              "type": "uint64"
            },
            {
              "internalType": "uint64",
              "name": "B",
              "type": "uint64"
            }
          ],
          "indexed": false,
          "internalType": "struct Order",
          "name": "order1",
          "type": "tuple"
        },
        {
          "indexed": false,
          "internalType": "uint8",
          "name": "reason",
          "type": "uint8"
        }
      ],
      "name": "StrategyUpdated",
      "type": "event"
    },
    {
      "anonymous": false,
      "inputs": [
        {
          "indexed": true,
          "internalType": "address",
          "name": "trader",
          "type": "address"
        },
        {
          "indexed": true,
          "internalType": "Token",
          "name": "sourceToken",
          "type": "address"
        },
        {
          "indexed": true,
          "internalType": "Token",
          "name": "targetToken",
          "type": "address"
        },
        {
          "indexed": false,
          "internalType": "uint256",
          "name": "sourceAmount",
          "type": "uint256"
        },
        {
          "indexed": false,
          "internalType": "uint256",
          "name": "targetAmount",
          "type": "uint256"
        },
        {
          "indexed": false,
          "internalType": "uint128",
          "name": "tradingFeeAmount",
          "type": "uint128"
        },
        {
          "indexed": false,
          "internalType": "bool",
          "name": "byTargetAmount",
          "type": "bool"
        }
      ],
      "name": "TokensTraded",
      "type": "event"
    },
    {
      "anonymous": false,
      "inputs": [
        {
          "indexed": false,
          "internalType": "uint32",
          "name": "prevFeePPM",
          "type": "uint32"
        },
        {
          "indexed": false,
          "internalType": "uint32",
          "name": "newFeePPM",
          "type": "uint32"
        }
      ],
      "name": "TradingFeePPMUpdated",
      "type": "event"
    },
    {
      "anonymous": false,
      "inputs": [
        {
          "indexed": false,
          "internalType": "address",
          "name": "account",
          "type": "address"
        }
      ],
      "name": "Unpaused",
      "type": "event"
    },
    {
      "inputs": [],
      "name": "DEFAULT_ADMIN_ROLE",
      "outputs": [
        {
          "internalType": "bytes32",
          "name": "",
          "type": "bytes32"
        }
      ],
      "stateMutability": "view",
      "type": "function"
    },
    {
      "inputs": [
        {
          "internalType": "Token",
          "name": "token",
          "type": "address"
        }
      ],
      "name": "accumulatedFees",
      "outputs": [
        {
          "internalType": "uint256",
          "name": "",
          "type": "uint256"
        }
      ],
      "stateMutability": "view",
      "type": "function"
    },
    {
      "inputs": [
        {
          "internalType": "Token",
          "name": "sourceToken",
          "type": "address"
        },
        {
          "internalType": "Token",
          "name": "targetToken",
          "type": "address"
        },
        {
          "components": [
            {
              "internalType": "uint256",
              "name": "strategyId",
              "type": "uint256"
            },
            {
              "internalType": "uint128",
              "name": "amount",
              "type": "uint128"
            }
          ],
          "internalType": "struct TradeAction[]",
          "name": "tradeActions",
          "type": "tuple[]"
        }
      ],
      "name": "calculateTradeSourceAmount",
      "outputs": [
        {
          "internalType": "uint128",
          "name": "",
          "type": "uint128"
        }
      ],
      "stateMutability": "view",
      "type": "function"
    },
    {
      "inputs": [
        {
          "internalType": "Token",
          "name": "sourceToken",
          "type": "address"
        },
        {
          "internalType": "Token",
          "name": "targetToken",
          "type": "address"
        },
        {
          "components": [
            {
              "internalType": "uint256",
              "name": "strategyId",
              "type": "uint256"
            },
            {
              "internalType": "uint128",
              "name": "amount",
              "type": "uint128"
            }
          ],
          "internalType": "struct TradeAction[]",
          "name": "tradeActions",
          "type": "tuple[]"
        }
      ],
      "name": "calculateTradeTargetAmount",
      "outputs": [
        {
          "internalType": "uint128",
          "name": "",
          "type": "uint128"
        }
      ],
      "stateMutability": "view",
      "type": "function"
    },
    {
      "inputs": [],
      "name": "controllerType",
      "outputs": [
        {
          "internalType": "uint16",
          "name": "",
          "type": "uint16"
        }
      ],
      "stateMutability": "pure",
      "type": "function"
    },
    {
      "inputs": [
        {
          "internalType": "Token",
          "name": "token0",
          "type": "address"
        },
        {
          "internalType": "Token",
          "name": "token1",
          "type": "address"
        }
      ],
      "name": "createPair",
      "outputs": [
        {
          "components": [
            {
              "internalType": "uint128",
              "name": "id",
              "type": "uint128"
            },
            {
              "internalType": "Token[2]",
              "name": "tokens",
              "type": "address[2]"
            }
          ],
          "internalType": "struct Pair",
          "name": "",
          "type": "tuple"
        }
      ],
      "stateMutability": "nonpayable",
      "type": "function"
    },
    {
      "inputs": [
        {
          "internalType": "Token",
          "name": "token0",
          "type": "address"
        },
        {
          "internalType": "Token",
          "name": "token1",
          "type": "address"
        },
        {
          "components": [
            {
              "internalType": "uint128",
              "name": "y",
              "type": "uint128"
            },
            {
              "internalType": "uint128",
              "name": "z",
              "type": "uint128"
            },
            {
              "internalType": "uint64",
              "name": "A",
              "type": "uint64"
            },
            {
              "internalType": "uint64",
              "name": "B",
              "type": "uint64"
            }
          ],
          "internalType": "struct Order[2]",
          "name": "orders",
          "type": "tuple[2]"
        }
      ],
      "name": "createStrategy",
      "outputs": [
        {
          "internalType": "uint256",
          "name": "",
          "type": "uint256"
        }
      ],
      "stateMutability": "payable",
      "type": "function"
    },
    {
      "inputs": [
        {
          "internalType": "uint256",
          "name": "strategyId",
          "type": "uint256"
        }
      ],
      "name": "deleteStrategy",
      "outputs": [],
      "stateMutability": "nonpayable",
      "type": "function"
    },
    {
      "inputs": [
        {
          "internalType": "bytes32",
          "name": "role",
          "type": "bytes32"
        }
      ],
      "name": "getRoleAdmin",
      "outputs": [
        {
          "internalType": "bytes32",
          "name": "",
          "type": "bytes32"
        }
      ],
      "stateMutability": "view",
      "type": "function"
    },
    {
      "inputs": [
        {
          "internalType": "bytes32",
          "name": "role",
          "type": "bytes32"
        },
        {
          "internalType": "uint256",
          "name": "index",
          "type": "uint256"
        }
      ],
      "name": "getRoleMember",
      "outputs": [
        {
          "internalType": "address",
          "name": "",
          "type": "address"
        }
      ],
      "stateMutability": "view",
      "type": "function"
    },
    {
      "inputs": [
        {
          "internalType": "bytes32",
          "name": "role",
          "type": "bytes32"
        }
      ],
      "name": "getRoleMemberCount",
      "outputs": [
        {
          "internalType": "uint256",
          "name": "",
          "type": "uint256"
        }
      ],
      "stateMutability": "view",
      "type": "function"
    },
    {
      "inputs": [
        {
          "internalType": "bytes32",
          "name": "role",
          "type": "bytes32"
        },
        {
          "internalType": "address",
          "name": "account",
          "type": "address"
        }
      ],
      "name": "grantRole",
      "outputs": [],
      "stateMutability": "nonpayable",
      "type": "function"
    },
    {
      "inputs": [
        {
          "internalType": "bytes32",
          "name": "role",
          "type": "bytes32"
        },
        {
          "internalType": "address",
          "name": "account",
          "type": "address"
        }
      ],
      "name": "hasRole",
      "outputs": [
        {
          "internalType": "bool",
          "name": "",
          "type": "bool"
        }
      ],
      "stateMutability": "view",
      "type": "function"
    },
    {
      "inputs": [],
      "name": "initialize",
      "outputs": [],
      "stateMutability": "nonpayable",
      "type": "function"
    },
    {
      "inputs": [
        {
          "internalType": "Token",
          "name": "token0",
          "type": "address"
        },
        {
          "internalType": "Token",
          "name": "token1",
          "type": "address"
        }
      ],
      "name": "pair",
      "outputs": [
        {
          "components": [
            {
              "internalType": "uint128",
              "name": "id",
              "type": "uint128"
            },
            {
              "internalType": "Token[2]",
              "name": "tokens",
              "type": "address[2]"
            }
          ],
          "internalType": "struct Pair",
          "name": "",
          "type": "tuple"
        }
      ],
      "stateMutability": "view",
      "type": "function"
    },
    {
      "inputs": [
        {
          "internalType": "Token",
          "name": "token0",
          "type": "address"
        },
        {
          "internalType": "Token",
          "name": "token1",
          "type": "address"
        }
      ],
      "name": "pairTradingFeePPM",
      "outputs": [
        {
          "internalType": "uint32",
          "name": "",
          "type": "uint32"
        }
      ],
      "stateMutability": "view",
      "type": "function"
    },
    {
      "inputs": [],
      "name": "pairs",
      "outputs": [
        {
          "internalType": "Token[2][]",
          "name": "",
          "type": "address[2][]"
        }
      ],
      "stateMutability": "view",
      "type": "function"
    },
    {
      "inputs": [],
      "name": "pause",
      "outputs": [],
      "stateMutability": "nonpayable",
      "type": "function"
    },
    {
      "inputs": [],
      "name": "paused",
      "outputs": [
        {
          "internalType": "bool",
          "name": "",
          "type": "bool"
        }
      ],
      "stateMutability": "view",
      "type": "function"
    },
    {
      "inputs": [
        {
          "internalType": "bytes",
          "name": "data",
          "type": "bytes"
        }
      ],
      "name": "postUpgrade",
      "outputs": [],
      "stateMutability": "nonpayable",
      "type": "function"
    },
    {
      "inputs": [
        {
          "internalType": "bytes32",
          "name": "role",
          "type": "bytes32"
        },
        {
          "internalType": "address",
          "name": "account",
          "type": "address"
        }
      ],
      "name": "renounceRole",
      "outputs": [],
      "stateMutability": "nonpayable",
      "type": "function"
    },
    {
      "inputs": [
        {
          "internalType": "bytes32",
          "name": "role",
          "type": "bytes32"
        },
        {
          "internalType": "address",
          "name": "account",
          "type": "address"
        }
      ],
      "name": "revokeRole",
      "outputs": [],
      "stateMutability": "nonpayable",
      "type": "function"
    },
    {
      "inputs": [],
      "name": "roleAdmin",
      "outputs": [
        {
          "internalType": "bytes32",
          "name": "",
          "type": "bytes32"
        }
      ],
      "stateMutability": "pure",
      "type": "function"
    },
    {
      "inputs": [],
      "name": "roleEmergencyStopper",
      "outputs": [
        {
          "internalType": "bytes32",
          "name": "",
          "type": "bytes32"
        }
      ],
      "stateMutability": "pure",
      "type": "function"
    },
    {
      "inputs": [],
      "name": "roleFeesManager",
      "outputs": [
        {
          "internalType": "bytes32",
          "name": "",
          "type": "bytes32"
        }
      ],
      "stateMutability": "pure",
      "type": "function"
    },
    {
      "inputs": [
        {
          "internalType": "Token",
          "name": "token0",
          "type": "address"
        },
        {
          "internalType": "Token",
          "name": "token1",
          "type": "address"
        },
        {
          "internalType": "uint32",
          "name": "newPairTradingFeePPM",
          "type": "uint32"
        }
      ],
      "name": "setPairTradingFeePPM",
      "outputs": [],
      "stateMutability": "nonpayable",
      "type": "function"
    },
    {
      "inputs": [
        {
          "internalType": "uint32",
          "name": "newTradingFeePPM",
          "type": "uint32"
        }
      ],
      "name": "setTradingFeePPM",
      "outputs": [],
      "stateMutability": "nonpayable",
      "type": "function"
    },
    {
      "inputs": [
        {
          "internalType": "Token",
          "name": "token0",
          "type": "address"
        },
        {
          "internalType": "Token",
          "name": "token1",
          "type": "address"
        },
        {
          "internalType": "uint256",
          "name": "startIndex",
          "type": "uint256"
        },
        {
          "internalType": "uint256",
          "name": "endIndex",
          "type": "uint256"
        }
      ],
      "name": "strategiesByPair",
      "outputs": [
        {
          "components": [
            {
              "internalType": "uint256",
              "name": "id",
              "type": "uint256"
            },
            {
              "internalType": "address",
              "name": "owner",
              "type": "address"
            },
            {
              "internalType": "Token[2]",
              "name": "tokens",
              "type": "address[2]"
            },
            {
              "components": [
                {
                  "internalType": "uint128",
                  "name": "y",
                  "type": "uint128"
                },
                {
                  "internalType": "uint128",
                  "name": "z",
                  "type": "uint128"
                },
                {
                  "internalType": "uint64",
                  "name": "A",
                  "type": "uint64"
                },
                {
                  "internalType": "uint64",
                  "name": "B",
                  "type": "uint64"
                }
              ],
              "internalType": "struct Order[2]",
              "name": "orders",
              "type": "tuple[2]"
            }
          ],
          "internalType": "struct Strategy[]",
          "name": "",
          "type": "tuple[]"
        }
      ],
      "stateMutability": "view",
      "type": "function"
    },
    {
      "inputs": [
        {
          "internalType": "Token",
          "name": "token0",
          "type": "address"
        },
        {
          "internalType": "Token",
          "name": "token1",
          "type": "address"
        }
      ],
      "name": "strategiesByPairCount",
      "outputs": [
        {
          "internalType": "uint256",
          "name": "",
          "type": "uint256"
        }
      ],
      "stateMutability": "view",
      "type": "function"
    },
    {
      "inputs": [
        {
          "internalType": "uint256",
          "name": "id",
          "type": "uint256"
        }
      ],
      "name": "strategy",
      "outputs": [
        {
          "components": [
            {
              "internalType": "uint256",
              "name": "id",
              "type": "uint256"
            },
            {
              "internalType": "address",
              "name": "owner",
              "type": "address"
            },
            {
              "internalType": "Token[2]",
              "name": "tokens",
              "type": "address[2]"
            },
            {
              "components": [
                {
                  "internalType": "uint128",
                  "name": "y",
                  "type": "uint128"
                },
                {
                  "internalType": "uint128",
                  "name": "z",
                  "type": "uint128"
                },
                {
                  "internalType": "uint64",
                  "name": "A",
                  "type": "uint64"
                },
                {
                  "internalType": "uint64",
                  "name": "B",
                  "type": "uint64"
                }
              ],
              "internalType": "struct Order[2]",
              "name": "orders",
              "type": "tuple[2]"
            }
          ],
          "internalType": "struct Strategy",
          "name": "",
          "type": "tuple"
        }
      ],
      "stateMutability": "view",
      "type": "function"
    },
    {
      "inputs": [
        {
          "internalType": "bytes4",
          "name": "interfaceId",
          "type": "bytes4"
        }
      ],
      "name": "supportsInterface",
      "outputs": [
        {
          "internalType": "bool",
          "name": "",
          "type": "bool"
        }
      ],
      "stateMutability": "view",
      "type": "function"
    },
    {
      "inputs": [
        {
          "internalType": "Token",
          "name": "sourceToken",
          "type": "address"
        },
        {
          "internalType": "Token",
          "name": "targetToken",
          "type": "address"
        },
        {
          "components": [
            {
              "internalType": "uint256",
              "name": "strategyId",
              "type": "uint256"
            },
            {
              "internalType": "uint128",
              "name": "amount",
              "type": "uint128"
            }
          ],
          "internalType": "struct TradeAction[]",
          "name": "tradeActions",
          "type": "tuple[]"
        },
        {
          "internalType": "uint256",
          "name": "deadline",
          "type": "uint256"
        },
        {
          "internalType": "uint128",
          "name": "minReturn",
          "type": "uint128"
        }
      ],
      "name": "tradeBySourceAmount",
      "outputs": [
        {
          "internalType": "uint128",
          "name": "",
          "type": "uint128"
        }
      ],
      "stateMutability": "payable",
      "type": "function"
    },
    {
      "inputs": [
        {
          "internalType": "Token",
          "name": "sourceToken",
          "type": "address"
        },
        {
          "internalType": "Token",
          "name": "targetToken",
          "type": "address"
        },
        {
          "components": [
            {
              "internalType": "uint256",
              "name": "strategyId",
              "type": "uint256"
            },
            {
              "internalType": "uint128",
              "name": "amount",
              "type": "uint128"
            }
          ],
          "internalType": "struct TradeAction[]",
          "name": "tradeActions",
          "type": "tuple[]"
        },
        {
          "internalType": "uint256",
          "name": "deadline",
          "type": "uint256"
        },
        {
          "internalType": "uint128",
          "name": "maxInput",
          "type": "uint128"
        }
      ],
      "name": "tradeByTargetAmount",
      "outputs": [
        {
          "internalType": "uint128",
          "name": "",
          "type": "uint128"
        }
      ],
      "stateMutability": "payable",
      "type": "function"
    },
    {
      "inputs": [],
      "name": "tradingFeePPM",
      "outputs": [
        {
          "internalType": "uint32",
          "name": "",
          "type": "uint32"
        }
      ],
      "stateMutability": "view",
      "type": "function"
    },
    {
      "inputs": [],
      "name": "unpause",
      "outputs": [],
      "stateMutability": "nonpayable",
      "type": "function"
    },
    {
      "inputs": [
        {
          "internalType": "uint256",
          "name": "strategyId",
          "type": "uint256"
        },
        {
          "components": [
            {
              "internalType": "uint128",
              "name": "y",
              "type": "uint128"
            },
            {
              "internalType": "uint128",
              "name": "z",
              "type": "uint128"
            },
            {
              "internalType": "uint64",
              "name": "A",
              "type": "uint64"
            },
            {
              "internalType": "uint64",
              "name": "B",
              "type": "uint64"
            }
          ],
          "internalType": "struct Order[2]",
          "name": "currentOrders",
          "type": "tuple[2]"
        },
        {
          "components": [
            {
              "internalType": "uint128",
              "name": "y",
              "type": "uint128"
            },
            {
              "internalType": "uint128",
              "name": "z",
              "type": "uint128"
            },
            {
              "internalType": "uint64",
              "name": "A",
              "type": "uint64"
            },
            {
              "internalType": "uint64",
              "name": "B",
              "type": "uint64"
            }
          ],
          "internalType": "struct Order[2]",
          "name": "newOrders",
          "type": "tuple[2]"
        }
      ],
      "name": "updateStrategy",
      "outputs": [],
      "stateMutability": "payable",
      "type": "function"
    },
    {
      "inputs": [],
      "name": "version",
      "outputs": [
        {
          "internalType": "uint16",
          "name": "",
          "type": "uint16"
        }
      ],
      "stateMutability": "pure",
      "type": "function"
    },
    {
      "inputs": [
        {
          "internalType": "Token",
          "name": "token",
          "type": "address"
        },
        {
          "internalType": "uint256",
          "name": "amount",
          "type": "uint256"
        },
        {
          "internalType": "address",
          "name": "recipient",
          "type": "address"
        }
      ],
      "name": "withdrawFees",
      "outputs": [
        {
          "internalType": "uint256",
          "name": "",
          "type": "uint256"
        }
      ],
      "stateMutability": "nonpayable",
      "type": "function"
    }
  ],
  "transactionHash": "0x7489aeb6111ccb2281ed811019534769db48bad05afaaa926f98af8bd4647f46",
  "args": [
    "0x3660F04B79751e31128f6378eAC70807e38f554E",
    "0xC537e898CD774e2dCBa3B14Ea6f34C93d5eA45e1"
  ],
  "numDeployments": 4,
  "solcInputHash": "fd34102899bc98842934daeef711d0ee",
  "bytecode": "0x60c06040523480156200001157600080fd5b506040516200691c3803806200691c833981016040819052620000349162000991565b6001600160a01b0381166080526200004c826200006b565b6001600160a01b03821660a0526200006362000096565b5050620009d0565b6001600160a01b038116620000935760405163e6c4247b60e01b815260040160405180910390fd5b50565b600054610100900460ff1615808015620000b75750600054600160ff909116105b80620000d35750303b158015620000d3575060005460ff166001145b6200013c5760405162461bcd60e51b815260206004820152602e60248201527f496e697469616c697a61626c653a20636f6e747261637420697320616c72656160448201526d191e481a5b9a5d1a585b1a5e995960921b60648201526084015b60405180910390fd5b6000805460ff19166001179055801562000160576000805461ff0019166101001790555b6200016a620001b3565b801562000093576000805461ff0019169055604051600181527f7f26b83ff96e1f2b6a682f133852f6798a09c465da95921460cefb38474024989060200160405180910390a150565b600054610100900460ff166200020f5760405162461bcd60e51b815260206004820152602b6024820152600080516020620068fc83398151915260448201526a6e697469616c697a696e6760a81b606482015260840162000133565b620002196200024d565b62000223620002b3565b6200022d62000319565b6200023762000389565b62000241620003ef565b6200024b62000455565b565b600054610100900460ff16620002a95760405162461bcd60e51b815260206004820152602b6024820152600080516020620068fc83398151915260448201526a6e697469616c697a696e6760a81b606482015260840162000133565b6200024b62000527565b600054610100900460ff166200030f5760405162461bcd60e51b815260206004820152602b6024820152600080516020620068fc83398151915260448201526a6e697469616c697a696e6760a81b606482015260840162000133565b6200024b62000583565b600054610100900460ff16620003755760405162461bcd60e51b815260206004820152602b6024820152600080516020620068fc83398151915260448201526a6e697469616c697a696e6760a81b606482015260840162000133565b6200037f62000527565b6200024b620005ec565b600054610100900460ff16620003e55760405162461bcd60e51b815260206004820152602b6024820152600080516020620068fc83398151915260448201526a6e697469616c697a696e6760a81b606482015260840162000133565b6200024b6200068d565b600054610100900460ff166200044b5760405162461bcd60e51b815260206004820152602b6024820152600080516020620068fc83398151915260448201526a6e697469616c697a696e6760a81b606482015260840162000133565b6200024b620006f1565b600054610100900460ff16620004b15760405162461bcd60e51b815260206004820152602b6024820152600080516020620068fc83398151915260448201526a6e697469616c697a696e6760a81b606482015260840162000133565b620004ec7ff28f409b8cbe6b50c7ca45afe893f01f69626f8a4e33cb480bc1bc2d618c0845600080516020620068dc8339815191526200075a565b6200024b7f24a843cae781765d8cdc3bca1cc42497522c0508f4e621c2ca36ceea2fda7b16600080516020620068dc8339815191526200075a565b600054610100900460ff166200024b5760405162461bcd60e51b815260206004820152602b6024820152600080516020620068fc83398151915260448201526a6e697469616c697a696e6760a81b606482015260840162000133565b600054610100900460ff16620005df5760405162461bcd60e51b815260206004820152602b6024820152600080516020620068fc83398151915260448201526a6e697469616c697a696e6760a81b606482015260840162000133565b6200024b6107d0620007a5565b600054610100900460ff16620006485760405162461bcd60e51b815260206004820152602b6024820152600080516020620068fc83398151915260448201526a6e697469616c697a696e6760a81b606482015260840162000133565b61012d805461ffff1916600117905562000672600080516020620068dc833981519152806200075a565b6200024b600080516020620068dc833981519152336200082a565b600054610100900460ff16620006e95760405162461bcd60e51b815260206004820152602b6024820152600080516020620068fc83398151915260448201526a6e697469616c697a696e6760a81b606482015260840162000133565b600161015f55565b600054610100900460ff166200074d5760405162461bcd60e51b815260206004820152602b6024820152600080516020620068fc83398151915260448201526a6e697469616c697a696e6760a81b606482015260840162000133565b610191805460ff19169055565b600082815260c96020526040808220600101805490849055905190918391839186917fbd79b86ffe0ab8e8776151514217cd7cacd52c909f66475c3af44e129f0b00ff9190a4505050565b60655463ffffffff600160801b90910481169082168103620007c5575050565b6065805463ffffffff60801b1916600160801b63ffffffff8581169182029290921790925560408051918416825260208201929092527f66db0986e1156e2e747795714bf0301c7e1c695c149a738cb01bcf5cfead8465910160405180910390a15050565b6200083682826200083a565b5050565b62000846828262000865565b600082815260fb6020526040902062000860908262000909565b505050565b600082815260c9602090815260408083206001600160a01b038516845290915290205460ff166200083657600082815260c9602090815260408083206001600160a01b03851684529091529020805460ff19166001179055620008c53390565b6001600160a01b0316816001600160a01b0316837f2f8788117e7eff1d82e926ec794901d17c78024a50270940304540a733656f0d60405160405180910390a45050565b600062000920836001600160a01b03841662000929565b90505b92915050565b6000818152600183016020526040812054620009725750815460018181018455600084815260208082209093018490558454848252828601909352604090209190915562000923565b50600062000923565b6001600160a01b03811681146200009357600080fd5b60008060408385031215620009a557600080fd5b8251620009b2816200097b565b6020840151909250620009c5816200097b565b809150509250929050565b60805160a051615ec362000a19600039600081816109a601528181610e8301528181610f2d0152818161109d015281816113270152611381015260006115300152615ec36000f3fe6080604052600436106102855760003560e01c80638cd2403d11610153578063c9c65396116100cb578063f2bda26d1161007f578063f74dad8111610064578063f74dad811461077c578063fcf66664146107a9578063ffb0a4a0146107c957600080fd5b8063f2bda26d14610749578063f727473a1461076957600080fd5b8063d547741f116100b0578063d547741f146106e7578063f06f8acd14610707578063f1c5e0141461073657600080fd5b8063c9c65396146106a7578063ca15c873146106c757600080fd5b80639ba372c211610122578063b76040cd11610107578063b76040cd14610631578063ba0a868b14610645578063bc88d7e41461067a57600080fd5b80639ba372c2146105fc578063a217fddf1461061c57600080fd5b80638cd2403d1461052b5780639010d07c1461054b57806391d148541461058357806393867fb5146105c957600080fd5b80633f4ba83a1161020157806369a4dea7116101b55780638456cb591161019a5780638456cb59146104c95780638672d545146104de578063873020371461050b57600080fd5b806369a4dea7146104945780638129fc1c146104b457600080fd5b806354fd4d50116101e657806354fd4d501461043857806355817d1d1461045b5780635c975abb1461047b57600080fd5b80633f4ba83a146103f057806341f435b31461040557600080fd5b80632ab2fad1116102585780632f2ff15d1161023d5780632f2ff15d14610390578063322cf844146103b057806336568abe146103d057600080fd5b80632ab2fad11461033d5780632c40de1b1461035d57600080fd5b806301ffc9a71461028a578063102ee9ba146102bf57806321589fa1146102ea578063248a9ca3146102ff575b600080fd5b34801561029657600080fd5b506102aa6102a5366004615353565b6107eb565b60405190151581526020015b60405180910390f35b6102d26102cd36600461540b565b610847565b6040516001600160801b0390911681526020016102b6565b6102fd6102f836600461549e565b610961565b005b34801561030b57600080fd5b5061032f61031a3660046154de565b600090815260c9602052604090206001015490565b6040519081526020016102b6565b34801561034957600080fd5b506102d26103583660046154f7565b610ad5565b34801561036957600080fd5b507f24a843cae781765d8cdc3bca1cc42497522c0508f4e621c2ca36ceea2fda7b1661032f565b34801561039c57600080fd5b506102fd6103ab36600461555c565b610b2f565b3480156103bc57600080fd5b5061032f6103cb36600461558c565b610b54565b3480156103dc57600080fd5b506102fd6103eb36600461555c565b610b77565b3480156103fc57600080fd5b506102fd610c08565b34801561041157600080fd5b507ff28f409b8cbe6b50c7ca45afe893f01f69626f8a4e33cb480bc1bc2d618c084561032f565b34801561044457600080fd5b5060045b60405161ffff90911681526020016102b6565b34801561046757600080fd5b506102fd6104763660046155ce565b610c3e565b34801561048757600080fd5b506101915460ff166102aa565b3480156104a057600080fd5b506102fd6104af36600461560c565b610c91565b3480156104c057600080fd5b506102fd610cce565b3480156104d557600080fd5b506102fd610ded565b3480156104ea57600080fd5b506104fe6104f936600461558c565b610e20565b6040516102b69190615653565b34801561051757600080fd5b506102fd6105263660046154de565b610e43565b34801561053757600080fd5b506102fd610546366004615677565b610f5e565b34801561055757600080fd5b5061056b6105663660046156e9565b610fcb565b6040516001600160a01b0390911681526020016102b6565b34801561058f57600080fd5b506102aa61059e36600461555c565b600091825260c9602090815260408084206001600160a01b0393909316845291905290205460ff1690565b3480156105d557600080fd5b507f2172861495e7b85edac73e3cd5fbb42dd675baadf627720e687bcfdaca02509661032f565b34801561060857600080fd5b5061032f61061736600461570b565b610fe3565b34801561062857600080fd5b5061032f600081565b34801561063d57600080fd5b506001610448565b34801561065157600080fd5b5061066561066036600461558c565b611062565b60405163ffffffff90911681526020016102b6565b34801561068657600080fd5b5061069a6106953660046154de565b61107e565b6040516102b691906157ef565b3480156106b357600080fd5b506104fe6106c236600461558c565b6110c2565b3480156106d357600080fd5b5061032f6106e23660046154de565b611103565b3480156106f357600080fd5b506102fd61070236600461555c565b61111a565b34801561071357600080fd5b50606554700100000000000000000000000000000000900463ffffffff16610665565b6102d261074436600461540b565b61113f565b34801561075557600080fd5b506102d26107643660046154f7565b6111f5565b61032f6107773660046157fe565b61124b565b34801561078857600080fd5b5061079c61079736600461583e565b61135f565b6040516102b69190615884565b3480156107b557600080fd5b5061032f6107c43660046158d3565b6113a5565b3480156107d557600080fd5b506107de6113ce565b6040516102b691906158f0565b60007fffffffff0000000000000000000000000000000000000000000000000000000082167f5a05180f0000000000000000000000000000000000000000000000000000000014806108415750610841826113dd565b92915050565b6000610851611474565b6108596114cf565b610861611525565b61086e8787853486611587565b610880876001600160a01b031661161a565b156108c857816001600160801b03163410156108c8576040517f7038b89900000000000000000000000000000000000000000000000000000000815260040160405180910390fd5b60006108d48888611641565b6040805161010081018252338152815180830183526001600160a01b038c811682528b166020828101919091528201526001918101919091526001600160801b038516606082015234608082015260a08101829052600060c0820181905260e08201529091506109458787836116e5565b60c00151915050610957600161015f55565b9695505050505050565b610969611474565b6109716114cf565b610979611525565b600061098d6109888560801c90565b611caa565b6040516331a9108f60e11b8152600481018690529091507f00000000000000000000000000000000000000000000000000000000000000006001600160a01b031690636352211e90602401602060405180830381865afa1580156109f5573d6000803e3d6000fd5b505050506040513d601f19601f82011682018060405250810190610a19919061593d565b6001600160a01b0316336001600160a01b031614610a4a57604051634ca8886760e01b815260040160405180910390fd5b600034118015610a7657506020810151610a749060005b60200201516001600160a01b031661161a565b155b8015610a8f57506020810151610a8d906001610a61565b155b15610aad57604051631334bf4f60e11b815260040160405180910390fd5b610ab682611d82565b610ac4848484843334611f0e565b50610ad0600161015f55565b505050565b6000610ae18585612326565b6000610aed8686611641565b604080518082019091526001600160a01b038089168252871660208201529091506000610b1d8287878685612385565b6020015193505050505b949350505050565b600082815260c96020526040902060010154610b4a81612549565b610ad08383612553565b6000610b608383612326565b6000610b6c8484611641565b9050610b2781612575565b6001600160a01b0381163314610bfa5760405162461bcd60e51b815260206004820152602f60248201527f416363657373436f6e74726f6c3a2063616e206f6e6c792072656e6f756e636560448201527f20726f6c657320666f722073656c66000000000000000000000000000000000060648201526084015b60405180910390fd5b610c048282612597565b5050565b7ff28f409b8cbe6b50c7ca45afe893f01f69626f8a4e33cb480bc1bc2d618c0845610c3381336125b9565b610c3b6125fc565b50565b610c687f2172861495e7b85edac73e3cd5fbb42dd675baadf627720e687bcfdaca025096336125b9565b80610c728161264f565b6000610c7e8585611641565b9050610c8a8184612692565b5050505050565b610cbb7f2172861495e7b85edac73e3cd5fbb42dd675baadf627720e687bcfdaca025096336125b9565b80610cc58161264f565b610c048261277b565b600054610100900460ff1615808015610cee5750600054600160ff909116105b80610d085750303b158015610d08575060005460ff166001145b610d7a5760405162461bcd60e51b815260206004820152602e60248201527f496e697469616c697a61626c653a20636f6e747261637420697320616c72656160448201527f647920696e697469616c697a65640000000000000000000000000000000000006064820152608401610bf1565b6000805460ff191660011790558015610d9d576000805461ff0019166101001790555b610da5612831565b8015610c3b576000805461ff0019169055604051600181527f7f26b83ff96e1f2b6a682f133852f6798a09c465da95921460cefb38474024989060200160405180910390a150565b7ff28f409b8cbe6b50c7ca45afe893f01f69626f8a4e33cb480bc1bc2d618c0845610e1881336125b9565b610c3b6128cc565b610e286151ce565b610e328383612326565b610e3c8383611641565b9392505050565b610e4b611474565b610e536114cf565b610e5b611525565b6000610e6a6109888360801c90565b6040516331a9108f60e11b8152600481018490529091507f00000000000000000000000000000000000000000000000000000000000000006001600160a01b031690636352211e90602401602060405180830381865afa158015610ed2573d6000803e3d6000fd5b505050506040513d601f19601f82011682018060405250810190610ef6919061593d565b6001600160a01b0316336001600160a01b031614610f2757604051634ca8886760e01b815260040160405180910390fd5b610f52827f00000000000000000000000000000000000000000000000000000000000000008361290a565b50610c3b600161015f55565b61012d54600090610f749061ffff166001615986565b905061ffff8116600414610fb4576040517f0dc149f000000000000000000000000000000000000000000000000000000000815260040160405180910390fd5b61012d805461ffff191661ffff8316179055505050565b600082815260fb60205260408120610e3c9083612ac9565b6000610fed6114cf565b7f24a843cae781765d8cdc3bca1cc42497522c0508f4e621c2ca36ceea2fda7b1661101881336125b9565b8261102281612ad5565b8561102c81612ad5565b8561103681612b15565b61103e611474565b61104a33888a89612b4f565b9450611057600161015f55565b505050509392505050565b60008061106f8484611641565b9050610b278160000151612c03565b6110866151f6565b60006110956109888460801c90565b9050610e3c837f000000000000000000000000000000000000000000000000000000000000000083612c52565b6110ca6151ce565b6110d2611474565b6110da6114cf565b6110e2611525565b6110ec8383612326565b6110f68383612d53565b9050610841600161015f55565b600081815260fb6020526040812061084190612eb5565b600082815260c9602052604090206001015461113581612549565b610ad08383612597565b6000611149611474565b6111516114cf565b611159611525565b6111668787853486611587565b60006111728888611641565b6040805161010081018252338152815180830183526001600160a01b038c811682528b1660208281019190915282015260009181018290526001600160801b038616606082015234608082015260a0810183905260c0810182905260e08101919091529091506111e38787836116e5565b60e00151915050610957600161015f55565b60006112018585612326565b600061120d8686611641565b604080518082019091526001600160a01b03808916825287166020820152909150600061123e828787866001612385565b5198975050505050505050565b6000611255611474565b61125d6114cf565b611265611525565b61126f8484612326565b60003411801561128e575061128c846001600160a01b031661161a565b155b80156112a957506112a7836001600160a01b031661161a565b155b156112c757604051631334bf4f60e11b815260040160405180910390fd5b6112d082611d82565b6112d86151ce565b6112e28585612ebf565b6112f7576112f08585612d53565b9050611304565b6113018585611641565b90505b604080518082019091526001600160a01b038087168252851660208201526113507f00000000000000000000000000000000000000000000000000000000000000008286853334612f22565b92505050610e3c600161015f55565b606061136b8585612326565b60006113778686611641565b90506109578185857f000000000000000000000000000000000000000000000000000000000000000061314f565b6000816113b181612ad5565b50506001600160a01b031660009081526068602052604090205490565b60606113d8613294565b905090565b60007fffffffff0000000000000000000000000000000000000000000000000000000082167f7965db0b00000000000000000000000000000000000000000000000000000000148061084157507f01ffc9a7000000000000000000000000000000000000000000000000000000007fffffffff00000000000000000000000000000000000000000000000000000000831614610841565b600261015f54036114c75760405162461bcd60e51b815260206004820152601f60248201527f5265656e7472616e637947756172643a207265656e7472616e742063616c6c006044820152606401610bf1565b600261015f55565b6101915460ff16156115235760405162461bcd60e51b815260206004820152601060248201527f5061757361626c653a20706175736564000000000000000000000000000000006044820152606401610bf1565b565b306001600160a01b037f00000000000000000000000000000000000000000000000000000000000000001614611523576040517fd0c8bfe500000000000000000000000000000000000000000000000000000000815260040160405180910390fd5b428310156115c1576040517f1ab7da6b00000000000000000000000000000000000000000000000000000000815260040160405180910390fd5b6115d3816001600160801b0316612b15565b6115dd8585612326565b6000821180156115fc57506115fa856001600160a01b031661161a565b155b15610c8a57604051631334bf4f60e11b815260040160405180910390fd5b60006001600160a01b03821673eeeeeeeeeeeeeeeeeeeeeeeeeeeeeeeeeeeeeeee14610841565b6116496151ce565b6116538383612ebf565b611689576040517fc5fc4bf400000000000000000000000000000000000000000000000000000000815260040160405180910390fd5b600061169584846133b3565b80516001600160a01b039081166000908152603460209081526040808320828601519094168352928152908290205482518084019093526001600160801b03168252810191909152949350505050565b60006117248260200151602001518360a001516020015160006002811061170e5761170e61595a565b60200201516001600160a01b0390811691161490565b905060005b83811015611a205760008585838181106117455761174561595a565b905060400201602001602081019061175d91906159a1565b905060008686848181106117735761177361595a565b60409081029290920135600081815260666020528381208451606081019586905292955093909250839060039082845b8154815260200190600101908083116117a357505050505090506000806117c983613419565b915091506117e08960a0015160000151868861350d565b6000808215158a1515146117fa5783516020850151611802565b602084015184515b91509150600080611818848b8f604001516135a4565b91509150806001600160801b031684600001516001600160801b0316101561186c576040517fbb55fd2700000000000000000000000000000000000000000000000000000000815260040160405180910390fd5b83518190036001600160801b0316845282518290849061188d9083906159bc565b6001600160801b03908116909152845160208601519082169116101590506118c05782516001600160801b031660208401525b60006118cc8787613680565b80518a55602080820151908a0151919250146118ed57602081015160018a01555b604080820151908901511461190757604081015160028a01555b8d60a00151602001518661191c57600161191f565b60005b60ff16600281106119325761193261595a565b60200201516001600160a01b03168e60a001516020015187611955576000611958565b60015b60ff166002811061196b5761196b61595a565b60200201516001600160a01b03168b7f720da23a5c920b1d8827ec83c4d3c4d90d9419eadb0036b88cb4c2ffa91aef7d8a600060200201518b6001602002015160016040516119bc939291906159dc565b60405180910390a4828e60c0018181516119d691906159bc565b6001600160801b031690525060e08e0180518391906119f69083906159bc565b6001600160801b0316905250611a199a508b99506137ae98505050505050505050565b9050611729565b506000826040015115611aee576000611a458460c001518560a00151600001516137b4565b90508360c0015181611a579190615a7a565b6001600160801b0380831660c08701819052606087015192945091161015611aab576040517f0699263d00000000000000000000000000000000000000000000000000000000815260040160405180910390fd5b602080850151516001600160a01b0316600090815260689091526040812080546001600160801b0385169290611ae2908490615a9a565b90915550611bac915050565b6000611b068460e001518560a00151600001516137eb565b9050808460e00151611b189190615a7a565b6001600160801b0380831660e08701819052606087015192945091161115611b6c576040517ff602de8f00000000000000000000000000000000000000000000000000000000815260040160405180910390fd5b6020808501518101516001600160a01b0316600090815260689091526040812080546001600160801b0385169290611ba5908490615a9a565b9091555050505b611bd783602001516000015184600001518560c001516001600160801b031686608001516000613825565b611bfb83602001516020015184600001518560e001516001600160801b031661394d565b8260200151602001516001600160a01b03168360200151600001516001600160a01b031684600001516001600160a01b03167f95f3b01351225fea0e69a46f68b164c9dea10284f12cd4a907ce66510ab7af6a8660c001518760e00151868960400151604051611c9394939291906001600160801b039485168152928416602084015292166040820152901515606082015260800190565b60405180910390a45050505050565b600161015f55565b611cb26151ce565b6001600160801b0382166000908152603560205260408082208151808301928390529160029082845b81546001600160a01b03168152600190910190602001808311611cdb575050505050905060006001600160a01b031681600060028110611d1d57611d1d61595a565b60200201516001600160a01b031603611d62576040517fc5fc4bf400000000000000000000000000000000000000000000000000000000815260040160405180910390fd5b604080518082019091526001600160801b03909316835260208301525090565b60005b6002811015610c0457818160028110611da057611da061595a565b608002016000016020810190611db691906159a1565b6001600160801b0316828260028110611dd157611dd161595a565b608002016020016020810190611de791906159a1565b6001600160801b03161015611e28576040517f5cef583a00000000000000000000000000000000000000000000000000000000815260040160405180910390fd5b611e6f828260028110611e3d57611e3d61595a565b608002016040016020810190611e539190615ac5565b67ffffffffffffffff166601000000000000908190041c151590565b611ea5576040517f6a43f8d100000000000000000000000000000000000000000000000000000000815260040160405180910390fd5b611ed0828260028110611eba57611eba61595a565b608002016060016020810190611e539190615ac5565b611f06576040517f6a43f8d100000000000000000000000000000000000000000000000000000000815260040160405180910390fd5b600101611d85565b60008681526066602052604080822081516060810192839052909291839060039082845b815481526020019060010190808311611f325750505050509050600080611f5883613419565b604080518082019091529193509150611fa8908a60026000835b82821015611f9e57611f8f60808302850136819003810190615af6565b81526020019060010190611f72565b5050505083613998565b611fde576040517f811cb74a00000000000000000000000000000000000000000000000000000000815260040160405180910390fd5b6040805180820190915260009061202b908a600284835b828210156120215761201260808302850136819003810190615af6565b81526020019060010190611ff5565b5050505083613680565b805185519192501461203c57805185555b602080820151908501511461205657602081015160018601555b604080820151908501511461207057604081015160028601555b600061207c8984613af7565b905060005b60028110156122be57600082826002811061209e5761209e61595a565b602002015190508582600281106120b7576120b761595a565b6020020151516001600160801b03168c83600281106120d8576120d861595a565b6080020160000160208101906120ee91906159a1565b6001600160801b031610156121655760008c83600281106121115761211161595a565b60800201600001602081019061212791906159a1565b8784600281106121395761213961595a565b6020020151516121499190615a7a565b905061215f828c836001600160801b031661394d565b50612224565b8582600281106121775761217761595a565b6020020151516001600160801b03168c83600281106121985761219861595a565b6080020160000160208101906121ae91906159a1565b6001600160801b031611156122245760008683600281106121d1576121d161595a565b6020020151518d84600281106121e9576121e961595a565b6080020160000160208101906121ff91906159a1565b6122099190615a7a565b9050612222828c836001600160801b03168d6001613825565b505b6000891180156122415750612241816001600160a01b031661161a565b801561229d575085826002811061225a5761225a61595a565b6020020151516001600160801b03168c836002811061227b5761227b61595a565b60800201600001602081019061229191906159a1565b6001600160801b031611155b156122b5576122b56001600160a01b038b168a613b7a565b50600101612081565b50602081015181516040516001600160a01b0392831692909116908e907f720da23a5c920b1d8827ec83c4d3c4d90d9419eadb0036b88cb4c2ffa91aef7d90612310908f906080820190600090615be0565b60405180910390a4505050505050505050505050565b8161233081612ad5565b8161233a81612ad5565b6001600160a01b038085169084160361237f576040517fbd969eb000000000000000000000000000000000000000000000000000000000815260040160405180910390fd5b50505050565b604080518082019091526000808252602082015260006123ba8760200151856020015160006002811061170e5761170e61595a565b905060005b858110156124f95760008787838181106123db576123db61595a565b90506040020160200160208101906123f391906159a1565b905060008888848181106124095761240961595a565b60409081029290920135600081815260666020528381208451606081019586905292955090939192509060039082845b815481526020019060010190808311612439575050505050905060008061245f83613419565b915091506124728a60000151858761350d565b60008115158815151461248657825161248c565b60208301515b905060008061249c83898e6135a4565b91509150818b6000018181516124b291906159bc565b6001600160801b031690525060208b0180518291906124d29083906159bc565b6001600160801b03169052506124f297508896506137ae95505050505050565b90506123bf565b50821561251e578151845161250e91906137b4565b6001600160801b0316825261253f565b612530826020015185600001516137eb565b6001600160801b031660208301525b5095945050505050565b610c3b8133613c93565b61255d8282613d08565b600082815260fb60205260409020610ad09082613daa565b80516001600160801b03166000908152606760205260408120610e3c81612eb5565b6125a18282613dbf565b600082815260fb60205260409020610ad09082613e42565b600082815260c9602090815260408083206001600160a01b038516845290915290205460ff16610c0457604051634ca8886760e01b815260040160405180910390fd5b612604613e57565b610191805460ff191690557f5db9ee0a495bf2e6ff9c91a7834c1ba4fdd244a5e8aa4e537bd38aeae4b073aa335b6040516001600160a01b03909116815260200160405180910390a1565b620f424063ffffffff82161115610c3b576040517f58d620b300000000000000000000000000000000000000000000000000000000815260040160405180910390fd5b81516001600160801b031660009081526069602052604090205463ffffffff90811690821681036126c257505050565b82516001600160801b03166000908152606960209081526040822080547fffffffffffffffffffffffffffffffffffffffffffffffffffffffff000000001663ffffffff861617905580850151908101516001600160a01b03169160200201516001600160a01b03167f831434d05f3ad5f63be733ea463b2933c70d2162697fd200a22b5d56f5c454b6838560405161276e92919063ffffffff92831681529116602082015260400190565b60405180910390a3505050565b60655463ffffffff700100000000000000000000000000000000909104811690821681036127a7575050565b606580547fffffffffffffffffffffffff00000000ffffffffffffffffffffffffffffffff1670010000000000000000000000000000000063ffffffff8581169182029290921790925560408051918416825260208201929092527f66db0986e1156e2e747795714bf0301c7e1c695c149a738cb01bcf5cfead8465910160405180910390a15050565b600054610100900460ff1661289c5760405162461bcd60e51b815260206004820152602b60248201527f496e697469616c697a61626c653a20636f6e7472616374206973206e6f74206960448201526a6e697469616c697a696e6760a81b6064820152608401610bf1565b6128a4613eaa565b6128ac613f1d565b6128b4613f90565b6128bc61400b565b6128c461407e565b6115236140f1565b6128d46114cf565b610191805460ff191660011790557f62e78cea01bee320cd4e420270b5ea74000d11b0c9f74754ebdbfc544b05a2586126323390565b6000612917848484612c52565b80516040517f42966c680000000000000000000000000000000000000000000000000000000081529192506001600160a01b038516916342966c68916129639160040190815260200190565b600060405180830381600087803b15801561297d57600080fd5b505af1158015612991573d6000803e3d6000fd5b5050825160009081526066602052604081208181556001810182905560020155506129b99050565b805182516001600160801b031660009081526067602052604090206129dd916141f0565b5060408101515160208201516060830151612a0b92919060005b6020020151516001600160801b031661394d565b6040810151602090810151908201516060830151612a2c92919060016129f7565b604081015160208101516001600160a01b031690600060200201516001600160a01b031682602001516001600160a01b03167f4d5b6e0627ea711d8e9312b6ba56f50e0b51d41816fd6fd38643495ac81d38b684600001518560600151600060028110612a9b57612a9b61595a565b6020020151606087015160016020020151604051612abb93929190615bfc565b60405180910390a450505050565b6000610e3c83836141fc565b6001600160a01b038116610c3b576040517fe6c4247b00000000000000000000000000000000000000000000000000000000815260040160405180910390fd5b80600003610c3b576040517f7c946ed700000000000000000000000000000000000000000000000000000000815260040160405180910390fd5b6001600160a01b038216600090815260686020526040812054808203612b79576000915050610b27565b80851115612b85578094505b612b8f8582615c93565b6001600160a01b038516600090815260686020526040902055612bb384848761394d565b6040516001600160a01b0387811682528691818616918716907f2f4e8fcae66f01952d258445c03f43cf56d3ce389e017ecd2afa8a79e77175889060200160405180910390a45092949350505050565b6001600160801b03811660009081526069602052604081205463ffffffff168015612c2e5780610e3c565b5050606554700100000000000000000000000000000000900463ffffffff16919050565b612c5a6151f6565b6040516331a9108f60e11b8152600481018590526000906001600160a01b03851690636352211e90602401602060405180830381865afa158015612ca2573d6000803e3d6000fd5b505050506040513d601f19601f82011682018060405250810190612cc6919061593d565b600086815260666020526040808220815160608101928390529394509192919060039082845b815481526020019060010190808311612cec5750505050509050600080612d1283613419565b915091506000612d228783613af7565b604080516080810182528b81526001600160a01b039097166020880152860152505060608301525090509392505050565b612d5b6151ce565b612d658383612ebf565b15612d9c576040517fc9bb25eb00000000000000000000000000000000000000000000000000000000815260040160405180910390fd5b6000612da884846133b3565b603354909150600090612dc5906001600160801b031660016159bc565b603380546fffffffffffffffffffffffffffffffff19166001600160801b0383169081179091556000908152603560205260409020909150612e0990836002615222565b5081516001600160a01b039081166000908152603460209081526040808320828701805186168552925280832080546fffffffffffffffffffffffffffffffff19166001600160801b0387169081179091559151865191519085169491909116927f6365c594f5448f79c1cc1e6f661bdbf1d16f2e8f85747e13f8e80f1fd168b7c391a46040518060400160405280826001600160801b03168152602001838152509250505092915050565b6000610841825490565b600080612ecc84846133b3565b80516001600160a01b039081166000908152603460209081526040808320828601519094168352929052908120549192506001600160801b039091169003612f18576000915050610841565b5060019392505050565b8451600090612f56908487845b608002016000016020810190612f4591906159a1565b6001600160801b0316856001613825565b6020860151612f689084876001612f2f565b606554600090612f82906001600160801b031660016159bc565b606580546001600160801b0383166fffffffffffffffffffffffffffffffff199182168117909255875192935060009260801b161786516001600160801b03166000908152606760205260409020909150612fdd9082614226565b5087516020870151600091612ff391600161170e565b60408051808201909152909150613041908960026000835b828210156130375761302860808302850136819003810190615af6565b8152602001906001019061300b565b5050505082613680565b600083815260666020526040902061305a91600361528e565b506040517f40c10f190000000000000000000000000000000000000000000000000000000081526001600160a01b038781166004830152602482018490528b16906340c10f1990604401600060405180830381600087803b1580156130be57600080fd5b505af11580156130d2573d6000803e3d6000fd5b50505050886001600281106130e9576130e961595a565b602002015189516040516001600160a01b0392831692918216918916907fff24554f8ccfe540435cfc8854831f8dcf1cf2068708cfaf46e8b52a4ccc4c8d9061313a9087908e906080820190615ca6565b60405180910390a45098975050505050505050565b83516001600160801b0316600090815260676020526040812060609161317482612eb5565b905084158061318257508085115b1561318b578094505b848611156131c5576040517f2cd4dad300000000000000000000000000000000000000000000000000000000815260040160405180910390fd5b60006131d18787615c93565b905060008167ffffffffffffffff8111156131ee576131ee615ae0565b60405190808252806020026020018201604052801561322757816020015b6132146151f6565b81526020019060019003908161320c5790505b50905060005b8281101561328757600061324b613244838c615a9a565b8790612ac9565b905061325881898d612c52565b83838151811061326a5761326a61595a565b6020026020010181905250506132808160010190565b905061322d565b5098975050505050505050565b6033546060906001600160801b031660008167ffffffffffffffff8111156132be576132be615ae0565b6040519080825280602002602001820160405280156132f757816020015b6132e46152bc565b8152602001906001900390816132dc5790505b50905060005b826001600160801b0316816001600160801b031610156133ac57603560006133268360016159bc565b6001600160801b03168152602081019190915260409081016000208151808301928390529160029082845b81546001600160a01b0316815260019091019060200180831161335157505050505082826001600160801b03168151811061338e5761338e61595a565b602002602001018190525080806133a490615cc8565b9150506132fd565b5092915050565b6133bb6152bc565b816001600160a01b0316836001600160a01b0316106133f757604080518082019091526001600160a01b03808416825284166020820152610e3c565b50604080518082019091526001600160a01b0392831681529116602082015290565b6134216152da565b6040805160c0808201835284516001600160801b0390811683850190815260208088018051841660608701528051608090811c67ffffffffffffffff1681880152905190941c60a0860152908452845180840186528751841c8152878601519092168282015260009490840192908201908760026020020151901c67ffffffffffffffff16815260200160c16001886002600381106134c2576134c261595a565b6020020151901b901c67ffffffffffffffff169052905291507f8000000000000000000000000000000000000000000000000000000000000000836002602002015110159050915091565b826001600160801b03166135218360801c90565b6001600160801b031614613561576040517fb7b067f900000000000000000000000000000000000000000000000000000000815260040160405180910390fd5b806001600160801b0316600003610ad0576040517feb1a139600000000000000000000000000000000000000000000000000000000815260040160405180910390fd5b600080600085600001516001600160801b03169050600086602001516001600160801b0316905060006135f7886040015167ffffffffffffffff1665ffffffffffff811666010000000000009091041b90565b90506000613625896060015167ffffffffffffffff1665ffffffffffff811666010000000000009091041b90565b905086156136555761364b613646896001600160801b031686868686614232565b614331565b9550879450613674565b879550613671613646896001600160801b0316868686866143b4565b94505b50505050935093915050565b613688615320565b604080516060808201835260208681015151875151608091821b6fffffffffffffffffffffffffffffffff19166001600160801b03918216178552885193840151848701519484015160c09190911b7fffffffffffffffff000000000000000000000000000000000000000000000000169490921b77ffffffffffffffff0000000000000000000000000000000016911617919091179082015290810183613731576000613753565b7f80000000000000000000000000000000000000000000000000000000000000005b60c086600160200201516060015167ffffffffffffffff16901b608087600160200201516040015167ffffffffffffffff16901b60008860016020020151602001516001600160801b0316901b171717815250905092915050565b60010190565b6000806137c083612c03565b9050610b276136466001600160801b038616620f42406137e08582615cee565b63ffffffff1661449b565b6000806137f783612c03565b9050610b276136466001600160801b03861661381684620f4240615cee565b63ffffffff16620f4240614503565b613837856001600160a01b031661161a565b156138a05782821015613876576040517f677606af00000000000000000000000000000000000000000000000000000000815260040160405180910390fd5b8282111561389b5761389b61388b8484615c93565b6001600160a01b03861690613b7a565b610c8a565b8215610c8a5780156139385760006138c16001600160a01b038716306145f7565b90506138d86001600160a01b03871686308761469e565b60006138ed6001600160a01b038816306145f7565b9050846138fa8383615c93565b14613931576040517fca3e0a6800000000000000000000000000000000000000000000000000000000815260040160405180910390fd5b5050610c8a565b610c8a6001600160a01b03861685308661469e565b8060000361395a57505050565b61396c836001600160a01b031661161a565b1561398457610ad06001600160a01b03831682613b7a565b610ad06001600160a01b03841683836146c8565b6000805b6002811015612f18578281600281106139b7576139b761595a565b6020020151516001600160801b03168482600281106139d8576139d861595a565b6020020151516001600160801b0316141580613a3a5750828160028110613a0157613a0161595a565b6020020151602001516001600160801b0316848260028110613a2557613a2561595a565b6020020151602001516001600160801b031614155b80613a8d5750828160028110613a5257613a5261595a565b60200201516040015167ffffffffffffffff16848260028110613a7757613a7761595a565b60200201516040015167ffffffffffffffff1614155b80613ae05750828160028110613aa557613aa561595a565b60200201516060015167ffffffffffffffff16848260028110613aca57613aca61595a565b60200201516060015167ffffffffffffffff1614155b15613aef576000915050610841565b60010161399c565b613aff6152bc565b81613b0e578260200151610e3c565b60405180604001604052808460200151600160028110613b3057613b3061595a565b60200201516001600160a01b03166001600160a01b031681526020018460200151600060028110613b6357613b6361595a565b60200201516001600160a01b031690529392505050565b80471015613bca5760405162461bcd60e51b815260206004820152601d60248201527f416464726573733a20696e73756666696369656e742062616c616e63650000006044820152606401610bf1565b6000826001600160a01b03168260405160006040518083038185875af1925050503d8060008114613c17576040519150601f19603f3d011682016040523d82523d6000602084013e613c1c565b606091505b5050905080610ad05760405162461bcd60e51b815260206004820152603a60248201527f416464726573733a20756e61626c6520746f2073656e642076616c75652c207260448201527f6563697069656e74206d617920686176652072657665727465640000000000006064820152608401610bf1565b600082815260c9602090815260408083206001600160a01b038516845290915290205460ff16610c0457613cc68161472d565b613cd183602061473f565b604051602001613ce2929190615d45565b60408051601f198184030181529082905262461bcd60e51b8252610bf191600401615dc6565b600082815260c9602090815260408083206001600160a01b038516845290915290205460ff16610c0457600082815260c9602090815260408083206001600160a01b03851684529091529020805460ff19166001179055613d663390565b6001600160a01b0316816001600160a01b0316837f2f8788117e7eff1d82e926ec794901d17c78024a50270940304540a733656f0d60405160405180910390a45050565b6000610e3c836001600160a01b038416614968565b600082815260c9602090815260408083206001600160a01b038516845290915290205460ff1615610c0457600082815260c9602090815260408083206001600160a01b0385168085529252808320805460ff1916905551339285917ff6391f5c32d9c69d2a47ea670b442974b53935d1edc7fd64eb21e047a839171b9190a45050565b6000610e3c836001600160a01b0384166149b7565b6101915460ff166115235760405162461bcd60e51b815260206004820152601460248201527f5061757361626c653a206e6f74207061757365640000000000000000000000006044820152606401610bf1565b600054610100900460ff16613f155760405162461bcd60e51b815260206004820152602b60248201527f496e697469616c697a61626c653a20636f6e7472616374206973206e6f74206960448201526a6e697469616c697a696e6760a81b6064820152608401610bf1565b611523614aaa565b600054610100900460ff16613f885760405162461bcd60e51b815260206004820152602b60248201527f496e697469616c697a61626c653a20636f6e7472616374206973206e6f74206960448201526a6e697469616c697a696e6760a81b6064820152608401610bf1565b611523614b15565b600054610100900460ff16613ffb5760405162461bcd60e51b815260206004820152602b60248201527f496e697469616c697a61626c653a20636f6e7472616374206973206e6f74206960448201526a6e697469616c697a696e6760a81b6064820152608401610bf1565b614003614aaa565b611523614b8b565b600054610100900460ff166140765760405162461bcd60e51b815260206004820152602b60248201527f496e697469616c697a61626c653a20636f6e7472616374206973206e6f74206960448201526a6e697469616c697a696e6760a81b6064820152608401610bf1565b611523614c59565b600054610100900460ff166140e95760405162461bcd60e51b815260206004820152602b60248201527f496e697469616c697a61626c653a20636f6e7472616374206973206e6f74206960448201526a6e697469616c697a696e6760a81b6064820152608401610bf1565b611523614cc4565b600054610100900460ff1661415c5760405162461bcd60e51b815260206004820152602b60248201527f496e697469616c697a61626c653a20636f6e7472616374206973206e6f74206960448201526a6e697469616c697a696e6760a81b6064820152608401610bf1565b6141a67ff28f409b8cbe6b50c7ca45afe893f01f69626f8a4e33cb480bc1bc2d618c08457f2172861495e7b85edac73e3cd5fbb42dd675baadf627720e687bcfdaca025096614d3c565b6115237f24a843cae781765d8cdc3bca1cc42497522c0508f4e621c2ca36ceea2fda7b167f2172861495e7b85edac73e3cd5fbb42dd675baadf627720e687bcfdaca025096614d3c565b6000610e3c83836149b7565b60008260000182815481106142135761421361595a565b9060005260206000200154905092915050565b6000610e3c8383614968565b6000826000036142a15781600003614276576040517f4e305c4b00000000000000000000000000000000000000000000000000000000815260040160405180910390fd5b61429a8661428b660100000000000080615df9565b6142958580615df9565b61449b565b9050614328565b660100000000000084028584028386020160006142be868a615df9565b6142c89083615c93565b905060006142d68485614d87565b905060006142e48484614d87565b905060006142f28383614db6565b9050600061430187888461449b565b90506000614310878785614503565b905061431d8e838361449b565b985050505050505050505b95945050505050565b60006001600160801b038211156143b05760405162461bcd60e51b815260206004820152602760248201527f53616665436173743a2076616c756520646f65736e27742066697420696e203160448201527f32382062697473000000000000000000000000000000000000000000000000006064820152608401610bf1565b5090565b60008260000361441c57816000036143f8576040517f4e305c4b00000000000000000000000000000000000000000000000000000000815260040160405180910390fd5b61429a866144068480615df9565b614417660100000000000080615df9565b614503565b660100000000000084028584028386020160006144398983615df9565b905060006144478485614d87565b905060006144558389614d87565b905060006144638383614db6565b9050600061447287888461449b565b90506000614481868c8561449b565b905061431d876144918589615e10565b6144178486615a9a565b6000806144a9858585614503565b905060006144b8868686614dcc565b1115610b275760001981106144f9576040517f35278d1200000000000000000000000000000000000000000000000000000000815260040160405180910390fd5b6001019050610e3c565b60008060006145128686614de7565b91509150816000036145375783818161452d5761452d615d0b565b0492505050610e3c565b838210614570576040517f35278d1200000000000000000000000000000000000000000000000000000000815260040160405180910390fd5b600061457d878787614dcc565b905060008061458d858585614e22565b91509150816000036145b5578681816145a8576145a8615d0b565b0495505050505050610e3c565b60008781038816906145c8848484614e52565b905060006145e4838b816145de576145de615d0b565b04614e8f565b919091029b9a5050505050505050505050565b60006146028361161a565b1561461857506001600160a01b03811631610841565b826040517f70a082310000000000000000000000000000000000000000000000000000000081526001600160a01b03848116600483015291909116906370a0823190602401602060405180830381865afa15801561467a573d6000803e3d6000fd5b505050506040513d601f19601f82011682018060405250810190610e3c9190615e32565b8015806146af57506146af8461161a565b61237f5761237f6001600160a01b038516848484614eb0565b806000036146d557505050565b6146de8361161a565b15614719576040516001600160a01b0383169082156108fc029083906000818181858888f1935050505015801561237f573d6000803e3d6000fd5b610ad06001600160a01b0384168383614f61565b60606108416001600160a01b03831660145b6060600061474e836002615df9565b614759906002615a9a565b67ffffffffffffffff81111561477157614771615ae0565b6040519080825280601f01601f19166020018201604052801561479b576020820181803683370190505b5090507f3000000000000000000000000000000000000000000000000000000000000000816000815181106147d2576147d261595a565b60200101907effffffffffffffffffffffffffffffffffffffffffffffffffffffffffffff1916908160001a9053507f7800000000000000000000000000000000000000000000000000000000000000816001815181106148355761483561595a565b60200101907effffffffffffffffffffffffffffffffffffffffffffffffffffffffffffff1916908160001a9053506000614871846002615df9565b61487c906001615a9a565b90505b6001811115614919577f303132333435363738396162636465660000000000000000000000000000000085600f16601081106148bd576148bd61595a565b1a60f81b8282815181106148d3576148d361595a565b60200101907effffffffffffffffffffffffffffffffffffffffffffffffffffffffffffff1916908160001a90535060049490941c9361491281615e4b565b905061487f565b508315610e3c5760405162461bcd60e51b815260206004820181905260248201527f537472696e67733a20686578206c656e67746820696e73756666696369656e746044820152606401610bf1565b60008181526001830160205260408120546149af57508154600181810184556000848152602080822090930184905584548482528286019093526040902091909155610841565b506000610841565b60008181526001830160205260408120548015614aa05760006149db600183615c93565b85549091506000906149ef90600190615c93565b9050818114614a54576000866000018281548110614a0f57614a0f61595a565b9060005260206000200154905080876000018481548110614a3257614a3261595a565b6000918252602080832090910192909255918252600188019052604090208390555b8554869080614a6557614a65615e62565b600190038181906000526020600020016000905590558560010160008681526020019081526020016000206000905560019350505050610841565b6000915050610841565b600054610100900460ff166115235760405162461bcd60e51b815260206004820152602b60248201527f496e697469616c697a61626c653a20636f6e7472616374206973206e6f74206960448201526a6e697469616c697a696e6760a81b6064820152608401610bf1565b600054610100900460ff16614b805760405162461bcd60e51b815260206004820152602b60248201527f496e697469616c697a61626c653a20636f6e7472616374206973206e6f74206960448201526a6e697469616c697a696e6760a81b6064820152608401610bf1565b6115236107d061277b565b600054610100900460ff16614bf65760405162461bcd60e51b815260206004820152602b60248201527f496e697469616c697a61626c653a20636f6e7472616374206973206e6f74206960448201526a6e697469616c697a696e6760a81b6064820152608401610bf1565b61012d805461ffff19166001179055614c2f7f2172861495e7b85edac73e3cd5fbb42dd675baadf627720e687bcfdaca02509680614d3c565b6115237f2172861495e7b85edac73e3cd5fbb42dd675baadf627720e687bcfdaca02509633614faa565b600054610100900460ff16611ca25760405162461bcd60e51b815260206004820152602b60248201527f496e697469616c697a61626c653a20636f6e7472616374206973206e6f74206960448201526a6e697469616c697a696e6760a81b6064820152608401610bf1565b600054610100900460ff16614d2f5760405162461bcd60e51b815260206004820152602b60248201527f496e697469616c697a61626c653a20636f6e7472616374206973206e6f74206960448201526a6e697469616c697a696e6760a81b6064820152608401610bf1565b610191805460ff19169055565b600082815260c96020526040808220600101805490849055905190918391839186917fbd79b86ffe0ab8e8776151514217cd7cacd52c909f66475c3af44e129f0b00ff9190a4505050565b6000806000614d968585614de7565b9150915080198211614dab5781600101614328565b506002019392505050565b6000818311614dc55781610e3c565b5090919050565b60008180614ddc57614ddc615d0b565b838509949350505050565b6000806000614df68585614fb4565b9050848402808210614e0f579081900392509050614e1b565b60018183030393509150505b9250929050565b600080828410614e385750839050818303614e4a565b614e43600186615c93565b9150508183035b935093915050565b600080614e708380830381614e6957614e69615d0b565b0460010190565b9050828481614e8157614e81615d0b565b048186021795945050505050565b60006001815b60088110156133ac5783820260020382029150600101614e95565b6040516001600160a01b038085166024830152831660448201526064810182905261237f9085907f23b872dd00000000000000000000000000000000000000000000000000000000906084015b60408051601f198184030181529190526020810180517bffffffffffffffffffffffffffffffffffffffffffffffffffffffff167fffffffff0000000000000000000000000000000000000000000000000000000090931692909217909152614fc3565b6040516001600160a01b038316602482015260448101829052610ad09084907fa9059cbb0000000000000000000000000000000000000000000000000000000090606401614efd565b610c048282612553565b60006000198284099392505050565b6000615018826040518060400160405280602081526020017f5361666545524332303a206c6f772d6c6576656c2063616c6c206661696c6564815250856001600160a01b03166150ab9092919063ffffffff16565b90508051600014806150395750808060200190518101906150399190615e78565b610ad05760405162461bcd60e51b815260206004820152602a60248201527f5361666545524332303a204552433230206f7065726174696f6e20646964206e60448201527f6f742073756363656564000000000000000000000000000000000000000000006064820152608401610bf1565b6060610b27848460008585600080866001600160a01b031685876040516150d29190615e9a565b60006040518083038185875af1925050503d806000811461510f576040519150601f19603f3d011682016040523d82523d6000602084013e615114565b606091505b509150915061512587838387615130565b979650505050505050565b6060831561519f578251600003615198576001600160a01b0385163b6151985760405162461bcd60e51b815260206004820152601d60248201527f416464726573733a2063616c6c20746f206e6f6e2d636f6e74726163740000006044820152606401610bf1565b5081610b27565b610b2783838151156151b45781518083602001fd5b8060405162461bcd60e51b8152600401610bf19190615dc6565b604051806040016040528060006001600160801b031681526020016151f16152bc565b905290565b60408051608081018252600080825260208201529081016152156152bc565b81526020016151f16152da565b8260028101928215615282579160200282015b8281111561528257825182547fffffffffffffffffffffffff0000000000000000000000000000000000000000166001600160a01b03909116178255602090920191600190910190615235565b506143b092915061533e565b8260038101928215615282579160200282015b828111156152825782518255916020019190600101906152a1565b60405180604001604052806002906020820280368337509192915050565b60405180604001604052806002905b6040805160808101825260008082526020808301829052928201819052606082015282526000199092019101816152e95790505090565b60405180606001604052806003906020820280368337509192915050565b5b808211156143b0576000815560010161533f565b60006020828403121561536557600080fd5b81357fffffffff0000000000000000000000000000000000000000000000000000000081168114610e3c57600080fd5b6001600160a01b0381168114610c3b57600080fd5b60008083601f8401126153bc57600080fd5b50813567ffffffffffffffff8111156153d457600080fd5b6020830191508360208260061b8501011115614e1b57600080fd5b80356001600160801b038116811461540657600080fd5b919050565b60008060008060008060a0878903121561542457600080fd5b863561542f81615395565b9550602087013561543f81615395565b9450604087013567ffffffffffffffff81111561545b57600080fd5b61546789828a016153aa565b90955093505060608701359150615480608088016153ef565b90509295509295509295565b80610100810183101561084157600080fd5b600080600061022084860312156154b457600080fd5b833592506154c5856020860161548c565b91506154d585610120860161548c565b90509250925092565b6000602082840312156154f057600080fd5b5035919050565b6000806000806060858703121561550d57600080fd5b843561551881615395565b9350602085013561552881615395565b9250604085013567ffffffffffffffff81111561554457600080fd5b615550878288016153aa565b95989497509550505050565b6000806040838503121561556f57600080fd5b82359150602083013561558181615395565b809150509250929050565b6000806040838503121561559f57600080fd5b82356155aa81615395565b9150602083013561558181615395565b803563ffffffff8116811461540657600080fd5b6000806000606084860312156155e357600080fd5b83356155ee81615395565b925060208401356155fe81615395565b91506154d5604085016155ba565b60006020828403121561561e57600080fd5b610e3c826155ba565b8060005b600281101561237f5781516001600160a01b031684526020938401939091019060010161562b565b81516001600160801b0316815260208083015160608301916133ac90840182615627565b6000806020838503121561568a57600080fd5b823567ffffffffffffffff808211156156a257600080fd5b818501915085601f8301126156b657600080fd5b8135818111156156c557600080fd5b8660208285010111156156d757600080fd5b60209290920196919550909350505050565b600080604083850312156156fc57600080fd5b50508035926020909101359150565b60008060006060848603121561572057600080fd5b833561572b81615395565b925060208401359150604084013561574281615395565b809150509250925092565b8051825260206001600160a01b0381830151168184015260408201516157766040850182615627565b506060820151608080850160005b60028110156157e6576157d68285516001600160801b0380825116835280602083015116602084015250604081015167ffffffffffffffff808216604085015280606084015116606085015250505050565b9284019290820190600101615784565b50505050505050565b6101808101610841828461574d565b6000806000610140848603121561581457600080fd5b833561581f81615395565b9250602084013561582f81615395565b91506154d5856040860161548c565b6000806000806080858703121561585457600080fd5b843561585f81615395565b9350602085013561586f81615395565b93969395505050506040820135916060013590565b6020808252825182820181905260009190848201906040850190845b818110156158c7576158b383855161574d565b9284019261018092909201916001016158a0565b50909695505050505050565b6000602082840312156158e557600080fd5b8135610e3c81615395565b602080825282518282018190526000919060409081850190868401855b8281101561593057615920848351615627565b928401929085019060010161590d565b5091979650505050505050565b60006020828403121561594f57600080fd5b8151610e3c81615395565b634e487b7160e01b600052603260045260246000fd5b634e487b7160e01b600052601160045260246000fd5b61ffff8181168382160190808211156133ac576133ac615970565b6000602082840312156159b357600080fd5b610e3c826153ef565b6001600160801b038181168382160190808211156133ac576133ac615970565b6101208101615a2982866001600160801b0380825116835280602083015116602084015250604081015167ffffffffffffffff808216604085015280606084015116606085015250505050565b83516001600160801b03908116608084015260208501511660a0830152604084015167ffffffffffffffff90811660c084015260608501511660e08301525b60ff8316610100830152949350505050565b6001600160801b038281168282160390808211156133ac576133ac615970565b8082018082111561084157610841615970565b803567ffffffffffffffff8116811461540657600080fd5b600060208284031215615ad757600080fd5b610e3c82615aad565b634e487b7160e01b600052604160045260246000fd5b600060808284031215615b0857600080fd5b6040516080810181811067ffffffffffffffff82111715615b3957634e487b7160e01b600052604160045260246000fd5b604052615b45836153ef565b8152615b53602084016153ef565b6020820152615b6460408401615aad565b6040820152615b7560608401615aad565b60608201529392505050565b6001600160801b0380615b93836153ef565b16835280615ba3602084016153ef565b16602084015250615bb660408201615aad565b67ffffffffffffffff808216604085015280615bd460608501615aad565b16606085015250505050565b6101208101615bef8286615b81565b615a686080830185615b81565b8381526101208101615c4f60208301856001600160801b0380825116835280602083015116602084015250604081015167ffffffffffffffff808216604085015280606084015116606085015250505050565b82516001600160801b0390811660a084015260208401511660c0830152604083015167ffffffffffffffff90811660e0840152606084015116610100830152610b27565b8181038181111561084157610841615970565b8381526101208101615cbb6020830185615b81565b610b2760a0830184615b81565b60006001600160801b03808316818103615ce457615ce4615970565b6001019392505050565b63ffffffff8281168282160390808211156133ac576133ac615970565b634e487b7160e01b600052601260045260246000fd5b60005b83811015615d3c578181015183820152602001615d24565b50506000910152565b7f416363657373436f6e74726f6c3a206163636f756e7420000000000000000000815260008351615d7d816017850160208801615d21565b7f206973206d697373696e6720726f6c65200000000000000000000000000000006017918401918201528351615dba816028840160208801615d21565b01602801949350505050565b6020815260008251806020840152615de5816040850160208701615d21565b601f01601f19169190910160400192915050565b808202811582820484141761084157610841615970565b600082615e2d57634e487b7160e01b600052601260045260246000fd5b500490565b600060208284031215615e4457600080fd5b5051919050565b600081615e5a57615e5a615970565b506000190190565b634e487b7160e01b600052603160045260246000fd5b600060208284031215615e8a57600080fd5b81518015158114610e3c57600080fd5b60008251615eac818460208701615d21565b919091019291505056fea164736f6c6343000813000a2172861495e7b85edac73e3cd5fbb42dd675baadf627720e687bcfdaca025096496e697469616c697a61626c653a20636f6e7472616374206973206e6f742069",
  "devdoc": {
    "details": "Carbon Controller contract",
    "events": {
      "FeesWithdrawn(address,address,uint256,address)": {
        "details": "triggered when fees are withdrawn"
      },
      "Initialized(uint8)": {
        "details": "Triggered when the contract has been initialized or reinitialized."
      },
      "PairCreated(uint128,address,address)": {
        "details": "triggered when a new pair is created"
      },
      "PairTradingFeePPMUpdated(address,address,uint32,uint32)": {
        "details": "triggered when the custom trading fee for a given pair is updated"
      },
      "Paused(address)": {
        "details": "Emitted when the pause is triggered by `account`."
      },
      "RoleAdminChanged(bytes32,bytes32,bytes32)": {
        "details": "Emitted when `newAdminRole` is set as ``role``'s admin role, replacing `previousAdminRole` `DEFAULT_ADMIN_ROLE` is the starting admin for all roles, despite {RoleAdminChanged} not being emitted signaling this. _Available since v3.1._"
      },
      "RoleGranted(bytes32,address,address)": {
        "details": "Emitted when `account` is granted `role`. `sender` is the account that originated the contract call, an admin role bearer except when using {AccessControl-_setupRole}."
      },
      "RoleRevoked(bytes32,address,address)": {
        "details": "Emitted when `account` is revoked `role`. `sender` is the account that originated the contract call:   - if using `revokeRole`, it is the admin role bearer   - if using `renounceRole`, it is the role bearer (i.e. `account`)"
      },
      "StrategyCreated(uint256,address,address,address,(uint128,uint128,uint64,uint64),(uint128,uint128,uint64,uint64))": {
        "details": "triggered when a strategy is created"
      },
      "StrategyDeleted(uint256,address,address,address,(uint128,uint128,uint64,uint64),(uint128,uint128,uint64,uint64))": {
        "details": "triggered when a strategy is deleted"
      },
      "StrategyUpdated(uint256,address,address,(uint128,uint128,uint64,uint64),(uint128,uint128,uint64,uint64),uint8)": {
        "details": "triggered when a strategy is updated"
      },
      "TokensTraded(address,address,address,uint256,uint256,uint128,bool)": {
        "details": "triggered when tokens are traded"
      },
      "TradingFeePPMUpdated(uint32,uint32)": {
        "details": "triggered when the network fee is updated"
      },
      "Unpaused(address)": {
        "details": "Emitted when the pause is lifted by `account`."
      }
    },
    "kind": "dev",
    "methods": {
      "accumulatedFees(address)": {
        "details": "returns the amount of fees accumulated for the specified token"
      },
      "calculateTradeSourceAmount(address,address,(uint256,uint128)[])": {
        "details": "returns the source amount required when trading by target amount"
      },
      "calculateTradeTargetAmount(address,address,(uint256,uint128)[])": {
        "details": "returns the target amount expected when trading by source amount"
      },
      "constructor": {
        "details": "used to set immutable state variables and initialize the implementation"
      },
      "controllerType()": {
        "details": "returns the type of the controller"
      },
      "createPair(address,address)": {
        "details": "creates a new pair of provided token0 and token1"
      },
      "createStrategy(address,address,(uint128,uint128,uint64,uint64)[2])": {
        "details": "creates a new strategy, returns the strategy's id requirements: - the caller must have approved the tokens with assigned liquidity in the order, if any"
      },
      "deleteStrategy(uint256)": {
        "details": "deletes a strategy matching the provided id notes: - 100% of liquidity is withdrawn and sent to the owner requirements: - the caller must be the owner of the NFT voucher"
      },
      "getRoleAdmin(bytes32)": {
        "details": "Returns the admin role that controls `role`. See {grantRole} and {revokeRole}. To change a role's admin, use {_setRoleAdmin}."
      },
      "getRoleMember(bytes32,uint256)": {
        "details": "Returns one of the accounts that have `role`. `index` must be a value between 0 and {getRoleMemberCount}, non-inclusive. Role bearers are not sorted in any particular way, and their ordering may change at any point. WARNING: When using {getRoleMember} and {getRoleMemberCount}, make sure you perform all queries on the same block. See the following https://forum.openzeppelin.com/t/iterating-over-elements-on-enumerableset-in-openzeppelin-contracts/2296[forum post] for more information."
      },
      "getRoleMemberCount(bytes32)": {
        "details": "Returns the number of accounts that have `role`. Can be used together with {getRoleMember} to enumerate all bearers of a role."
      },
      "grantRole(bytes32,address)": {
        "details": "Grants `role` to `account`. If `account` had not been already granted `role`, emits a {RoleGranted} event. Requirements: - the caller must have ``role``'s admin role. May emit a {RoleGranted} event."
      },
      "hasRole(bytes32,address)": {
        "details": "Returns `true` if `account` has been granted `role`."
      },
      "initialize()": {
        "details": "fully initializes the contract and its parents"
      },
      "pair(address,address)": {
        "details": "returns a pair's metadata matching the provided token0 and token1"
      },
      "pairTradingFeePPM(address,address)": {
        "details": "returns the trading fee for a given pair (in units of PPM)"
      },
      "pairs()": {
        "details": "returns a list of all supported pairs"
      },
      "pause()": {
        "details": "pauses the CarbonController requirements: - the caller must have the ROLE_EMERGENCY_STOPPER privilege"
      },
      "paused()": {
        "details": "Returns true if the contract is paused, and false otherwise."
      },
      "postUpgrade(bytes)": {
        "details": "performs post-upgrade initialization requirements: - this must and can be called only once per-upgrade"
      },
      "renounceRole(bytes32,address)": {
        "details": "Revokes `role` from the calling account. Roles are often managed via {grantRole} and {revokeRole}: this function's purpose is to provide a mechanism for accounts to lose their privileges if they are compromised (such as when a trusted device is misplaced). If the calling account had been revoked `role`, emits a {RoleRevoked} event. Requirements: - the caller must be `account`. May emit a {RoleRevoked} event."
      },
      "revokeRole(bytes32,address)": {
        "details": "Revokes `role` from `account`. If `account` had been granted `role`, emits a {RoleRevoked} event. Requirements: - the caller must have ``role``'s admin role. May emit a {RoleRevoked} event."
      },
      "roleAdmin()": {
        "details": "returns the admin role"
      },
      "roleEmergencyStopper()": {
        "details": "returns the emergency stopper role"
      },
      "roleFeesManager()": {
        "details": "returns the fees manager role"
      },
      "setPairTradingFeePPM(address,address,uint32)": {
        "details": "sets the custom trading fee for a given pair (in units of PPM) requirements: - the caller must be the admin of the contract"
      },
      "setTradingFeePPM(uint32)": {
        "details": "sets the trading fee (in units of PPM) requirements: - the caller must be the admin of the contract"
      },
      "strategiesByPair(address,address,uint256,uint256)": {
        "details": "returns strategies belonging to a specific pair note that for the full list of strategies pass 0 to both startIndex and endIndex"
      },
      "strategiesByPairCount(address,address)": {
        "details": "returns the count of strategies belonging to a specific pair"
      },
      "strategy(uint256)": {
        "details": "returns a strategy matching the provided id, note tokens and orders are returned sorted as provided upon creation"
      },
      "supportsInterface(bytes4)": {
        "details": "See {IERC165-supportsInterface}."
      },
      "tradeBySourceAmount(address,address,(uint256,uint128)[],uint256,uint128)": {
        "details": "performs a trade by specifying a fixed source amount notes: - excess native token is returned to the sender if any requirements: - the caller must have approved the source token"
      },
      "tradeByTargetAmount(address,address,(uint256,uint128)[],uint256,uint128)": {
        "details": "performs a trade by specifying a fixed target amount notes: - excess native token is returned to the sender if any requirements: - the caller must have approved the source token"
      },
      "tradingFeePPM()": {
        "details": "returns the trading fee (in units of PPM)"
      },
      "unpause()": {
        "details": "resumes the CarbonController requirements: - the caller must have the ROLE_EMERGENCY_STOPPER privilege"
      },
      "updateStrategy(uint256,(uint128,uint128,uint64,uint64)[2],(uint128,uint128,uint64,uint64)[2])": {
        "details": "updates an existing strategy notes: - currentOrders should reflect the orders values at the time of sending the tx this prevents cases in which the strategy was updated due to a trade between the time the transaction was sent and the time it was mined, thus, giving more control to the strategy owner. - reduced liquidity is refunded to the owner - increased liquidity is deposited - excess native token is returned to the sender if any - the sorting of orders is expected to equal the sorting upon creation requirements: - the caller must have approved the tokens with increased liquidity, if any"
      },
      "withdrawFees(address,uint256,address)": {
        "details": "transfers the accumulated fees to the specified recipient notes: `amount` is capped to the available amount returns the amount withdrawn"
      }
    },
    "version": 1
  },
  "userdoc": {
    "kind": "user",
    "methods": {},
    "version": 1
  },
  "storageLayout": {
    "storage": [
      {
        "astId": 588,
        "contract": "contracts/carbon/CarbonController.sol:CarbonController",
        "label": "_initialized",
        "offset": 0,
        "slot": "0",
        "type": "t_uint8"
      },
      {
        "astId": 591,
        "contract": "contracts/carbon/CarbonController.sol:CarbonController",
        "label": "_initializing",
        "offset": 1,
        "slot": "0",
        "type": "t_bool"
      },
      {
        "astId": 2445,
        "contract": "contracts/carbon/CarbonController.sol:CarbonController",
        "label": "__gap",
        "offset": 0,
        "slot": "1",
        "type": "t_array(t_uint256)50_storage"
      },
      {
        "astId": 12406,
        "contract": "contracts/carbon/CarbonController.sol:CarbonController",
        "label": "_lastPairId",
        "offset": 0,
        "slot": "51",
        "type": "t_uint128"
      },
      {
        "astId": 12414,
        "contract": "contracts/carbon/CarbonController.sol:CarbonController",
        "label": "_pairIds",
        "offset": 0,
        "slot": "52",
        "type": "t_mapping(t_userDefinedValueType(Token)16997,t_mapping(t_userDefinedValueType(Token)16997,t_uint128))"
      },
      {
        "astId": 12421,
        "contract": "contracts/carbon/CarbonController.sol:CarbonController",
        "label": "_pairsStorage",
        "offset": 0,
        "slot": "53",
        "type": "t_mapping(t_uint128,t_array(t_userDefinedValueType(Token)16997)2_storage)"
      },
      {
        "astId": 12427,
        "contract": "contracts/carbon/CarbonController.sol:CarbonController",
        "label": "__gap",
        "offset": 0,
        "slot": "54",
        "type": "t_array(t_uint256)47_storage"
      },
      {
        "astId": 12898,
        "contract": "contracts/carbon/CarbonController.sol:CarbonController",
        "label": "_strategyCounter",
        "offset": 0,
        "slot": "101",
        "type": "t_uint128"
      },
      {
        "astId": 12900,
        "contract": "contracts/carbon/CarbonController.sol:CarbonController",
        "label": "_tradingFeePPM",
        "offset": 16,
        "slot": "101",
        "type": "t_uint32"
      },
      {
        "astId": 12906,
        "contract": "contracts/carbon/CarbonController.sol:CarbonController",
        "label": "_packedOrdersByStrategyId",
        "offset": 0,
        "slot": "102",
        "type": "t_mapping(t_uint256,t_array(t_uint256)3_storage)"
      },
      {
        "astId": 12911,
        "contract": "contracts/carbon/CarbonController.sol:CarbonController",
        "label": "_strategyIdsByPairIdStorage",
        "offset": 0,
        "slot": "103",
        "type": "t_mapping(t_uint128,t_struct(UintSet)5726_storage)"
      },
      {
        "astId": 12916,
        "contract": "contracts/carbon/CarbonController.sol:CarbonController",
        "label": "_accumulatedFees",
        "offset": 0,
        "slot": "104",
        "type": "t_mapping(t_userDefinedValueType(Token)16997,t_uint256)"
      },
      {
        "astId": 12920,
        "contract": "contracts/carbon/CarbonController.sol:CarbonController",
        "label": "_customTradingFeePPM",
        "offset": 0,
        "slot": "105",
        "type": "t_mapping(t_uint128,t_uint32)"
      },
      {
        "astId": 12926,
        "contract": "contracts/carbon/CarbonController.sol:CarbonController",
        "label": "__gap",
        "offset": 0,
        "slot": "106",
        "type": "t_array(t_uint256)45_storage"
      },
      {
        "astId": 2718,
        "contract": "contracts/carbon/CarbonController.sol:CarbonController",
        "label": "__gap",
        "offset": 0,
        "slot": "151",
        "type": "t_array(t_uint256)50_storage"
      },
      {
        "astId": 184,
        "contract": "contracts/carbon/CarbonController.sol:CarbonController",
        "label": "_roles",
        "offset": 0,
        "slot": "201",
        "type": "t_mapping(t_bytes32,t_struct(RoleData)179_storage)"
      },
      {
        "astId": 479,
        "contract": "contracts/carbon/CarbonController.sol:CarbonController",
        "label": "__gap",
        "offset": 0,
        "slot": "202",
        "type": "t_array(t_uint256)49_storage"
      },
      {
        "astId": 33,
        "contract": "contracts/carbon/CarbonController.sol:CarbonController",
        "label": "_roleMembers",
        "offset": 0,
        "slot": "251",
        "type": "t_mapping(t_bytes32,t_struct(AddressSet)5569_storage)"
      },
      {
        "astId": 143,
        "contract": "contracts/carbon/CarbonController.sol:CarbonController",
        "label": "__gap",
        "offset": 0,
        "slot": "252",
        "type": "t_array(t_uint256)49_storage"
      },
      {
        "astId": 17877,
        "contract": "contracts/carbon/CarbonController.sol:CarbonController",
        "label": "_initializations",
        "offset": 0,
        "slot": "301",
        "type": "t_uint16"
      },
      {
        "astId": 17883,
        "contract": "contracts/carbon/CarbonController.sol:CarbonController",
        "label": "__gap",
        "offset": 0,
        "slot": "302",
        "type": "t_array(t_uint256)49_storage"
      },
      {
        "astId": 891,
        "contract": "contracts/carbon/CarbonController.sol:CarbonController",
        "label": "_status",
        "offset": 0,
        "slot": "351",
        "type": "t_uint256"
      },
      {
        "astId": 960,
        "contract": "contracts/carbon/CarbonController.sol:CarbonController",
        "label": "__gap",
        "offset": 0,
        "slot": "352",
        "type": "t_array(t_uint256)49_storage"
      },
      {
        "astId": 771,
        "contract": "contracts/carbon/CarbonController.sol:CarbonController",
        "label": "_paused",
        "offset": 0,
        "slot": "401",
        "type": "t_bool"
      },
      {
        "astId": 876,
        "contract": "contracts/carbon/CarbonController.sol:CarbonController",
        "label": "__gap",
        "offset": 0,
        "slot": "402",
        "type": "t_array(t_uint256)49_storage"
      },
      {
        "astId": 11368,
        "contract": "contracts/carbon/CarbonController.sol:CarbonController",
        "label": "__gap",
        "offset": 0,
        "slot": "451",
        "type": "t_array(t_uint256)50_storage"
      }
    ],
    "types": {
      "t_address": {
        "encoding": "inplace",
        "label": "address",
        "numberOfBytes": "20"
      },
      "t_array(t_bytes32)dyn_storage": {
        "base": "t_bytes32",
        "encoding": "dynamic_array",
        "label": "bytes32[]",
        "numberOfBytes": "32"
      },
      "t_array(t_uint256)3_storage": {
        "base": "t_uint256",
        "encoding": "inplace",
        "label": "uint256[3]",
        "numberOfBytes": "96"
      },
      "t_array(t_uint256)45_storage": {
        "base": "t_uint256",
        "encoding": "inplace",
        "label": "uint256[45]",
        "numberOfBytes": "1440"
      },
      "t_array(t_uint256)47_storage": {
        "base": "t_uint256",
        "encoding": "inplace",
        "label": "uint256[47]",
        "numberOfBytes": "1504"
      },
      "t_array(t_uint256)49_storage": {
        "base": "t_uint256",
        "encoding": "inplace",
        "label": "uint256[49]",
        "numberOfBytes": "1568"
      },
      "t_array(t_uint256)50_storage": {
        "base": "t_uint256",
        "encoding": "inplace",
        "label": "uint256[50]",
        "numberOfBytes": "1600"
      },
      "t_array(t_userDefinedValueType(Token)16997)2_storage": {
        "base": "t_userDefinedValueType(Token)16997",
        "encoding": "inplace",
        "label": "Token[2]",
        "numberOfBytes": "64"
      },
      "t_bool": {
        "encoding": "inplace",
        "label": "bool",
        "numberOfBytes": "1"
      },
      "t_bytes32": {
        "encoding": "inplace",
        "label": "bytes32",
        "numberOfBytes": "32"
      },
      "t_mapping(t_address,t_bool)": {
        "encoding": "mapping",
        "key": "t_address",
        "label": "mapping(address => bool)",
        "numberOfBytes": "32",
        "value": "t_bool"
      },
      "t_mapping(t_bytes32,t_struct(AddressSet)5569_storage)": {
        "encoding": "mapping",
        "key": "t_bytes32",
        "label": "mapping(bytes32 => struct EnumerableSetUpgradeable.AddressSet)",
        "numberOfBytes": "32",
        "value": "t_struct(AddressSet)5569_storage"
      },
      "t_mapping(t_bytes32,t_struct(RoleData)179_storage)": {
        "encoding": "mapping",
        "key": "t_bytes32",
        "label": "mapping(bytes32 => struct AccessControlUpgradeable.RoleData)",
        "numberOfBytes": "32",
        "value": "t_struct(RoleData)179_storage"
      },
      "t_mapping(t_bytes32,t_uint256)": {
        "encoding": "mapping",
        "key": "t_bytes32",
        "label": "mapping(bytes32 => uint256)",
        "numberOfBytes": "32",
        "value": "t_uint256"
      },
      "t_mapping(t_uint128,t_array(t_userDefinedValueType(Token)16997)2_storage)": {
        "encoding": "mapping",
        "key": "t_uint128",
        "label": "mapping(uint128 => Token[2])",
        "numberOfBytes": "32",
        "value": "t_array(t_userDefinedValueType(Token)16997)2_storage"
      },
      "t_mapping(t_uint128,t_struct(UintSet)5726_storage)": {
        "encoding": "mapping",
        "key": "t_uint128",
        "label": "mapping(uint128 => struct EnumerableSetUpgradeable.UintSet)",
        "numberOfBytes": "32",
        "value": "t_struct(UintSet)5726_storage"
      },
      "t_mapping(t_uint128,t_uint32)": {
        "encoding": "mapping",
        "key": "t_uint128",
        "label": "mapping(uint128 => uint32)",
        "numberOfBytes": "32",
        "value": "t_uint32"
      },
      "t_mapping(t_uint256,t_array(t_uint256)3_storage)": {
        "encoding": "mapping",
        "key": "t_uint256",
        "label": "mapping(uint256 => uint256[3])",
        "numberOfBytes": "32",
        "value": "t_array(t_uint256)3_storage"
      },
      "t_mapping(t_userDefinedValueType(Token)16997,t_mapping(t_userDefinedValueType(Token)16997,t_uint128))": {
        "encoding": "mapping",
        "key": "t_userDefinedValueType(Token)16997",
        "label": "mapping(Token => mapping(Token => uint128))",
        "numberOfBytes": "32",
        "value": "t_mapping(t_userDefinedValueType(Token)16997,t_uint128)"
      },
      "t_mapping(t_userDefinedValueType(Token)16997,t_uint128)": {
        "encoding": "mapping",
        "key": "t_userDefinedValueType(Token)16997",
        "label": "mapping(Token => uint128)",
        "numberOfBytes": "32",
        "value": "t_uint128"
      },
      "t_mapping(t_userDefinedValueType(Token)16997,t_uint256)": {
        "encoding": "mapping",
        "key": "t_userDefinedValueType(Token)16997",
        "label": "mapping(Token => uint256)",
        "numberOfBytes": "32",
        "value": "t_uint256"
      },
      "t_struct(AddressSet)5569_storage": {
        "encoding": "inplace",
        "label": "struct EnumerableSetUpgradeable.AddressSet",
        "members": [
          {
            "astId": 5568,
            "contract": "contracts/carbon/CarbonController.sol:CarbonController",
            "label": "_inner",
            "offset": 0,
            "slot": "0",
            "type": "t_struct(Set)5254_storage"
          }
        ],
        "numberOfBytes": "64"
      },
      "t_struct(RoleData)179_storage": {
        "encoding": "inplace",
        "label": "struct AccessControlUpgradeable.RoleData",
        "members": [
          {
            "astId": 176,
            "contract": "contracts/carbon/CarbonController.sol:CarbonController",
            "label": "members",
            "offset": 0,
            "slot": "0",
            "type": "t_mapping(t_address,t_bool)"
          },
          {
            "astId": 178,
            "contract": "contracts/carbon/CarbonController.sol:CarbonController",
            "label": "adminRole",
            "offset": 0,
            "slot": "1",
            "type": "t_bytes32"
          }
        ],
        "numberOfBytes": "64"
      },
      "t_struct(Set)5254_storage": {
        "encoding": "inplace",
        "label": "struct EnumerableSetUpgradeable.Set",
        "members": [
          {
            "astId": 5249,
            "contract": "contracts/carbon/CarbonController.sol:CarbonController",
            "label": "_values",
            "offset": 0,
            "slot": "0",
            "type": "t_array(t_bytes32)dyn_storage"
          },
          {
            "astId": 5253,
            "contract": "contracts/carbon/CarbonController.sol:CarbonController",
            "label": "_indexes",
            "offset": 0,
            "slot": "1",
            "type": "t_mapping(t_bytes32,t_uint256)"
          }
        ],
        "numberOfBytes": "64"
      },
      "t_struct(UintSet)5726_storage": {
        "encoding": "inplace",
        "label": "struct EnumerableSetUpgradeable.UintSet",
        "members": [
          {
            "astId": 5725,
            "contract": "contracts/carbon/CarbonController.sol:CarbonController",
            "label": "_inner",
            "offset": 0,
            "slot": "0",
            "type": "t_struct(Set)5254_storage"
          }
        ],
        "numberOfBytes": "64"
      },
      "t_uint128": {
        "encoding": "inplace",
        "label": "uint128",
        "numberOfBytes": "16"
      },
      "t_uint16": {
        "encoding": "inplace",
        "label": "uint16",
        "numberOfBytes": "2"
      },
      "t_uint256": {
        "encoding": "inplace",
        "label": "uint256",
        "numberOfBytes": "32"
      },
      "t_uint32": {
        "encoding": "inplace",
        "label": "uint32",
        "numberOfBytes": "4"
      },
      "t_uint8": {
        "encoding": "inplace",
        "label": "uint8",
        "numberOfBytes": "1"
      },
      "t_userDefinedValueType(Token)16997": {
        "encoding": "inplace",
        "label": "Token",
        "numberOfBytes": "20"
      }
    }
  }
}