{
  "address": "0x21f02aC7fc8915F1b884b532f6CBCD0ef0C086eE",
  "abi": [
    {
      "inputs": [
        {
          "internalType": "contract IVoucher",
          "name": "initVoucher",
          "type": "address"
        },
        {
          "internalType": "address",
          "name": "proxy",
          "type": "address"
        }
      ],
      "stateMutability": "nonpayable",
      "type": "constructor"
    },
    {
      "inputs": [],
      "name": "AccessDenied",
      "type": "error"
    },
    {
      "inputs": [],
      "name": "AlreadyInitialized",
      "type": "error"
    },
    {
      "inputs": [],
      "name": "DeadlineExpired",
      "type": "error"
    },
    {
      "inputs": [],
      "name": "GreaterThanMaxInput",
      "type": "error"
    },
    {
      "inputs": [],
      "name": "IdenticalAddresses",
      "type": "error"
    },
    {
      "inputs": [],
      "name": "InsufficientCapacity",
      "type": "error"
    },
    {
      "inputs": [],
      "name": "InsufficientLiquidity",
      "type": "error"
    },
    {
      "inputs": [],
      "name": "InsufficientNativeTokenReceived",
      "type": "error"
    },
    {
      "inputs": [],
      "name": "InvalidAddress",
      "type": "error"
    },
    {
      "inputs": [],
      "name": "InvalidFee",
      "type": "error"
    },
    {
      "inputs": [],
      "name": "InvalidIndices",
      "type": "error"
    },
    {
      "inputs": [],
      "name": "InvalidRate",
      "type": "error"
    },
    {
      "inputs": [],
      "name": "InvalidTradeActionAmount",
      "type": "error"
    },
    {
      "inputs": [],
      "name": "InvalidTradeActionStrategyId",
      "type": "error"
    },
    {
      "inputs": [],
      "name": "LowerThanMinReturn",
      "type": "error"
    },
    {
      "inputs": [],
      "name": "NativeAmountMismatch",
      "type": "error"
    },
    {
      "inputs": [],
      "name": "OutDated",
      "type": "error"
    },
    {
      "inputs": [],
      "name": "Overflow",
      "type": "error"
    },
    {
      "inputs": [],
      "name": "PairAlreadyExists",
      "type": "error"
    },
    {
      "inputs": [],
      "name": "PairDoesNotExist",
      "type": "error"
    },
    {
      "inputs": [],
      "name": "StrategyDoesNotExist",
      "type": "error"
    },
    {
      "inputs": [],
      "name": "UnknownDelegator",
      "type": "error"
    },
    {
      "inputs": [],
      "name": "UnnecessaryNativeTokenReceived",
      "type": "error"
    },
    {
      "inputs": [],
      "name": "ZeroValue",
      "type": "error"
    },
    {
      "anonymous": false,
      "inputs": [
        {
          "indexed": true,
          "internalType": "Token",
          "name": "token",
          "type": "address"
        },
        {
          "indexed": true,
          "internalType": "address",
          "name": "recipient",
          "type": "address"
        },
        {
          "indexed": true,
          "internalType": "uint256",
          "name": "amount",
          "type": "uint256"
        },
        {
          "indexed": false,
          "internalType": "address",
          "name": "sender",
          "type": "address"
        }
      ],
      "name": "FeesWithdrawn",
      "type": "event"
    },
    {
      "anonymous": false,
      "inputs": [
        {
          "indexed": false,
          "internalType": "uint8",
          "name": "version",
          "type": "uint8"
        }
      ],
      "name": "Initialized",
      "type": "event"
    },
    {
      "anonymous": false,
      "inputs": [
        {
          "indexed": true,
          "internalType": "uint128",
          "name": "pairId",
          "type": "uint128"
        },
        {
          "indexed": true,
          "internalType": "Token",
          "name": "token0",
          "type": "address"
        },
        {
          "indexed": true,
          "internalType": "Token",
          "name": "token1",
          "type": "address"
        }
      ],
      "name": "PairCreated",
      "type": "event"
    },
    {
      "anonymous": false,
      "inputs": [
        {
          "indexed": false,
          "internalType": "address",
          "name": "account",
          "type": "address"
        }
      ],
      "name": "Paused",
      "type": "event"
    },
    {
      "anonymous": false,
      "inputs": [
        {
          "indexed": true,
          "internalType": "bytes32",
          "name": "role",
          "type": "bytes32"
        },
        {
          "indexed": true,
          "internalType": "bytes32",
          "name": "previousAdminRole",
          "type": "bytes32"
        },
        {
          "indexed": true,
          "internalType": "bytes32",
          "name": "newAdminRole",
          "type": "bytes32"
        }
      ],
      "name": "RoleAdminChanged",
      "type": "event"
    },
    {
      "anonymous": false,
      "inputs": [
        {
          "indexed": true,
          "internalType": "bytes32",
          "name": "role",
          "type": "bytes32"
        },
        {
          "indexed": true,
          "internalType": "address",
          "name": "account",
          "type": "address"
        },
        {
          "indexed": true,
          "internalType": "address",
          "name": "sender",
          "type": "address"
        }
      ],
      "name": "RoleGranted",
      "type": "event"
    },
    {
      "anonymous": false,
      "inputs": [
        {
          "indexed": true,
          "internalType": "bytes32",
          "name": "role",
          "type": "bytes32"
        },
        {
          "indexed": true,
          "internalType": "address",
          "name": "account",
          "type": "address"
        },
        {
          "indexed": true,
          "internalType": "address",
          "name": "sender",
          "type": "address"
        }
      ],
      "name": "RoleRevoked",
      "type": "event"
    },
    {
      "anonymous": false,
      "inputs": [
        {
          "indexed": false,
          "internalType": "uint256",
          "name": "id",
          "type": "uint256"
        },
        {
          "indexed": true,
          "internalType": "address",
          "name": "owner",
          "type": "address"
        },
        {
          "indexed": true,
          "internalType": "Token",
          "name": "token0",
          "type": "address"
        },
        {
          "indexed": true,
          "internalType": "Token",
          "name": "token1",
          "type": "address"
        },
        {
          "components": [
            {
              "internalType": "uint128",
              "name": "y",
              "type": "uint128"
            },
            {
              "internalType": "uint128",
              "name": "z",
              "type": "uint128"
            },
            {
              "internalType": "uint64",
              "name": "A",
              "type": "uint64"
            },
            {
              "internalType": "uint64",
              "name": "B",
              "type": "uint64"
            }
          ],
          "indexed": false,
          "internalType": "struct Order",
          "name": "order0",
          "type": "tuple"
        },
        {
          "components": [
            {
              "internalType": "uint128",
              "name": "y",
              "type": "uint128"
            },
            {
              "internalType": "uint128",
              "name": "z",
              "type": "uint128"
            },
            {
              "internalType": "uint64",
              "name": "A",
              "type": "uint64"
            },
            {
              "internalType": "uint64",
              "name": "B",
              "type": "uint64"
            }
          ],
          "indexed": false,
          "internalType": "struct Order",
          "name": "order1",
          "type": "tuple"
        }
      ],
      "name": "StrategyCreated",
      "type": "event"
    },
    {
      "anonymous": false,
      "inputs": [
        {
          "indexed": false,
          "internalType": "uint256",
          "name": "id",
          "type": "uint256"
        },
        {
          "indexed": true,
          "internalType": "address",
          "name": "owner",
          "type": "address"
        },
        {
          "indexed": true,
          "internalType": "Token",
          "name": "token0",
          "type": "address"
        },
        {
          "indexed": true,
          "internalType": "Token",
          "name": "token1",
          "type": "address"
        },
        {
          "components": [
            {
              "internalType": "uint128",
              "name": "y",
              "type": "uint128"
            },
            {
              "internalType": "uint128",
              "name": "z",
              "type": "uint128"
            },
            {
              "internalType": "uint64",
              "name": "A",
              "type": "uint64"
            },
            {
              "internalType": "uint64",
              "name": "B",
              "type": "uint64"
            }
          ],
          "indexed": false,
          "internalType": "struct Order",
          "name": "order0",
          "type": "tuple"
        },
        {
          "components": [
            {
              "internalType": "uint128",
              "name": "y",
              "type": "uint128"
            },
            {
              "internalType": "uint128",
              "name": "z",
              "type": "uint128"
            },
            {
              "internalType": "uint64",
              "name": "A",
              "type": "uint64"
            },
            {
              "internalType": "uint64",
              "name": "B",
              "type": "uint64"
            }
          ],
          "indexed": false,
          "internalType": "struct Order",
          "name": "order1",
          "type": "tuple"
        }
      ],
      "name": "StrategyDeleted",
      "type": "event"
    },
    {
      "anonymous": false,
      "inputs": [
        {
          "indexed": true,
          "internalType": "uint256",
          "name": "id",
          "type": "uint256"
        },
        {
          "indexed": true,
          "internalType": "Token",
          "name": "token0",
          "type": "address"
        },
        {
          "indexed": true,
          "internalType": "Token",
          "name": "token1",
          "type": "address"
        },
        {
          "components": [
            {
              "internalType": "uint128",
              "name": "y",
              "type": "uint128"
            },
            {
              "internalType": "uint128",
              "name": "z",
              "type": "uint128"
            },
            {
              "internalType": "uint64",
              "name": "A",
              "type": "uint64"
            },
            {
              "internalType": "uint64",
              "name": "B",
              "type": "uint64"
            }
          ],
          "indexed": false,
          "internalType": "struct Order",
          "name": "order0",
          "type": "tuple"
        },
        {
          "components": [
            {
              "internalType": "uint128",
              "name": "y",
              "type": "uint128"
            },
            {
              "internalType": "uint128",
              "name": "z",
              "type": "uint128"
            },
            {
              "internalType": "uint64",
              "name": "A",
              "type": "uint64"
            },
            {
              "internalType": "uint64",
              "name": "B",
              "type": "uint64"
            }
          ],
          "indexed": false,
          "internalType": "struct Order",
          "name": "order1",
          "type": "tuple"
        },
        {
          "indexed": false,
          "internalType": "uint8",
          "name": "reason",
          "type": "uint8"
        }
      ],
      "name": "StrategyUpdated",
      "type": "event"
    },
    {
      "anonymous": false,
      "inputs": [
        {
          "indexed": true,
          "internalType": "address",
          "name": "trader",
          "type": "address"
        },
        {
          "indexed": true,
          "internalType": "Token",
          "name": "sourceToken",
          "type": "address"
        },
        {
          "indexed": true,
          "internalType": "Token",
          "name": "targetToken",
          "type": "address"
        },
        {
          "indexed": false,
          "internalType": "uint256",
          "name": "sourceAmount",
          "type": "uint256"
        },
        {
          "indexed": false,
          "internalType": "uint256",
          "name": "targetAmount",
          "type": "uint256"
        },
        {
          "indexed": false,
          "internalType": "uint128",
          "name": "tradingFeeAmount",
          "type": "uint128"
        },
        {
          "indexed": false,
          "internalType": "bool",
          "name": "byTargetAmount",
          "type": "bool"
        }
      ],
      "name": "TokensTraded",
      "type": "event"
    },
    {
      "anonymous": false,
      "inputs": [
        {
          "indexed": false,
          "internalType": "uint32",
          "name": "prevFeePPM",
          "type": "uint32"
        },
        {
          "indexed": false,
          "internalType": "uint32",
          "name": "newFeePPM",
          "type": "uint32"
        }
      ],
      "name": "TradingFeePPMUpdated",
      "type": "event"
    },
    {
      "anonymous": false,
      "inputs": [
        {
          "indexed": false,
          "internalType": "address",
          "name": "account",
          "type": "address"
        }
      ],
      "name": "Unpaused",
      "type": "event"
    },
    {
      "inputs": [],
      "name": "DEFAULT_ADMIN_ROLE",
      "outputs": [
        {
          "internalType": "bytes32",
          "name": "",
          "type": "bytes32"
        }
      ],
      "stateMutability": "view",
      "type": "function"
    },
    {
      "inputs": [
        {
          "internalType": "Token",
          "name": "token",
          "type": "address"
        }
      ],
      "name": "accumulatedFees",
      "outputs": [
        {
          "internalType": "uint256",
          "name": "",
          "type": "uint256"
        }
      ],
      "stateMutability": "view",
      "type": "function"
    },
    {
      "inputs": [
        {
          "internalType": "Token",
          "name": "sourceToken",
          "type": "address"
        },
        {
          "internalType": "Token",
          "name": "targetToken",
          "type": "address"
        },
        {
          "components": [
            {
              "internalType": "uint256",
              "name": "strategyId",
              "type": "uint256"
            },
            {
              "internalType": "uint128",
              "name": "amount",
              "type": "uint128"
            }
          ],
          "internalType": "struct TradeAction[]",
          "name": "tradeActions",
          "type": "tuple[]"
        }
      ],
      "name": "calculateTradeSourceAmount",
      "outputs": [
        {
          "internalType": "uint128",
          "name": "",
          "type": "uint128"
        }
      ],
      "stateMutability": "view",
      "type": "function"
    },
    {
      "inputs": [
        {
          "internalType": "Token",
          "name": "sourceToken",
          "type": "address"
        },
        {
          "internalType": "Token",
          "name": "targetToken",
          "type": "address"
        },
        {
          "components": [
            {
              "internalType": "uint256",
              "name": "strategyId",
              "type": "uint256"
            },
            {
              "internalType": "uint128",
              "name": "amount",
              "type": "uint128"
            }
          ],
          "internalType": "struct TradeAction[]",
          "name": "tradeActions",
          "type": "tuple[]"
        }
      ],
      "name": "calculateTradeTargetAmount",
      "outputs": [
        {
          "internalType": "uint128",
          "name": "",
          "type": "uint128"
        }
      ],
      "stateMutability": "view",
      "type": "function"
    },
    {
      "inputs": [],
      "name": "controllerType",
      "outputs": [
        {
          "internalType": "uint16",
          "name": "",
          "type": "uint16"
        }
      ],
      "stateMutability": "pure",
      "type": "function"
    },
    {
      "inputs": [
        {
          "internalType": "Token",
          "name": "token0",
          "type": "address"
        },
        {
          "internalType": "Token",
          "name": "token1",
          "type": "address"
        }
      ],
      "name": "createPair",
      "outputs": [
        {
          "components": [
            {
              "internalType": "uint128",
              "name": "id",
              "type": "uint128"
            },
            {
              "internalType": "Token[2]",
              "name": "tokens",
              "type": "address[2]"
            }
          ],
          "internalType": "struct Pair",
          "name": "",
          "type": "tuple"
        }
      ],
      "stateMutability": "nonpayable",
      "type": "function"
    },
    {
      "inputs": [
        {
          "internalType": "Token",
          "name": "token0",
          "type": "address"
        },
        {
          "internalType": "Token",
          "name": "token1",
          "type": "address"
        },
        {
          "components": [
            {
              "internalType": "uint128",
              "name": "y",
              "type": "uint128"
            },
            {
              "internalType": "uint128",
              "name": "z",
              "type": "uint128"
            },
            {
              "internalType": "uint64",
              "name": "A",
              "type": "uint64"
            },
            {
              "internalType": "uint64",
              "name": "B",
              "type": "uint64"
            }
          ],
          "internalType": "struct Order[2]",
          "name": "orders",
          "type": "tuple[2]"
        }
      ],
      "name": "createStrategy",
      "outputs": [
        {
          "internalType": "uint256",
          "name": "",
          "type": "uint256"
        }
      ],
      "stateMutability": "payable",
      "type": "function"
    },
    {
      "inputs": [
        {
          "internalType": "uint256",
          "name": "strategyId",
          "type": "uint256"
        }
      ],
      "name": "deleteStrategy",
      "outputs": [],
      "stateMutability": "nonpayable",
      "type": "function"
    },
    {
      "inputs": [
        {
          "internalType": "bytes32",
          "name": "role",
          "type": "bytes32"
        }
      ],
      "name": "getRoleAdmin",
      "outputs": [
        {
          "internalType": "bytes32",
          "name": "",
          "type": "bytes32"
        }
      ],
      "stateMutability": "view",
      "type": "function"
    },
    {
      "inputs": [
        {
          "internalType": "bytes32",
          "name": "role",
          "type": "bytes32"
        },
        {
          "internalType": "uint256",
          "name": "index",
          "type": "uint256"
        }
      ],
      "name": "getRoleMember",
      "outputs": [
        {
          "internalType": "address",
          "name": "",
          "type": "address"
        }
      ],
      "stateMutability": "view",
      "type": "function"
    },
    {
      "inputs": [
        {
          "internalType": "bytes32",
          "name": "role",
          "type": "bytes32"
        }
      ],
      "name": "getRoleMemberCount",
      "outputs": [
        {
          "internalType": "uint256",
          "name": "",
          "type": "uint256"
        }
      ],
      "stateMutability": "view",
      "type": "function"
    },
    {
      "inputs": [
        {
          "internalType": "bytes32",
          "name": "role",
          "type": "bytes32"
        },
        {
          "internalType": "address",
          "name": "account",
          "type": "address"
        }
      ],
      "name": "grantRole",
      "outputs": [],
      "stateMutability": "nonpayable",
      "type": "function"
    },
    {
      "inputs": [
        {
          "internalType": "bytes32",
          "name": "role",
          "type": "bytes32"
        },
        {
          "internalType": "address",
          "name": "account",
          "type": "address"
        }
      ],
      "name": "hasRole",
      "outputs": [
        {
          "internalType": "bool",
          "name": "",
          "type": "bool"
        }
      ],
      "stateMutability": "view",
      "type": "function"
    },
    {
      "inputs": [],
      "name": "initialize",
      "outputs": [],
      "stateMutability": "nonpayable",
      "type": "function"
    },
    {
      "inputs": [
        {
          "internalType": "Token",
          "name": "token0",
          "type": "address"
        },
        {
          "internalType": "Token",
          "name": "token1",
          "type": "address"
        }
      ],
      "name": "pair",
      "outputs": [
        {
          "components": [
            {
              "internalType": "uint128",
              "name": "id",
              "type": "uint128"
            },
            {
              "internalType": "Token[2]",
              "name": "tokens",
              "type": "address[2]"
            }
          ],
          "internalType": "struct Pair",
          "name": "",
          "type": "tuple"
        }
      ],
      "stateMutability": "view",
      "type": "function"
    },
    {
      "inputs": [],
      "name": "pairs",
      "outputs": [
        {
          "internalType": "Token[2][]",
          "name": "",
          "type": "address[2][]"
        }
      ],
      "stateMutability": "view",
      "type": "function"
    },
    {
      "inputs": [],
      "name": "pause",
      "outputs": [],
      "stateMutability": "nonpayable",
      "type": "function"
    },
    {
      "inputs": [],
      "name": "paused",
      "outputs": [
        {
          "internalType": "bool",
          "name": "",
          "type": "bool"
        }
      ],
      "stateMutability": "view",
      "type": "function"
    },
    {
      "inputs": [
        {
          "internalType": "bytes",
          "name": "data",
          "type": "bytes"
        }
      ],
      "name": "postUpgrade",
      "outputs": [],
      "stateMutability": "nonpayable",
      "type": "function"
    },
    {
      "inputs": [
        {
          "internalType": "bytes32",
          "name": "role",
          "type": "bytes32"
        },
        {
          "internalType": "address",
          "name": "account",
          "type": "address"
        }
      ],
      "name": "renounceRole",
      "outputs": [],
      "stateMutability": "nonpayable",
      "type": "function"
    },
    {
      "inputs": [
        {
          "internalType": "bytes32",
          "name": "role",
          "type": "bytes32"
        },
        {
          "internalType": "address",
          "name": "account",
          "type": "address"
        }
      ],
      "name": "revokeRole",
      "outputs": [],
      "stateMutability": "nonpayable",
      "type": "function"
    },
    {
      "inputs": [],
      "name": "roleAdmin",
      "outputs": [
        {
          "internalType": "bytes32",
          "name": "",
          "type": "bytes32"
        }
      ],
      "stateMutability": "pure",
      "type": "function"
    },
    {
      "inputs": [],
      "name": "roleEmergencyStopper",
      "outputs": [
        {
          "internalType": "bytes32",
          "name": "",
          "type": "bytes32"
        }
      ],
      "stateMutability": "pure",
      "type": "function"
    },
    {
      "inputs": [],
      "name": "roleFeesManager",
      "outputs": [
        {
          "internalType": "bytes32",
          "name": "",
          "type": "bytes32"
        }
      ],
      "stateMutability": "pure",
      "type": "function"
    },
    {
      "inputs": [
        {
          "internalType": "uint32",
          "name": "newTradingFeePPM",
          "type": "uint32"
        }
      ],
      "name": "setTradingFeePPM",
      "outputs": [],
      "stateMutability": "nonpayable",
      "type": "function"
    },
    {
      "inputs": [
        {
          "internalType": "Token",
          "name": "token0",
          "type": "address"
        },
        {
          "internalType": "Token",
          "name": "token1",
          "type": "address"
        },
        {
          "internalType": "uint256",
          "name": "startIndex",
          "type": "uint256"
        },
        {
          "internalType": "uint256",
          "name": "endIndex",
          "type": "uint256"
        }
      ],
      "name": "strategiesByPair",
      "outputs": [
        {
          "components": [
            {
              "internalType": "uint256",
              "name": "id",
              "type": "uint256"
            },
            {
              "internalType": "address",
              "name": "owner",
              "type": "address"
            },
            {
              "internalType": "Token[2]",
              "name": "tokens",
              "type": "address[2]"
            },
            {
              "components": [
                {
                  "internalType": "uint128",
                  "name": "y",
                  "type": "uint128"
                },
                {
                  "internalType": "uint128",
                  "name": "z",
                  "type": "uint128"
                },
                {
                  "internalType": "uint64",
                  "name": "A",
                  "type": "uint64"
                },
                {
                  "internalType": "uint64",
                  "name": "B",
                  "type": "uint64"
                }
              ],
              "internalType": "struct Order[2]",
              "name": "orders",
              "type": "tuple[2]"
            }
          ],
          "internalType": "struct Strategy[]",
          "name": "",
          "type": "tuple[]"
        }
      ],
      "stateMutability": "view",
      "type": "function"
    },
    {
      "inputs": [
        {
          "internalType": "Token",
          "name": "token0",
          "type": "address"
        },
        {
          "internalType": "Token",
          "name": "token1",
          "type": "address"
        }
      ],
      "name": "strategiesByPairCount",
      "outputs": [
        {
          "internalType": "uint256",
          "name": "",
          "type": "uint256"
        }
      ],
      "stateMutability": "view",
      "type": "function"
    },
    {
      "inputs": [
        {
          "internalType": "uint256",
          "name": "id",
          "type": "uint256"
        }
      ],
      "name": "strategy",
      "outputs": [
        {
          "components": [
            {
              "internalType": "uint256",
              "name": "id",
              "type": "uint256"
            },
            {
              "internalType": "address",
              "name": "owner",
              "type": "address"
            },
            {
              "internalType": "Token[2]",
              "name": "tokens",
              "type": "address[2]"
            },
            {
              "components": [
                {
                  "internalType": "uint128",
                  "name": "y",
                  "type": "uint128"
                },
                {
                  "internalType": "uint128",
                  "name": "z",
                  "type": "uint128"
                },
                {
                  "internalType": "uint64",
                  "name": "A",
                  "type": "uint64"
                },
                {
                  "internalType": "uint64",
                  "name": "B",
                  "type": "uint64"
                }
              ],
              "internalType": "struct Order[2]",
              "name": "orders",
              "type": "tuple[2]"
            }
          ],
          "internalType": "struct Strategy",
          "name": "",
          "type": "tuple"
        }
      ],
      "stateMutability": "view",
      "type": "function"
    },
    {
      "inputs": [
        {
          "internalType": "bytes4",
          "name": "interfaceId",
          "type": "bytes4"
        }
      ],
      "name": "supportsInterface",
      "outputs": [
        {
          "internalType": "bool",
          "name": "",
          "type": "bool"
        }
      ],
      "stateMutability": "view",
      "type": "function"
    },
    {
      "inputs": [
        {
          "internalType": "Token",
          "name": "sourceToken",
          "type": "address"
        },
        {
          "internalType": "Token",
          "name": "targetToken",
          "type": "address"
        },
        {
          "components": [
            {
              "internalType": "uint256",
              "name": "strategyId",
              "type": "uint256"
            },
            {
              "internalType": "uint128",
              "name": "amount",
              "type": "uint128"
            }
          ],
          "internalType": "struct TradeAction[]",
          "name": "tradeActions",
          "type": "tuple[]"
        },
        {
          "internalType": "uint256",
          "name": "deadline",
          "type": "uint256"
        },
        {
          "internalType": "uint128",
          "name": "minReturn",
          "type": "uint128"
        }
      ],
      "name": "tradeBySourceAmount",
      "outputs": [
        {
          "internalType": "uint128",
          "name": "",
          "type": "uint128"
        }
      ],
      "stateMutability": "payable",
      "type": "function"
    },
    {
      "inputs": [
        {
          "internalType": "Token",
          "name": "sourceToken",
          "type": "address"
        },
        {
          "internalType": "Token",
          "name": "targetToken",
          "type": "address"
        },
        {
          "components": [
            {
              "internalType": "uint256",
              "name": "strategyId",
              "type": "uint256"
            },
            {
              "internalType": "uint128",
              "name": "amount",
              "type": "uint128"
            }
          ],
          "internalType": "struct TradeAction[]",
          "name": "tradeActions",
          "type": "tuple[]"
        },
        {
          "internalType": "uint256",
          "name": "deadline",
          "type": "uint256"
        },
        {
          "internalType": "uint128",
          "name": "maxInput",
          "type": "uint128"
        }
      ],
      "name": "tradeByTargetAmount",
      "outputs": [
        {
          "internalType": "uint128",
          "name": "",
          "type": "uint128"
        }
      ],
      "stateMutability": "payable",
      "type": "function"
    },
    {
      "inputs": [],
      "name": "tradingFeePPM",
      "outputs": [
        {
          "internalType": "uint32",
          "name": "",
          "type": "uint32"
        }
      ],
      "stateMutability": "view",
      "type": "function"
    },
    {
      "inputs": [],
      "name": "unpause",
      "outputs": [],
      "stateMutability": "nonpayable",
      "type": "function"
    },
    {
      "inputs": [
        {
          "internalType": "uint256",
          "name": "strategyId",
          "type": "uint256"
        },
        {
          "components": [
            {
              "internalType": "uint128",
              "name": "y",
              "type": "uint128"
            },
            {
              "internalType": "uint128",
              "name": "z",
              "type": "uint128"
            },
            {
              "internalType": "uint64",
              "name": "A",
              "type": "uint64"
            },
            {
              "internalType": "uint64",
              "name": "B",
              "type": "uint64"
            }
          ],
          "internalType": "struct Order[2]",
          "name": "currentOrders",
          "type": "tuple[2]"
        },
        {
          "components": [
            {
              "internalType": "uint128",
              "name": "y",
              "type": "uint128"
            },
            {
              "internalType": "uint128",
              "name": "z",
              "type": "uint128"
            },
            {
              "internalType": "uint64",
              "name": "A",
              "type": "uint64"
            },
            {
              "internalType": "uint64",
              "name": "B",
              "type": "uint64"
            }
          ],
          "internalType": "struct Order[2]",
          "name": "newOrders",
          "type": "tuple[2]"
        }
      ],
      "name": "updateStrategy",
      "outputs": [],
      "stateMutability": "payable",
      "type": "function"
    },
    {
      "inputs": [],
      "name": "version",
      "outputs": [
        {
          "internalType": "uint16",
          "name": "",
          "type": "uint16"
        }
      ],
      "stateMutability": "pure",
      "type": "function"
    },
    {
      "inputs": [
        {
          "internalType": "Token",
          "name": "token",
          "type": "address"
        },
        {
          "internalType": "uint256",
          "name": "amount",
          "type": "uint256"
        },
        {
          "internalType": "address",
          "name": "recipient",
          "type": "address"
        }
      ],
      "name": "withdrawFees",
      "outputs": [
        {
          "internalType": "uint256",
          "name": "",
          "type": "uint256"
        }
      ],
      "stateMutability": "nonpayable",
      "type": "function"
    }
  ],
  "transactionHash": "0xad6e71de3903e8cf29988256536ff69683d5c5cc8e582c16fbe17af50e266ca5",
  "args": [
    "0x3660F04B79751e31128f6378eAC70807e38f554E",
    "0xC537e898CD774e2dCBa3B14Ea6f34C93d5eA45e1"
  ],
  "numDeployments": 2,
  "solcInputHash": "9bdd811a5d3ce6d3824cc7ba53f70bc7",
  "bytecode": "0x60c06040523480156200001157600080fd5b5060405162005cf338038062005cf38339810160408190526200003491620000a0565b6001600160a01b0381166080526200004c826200005f565b506001600160a01b031660a052620000df565b6001600160a01b038116620000875760405163e6c4247b60e01b815260040160405180910390fd5b50565b6001600160a01b03811681146200008757600080fd5b60008060408385031215620000b457600080fd5b8251620000c1816200008a565b6020840151909250620000d4816200008a565b809150509250929050565b60805160a051615bcb620001286000396000818161091d01528181610da701528181610e5101528181610fa501528181611221015261127b0152600061142a0152615bcb6000f3fe60806040526004361061024f5760003560e01c80638cd2403d11610138578063ca15c873116100b0578063f2bda26d1161007f578063f74dad8111610064578063f74dad8114610701578063fcf666641461072e578063ffb0a4a01461074e57600080fd5b8063f2bda26d146106ce578063f727473a146106ee57600080fd5b8063ca15c8731461063c578063d547741f1461065c578063f06f8acd1461067c578063f1c5e014146106bb57600080fd5b80639ba372c211610107578063b76040cd116100ec578063b76040cd146105db578063bc88d7e4146105ef578063c9c653961461061c57600080fd5b80639ba372c2146105a6578063a217fddf146105c657600080fd5b80638cd2403d146104d55780639010d07c146104f557806391d148541461052d57806393867fb51461057357600080fd5b80633f4ba83a116101cb57806369a4dea71161019a5780638456cb591161017f5780638456cb59146104735780638672d5451461048857806387302037146104b557600080fd5b806369a4dea71461043e5780638129fc1c1461045e57600080fd5b80633f4ba83a146103ba57806341f435b3146103cf57806354fd4d50146104025780635c975abb1461042557600080fd5b80632ab2fad1116102225780632f2ff15d116102075780632f2ff15d1461035a578063322cf8441461037a57806336568abe1461039a57600080fd5b80632ab2fad1146103075780632c40de1b1461032757600080fd5b806301ffc9a714610254578063102ee9ba1461028957806321589fa1146102b4578063248a9ca3146102c9575b600080fd5b34801561026057600080fd5b5061027461026f3660046150ae565b610770565b60405190151581526020015b60405180910390f35b61029c61029736600461516d565b6107cc565b6040516001600160801b039091168152602001610280565b6102c76102c2366004615200565b6108d8565b005b3480156102d557600080fd5b506102f96102e4366004615240565b600090815260c9602052604090206001015490565b604051908152602001610280565b34801561031357600080fd5b5061029c610322366004615259565b610a4c565b34801561033357600080fd5b507f24a843cae781765d8cdc3bca1cc42497522c0508f4e621c2ca36ceea2fda7b166102f9565b34801561036657600080fd5b506102c76103753660046152be565b610aa6565b34801561038657600080fd5b506102f96103953660046152ee565b610acb565b3480156103a657600080fd5b506102c76103b53660046152be565b610aee565b3480156103c657600080fd5b506102c7610b7f565b3480156103db57600080fd5b507ff28f409b8cbe6b50c7ca45afe893f01f69626f8a4e33cb480bc1bc2d618c08456102f9565b34801561040e57600080fd5b5060025b60405161ffff9091168152602001610280565b34801561043157600080fd5b506101915460ff16610274565b34801561044a57600080fd5b506102c761045936600461531c565b610bb5565b34801561046a57600080fd5b506102c7610bf2565b34801561047f57600080fd5b506102c7610d11565b34801561049457600080fd5b506104a86104a33660046152ee565b610d44565b604051610280919061536e565b3480156104c157600080fd5b506102c76104d0366004615240565b610d67565b3480156104e157600080fd5b506102c76104f0366004615392565b610e82565b34801561050157600080fd5b50610515610510366004615404565b610eef565b6040516001600160a01b039091168152602001610280565b34801561053957600080fd5b506102746105483660046152be565b600091825260c9602090815260408084206001600160a01b0393909316845291905290205460ff1690565b34801561057f57600080fd5b507f2172861495e7b85edac73e3cd5fbb42dd675baadf627720e687bcfdaca0250966102f9565b3480156105b257600080fd5b506102f96105c1366004615426565b610f07565b3480156105d257600080fd5b506102f9600081565b3480156105e757600080fd5b506001610412565b3480156105fb57600080fd5b5061060f61060a366004615240565b610f86565b604051610280919061550a565b34801561062857600080fd5b506104a86106373660046152ee565b610fca565b34801561064857600080fd5b506102f9610657366004615240565b61100b565b34801561066857600080fd5b506102c76106773660046152be565b611022565b34801561068857600080fd5b50606554700100000000000000000000000000000000900463ffffffff1660405163ffffffff9091168152602001610280565b61029c6106c936600461516d565b611047565b3480156106da57600080fd5b5061029c6106e9366004615259565b6110ef565b6102f96106fc366004615519565b611145565b34801561070d57600080fd5b5061072161071c366004615559565b611259565b604051610280919061559f565b34801561073a57600080fd5b506102f96107493660046155ee565b61129f565b34801561075a57600080fd5b506107636112c8565b604051610280919061560b565b60007fffffffff0000000000000000000000000000000000000000000000000000000082167f5a05180f0000000000000000000000000000000000000000000000000000000014806107c657506107c6826112d7565b92915050565b60006107d661136e565b6107de6113c9565b6107e661141f565b6107f38787853486611481565b610805876001600160a01b031661151b565b1561084d57816001600160801b031634101561084d576040517f7038b89900000000000000000000000000000000000000000000000000000000815260040160405180910390fd5b60006108598888611542565b6040805160c081018252338152815180830183526001600160a01b038c811682528b166020828101919091528201526001918101919091526001600160801b038516606082015234608082015260a0810182905290915060006108bd8888846115e6565b5193505050506108ce600161015f55565b9695505050505050565b6108e061136e565b6108e86113c9565b6108f061141f565b60006109046108ff8560801c90565b611b6c565b6040516331a9108f60e11b8152600481018690529091507f00000000000000000000000000000000000000000000000000000000000000006001600160a01b031690636352211e90602401602060405180830381865afa15801561096c573d6000803e3d6000fd5b505050506040513d601f19601f820116820180604052508101906109909190615658565b6001600160a01b0316336001600160a01b0316146109c157604051634ca8886760e01b815260040160405180910390fd5b6000341180156109ed575060208101516109eb9060005b60200201516001600160a01b031661151b565b155b8015610a0657506020810151610a049060016109d8565b155b15610a2457604051631334bf4f60e11b815260040160405180910390fd5b610a2d82611c44565b610a3b848484843334611dc3565b50610a47600161015f55565b505050565b6000610a58858561220a565b6000610a648686611542565b604080518082019091526001600160a01b038089168252871660208201529091506000610a948287878685612269565b6020015193505050505b949350505050565b600082815260c96020526040902060010154610ac18161242a565b610a478383612434565b6000610ad7838361220a565b6000610ae38484611542565b9050610a9e81612456565b6001600160a01b0381163314610b715760405162461bcd60e51b815260206004820152602f60248201527f416363657373436f6e74726f6c3a2063616e206f6e6c792072656e6f756e636560448201527f20726f6c657320666f722073656c66000000000000000000000000000000000060648201526084015b60405180910390fd5b610b7b8282612478565b5050565b7ff28f409b8cbe6b50c7ca45afe893f01f69626f8a4e33cb480bc1bc2d618c0845610baa813361249a565b610bb26124dd565b50565b610bdf7f2172861495e7b85edac73e3cd5fbb42dd675baadf627720e687bcfdaca0250963361249a565b80610be981612530565b610b7b82612573565b600054610100900460ff1615808015610c125750600054600160ff909116105b80610c2c5750303b158015610c2c575060005460ff166001145b610c9e5760405162461bcd60e51b815260206004820152602e60248201527f496e697469616c697a61626c653a20636f6e747261637420697320616c72656160448201527f647920696e697469616c697a65640000000000000000000000000000000000006064820152608401610b68565b6000805460ff191660011790558015610cc1576000805461ff0019166101001790555b610cc9612629565b8015610bb2576000805461ff0019169055604051600181527f7f26b83ff96e1f2b6a682f133852f6798a09c465da95921460cefb38474024989060200160405180910390a150565b7ff28f409b8cbe6b50c7ca45afe893f01f69626f8a4e33cb480bc1bc2d618c0845610d3c813361249a565b610bb26126c4565b610d4c614f29565b610d56838361220a565b610d608383611542565b9392505050565b610d6f61136e565b610d776113c9565b610d7f61141f565b6000610d8e6108ff8360801c90565b6040516331a9108f60e11b8152600481018490529091507f00000000000000000000000000000000000000000000000000000000000000006001600160a01b031690636352211e90602401602060405180830381865afa158015610df6573d6000803e3d6000fd5b505050506040513d601f19601f82011682018060405250810190610e1a9190615658565b6001600160a01b0316336001600160a01b031614610e4b57604051634ca8886760e01b815260040160405180910390fd5b610e76827f000000000000000000000000000000000000000000000000000000000000000083612702565b50610bb2600161015f55565b61012d54600090610e989061ffff1660016156a1565b905061ffff8116600214610ed8576040517f0dc149f000000000000000000000000000000000000000000000000000000000815260040160405180910390fd5b61012d805461ffff191661ffff8316179055505050565b600082815260fb60205260408120610d6090836128c1565b6000610f116113c9565b7f24a843cae781765d8cdc3bca1cc42497522c0508f4e621c2ca36ceea2fda7b16610f3c813361249a565b82610f46816128cd565b85610f50816128cd565b85610f5a8161290d565b610f6261136e565b610f6e33888a89612947565b9450610f7b600161015f55565b505050509392505050565b610f8e614f51565b6000610f9d6108ff8460801c90565b9050610d60837f0000000000000000000000000000000000000000000000000000000000000000836129fb565b610fd2614f29565b610fda61136e565b610fe26113c9565b610fea61141f565b610ff4838361220a565b610ffe8383612afc565b90506107c6600161015f55565b600081815260fb602052604081206107c690612c5e565b600082815260c9602052604090206001015461103d8161242a565b610a478383612478565b600061105161136e565b6110596113c9565b61106161141f565b61106e8787853486611481565b600061107a8888611542565b6040805160c081018252338152815180830183526001600160a01b038c811682528b1660208281019190915282015260009181018290526001600160801b038616606082015234608082015260a081018390529192506110db8888846115e6565b6020015193505050506108ce600161015f55565b60006110fb858561220a565b60006111078686611542565b604080518082019091526001600160a01b038089168252871660208201529091506000611138828787866001612269565b5198975050505050505050565b600061114f61136e565b6111576113c9565b61115f61141f565b611169848461220a565b6000341180156111885750611186846001600160a01b031661151b565b155b80156111a357506111a1836001600160a01b031661151b565b155b156111c157604051631334bf4f60e11b815260040160405180910390fd5b6111ca82611c44565b6111d2614f29565b6111dc8585612c68565b6111f1576111ea8585612afc565b90506111fe565b6111fb8585611542565b90505b604080518082019091526001600160a01b0380871682528516602082015261124a7f00000000000000000000000000000000000000000000000000000000000000008286853334612ccb565b92505050610d60600161015f55565b6060611265858561220a565b60006112718686611542565b90506108ce8185857f0000000000000000000000000000000000000000000000000000000000000000612ef6565b6000816112ab816128cd565b50506001600160a01b031660009081526068602052604090205490565b60606112d261303b565b905090565b60007fffffffff0000000000000000000000000000000000000000000000000000000082167f7965db0b0000000000000000000000000000000000000000000000000000000014806107c657507f01ffc9a7000000000000000000000000000000000000000000000000000000007fffffffff000000000000000000000000000000000000000000000000000000008316146107c6565b600261015f54036113c15760405162461bcd60e51b815260206004820152601f60248201527f5265656e7472616e637947756172643a207265656e7472616e742063616c6c006044820152606401610b68565b600261015f55565b6101915460ff161561141d5760405162461bcd60e51b815260206004820152601060248201527f5061757361626c653a20706175736564000000000000000000000000000000006044820152606401610b68565b565b306001600160a01b037f0000000000000000000000000000000000000000000000000000000000000000161461141d576040517fd0c8bfe500000000000000000000000000000000000000000000000000000000815260040160405180910390fd5b428310156114bb576040517f1ab7da6b00000000000000000000000000000000000000000000000000000000815260040160405180910390fd5b6114cd816001600160801b031661290d565b6114d7858561220a565b6000821180156114f657506114f4856001600160a01b031661151b565b155b1561151457604051631334bf4f60e11b815260040160405180910390fd5b5050505050565b60006001600160a01b03821673eeeeeeeeeeeeeeeeeeeeeeeeeeeeeeeeeeeeeeee146107c6565b61154a614f29565b6115548383612c68565b61158a576040517fc5fc4bf400000000000000000000000000000000000000000000000000000000815260040160405180910390fd5b6000611596848461315a565b80516001600160a01b039081166000908152603460209081526040808320828601519094168352928152908290205482518084019093526001600160801b03168252810191909152949350505050565b604080518082019091526000808252602082015260006116398360200151602001518460a001516020015160006002811061162357611623615675565b60200201516001600160a01b0390811691161490565b905060005b8481101561194957600086868381811061165a5761165a615675565b60409081029290920135600081815260666020528381208451606081019586905292955093909250839060039082845b81548152602001906001019080831161168a57505050505090506000806116b0836131c0565b915091506116f08960a0015160000151868d8d8a8181106116d3576116d3615675565b90506040020160200160208101906116eb91906156bc565b6132ee565b6000808215158915151461170a5783516020850151611712565b602084015184515b915091506000611750838f8f8c81811061172e5761172e615675565b905060400201602001602081019061174691906156bc565b8e60400151613385565b905080602001516001600160801b031683600001516001600160801b031610156117a6576040517fbb55fd2700000000000000000000000000000000000000000000000000000000815260040160405180910390fd5b60208101518351036001600160801b031683528051825183906117ca9083906156d7565b6001600160801b03908116909152835160208501519082169116101590506117fd5781516001600160801b031660208301525b60006118098686613467565b905060005b600381101561187e5781816003811061182957611829615675565b602002015188826003811061184057611840615675565b6020020151146118765781816003811061185c5761185c615675565b602002015189826003811061187357611873615675565b01555b60010161180e565b50600061188f8e60a001518761357a565b60208181015182518a51928b01516040519495506001600160a01b039283169492909116928e927f720da23a5c920b1d8827ec83c4d3c4d90d9419eadb0036b88cb4c2ffa91aef7d926118e592916001906156f7565b60405180910390a482518d518e906118fe9083906156d7565b6001600160801b0316905250602080840151908e0180516119209083906156d7565b6001600160801b031690525061194299508a9850613574975050505050505050565b905061163e565b506000808460400151156119d657600061196685600001516135fd565b85519091506119759082615795565b6020870151516001600160801b0380841680895260608a01519396509194509190911610156119d0576040517f0699263d00000000000000000000000000000000000000000000000000000000815260040160405180910390fd5b50611a5a565b60006119e5856020015161364a565b90508085602001516119f79190615795565b6020808801518101516001600160801b0380851692890183905260608a0151939650909450919091161115611a58576040517ff602de8f00000000000000000000000000000000000000000000000000000000815260040160405180910390fd5b505b602085015151855185516080880151611a7e9392916001600160801b03169061368c565b611aa2856020015160200151866000015186602001516001600160801b0316613722565b6001600160a01b038116600090815260686020526040812080546001600160801b0385169290611ad39084906157b5565b909155505060208581015180820151905187518751888501516040808c015181516001600160801b03948516815292841697830197909752918816818301529415156060860152516001600160a01b039384169492841693909116917f95f3b01351225fea0e69a46f68b164c9dea10284f12cd4a907ce66510ab7af6a919081900360800190a45050509392505050565b600161015f55565b611b74614f29565b6001600160801b0382166000908152603560205260408082208151808301928390529160029082845b81546001600160a01b03168152600190910190602001808311611b9d575050505050905060006001600160a01b031681600060028110611bdf57611bdf615675565b60200201516001600160a01b031603611c24576040517fc5fc4bf400000000000000000000000000000000000000000000000000000000815260040160405180910390fd5b604080518082019091526001600160801b03909316835260208301525090565b60005b6002811015610b7b57818160028110611c6257611c62615675565b608002016000016020810190611c7891906156bc565b6001600160801b0316828260028110611c9357611c93615675565b608002016020016020810190611ca991906156bc565b6001600160801b03161015611cea576040517f5cef583a00000000000000000000000000000000000000000000000000000000815260040160405180910390fd5b611d24828260028110611cff57611cff615675565b608002016040016020810190611d1591906157e0565b67ffffffffffffffff1661376d565b611d5a576040517f6a43f8d100000000000000000000000000000000000000000000000000000000815260040160405180910390fd5b611d85828260028110611d6f57611d6f615675565b608002016060016020810190611d1591906157e0565b611dbb576040517f6a43f8d100000000000000000000000000000000000000000000000000000000815260040160405180910390fd5b600101611c47565b60008681526066602052604080822081516060810192839052909291839060039082845b815481526020019060010190808311611de75750505050509050600080611e0d836131c0565b604080518082019091529193509150611e5d908a60026000835b82821015611e5357611e4460808302850136819003810190615811565b81526020019060010190611e27565b5050505083613792565b611e93576040517f811cb74a00000000000000000000000000000000000000000000000000000000815260040160405180910390fd5b60408051808201909152600090611ee0908a600284835b82821015611ed657611ec760808302850136819003810190615811565b81526020019060010190611eaa565b5050505083613467565b905060005b6003811015611f5557818160038110611f0057611f00615675565b6020020151858260038110611f1757611f17615675565b602002015114611f4d57818160038110611f3357611f33615675565b6020020151868260038110611f4a57611f4a615675565b01555b600101611ee5565b506000611f62898461357a565b905060005b60028110156121a2576000828260028110611f8457611f84615675565b60200201519050858260028110611f9d57611f9d615675565b6020020151516001600160801b03168c8360028110611fbe57611fbe615675565b608002016000016020810190611fd491906156bc565b6001600160801b0316101561204b5760008c8360028110611ff757611ff7615675565b60800201600001602081019061200d91906156bc565b87846002811061201f5761201f615675565b60200201515161202f9190615795565b9050612045828c836001600160801b0316613722565b50612108565b85826002811061205d5761205d615675565b6020020151516001600160801b03168c836002811061207e5761207e615675565b60800201600001602081019061209491906156bc565b6001600160801b031611156121085760008683600281106120b7576120b7615675565b6020020151518d84600281106120cf576120cf615675565b6080020160000160208101906120e591906156bc565b6120ef9190615795565b9050612106828c836001600160801b03168d61368c565b505b6000891180156121255750612125816001600160a01b031661151b565b8015612181575085826002811061213e5761213e615675565b6020020151516001600160801b03168c836002811061215f5761215f615675565b60800201600001602081019061217591906156bc565b6001600160801b031611155b15612199576121996001600160a01b038b168a6138f1565b50600101611f67565b50602081015181516040516001600160a01b0392831692909116908e907f720da23a5c920b1d8827ec83c4d3c4d90d9419eadb0036b88cb4c2ffa91aef7d906121f4908f9060808201906000906158fb565b60405180910390a4505050505050505050505050565b81612214816128cd565b8161221e816128cd565b6001600160a01b0380851690841603612263576040517fbd969eb000000000000000000000000000000000000000000000000000000000815260040160405180910390fd5b50505050565b6040805180820190915260008082526020820152600061229e8760200151856020015160006002811061162357611623615675565b905060005b858110156123e25760008787838181106122bf576122bf615675565b60409081029290920135600081815260666020528381208451606081019586905292955090939192509060039082845b8154815260200190600101908083116122ef5750505050509050600080612315836131c0565b915091506123348960000151858d8d898181106116d3576116d3615675565b60008115158715151461234857825161234e565b60208301515b90506000612386828e8e8a81811061236857612368615675565b905060400201602001602081019061238091906156bc565b8c613385565b80518a51919250908a9061239b9083906156d7565b6001600160801b0316905250602080820151908a0180516123bd9083906156d7565b6001600160801b03169052506123db95508694506135749350505050565b90506122a3565b5082156124045781516123f4906135fd565b6001600160801b03168252612420565b612411826020015161364a565b6001600160801b031660208301525b5095945050505050565b610bb28133613a0a565b61243e8282613a7f565b600082815260fb60205260409020610a479082613b21565b80516001600160801b03166000908152606760205260408120610d6081612c5e565b6124828282613b36565b600082815260fb60205260409020610a479082613bb9565b600082815260c9602090815260408083206001600160a01b038516845290915290205460ff16610b7b57604051634ca8886760e01b815260040160405180910390fd5b6124e5613bce565b610191805460ff191690557f5db9ee0a495bf2e6ff9c91a7834c1ba4fdd244a5e8aa4e537bd38aeae4b073aa335b6040516001600160a01b03909116815260200160405180910390a1565b620f424063ffffffff82161115610bb2576040517f58d620b300000000000000000000000000000000000000000000000000000000815260040160405180910390fd5b60655463ffffffff7001000000000000000000000000000000009091048116908216810361259f575050565b606580547fffffffffffffffffffffffff00000000ffffffffffffffffffffffffffffffff1670010000000000000000000000000000000063ffffffff8581169182029290921790925560408051918416825260208201929092527f66db0986e1156e2e747795714bf0301c7e1c695c149a738cb01bcf5cfead8465910160405180910390a15050565b600054610100900460ff166126945760405162461bcd60e51b815260206004820152602b60248201527f496e697469616c697a61626c653a20636f6e7472616374206973206e6f74206960448201526a6e697469616c697a696e6760a81b6064820152608401610b68565b61269c613c21565b6126a4613c94565b6126ac613d07565b6126b4613d82565b6126bc613df5565b61141d613e68565b6126cc6113c9565b610191805460ff191660011790557f62e78cea01bee320cd4e420270b5ea74000d11b0c9f74754ebdbfc544b05a2586125133390565b600061270f8484846129fb565b80516040517f42966c680000000000000000000000000000000000000000000000000000000081529192506001600160a01b038516916342966c689161275b9160040190815260200190565b600060405180830381600087803b15801561277557600080fd5b505af1158015612789573d6000803e3d6000fd5b5050825160009081526066602052604081208181556001810182905560020155506127b19050565b805182516001600160801b031660009081526067602052604090206127d591613f67565b506040810151516020820151606083015161280392919060005b6020020151516001600160801b0316613722565b604081015160209081015190820151606083015161282492919060016127ef565b604081015160208101516001600160a01b031690600060200201516001600160a01b031682602001516001600160a01b03167f4d5b6e0627ea711d8e9312b6ba56f50e0b51d41816fd6fd38643495ac81d38b68460000151856060015160006002811061289357612893615675565b60200201516060870151600160200201516040516128b393929190615917565b60405180910390a450505050565b6000610d608383613f73565b6001600160a01b038116610bb2576040517fe6c4247b00000000000000000000000000000000000000000000000000000000815260040160405180910390fd5b80600003610bb2576040517f7c946ed700000000000000000000000000000000000000000000000000000000815260040160405180910390fd5b6001600160a01b038216600090815260686020526040812054808203612971576000915050610a9e565b8085111561297d578094505b61298785826159ae565b6001600160a01b0385166000908152606860205260409020556129ab848487613722565b6040516001600160a01b0387811682528691818616918716907f2f4e8fcae66f01952d258445c03f43cf56d3ce389e017ecd2afa8a79e77175889060200160405180910390a45092949350505050565b612a03614f51565b6040516331a9108f60e11b8152600481018590526000906001600160a01b03851690636352211e90602401602060405180830381865afa158015612a4b573d6000803e3d6000fd5b505050506040513d601f19601f82011682018060405250810190612a6f9190615658565b600086815260666020526040808220815160608101928390529394509192919060039082845b815481526020019060010190808311612a955750505050509050600080612abb836131c0565b915091506000612acb878361357a565b604080516080810182528b81526001600160a01b039097166020880152860152505060608301525090509392505050565b612b04614f29565b612b0e8383612c68565b15612b45576040517fc9bb25eb00000000000000000000000000000000000000000000000000000000815260040160405180910390fd5b6000612b51848461315a565b603354909150600090612b6e906001600160801b031660016156d7565b603380546fffffffffffffffffffffffffffffffff19166001600160801b0383169081179091556000908152603560205260409020909150612bb290836002614f7d565b5081516001600160a01b039081166000908152603460209081526040808320828701805186168552925280832080546fffffffffffffffffffffffffffffffff19166001600160801b0387169081179091559151865191519085169491909116927f6365c594f5448f79c1cc1e6f661bdbf1d16f2e8f85747e13f8e80f1fd168b7c391a46040518060400160405280826001600160801b03168152602001838152509250505092915050565b60006107c6825490565b600080612c75848461315a565b80516001600160a01b039081166000908152603460209081526040808320828601519094168352929052908120549192506001600160801b039091169003612cc15760009150506107c6565b5060019392505050565b8451600090612cfd908487845b608002016000016020810190612cee91906156bc565b6001600160801b03168561368c565b6020860151612d0f9084876001612cd8565b606554600090612d29906001600160801b031660016156d7565b606580546001600160801b0383166fffffffffffffffffffffffffffffffff199182168117909255875192935060009260801b161786516001600160801b03166000908152606760205260409020909150612d849082613f9d565b5087516020870151600091612d9a916001611623565b60408051808201909152909150612de8908960026000835b82821015612dde57612dcf60808302850136819003810190615811565b81526020019060010190612db2565b5050505082613467565b6000838152606660205260409020612e01916003614fe9565b506040517f40c10f190000000000000000000000000000000000000000000000000000000081526001600160a01b038781166004830152602482018490528b16906340c10f1990604401600060405180830381600087803b158015612e6557600080fd5b505af1158015612e79573d6000803e3d6000fd5b5050505088600160028110612e9057612e90615675565b602002015189516040516001600160a01b0392831692918216918916907fff24554f8ccfe540435cfc8854831f8dcf1cf2068708cfaf46e8b52a4ccc4c8d90612ee19087908e9060808201906159c1565b60405180910390a45098975050505050505050565b83516001600160801b03166000908152606760205260408120606091612f1b82612c5e565b9050841580612f2957508085115b15612f32578094505b84861115612f6c576040517f2cd4dad300000000000000000000000000000000000000000000000000000000815260040160405180910390fd5b6000612f7887876159ae565b905060008167ffffffffffffffff811115612f9557612f956157fb565b604051908082528060200260200182016040528015612fce57816020015b612fbb614f51565b815260200190600190039081612fb35790505b50905060005b8281101561302e576000612ff2612feb838c6157b5565b87906128c1565b9050612fff81898d6129fb565b83838151811061301157613011615675565b6020026020010181905250506130278160010190565b9050612fd4565b5098975050505050505050565b6033546060906001600160801b031660008167ffffffffffffffff811115613065576130656157fb565b60405190808252806020026020018201604052801561309e57816020015b61308b615017565b8152602001906001900390816130835790505b50905060005b826001600160801b0316816001600160801b0316101561315357603560006130cd8360016156d7565b6001600160801b03168152602081019190915260409081016000208151808301928390529160029082845b81546001600160a01b031681526001909101906020018083116130f857505050505082826001600160801b03168151811061313557613135615675565b6020026020010181905250808061314b906159e3565b9150506130a4565b5092915050565b613162615017565b816001600160a01b0316836001600160a01b03161061319e57604080518082019091526001600160a01b03808416825284166020820152610d60565b50604080518082019091526001600160a01b0392831681529116602082015290565b6131c8615035565b81516000901580156131dc57506020830151155b80156131ea57506040830151155b15613221576040517f5737b5dd00000000000000000000000000000000000000000000000000000000815260040160405180910390fd5b6040805160c0808201835285516001600160801b0390811683850190815260208089018051841660608701528051608090811c67ffffffffffffffff1681880152905190941c60a0860152908452845180840186528851841c815288860151909216828201529293928401929091908201908760026020020151901c67ffffffffffffffff16815260200160c16001886002600381106132c3576132c3615675565b6020020151901b901c67ffffffffffffffff1690529052604084015190925060ff1c15159050915091565b826001600160801b03166133028360801c90565b6001600160801b031614613342576040517fb7b067f900000000000000000000000000000000000000000000000000000000815260040160405180910390fd5b806001600160801b0316600003610a47576040517feb1a139600000000000000000000000000000000000000000000000000000000815260040160405180910390fd5b6040805180820190915260008082526020820152600084600001516001600160801b03169050600085602001516001600160801b0316905060006133d6876040015167ffffffffffffffff16613fa9565b905060006133f1886060015167ffffffffffffffff16613fa9565b9050851561343057613417613412886001600160801b031686868686613fd5565b6140c6565b6001600160801b03908116865287166020860152610f7b565b6001600160801b03871680865261344e906134129086868686614149565b6001600160801b03166020860152505050509392505050565b61346f61507b565b604080516060808201835260208681015151875151608091821b6fffffffffffffffffffffffffffffffff19166001600160801b03918216178552885193840151848701519484015160c09190911b7fffffffffffffffff000000000000000000000000000000000000000000000000169490921b77ffffffffffffffff0000000000000000000000000000000016911617919091179082015290810160ff61351785614222565b901b60c086600160200201516060015167ffffffffffffffff16901b608087600160200201516040015167ffffffffffffffff16901b60008860016020020151602001516001600160801b0316901b171717815250905092915050565b60010190565b613582615017565b81613591578260200151610d60565b604051806040016040528084602001516001600281106135b3576135b3615675565b60200201516001600160a01b03166001600160a01b0316815260200184602001516000600281106135e6576135e6615675565b60200201516001600160a01b031690529392505050565b6065546000906107c690613412906001600160801b03851690620f42409061363f90700100000000000000000000000000000000900463ffffffff1682615a09565b63ffffffff1661423c565b60006107c6613412836001600160801b0316606560109054906101000a900463ffffffff16620f424061367d9190615a09565b63ffffffff16620f42406142a4565b61369e846001600160a01b031661151b565b1561370757818110156136dd576040517f677606af00000000000000000000000000000000000000000000000000000000815260040160405180910390fd5b81811115613702576137026136f283836159ae565b6001600160a01b038516906138f1565b612263565b8115612263576122636001600160a01b038516843085614397565b8060000361372f57505050565b613741836001600160a01b031661151b565b1561375957610a476001600160a01b038316826138f1565b610a476001600160a01b03841683836143c1565b600080613781660100000000000084615a3c565b6601000000000000901c1192915050565b6000805b6002811015612cc1578281600281106137b1576137b1615675565b6020020151516001600160801b03168482600281106137d2576137d2615675565b6020020151516001600160801b031614158061383457508281600281106137fb576137fb615675565b6020020151602001516001600160801b031684826002811061381f5761381f615675565b6020020151602001516001600160801b031614155b80613887575082816002811061384c5761384c615675565b60200201516040015167ffffffffffffffff1684826002811061387157613871615675565b60200201516040015167ffffffffffffffff1614155b806138da575082816002811061389f5761389f615675565b60200201516060015167ffffffffffffffff168482600281106138c4576138c4615675565b60200201516060015167ffffffffffffffff1614155b156138e95760009150506107c6565b600101613796565b804710156139415760405162461bcd60e51b815260206004820152601d60248201527f416464726573733a20696e73756666696369656e742062616c616e63650000006044820152606401610b68565b6000826001600160a01b03168260405160006040518083038185875af1925050503d806000811461398e576040519150601f19603f3d011682016040523d82523d6000602084013e613993565b606091505b5050905080610a475760405162461bcd60e51b815260206004820152603a60248201527f416464726573733a20756e61626c6520746f2073656e642076616c75652c207260448201527f6563697069656e74206d617920686176652072657665727465640000000000006064820152608401610b68565b600082815260c9602090815260408083206001600160a01b038516845290915290205460ff16610b7b57613a3d81614426565b613a48836020614438565b604051602001613a59929190615a74565b60408051601f198184030181529082905262461bcd60e51b8252610b6891600401615af5565b600082815260c9602090815260408083206001600160a01b038516845290915290205460ff16610b7b57600082815260c9602090815260408083206001600160a01b03851684529091529020805460ff19166001179055613add3390565b6001600160a01b0316816001600160a01b0316837f2f8788117e7eff1d82e926ec794901d17c78024a50270940304540a733656f0d60405160405180910390a45050565b6000610d60836001600160a01b038416614661565b600082815260c9602090815260408083206001600160a01b038516845290915290205460ff1615610b7b57600082815260c9602090815260408083206001600160a01b0385168085529252808320805460ff1916905551339285917ff6391f5c32d9c69d2a47ea670b442974b53935d1edc7fd64eb21e047a839171b9190a45050565b6000610d60836001600160a01b0384166146b0565b6101915460ff1661141d5760405162461bcd60e51b815260206004820152601460248201527f5061757361626c653a206e6f74207061757365640000000000000000000000006044820152606401610b68565b600054610100900460ff16613c8c5760405162461bcd60e51b815260206004820152602b60248201527f496e697469616c697a61626c653a20636f6e7472616374206973206e6f74206960448201526a6e697469616c697a696e6760a81b6064820152608401610b68565b61141d6147a3565b600054610100900460ff16613cff5760405162461bcd60e51b815260206004820152602b60248201527f496e697469616c697a61626c653a20636f6e7472616374206973206e6f74206960448201526a6e697469616c697a696e6760a81b6064820152608401610b68565b61141d61480e565b600054610100900460ff16613d725760405162461bcd60e51b815260206004820152602b60248201527f496e697469616c697a61626c653a20636f6e7472616374206973206e6f74206960448201526a6e697469616c697a696e6760a81b6064820152608401610b68565b613d7a6147a3565b61141d614884565b600054610100900460ff16613ded5760405162461bcd60e51b815260206004820152602b60248201527f496e697469616c697a61626c653a20636f6e7472616374206973206e6f74206960448201526a6e697469616c697a696e6760a81b6064820152608401610b68565b61141d614952565b600054610100900460ff16613e605760405162461bcd60e51b815260206004820152602b60248201527f496e697469616c697a61626c653a20636f6e7472616374206973206e6f74206960448201526a6e697469616c697a696e6760a81b6064820152608401610b68565b61141d6149bd565b600054610100900460ff16613ed35760405162461bcd60e51b815260206004820152602b60248201527f496e697469616c697a61626c653a20636f6e7472616374206973206e6f74206960448201526a6e697469616c697a696e6760a81b6064820152608401610b68565b613f1d7ff28f409b8cbe6b50c7ca45afe893f01f69626f8a4e33cb480bc1bc2d618c08457f2172861495e7b85edac73e3cd5fbb42dd675baadf627720e687bcfdaca025096614a35565b61141d7f24a843cae781765d8cdc3bca1cc42497522c0508f4e621c2ca36ceea2fda7b167f2172861495e7b85edac73e3cd5fbb42dd675baadf627720e687bcfdaca025096614a35565b6000610d6083836146b0565b6000826000018281548110613f8a57613f8a615675565b9060005260206000200154905092915050565b6000610d608383614661565b6000613fbc660100000000000083615a3c565b613fcd660100000000000084615b28565b901b92915050565b60008260000361400a5761400386613ff4660100000000000080615b3c565b613ffe8580615b3c565b61423c565b90506140bd565b600061401d660100000000000086615b3c565b9050600061402b8487615b3c565b6140358689615b3c565b61403f91906157b5565b9050600061404d868a615b3c565b61405790836159ae565b90506000614068848560001961423c565b90506000614079848460001961423c565b905060006140878383614a80565b9050600061409687888461423c565b905060006140a58787856142a4565b90506140b28e838361423c565b985050505050505050505b95945050505050565b60006001600160801b038211156141455760405162461bcd60e51b815260206004820152602760248201527f53616665436173743a2076616c756520646f65736e27742066697420696e203160448201527f32382062697473000000000000000000000000000000000000000000000000006064820152608401610b68565b5090565b60008260000361417757614003866141618480615b3c565b614172660100000000000080615b3c565b6142a4565b600061418a660100000000000086615b3c565b905060006141988487615b3c565b6141a28689615b3c565b6141ac91906157b5565b905060006141ba8983615b3c565b905060006141cb848560001961423c565b905060006141dc838960001961423c565b905060006141ea8383614a80565b905060006141f987888461423c565b90506000614208868c8561423c565b90506140b2876142188589615a3c565b61417284866157b5565b600081614230576000614233565b60015b60ff1692915050565b60008061424a8585856142a4565b90506000614259868686614a96565b1115610a9e57600019811061429a576040517f35278d1200000000000000000000000000000000000000000000000000000000815260040160405180910390fd5b6001019050610d60565b6000806142b18585614ab1565b80519091506000036142d957828160200151816142d0576142d0615a26565b04915050610d60565b80518311614313576040517f35278d1200000000000000000000000000000000000000000000000000000000815260040160405180910390fd5b6000614320868686614a96565b9050600061432e8383614b2b565b8051909150600003614358578481602001518161434d5761434d615a26565b049350505050610d60565b600085810386169061436a8383614ba3565b9050600061438683898161438057614380615a26565b04614bed565b919091029998505050505050505050565b8015806143a857506143a88461151b565b612263576122636001600160a01b038516848484614c0e565b806000036143ce57505050565b6143d78361151b565b15614412576040516001600160a01b0383169082156108fc029083906000818181858888f19350505050158015612263573d6000803e3d6000fd5b610a476001600160a01b0384168383614cbf565b60606107c66001600160a01b03831660145b60606000614447836002615b3c565b6144529060026157b5565b67ffffffffffffffff81111561446a5761446a6157fb565b6040519080825280601f01601f191660200182016040528015614494576020820181803683370190505b5090507f3000000000000000000000000000000000000000000000000000000000000000816000815181106144cb576144cb615675565b60200101907effffffffffffffffffffffffffffffffffffffffffffffffffffffffffffff1916908160001a9053507f78000000000000000000000000000000000000000000000000000000000000008160018151811061452e5761452e615675565b60200101907effffffffffffffffffffffffffffffffffffffffffffffffffffffffffffff1916908160001a905350600061456a846002615b3c565b6145759060016157b5565b90505b6001811115614612577f303132333435363738396162636465660000000000000000000000000000000085600f16601081106145b6576145b6615675565b1a60f81b8282815181106145cc576145cc615675565b60200101907effffffffffffffffffffffffffffffffffffffffffffffffffffffffffffff1916908160001a90535060049490941c9361460b81615b53565b9050614578565b508315610d605760405162461bcd60e51b815260206004820181905260248201527f537472696e67733a20686578206c656e67746820696e73756666696369656e746044820152606401610b68565b60008181526001830160205260408120546146a8575081546001818101845560008481526020808220909301849055845484825282860190935260409020919091556107c6565b5060006107c6565b600081815260018301602052604081205480156147995760006146d46001836159ae565b85549091506000906146e8906001906159ae565b905081811461474d57600086600001828154811061470857614708615675565b906000526020600020015490508087600001848154811061472b5761472b615675565b6000918252602080832090910192909255918252600188019052604090208390555b855486908061475e5761475e615b6a565b6001900381819060005260206000200160009055905585600101600086815260200190815260200160002060009055600193505050506107c6565b60009150506107c6565b600054610100900460ff1661141d5760405162461bcd60e51b815260206004820152602b60248201527f496e697469616c697a61626c653a20636f6e7472616374206973206e6f74206960448201526a6e697469616c697a696e6760a81b6064820152608401610b68565b600054610100900460ff166148795760405162461bcd60e51b815260206004820152602b60248201527f496e697469616c697a61626c653a20636f6e7472616374206973206e6f74206960448201526a6e697469616c697a696e6760a81b6064820152608401610b68565b61141d6107d0612573565b600054610100900460ff166148ef5760405162461bcd60e51b815260206004820152602b60248201527f496e697469616c697a61626c653a20636f6e7472616374206973206e6f74206960448201526a6e697469616c697a696e6760a81b6064820152608401610b68565b61012d805461ffff191660011790556149287f2172861495e7b85edac73e3cd5fbb42dd675baadf627720e687bcfdaca02509680614a35565b61141d7f2172861495e7b85edac73e3cd5fbb42dd675baadf627720e687bcfdaca02509633614d08565b600054610100900460ff16611b645760405162461bcd60e51b815260206004820152602b60248201527f496e697469616c697a61626c653a20636f6e7472616374206973206e6f74206960448201526a6e697469616c697a696e6760a81b6064820152608401610b68565b600054610100900460ff16614a285760405162461bcd60e51b815260206004820152602b60248201527f496e697469616c697a61626c653a20636f6e7472616374206973206e6f74206960448201526a6e697469616c697a696e6760a81b6064820152608401610b68565b610191805460ff19169055565b600082815260c96020526040808220600101805490849055905190918391839186917fbd79b86ffe0ab8e8776151514217cd7cacd52c909f66475c3af44e129f0b00ff9190a4505050565b6000818311614a8f5781610d60565b5090919050565b60008180614aa657614aa6615a26565b838509949350505050565b60408051808201909152600080825260208201526000614ad18484614d12565b9050838302808210614af95760408051808201909152918190038252602082015290506107c6565b60405180604001604052806001614b108585900390565b614b1a91906159ae565b815260200191909152949350505050565b604080518082019091526000808252602082015281836020015110614b6b57506040805180820190915282518152602080840151839003908201526107c6565b604051806040016040528060018560000151614b8791906159ae565b8152602001614b9a856020015185900390565b90529392505050565b600080614bc18380830381614bba57614bba615a26565b0460010190565b905082846020015181614bd657614bd6615a26565b04614be48560000151830290565b17949350505050565b60006001815b60088110156131535783820260020382029150600101614bf3565b6040516001600160a01b03808516602483015283166044820152606481018290526122639085907f23b872dd00000000000000000000000000000000000000000000000000000000906084015b60408051601f198184030181529190526020810180517bffffffffffffffffffffffffffffffffffffffffffffffffffffffff167fffffffff0000000000000000000000000000000000000000000000000000000090931692909217909152614d21565b6040516001600160a01b038316602482015260448101829052610a479084907fa9059cbb0000000000000000000000000000000000000000000000000000000090606401614c5b565b610b7b8282612434565b60006000198284099392505050565b6000614d76826040518060400160405280602081526020017f5361666545524332303a206c6f772d6c6576656c2063616c6c206661696c6564815250856001600160a01b0316614e069092919063ffffffff16565b805190915015610a475780806020019051810190614d949190615b80565b610a475760405162461bcd60e51b815260206004820152602a60248201527f5361666545524332303a204552433230206f7065726174696f6e20646964206e60448201527f6f742073756363656564000000000000000000000000000000000000000000006064820152608401610b68565b6060610a9e848460008585600080866001600160a01b03168587604051614e2d9190615ba2565b60006040518083038185875af1925050503d8060008114614e6a576040519150601f19603f3d011682016040523d82523d6000602084013e614e6f565b606091505b5091509150614e8087838387614e8b565b979650505050505050565b60608315614efa578251600003614ef3576001600160a01b0385163b614ef35760405162461bcd60e51b815260206004820152601d60248201527f416464726573733a2063616c6c20746f206e6f6e2d636f6e74726163740000006044820152606401610b68565b5081610a9e565b610a9e8383815115614f0f5781518083602001fd5b8060405162461bcd60e51b8152600401610b689190615af5565b604051806040016040528060006001600160801b03168152602001614f4c615017565b905290565b6040805160808101825260008082526020820152908101614f70615017565b8152602001614f4c615035565b8260028101928215614fdd579160200282015b82811115614fdd57825182547fffffffffffffffffffffffff0000000000000000000000000000000000000000166001600160a01b03909116178255602090920191600190910190614f90565b50614145929150615099565b8260038101928215614fdd579160200282015b82811115614fdd578251825591602001919060010190614ffc565b60405180604001604052806002906020820280368337509192915050565b60405180604001604052806002905b6040805160808101825260008082526020808301829052928201819052606082015282526000199092019101816150445790505090565b60405180606001604052806003906020820280368337509192915050565b5b80821115614145576000815560010161509a565b6000602082840312156150c057600080fd5b81357fffffffff0000000000000000000000000000000000000000000000000000000081168114610d6057600080fd5b6001600160a01b0381168114610bb257600080fd5b60008083601f84011261511757600080fd5b50813567ffffffffffffffff81111561512f57600080fd5b6020830191508360208260061b850101111561514a57600080fd5b9250929050565b80356001600160801b038116811461516857600080fd5b919050565b60008060008060008060a0878903121561518657600080fd5b8635615191816150f0565b955060208701356151a1816150f0565b9450604087013567ffffffffffffffff8111156151bd57600080fd5b6151c989828a01615105565b909550935050606087013591506151e260808801615151565b90509295509295509295565b8061010081018310156107c657600080fd5b6000806000610220848603121561521657600080fd5b8335925061522785602086016151ee565b91506152378561012086016151ee565b90509250925092565b60006020828403121561525257600080fd5b5035919050565b6000806000806060858703121561526f57600080fd5b843561527a816150f0565b9350602085013561528a816150f0565b9250604085013567ffffffffffffffff8111156152a657600080fd5b6152b287828801615105565b95989497509550505050565b600080604083850312156152d157600080fd5b8235915060208301356152e3816150f0565b809150509250929050565b6000806040838503121561530157600080fd5b823561530c816150f0565b915060208301356152e3816150f0565b60006020828403121561532e57600080fd5b813563ffffffff81168114610d6057600080fd5b8060005b60028110156122635781516001600160a01b0316845260209384019390910190600101615346565b81516001600160801b03168152602080830151606083019161315390840182615342565b600080602083850312156153a557600080fd5b823567ffffffffffffffff808211156153bd57600080fd5b818501915085601f8301126153d157600080fd5b8135818111156153e057600080fd5b8660208285010111156153f257600080fd5b60209290920196919550909350505050565b6000806040838503121561541757600080fd5b50508035926020909101359150565b60008060006060848603121561543b57600080fd5b8335615446816150f0565b925060208401359150604084013561545d816150f0565b809150509250925092565b8051825260206001600160a01b0381830151168184015260408201516154916040850182615342565b506060820151608080850160005b6002811015615501576154f18285516001600160801b0380825116835280602083015116602084015250604081015167ffffffffffffffff808216604085015280606084015116606085015250505050565b928401929082019060010161549f565b50505050505050565b61018081016107c68284615468565b6000806000610140848603121561552f57600080fd5b833561553a816150f0565b9250602084013561554a816150f0565b915061523785604086016151ee565b6000806000806080858703121561556f57600080fd5b843561557a816150f0565b9350602085013561558a816150f0565b93969395505050506040820135916060013590565b6020808252825182820181905260009190848201906040850190845b818110156155e2576155ce838551615468565b9284019261018092909201916001016155bb565b50909695505050505050565b60006020828403121561560057600080fd5b8135610d60816150f0565b602080825282518282018190526000919060409081850190868401855b8281101561564b5761563b848351615342565b9284019290850190600101615628565b5091979650505050505050565b60006020828403121561566a57600080fd5b8151610d60816150f0565b634e487b7160e01b600052603260045260246000fd5b634e487b7160e01b600052601160045260246000fd5b61ffff8181168382160190808211156131535761315361568b565b6000602082840312156156ce57600080fd5b610d6082615151565b6001600160801b038181168382160190808211156131535761315361568b565b610120810161574482866001600160801b0380825116835280602083015116602084015250604081015167ffffffffffffffff808216604085015280606084015116606085015250505050565b83516001600160801b03908116608084015260208501511660a0830152604084015167ffffffffffffffff90811660c084015260608501511660e08301525b60ff8316610100830152949350505050565b6001600160801b038281168282160390808211156131535761315361568b565b808201808211156107c6576107c661568b565b803567ffffffffffffffff8116811461516857600080fd5b6000602082840312156157f257600080fd5b610d60826157c8565b634e487b7160e01b600052604160045260246000fd5b60006080828403121561582357600080fd5b6040516080810181811067ffffffffffffffff8211171561585457634e487b7160e01b600052604160045260246000fd5b60405261586083615151565b815261586e60208401615151565b602082015261587f604084016157c8565b6040820152615890606084016157c8565b60608201529392505050565b6001600160801b03806158ae83615151565b168352806158be60208401615151565b166020840152506158d1604082016157c8565b67ffffffffffffffff8082166040850152806158ef606085016157c8565b16606085015250505050565b610120810161590a828661589c565b615783608083018561589c565b838152610120810161596a60208301856001600160801b0380825116835280602083015116602084015250604081015167ffffffffffffffff808216604085015280606084015116606085015250505050565b82516001600160801b0390811660a084015260208401511660c0830152604083015167ffffffffffffffff90811660e0840152606084015116610100830152610a9e565b818103818111156107c6576107c661568b565b83815261012081016159d6602083018561589c565b610a9e60a083018461589c565b60006001600160801b038083168181036159ff576159ff61568b565b6001019392505050565b63ffffffff8281168282160390808211156131535761315361568b565b634e487b7160e01b600052601260045260246000fd5b600082615a4b57615a4b615a26565b500490565b60005b83811015615a6b578181015183820152602001615a53565b50506000910152565b7f416363657373436f6e74726f6c3a206163636f756e7420000000000000000000815260008351615aac816017850160208801615a50565b7f206973206d697373696e6720726f6c65200000000000000000000000000000006017918401918201528351615ae9816028840160208801615a50565b01602801949350505050565b6020815260008251806020840152615b14816040850160208701615a50565b601f01601f19169190910160400192915050565b600082615b3757615b37615a26565b500690565b80820281158282048414176107c6576107c661568b565b600081615b6257615b6261568b565b506000190190565b634e487b7160e01b600052603160045260246000fd5b600060208284031215615b9257600080fd5b81518015158114610d6057600080fd5b60008251615bb4818460208701615a50565b919091019291505056fea164736f6c6343000813000a",
  "devdoc": {
    "details": "Carbon Controller contract",
    "events": {
      "FeesWithdrawn(address,address,uint256,address)": {
        "details": "triggered when fees are withdrawn"
      },
      "Initialized(uint8)": {
        "details": "Triggered when the contract has been initialized or reinitialized."
      },
      "PairCreated(uint128,address,address)": {
        "details": "triggered when a new pair is created"
      },
      "Paused(address)": {
        "details": "Emitted when the pause is triggered by `account`."
      },
      "RoleAdminChanged(bytes32,bytes32,bytes32)": {
        "details": "Emitted when `newAdminRole` is set as ``role``'s admin role, replacing `previousAdminRole` `DEFAULT_ADMIN_ROLE` is the starting admin for all roles, despite {RoleAdminChanged} not being emitted signaling this. _Available since v3.1._"
      },
      "RoleGranted(bytes32,address,address)": {
        "details": "Emitted when `account` is granted `role`. `sender` is the account that originated the contract call, an admin role bearer except when using {AccessControl-_setupRole}."
      },
      "RoleRevoked(bytes32,address,address)": {
        "details": "Emitted when `account` is revoked `role`. `sender` is the account that originated the contract call:   - if using `revokeRole`, it is the admin role bearer   - if using `renounceRole`, it is the role bearer (i.e. `account`)"
      },
      "StrategyCreated(uint256,address,address,address,(uint128,uint128,uint64,uint64),(uint128,uint128,uint64,uint64))": {
        "details": "triggered when a strategy is created"
      },
      "StrategyDeleted(uint256,address,address,address,(uint128,uint128,uint64,uint64),(uint128,uint128,uint64,uint64))": {
        "details": "triggered when a strategy is deleted"
      },
      "StrategyUpdated(uint256,address,address,(uint128,uint128,uint64,uint64),(uint128,uint128,uint64,uint64),uint8)": {
        "details": "triggered when a strategy is updated"
      },
      "TokensTraded(address,address,address,uint256,uint256,uint128,bool)": {
        "details": "triggered when tokens are traded"
      },
      "TradingFeePPMUpdated(uint32,uint32)": {
        "details": "triggered when the network fee is updated"
      },
      "Unpaused(address)": {
        "details": "Emitted when the pause is lifted by `account`."
      }
    },
    "kind": "dev",
    "methods": {
      "accumulatedFees(address)": {
        "details": "returns the amount of fees accumulated for the specified token"
      },
      "calculateTradeSourceAmount(address,address,(uint256,uint128)[])": {
        "details": "returns the source amount required when trading by target amount"
      },
      "calculateTradeTargetAmount(address,address,(uint256,uint128)[])": {
        "details": "returns the target amount expected when trading by source amount"
      },
      "constructor": {
        "details": "a \"virtual\" constructor that is only used to set immutable state variables"
      },
      "controllerType()": {
        "details": "returns the type of the controller"
      },
      "createPair(address,address)": {
        "details": "creates a new pair of provided token0 and token1"
      },
      "createStrategy(address,address,(uint128,uint128,uint64,uint64)[2])": {
        "details": "creates a new strategy, returns the strategy's id requirements: - the caller must have approved the tokens with assigned liquidity in the order, if any"
      },
      "deleteStrategy(uint256)": {
        "details": "deletes a strategy matching the provided id notes: - 100% of liquidity is withdrawn and sent to the owner requirements: - the caller must be the owner of the NFT voucher"
      },
      "getRoleAdmin(bytes32)": {
        "details": "Returns the admin role that controls `role`. See {grantRole} and {revokeRole}. To change a role's admin, use {_setRoleAdmin}."
      },
      "getRoleMember(bytes32,uint256)": {
        "details": "Returns one of the accounts that have `role`. `index` must be a value between 0 and {getRoleMemberCount}, non-inclusive. Role bearers are not sorted in any particular way, and their ordering may change at any point. WARNING: When using {getRoleMember} and {getRoleMemberCount}, make sure you perform all queries on the same block. See the following https://forum.openzeppelin.com/t/iterating-over-elements-on-enumerableset-in-openzeppelin-contracts/2296[forum post] for more information."
      },
      "getRoleMemberCount(bytes32)": {
        "details": "Returns the number of accounts that have `role`. Can be used together with {getRoleMember} to enumerate all bearers of a role."
      },
      "grantRole(bytes32,address)": {
        "details": "Grants `role` to `account`. If `account` had not been already granted `role`, emits a {RoleGranted} event. Requirements: - the caller must have ``role``'s admin role. May emit a {RoleGranted} event."
      },
      "hasRole(bytes32,address)": {
        "details": "Returns `true` if `account` has been granted `role`."
      },
      "initialize()": {
        "details": "fully initializes the contract and its parents"
      },
      "pair(address,address)": {
        "details": "returns a pair's metadata matching the provided token0 and token1"
      },
      "pairs()": {
        "details": "returns a list of all supported pairs"
      },
      "pause()": {
        "details": "pauses the CarbonController requirements: - the caller must have the ROLE_EMERGENCY_STOPPER privilege"
      },
      "paused()": {
        "details": "Returns true if the contract is paused, and false otherwise."
      },
      "postUpgrade(bytes)": {
        "details": "performs post-upgrade initialization requirements: - this must and can be called only once per-upgrade"
      },
      "renounceRole(bytes32,address)": {
        "details": "Revokes `role` from the calling account. Roles are often managed via {grantRole} and {revokeRole}: this function's purpose is to provide a mechanism for accounts to lose their privileges if they are compromised (such as when a trusted device is misplaced). If the calling account had been revoked `role`, emits a {RoleRevoked} event. Requirements: - the caller must be `account`. May emit a {RoleRevoked} event."
      },
      "revokeRole(bytes32,address)": {
        "details": "Revokes `role` from `account`. If `account` had been granted `role`, emits a {RoleRevoked} event. Requirements: - the caller must have ``role``'s admin role. May emit a {RoleRevoked} event."
      },
      "roleAdmin()": {
        "details": "returns the admin role"
      },
      "roleEmergencyStopper()": {
        "details": "returns the emergency stopper role"
      },
      "roleFeesManager()": {
        "details": "returns the fees manager role"
      },
      "setTradingFeePPM(uint32)": {
        "details": "sets the trading fee (in units of PPM) requirements: - the caller must be the admin of the contract"
      },
      "strategiesByPair(address,address,uint256,uint256)": {
        "details": "returns strategies belonging to a specific pair note that for the full list of strategies pass 0 to both startIndex and endIndex"
      },
      "strategiesByPairCount(address,address)": {
        "details": "returns the count of strategies belonging to a specific pair"
      },
      "strategy(uint256)": {
        "details": "returns a strategy matching the provided id, note tokens and orders are returned sorted as provided upon creation"
      },
      "supportsInterface(bytes4)": {
        "details": "See {IERC165-supportsInterface}."
      },
      "tradeBySourceAmount(address,address,(uint256,uint128)[],uint256,uint128)": {
        "details": "performs a trade by specifying a fixed source amount notes: - excess native token is returned to the sender if any requirements: - the caller must have approved the source token"
      },
      "tradeByTargetAmount(address,address,(uint256,uint128)[],uint256,uint128)": {
        "details": "performs a trade by specifying a fixed target amount notes: - excess native token is returned to the sender if any requirements: - the caller must have approved the source token"
      },
      "tradingFeePPM()": {
        "details": "returns the trading fee (in units of PPM)"
      },
      "unpause()": {
        "details": "resumes the CarbonController requirements: - the caller must have the ROLE_EMERGENCY_STOPPER privilege"
      },
      "updateStrategy(uint256,(uint128,uint128,uint64,uint64)[2],(uint128,uint128,uint64,uint64)[2])": {
        "details": "updates an existing strategy notes: - currentOrders should reflect the orders values at the time of sending the tx this prevents cases in which the strategy was updated due to a trade between the time the transaction was sent and the time it was mined, thus, giving more control to the strategy owner. - reduced liquidity is refunded to the owner - increased liquidity is deposited - excess native token is returned to the sender if any - the sorting of orders is expected to equal the sorting upon creation requirements: - the caller must have approved the tokens with increased liquidity, if any"
      },
      "withdrawFees(address,uint256,address)": {
        "details": "transfers the accumulated fees to the specified recipient notes: `amount` is capped to the available amount returns the amount withdrawn"
      }
    },
    "version": 1
  },
  "userdoc": {
    "kind": "user",
    "methods": {},
    "version": 1
  },
  "storageLayout": {
    "storage": [
      {
        "astId": 588,
        "contract": "contracts/carbon/CarbonController.sol:CarbonController",
        "label": "_initialized",
        "offset": 0,
        "slot": "0",
        "type": "t_uint8"
      },
      {
        "astId": 591,
        "contract": "contracts/carbon/CarbonController.sol:CarbonController",
        "label": "_initializing",
        "offset": 1,
        "slot": "0",
        "type": "t_bool"
      },
      {
        "astId": 2388,
        "contract": "contracts/carbon/CarbonController.sol:CarbonController",
        "label": "__gap",
        "offset": 0,
        "slot": "1",
        "type": "t_array(t_uint256)50_storage"
      },
      {
        "astId": 11345,
        "contract": "contracts/carbon/CarbonController.sol:CarbonController",
        "label": "_lastPairId",
        "offset": 0,
        "slot": "51",
        "type": "t_uint128"
      },
      {
        "astId": 11353,
        "contract": "contracts/carbon/CarbonController.sol:CarbonController",
        "label": "_pairIds",
        "offset": 0,
        "slot": "52",
        "type": "t_mapping(t_userDefinedValueType(Token)16186,t_mapping(t_userDefinedValueType(Token)16186,t_uint128))"
      },
      {
        "astId": 11360,
        "contract": "contracts/carbon/CarbonController.sol:CarbonController",
        "label": "_pairsStorage",
        "offset": 0,
        "slot": "53",
        "type": "t_mapping(t_uint128,t_array(t_userDefinedValueType(Token)16186)2_storage)"
      },
      {
        "astId": 11366,
        "contract": "contracts/carbon/CarbonController.sol:CarbonController",
        "label": "__gap",
        "offset": 0,
        "slot": "54",
        "type": "t_array(t_uint256)47_storage"
      },
      {
        "astId": 11826,
        "contract": "contracts/carbon/CarbonController.sol:CarbonController",
        "label": "_strategyCounter",
        "offset": 0,
        "slot": "101",
        "type": "t_uint128"
      },
      {
        "astId": 11828,
        "contract": "contracts/carbon/CarbonController.sol:CarbonController",
        "label": "_tradingFeePPM",
        "offset": 16,
        "slot": "101",
        "type": "t_uint32"
      },
      {
        "astId": 11834,
        "contract": "contracts/carbon/CarbonController.sol:CarbonController",
        "label": "_packedOrdersByStrategyId",
        "offset": 0,
        "slot": "102",
        "type": "t_mapping(t_uint256,t_array(t_uint256)3_storage)"
      },
      {
        "astId": 11839,
        "contract": "contracts/carbon/CarbonController.sol:CarbonController",
        "label": "_strategyIdsByPairIdStorage",
        "offset": 0,
        "slot": "103",
        "type": "t_mapping(t_uint128,t_struct(UintSet)5509_storage)"
      },
      {
        "astId": 11844,
        "contract": "contracts/carbon/CarbonController.sol:CarbonController",
        "label": "_accumulatedFees",
        "offset": 0,
        "slot": "104",
        "type": "t_mapping(t_userDefinedValueType(Token)16186,t_uint256)"
      },
      {
        "astId": 11850,
        "contract": "contracts/carbon/CarbonController.sol:CarbonController",
        "label": "__gap",
        "offset": 0,
        "slot": "105",
        "type": "t_array(t_uint256)46_storage"
      },
      {
        "astId": 2607,
        "contract": "contracts/carbon/CarbonController.sol:CarbonController",
        "label": "__gap",
        "offset": 0,
        "slot": "151",
        "type": "t_array(t_uint256)50_storage"
      },
      {
        "astId": 184,
        "contract": "contracts/carbon/CarbonController.sol:CarbonController",
        "label": "_roles",
        "offset": 0,
        "slot": "201",
        "type": "t_mapping(t_bytes32,t_struct(RoleData)179_storage)"
      },
      {
        "astId": 479,
        "contract": "contracts/carbon/CarbonController.sol:CarbonController",
        "label": "__gap",
        "offset": 0,
        "slot": "202",
        "type": "t_array(t_uint256)49_storage"
      },
      {
        "astId": 33,
        "contract": "contracts/carbon/CarbonController.sol:CarbonController",
        "label": "_roleMembers",
        "offset": 0,
        "slot": "251",
        "type": "t_mapping(t_bytes32,t_struct(AddressSet)5352_storage)"
      },
      {
        "astId": 143,
        "contract": "contracts/carbon/CarbonController.sol:CarbonController",
        "label": "__gap",
        "offset": 0,
        "slot": "252",
        "type": "t_array(t_uint256)49_storage"
      },
      {
        "astId": 17045,
        "contract": "contracts/carbon/CarbonController.sol:CarbonController",
        "label": "_initializations",
        "offset": 0,
        "slot": "301",
        "type": "t_uint16"
      },
      {
        "astId": 17051,
        "contract": "contracts/carbon/CarbonController.sol:CarbonController",
        "label": "__gap",
        "offset": 0,
        "slot": "302",
        "type": "t_array(t_uint256)49_storage"
      },
      {
        "astId": 891,
        "contract": "contracts/carbon/CarbonController.sol:CarbonController",
        "label": "_status",
        "offset": 0,
        "slot": "351",
        "type": "t_uint256"
      },
      {
        "astId": 949,
        "contract": "contracts/carbon/CarbonController.sol:CarbonController",
        "label": "__gap",
        "offset": 0,
        "slot": "352",
        "type": "t_array(t_uint256)49_storage"
      },
      {
        "astId": 771,
        "contract": "contracts/carbon/CarbonController.sol:CarbonController",
        "label": "_paused",
        "offset": 0,
        "slot": "401",
        "type": "t_bool"
      },
      {
        "astId": 876,
        "contract": "contracts/carbon/CarbonController.sol:CarbonController",
        "label": "__gap",
        "offset": 0,
        "slot": "402",
        "type": "t_array(t_uint256)49_storage"
      },
      {
        "astId": 10365,
        "contract": "contracts/carbon/CarbonController.sol:CarbonController",
        "label": "__gap",
        "offset": 0,
        "slot": "451",
        "type": "t_array(t_uint256)50_storage"
      }
    ],
    "types": {
      "t_address": {
        "encoding": "inplace",
        "label": "address",
        "numberOfBytes": "20"
      },
      "t_array(t_bytes32)dyn_storage": {
        "base": "t_bytes32",
        "encoding": "dynamic_array",
        "label": "bytes32[]",
        "numberOfBytes": "32"
      },
      "t_array(t_uint256)3_storage": {
        "base": "t_uint256",
        "encoding": "inplace",
        "label": "uint256[3]",
        "numberOfBytes": "96"
      },
      "t_array(t_uint256)46_storage": {
        "base": "t_uint256",
        "encoding": "inplace",
        "label": "uint256[46]",
        "numberOfBytes": "1472"
      },
      "t_array(t_uint256)47_storage": {
        "base": "t_uint256",
        "encoding": "inplace",
        "label": "uint256[47]",
        "numberOfBytes": "1504"
      },
      "t_array(t_uint256)49_storage": {
        "base": "t_uint256",
        "encoding": "inplace",
        "label": "uint256[49]",
        "numberOfBytes": "1568"
      },
      "t_array(t_uint256)50_storage": {
        "base": "t_uint256",
        "encoding": "inplace",
        "label": "uint256[50]",
        "numberOfBytes": "1600"
      },
      "t_array(t_userDefinedValueType(Token)16186)2_storage": {
        "base": "t_userDefinedValueType(Token)16186",
        "encoding": "inplace",
        "label": "Token[2]",
        "numberOfBytes": "64"
      },
      "t_bool": {
        "encoding": "inplace",
        "label": "bool",
        "numberOfBytes": "1"
      },
      "t_bytes32": {
        "encoding": "inplace",
        "label": "bytes32",
        "numberOfBytes": "32"
      },
      "t_mapping(t_address,t_bool)": {
        "encoding": "mapping",
        "key": "t_address",
        "label": "mapping(address => bool)",
        "numberOfBytes": "32",
        "value": "t_bool"
      },
      "t_mapping(t_bytes32,t_struct(AddressSet)5352_storage)": {
        "encoding": "mapping",
        "key": "t_bytes32",
        "label": "mapping(bytes32 => struct EnumerableSetUpgradeable.AddressSet)",
        "numberOfBytes": "32",
        "value": "t_struct(AddressSet)5352_storage"
      },
      "t_mapping(t_bytes32,t_struct(RoleData)179_storage)": {
        "encoding": "mapping",
        "key": "t_bytes32",
        "label": "mapping(bytes32 => struct AccessControlUpgradeable.RoleData)",
        "numberOfBytes": "32",
        "value": "t_struct(RoleData)179_storage"
      },
      "t_mapping(t_bytes32,t_uint256)": {
        "encoding": "mapping",
        "key": "t_bytes32",
        "label": "mapping(bytes32 => uint256)",
        "numberOfBytes": "32",
        "value": "t_uint256"
      },
      "t_mapping(t_uint128,t_array(t_userDefinedValueType(Token)16186)2_storage)": {
        "encoding": "mapping",
        "key": "t_uint128",
        "label": "mapping(uint128 => Token[2])",
        "numberOfBytes": "32",
        "value": "t_array(t_userDefinedValueType(Token)16186)2_storage"
      },
      "t_mapping(t_uint128,t_struct(UintSet)5509_storage)": {
        "encoding": "mapping",
        "key": "t_uint128",
        "label": "mapping(uint128 => struct EnumerableSetUpgradeable.UintSet)",
        "numberOfBytes": "32",
        "value": "t_struct(UintSet)5509_storage"
      },
      "t_mapping(t_uint256,t_array(t_uint256)3_storage)": {
        "encoding": "mapping",
        "key": "t_uint256",
        "label": "mapping(uint256 => uint256[3])",
        "numberOfBytes": "32",
        "value": "t_array(t_uint256)3_storage"
      },
      "t_mapping(t_userDefinedValueType(Token)16186,t_mapping(t_userDefinedValueType(Token)16186,t_uint128))": {
        "encoding": "mapping",
        "key": "t_userDefinedValueType(Token)16186",
        "label": "mapping(Token => mapping(Token => uint128))",
        "numberOfBytes": "32",
        "value": "t_mapping(t_userDefinedValueType(Token)16186,t_uint128)"
      },
      "t_mapping(t_userDefinedValueType(Token)16186,t_uint128)": {
        "encoding": "mapping",
        "key": "t_userDefinedValueType(Token)16186",
        "label": "mapping(Token => uint128)",
        "numberOfBytes": "32",
        "value": "t_uint128"
      },
      "t_mapping(t_userDefinedValueType(Token)16186,t_uint256)": {
        "encoding": "mapping",
        "key": "t_userDefinedValueType(Token)16186",
        "label": "mapping(Token => uint256)",
        "numberOfBytes": "32",
        "value": "t_uint256"
      },
      "t_struct(AddressSet)5352_storage": {
        "encoding": "inplace",
        "label": "struct EnumerableSetUpgradeable.AddressSet",
        "members": [
          {
            "astId": 5351,
            "contract": "contracts/carbon/CarbonController.sol:CarbonController",
            "label": "_inner",
            "offset": 0,
            "slot": "0",
            "type": "t_struct(Set)5037_storage"
          }
        ],
        "numberOfBytes": "64"
      },
      "t_struct(RoleData)179_storage": {
        "encoding": "inplace",
        "label": "struct AccessControlUpgradeable.RoleData",
        "members": [
          {
            "astId": 176,
            "contract": "contracts/carbon/CarbonController.sol:CarbonController",
            "label": "members",
            "offset": 0,
            "slot": "0",
            "type": "t_mapping(t_address,t_bool)"
          },
          {
            "astId": 178,
            "contract": "contracts/carbon/CarbonController.sol:CarbonController",
            "label": "adminRole",
            "offset": 0,
            "slot": "1",
            "type": "t_bytes32"
          }
        ],
        "numberOfBytes": "64"
      },
      "t_struct(Set)5037_storage": {
        "encoding": "inplace",
        "label": "struct EnumerableSetUpgradeable.Set",
        "members": [
          {
            "astId": 5032,
            "contract": "contracts/carbon/CarbonController.sol:CarbonController",
            "label": "_values",
            "offset": 0,
            "slot": "0",
            "type": "t_array(t_bytes32)dyn_storage"
          },
          {
            "astId": 5036,
            "contract": "contracts/carbon/CarbonController.sol:CarbonController",
            "label": "_indexes",
            "offset": 0,
            "slot": "1",
            "type": "t_mapping(t_bytes32,t_uint256)"
          }
        ],
        "numberOfBytes": "64"
      },
      "t_struct(UintSet)5509_storage": {
        "encoding": "inplace",
        "label": "struct EnumerableSetUpgradeable.UintSet",
        "members": [
          {
            "astId": 5508,
            "contract": "contracts/carbon/CarbonController.sol:CarbonController",
            "label": "_inner",
            "offset": 0,
            "slot": "0",
            "type": "t_struct(Set)5037_storage"
          }
        ],
        "numberOfBytes": "64"
      },
      "t_uint128": {
        "encoding": "inplace",
        "label": "uint128",
        "numberOfBytes": "16"
      },
      "t_uint16": {
        "encoding": "inplace",
        "label": "uint16",
        "numberOfBytes": "2"
      },
      "t_uint256": {
        "encoding": "inplace",
        "label": "uint256",
        "numberOfBytes": "32"
      },
      "t_uint32": {
        "encoding": "inplace",
        "label": "uint32",
        "numberOfBytes": "4"
      },
      "t_uint8": {
        "encoding": "inplace",
        "label": "uint8",
        "numberOfBytes": "1"
      },
      "t_userDefinedValueType(Token)16186": {
        "encoding": "inplace",
        "label": "Token",
        "numberOfBytes": "20"
      }
    }
  }
}