{
  "address": "0x72717080Da2E9e057dC29D25eeeB5d4873F0FB9E",
  "abi": [
    {
      "inputs": [
        {
          "internalType": "Token",
          "name": "bnt",
          "type": "address"
        },
        {
          "internalType": "contract ICarbonController",
          "name": "carbonController",
          "type": "address"
        },
        {
          "internalType": "contract IBancorNetwork",
          "name": "bancorNetwork",
          "type": "address"
        }
      ],
      "stateMutability": "nonpayable",
      "type": "constructor"
    },
    {
      "inputs": [],
      "name": "AccessDenied",
      "type": "error"
    },
    {
      "inputs": [],
      "name": "AlreadyInitialized",
      "type": "error"
    },
    {
      "inputs": [],
      "name": "DuplicateToken",
      "type": "error"
    },
    {
      "inputs": [],
      "name": "InvalidAddress",
      "type": "error"
    },
    {
      "inputs": [],
      "name": "InvalidFee",
      "type": "error"
    },
    {
      "inputs": [],
      "name": "InvalidToken",
      "type": "error"
    },
    {
      "inputs": [],
      "name": "InvalidTokenLength",
      "type": "error"
    },
    {
      "inputs": [],
      "name": "Overflow",
      "type": "error"
    },
    {
      "anonymous": false,
      "inputs": [
        {
          "indexed": false,
          "internalType": "uint8",
          "name": "version",
          "type": "uint8"
        }
      ],
      "name": "Initialized",
      "type": "event"
    },
    {
      "anonymous": false,
      "inputs": [
        {
          "indexed": false,
          "internalType": "uint256",
          "name": "prevRewardsPPM",
          "type": "uint256"
        },
        {
          "indexed": false,
          "internalType": "uint256",
          "name": "newRewardsPPM",
          "type": "uint256"
        }
      ],
      "name": "RewardsUpdated",
      "type": "event"
    },
    {
      "anonymous": false,
      "inputs": [
        {
          "indexed": true,
          "internalType": "bytes32",
          "name": "role",
          "type": "bytes32"
        },
        {
          "indexed": true,
          "internalType": "bytes32",
          "name": "previousAdminRole",
          "type": "bytes32"
        },
        {
          "indexed": true,
          "internalType": "bytes32",
          "name": "newAdminRole",
          "type": "bytes32"
        }
      ],
      "name": "RoleAdminChanged",
      "type": "event"
    },
    {
      "anonymous": false,
      "inputs": [
        {
          "indexed": true,
          "internalType": "bytes32",
          "name": "role",
          "type": "bytes32"
        },
        {
          "indexed": true,
          "internalType": "address",
          "name": "account",
          "type": "address"
        },
        {
          "indexed": true,
          "internalType": "address",
          "name": "sender",
          "type": "address"
        }
      ],
      "name": "RoleGranted",
      "type": "event"
    },
    {
      "anonymous": false,
      "inputs": [
        {
          "indexed": true,
          "internalType": "bytes32",
          "name": "role",
          "type": "bytes32"
        },
        {
          "indexed": true,
          "internalType": "address",
          "name": "account",
          "type": "address"
        },
        {
          "indexed": true,
          "internalType": "address",
          "name": "sender",
          "type": "address"
        }
      ],
      "name": "RoleRevoked",
      "type": "event"
    },
    {
      "anonymous": false,
      "inputs": [
        {
          "indexed": true,
          "internalType": "address",
          "name": "caller",
          "type": "address"
        },
        {
          "indexed": false,
          "internalType": "Token[]",
          "name": "tokens",
          "type": "address[]"
        },
        {
          "indexed": false,
          "internalType": "uint256[]",
          "name": "rewardAmounts",
          "type": "uint256[]"
        },
        {
          "indexed": false,
          "internalType": "uint256",
          "name": "burnAmount",
          "type": "uint256"
        }
      ],
      "name": "TokensBurned",
      "type": "event"
    },
    {
      "inputs": [],
      "name": "DEFAULT_ADMIN_ROLE",
      "outputs": [
        {
          "internalType": "bytes32",
          "name": "",
          "type": "bytes32"
        }
      ],
      "stateMutability": "view",
      "type": "function"
    },
    {
      "inputs": [
        {
          "internalType": "Token",
          "name": "token",
          "type": "address"
        }
      ],
      "name": "availableTokens",
      "outputs": [
        {
          "internalType": "uint256",
          "name": "",
          "type": "uint256"
        }
      ],
      "stateMutability": "view",
      "type": "function"
    },
    {
      "inputs": [
        {
          "internalType": "Token[]",
          "name": "tokens",
          "type": "address[]"
        }
      ],
      "name": "execute",
      "outputs": [],
      "stateMutability": "nonpayable",
      "type": "function"
    },
    {
      "inputs": [
        {
          "internalType": "bytes32",
          "name": "role",
          "type": "bytes32"
        }
      ],
      "name": "getRoleAdmin",
      "outputs": [
        {
          "internalType": "bytes32",
          "name": "",
          "type": "bytes32"
        }
      ],
      "stateMutability": "view",
      "type": "function"
    },
    {
      "inputs": [
        {
          "internalType": "bytes32",
          "name": "role",
          "type": "bytes32"
        },
        {
          "internalType": "uint256",
          "name": "index",
          "type": "uint256"
        }
      ],
      "name": "getRoleMember",
      "outputs": [
        {
          "internalType": "address",
          "name": "",
          "type": "address"
        }
      ],
      "stateMutability": "view",
      "type": "function"
    },
    {
      "inputs": [
        {
          "internalType": "bytes32",
          "name": "role",
          "type": "bytes32"
        }
      ],
      "name": "getRoleMemberCount",
      "outputs": [
        {
          "internalType": "uint256",
          "name": "",
          "type": "uint256"
        }
      ],
      "stateMutability": "view",
      "type": "function"
    },
    {
      "inputs": [
        {
          "internalType": "bytes32",
          "name": "role",
          "type": "bytes32"
        },
        {
          "internalType": "address",
          "name": "account",
          "type": "address"
        }
      ],
      "name": "grantRole",
      "outputs": [],
      "stateMutability": "nonpayable",
      "type": "function"
    },
    {
      "inputs": [
        {
          "internalType": "bytes32",
          "name": "role",
          "type": "bytes32"
        },
        {
          "internalType": "address",
          "name": "account",
          "type": "address"
        }
      ],
      "name": "hasRole",
      "outputs": [
        {
          "internalType": "bool",
          "name": "",
          "type": "bool"
        }
      ],
      "stateMutability": "view",
      "type": "function"
    },
    {
      "inputs": [],
      "name": "initialize",
      "outputs": [],
      "stateMutability": "nonpayable",
      "type": "function"
    },
    {
      "inputs": [
        {
          "internalType": "bytes",
          "name": "data",
          "type": "bytes"
        }
      ],
      "name": "postUpgrade",
      "outputs": [],
      "stateMutability": "nonpayable",
      "type": "function"
    },
    {
      "inputs": [
        {
          "internalType": "bytes32",
          "name": "role",
          "type": "bytes32"
        },
        {
          "internalType": "address",
          "name": "account",
          "type": "address"
        }
      ],
      "name": "renounceRole",
      "outputs": [],
      "stateMutability": "nonpayable",
      "type": "function"
    },
    {
      "inputs": [
        {
          "internalType": "bytes32",
          "name": "role",
          "type": "bytes32"
        },
        {
          "internalType": "address",
          "name": "account",
          "type": "address"
        }
      ],
      "name": "revokeRole",
      "outputs": [],
      "stateMutability": "nonpayable",
      "type": "function"
    },
    {
      "inputs": [],
      "name": "rewardsPPM",
      "outputs": [
        {
          "internalType": "uint256",
          "name": "",
          "type": "uint256"
        }
      ],
      "stateMutability": "view",
      "type": "function"
    },
    {
      "inputs": [],
      "name": "roleAdmin",
      "outputs": [
        {
          "internalType": "bytes32",
          "name": "",
          "type": "bytes32"
        }
      ],
      "stateMutability": "pure",
      "type": "function"
    },
    {
      "inputs": [
        {
          "internalType": "uint256",
          "name": "newRewardsPPM",
          "type": "uint256"
        }
      ],
      "name": "setRewardsPPM",
      "outputs": [],
      "stateMutability": "nonpayable",
      "type": "function"
    },
    {
      "inputs": [
        {
          "internalType": "bytes4",
          "name": "interfaceId",
          "type": "bytes4"
        }
      ],
      "name": "supportsInterface",
      "outputs": [
        {
          "internalType": "bool",
          "name": "",
          "type": "bool"
        }
      ],
      "stateMutability": "view",
      "type": "function"
    },
    {
      "inputs": [],
      "name": "totalBurned",
      "outputs": [
        {
          "internalType": "uint256",
          "name": "",
          "type": "uint256"
        }
      ],
      "stateMutability": "view",
      "type": "function"
    },
    {
      "inputs": [],
      "name": "version",
      "outputs": [
        {
          "internalType": "uint16",
          "name": "",
          "type": "uint16"
        }
      ],
      "stateMutability": "pure",
      "type": "function"
    },
    {
      "stateMutability": "payable",
      "type": "receive"
    }
  ],
  "transactionHash": "0x11e1197b96d10e11ac4d999457e44437438223e84b94e4f8aaa6451851018460",
  "args": [
    "0x1F573D6Fb3F13d689FF844B4cE37794d79a7FF1C",
    "0xC537e898CD774e2dCBa3B14Ea6f34C93d5eA45e1",
    "0xeEF417e1D5CC832e619ae18D2F140De2999dD4fB"
  ],
  "numDeployments": 2,
  "solcInputHash": "a2a12afa435c27ae8c5cf17764ea6bd9",
  "bytecode": "0x60e06040523480156200001157600080fd5b5060405162002ac438038062002ac48339810160408190526200003491620000b9565b81620000408162000078565b836200004c8162000078565b82620000588162000078565b5050506001600160a01b03918216608052811660a0521660c0526200010d565b6001600160a01b038116620000a05760405163e6c4247b60e01b815260040160405180910390fd5b50565b6001600160a01b0381168114620000a057600080fd5b600080600060608486031215620000cf57600080fd5b8351620000dc81620000a3565b6020850151909350620000ef81620000a3565b60408501519092506200010281620000a3565b809150509250925092565b60805160a05160c05161294f620001756000396000818161078c0152818161086301528181610e6d015281816112be015261130a0152600081816108a901528181610ee001528181611166015261119901526000818161059d0152610b40015261294f6000f3fe60806040526004361061012d5760003560e01c806391d14854116100a5578063c7f5387411610074578063d547741f11610059578063d547741f1461037b578063d89135cd1461039b578063ebf80ff5146103b157600080fd5b8063c7f5387414610345578063ca15c8731461035b57600080fd5b806391d148541461029757806393867fb5146102dd57806394cb094714610310578063a217fddf1461033057600080fd5b80634c0a0dfa116100fc5780638129fc1c116100e15780638129fc1c1461022a5780638cd2403d1461023f5780639010d07c1461025f57600080fd5b80634c0a0dfa146101ee57806354fd4d501461020e57600080fd5b806301ffc9a714610139578063248a9ca31461016e5780632f2ff15d146101ac57806336568abe146101ce57600080fd5b3661013457005b600080fd5b34801561014557600080fd5b506101596101543660046124d0565b6103d1565b60405190151581526020015b60405180910390f35b34801561017a57600080fd5b5061019e610189366004612512565b60009081526065602052604090206001015490565b604051908152602001610165565b3480156101b857600080fd5b506101cc6101c7366004612540565b61042d565b005b3480156101da57600080fd5b506101cc6101e9366004612540565b610457565b3480156101fa57600080fd5b506101cc610209366004612570565b6104e8565b34801561021a57600080fd5b5060405160028152602001610165565b34801561023657600080fd5b506101cc610944565b34801561024b57600080fd5b506101cc61025a3660046125e5565b610a64565b34801561026b57600080fd5b5061027f61027a366004612645565b610ad4565b6040516001600160a01b039091168152602001610165565b3480156102a357600080fd5b506101596102b2366004612540565b60009182526065602090815260408084206001600160a01b0393909316845291905290205460ff1690565b3480156102e957600080fd5b507f2172861495e7b85edac73e3cd5fbb42dd675baadf627720e687bcfdaca02509661019e565b34801561031c57600080fd5b5061019e61032b366004612667565b610af3565b34801561033c57600080fd5b5061019e600081565b34801561035157600080fd5b5061012e5461019e565b34801561036757600080fd5b5061019e610376366004612512565b610bb5565b34801561038757600080fd5b506101cc610396366004612540565b610bcc565b3480156103a757600080fd5b5061012d5461019e565b3480156103bd57600080fd5b506101cc6103cc366004612512565b610bf1565b60007fffffffff0000000000000000000000000000000000000000000000000000000082167f5a05180f000000000000000000000000000000000000000000000000000000001480610427575061042782610c2e565b92915050565b60008281526065602052604090206001015461044881610cc5565b6104528383610ccf565b505050565b6001600160a01b03811633146104da5760405162461bcd60e51b815260206004820152602f60248201527f416363657373436f6e74726f6c3a2063616e206f6e6c792072656e6f756e636560448201527f20726f6c657320666f722073656c66000000000000000000000000000000000060648201526084015b60405180910390fd5b6104e48282610cf1565b5050565b6104f0610d13565b81816104fc8282610d6c565b8260008167ffffffffffffffff81111561051857610518612684565b604051908082528060200260200182016040528015610541578160200160208202803683370190505b50905060008267ffffffffffffffff81111561055f5761055f612684565b604051908082528060200260200182016040528015610588578160200160208202803683370190505b5061012e5490915060005b8481101561072c577f00000000000000000000000000000000000000000000000000000000000000006001600160a01b0316639ba372c28a8a848181106105dc576105dc61269a565b90506020020160208101906105f19190612667565b6040517fffffffff0000000000000000000000000000000000000000000000000000000060e084901b1681526001600160a01b03909116600482015260001960248201523060448201526064016020604051808303816000875af115801561065d573d6000803e3d6000fd5b505050506040513d601f19601f8201168201806040525081019061068191906126b0565b506106bc308a8a848181106106985761069861269a565b90506020020160208101906106ad9190612667565b6001600160a01b031690610f9e565b8482815181106106ce576106ce61269a565b6020026020010181815250506107078482815181106106ef576106ef61269a565b602002602001015183620f424063ffffffff16611045565b8382815181106107195761071961269a565b6020908102919091010152600101610593565b5060005b8481101561092757600089898381811061074c5761074c61269a565b90506020020160208101906107619190612667565b90508482815181106107755761077561269a565b6020026020010151600014806107bc57506107bc817f00000000000000000000000000000000000000000000000000000000000000006001600160a01b0390811691161490565b156107c7575061091f565b60008483815181106107db576107db61269a565b60200260200101518684815181106107f5576107f561269a565b602002602001015103905061080a8282611139565b600061081e836001600160a01b03166111d5565b61082957600061082b565b815b6040517fd3a4acd30000000000000000000000000000000000000000000000000000000081526001600160a01b0385811660048301527f0000000000000000000000000000000000000000000000000000000000000000811660248301526044820185905260016064830152426084830152600060a48301529192507f00000000000000000000000000000000000000000000000000000000000000009091169063d3a4acd390839060c40160206040518083038185885af11580156108f5573d6000803e3d6000fd5b50505050506040513d601f19601f8201168201806040525081019061091a91906126b0565b505050505b600101610730565b50610934338989856111fc565b5050505050506104e4600160fb55565b600054610100900460ff16158080156109645750600054600160ff909116105b8061097e5750303b15801561097e575060005460ff166001145b6109f05760405162461bcd60e51b815260206004820152602e60248201527f496e697469616c697a61626c653a20636f6e747261637420697320616c72656160448201527f647920696e697469616c697a656400000000000000000000000000000000000060648201526084016104d1565b6000805460ff191660011790558015610a13576000805461ff0019166101001790555b610a1b611391565b8015610a61576000805461ff0019169055604051600181527f7f26b83ff96e1f2b6a682f133852f6798a09c465da95921460cefb38474024989060200160405180910390a15b50565b60c954600090610a799061ffff1660016126df565b905061ffff8116600214610ab9576040517f0dc149f000000000000000000000000000000000000000000000000000000000815260040160405180910390fd5b60c9805461ffff191661ffff83161790556104528383611416565b6000828152609760205260408120610aec9083611421565b9392505050565b6000610b086001600160a01b03831630610f9e565b6040517ffcf666640000000000000000000000000000000000000000000000000000000081526001600160a01b0384811660048301527f0000000000000000000000000000000000000000000000000000000000000000169063fcf6666490602401602060405180830381865afa158015610b87573d6000803e3d6000fd5b505050506040513d601f19601f82011682018060405250810190610bab91906126b0565b61042791906126fa565b60008181526097602052604081206104279061142d565b600082815260656020526040902060010154610be781610cc5565b6104528383610cf1565b610c1b7f2172861495e7b85edac73e3cd5fbb42dd675baadf627720e687bcfdaca02509633611437565b80610c2581611493565b6104e4826114d6565b60007fffffffff0000000000000000000000000000000000000000000000000000000082167f7965db0b00000000000000000000000000000000000000000000000000000000148061042757507f01ffc9a7000000000000000000000000000000000000000000000000000000007fffffffff00000000000000000000000000000000000000000000000000000000831614610427565b610a618133611528565b610cd9828261159d565b6000828152609760205260409020610452908261163f565b610cfb8282611654565b600082815260976020526040902061045290826116d7565b600260fb5403610d655760405162461bcd60e51b815260206004820152601f60248201527f5265656e7472616e637947756172643a207265656e7472616e742063616c6c0060448201526064016104d1565b600260fb55565b806000819003610da8576040517f7dee3bcb00000000000000000000000000000000000000000000000000000000815260040160405180910390fd5b60005b81811015610f98576000848483818110610dc757610dc761269a565b9050602002016020810190610ddc9190612667565b9050600182015b83811015610e6657610e2782878784818110610e0157610e0161269a565b9050602002016020810190610e169190612667565b6001600160a01b0390811691161490565b15610e5e576040517f464e3f6a00000000000000000000000000000000000000000000000000000000815260040160405180910390fd5b600101610de3565b50610e9e817f00000000000000000000000000000000000000000000000000000000000000006001600160a01b039081169116141590565b8015610f5857506040517f9bca0e700000000000000000000000000000000000000000000000000000000081526001600160a01b0382811660048301526000917f000000000000000000000000000000000000000000000000000000000000000090911690639bca0e7090602401602060405180830381865afa158015610f29573d6000803e3d6000fd5b505050506040513d601f19601f82011682018060405250810190610f4d919061270d565b6001600160a01b0316145b15610f8f576040517fc1ab6dc100000000000000000000000000000000000000000000000000000000815260040160405180910390fd5b50600101610dab565b50505050565b6000610fa9836111d5565b15610fbf57506001600160a01b03811631610427565b826040517f70a082310000000000000000000000000000000000000000000000000000000081526001600160a01b03848116600483015291909116906370a0823190602401602060405180830381865afa158015611021573d6000803e3d6000fd5b505050506040513d601f19601f82011682018060405250810190610aec91906126b0565b600080600061105486866116ec565b91509150816000036110795783818161106f5761106f61272a565b0492505050610aec565b8382106110b2576040517f35278d1200000000000000000000000000000000000000000000000000000000815260040160405180910390fd5b60006110bf878787611727565b90506000806110cf858585611742565b91509150816000036110f7578681816110ea576110ea61272a565b0495505050505050610aec565b600087810388169061110a848484611772565b90506000611126838b816111205761112061272a565b046117af565b919091029b9a5050505050505050505050565b61114b826001600160a01b03166111d5565b15611154575050565b600061118a6001600160a01b038416307f00000000000000000000000000000000000000000000000000000000000000006117d7565b905081811015610452576104527f00000000000000000000000000000000000000000000000000000000000000006111c483600019612740565b6001600160a01b0386169190611885565b60006001600160a01b03821673eeeeeeeeeeeeeeeeeeeeeeeeeeeeeeeeeeeeeeee14610427565b8160005b818110156112ae57600085858381811061121c5761121c61269a565b90506020020160208101906112319190612667565b905060008483815181106112475761124761269a565b60200260200101519050806000036112605750506112a6565b611272826001600160a01b03166111d5565b1561128f5761128a6001600160a01b038916826118ac565b6112a3565b6112a36001600160a01b03831689836119c5565b50505b600101611200565b5060006112e46001600160a01b037f00000000000000000000000000000000000000000000000000000000000000001630610f9e565b90508015611382578061012d60008282546112ff91906126fa565b9091555061133a90507f00000000000000000000000000000000000000000000000000000000000000006001600160a01b03811690836119c5565b856001600160a01b03167f907848d27eec20126a73629db507f65182b8da8ba77d96a99ff9c952d65466e8868686856040516113799493929190612753565b60405180910390a25b505050505050565b600160fb55565b600054610100900460ff166113fc5760405162461bcd60e51b815260206004820152602b60248201527f496e697469616c697a61626c653a20636f6e7472616374206973206e6f74206960448201526a6e697469616c697a696e6760a81b60648201526084016104d1565b611404611a2a565b61140c611aa5565b611414611b18565b565b6104e4614e206114d6565b6000610aec8383611b8f565b6000610427825490565b60008281526065602090815260408083206001600160a01b038516845290915290205460ff166104e4576040517f4ca8886700000000000000000000000000000000000000000000000000000000815260040160405180910390fd5b620f424063ffffffff82161115610a61576040517f58d620b300000000000000000000000000000000000000000000000000000000815260040160405180910390fd5b61012e548181036114e5575050565b61012e82905560408051828152602081018490527fcd7c861d63893659123f817b192b8621ff1923a7c4589c260173cedcf9e986a6910160405180910390a15050565b60008281526065602090815260408083206001600160a01b038516845290915290205460ff166104e45761155b81611bb9565b611566836020611bcb565b60405160200161157792919061280c565b60408051601f198184030181529082905262461bcd60e51b82526104d19160040161288d565b60008281526065602090815260408083206001600160a01b038516845290915290205460ff166104e45760008281526065602090815260408083206001600160a01b03851684529091529020805460ff191660011790556115fb3390565b6001600160a01b0316816001600160a01b0316837f2f8788117e7eff1d82e926ec794901d17c78024a50270940304540a733656f0d60405160405180910390a45050565b6000610aec836001600160a01b038416611df4565b60008281526065602090815260408083206001600160a01b038516845290915290205460ff16156104e45760008281526065602090815260408083206001600160a01b0385168085529252808320805460ff1916905551339285917ff6391f5c32d9c69d2a47ea670b442974b53935d1edc7fd64eb21e047a839171b9190a45050565b6000610aec836001600160a01b038416611e43565b60008060006116fb8585611f36565b9050848402808210611714579081900392509050611720565b60018183030393509150505b9250929050565b600081806117375761173761272a565b838509949350505050565b600080828410611758575083905081830361176a565b611763600186612740565b9150508183035b935093915050565b60008061179083808303816117895761178961272a565b0460010190565b90508284816117a1576117a161272a565b048186021795945050505050565b60006001815b60088110156117d057838202600203820291506001016117b5565b5092915050565b60006117e2846111d5565b156117ef57506000610aec565b836040517fdd62ed3e0000000000000000000000000000000000000000000000000000000081526001600160a01b0385811660048301528481166024830152919091169063dd62ed3e90604401602060405180830381865afa158015611859573d6000803e3d6000fd5b505050506040513d601f19601f8201168201806040525081019061187d91906126b0565b949350505050565b61188e836111d5565b1561189857505050565b6104526001600160a01b0384168383611f45565b804710156118fc5760405162461bcd60e51b815260206004820152601d60248201527f416464726573733a20696e73756666696369656e742062616c616e636500000060448201526064016104d1565b6000826001600160a01b03168260405160006040518083038185875af1925050503d8060008114611949576040519150601f19603f3d011682016040523d82523d6000602084013e61194e565b606091505b50509050806104525760405162461bcd60e51b815260206004820152603a60248201527f416464726573733a20756e61626c6520746f2073656e642076616c75652c207260448201527f6563697069656e74206d6179206861766520726576657274656400000000000060648201526084016104d1565b806000036119d257505050565b6119db836111d5565b15611a16576040516001600160a01b0383169082156108fc029083906000818181858888f19350505050158015610f98573d6000803e3d6000fd5b6104526001600160a01b0384168383612084565b600054610100900460ff16611a955760405162461bcd60e51b815260206004820152602b60248201527f496e697469616c697a61626c653a20636f6e7472616374206973206e6f74206960448201526a6e697469616c697a696e6760a81b60648201526084016104d1565b611a9d6120cd565b611414612138565b600054610100900460ff16611b105760405162461bcd60e51b815260206004820152602b60248201527f496e697469616c697a61626c653a20636f6e7472616374206973206e6f74206960448201526a6e697469616c697a696e6760a81b60648201526084016104d1565b611414612205565b600054610100900460ff16611b835760405162461bcd60e51b815260206004820152602b60248201527f496e697469616c697a61626c653a20636f6e7472616374206973206e6f74206960448201526a6e697469616c697a696e6760a81b60648201526084016104d1565b611414620186a06114d6565b6000826000018281548110611ba657611ba661269a565b9060005260206000200154905092915050565b60606104276001600160a01b03831660145b60606000611bda8360026128c0565b611be59060026126fa565b67ffffffffffffffff811115611bfd57611bfd612684565b6040519080825280601f01601f191660200182016040528015611c27576020820181803683370190505b5090507f300000000000000000000000000000000000000000000000000000000000000081600081518110611c5e57611c5e61269a565b60200101907effffffffffffffffffffffffffffffffffffffffffffffffffffffffffffff1916908160001a9053507f780000000000000000000000000000000000000000000000000000000000000081600181518110611cc157611cc161269a565b60200101907effffffffffffffffffffffffffffffffffffffffffffffffffffffffffffff1916908160001a9053506000611cfd8460026128c0565b611d089060016126fa565b90505b6001811115611da5577f303132333435363738396162636465660000000000000000000000000000000085600f1660108110611d4957611d4961269a565b1a60f81b828281518110611d5f57611d5f61269a565b60200101907effffffffffffffffffffffffffffffffffffffffffffffffffffffffffffff1916908160001a90535060049490941c93611d9e816128d7565b9050611d0b565b508315610aec5760405162461bcd60e51b815260206004820181905260248201527f537472696e67733a20686578206c656e67746820696e73756666696369656e7460448201526064016104d1565b6000818152600183016020526040812054611e3b57508154600181810184556000848152602080822090930184905584548482528286019093526040902091909155610427565b506000610427565b60008181526001830160205260408120548015611f2c576000611e67600183612740565b8554909150600090611e7b90600190612740565b9050818114611ee0576000866000018281548110611e9b57611e9b61269a565b9060005260206000200154905080876000018481548110611ebe57611ebe61269a565b6000918252602080832090910192909255918252600188019052604090208390555b8554869080611ef157611ef16128ee565b600190038181906000526020600020016000905590558560010160008681526020019081526020016000206000905560019350505050610427565b6000915050610427565b60006000198284099392505050565b6040517fdd62ed3e0000000000000000000000000000000000000000000000000000000081523060048201526001600160a01b0383811660248301526000919085169063dd62ed3e90604401602060405180830381865afa158015611fae573d6000803e3d6000fd5b505050506040513d601f19601f82011682018060405250810190611fd291906126b0565b9050610f98847f095ea7b3000000000000000000000000000000000000000000000000000000008561200486866126fa565b6040516001600160a01b03909216602483015260448201526064015b60408051601f198184030181529190526020810180517bffffffffffffffffffffffffffffffffffffffffffffffffffffffff167fffffffff0000000000000000000000000000000000000000000000000000000090931692909217909152612270565b6040516001600160a01b0383166024820152604481018290526104529084907fa9059cbb0000000000000000000000000000000000000000000000000000000090606401612020565b600054610100900460ff166114145760405162461bcd60e51b815260206004820152602b60248201527f496e697469616c697a61626c653a20636f6e7472616374206973206e6f74206960448201526a6e697469616c697a696e6760a81b60648201526084016104d1565b600054610100900460ff166121a35760405162461bcd60e51b815260206004820152602b60248201527f496e697469616c697a61626c653a20636f6e7472616374206973206e6f74206960448201526a6e697469616c697a696e6760a81b60648201526084016104d1565b60c9805461ffff191660011790556121db7f2172861495e7b85edac73e3cd5fbb42dd675baadf627720e687bcfdaca02509680612358565b6114147f2172861495e7b85edac73e3cd5fbb42dd675baadf627720e687bcfdaca025096336123a3565b600054610100900460ff1661138a5760405162461bcd60e51b815260206004820152602b60248201527f496e697469616c697a61626c653a20636f6e7472616374206973206e6f74206960448201526a6e697469616c697a696e6760a81b60648201526084016104d1565b60006122c5826040518060400160405280602081526020017f5361666545524332303a206c6f772d6c6576656c2063616c6c206661696c6564815250856001600160a01b03166123ad9092919063ffffffff16565b90508051600014806122e65750808060200190518101906122e69190612904565b6104525760405162461bcd60e51b815260206004820152602a60248201527f5361666545524332303a204552433230206f7065726174696f6e20646964206e60448201527f6f7420737563636565640000000000000000000000000000000000000000000060648201526084016104d1565b600082815260656020526040808220600101805490849055905190918391839186917fbd79b86ffe0ab8e8776151514217cd7cacd52c909f66475c3af44e129f0b00ff9190a4505050565b6104e48282610ccf565b606061187d848460008585600080866001600160a01b031685876040516123d49190612926565b60006040518083038185875af1925050503d8060008114612411576040519150601f19603f3d011682016040523d82523d6000602084013e612416565b606091505b509150915061242787838387612432565b979650505050505050565b606083156124a157825160000361249a576001600160a01b0385163b61249a5760405162461bcd60e51b815260206004820152601d60248201527f416464726573733a2063616c6c20746f206e6f6e2d636f6e747261637400000060448201526064016104d1565b508161187d565b61187d83838151156124b65781518083602001fd5b8060405162461bcd60e51b81526004016104d1919061288d565b6000602082840312156124e257600080fd5b81357fffffffff0000000000000000000000000000000000000000000000000000000081168114610aec57600080fd5b60006020828403121561252457600080fd5b5035919050565b6001600160a01b0381168114610a6157600080fd5b6000806040838503121561255357600080fd5b8235915060208301356125658161252b565b809150509250929050565b6000806020838503121561258357600080fd5b823567ffffffffffffffff8082111561259b57600080fd5b818501915085601f8301126125af57600080fd5b8135818111156125be57600080fd5b8660208260051b85010111156125d357600080fd5b60209290920196919550909350505050565b600080602083850312156125f857600080fd5b823567ffffffffffffffff8082111561261057600080fd5b818501915085601f83011261262457600080fd5b81358181111561263357600080fd5b8660208285010111156125d357600080fd5b6000806040838503121561265857600080fd5b50508035926020909101359150565b60006020828403121561267957600080fd5b8135610aec8161252b565b634e487b7160e01b600052604160045260246000fd5b634e487b7160e01b600052603260045260246000fd5b6000602082840312156126c257600080fd5b5051919050565b634e487b7160e01b600052601160045260246000fd5b61ffff8181168382160190808211156117d0576117d06126c9565b80820180821115610427576104276126c9565b60006020828403121561271f57600080fd5b8151610aec8161252b565b634e487b7160e01b600052601260045260246000fd5b81810381811115610427576104276126c9565b6060808252810184905260008560808301825b878110156127965782356127798161252b565b6001600160a01b0316825260209283019290910190600101612766565b5060209150838103828501528086518083528383019150838801925060005b818110156127d1578351835292840192918401916001016127b5565b505080935050505082604083015295945050505050565b60005b838110156128035781810151838201526020016127eb565b50506000910152565b7f416363657373436f6e74726f6c3a206163636f756e74200000000000000000008152600083516128448160178501602088016127e8565b7f206973206d697373696e6720726f6c652000000000000000000000000000000060179184019182015283516128818160288401602088016127e8565b01602801949350505050565b60208152600082518060208401526128ac8160408501602087016127e8565b601f01601f19169190910160400192915050565b8082028115828204841417610427576104276126c9565b6000816128e6576128e66126c9565b506000190190565b634e487b7160e01b600052603160045260246000fd5b60006020828403121561291657600080fd5b81518015158114610aec57600080fd5b600082516129388184602087016127e8565b919091019291505056fea164736f6c6343000813000a",
  "devdoc": {
    "details": "CarbonVortex contract",
    "events": {
      "Initialized(uint8)": {
        "details": "Triggered when the contract has been initialized or reinitialized."
      },
      "RewardsUpdated(uint256,uint256)": {
        "details": "triggered when the rewards ppm are updated"
      },
      "RoleAdminChanged(bytes32,bytes32,bytes32)": {
        "details": "Emitted when `newAdminRole` is set as ``role``'s admin role, replacing `previousAdminRole` `DEFAULT_ADMIN_ROLE` is the starting admin for all roles, despite {RoleAdminChanged} not being emitted signaling this. _Available since v3.1._"
      },
      "RoleGranted(bytes32,address,address)": {
        "details": "Emitted when `account` is granted `role`. `sender` is the account that originated the contract call, an admin role bearer except when using {AccessControl-_setupRole}."
      },
      "RoleRevoked(bytes32,address,address)": {
        "details": "Emitted when `account` is revoked `role`. `sender` is the account that originated the contract call:   - if using `revokeRole`, it is the admin role bearer   - if using `renounceRole`, it is the role bearer (i.e. `account`)"
      },
      "TokensBurned(address,address[],uint256[],uint256)": {
        "details": "triggered after a successful burn is executed"
      }
    },
    "kind": "dev",
    "methods": {
      "availableTokens(address)": {
        "details": "returns the total available fees for the given token"
      },
      "constructor": {
        "details": "a \"virtual\" constructor that is only used to set immutable state variables"
      },
      "execute(address[])": {
        "details": "withdraws the fees of the provided tokens from Carbonconverts them along with the available contract token balance to BNT,rewards the caller and burns the rest of the tokens"
      },
      "getRoleAdmin(bytes32)": {
        "details": "Returns the admin role that controls `role`. See {grantRole} and {revokeRole}. To change a role's admin, use {_setRoleAdmin}."
      },
      "getRoleMember(bytes32,uint256)": {
        "details": "Returns one of the accounts that have `role`. `index` must be a value between 0 and {getRoleMemberCount}, non-inclusive. Role bearers are not sorted in any particular way, and their ordering may change at any point. WARNING: When using {getRoleMember} and {getRoleMemberCount}, make sure you perform all queries on the same block. See the following https://forum.openzeppelin.com/t/iterating-over-elements-on-enumerableset-in-openzeppelin-contracts/2296[forum post] for more information."
      },
      "getRoleMemberCount(bytes32)": {
        "details": "Returns the number of accounts that have `role`. Can be used together with {getRoleMember} to enumerate all bearers of a role."
      },
      "grantRole(bytes32,address)": {
        "details": "Grants `role` to `account`. If `account` had not been already granted `role`, emits a {RoleGranted} event. Requirements: - the caller must have ``role``'s admin role. May emit a {RoleGranted} event."
      },
      "hasRole(bytes32,address)": {
        "details": "Returns `true` if `account` has been granted `role`."
      },
      "initialize()": {
        "details": "fully initializes the contract and its parents"
      },
      "postUpgrade(bytes)": {
        "details": "performs post-upgrade initialization requirements: - this must and can be called only once per-upgrade"
      },
      "renounceRole(bytes32,address)": {
        "details": "Revokes `role` from the calling account. Roles are often managed via {grantRole} and {revokeRole}: this function's purpose is to provide a mechanism for accounts to lose their privileges if they are compromised (such as when a trusted device is misplaced). If the calling account had been revoked `role`, emits a {RoleRevoked} event. Requirements: - the caller must be `account`. May emit a {RoleRevoked} event."
      },
      "revokeRole(bytes32,address)": {
        "details": "Revokes `role` from `account`. If `account` had been granted `role`, emits a {RoleRevoked} event. Requirements: - the caller must have ``role``'s admin role. May emit a {RoleRevoked} event."
      },
      "rewardsPPM()": {
        "details": "returns the rewards percentage ppm"
      },
      "roleAdmin()": {
        "details": "returns the admin role"
      },
      "setRewardsPPM(uint256)": {
        "details": "sets the rewards percentage ppm requirements: - the caller must be the admin of the contract"
      },
      "supportsInterface(bytes4)": {
        "details": "See {IERC165-supportsInterface}."
      },
      "totalBurned()": {
        "details": "returns the total amount burned"
      }
    },
    "version": 1
  },
  "userdoc": {
    "kind": "user",
    "methods": {},
    "version": 1
  },
  "storageLayout": {
    "storage": [
      {
        "astId": 588,
        "contract": "contracts/vortex/CarbonVortex.sol:CarbonVortex",
        "label": "_initialized",
        "offset": 0,
        "slot": "0",
        "type": "t_uint8"
      },
      {
        "astId": 591,
        "contract": "contracts/vortex/CarbonVortex.sol:CarbonVortex",
        "label": "_initializing",
        "offset": 1,
        "slot": "0",
        "type": "t_bool"
      },
      {
        "astId": 2445,
        "contract": "contracts/vortex/CarbonVortex.sol:CarbonVortex",
        "label": "__gap",
        "offset": 0,
        "slot": "1",
        "type": "t_array(t_uint256)50_storage"
      },
      {
        "astId": 2718,
        "contract": "contracts/vortex/CarbonVortex.sol:CarbonVortex",
        "label": "__gap",
        "offset": 0,
        "slot": "51",
        "type": "t_array(t_uint256)50_storage"
      },
      {
        "astId": 184,
        "contract": "contracts/vortex/CarbonVortex.sol:CarbonVortex",
        "label": "_roles",
        "offset": 0,
        "slot": "101",
        "type": "t_mapping(t_bytes32,t_struct(RoleData)179_storage)"
      },
      {
        "astId": 479,
        "contract": "contracts/vortex/CarbonVortex.sol:CarbonVortex",
        "label": "__gap",
        "offset": 0,
        "slot": "102",
        "type": "t_array(t_uint256)49_storage"
      },
      {
        "astId": 33,
        "contract": "contracts/vortex/CarbonVortex.sol:CarbonVortex",
        "label": "_roleMembers",
        "offset": 0,
        "slot": "151",
        "type": "t_mapping(t_bytes32,t_struct(AddressSet)5569_storage)"
      },
      {
        "astId": 143,
        "contract": "contracts/vortex/CarbonVortex.sol:CarbonVortex",
        "label": "__gap",
        "offset": 0,
        "slot": "152",
        "type": "t_array(t_uint256)49_storage"
      },
      {
        "astId": 17697,
        "contract": "contracts/vortex/CarbonVortex.sol:CarbonVortex",
        "label": "_initializations",
        "offset": 0,
        "slot": "201",
        "type": "t_uint16"
      },
      {
        "astId": 17703,
        "contract": "contracts/vortex/CarbonVortex.sol:CarbonVortex",
        "label": "__gap",
        "offset": 0,
        "slot": "202",
        "type": "t_array(t_uint256)49_storage"
      },
      {
        "astId": 891,
        "contract": "contracts/vortex/CarbonVortex.sol:CarbonVortex",
        "label": "_status",
        "offset": 0,
        "slot": "251",
        "type": "t_uint256"
      },
      {
        "astId": 960,
        "contract": "contracts/vortex/CarbonVortex.sol:CarbonVortex",
        "label": "__gap",
        "offset": 0,
        "slot": "252",
        "type": "t_array(t_uint256)49_storage"
      },
      {
        "astId": 18024,
        "contract": "contracts/vortex/CarbonVortex.sol:CarbonVortex",
        "label": "_totalBurned",
        "offset": 0,
        "slot": "301",
        "type": "t_uint256"
      },
      {
        "astId": 18026,
        "contract": "contracts/vortex/CarbonVortex.sol:CarbonVortex",
        "label": "_rewardsPPM",
        "offset": 0,
        "slot": "302",
        "type": "t_uint256"
      },
      {
        "astId": 18032,
        "contract": "contracts/vortex/CarbonVortex.sol:CarbonVortex",
        "label": "__gap",
        "offset": 0,
        "slot": "303",
        "type": "t_array(t_uint256)48_storage"
      }
    ],
    "types": {
      "t_address": {
        "encoding": "inplace",
        "label": "address",
        "numberOfBytes": "20"
      },
      "t_array(t_bytes32)dyn_storage": {
        "base": "t_bytes32",
        "encoding": "dynamic_array",
        "label": "bytes32[]",
        "numberOfBytes": "32"
      },
      "t_array(t_uint256)48_storage": {
        "base": "t_uint256",
        "encoding": "inplace",
        "label": "uint256[48]",
        "numberOfBytes": "1536"
      },
      "t_array(t_uint256)49_storage": {
        "base": "t_uint256",
        "encoding": "inplace",
        "label": "uint256[49]",
        "numberOfBytes": "1568"
      },
      "t_array(t_uint256)50_storage": {
        "base": "t_uint256",
        "encoding": "inplace",
        "label": "uint256[50]",
        "numberOfBytes": "1600"
      },
      "t_bool": {
        "encoding": "inplace",
        "label": "bool",
        "numberOfBytes": "1"
      },
      "t_bytes32": {
        "encoding": "inplace",
        "label": "bytes32",
        "numberOfBytes": "32"
      },
      "t_mapping(t_address,t_bool)": {
        "encoding": "mapping",
        "key": "t_address",
        "label": "mapping(address => bool)",
        "numberOfBytes": "32",
        "value": "t_bool"
      },
      "t_mapping(t_bytes32,t_struct(AddressSet)5569_storage)": {
        "encoding": "mapping",
        "key": "t_bytes32",
        "label": "mapping(bytes32 => struct EnumerableSetUpgradeable.AddressSet)",
        "numberOfBytes": "32",
        "value": "t_struct(AddressSet)5569_storage"
      },
      "t_mapping(t_bytes32,t_struct(RoleData)179_storage)": {
        "encoding": "mapping",
        "key": "t_bytes32",
        "label": "mapping(bytes32 => struct AccessControlUpgradeable.RoleData)",
        "numberOfBytes": "32",
        "value": "t_struct(RoleData)179_storage"
      },
      "t_mapping(t_bytes32,t_uint256)": {
        "encoding": "mapping",
        "key": "t_bytes32",
        "label": "mapping(bytes32 => uint256)",
        "numberOfBytes": "32",
        "value": "t_uint256"
      },
      "t_struct(AddressSet)5569_storage": {
        "encoding": "inplace",
        "label": "struct EnumerableSetUpgradeable.AddressSet",
        "members": [
          {
            "astId": 5568,
            "contract": "contracts/vortex/CarbonVortex.sol:CarbonVortex",
            "label": "_inner",
            "offset": 0,
            "slot": "0",
            "type": "t_struct(Set)5254_storage"
          }
        ],
        "numberOfBytes": "64"
      },
      "t_struct(RoleData)179_storage": {
        "encoding": "inplace",
        "label": "struct AccessControlUpgradeable.RoleData",
        "members": [
          {
            "astId": 176,
            "contract": "contracts/vortex/CarbonVortex.sol:CarbonVortex",
            "label": "members",
            "offset": 0,
            "slot": "0",
            "type": "t_mapping(t_address,t_bool)"
          },
          {
            "astId": 178,
            "contract": "contracts/vortex/CarbonVortex.sol:CarbonVortex",
            "label": "adminRole",
            "offset": 0,
            "slot": "1",
            "type": "t_bytes32"
          }
        ],
        "numberOfBytes": "64"
      },
      "t_struct(Set)5254_storage": {
        "encoding": "inplace",
        "label": "struct EnumerableSetUpgradeable.Set",
        "members": [
          {
            "astId": 5249,
            "contract": "contracts/vortex/CarbonVortex.sol:CarbonVortex",
            "label": "_values",
            "offset": 0,
            "slot": "0",
            "type": "t_array(t_bytes32)dyn_storage"
          },
          {
            "astId": 5253,
            "contract": "contracts/vortex/CarbonVortex.sol:CarbonVortex",
            "label": "_indexes",
            "offset": 0,
            "slot": "1",
            "type": "t_mapping(t_bytes32,t_uint256)"
          }
        ],
        "numberOfBytes": "64"
      },
      "t_uint16": {
        "encoding": "inplace",
        "label": "uint16",
        "numberOfBytes": "2"
      },
      "t_uint256": {
        "encoding": "inplace",
        "label": "uint256",
        "numberOfBytes": "32"
      },
      "t_uint8": {
        "encoding": "inplace",
        "label": "uint8",
        "numberOfBytes": "1"
      }
    }
  }
}