{
  "address": "0x945ac60e655a84b6638216521b391ae984287105",
  "abi": [
    {
      "inputs": [],
      "stateMutability": "nonpayable",
      "type": "constructor"
    },
    {
      "inputs": [],
      "name": "AccessDenied",
      "type": "error"
    },
    {
      "inputs": [],
      "name": "AlreadyInitialized",
      "type": "error"
    },
    {
      "inputs": [],
      "name": "InsufficientNativeTokenSent",
      "type": "error"
    },
    {
      "inputs": [],
      "name": "InsufficientTokenBalance",
      "type": "error"
    },
    {
      "inputs": [],
      "name": "InvalidPrice",
      "type": "error"
    },
    {
      "inputs": [],
      "name": "InvalidToken",
      "type": "error"
    },
    {
      "inputs": [],
      "name": "InvalidTrade",
      "type": "error"
    },
    {
      "inputs": [],
      "name": "Overflow",
      "type": "error"
    },
    {
      "inputs": [],
      "name": "TradingDisabled",
      "type": "error"
    },
    {
      "inputs": [],
      "name": "ZeroValue",
      "type": "error"
    },
    {
      "anonymous": false,
      "inputs": [
        {
          "indexed": false,
          "internalType": "uint8",
          "name": "version",
          "type": "uint8"
        }
      ],
      "name": "Initialized",
      "type": "event"
    },
    {
      "anonymous": false,
      "inputs": [
        {
          "indexed": false,
          "internalType": "uint32",
          "name": "prevMarketPriceMultiply",
          "type": "uint32"
        },
        {
          "indexed": false,
          "internalType": "uint32",
          "name": "newMarketPriceMultiply",
          "type": "uint32"
        }
      ],
      "name": "MarketPriceMultiplyUpdated",
      "type": "event"
    },
    {
      "anonymous": false,
      "inputs": [
        {
          "indexed": false,
          "internalType": "uint32",
          "name": "prevPriceDecayHalfLife",
          "type": "uint32"
        },
        {
          "indexed": false,
          "internalType": "uint32",
          "name": "newPriceDecayHalfLife",
          "type": "uint32"
        }
      ],
      "name": "PriceDecayHalfLifeUpdated",
      "type": "event"
    },
    {
      "anonymous": false,
      "inputs": [
        {
          "indexed": true,
          "internalType": "bytes32",
          "name": "role",
          "type": "bytes32"
        },
        {
          "indexed": true,
          "internalType": "bytes32",
          "name": "previousAdminRole",
          "type": "bytes32"
        },
        {
          "indexed": true,
          "internalType": "bytes32",
          "name": "newAdminRole",
          "type": "bytes32"
        }
      ],
      "name": "RoleAdminChanged",
      "type": "event"
    },
    {
      "anonymous": false,
      "inputs": [
        {
          "indexed": true,
          "internalType": "bytes32",
          "name": "role",
          "type": "bytes32"
        },
        {
          "indexed": true,
          "internalType": "address",
          "name": "account",
          "type": "address"
        },
        {
          "indexed": true,
          "internalType": "address",
          "name": "sender",
          "type": "address"
        }
      ],
      "name": "RoleGranted",
      "type": "event"
    },
    {
      "anonymous": false,
      "inputs": [
        {
          "indexed": true,
          "internalType": "bytes32",
          "name": "role",
          "type": "bytes32"
        },
        {
          "indexed": true,
          "internalType": "address",
          "name": "account",
          "type": "address"
        },
        {
          "indexed": true,
          "internalType": "address",
          "name": "sender",
          "type": "address"
        }
      ],
      "name": "RoleRevoked",
      "type": "event"
    },
    {
      "anonymous": false,
      "inputs": [
        {
          "indexed": true,
          "internalType": "address",
          "name": "caller",
          "type": "address"
        },
        {
          "indexed": true,
          "internalType": "Token",
          "name": "token",
          "type": "address"
        },
        {
          "indexed": false,
          "internalType": "uint128",
          "name": "amount",
          "type": "uint128"
        },
        {
          "indexed": false,
          "internalType": "uint128",
          "name": "ethReceived",
          "type": "uint128"
        }
      ],
      "name": "TokenTraded",
      "type": "event"
    },
    {
      "anonymous": false,
      "inputs": [
        {
          "indexed": true,
          "internalType": "Token",
          "name": "token",
          "type": "address"
        },
        {
          "components": [
            {
              "internalType": "uint128",
              "name": "ethAmount",
              "type": "uint128"
            },
            {
              "internalType": "uint128",
              "name": "tokenAmount",
              "type": "uint128"
            }
          ],
          "indexed": false,
          "internalType": "struct ICarbonPOL.Price",
          "name": "price",
          "type": "tuple"
        }
      ],
      "name": "TradingEnabled",
      "type": "event"
    },
    {
      "inputs": [],
      "name": "DEFAULT_ADMIN_ROLE",
      "outputs": [
        {
          "internalType": "bytes32",
          "name": "",
          "type": "bytes32"
        }
      ],
      "stateMutability": "view",
      "type": "function"
    },
    {
      "inputs": [
        {
          "internalType": "Token",
          "name": "token",
          "type": "address"
        },
        {
          "components": [
            {
              "internalType": "uint128",
              "name": "ethAmount",
              "type": "uint128"
            },
            {
              "internalType": "uint128",
              "name": "tokenAmount",
              "type": "uint128"
            }
          ],
          "internalType": "struct ICarbonPOL.Price",
          "name": "price",
          "type": "tuple"
        }
      ],
      "name": "enableTrading",
      "outputs": [],
      "stateMutability": "nonpayable",
      "type": "function"
    },
    {
      "inputs": [
        {
          "internalType": "Token",
          "name": "token",
          "type": "address"
        },
        {
          "internalType": "uint128",
          "name": "tokenAmount",
          "type": "uint128"
        }
      ],
      "name": "expectedTradeInput",
      "outputs": [
        {
          "internalType": "uint128",
          "name": "",
          "type": "uint128"
        }
      ],
      "stateMutability": "view",
      "type": "function"
    },
    {
      "inputs": [
        {
          "internalType": "Token",
          "name": "token",
          "type": "address"
        },
        {
          "internalType": "uint128",
          "name": "ethAmount",
          "type": "uint128"
        }
      ],
      "name": "expectedTradeReturn",
      "outputs": [
        {
          "internalType": "uint128",
          "name": "",
          "type": "uint128"
        }
      ],
      "stateMutability": "view",
      "type": "function"
    },
    {
      "inputs": [
        {
          "internalType": "bytes32",
          "name": "role",
          "type": "bytes32"
        }
      ],
      "name": "getRoleAdmin",
      "outputs": [
        {
          "internalType": "bytes32",
          "name": "",
          "type": "bytes32"
        }
      ],
      "stateMutability": "view",
      "type": "function"
    },
    {
      "inputs": [
        {
          "internalType": "bytes32",
          "name": "role",
          "type": "bytes32"
        },
        {
          "internalType": "uint256",
          "name": "index",
          "type": "uint256"
        }
      ],
      "name": "getRoleMember",
      "outputs": [
        {
          "internalType": "address",
          "name": "",
          "type": "address"
        }
      ],
      "stateMutability": "view",
      "type": "function"
    },
    {
      "inputs": [
        {
          "internalType": "bytes32",
          "name": "role",
          "type": "bytes32"
        }
      ],
      "name": "getRoleMemberCount",
      "outputs": [
        {
          "internalType": "uint256",
          "name": "",
          "type": "uint256"
        }
      ],
      "stateMutability": "view",
      "type": "function"
    },
    {
      "inputs": [
        {
          "internalType": "bytes32",
          "name": "role",
          "type": "bytes32"
        },
        {
          "internalType": "address",
          "name": "account",
          "type": "address"
        }
      ],
      "name": "grantRole",
      "outputs": [],
      "stateMutability": "nonpayable",
      "type": "function"
    },
    {
      "inputs": [
        {
          "internalType": "bytes32",
          "name": "role",
          "type": "bytes32"
        },
        {
          "internalType": "address",
          "name": "account",
          "type": "address"
        }
      ],
      "name": "hasRole",
      "outputs": [
        {
          "internalType": "bool",
          "name": "",
          "type": "bool"
        }
      ],
      "stateMutability": "view",
      "type": "function"
    },
    {
      "inputs": [],
      "name": "initialize",
      "outputs": [],
      "stateMutability": "nonpayable",
      "type": "function"
    },
    {
      "inputs": [],
      "name": "marketPriceMultiply",
      "outputs": [
        {
          "internalType": "uint32",
          "name": "",
          "type": "uint32"
        }
      ],
      "stateMutability": "view",
      "type": "function"
    },
    {
      "inputs": [
        {
          "internalType": "bytes",
          "name": "data",
          "type": "bytes"
        }
      ],
      "name": "postUpgrade",
      "outputs": [],
      "stateMutability": "nonpayable",
      "type": "function"
    },
    {
      "inputs": [],
      "name": "priceDecayHalfLife",
      "outputs": [
        {
          "internalType": "uint32",
          "name": "",
          "type": "uint32"
        }
      ],
      "stateMutability": "view",
      "type": "function"
    },
    {
      "inputs": [
        {
          "internalType": "bytes32",
          "name": "role",
          "type": "bytes32"
        },
        {
          "internalType": "address",
          "name": "account",
          "type": "address"
        }
      ],
      "name": "renounceRole",
      "outputs": [],
      "stateMutability": "nonpayable",
      "type": "function"
    },
    {
      "inputs": [
        {
          "internalType": "bytes32",
          "name": "role",
          "type": "bytes32"
        },
        {
          "internalType": "address",
          "name": "account",
          "type": "address"
        }
      ],
      "name": "revokeRole",
      "outputs": [],
      "stateMutability": "nonpayable",
      "type": "function"
    },
    {
      "inputs": [],
      "name": "roleAdmin",
      "outputs": [
        {
          "internalType": "bytes32",
          "name": "",
          "type": "bytes32"
        }
      ],
      "stateMutability": "pure",
      "type": "function"
    },
    {
      "inputs": [
        {
          "internalType": "uint32",
          "name": "newMarketPriceMultiply",
          "type": "uint32"
        }
      ],
      "name": "setMarketPriceMultiply",
      "outputs": [],
      "stateMutability": "nonpayable",
      "type": "function"
    },
    {
      "inputs": [
        {
          "internalType": "uint32",
          "name": "newPriceDecayHalfLife",
          "type": "uint32"
        }
      ],
      "name": "setPriceDecayHalfLife",
      "outputs": [],
      "stateMutability": "nonpayable",
      "type": "function"
    },
    {
      "inputs": [
        {
          "internalType": "bytes4",
          "name": "interfaceId",
          "type": "bytes4"
        }
      ],
      "name": "supportsInterface",
      "outputs": [
        {
          "internalType": "bool",
          "name": "",
          "type": "bool"
        }
      ],
      "stateMutability": "view",
      "type": "function"
    },
    {
      "inputs": [
        {
          "internalType": "Token",
          "name": "token",
          "type": "address"
        }
      ],
      "name": "tokenPrice",
      "outputs": [
        {
          "components": [
            {
              "internalType": "uint128",
              "name": "ethAmount",
              "type": "uint128"
            },
            {
              "internalType": "uint128",
              "name": "tokenAmount",
              "type": "uint128"
            }
          ],
          "internalType": "struct ICarbonPOL.Price",
          "name": "",
          "type": "tuple"
        }
      ],
      "stateMutability": "view",
      "type": "function"
    },
    {
      "inputs": [
        {
          "internalType": "Token",
          "name": "token",
          "type": "address"
        },
        {
          "internalType": "uint128",
          "name": "amount",
          "type": "uint128"
        }
      ],
      "name": "trade",
      "outputs": [],
      "stateMutability": "payable",
      "type": "function"
    },
    {
      "inputs": [
        {
          "internalType": "Token",
          "name": "token",
          "type": "address"
        }
      ],
      "name": "tradingEnabled",
      "outputs": [
        {
          "internalType": "bool",
          "name": "",
          "type": "bool"
        }
      ],
      "stateMutability": "view",
      "type": "function"
    },
    {
      "inputs": [],
      "name": "version",
      "outputs": [
        {
          "internalType": "uint16",
          "name": "",
          "type": "uint16"
        }
      ],
      "stateMutability": "pure",
      "type": "function"
    },
    {
      "stateMutability": "payable",
      "type": "receive"
    }
  ],
  "transactionHash": "0x187cc6d35c130dc0a513009e7613ae2515814ac7bb0817abac6f55a985dff2bc",
  "args": [],
  "numDeployments": 1,
  "solcInputHash": "9e918dfaac336c7924aa8d0e50c8abd0",
  "bytecode": "0x60806040523480156200001157600080fd5b506200001c62000022565b620006fb565b600054610100900460ff1615808015620000435750600054600160ff909116105b806200005f5750303b1580156200005f575060005460ff166001145b620000c85760405162461bcd60e51b815260206004820152602e60248201527f496e697469616c697a61626c653a20636f6e747261637420697320616c72656160448201526d191e481a5b9a5d1a585b1a5e995960921b60648201526084015b60405180910390fd5b6000805460ff191660011790558015620000ec576000805461ff0019166101001790555b620000f662000140565b80156200013d576000805461ff0019169055604051600181527f7f26b83ff96e1f2b6a682f133852f6798a09c465da95921460cefb38474024989060200160405180910390a15b50565b600054610100900460ff166200019c5760405162461bcd60e51b815260206004820152602b6024820152600080516020620032e283398151915260448201526a6e697469616c697a696e6760a81b6064820152608401620000bf565b620001a6620001bc565b620001b06200022c565b620001ba62000292565b565b600054610100900460ff16620002185760405162461bcd60e51b815260206004820152602b6024820152600080516020620032e283398151915260448201526a6e697469616c697a696e6760a81b6064820152608401620000bf565b6200022262000308565b620001ba62000364565b600054610100900460ff16620002885760405162461bcd60e51b815260206004820152602b6024820152600080516020620032e283398151915260448201526a6e697469616c697a696e6760a81b6064820152608401620000bf565b620001ba62000404565b600054610100900460ff16620002ee5760405162461bcd60e51b815260206004820152602b6024820152600080516020620032e283398151915260448201526a6e697469616c697a696e6760a81b6064820152608401620000bf565b620002fa600262000467565b620001ba620d2f00620004dc565b600054610100900460ff16620001ba5760405162461bcd60e51b815260206004820152602b6024820152600080516020620032e283398151915260448201526a6e697469616c697a696e6760a81b6064820152608401620000bf565b600054610100900460ff16620003c05760405162461bcd60e51b815260206004820152602b6024820152600080516020620032e283398151915260448201526a6e697469616c697a696e6760a81b6064820152608401620000bf565b60c9805461ffff19166001179055620003e9600080516020620032c2833981519152806200055f565b620001ba600080516020620032c283398151915233620005aa565b600054610100900460ff16620004605760405162461bcd60e51b815260206004820152602b6024820152600080516020620032e283398151915260448201526a6e697469616c697a696e6760a81b6064820152608401620000bf565b600160fb55565b61012d5463ffffffff908116908216810362000481575050565b61012d805463ffffffff191663ffffffff84811691821790925560408051928416835260208301919091527f04ee60e68c7a4f836ca7ca7f5d9772049ac5846fc054b0d809e0e3de754952b091015b60405180910390a15050565b61012d5463ffffffff64010000000090910481169082168103620004fe575050565b61012d805463ffffffff60201b191664010000000063ffffffff8581169182029290921790925560408051918416825260208201929092527f91a3ff80be5536f6b4a03994984844ded4c1470ac2e7c1a1f9445464358788c39101620004d0565b600082815260656020526040808220600101805490849055905190918391839186917fbd79b86ffe0ab8e8776151514217cd7cacd52c909f66475c3af44e129f0b00ff9190a4505050565b620005b68282620005ba565b5050565b620005c68282620005e5565b6000828152609760205260409020620005e0908262000689565b505050565b60008281526065602090815260408083206001600160a01b038516845290915290205460ff16620005b65760008281526065602090815260408083206001600160a01b03851684529091529020805460ff19166001179055620006453390565b6001600160a01b0316816001600160a01b0316837f2f8788117e7eff1d82e926ec794901d17c78024a50270940304540a733656f0d60405160405180910390a45050565b6000620006a0836001600160a01b038416620006a9565b90505b92915050565b6000818152600183016020526040812054620006f257508154600181810184556000848152602080822090930184905584548482528286019093526040902091909155620006a3565b506000620006a3565b612bb7806200070b6000396000f3fe6080604052600436106101845760003560e01c806384ba3f69116100d6578063a7ae00d21161007f578063d547741f11610059578063d547741f146104bf578063ea9986a9146104df578063f5044552146104ff57600080fd5b8063a7ae00d21461045f578063bedf95251461047f578063ca15c8731461049f57600080fd5b806391d14854116100b057806391d14854146103d157806393867fb514610417578063a217fddf1461044a57600080fd5b806384ba3f69146103325780638cd2403d146103795780639010d07c1461039957600080fd5b80634747919d1161013857806363ee9e4e1161011257806363ee9e4e146102c15780638129fc1c146102e557806382431688146102fa57600080fd5b80634747919d146102655780634cb0821e1461027857806354fd4d50146102a557600080fd5b8063248a9ca311610169578063248a9ca3146101e75780632f2ff15d1461022557806336568abe1461024557600080fd5b806301ffc9a7146101905780630d108f2c146101c557600080fd5b3661018b57005b600080fd5b34801561019c57600080fd5b506101b06101ab3660046126fc565b61051f565b60405190151581526020015b60405180910390f35b3480156101d157600080fd5b506101e56101e036600461273e565b61057b565b005b3480156101f357600080fd5b50610217610202366004612764565b60009081526065602052604090206001015490565b6040519081526020016101bc565b34801561023157600080fd5b506101e5610240366004612792565b6105c2565b34801561025157600080fd5b506101e5610260366004612792565b6105ec565b6101e56102733660046127de565b610679565b34801561028457600080fd5b5061012d5463ffffffff165b60405163ffffffff90911681526020016101bc565b3480156102b157600080fd5b50604051600181526020016101bc565b3480156102cd57600080fd5b5061012d54640100000000900463ffffffff16610290565b3480156102f157600080fd5b506101e56107da565b34801561030657600080fd5b5061031a6103153660046127de565b6108fa565b6040516001600160801b0390911681526020016101bc565b34801561033e57600080fd5b5061035261034d366004612813565b6109b6565b6040805182516001600160801b0390811682526020938401511692810192909252016101bc565b34801561038557600080fd5b506101e5610394366004612830565b610ae8565b3480156103a557600080fd5b506103b96103b43660046128a2565b610b53565b6040516001600160a01b0390911681526020016101bc565b3480156103dd57600080fd5b506101b06103ec366004612792565b60009182526065602090815260408084206001600160a01b0393909316845291905290205460ff1690565b34801561042357600080fd5b507f2172861495e7b85edac73e3cd5fbb42dd675baadf627720e687bcfdaca025096610217565b34801561045657600080fd5b50610217600081565b34801561046b57600080fd5b5061031a61047a3660046127de565b610b72565b34801561048b57600080fd5b506101b061049a366004612813565b610c1a565b3480156104ab57600080fd5b506102176104ba366004612764565b610c41565b3480156104cb57600080fd5b506101e56104da366004612792565b610c58565b3480156104eb57600080fd5b506101e56104fa3660046128da565b610c7d565b34801561050b57600080fd5b506101e561051a36600461273e565b610d57565b60007fffffffff0000000000000000000000000000000000000000000000000000000082167f5a05180f000000000000000000000000000000000000000000000000000000001480610575575061057582610d9a565b92915050565b6105a57f2172861495e7b85edac73e3cd5fbb42dd675baadf627720e687bcfdaca02509633610e31565b8063ffffffff166105b581610e8d565b6105be82610ec7565b5050565b6000828152606560205260409020600101546105dd81610f68565b6105e78383610f72565b505050565b6001600160a01b038116331461066f5760405162461bcd60e51b815260206004820152602f60248201527f416363657373436f6e74726f6c3a2063616e206f6e6c792072656e6f756e636560448201527f20726f6c657320666f722073656c66000000000000000000000000000000000060648201526084015b60405180910390fd5b6105be8282610f94565b610681610fb6565b8161068b8161100f565b816001600160801b031661069e81610e8d565b60006106aa8585610b72565b9050806001600160801b03166000036106ef576040517fd69b537900000000000000000000000000000000000000000000000000000000815260040160405180910390fd5b806001600160801b0316341015610732576040517f9086bdc100000000000000000000000000000000000000000000000000000000815260040160405180910390fd5b61074f6001600160a01b038616336001600160801b0387166110ae565b806001600160801b031634111561077d5761077d6107766001600160801b03831634612982565b3390611119565b604080516001600160801b038087168252831660208201526001600160a01b0387169133917f16ddee9b3f1b2e6f797172fe2cd10a214e749294074e075e451f95aecd0b958c910160405180910390a35050506105be600160fb55565b600054610100900460ff16158080156107fa5750600054600160ff909116105b806108145750303b158015610814575060005460ff166001145b6108865760405162461bcd60e51b815260206004820152602e60248201527f496e697469616c697a61626c653a20636f6e747261637420697320616c72656160448201527f647920696e697469616c697a65640000000000000000000000000000000000006064820152608401610666565b6000805460ff1916600117905580156108a9576000805461ff0019166101001790555b6108b1611239565b80156108f7576000805461ff0019169055604051600181527f7f26b83ff96e1f2b6a682f133852f6798a09c465da95921460cefb38474024989060200160405180910390a15b50565b6000826109068161100f565b6000610911856109b6565b905061091c816112be565b600061095461094f83602001516001600160801b0316876001600160801b031685600001516001600160801b0316611316565b61140a565b90506109696001600160a01b0387163061148d565b816001600160801b031611156109ab576040517fe4455cae00000000000000000000000000000000000000000000000000000000815260040160405180910390fd5b9250505b5092915050565b60408051808201909152600080825260208201526001600160a01b038216600090815261012e602052604081205463ffffffff1690819003610a24576040517fbcb8b8fb00000000000000000000000000000000000000000000000000000000815260040160405180910390fd5b6001600160a01b038316600090815261012f60209081526040918290208251808401909352546001600160801b03808216808552700100000000000000000000000000000000909204169183019190915261012d5463ffffffff16908290610a8d908390612995565b6001600160801b03169052506000610aa583426129c0565b9050610ad561094f83600001516001600160801b03168361012d60049054906101000a900463ffffffff16611534565b6001600160801b03168252509392505050565b60c954600090610afd9061ffff1660016129dd565b905061ffff8116600114610b3d576040517f0dc149f000000000000000000000000000000000000000000000000000000000815260040160405180910390fd5b60c9805461ffff191661ffff8316179055505050565b6000828152609760205260408120610b6b908361157b565b9392505050565b600082610b7e8161100f565b610b916001600160a01b0385163061148d565b836001600160801b03161115610bd3576040517fe4455cae00000000000000000000000000000000000000000000000000000000815260040160405180910390fd5b6000610bde856109b6565b9050610be9816112be565b6109ab61094f82600001516001600160801b0316866001600160801b031684602001516001600160801b0316611316565b6001600160a01b038116600090815261012e602052604081205463ffffffff161515610575565b600081815260976020526040812061057590611587565b600082815260656020526040902060010154610c7381610f68565b6105e78383610f94565b610ca77f2172861495e7b85edac73e3cd5fbb42dd675baadf627720e687bcfdaca02509633610e31565b80610cb1816112be565b6001600160a01b038316600081815261012e60209081526040808320805463ffffffff19164263ffffffff1617905561012f825291829020855186830180516001600160801b0392831670010000000000000000000000000000000091841691909102811790935584519283525116918101919091527fae3f48c001771f8e9868e24d47b9e4295b06b1d78072acf96f167074aa3fab64910160405180910390a2505050565b610d817f2172861495e7b85edac73e3cd5fbb42dd675baadf627720e687bcfdaca02509633610e31565b8063ffffffff16610d9181610e8d565b6105be82611591565b60007fffffffff0000000000000000000000000000000000000000000000000000000082167f7965db0b00000000000000000000000000000000000000000000000000000000148061057557507f01ffc9a7000000000000000000000000000000000000000000000000000000007fffffffff00000000000000000000000000000000000000000000000000000000831614610575565b60008281526065602090815260408083206001600160a01b038516845290915290205460ff166105be576040517f4ca8886700000000000000000000000000000000000000000000000000000000815260040160405180910390fd5b806000036108f7576040517f7c946ed700000000000000000000000000000000000000000000000000000000815260040160405180910390fd5b61012d5463ffffffff64010000000090910481169082168103610ee8575050565b61012d80547fffffffffffffffffffffffffffffffffffffffffffffffff00000000ffffffff1664010000000063ffffffff8581169182029290921790925560408051918416825260208201929092527f91a3ff80be5536f6b4a03994984844ded4c1470ac2e7c1a1f9445464358788c391015b60405180910390a15050565b6108f781336115fd565b610f7c8282611672565b60008281526097602052604090206105e79082611714565b610f9e8282611729565b60008281526097602052604090206105e790826117ac565b600260fb54036110085760405162461bcd60e51b815260206004820152601f60248201527f5265656e7472616e637947756172643a207265656e7472616e742063616c6c006044820152606401610666565b600260fb55565b611021816001600160a01b03166117c1565b15611058576040517fc1ab6dc100000000000000000000000000000000000000000000000000000000815260040160405180910390fd5b6001600160a01b038116600090815261012e602052604090205463ffffffff166108f7576040517fbcb8b8fb00000000000000000000000000000000000000000000000000000000815260040160405180910390fd5b806000036110bb57505050565b6110c4836117c1565b15611105576040516001600160a01b0383169082156108fc029083906000818181858888f193505050501580156110ff573d6000803e3d6000fd5b50505050565b6105e76001600160a01b03841683836117e8565b804710156111695760405162461bcd60e51b815260206004820152601d60248201527f416464726573733a20696e73756666696369656e742062616c616e63650000006044820152606401610666565b6000826001600160a01b03168260405160006040518083038185875af1925050503d80600081146111b6576040519150601f19603f3d011682016040523d82523d6000602084013e6111bb565b606091505b50509050806105e75760405162461bcd60e51b815260206004820152603a60248201527f416464726573733a20756e61626c6520746f2073656e642076616c75652c207260448201527f6563697069656e74206d617920686176652072657665727465640000000000006064820152608401610666565b600160fb55565b600054610100900460ff166112a45760405162461bcd60e51b815260206004820152602b60248201527f496e697469616c697a61626c653a20636f6e7472616374206973206e6f74206960448201526a6e697469616c697a696e6760a81b6064820152608401610666565b6112ac611868565b6112b46118e3565b6112bc611956565b565b60208101516001600160801b031615806112e0575080516001600160801b0316155b156108f7576040517ebfc92100000000000000000000000000000000000000000000000000000000815260040160405180910390fd5b600080600061132586866119d7565b915091508160000361134a57838181611340576113406129f8565b0492505050610b6b565b838210611383576040517f35278d1200000000000000000000000000000000000000000000000000000000815260040160405180910390fd5b6000611390878787611a12565b90506000806113a0858585611a2d565b91509150816000036113c8578681816113bb576113bb6129f8565b0495505050505050610b6b565b60008781038816906113db848484611a5d565b905060006113f7838b816113f1576113f16129f8565b04611a9a565b919091029b9a5050505050505050505050565b60006001600160801b038211156114895760405162461bcd60e51b815260206004820152602760248201527f53616665436173743a2076616c756520646f65736e27742066697420696e203160448201527f32382062697473000000000000000000000000000000000000000000000000006064820152608401610666565b5090565b6000611498836117c1565b156114ae57506001600160a01b03811631610575565b826040517f70a082310000000000000000000000000000000000000000000000000000000081526001600160a01b03848116600483015291909116906370a0823190602401602060405180830381865afa158015611510573d6000803e3d6000fd5b505050506040513d601f19601f82011682018060405250810190610b6b9190612a0e565b6040805180820190915263ffffffff8084168252821660208201526000908161155c82611abb565b90506115718682602001518360000151611316565b9695505050505050565b6000610b6b8383611ebf565b6000610575825490565b61012d5463ffffffff90811690821681036115aa575050565b61012d805463ffffffff191663ffffffff84811691821790925560408051928416835260208301919091527f04ee60e68c7a4f836ca7ca7f5d9772049ac5846fc054b0d809e0e3de754952b09101610f5c565b60008281526065602090815260408083206001600160a01b038516845290915290205460ff166105be5761163081611ee9565b61163b836020611efb565b60405160200161164c929190612a4b565b60408051601f198184030181529082905262461bcd60e51b825261066691600401612acc565b60008281526065602090815260408083206001600160a01b038516845290915290205460ff166105be5760008281526065602090815260408083206001600160a01b03851684529091529020805460ff191660011790556116d03390565b6001600160a01b0316816001600160a01b0316837f2f8788117e7eff1d82e926ec794901d17c78024a50270940304540a733656f0d60405160405180910390a45050565b6000610b6b836001600160a01b038416612124565b60008281526065602090815260408083206001600160a01b038516845290915290205460ff16156105be5760008281526065602090815260408083206001600160a01b0385168085529252808320805460ff1916905551339285917ff6391f5c32d9c69d2a47ea670b442974b53935d1edc7fd64eb21e047a839171b9190a45050565b6000610b6b836001600160a01b038416612173565b60006001600160a01b03821673eeeeeeeeeeeeeeeeeeeeeeeeeeeeeeeeeeeeeeee14610575565b604080516001600160a01b038416602482015260448082018490528251808303909101815260649091019091526020810180517bffffffffffffffffffffffffffffffffffffffffffffffffffffffff167fa9059cbb000000000000000000000000000000000000000000000000000000001790526105e7908490612266565b600054610100900460ff166118d35760405162461bcd60e51b815260206004820152602b60248201527f496e697469616c697a61626c653a20636f6e7472616374206973206e6f74206960448201526a6e697469616c697a696e6760a81b6064820152608401610666565b6118db61234e565b6112bc6123b9565b600054610100900460ff1661194e5760405162461bcd60e51b815260206004820152602b60248201527f496e697469616c697a61626c653a20636f6e7472616374206973206e6f74206960448201526a6e697469616c697a696e6760a81b6064820152608401610666565b6112bc612486565b600054610100900460ff166119c15760405162461bcd60e51b815260206004820152602b60248201527f496e697469616c697a61626c653a20636f6e7472616374206973206e6f74206960448201526a6e697469616c697a696e6760a81b6064820152608401610666565b6119cb6002611591565b6112bc620d2f00610ec7565b60008060006119e685856124f1565b90508484028082106119ff579081900392509050611a0b565b60018183030393509150505b9250929050565b60008180611a2257611a226129f8565b838509949350505050565b600080828410611a435750839050818303611a55565b611a4e600186612982565b9150508183035b935093915050565b600080611a7b8380830381611a7457611a746129f8565b0460010190565b9050828481611a8c57611a8c6129f8565b048186021795945050505050565b60006001815b60088110156109af5783820260020382029150600101611aa0565b60408051808201909152600080825260208201526000611af46f58b90bfbe8e7bcd5e4f1d9cc01f97b5784600001518560200151611316565b9050600080807008000000000000000000000000000000008410611b44576040517f35278d1200000000000000000000000000000000000000000000000000000000815260040160405180910390fd5b6f10000000000000000000000000000000840692508291506001607f1b8280020491506710e1b3be415a00008202016001607f1b8383020491506705a0913f6b1e00008202016001607f1b838302049150670168244fdac780008202016001607f1b838302049150664807432bc180008202016001607f1b838302049150660c0135dca040008202016001607f1b8383020491506601b707b1cdc0008202016001607f1b8383020491506536e0f639b8008202016001607f1b838302049150650618fee9f8008202016001607f1b838302049150649c197dcc008202016001607f1b838302049150640e30dce4008202016001607f1b83830204915064012ebd13008202016001607f1b8383020491506317499f008202016001607f1b8383020491506301a9d4808202016001607f1b838302049150621c63808202016001607f1b8383020491506201c6388202016001607f1b838302049150611ab88202016001607f1b83830204915061017c8202016001607f1b83830204915060148202016001607f1b83830204915081016001607f1b836721c3677c82b400008304010190506f10000000000000000000000000000000841615611d295770018ebef9eac820ae8682b9793ac6d1e7767001c3d6a24ed82218787d624d3e5eba95f982020490505b6f20000000000000000000000000000000841615611d6b577001368b2fc6f9609fe7aceb46aa619baed470018ebef9eac820ae8682b9793ac6d1e77882020490505b6f40000000000000000000000000000000841615611dac576fbc5ab1b16779be3575bd8f0520a9f21f7001368b2fc6f9609fe7aceb46aa619baed582020490505b6001607f1b841615611de0576f454aaa8efe072e7f6ddbab84b40a55c96fbc5ab1b16779be3575bd8f0520a9f21e82020490505b700100000000000000000000000000000000841615611e21576f0960aadc109e7a3bf4578099615711ea6f454aaa8efe072e7f6ddbab84b40a55c582020490505b700200000000000000000000000000000000841615611e61576e2bf84208204f5977f9a8cf01fdce3d6f0960aadc109e7a3bf4578099615711d782020490505b700400000000000000000000000000000000841615611e9f576d03c6ab775dd0b95b4cbee7e65d116e2bf84208204f5977f9a8cf01fdc30782020490505b604080518082019091529081526001607f1b602082015295945050505050565b6000826000018281548110611ed657611ed6612aff565b9060005260206000200154905092915050565b60606105756001600160a01b03831660145b60606000611f0a836002612b15565b611f15906002612b2c565b67ffffffffffffffff811115611f2d57611f2d6128c4565b6040519080825280601f01601f191660200182016040528015611f57576020820181803683370190505b5090507f300000000000000000000000000000000000000000000000000000000000000081600081518110611f8e57611f8e612aff565b60200101907effffffffffffffffffffffffffffffffffffffffffffffffffffffffffffff1916908160001a9053507f780000000000000000000000000000000000000000000000000000000000000081600181518110611ff157611ff1612aff565b60200101907effffffffffffffffffffffffffffffffffffffffffffffffffffffffffffff1916908160001a905350600061202d846002612b15565b612038906001612b2c565b90505b60018111156120d5577f303132333435363738396162636465660000000000000000000000000000000085600f166010811061207957612079612aff565b1a60f81b82828151811061208f5761208f612aff565b60200101907effffffffffffffffffffffffffffffffffffffffffffffffffffffffffffff1916908160001a90535060049490941c936120ce81612b3f565b905061203b565b508315610b6b5760405162461bcd60e51b815260206004820181905260248201527f537472696e67733a20686578206c656e67746820696e73756666696369656e746044820152606401610666565b600081815260018301602052604081205461216b57508154600181810184556000848152602080822090930184905584548482528286019093526040902091909155610575565b506000610575565b6000818152600183016020526040812054801561225c576000612197600183612982565b85549091506000906121ab90600190612982565b90508181146122105760008660000182815481106121cb576121cb612aff565b90600052602060002001549050808760000184815481106121ee576121ee612aff565b6000918252602080832090910192909255918252600188019052604090208390555b855486908061222157612221612b56565b600190038181906000526020600020016000905590558560010160008681526020019081526020016000206000905560019350505050610575565b6000915050610575565b60006122bb826040518060400160405280602081526020017f5361666545524332303a206c6f772d6c6576656c2063616c6c206661696c6564815250856001600160a01b03166125009092919063ffffffff16565b90508051600014806122dc5750808060200190518101906122dc9190612b6c565b6105e75760405162461bcd60e51b815260206004820152602a60248201527f5361666545524332303a204552433230206f7065726174696f6e20646964206e60448201527f6f742073756363656564000000000000000000000000000000000000000000006064820152608401610666565b600054610100900460ff166112bc5760405162461bcd60e51b815260206004820152602b60248201527f496e697469616c697a61626c653a20636f6e7472616374206973206e6f74206960448201526a6e697469616c697a696e6760a81b6064820152608401610666565b600054610100900460ff166124245760405162461bcd60e51b815260206004820152602b60248201527f496e697469616c697a61626c653a20636f6e7472616374206973206e6f74206960448201526a6e697469616c697a696e6760a81b6064820152608401610666565b60c9805461ffff1916600117905561245c7f2172861495e7b85edac73e3cd5fbb42dd675baadf627720e687bcfdaca02509680612517565b6112bc7f2172861495e7b85edac73e3cd5fbb42dd675baadf627720e687bcfdaca02509633612562565b600054610100900460ff166112325760405162461bcd60e51b815260206004820152602b60248201527f496e697469616c697a61626c653a20636f6e7472616374206973206e6f74206960448201526a6e697469616c697a696e6760a81b6064820152608401610666565b60006000198284099392505050565b606061250f848460008561256c565b949350505050565b600082815260656020526040808220600101805490849055905190918391839186917fbd79b86ffe0ab8e8776151514217cd7cacd52c909f66475c3af44e129f0b00ff9190a4505050565b6105be8282610f72565b6060824710156125e45760405162461bcd60e51b815260206004820152602660248201527f416464726573733a20696e73756666696369656e742062616c616e636520666f60448201527f722063616c6c00000000000000000000000000000000000000000000000000006064820152608401610666565b600080866001600160a01b031685876040516126009190612b8e565b60006040518083038185875af1925050503d806000811461263d576040519150601f19603f3d011682016040523d82523d6000602084013e612642565b606091505b50915091506126538783838761265e565b979650505050505050565b606083156126cd5782516000036126c6576001600160a01b0385163b6126c65760405162461bcd60e51b815260206004820152601d60248201527f416464726573733a2063616c6c20746f206e6f6e2d636f6e74726163740000006044820152606401610666565b508161250f565b61250f83838151156126e25781518083602001fd5b8060405162461bcd60e51b81526004016106669190612acc565b60006020828403121561270e57600080fd5b81357fffffffff0000000000000000000000000000000000000000000000000000000081168114610b6b57600080fd5b60006020828403121561275057600080fd5b813563ffffffff81168114610b6b57600080fd5b60006020828403121561277657600080fd5b5035919050565b6001600160a01b03811681146108f757600080fd5b600080604083850312156127a557600080fd5b8235915060208301356127b78161277d565b809150509250929050565b80356001600160801b03811681146127d957600080fd5b919050565b600080604083850312156127f157600080fd5b82356127fc8161277d565b915061280a602084016127c2565b90509250929050565b60006020828403121561282557600080fd5b8135610b6b8161277d565b6000806020838503121561284357600080fd5b823567ffffffffffffffff8082111561285b57600080fd5b818501915085601f83011261286f57600080fd5b81358181111561287e57600080fd5b86602082850101111561289057600080fd5b60209290920196919550909350505050565b600080604083850312156128b557600080fd5b50508035926020909101359150565b634e487b7160e01b600052604160045260246000fd5b60008082840360608112156128ee57600080fd5b83356128f98161277d565b92506040601f198201121561290d57600080fd5b506040516040810181811067ffffffffffffffff8211171561293f57634e487b7160e01b600052604160045260246000fd5b60405261294e602085016127c2565b815261295c604085016127c2565b6020820152809150509250929050565b634e487b7160e01b600052601160045260246000fd5b818103818111156105755761057561296c565b6001600160801b038181168382160280821691908281146129b8576129b861296c565b505092915050565b63ffffffff8281168282160390808211156109af576109af61296c565b61ffff8181168382160190808211156109af576109af61296c565b634e487b7160e01b600052601260045260246000fd5b600060208284031215612a2057600080fd5b5051919050565b60005b83811015612a42578181015183820152602001612a2a565b50506000910152565b7f416363657373436f6e74726f6c3a206163636f756e7420000000000000000000815260008351612a83816017850160208801612a27565b7f206973206d697373696e6720726f6c65200000000000000000000000000000006017918401918201528351612ac0816028840160208801612a27565b01602801949350505050565b6020815260008251806020840152612aeb816040850160208701612a27565b601f01601f19169190910160400192915050565b634e487b7160e01b600052603260045260246000fd5b80820281158282048414176105755761057561296c565b808201808211156105755761057561296c565b600081612b4e57612b4e61296c565b506000190190565b634e487b7160e01b600052603160045260246000fd5b600060208284031215612b7e57600080fd5b81518015158114610b6b57600080fd5b60008251612ba0818460208701612a27565b919091019291505056fea164736f6c6343000813000a2172861495e7b85edac73e3cd5fbb42dd675baadf627720e687bcfdaca025096496e697469616c697a61626c653a20636f6e7472616374206973206e6f742069",
  "devdoc": {
    "events": {
      "Initialized(uint8)": {
        "details": "Triggered when the contract has been initialized or reinitialized."
      },
      "RoleAdminChanged(bytes32,bytes32,bytes32)": {
        "details": "Emitted when `newAdminRole` is set as ``role``'s admin role, replacing `previousAdminRole` `DEFAULT_ADMIN_ROLE` is the starting admin for all roles, despite {RoleAdminChanged} not being emitted signaling this. _Available since v3.1._"
      },
      "RoleGranted(bytes32,address,address)": {
        "details": "Emitted when `account` is granted `role`. `sender` is the account that originated the contract call, an admin role bearer except when using {AccessControl-_setupRole}."
      },
      "RoleRevoked(bytes32,address,address)": {
        "details": "Emitted when `account` is revoked `role`. `sender` is the account that originated the contract call:   - if using `revokeRole`, it is the admin role bearer   - if using `renounceRole`, it is the role bearer (i.e. `account`)"
      }
    },
    "kind": "dev",
    "methods": {
      "constructor": {
        "details": "used to initialize the implementation"
      },
      "getRoleAdmin(bytes32)": {
        "details": "Returns the admin role that controls `role`. See {grantRole} and {revokeRole}. To change a role's admin, use {_setRoleAdmin}."
      },
      "getRoleMember(bytes32,uint256)": {
        "details": "Returns one of the accounts that have `role`. `index` must be a value between 0 and {getRoleMemberCount}, non-inclusive. Role bearers are not sorted in any particular way, and their ordering may change at any point. WARNING: When using {getRoleMember} and {getRoleMemberCount}, make sure you perform all queries on the same block. See the following https://forum.openzeppelin.com/t/iterating-over-elements-on-enumerableset-in-openzeppelin-contracts/2296[forum post] for more information."
      },
      "getRoleMemberCount(bytes32)": {
        "details": "Returns the number of accounts that have `role`. Can be used together with {getRoleMember} to enumerate all bearers of a role."
      },
      "grantRole(bytes32,address)": {
        "details": "Grants `role` to `account`. If `account` had not been already granted `role`, emits a {RoleGranted} event. Requirements: - the caller must have ``role``'s admin role. May emit a {RoleGranted} event."
      },
      "hasRole(bytes32,address)": {
        "details": "Returns `true` if `account` has been granted `role`."
      },
      "initialize()": {
        "details": "fully initializes the contract and its parents"
      },
      "postUpgrade(bytes)": {
        "details": "performs post-upgrade initialization requirements: - this must and can be called only once per-upgrade"
      },
      "renounceRole(bytes32,address)": {
        "details": "Revokes `role` from the calling account. Roles are often managed via {grantRole} and {revokeRole}: this function's purpose is to provide a mechanism for accounts to lose their privileges if they are compromised (such as when a trusted device is misplaced). If the calling account had been revoked `role`, emits a {RoleRevoked} event. Requirements: - the caller must be `account`. May emit a {RoleRevoked} event."
      },
      "revokeRole(bytes32,address)": {
        "details": "Revokes `role` from `account`. If `account` had been granted `role`, emits a {RoleRevoked} event. Requirements: - the caller must have ``role``'s admin role. May emit a {RoleRevoked} event."
      },
      "roleAdmin()": {
        "details": "returns the admin role"
      },
      "supportsInterface(bytes4)": {
        "details": "See {IERC165-supportsInterface}."
      }
    },
    "version": 1
  },
  "userdoc": {
    "events": {
      "MarketPriceMultiplyUpdated(uint32,uint32)": {
        "notice": "triggered when the market price multiplier is updated"
      },
      "PriceDecayHalfLifeUpdated(uint32,uint32)": {
        "notice": "triggered when the price decay halflife is updated"
      },
      "TokenTraded(address,address,uint128,uint128)": {
        "notice": "triggered after a successful trade is executed"
      },
      "TradingEnabled(address,(uint128,uint128))": {
        "notice": "triggered when trading is enabled for a token"
      }
    },
    "kind": "user",
    "methods": {
      "enableTrading(address,(uint128,uint128))": {
        "notice": "enable trading for a token and set the initial price requirements: - the caller must be the admin of the contract"
      },
      "expectedTradeInput(address,uint128)": {
        "notice": "returns the expected trade input (how much eth to send) given an token amount received"
      },
      "expectedTradeReturn(address,uint128)": {
        "notice": "returns the expected trade output (tokens received) given an eth amount sent for a token"
      },
      "marketPriceMultiply()": {
        "notice": "returns the market price multiplier"
      },
      "priceDecayHalfLife()": {
        "notice": "returns the price decay half-life according to the exp decay formula"
      },
      "setMarketPriceMultiply(uint32)": {
        "notice": "sets the market price multiply requirements: - the caller must be the admin of the contract"
      },
      "setPriceDecayHalfLife(uint32)": {
        "notice": "sets the price decay half-life requirements: - the caller must be the admin of the contract"
      },
      "tokenPrice(address)": {
        "notice": "returns the current token price (ETH / TKN)"
      },
      "trade(address,uint128)": {
        "notice": "trades ETH for *amount* of token based on the current token price (trade by target amount)"
      },
      "tradingEnabled(address)": {
        "notice": "returns true if trading is enabled for token"
      }
    },
    "notice": "CarbonPOL contract",
    "version": 1
  },
  "storageLayout": {
    "storage": [
      {
        "astId": 588,
        "contract": "contracts/pol/CarbonPOL.sol:CarbonPOL",
        "label": "_initialized",
        "offset": 0,
        "slot": "0",
        "type": "t_uint8"
      },
      {
        "astId": 591,
        "contract": "contracts/pol/CarbonPOL.sol:CarbonPOL",
        "label": "_initializing",
        "offset": 1,
        "slot": "0",
        "type": "t_bool"
      },
      {
        "astId": 2445,
        "contract": "contracts/pol/CarbonPOL.sol:CarbonPOL",
        "label": "__gap",
        "offset": 0,
        "slot": "1",
        "type": "t_array(t_uint256)50_storage"
      },
      {
        "astId": 2718,
        "contract": "contracts/pol/CarbonPOL.sol:CarbonPOL",
        "label": "__gap",
        "offset": 0,
        "slot": "51",
        "type": "t_array(t_uint256)50_storage"
      },
      {
        "astId": 184,
        "contract": "contracts/pol/CarbonPOL.sol:CarbonPOL",
        "label": "_roles",
        "offset": 0,
        "slot": "101",
        "type": "t_mapping(t_bytes32,t_struct(RoleData)179_storage)"
      },
      {
        "astId": 479,
        "contract": "contracts/pol/CarbonPOL.sol:CarbonPOL",
        "label": "__gap",
        "offset": 0,
        "slot": "102",
        "type": "t_array(t_uint256)49_storage"
      },
      {
        "astId": 33,
        "contract": "contracts/pol/CarbonPOL.sol:CarbonPOL",
        "label": "_roleMembers",
        "offset": 0,
        "slot": "151",
        "type": "t_mapping(t_bytes32,t_struct(AddressSet)5569_storage)"
      },
      {
        "astId": 143,
        "contract": "contracts/pol/CarbonPOL.sol:CarbonPOL",
        "label": "__gap",
        "offset": 0,
        "slot": "152",
        "type": "t_array(t_uint256)49_storage"
      },
      {
        "astId": 20728,
        "contract": "contracts/pol/CarbonPOL.sol:CarbonPOL",
        "label": "_initializations",
        "offset": 0,
        "slot": "201",
        "type": "t_uint16"
      },
      {
        "astId": 20734,
        "contract": "contracts/pol/CarbonPOL.sol:CarbonPOL",
        "label": "__gap",
        "offset": 0,
        "slot": "202",
        "type": "t_array(t_uint256)49_storage"
      },
      {
        "astId": 891,
        "contract": "contracts/pol/CarbonPOL.sol:CarbonPOL",
        "label": "_status",
        "offset": 0,
        "slot": "251",
        "type": "t_uint256"
      },
      {
        "astId": 960,
        "contract": "contracts/pol/CarbonPOL.sol:CarbonPOL",
        "label": "__gap",
        "offset": 0,
        "slot": "252",
        "type": "t_array(t_uint256)49_storage"
      },
      {
        "astId": 18542,
        "contract": "contracts/pol/CarbonPOL.sol:CarbonPOL",
        "label": "_marketPriceMultiply",
        "offset": 0,
        "slot": "301",
        "type": "t_uint32"
      },
      {
        "astId": 18544,
        "contract": "contracts/pol/CarbonPOL.sol:CarbonPOL",
        "label": "_priceDecayHalfLife",
        "offset": 4,
        "slot": "301",
        "type": "t_uint32"
      },
      {
        "astId": 18549,
        "contract": "contracts/pol/CarbonPOL.sol:CarbonPOL",
        "label": "_tradingStartTimes",
        "offset": 0,
        "slot": "302",
        "type": "t_mapping(t_userDefinedValueType(Token)19300,t_uint32)"
      },
      {
        "astId": 18555,
        "contract": "contracts/pol/CarbonPOL.sol:CarbonPOL",
        "label": "_initialPrice",
        "offset": 0,
        "slot": "303",
        "type": "t_mapping(t_userDefinedValueType(Token)19300,t_struct(Price)19140_storage)"
      },
      {
        "astId": 18561,
        "contract": "contracts/pol/CarbonPOL.sol:CarbonPOL",
        "label": "__gap",
        "offset": 0,
        "slot": "304",
        "type": "t_array(t_uint256)47_storage"
      }
    ],
    "types": {
      "t_address": {
        "encoding": "inplace",
        "label": "address",
        "numberOfBytes": "20"
      },
      "t_array(t_bytes32)dyn_storage": {
        "base": "t_bytes32",
        "encoding": "dynamic_array",
        "label": "bytes32[]",
        "numberOfBytes": "32"
      },
      "t_array(t_uint256)47_storage": {
        "base": "t_uint256",
        "encoding": "inplace",
        "label": "uint256[47]",
        "numberOfBytes": "1504"
      },
      "t_array(t_uint256)49_storage": {
        "base": "t_uint256",
        "encoding": "inplace",
        "label": "uint256[49]",
        "numberOfBytes": "1568"
      },
      "t_array(t_uint256)50_storage": {
        "base": "t_uint256",
        "encoding": "inplace",
        "label": "uint256[50]",
        "numberOfBytes": "1600"
      },
      "t_bool": {
        "encoding": "inplace",
        "label": "bool",
        "numberOfBytes": "1"
      },
      "t_bytes32": {
        "encoding": "inplace",
        "label": "bytes32",
        "numberOfBytes": "32"
      },
      "t_mapping(t_address,t_bool)": {
        "encoding": "mapping",
        "key": "t_address",
        "label": "mapping(address => bool)",
        "numberOfBytes": "32",
        "value": "t_bool"
      },
      "t_mapping(t_bytes32,t_struct(AddressSet)5569_storage)": {
        "encoding": "mapping",
        "key": "t_bytes32",
        "label": "mapping(bytes32 => struct EnumerableSetUpgradeable.AddressSet)",
        "numberOfBytes": "32",
        "value": "t_struct(AddressSet)5569_storage"
      },
      "t_mapping(t_bytes32,t_struct(RoleData)179_storage)": {
        "encoding": "mapping",
        "key": "t_bytes32",
        "label": "mapping(bytes32 => struct AccessControlUpgradeable.RoleData)",
        "numberOfBytes": "32",
        "value": "t_struct(RoleData)179_storage"
      },
      "t_mapping(t_bytes32,t_uint256)": {
        "encoding": "mapping",
        "key": "t_bytes32",
        "label": "mapping(bytes32 => uint256)",
        "numberOfBytes": "32",
        "value": "t_uint256"
      },
      "t_mapping(t_userDefinedValueType(Token)19300,t_struct(Price)19140_storage)": {
        "encoding": "mapping",
        "key": "t_userDefinedValueType(Token)19300",
        "label": "mapping(Token => struct ICarbonPOL.Price)",
        "numberOfBytes": "32",
        "value": "t_struct(Price)19140_storage"
      },
      "t_mapping(t_userDefinedValueType(Token)19300,t_uint32)": {
        "encoding": "mapping",
        "key": "t_userDefinedValueType(Token)19300",
        "label": "mapping(Token => uint32)",
        "numberOfBytes": "32",
        "value": "t_uint32"
      },
      "t_struct(AddressSet)5569_storage": {
        "encoding": "inplace",
        "label": "struct EnumerableSetUpgradeable.AddressSet",
        "members": [
          {
            "astId": 5568,
            "contract": "contracts/pol/CarbonPOL.sol:CarbonPOL",
            "label": "_inner",
            "offset": 0,
            "slot": "0",
            "type": "t_struct(Set)5254_storage"
          }
        ],
        "numberOfBytes": "64"
      },
      "t_struct(Price)19140_storage": {
        "encoding": "inplace",
        "label": "struct ICarbonPOL.Price",
        "members": [
          {
            "astId": 19137,
            "contract": "contracts/pol/CarbonPOL.sol:CarbonPOL",
            "label": "ethAmount",
            "offset": 0,
            "slot": "0",
            "type": "t_uint128"
          },
          {
            "astId": 19139,
            "contract": "contracts/pol/CarbonPOL.sol:CarbonPOL",
            "label": "tokenAmount",
            "offset": 16,
            "slot": "0",
            "type": "t_uint128"
          }
        ],
        "numberOfBytes": "32"
      },
      "t_struct(RoleData)179_storage": {
        "encoding": "inplace",
        "label": "struct AccessControlUpgradeable.RoleData",
        "members": [
          {
            "astId": 176,
            "contract": "contracts/pol/CarbonPOL.sol:CarbonPOL",
            "label": "members",
            "offset": 0,
            "slot": "0",
            "type": "t_mapping(t_address,t_bool)"
          },
          {
            "astId": 178,
            "contract": "contracts/pol/CarbonPOL.sol:CarbonPOL",
            "label": "adminRole",
            "offset": 0,
            "slot": "1",
            "type": "t_bytes32"
          }
        ],
        "numberOfBytes": "64"
      },
      "t_struct(Set)5254_storage": {
        "encoding": "inplace",
        "label": "struct EnumerableSetUpgradeable.Set",
        "members": [
          {
            "astId": 5249,
            "contract": "contracts/pol/CarbonPOL.sol:CarbonPOL",
            "label": "_values",
            "offset": 0,
            "slot": "0",
            "type": "t_array(t_bytes32)dyn_storage"
          },
          {
            "astId": 5253,
            "contract": "contracts/pol/CarbonPOL.sol:CarbonPOL",
            "label": "_indexes",
            "offset": 0,
            "slot": "1",
            "type": "t_mapping(t_bytes32,t_uint256)"
          }
        ],
        "numberOfBytes": "64"
      },
      "t_uint128": {
        "encoding": "inplace",
        "label": "uint128",
        "numberOfBytes": "16"
      },
      "t_uint16": {
        "encoding": "inplace",
        "label": "uint16",
        "numberOfBytes": "2"
      },
      "t_uint256": {
        "encoding": "inplace",
        "label": "uint256",
        "numberOfBytes": "32"
      },
      "t_uint32": {
        "encoding": "inplace",
        "label": "uint32",
        "numberOfBytes": "4"
      },
      "t_uint8": {
        "encoding": "inplace",
        "label": "uint8",
        "numberOfBytes": "1"
      },
      "t_userDefinedValueType(Token)19300": {
        "encoding": "inplace",
        "label": "Token",
        "numberOfBytes": "20"
      }
    }
  }
}