{
  "address": "0x779b3BEa233EBC5947C5fF0FFd7F4F90654Ab123",
  "abi": [
    {
      "inputs": [
        {
          "internalType": "Token",
          "name": "initBnt",
          "type": "address"
        }
      ],
      "stateMutability": "nonpayable",
      "type": "constructor"
    },
    {
      "inputs": [],
      "name": "AccessDenied",
      "type": "error"
    },
    {
      "inputs": [],
      "name": "AlreadyInitialized",
      "type": "error"
    },
    {
      "inputs": [],
      "name": "InsufficientAmountForTrading",
      "type": "error"
    },
    {
      "inputs": [],
      "name": "InsufficientNativeTokenSent",
      "type": "error"
    },
    {
      "inputs": [],
      "name": "InvalidAddress",
      "type": "error"
    },
    {
      "inputs": [],
      "name": "InvalidPrice",
      "type": "error"
    },
    {
      "inputs": [],
      "name": "InvalidToken",
      "type": "error"
    },
    {
      "inputs": [],
      "name": "InvalidTrade",
      "type": "error"
    },
    {
      "inputs": [],
      "name": "Overflow",
      "type": "error"
    },
    {
      "inputs": [],
      "name": "TradingDisabled",
      "type": "error"
    },
    {
      "inputs": [],
      "name": "ZeroValue",
      "type": "error"
    },
    {
      "anonymous": false,
      "inputs": [
        {
          "indexed": false,
          "internalType": "uint128",
          "name": "prevEthSaleAmount",
          "type": "uint128"
        },
        {
          "indexed": false,
          "internalType": "uint128",
          "name": "newEthSaleAmount",
          "type": "uint128"
        }
      ],
      "name": "EthSaleAmountUpdated",
      "type": "event"
    },
    {
      "anonymous": false,
      "inputs": [
        {
          "indexed": false,
          "internalType": "uint8",
          "name": "version",
          "type": "uint8"
        }
      ],
      "name": "Initialized",
      "type": "event"
    },
    {
      "anonymous": false,
      "inputs": [
        {
          "indexed": false,
          "internalType": "uint32",
          "name": "prevMarketPriceMultiply",
          "type": "uint32"
        },
        {
          "indexed": false,
          "internalType": "uint32",
          "name": "newMarketPriceMultiply",
          "type": "uint32"
        }
      ],
      "name": "MarketPriceMultiplyUpdated",
      "type": "event"
    },
    {
      "anonymous": false,
      "inputs": [
        {
          "indexed": false,
          "internalType": "uint128",
          "name": "prevMinEthSaleAmount",
          "type": "uint128"
        },
        {
          "indexed": false,
          "internalType": "uint128",
          "name": "newMinEthSaleAmount",
          "type": "uint128"
        }
      ],
      "name": "MinEthSaleAmountUpdated",
      "type": "event"
    },
    {
      "anonymous": false,
      "inputs": [
        {
          "indexed": false,
          "internalType": "uint32",
          "name": "prevPriceDecayHalfLife",
          "type": "uint32"
        },
        {
          "indexed": false,
          "internalType": "uint32",
          "name": "newPriceDecayHalfLife",
          "type": "uint32"
        }
      ],
      "name": "PriceDecayHalfLifeUpdated",
      "type": "event"
    },
    {
      "anonymous": false,
      "inputs": [
        {
          "indexed": true,
          "internalType": "Token",
          "name": "token",
          "type": "address"
        },
        {
          "components": [
            {
              "internalType": "uint128",
              "name": "sourceAmount",
              "type": "uint128"
            },
            {
              "internalType": "uint128",
              "name": "targetAmount",
              "type": "uint128"
            }
          ],
          "indexed": false,
          "internalType": "struct ICarbonPOL.Price",
          "name": "price",
          "type": "tuple"
        }
      ],
      "name": "PriceUpdated",
      "type": "event"
    },
    {
      "anonymous": false,
      "inputs": [
        {
          "indexed": true,
          "internalType": "bytes32",
          "name": "role",
          "type": "bytes32"
        },
        {
          "indexed": true,
          "internalType": "bytes32",
          "name": "previousAdminRole",
          "type": "bytes32"
        },
        {
          "indexed": true,
          "internalType": "bytes32",
          "name": "newAdminRole",
          "type": "bytes32"
        }
      ],
      "name": "RoleAdminChanged",
      "type": "event"
    },
    {
      "anonymous": false,
      "inputs": [
        {
          "indexed": true,
          "internalType": "bytes32",
          "name": "role",
          "type": "bytes32"
        },
        {
          "indexed": true,
          "internalType": "address",
          "name": "account",
          "type": "address"
        },
        {
          "indexed": true,
          "internalType": "address",
          "name": "sender",
          "type": "address"
        }
      ],
      "name": "RoleGranted",
      "type": "event"
    },
    {
      "anonymous": false,
      "inputs": [
        {
          "indexed": true,
          "internalType": "bytes32",
          "name": "role",
          "type": "bytes32"
        },
        {
          "indexed": true,
          "internalType": "address",
          "name": "account",
          "type": "address"
        },
        {
          "indexed": true,
          "internalType": "address",
          "name": "sender",
          "type": "address"
        }
      ],
      "name": "RoleRevoked",
      "type": "event"
    },
    {
      "anonymous": false,
      "inputs": [
        {
          "indexed": true,
          "internalType": "address",
          "name": "caller",
          "type": "address"
        },
        {
          "indexed": true,
          "internalType": "Token",
          "name": "token",
          "type": "address"
        },
        {
          "indexed": false,
          "internalType": "uint128",
          "name": "sourceAmount",
          "type": "uint128"
        },
        {
          "indexed": false,
          "internalType": "uint128",
          "name": "targetAmount",
          "type": "uint128"
        }
      ],
      "name": "TokenTraded",
      "type": "event"
    },
    {
      "anonymous": false,
      "inputs": [
        {
          "indexed": true,
          "internalType": "Token",
          "name": "token",
          "type": "address"
        },
        {
          "components": [
            {
              "internalType": "uint128",
              "name": "sourceAmount",
              "type": "uint128"
            },
            {
              "internalType": "uint128",
              "name": "targetAmount",
              "type": "uint128"
            }
          ],
          "indexed": false,
          "internalType": "struct ICarbonPOL.Price",
          "name": "price",
          "type": "tuple"
        }
      ],
      "name": "TradingEnabled",
      "type": "event"
    },
    {
      "inputs": [],
      "name": "DEFAULT_ADMIN_ROLE",
      "outputs": [
        {
          "internalType": "bytes32",
          "name": "",
          "type": "bytes32"
        }
      ],
      "stateMutability": "view",
      "type": "function"
    },
    {
      "inputs": [
        {
          "internalType": "Token",
          "name": "token",
          "type": "address"
        }
      ],
      "name": "amountAvailableForTrading",
      "outputs": [
        {
          "internalType": "uint128",
          "name": "",
          "type": "uint128"
        }
      ],
      "stateMutability": "view",
      "type": "function"
    },
    {
      "inputs": [
        {
          "internalType": "Token",
          "name": "token",
          "type": "address"
        },
        {
          "components": [
            {
              "internalType": "uint128",
              "name": "sourceAmount",
              "type": "uint128"
            },
            {
              "internalType": "uint128",
              "name": "targetAmount",
              "type": "uint128"
            }
          ],
          "internalType": "struct ICarbonPOL.Price",
          "name": "price",
          "type": "tuple"
        }
      ],
      "name": "enableTrading",
      "outputs": [],
      "stateMutability": "nonpayable",
      "type": "function"
    },
    {
      "inputs": [
        {
          "components": [
            {
              "internalType": "uint128",
              "name": "sourceAmount",
              "type": "uint128"
            },
            {
              "internalType": "uint128",
              "name": "targetAmount",
              "type": "uint128"
            }
          ],
          "internalType": "struct ICarbonPOL.Price",
          "name": "price",
          "type": "tuple"
        }
      ],
      "name": "enableTradingETH",
      "outputs": [],
      "stateMutability": "nonpayable",
      "type": "function"
    },
    {
      "inputs": [],
      "name": "ethSaleAmount",
      "outputs": [
        {
          "components": [
            {
              "internalType": "uint128",
              "name": "initial",
              "type": "uint128"
            },
            {
              "internalType": "uint128",
              "name": "current",
              "type": "uint128"
            }
          ],
          "internalType": "struct ICarbonPOL.EthSaleAmount",
          "name": "",
          "type": "tuple"
        }
      ],
      "stateMutability": "view",
      "type": "function"
    },
    {
      "inputs": [
        {
          "internalType": "Token",
          "name": "token",
          "type": "address"
        },
        {
          "internalType": "uint128",
          "name": "targetAmount",
          "type": "uint128"
        }
      ],
      "name": "expectedTradeInput",
      "outputs": [
        {
          "internalType": "uint128",
          "name": "",
          "type": "uint128"
        }
      ],
      "stateMutability": "view",
      "type": "function"
    },
    {
      "inputs": [
        {
          "internalType": "Token",
          "name": "token",
          "type": "address"
        },
        {
          "internalType": "uint128",
          "name": "sourceAmount",
          "type": "uint128"
        }
      ],
      "name": "expectedTradeReturn",
      "outputs": [
        {
          "internalType": "uint128",
          "name": "",
          "type": "uint128"
        }
      ],
      "stateMutability": "view",
      "type": "function"
    },
    {
      "inputs": [
        {
          "internalType": "bytes32",
          "name": "role",
          "type": "bytes32"
        }
      ],
      "name": "getRoleAdmin",
      "outputs": [
        {
          "internalType": "bytes32",
          "name": "",
          "type": "bytes32"
        }
      ],
      "stateMutability": "view",
      "type": "function"
    },
    {
      "inputs": [
        {
          "internalType": "bytes32",
          "name": "role",
          "type": "bytes32"
        },
        {
          "internalType": "uint256",
          "name": "index",
          "type": "uint256"
        }
      ],
      "name": "getRoleMember",
      "outputs": [
        {
          "internalType": "address",
          "name": "",
          "type": "address"
        }
      ],
      "stateMutability": "view",
      "type": "function"
    },
    {
      "inputs": [
        {
          "internalType": "bytes32",
          "name": "role",
          "type": "bytes32"
        }
      ],
      "name": "getRoleMemberCount",
      "outputs": [
        {
          "internalType": "uint256",
          "name": "",
          "type": "uint256"
        }
      ],
      "stateMutability": "view",
      "type": "function"
    },
    {
      "inputs": [
        {
          "internalType": "bytes32",
          "name": "role",
          "type": "bytes32"
        },
        {
          "internalType": "address",
          "name": "account",
          "type": "address"
        }
      ],
      "name": "grantRole",
      "outputs": [],
      "stateMutability": "nonpayable",
      "type": "function"
    },
    {
      "inputs": [
        {
          "internalType": "bytes32",
          "name": "role",
          "type": "bytes32"
        },
        {
          "internalType": "address",
          "name": "account",
          "type": "address"
        }
      ],
      "name": "hasRole",
      "outputs": [
        {
          "internalType": "bool",
          "name": "",
          "type": "bool"
        }
      ],
      "stateMutability": "view",
      "type": "function"
    },
    {
      "inputs": [],
      "name": "initialize",
      "outputs": [],
      "stateMutability": "nonpayable",
      "type": "function"
    },
    {
      "inputs": [],
      "name": "marketPriceMultiply",
      "outputs": [
        {
          "internalType": "uint32",
          "name": "",
          "type": "uint32"
        }
      ],
      "stateMutability": "view",
      "type": "function"
    },
    {
      "inputs": [],
      "name": "minEthSaleAmount",
      "outputs": [
        {
          "internalType": "uint128",
          "name": "",
          "type": "uint128"
        }
      ],
      "stateMutability": "view",
      "type": "function"
    },
    {
      "inputs": [
        {
          "internalType": "bytes",
          "name": "data",
          "type": "bytes"
        }
      ],
      "name": "postUpgrade",
      "outputs": [],
      "stateMutability": "nonpayable",
      "type": "function"
    },
    {
      "inputs": [],
      "name": "priceDecayHalfLife",
      "outputs": [
        {
          "internalType": "uint32",
          "name": "",
          "type": "uint32"
        }
      ],
      "stateMutability": "view",
      "type": "function"
    },
    {
      "inputs": [
        {
          "internalType": "bytes32",
          "name": "role",
          "type": "bytes32"
        },
        {
          "internalType": "address",
          "name": "account",
          "type": "address"
        }
      ],
      "name": "renounceRole",
      "outputs": [],
      "stateMutability": "nonpayable",
      "type": "function"
    },
    {
      "inputs": [
        {
          "internalType": "bytes32",
          "name": "role",
          "type": "bytes32"
        },
        {
          "internalType": "address",
          "name": "account",
          "type": "address"
        }
      ],
      "name": "revokeRole",
      "outputs": [],
      "stateMutability": "nonpayable",
      "type": "function"
    },
    {
      "inputs": [],
      "name": "roleAdmin",
      "outputs": [
        {
          "internalType": "bytes32",
          "name": "",
          "type": "bytes32"
        }
      ],
      "stateMutability": "pure",
      "type": "function"
    },
    {
      "inputs": [
        {
          "internalType": "uint128",
          "name": "newEthSaleAmount",
          "type": "uint128"
        }
      ],
      "name": "setEthSaleAmount",
      "outputs": [],
      "stateMutability": "nonpayable",
      "type": "function"
    },
    {
      "inputs": [
        {
          "internalType": "uint32",
          "name": "newMarketPriceMultiply",
          "type": "uint32"
        }
      ],
      "name": "setMarketPriceMultiply",
      "outputs": [],
      "stateMutability": "nonpayable",
      "type": "function"
    },
    {
      "inputs": [
        {
          "internalType": "uint128",
          "name": "newMinEthSaleAmount",
          "type": "uint128"
        }
      ],
      "name": "setMinEthSaleAmount",
      "outputs": [],
      "stateMutability": "nonpayable",
      "type": "function"
    },
    {
      "inputs": [
        {
          "internalType": "uint32",
          "name": "newPriceDecayHalfLife",
          "type": "uint32"
        }
      ],
      "name": "setPriceDecayHalfLife",
      "outputs": [],
      "stateMutability": "nonpayable",
      "type": "function"
    },
    {
      "inputs": [
        {
          "internalType": "bytes4",
          "name": "interfaceId",
          "type": "bytes4"
        }
      ],
      "name": "supportsInterface",
      "outputs": [
        {
          "internalType": "bool",
          "name": "",
          "type": "bool"
        }
      ],
      "stateMutability": "view",
      "type": "function"
    },
    {
      "inputs": [
        {
          "internalType": "Token",
          "name": "token",
          "type": "address"
        }
      ],
      "name": "tokenPrice",
      "outputs": [
        {
          "components": [
            {
              "internalType": "uint128",
              "name": "sourceAmount",
              "type": "uint128"
            },
            {
              "internalType": "uint128",
              "name": "targetAmount",
              "type": "uint128"
            }
          ],
          "internalType": "struct ICarbonPOL.Price",
          "name": "",
          "type": "tuple"
        }
      ],
      "stateMutability": "view",
      "type": "function"
    },
    {
      "inputs": [
        {
          "internalType": "Token",
          "name": "token",
          "type": "address"
        },
        {
          "internalType": "uint128",
          "name": "targetAmount",
          "type": "uint128"
        }
      ],
      "name": "trade",
      "outputs": [],
      "stateMutability": "payable",
      "type": "function"
    },
    {
      "inputs": [
        {
          "internalType": "Token",
          "name": "token",
          "type": "address"
        }
      ],
      "name": "tradingEnabled",
      "outputs": [
        {
          "internalType": "bool",
          "name": "",
          "type": "bool"
        }
      ],
      "stateMutability": "view",
      "type": "function"
    },
    {
      "inputs": [],
      "name": "version",
      "outputs": [
        {
          "internalType": "uint16",
          "name": "",
          "type": "uint16"
        }
      ],
      "stateMutability": "pure",
      "type": "function"
    },
    {
      "stateMutability": "payable",
      "type": "receive"
    }
  ],
  "transactionHash": "0xf1073958362c4e313ee39607bbf4e277ec51bc06bb43272e76d874353b49ad75",
  "args": [
    "0x1F573D6Fb3F13d689FF844B4cE37794d79a7FF1C"
  ],
  "numDeployments": 2,
  "solcInputHash": "7537aaf0700eead140dc8b683c41b53d",
  "bytecode": "0x60a06040523480156200001157600080fd5b5060405162003e1e38038062003e1e83398101604081905262000034916200094f565b6200003f816200005d565b6001600160a01b0381166080526200005662000088565b5062000981565b6001600160a01b038116620000855760405163e6c4247b60e01b815260040160405180910390fd5b50565b600054610100900460ff1615808015620000a95750600054600160ff909116105b80620000c55750303b158015620000c5575060005460ff166001145b6200012e5760405162461bcd60e51b815260206004820152602e60248201527f496e697469616c697a61626c653a20636f6e747261637420697320616c72656160448201526d191e481a5b9a5d1a585b1a5e995960921b60648201526084015b60405180910390fd5b6000805460ff19166001179055801562000152576000805461ff0019166101001790555b6200015c620001a5565b801562000085576000805461ff0019169055604051600181527f7f26b83ff96e1f2b6a682f133852f6798a09c465da95921460cefb38474024989060200160405180910390a150565b600054610100900460ff16620002015760405162461bcd60e51b815260206004820152602b602482015260008051602062003dfe83398151915260448201526a6e697469616c697a696e6760a81b606482015260840162000125565b6200020b62000221565b6200021562000291565b6200021f620002f7565b565b600054610100900460ff166200027d5760405162461bcd60e51b815260206004820152602b602482015260008051602062003dfe83398151915260448201526a6e697469616c697a696e6760a81b606482015260840162000125565b6200028762000394565b6200021f620003f0565b600054610100900460ff16620002ed5760405162461bcd60e51b815260206004820152602b602482015260008051602062003dfe83398151915260448201526a6e697469616c697a696e6760a81b606482015260840162000125565b6200021f62000490565b600054610100900460ff16620003535760405162461bcd60e51b815260206004820152602b602482015260008051602062003dfe83398151915260448201526a6e697469616c697a696e6760a81b606482015260840162000125565b6200035f6002620004f3565b6200036d620d2f0062000568565b6200038168056bc75e2d63100000620005eb565b6200021f678ac7230489e80000620006c0565b600054610100900460ff166200021f5760405162461bcd60e51b815260206004820152602b602482015260008051602062003dfe83398151915260448201526a6e697469616c697a696e6760a81b606482015260840162000125565b600054610100900460ff166200044c5760405162461bcd60e51b815260206004820152602b602482015260008051602062003dfe83398151915260448201526a6e697469616c697a696e6760a81b606482015260840162000125565b60c9805461ffff191660011790556200047560008051602062003dde8339815191528062000737565b6200021f60008051602062003dde8339815191523362000782565b600054610100900460ff16620004ec5760405162461bcd60e51b815260206004820152602b602482015260008051602062003dfe83398151915260448201526a6e697469616c697a696e6760a81b606482015260840162000125565b600160fb55565b61012d5463ffffffff90811690821681036200050d575050565b61012d805463ffffffff191663ffffffff84811691821790925560408051928416835260208301919091527f04ee60e68c7a4f836ca7ca7f5d9772049ac5846fc054b0d809e0e3de754952b091015b60405180910390a15050565b61012d5463ffffffff640100000000909104811690821681036200058a575050565b61012d805463ffffffff60201b191664010000000063ffffffff8581169182029290921790925560408051918416825260208201929092527f91a3ff80be5536f6b4a03994984844ded4c1470ac2e7c1a1f9445464358788c391016200055c565b610130546001600160801b03908116908216810362000608575050565b61013080546001600160801b0319166001600160801b0384811691821792839055600160801b90920490911611156200067f576101305462000660906200065a9047906001600160801b031662000792565b620007ae565b61013080546001600160801b03928316600160801b0292169190911790555b604080516001600160801b038084168252841660208201527f85e15b0826727feb528c06e9d1eec6c462de224bbb5b7c737824ae09ea83a7bc91016200055c565b610131546001600160801b039081169082168103620006dd575050565b61013180546001600160801b0319166001600160801b0384811691821790925560408051928416835260208301919091527fab3e74195d9db5b0262eea6c76eda46ba8bb5aed6f36164adbce526d219596d191016200055c565b600082815260656020526040808220600101805490849055905190918391839186917fbd79b86ffe0ab8e8776151514217cd7cacd52c909f66475c3af44e129f0b00ff9190a4505050565b6200078e82826200081d565b5050565b6000818310620007a35781620007a5565b825b90505b92915050565b60006001600160801b03821115620008195760405162461bcd60e51b815260206004820152602760248201527f53616665436173743a2076616c756520646f65736e27742066697420696e20316044820152663238206269747360c81b606482015260840162000125565b5090565b62000829828262000848565b6000828152609760205260409020620008439082620008ec565b505050565b60008281526065602090815260408083206001600160a01b038516845290915290205460ff166200078e5760008281526065602090815260408083206001600160a01b03851684529091529020805460ff19166001179055620008a83390565b6001600160a01b0316816001600160a01b0316837f2f8788117e7eff1d82e926ec794901d17c78024a50270940304540a733656f0d60405160405180910390a45050565b6000620007a5836001600160a01b03841660008181526001830160205260408120546200094657508154600181810184556000848152602080822090930184905584548482528286019093526040902091909155620007a8565b506000620007a8565b6000602082840312156200096257600080fd5b81516001600160a01b03811681146200097a57600080fd5b9392505050565b6080516134416200099d600039600061135f01526134416000f3fe6080604052600436106101c65760003560e01c80639010d07c116100f7578063b88da7b111610095578063ea9986a911610064578063ea9986a914610586578063eec245e2146105a6578063f5044552146105c6578063fc7499b9146105e657600080fd5b8063b88da7b114610507578063bedf952514610526578063ca15c87314610546578063d547741f1461056657600080fd5b8063a217fddf116100d1578063a217fddf14610492578063a7ae00d2146104a7578063b184b520146104c7578063b319de9e146104e757600080fd5b80639010d07c146103e157806391d148541461041957806393867fb51461045f57600080fd5b806354fd4d5011610164578063824316881161013e578063824316881461033c57806384ba3f69146103745780638cd2403d146103a15780638f975d4c146103c157600080fd5b806354fd4d50146102e757806363ee9e4e146103035780638129fc1c1461032757600080fd5b80632f2ff15d116101a05780632f2ff15d1461026757806336568abe146102875780634747919d146102a75780634cb0821e146102ba57600080fd5b806301ffc9a7146101d25780630d108f2c14610207578063248a9ca31461022957600080fd5b366101cd57005b600080fd5b3480156101de57600080fd5b506101f26101ed366004612f09565b610632565b60405190151581526020015b60405180910390f35b34801561021357600080fd5b50610227610222366004612f4b565b61068e565b005b34801561023557600080fd5b50610259610244366004612f71565b60009081526065602052604090206001015490565b6040519081526020016101fe565b34801561027357600080fd5b50610227610282366004612f9f565b6106d5565b34801561029357600080fd5b506102276102a2366004612f9f565b6106ff565b6102276102b5366004612fe6565b61078c565b3480156102c657600080fd5b5061012d5463ffffffff165b60405163ffffffff90911681526020016101fe565b3480156102f357600080fd5b50604051600281526020016101fe565b34801561030f57600080fd5b5061012d54640100000000900463ffffffff166102d2565b34801561033357600080fd5b50610227610851565b34801561034857600080fd5b5061035c610357366004612fe6565b610971565b6040516001600160801b0390911681526020016101fe565b34801561038057600080fd5b5061039461038f36600461301b565b610a2c565b6040516101fe9190613038565b3480156103ad57600080fd5b506102276103bc36600461305c565b610b51565b3480156103cd57600080fd5b506102276103dc366004613150565b610bbc565b3480156103ed57600080fd5b506104016103fc36600461316c565b610d08565b6040516001600160a01b0390911681526020016101fe565b34801561042557600080fd5b506101f2610434366004612f9f565b60009182526065602090815260408084206001600160a01b0393909316845291905290205460ff1690565b34801561046b57600080fd5b507f2172861495e7b85edac73e3cd5fbb42dd675baadf627720e687bcfdaca025096610259565b34801561049e57600080fd5b50610259600081565b3480156104b357600080fd5b5061035c6104c2366004612fe6565b610d27565b3480156104d357600080fd5b506102276104e236600461318e565b610dce565b3480156104f357600080fd5b5061022761050236600461318e565b610e14565b34801561051357600080fd5b50610131546001600160801b031661035c565b34801561053257600080fd5b506101f261054136600461301b565b610e5a565b34801561055257600080fd5b50610259610561366004612f71565b610e81565b34801561057257600080fd5b50610227610581366004612f9f565b610e98565b34801561059257600080fd5b506102276105a13660046131a9565b610ebd565b3480156105b257600080fd5b5061035c6105c136600461301b565b610fdb565b3480156105d257600080fd5b506102276105e1366004612f4b565b610fe6565b3480156105f257600080fd5b5060408051808201825260008082526020918201528151808301909252610130546001600160801b038082168452600160801b9091041690820152610394565b60007fffffffff0000000000000000000000000000000000000000000000000000000082167f5a05180f000000000000000000000000000000000000000000000000000000001480610688575061068882611029565b92915050565b6106b87f2172861495e7b85edac73e3cd5fbb42dd675baadf627720e687bcfdaca025096336110c0565b8063ffffffff166106c88161111c565b6106d182611156565b5050565b6000828152606560205260409020600101546106f0816111f7565b6106fa8383611201565b505050565b6001600160a01b03811633146107825760405162461bcd60e51b815260206004820152602f60248201527f416363657373436f6e74726f6c3a2063616e206f6e6c792072656e6f756e636560448201527f20726f6c657320666f722073656c66000000000000000000000000000000000060648201526084015b60405180910390fd5b6106d18282611223565b610794611245565b8161079e8161129e565b816001600160801b03166107b18161111c565b60006001600160a01b03851673eeeeeeeeeeeeeeeeeeeeeeeeeeeeeeeeeeeeeeee036107e7576107e0846112f4565b90506107f4565b6107f18585611546565b90505b604080516001600160801b038084168252861660208201526001600160a01b0387169133917f16ddee9b3f1b2e6f797172fe2cd10a214e749294074e075e451f95aecd0b958c910160405180910390a35050506106d1600160fb55565b600054610100900460ff16158080156108715750600054600160ff909116105b8061088b5750303b15801561088b575060005460ff166001145b6108fd5760405162461bcd60e51b815260206004820152602e60248201527f496e697469616c697a61626c653a20636f6e747261637420697320616c72656160448201527f647920696e697469616c697a65640000000000000000000000000000000000006064820152608401610779565b6000805460ff191660011790558015610920576000805461ff0019166101001790555b61092861162d565b801561096e576000805461ff0019169055604051600181527f7f26b83ff96e1f2b6a682f133852f6798a09c465da95921460cefb38474024989060200160405180910390a15b50565b60008261097d8161129e565b600061098885610a2c565b9050610993816116b2565b60006109cb6109c683602001516001600160801b0316876001600160801b031685600001516001600160801b031661170a565b6117fe565b90506109d686611881565b6001600160801b0316816001600160801b03161115610a21576040517f8e26ecdf00000000000000000000000000000000000000000000000000000000815260040160405180910390fd5b9250505b5092915050565b60408051808201909152600080825260208201526001600160a01b038216600090815261012e602052604081205463ffffffff1690819003610a9a576040517fbcb8b8fb00000000000000000000000000000000000000000000000000000000815260040160405180910390fd5b6000610aa682426131ec565b6001600160a01b038516600090815261012f60209081526040918290208251808401909352546001600160801b03808216808552600160801b909204169183019190915261012d54929350909163ffffffff16908290610b07908390613209565b6001600160801b03908116909152825161012d54610b3e93506109c69291909116908590640100000000900463ffffffff166118d8565b6001600160801b03168152949350505050565b60c954600090610b669061ffff166001613234565b905061ffff8116600214610ba6576040517f0dc149f000000000000000000000000000000000000000000000000000000000815260040160405180910390fd5b60c9805461ffff191661ffff8316179055505050565b610be67f2172861495e7b85edac73e3cd5fbb42dd675baadf627720e687bcfdaca025096336110c0565b80610bf0816116b2565b73eeeeeeeeeeeeeeeeeeeeeeeeeeeeeeeeeeeeeeee6000527f986499b4ad39bbf2021624cfb3f810f08a98c4a5dc2082f7efd6d3dfbb53ca1a805463ffffffff19164263ffffffff1617905561012f60209081528251908301516001600160801b03918216600160801b91831691909102177f80dff77e1e936c662564150b996baf5db9b7ec2d73ee90f020226755abd1dcc35561013054610c98916109c69147911661191f565b61013080546001600160801b03928316600160801b02921691909117905560405173eeeeeeeeeeeeeeeeeeeeeeeeeeeeeeeeeeeeeeee907fae3f48c001771f8e9868e24d47b9e4295b06b1d78072acf96f167074aa3fab6490610cfc908590613038565b60405180910390a25050565b6000828152609760205260408120610d209083611935565b9392505050565b600082610d338161129e565b610d3c84611881565b6001600160801b0316836001600160801b03161115610d87576040517f8e26ecdf00000000000000000000000000000000000000000000000000000000815260040160405180910390fd5b6000610d9285610a2c565b9050610d9d816116b2565b610a216109c682600001516001600160801b0316866001600160801b031684602001516001600160801b031661170a565b610df87f2172861495e7b85edac73e3cd5fbb42dd675baadf627720e687bcfdaca025096336110c0565b806001600160801b0316610e0b8161111c565b6106d182611941565b610e3e7f2172861495e7b85edac73e3cd5fbb42dd675baadf627720e687bcfdaca025096336110c0565b806001600160801b0316610e518161111c565b6106d1826119ce565b6001600160a01b038116600090815261012e602052604081205463ffffffff161515610688565b600081815260976020526040812061068890611aaf565b600082815260656020526040902060010154610eb3816111f7565b6106fa8383611223565b610ee77f2172861495e7b85edac73e3cd5fbb42dd675baadf627720e687bcfdaca025096336110c0565b80610ef1816116b2565b6001600160a01b03831673eeeeeeeeeeeeeeeeeeeeeeeeeeeeeeeeeeeeeeee03610f47576040517fc1ab6dc100000000000000000000000000000000000000000000000000000000815260040160405180910390fd5b6001600160a01b038316600081815261012e60209081526040808320805463ffffffff421663ffffffff1990911617905561012f8252918290208551918601516001600160801b03908116600160801b029216919091179055517fae3f48c001771f8e9868e24d47b9e4295b06b1d78072acf96f167074aa3fab6490610fce908590613038565b60405180910390a2505050565b600061068882611881565b6110107f2172861495e7b85edac73e3cd5fbb42dd675baadf627720e687bcfdaca025096336110c0565b8063ffffffff166110208161111c565b6106d182611ab9565b60007fffffffff0000000000000000000000000000000000000000000000000000000082167f7965db0b00000000000000000000000000000000000000000000000000000000148061068857507f01ffc9a7000000000000000000000000000000000000000000000000000000007fffffffff00000000000000000000000000000000000000000000000000000000831614610688565b60008281526065602090815260408083206001600160a01b038516845290915290205460ff166106d1576040517f4ca8886700000000000000000000000000000000000000000000000000000000815260040160405180910390fd5b8060000361096e576040517f7c946ed700000000000000000000000000000000000000000000000000000000815260040160405180910390fd5b61012d5463ffffffff64010000000090910481169082168103611177575050565b61012d80547fffffffffffffffffffffffffffffffffffffffffffffffff00000000ffffffff1664010000000063ffffffff8581169182029290921790925560408051918416825260208201929092527f91a3ff80be5536f6b4a03994984844ded4c1470ac2e7c1a1f9445464358788c391015b60405180910390a15050565b61096e8133611b25565b61120b8282611b9a565b60008281526097602052604090206106fa9082611c3c565b61122d8282611c51565b60008281526097602052604090206106fa9082611cd4565b600260fb54036112975760405162461bcd60e51b815260206004820152601f60248201527f5265656e7472616e637947756172643a207265656e7472616e742063616c6c006044820152606401610779565b600260fb55565b6001600160a01b038116600090815261012e602052604090205463ffffffff1661096e576040517fbcb8b8fb00000000000000000000000000000000000000000000000000000000815260040160405180910390fd5b60008061131573eeeeeeeeeeeeeeeeeeeeeeeeeeeeeeeeeeeeeeee84610d27565b9050806001600160801b031660000361135a576040517fd69b537900000000000000000000000000000000000000000000000000000000815260040160405180910390fd5b61139a7f00000000000000000000000000000000000000000000000000000000000000006001600160a01b0381169033906001600160801b038516611ce9565b6113ad336001600160801b038516611d19565b61013080548491906010906113d3908490600160801b90046001600160801b031661324f565b82546101009290920a6001600160801b038181021990931691831602179091556101315461013054908216600160801b90910490911610159050610688576101305461142d906109c69047906001600160801b031661191f565b61013080546001600160801b03928316600160801b029216919091179055600061146a73eeeeeeeeeeeeeeeeeeeeeeeeeeeeeeeeeeeeeeee610a2c565b73eeeeeeeeeeeeeeeeeeeeeeeeeeeeeeeeeeeeeeee600081905261012f60209081528251818401516001600160801b03908116600160801b029116177f80dff77e1e936c662564150b996baf5db9b7ec2d73ee90f020226755abd1dcc35561012e90527f986499b4ad39bbf2021624cfb3f810f08a98c4a5dc2082f7efd6d3dfbb53ca1a805463ffffffff421663ffffffff19909116179055604051919250907faa86acbf67bc5e97ce95471a279336f9fa5bd2ac8f64e81ac442a0972b0c633b90611537908490613038565b60405180910390a25092915050565b6000806115538484610d27565b9050806001600160801b0316600003611598576040517fd69b537900000000000000000000000000000000000000000000000000000000815260040160405180910390fd5b806001600160801b03163410156115db576040517f9086bdc100000000000000000000000000000000000000000000000000000000815260040160405180910390fd5b6115f86001600160a01b038516336001600160801b038616611e32565b806001600160801b0316341115610d2057610d2061161f6001600160801b0383163461326f565b3390611d19565b600160fb55565b600054610100900460ff166116985760405162461bcd60e51b815260206004820152602b60248201527f496e697469616c697a61626c653a20636f6e7472616374206973206e6f74206960448201526a6e697469616c697a696e6760a81b6064820152608401610779565b6116a0611e97565b6116a8611f12565b6116b0611f85565b565b80516001600160801b031615806116d4575060208101516001600160801b0316155b1561096e576040517ebfc92100000000000000000000000000000000000000000000000000000000815260040160405180910390fd5b60008060006117198686612029565b915091508160000361173e5783818161173457611734613282565b0492505050610d20565b838210611777576040517f35278d1200000000000000000000000000000000000000000000000000000000815260040160405180910390fd5b6000611784878787612064565b905060008061179485858561207f565b91509150816000036117bc578681816117af576117af613282565b0495505050505050610d20565b60008781038816906117cf8484846120af565b905060006117eb838b816117e5576117e5613282565b046120ec565b919091029b9a5050505050505050505050565b60006001600160801b0382111561187d5760405162461bcd60e51b815260206004820152602760248201527f53616665436173743a2076616c756520646f65736e27742066697420696e203160448201527f32382062697473000000000000000000000000000000000000000000000000006064820152608401610779565b5090565b60006001600160a01b03821673eeeeeeeeeeeeeeeeeeeeeeeeeeeeeeeeeeeeeeee036118c057505061013054600160801b90046001600160801b031690565b6106886001600160a01b0383163061210d565b919050565b6040805180820190915263ffffffff80841682528216602082015260009081611900826121b4565b9050611915868260200151836000015161170a565b9695505050505050565b600081831061192e5781610d20565b5090919050565b6000610d2083836125ab565b610131546001600160801b03908116908216810361195d575050565b61013180547fffffffffffffffffffffffffffffffff00000000000000000000000000000000166001600160801b0384811691821790925560408051928416835260208301919091527fab3e74195d9db5b0262eea6c76eda46ba8bb5aed6f36164adbce526d219596d191016111eb565b610130546001600160801b0390811690821681036119ea575050565b61013080547fffffffffffffffffffffffffffffffff00000000000000000000000000000000166001600160801b0384811691821792839055600160801b9092049091161115611a6f5761013054611a50906109c69047906001600160801b031661191f565b61013080546001600160801b03928316600160801b0292169190911790555b604080516001600160801b038084168252841660208201527f85e15b0826727feb528c06e9d1eec6c462de224bbb5b7c737824ae09ea83a7bc91016111eb565b6000610688825490565b61012d5463ffffffff9081169082168103611ad2575050565b61012d805463ffffffff191663ffffffff84811691821790925560408051928416835260208301919091527f04ee60e68c7a4f836ca7ca7f5d9772049ac5846fc054b0d809e0e3de754952b091016111eb565b60008281526065602090815260408083206001600160a01b038516845290915290205460ff166106d157611b58816125d5565b611b638360206125e7565b604051602001611b749291906132bc565b60408051601f198184030181529082905262461bcd60e51b82526107799160040161333d565b60008281526065602090815260408083206001600160a01b038516845290915290205460ff166106d15760008281526065602090815260408083206001600160a01b03851684529091529020805460ff19166001179055611bf83390565b6001600160a01b0316816001600160a01b0316837f2f8788117e7eff1d82e926ec794901d17c78024a50270940304540a733656f0d60405160405180910390a45050565b6000610d20836001600160a01b038416612810565b60008281526065602090815260408083206001600160a01b038516845290915290205460ff16156106d15760008281526065602090815260408083206001600160a01b0385168085529252808320805460ff1916905551339285917ff6391f5c32d9c69d2a47ea670b442974b53935d1edc7fd64eb21e047a839171b9190a45050565b6000610d20836001600160a01b03841661285f565b801580611cfa5750611cfa84612952565b611d1357611d136001600160a01b038516848484612979565b50505050565b80471015611d695760405162461bcd60e51b815260206004820152601d60248201527f416464726573733a20696e73756666696369656e742062616c616e63650000006044820152606401610779565b6000826001600160a01b03168260405160006040518083038185875af1925050503d8060008114611db6576040519150601f19603f3d011682016040523d82523d6000602084013e611dbb565b606091505b50509050806106fa5760405162461bcd60e51b815260206004820152603a60248201527f416464726573733a20756e61626c6520746f2073656e642076616c75652c207260448201527f6563697069656e74206d617920686176652072657665727465640000000000006064820152608401610779565b80600003611e3f57505050565b611e4883612952565b15611e83576040516001600160a01b0383169082156108fc029083906000818181858888f19350505050158015611d13573d6000803e3d6000fd5b6106fa6001600160a01b0384168383612a2a565b600054610100900460ff16611f025760405162461bcd60e51b815260206004820152602b60248201527f496e697469616c697a61626c653a20636f6e7472616374206973206e6f74206960448201526a6e697469616c697a696e6760a81b6064820152608401610779565b611f0a612a73565b6116b0612ade565b600054610100900460ff16611f7d5760405162461bcd60e51b815260206004820152602b60248201527f496e697469616c697a61626c653a20636f6e7472616374206973206e6f74206960448201526a6e697469616c697a696e6760a81b6064820152608401610779565b6116b0612bab565b600054610100900460ff16611ff05760405162461bcd60e51b815260206004820152602b60248201527f496e697469616c697a61626c653a20636f6e7472616374206973206e6f74206960448201526a6e697469616c697a696e6760a81b6064820152608401610779565b611ffa6002611ab9565b612006620d2f00611156565b61201868056bc75e2d631000006119ce565b6116b0678ac7230489e80000611941565b60008060006120388585612c16565b905084840280821061205157908190039250905061205d565b60018183030393509150505b9250929050565b6000818061207457612074613282565b838509949350505050565b60008082841061209557508390508183036120a7565b6120a060018661326f565b9150508183035b935093915050565b6000806120cd83808303816120c6576120c6613282565b0460010190565b90508284816120de576120de613282565b048186021795945050505050565b60006001815b6008811015610a2557838202600203820291506001016120f2565b600061211883612952565b1561212e57506001600160a01b03811631610688565b826040517f70a082310000000000000000000000000000000000000000000000000000000081526001600160a01b03848116600483015291909116906370a0823190602401602060405180830381865afa158015612190573d6000803e3d6000fd5b505050506040513d601f19601f82011682018060405250810190610d209190613370565b604080518082019091526000808252602082015260006121ed6f58b90bfbe8e7bcd5e4f1d9cc01f97b578460000151856020015161170a565b905060008080700800000000000000000000000000000000841061223d576040517f35278d1200000000000000000000000000000000000000000000000000000000815260040160405180910390fd5b6f10000000000000000000000000000000840692508291506001607f1b8280020491506710e1b3be415a00008202016001607f1b8383020491506705a0913f6b1e00008202016001607f1b838302049150670168244fdac780008202016001607f1b838302049150664807432bc180008202016001607f1b838302049150660c0135dca040008202016001607f1b8383020491506601b707b1cdc0008202016001607f1b8383020491506536e0f639b8008202016001607f1b838302049150650618fee9f8008202016001607f1b838302049150649c197dcc008202016001607f1b838302049150640e30dce4008202016001607f1b83830204915064012ebd13008202016001607f1b8383020491506317499f008202016001607f1b8383020491506301a9d4808202016001607f1b838302049150621c63808202016001607f1b8383020491506201c6388202016001607f1b838302049150611ab88202016001607f1b83830204915061017c8202016001607f1b83830204915060148202016001607f1b83830204915081016001607f1b836721c3677c82b400008304010190506f100000000000000000000000000000008416156124225770018ebef9eac820ae8682b9793ac6d1e7767001c3d6a24ed82218787d624d3e5eba95f982020490505b6f20000000000000000000000000000000841615612464577001368b2fc6f9609fe7aceb46aa619baed470018ebef9eac820ae8682b9793ac6d1e77882020490505b6f400000000000000000000000000000008416156124a5576fbc5ab1b16779be3575bd8f0520a9f21f7001368b2fc6f9609fe7aceb46aa619baed582020490505b6001607f1b8416156124d9576f454aaa8efe072e7f6ddbab84b40a55c96fbc5ab1b16779be3575bd8f0520a9f21e82020490505b600160801b84161561250d576f0960aadc109e7a3bf4578099615711ea6f454aaa8efe072e7f6ddbab84b40a55c582020490505b70020000000000000000000000000000000084161561254d576e2bf84208204f5977f9a8cf01fdce3d6f0960aadc109e7a3bf4578099615711d782020490505b70040000000000000000000000000000000084161561258b576d03c6ab775dd0b95b4cbee7e65d116e2bf84208204f5977f9a8cf01fdc30782020490505b604080518082019091529081526001607f1b602082015295945050505050565b60008260000182815481106125c2576125c2613389565b9060005260206000200154905092915050565b60606106886001600160a01b03831660145b606060006125f683600261339f565b6126019060026133b6565b67ffffffffffffffff811115612619576126196130ce565b6040519080825280601f01601f191660200182016040528015612643576020820181803683370190505b5090507f30000000000000000000000000000000000000000000000000000000000000008160008151811061267a5761267a613389565b60200101907effffffffffffffffffffffffffffffffffffffffffffffffffffffffffffff1916908160001a9053507f7800000000000000000000000000000000000000000000000000000000000000816001815181106126dd576126dd613389565b60200101907effffffffffffffffffffffffffffffffffffffffffffffffffffffffffffff1916908160001a905350600061271984600261339f565b6127249060016133b6565b90505b60018111156127c1577f303132333435363738396162636465660000000000000000000000000000000085600f166010811061276557612765613389565b1a60f81b82828151811061277b5761277b613389565b60200101907effffffffffffffffffffffffffffffffffffffffffffffffffffffffffffff1916908160001a90535060049490941c936127ba816133c9565b9050612727565b508315610d205760405162461bcd60e51b815260206004820181905260248201527f537472696e67733a20686578206c656e67746820696e73756666696369656e746044820152606401610779565b600081815260018301602052604081205461285757508154600181810184556000848152602080822090930184905584548482528286019093526040902091909155610688565b506000610688565b6000818152600183016020526040812054801561294857600061288360018361326f565b85549091506000906128979060019061326f565b90508181146128fc5760008660000182815481106128b7576128b7613389565b90600052602060002001549050808760000184815481106128da576128da613389565b6000918252602080832090910192909255918252600188019052604090208390555b855486908061290d5761290d6133e0565b600190038181906000526020600020016000905590558560010160008681526020019081526020016000206000905560019350505050610688565b6000915050610688565b60006001600160a01b03821673eeeeeeeeeeeeeeeeeeeeeeeeeeeeeeeeeeeeeeee14610688565b6040516001600160a01b0380851660248301528316604482015260648101829052611d139085907f23b872dd00000000000000000000000000000000000000000000000000000000906084015b60408051601f198184030181529190526020810180517bffffffffffffffffffffffffffffffffffffffffffffffffffffffff167fffffffff0000000000000000000000000000000000000000000000000000000090931692909217909152612c25565b6040516001600160a01b0383166024820152604481018290526106fa9084907fa9059cbb00000000000000000000000000000000000000000000000000000000906064016129c6565b600054610100900460ff166116b05760405162461bcd60e51b815260206004820152602b60248201527f496e697469616c697a61626c653a20636f6e7472616374206973206e6f74206960448201526a6e697469616c697a696e6760a81b6064820152608401610779565b600054610100900460ff16612b495760405162461bcd60e51b815260206004820152602b60248201527f496e697469616c697a61626c653a20636f6e7472616374206973206e6f74206960448201526a6e697469616c697a696e6760a81b6064820152608401610779565b60c9805461ffff19166001179055612b817f2172861495e7b85edac73e3cd5fbb42dd675baadf627720e687bcfdaca02509680612d0d565b6116b07f2172861495e7b85edac73e3cd5fbb42dd675baadf627720e687bcfdaca02509633612d58565b600054610100900460ff166116265760405162461bcd60e51b815260206004820152602b60248201527f496e697469616c697a61626c653a20636f6e7472616374206973206e6f74206960448201526a6e697469616c697a696e6760a81b6064820152608401610779565b60006000198284099392505050565b6000612c7a826040518060400160405280602081526020017f5361666545524332303a206c6f772d6c6576656c2063616c6c206661696c6564815250856001600160a01b0316612d629092919063ffffffff16565b9050805160001480612c9b575080806020019051810190612c9b91906133f6565b6106fa5760405162461bcd60e51b815260206004820152602a60248201527f5361666545524332303a204552433230206f7065726174696f6e20646964206e60448201527f6f742073756363656564000000000000000000000000000000000000000000006064820152608401610779565b600082815260656020526040808220600101805490849055905190918391839186917fbd79b86ffe0ab8e8776151514217cd7cacd52c909f66475c3af44e129f0b00ff9190a4505050565b6106d18282611201565b6060612d718484600085612d79565b949350505050565b606082471015612df15760405162461bcd60e51b815260206004820152602660248201527f416464726573733a20696e73756666696369656e742062616c616e636520666f60448201527f722063616c6c00000000000000000000000000000000000000000000000000006064820152608401610779565b600080866001600160a01b03168587604051612e0d9190613418565b60006040518083038185875af1925050503d8060008114612e4a576040519150601f19603f3d011682016040523d82523d6000602084013e612e4f565b606091505b5091509150612e6087838387612e6b565b979650505050505050565b60608315612eda578251600003612ed3576001600160a01b0385163b612ed35760405162461bcd60e51b815260206004820152601d60248201527f416464726573733a2063616c6c20746f206e6f6e2d636f6e74726163740000006044820152606401610779565b5081612d71565b612d718383815115612eef5781518083602001fd5b8060405162461bcd60e51b8152600401610779919061333d565b600060208284031215612f1b57600080fd5b81357fffffffff0000000000000000000000000000000000000000000000000000000081168114610d2057600080fd5b600060208284031215612f5d57600080fd5b813563ffffffff81168114610d2057600080fd5b600060208284031215612f8357600080fd5b5035919050565b6001600160a01b038116811461096e57600080fd5b60008060408385031215612fb257600080fd5b823591506020830135612fc481612f8a565b809150509250929050565b80356001600160801b03811681146118d357600080fd5b60008060408385031215612ff957600080fd5b823561300481612f8a565b915061301260208401612fcf565b90509250929050565b60006020828403121561302d57600080fd5b8135610d2081612f8a565b60408101610688828480516001600160801b03908116835260209182015116910152565b6000806020838503121561306f57600080fd5b823567ffffffffffffffff8082111561308757600080fd5b818501915085601f83011261309b57600080fd5b8135818111156130aa57600080fd5b8660208285010111156130bc57600080fd5b60209290920196919550909350505050565b634e487b7160e01b600052604160045260246000fd5b6000604082840312156130f657600080fd5b6040516040810181811067ffffffffffffffff8211171561312757634e487b7160e01b600052604160045260246000fd5b60405290508061313683612fcf565b815261314460208401612fcf565b60208201525092915050565b60006040828403121561316257600080fd5b610d2083836130e4565b6000806040838503121561317f57600080fd5b50508035926020909101359150565b6000602082840312156131a057600080fd5b610d2082612fcf565b600080606083850312156131bc57600080fd5b82356131c781612f8a565b915061301284602085016130e4565b634e487b7160e01b600052601160045260246000fd5b63ffffffff828116828216039080821115610a2557610a256131d6565b6001600160801b0381811683821602808216919082811461322c5761322c6131d6565b505092915050565b61ffff818116838216019080821115610a2557610a256131d6565b6001600160801b03828116828216039080821115610a2557610a256131d6565b81810381811115610688576106886131d6565b634e487b7160e01b600052601260045260246000fd5b60005b838110156132b357818101518382015260200161329b565b50506000910152565b7f416363657373436f6e74726f6c3a206163636f756e74200000000000000000008152600083516132f4816017850160208801613298565b7f206973206d697373696e6720726f6c65200000000000000000000000000000006017918401918201528351613331816028840160208801613298565b01602801949350505050565b602081526000825180602084015261335c816040850160208701613298565b601f01601f19169190910160400192915050565b60006020828403121561338257600080fd5b5051919050565b634e487b7160e01b600052603260045260246000fd5b8082028115828204841417610688576106886131d6565b80820180821115610688576106886131d6565b6000816133d8576133d86131d6565b506000190190565b634e487b7160e01b600052603160045260246000fd5b60006020828403121561340857600080fd5b81518015158114610d2057600080fd5b6000825161342a818460208701613298565b919091019291505056fea164736f6c6343000813000a2172861495e7b85edac73e3cd5fbb42dd675baadf627720e687bcfdaca025096496e697469616c697a61626c653a20636f6e7472616374206973206e6f742069",
  "devdoc": {
    "events": {
      "Initialized(uint8)": {
        "details": "Triggered when the contract has been initialized or reinitialized."
      },
      "RoleAdminChanged(bytes32,bytes32,bytes32)": {
        "details": "Emitted when `newAdminRole` is set as ``role``'s admin role, replacing `previousAdminRole` `DEFAULT_ADMIN_ROLE` is the starting admin for all roles, despite {RoleAdminChanged} not being emitted signaling this. _Available since v3.1._"
      },
      "RoleGranted(bytes32,address,address)": {
        "details": "Emitted when `account` is granted `role`. `sender` is the account that originated the contract call, an admin role bearer except when using {AccessControl-_setupRole}."
      },
      "RoleRevoked(bytes32,address,address)": {
        "details": "Emitted when `account` is revoked `role`. `sender` is the account that originated the contract call:   - if using `revokeRole`, it is the admin role bearer   - if using `renounceRole`, it is the role bearer (i.e. `account`)"
      }
    },
    "kind": "dev",
    "methods": {
      "constructor": {
        "details": "used to initialize the implementation"
      },
      "getRoleAdmin(bytes32)": {
        "details": "Returns the admin role that controls `role`. See {grantRole} and {revokeRole}. To change a role's admin, use {_setRoleAdmin}."
      },
      "getRoleMember(bytes32,uint256)": {
        "details": "Returns one of the accounts that have `role`. `index` must be a value between 0 and {getRoleMemberCount}, non-inclusive. Role bearers are not sorted in any particular way, and their ordering may change at any point. WARNING: When using {getRoleMember} and {getRoleMemberCount}, make sure you perform all queries on the same block. See the following https://forum.openzeppelin.com/t/iterating-over-elements-on-enumerableset-in-openzeppelin-contracts/2296[forum post] for more information."
      },
      "getRoleMemberCount(bytes32)": {
        "details": "Returns the number of accounts that have `role`. Can be used together with {getRoleMember} to enumerate all bearers of a role."
      },
      "grantRole(bytes32,address)": {
        "details": "Grants `role` to `account`. If `account` had not been already granted `role`, emits a {RoleGranted} event. Requirements: - the caller must have ``role``'s admin role. May emit a {RoleGranted} event."
      },
      "hasRole(bytes32,address)": {
        "details": "Returns `true` if `account` has been granted `role`."
      },
      "initialize()": {
        "details": "fully initializes the contract and its parents"
      },
      "postUpgrade(bytes)": {
        "details": "performs post-upgrade initialization requirements: - this must and can be called only once per-upgrade"
      },
      "renounceRole(bytes32,address)": {
        "details": "Revokes `role` from the calling account. Roles are often managed via {grantRole} and {revokeRole}: this function's purpose is to provide a mechanism for accounts to lose their privileges if they are compromised (such as when a trusted device is misplaced). If the calling account had been revoked `role`, emits a {RoleRevoked} event. Requirements: - the caller must be `account`. May emit a {RoleRevoked} event."
      },
      "revokeRole(bytes32,address)": {
        "details": "Revokes `role` from `account`. If `account` had been granted `role`, emits a {RoleRevoked} event. Requirements: - the caller must have ``role``'s admin role. May emit a {RoleRevoked} event."
      },
      "roleAdmin()": {
        "details": "returns the admin role"
      },
      "supportsInterface(bytes4)": {
        "details": "See {IERC165-supportsInterface}."
      }
    },
    "version": 1
  },
  "userdoc": {
    "events": {
      "EthSaleAmountUpdated(uint128,uint128)": {
        "notice": "triggered when the eth sale amount is updated"
      },
      "MarketPriceMultiplyUpdated(uint32,uint32)": {
        "notice": "triggered when the market price multiplier is updated"
      },
      "MinEthSaleAmountUpdated(uint128,uint128)": {
        "notice": "triggered when the min eth sale amount is updated"
      },
      "PriceDecayHalfLifeUpdated(uint32,uint32)": {
        "notice": "triggered when the price decay halflife is updated"
      },
      "PriceUpdated(address,(uint128,uint128))": {
        "notice": "triggered after an eth trade leaves less than 10% of the initial eth sale amount"
      },
      "TokenTraded(address,address,uint128,uint128)": {
        "notice": "triggered after a successful trade is executed"
      },
      "TradingEnabled(address,(uint128,uint128))": {
        "notice": "triggered when trading is enabled for a token"
      }
    },
    "kind": "user",
    "methods": {
      "amountAvailableForTrading(address)": {
        "notice": "returns the amount available for trading for the token"
      },
      "enableTrading(address,(uint128,uint128))": {
        "notice": "enable trading for TKN->ETH and set the initial price requirements: - the caller must be the admin of the contract - can only enable trading for non-native tokens"
      },
      "enableTradingETH((uint128,uint128))": {
        "notice": "enable trading for ETH->BNT and set the initial price requirements: - the caller must be the admin of the contract"
      },
      "ethSaleAmount()": {
        "notice": "returns the initial and current eth sale amount"
      },
      "expectedTradeInput(address,uint128)": {
        "notice": "returns the source amount required given a target amount"
      },
      "expectedTradeReturn(address,uint128)": {
        "notice": "returns the target amount expected given a source amount"
      },
      "marketPriceMultiply()": {
        "notice": "returns the market price multiplier"
      },
      "minEthSaleAmount()": {
        "notice": "returns the min eth sale amount - resets the current eth sale amount if below this amount after a trade"
      },
      "priceDecayHalfLife()": {
        "notice": "returns the price decay half-life according to the exp decay formula"
      },
      "setEthSaleAmount(uint128)": {
        "notice": "sets the eth sale amount requirements: - the caller must be the admin of the contract"
      },
      "setMarketPriceMultiply(uint32)": {
        "notice": "sets the market price multiply requirements: - the caller must be the admin of the contract"
      },
      "setMinEthSaleAmount(uint128)": {
        "notice": "sets the min eth sale amount requirements: - the caller must be the admin of the contract"
      },
      "setPriceDecayHalfLife(uint32)": {
        "notice": "sets the price decay half-life requirements: - the caller must be the admin of the contract"
      },
      "tokenPrice(address)": {
        "notice": "returns the current token price (ETH / TKN)if token == ETH, returns BNT / ETH price"
      },
      "trade(address,uint128)": {
        "notice": "trades ETH for *targetAmount* of token based on the current token price (trade by target amount)if token == ETH, trades BNT for amount of ETH"
      },
      "tradingEnabled(address)": {
        "notice": "returns true if trading is enabled for token"
      }
    },
    "notice": "CarbonPOL contract",
    "version": 1
  },
  "storageLayout": {
    "storage": [
      {
        "astId": 588,
        "contract": "contracts/pol/CarbonPOL.sol:CarbonPOL",
        "label": "_initialized",
        "offset": 0,
        "slot": "0",
        "type": "t_uint8"
      },
      {
        "astId": 591,
        "contract": "contracts/pol/CarbonPOL.sol:CarbonPOL",
        "label": "_initializing",
        "offset": 1,
        "slot": "0",
        "type": "t_bool"
      },
      {
        "astId": 2445,
        "contract": "contracts/pol/CarbonPOL.sol:CarbonPOL",
        "label": "__gap",
        "offset": 0,
        "slot": "1",
        "type": "t_array(t_uint256)50_storage"
      },
      {
        "astId": 2718,
        "contract": "contracts/pol/CarbonPOL.sol:CarbonPOL",
        "label": "__gap",
        "offset": 0,
        "slot": "51",
        "type": "t_array(t_uint256)50_storage"
      },
      {
        "astId": 184,
        "contract": "contracts/pol/CarbonPOL.sol:CarbonPOL",
        "label": "_roles",
        "offset": 0,
        "slot": "101",
        "type": "t_mapping(t_bytes32,t_struct(RoleData)179_storage)"
      },
      {
        "astId": 479,
        "contract": "contracts/pol/CarbonPOL.sol:CarbonPOL",
        "label": "__gap",
        "offset": 0,
        "slot": "102",
        "type": "t_array(t_uint256)49_storage"
      },
      {
        "astId": 33,
        "contract": "contracts/pol/CarbonPOL.sol:CarbonPOL",
        "label": "_roleMembers",
        "offset": 0,
        "slot": "151",
        "type": "t_mapping(t_bytes32,t_struct(AddressSet)5569_storage)"
      },
      {
        "astId": 143,
        "contract": "contracts/pol/CarbonPOL.sol:CarbonPOL",
        "label": "__gap",
        "offset": 0,
        "slot": "152",
        "type": "t_array(t_uint256)49_storage"
      },
      {
        "astId": 21692,
        "contract": "contracts/pol/CarbonPOL.sol:CarbonPOL",
        "label": "_initializations",
        "offset": 0,
        "slot": "201",
        "type": "t_uint16"
      },
      {
        "astId": 21698,
        "contract": "contracts/pol/CarbonPOL.sol:CarbonPOL",
        "label": "__gap",
        "offset": 0,
        "slot": "202",
        "type": "t_array(t_uint256)49_storage"
      },
      {
        "astId": 891,
        "contract": "contracts/pol/CarbonPOL.sol:CarbonPOL",
        "label": "_status",
        "offset": 0,
        "slot": "251",
        "type": "t_uint256"
      },
      {
        "astId": 960,
        "contract": "contracts/pol/CarbonPOL.sol:CarbonPOL",
        "label": "__gap",
        "offset": 0,
        "slot": "252",
        "type": "t_array(t_uint256)49_storage"
      },
      {
        "astId": 19075,
        "contract": "contracts/pol/CarbonPOL.sol:CarbonPOL",
        "label": "_marketPriceMultiply",
        "offset": 0,
        "slot": "301",
        "type": "t_uint32"
      },
      {
        "astId": 19077,
        "contract": "contracts/pol/CarbonPOL.sol:CarbonPOL",
        "label": "_priceDecayHalfLife",
        "offset": 4,
        "slot": "301",
        "type": "t_uint32"
      },
      {
        "astId": 19082,
        "contract": "contracts/pol/CarbonPOL.sol:CarbonPOL",
        "label": "_tradingStartTimes",
        "offset": 0,
        "slot": "302",
        "type": "t_mapping(t_userDefinedValueType(Token)20264,t_uint32)"
      },
      {
        "astId": 19088,
        "contract": "contracts/pol/CarbonPOL.sol:CarbonPOL",
        "label": "_initialPrice",
        "offset": 0,
        "slot": "303",
        "type": "t_mapping(t_userDefinedValueType(Token)20264,t_struct(Price)20054_storage)"
      },
      {
        "astId": 19091,
        "contract": "contracts/pol/CarbonPOL.sol:CarbonPOL",
        "label": "_ethSaleAmount",
        "offset": 0,
        "slot": "304",
        "type": "t_struct(EthSaleAmount)20059_storage"
      },
      {
        "astId": 19093,
        "contract": "contracts/pol/CarbonPOL.sol:CarbonPOL",
        "label": "_minEthSaleAmount",
        "offset": 0,
        "slot": "305",
        "type": "t_uint128"
      },
      {
        "astId": 19099,
        "contract": "contracts/pol/CarbonPOL.sol:CarbonPOL",
        "label": "__gap",
        "offset": 0,
        "slot": "306",
        "type": "t_array(t_uint256)45_storage"
      }
    ],
    "types": {
      "t_address": {
        "encoding": "inplace",
        "label": "address",
        "numberOfBytes": "20"
      },
      "t_array(t_bytes32)dyn_storage": {
        "base": "t_bytes32",
        "encoding": "dynamic_array",
        "label": "bytes32[]",
        "numberOfBytes": "32"
      },
      "t_array(t_uint256)45_storage": {
        "base": "t_uint256",
        "encoding": "inplace",
        "label": "uint256[45]",
        "numberOfBytes": "1440"
      },
      "t_array(t_uint256)49_storage": {
        "base": "t_uint256",
        "encoding": "inplace",
        "label": "uint256[49]",
        "numberOfBytes": "1568"
      },
      "t_array(t_uint256)50_storage": {
        "base": "t_uint256",
        "encoding": "inplace",
        "label": "uint256[50]",
        "numberOfBytes": "1600"
      },
      "t_bool": {
        "encoding": "inplace",
        "label": "bool",
        "numberOfBytes": "1"
      },
      "t_bytes32": {
        "encoding": "inplace",
        "label": "bytes32",
        "numberOfBytes": "32"
      },
      "t_mapping(t_address,t_bool)": {
        "encoding": "mapping",
        "key": "t_address",
        "label": "mapping(address => bool)",
        "numberOfBytes": "32",
        "value": "t_bool"
      },
      "t_mapping(t_bytes32,t_struct(AddressSet)5569_storage)": {
        "encoding": "mapping",
        "key": "t_bytes32",
        "label": "mapping(bytes32 => struct EnumerableSetUpgradeable.AddressSet)",
        "numberOfBytes": "32",
        "value": "t_struct(AddressSet)5569_storage"
      },
      "t_mapping(t_bytes32,t_struct(RoleData)179_storage)": {
        "encoding": "mapping",
        "key": "t_bytes32",
        "label": "mapping(bytes32 => struct AccessControlUpgradeable.RoleData)",
        "numberOfBytes": "32",
        "value": "t_struct(RoleData)179_storage"
      },
      "t_mapping(t_bytes32,t_uint256)": {
        "encoding": "mapping",
        "key": "t_bytes32",
        "label": "mapping(bytes32 => uint256)",
        "numberOfBytes": "32",
        "value": "t_uint256"
      },
      "t_mapping(t_userDefinedValueType(Token)20264,t_struct(Price)20054_storage)": {
        "encoding": "mapping",
        "key": "t_userDefinedValueType(Token)20264",
        "label": "mapping(Token => struct ICarbonPOL.Price)",
        "numberOfBytes": "32",
        "value": "t_struct(Price)20054_storage"
      },
      "t_mapping(t_userDefinedValueType(Token)20264,t_uint32)": {
        "encoding": "mapping",
        "key": "t_userDefinedValueType(Token)20264",
        "label": "mapping(Token => uint32)",
        "numberOfBytes": "32",
        "value": "t_uint32"
      },
      "t_struct(AddressSet)5569_storage": {
        "encoding": "inplace",
        "label": "struct EnumerableSetUpgradeable.AddressSet",
        "members": [
          {
            "astId": 5568,
            "contract": "contracts/pol/CarbonPOL.sol:CarbonPOL",
            "label": "_inner",
            "offset": 0,
            "slot": "0",
            "type": "t_struct(Set)5254_storage"
          }
        ],
        "numberOfBytes": "64"
      },
      "t_struct(EthSaleAmount)20059_storage": {
        "encoding": "inplace",
        "label": "struct ICarbonPOL.EthSaleAmount",
        "members": [
          {
            "astId": 20056,
            "contract": "contracts/pol/CarbonPOL.sol:CarbonPOL",
            "label": "initial",
            "offset": 0,
            "slot": "0",
            "type": "t_uint128"
          },
          {
            "astId": 20058,
            "contract": "contracts/pol/CarbonPOL.sol:CarbonPOL",
            "label": "current",
            "offset": 16,
            "slot": "0",
            "type": "t_uint128"
          }
        ],
        "numberOfBytes": "32"
      },
      "t_struct(Price)20054_storage": {
        "encoding": "inplace",
        "label": "struct ICarbonPOL.Price",
        "members": [
          {
            "astId": 20051,
            "contract": "contracts/pol/CarbonPOL.sol:CarbonPOL",
            "label": "sourceAmount",
            "offset": 0,
            "slot": "0",
            "type": "t_uint128"
          },
          {
            "astId": 20053,
            "contract": "contracts/pol/CarbonPOL.sol:CarbonPOL",
            "label": "targetAmount",
            "offset": 16,
            "slot": "0",
            "type": "t_uint128"
          }
        ],
        "numberOfBytes": "32"
      },
      "t_struct(RoleData)179_storage": {
        "encoding": "inplace",
        "label": "struct AccessControlUpgradeable.RoleData",
        "members": [
          {
            "astId": 176,
            "contract": "contracts/pol/CarbonPOL.sol:CarbonPOL",
            "label": "members",
            "offset": 0,
            "slot": "0",
            "type": "t_mapping(t_address,t_bool)"
          },
          {
            "astId": 178,
            "contract": "contracts/pol/CarbonPOL.sol:CarbonPOL",
            "label": "adminRole",
            "offset": 0,
            "slot": "1",
            "type": "t_bytes32"
          }
        ],
        "numberOfBytes": "64"
      },
      "t_struct(Set)5254_storage": {
        "encoding": "inplace",
        "label": "struct EnumerableSetUpgradeable.Set",
        "members": [
          {
            "astId": 5249,
            "contract": "contracts/pol/CarbonPOL.sol:CarbonPOL",
            "label": "_values",
            "offset": 0,
            "slot": "0",
            "type": "t_array(t_bytes32)dyn_storage"
          },
          {
            "astId": 5253,
            "contract": "contracts/pol/CarbonPOL.sol:CarbonPOL",
            "label": "_indexes",
            "offset": 0,
            "slot": "1",
            "type": "t_mapping(t_bytes32,t_uint256)"
          }
        ],
        "numberOfBytes": "64"
      },
      "t_uint128": {
        "encoding": "inplace",
        "label": "uint128",
        "numberOfBytes": "16"
      },
      "t_uint16": {
        "encoding": "inplace",
        "label": "uint16",
        "numberOfBytes": "2"
      },
      "t_uint256": {
        "encoding": "inplace",
        "label": "uint256",
        "numberOfBytes": "32"
      },
      "t_uint32": {
        "encoding": "inplace",
        "label": "uint32",
        "numberOfBytes": "4"
      },
      "t_uint8": {
        "encoding": "inplace",
        "label": "uint8",
        "numberOfBytes": "1"
      },
      "t_userDefinedValueType(Token)20264": {
        "encoding": "inplace",
        "label": "Token",
        "numberOfBytes": "20"
      }
    }
  }
}