{
  "abi": [
    {
      "inputs": [
        {
          "internalType": "contract IVoucher",
          "name": "initVoucher",
          "type": "address"
        },
        {
          "internalType": "address",
          "name": "proxy",
          "type": "address"
        }
      ],
      "stateMutability": "nonpayable",
      "type": "constructor"
    },
    {
      "inputs": [],
      "name": "AccessDenied",
      "type": "error"
    },
    {
      "inputs": [],
      "name": "AlreadyInitialized",
      "type": "error"
    },
    {
      "inputs": [],
      "name": "BalanceMismatch",
      "type": "error"
    },
    {
      "inputs": [],
      "name": "DeadlineExpired",
      "type": "error"
    },
    {
      "inputs": [],
      "name": "GreaterThanMaxInput",
      "type": "error"
    },
    {
      "inputs": [],
      "name": "IdenticalAddresses",
      "type": "error"
    },
    {
      "inputs": [],
      "name": "InsufficientCapacity",
      "type": "error"
    },
    {
      "inputs": [],
      "name": "InsufficientLiquidity",
      "type": "error"
    },
    {
      "inputs": [],
      "name": "InsufficientNativeTokenReceived",
      "type": "error"
    },
    {
      "inputs": [],
      "name": "InvalidAddress",
      "type": "error"
    },
    {
      "inputs": [],
      "name": "InvalidFee",
      "type": "error"
    },
    {
      "inputs": [],
      "name": "InvalidIndices",
      "type": "error"
    },
    {
      "inputs": [],
      "name": "InvalidRate",
      "type": "error"
    },
    {
      "inputs": [],
      "name": "InvalidTradeActionAmount",
      "type": "error"
    },
    {
      "inputs": [],
      "name": "InvalidTradeActionStrategyId",
      "type": "error"
    },
    {
      "inputs": [],
      "name": "LowerThanMinReturn",
      "type": "error"
    },
    {
      "inputs": [],
      "name": "NativeAmountMismatch",
      "type": "error"
    },
    {
      "inputs": [],
      "name": "OrderDisabled",
      "type": "error"
    },
    {
      "inputs": [],
      "name": "OutDated",
      "type": "error"
    },
    {
      "inputs": [],
      "name": "Overflow",
      "type": "error"
    },
    {
      "inputs": [],
      "name": "PairAlreadyExists",
      "type": "error"
    },
    {
      "inputs": [],
      "name": "PairDoesNotExist",
      "type": "error"
    },
    {
      "inputs": [],
      "name": "UnknownDelegator",
      "type": "error"
    },
    {
      "inputs": [],
      "name": "UnnecessaryNativeTokenReceived",
      "type": "error"
    },
    {
      "inputs": [],
      "name": "ZeroValue",
      "type": "error"
    },
    {
      "anonymous": false,
      "inputs": [
        {
          "indexed": true,
          "internalType": "Token",
          "name": "token",
          "type": "address"
        },
        {
          "indexed": true,
          "internalType": "address",
          "name": "recipient",
          "type": "address"
        },
        {
          "indexed": true,
          "internalType": "uint256",
          "name": "amount",
          "type": "uint256"
        },
        {
          "indexed": false,
          "internalType": "address",
          "name": "sender",
          "type": "address"
        }
      ],
      "name": "FeesWithdrawn",
      "type": "event"
    },
    {
      "anonymous": false,
      "inputs": [
        {
          "indexed": false,
          "internalType": "uint8",
          "name": "version",
          "type": "uint8"
        }
      ],
      "name": "Initialized",
      "type": "event"
    },
    {
      "anonymous": false,
      "inputs": [
        {
          "indexed": true,
          "internalType": "uint128",
          "name": "pairId",
          "type": "uint128"
        },
        {
          "indexed": true,
          "internalType": "Token",
          "name": "token0",
          "type": "address"
        },
        {
          "indexed": true,
          "internalType": "Token",
          "name": "token1",
          "type": "address"
        }
      ],
      "name": "PairCreated",
      "type": "event"
    },
    {
      "anonymous": false,
      "inputs": [
        {
          "indexed": true,
          "internalType": "Token",
          "name": "token0",
          "type": "address"
        },
        {
          "indexed": true,
          "internalType": "Token",
          "name": "token1",
          "type": "address"
        },
        {
          "indexed": false,
          "internalType": "uint32",
          "name": "prevFeePPM",
          "type": "uint32"
        },
        {
          "indexed": false,
          "internalType": "uint32",
          "name": "newFeePPM",
          "type": "uint32"
        }
      ],
      "name": "PairTradingFeePPMUpdated",
      "type": "event"
    },
    {
      "anonymous": false,
      "inputs": [
        {
          "indexed": false,
          "internalType": "address",
          "name": "account",
          "type": "address"
        }
      ],
      "name": "Paused",
      "type": "event"
    },
    {
      "anonymous": false,
      "inputs": [
        {
          "indexed": true,
          "internalType": "bytes32",
          "name": "role",
          "type": "bytes32"
        },
        {
          "indexed": true,
          "internalType": "bytes32",
          "name": "previousAdminRole",
          "type": "bytes32"
        },
        {
          "indexed": true,
          "internalType": "bytes32",
          "name": "newAdminRole",
          "type": "bytes32"
        }
      ],
      "name": "RoleAdminChanged",
      "type": "event"
    },
    {
      "anonymous": false,
      "inputs": [
        {
          "indexed": true,
          "internalType": "bytes32",
          "name": "role",
          "type": "bytes32"
        },
        {
          "indexed": true,
          "internalType": "address",
          "name": "account",
          "type": "address"
        },
        {
          "indexed": true,
          "internalType": "address",
          "name": "sender",
          "type": "address"
        }
      ],
      "name": "RoleGranted",
      "type": "event"
    },
    {
      "anonymous": false,
      "inputs": [
        {
          "indexed": true,
          "internalType": "bytes32",
          "name": "role",
          "type": "bytes32"
        },
        {
          "indexed": true,
          "internalType": "address",
          "name": "account",
          "type": "address"
        },
        {
          "indexed": true,
          "internalType": "address",
          "name": "sender",
          "type": "address"
        }
      ],
      "name": "RoleRevoked",
      "type": "event"
    },
    {
      "anonymous": false,
      "inputs": [
        {
          "indexed": false,
          "internalType": "uint256",
          "name": "id",
          "type": "uint256"
        },
        {
          "indexed": true,
          "internalType": "address",
          "name": "owner",
          "type": "address"
        },
        {
          "indexed": true,
          "internalType": "Token",
          "name": "token0",
          "type": "address"
        },
        {
          "indexed": true,
          "internalType": "Token",
          "name": "token1",
          "type": "address"
        },
        {
          "components": [
            {
              "internalType": "uint128",
              "name": "y",
              "type": "uint128"
            },
            {
              "internalType": "uint128",
              "name": "z",
              "type": "uint128"
            },
            {
              "internalType": "uint64",
              "name": "A",
              "type": "uint64"
            },
            {
              "internalType": "uint64",
              "name": "B",
              "type": "uint64"
            }
          ],
          "indexed": false,
          "internalType": "struct Order",
          "name": "order0",
          "type": "tuple"
        },
        {
          "components": [
            {
              "internalType": "uint128",
              "name": "y",
              "type": "uint128"
            },
            {
              "internalType": "uint128",
              "name": "z",
              "type": "uint128"
            },
            {
              "internalType": "uint64",
              "name": "A",
              "type": "uint64"
            },
            {
              "internalType": "uint64",
              "name": "B",
              "type": "uint64"
            }
          ],
          "indexed": false,
          "internalType": "struct Order",
          "name": "order1",
          "type": "tuple"
        }
      ],
      "name": "StrategyCreated",
      "type": "event"
    },
    {
      "anonymous": false,
      "inputs": [
        {
          "indexed": false,
          "internalType": "uint256",
          "name": "id",
          "type": "uint256"
        },
        {
          "indexed": true,
          "internalType": "address",
          "name": "owner",
          "type": "address"
        },
        {
          "indexed": true,
          "internalType": "Token",
          "name": "token0",
          "type": "address"
        },
        {
          "indexed": true,
          "internalType": "Token",
          "name": "token1",
          "type": "address"
        },
        {
          "components": [
            {
              "internalType": "uint128",
              "name": "y",
              "type": "uint128"
            },
            {
              "internalType": "uint128",
              "name": "z",
              "type": "uint128"
            },
            {
              "internalType": "uint64",
              "name": "A",
              "type": "uint64"
            },
            {
              "internalType": "uint64",
              "name": "B",
              "type": "uint64"
            }
          ],
          "indexed": false,
          "internalType": "struct Order",
          "name": "order0",
          "type": "tuple"
        },
        {
          "components": [
            {
              "internalType": "uint128",
              "name": "y",
              "type": "uint128"
            },
            {
              "internalType": "uint128",
              "name": "z",
              "type": "uint128"
            },
            {
              "internalType": "uint64",
              "name": "A",
              "type": "uint64"
            },
            {
              "internalType": "uint64",
              "name": "B",
              "type": "uint64"
            }
          ],
          "indexed": false,
          "internalType": "struct Order",
          "name": "order1",
          "type": "tuple"
        }
      ],
      "name": "StrategyDeleted",
      "type": "event"
    },
    {
      "anonymous": false,
      "inputs": [
        {
          "indexed": true,
          "internalType": "uint256",
          "name": "id",
          "type": "uint256"
        },
        {
          "indexed": true,
          "internalType": "Token",
          "name": "token0",
          "type": "address"
        },
        {
          "indexed": true,
          "internalType": "Token",
          "name": "token1",
          "type": "address"
        },
        {
          "components": [
            {
              "internalType": "uint128",
              "name": "y",
              "type": "uint128"
            },
            {
              "internalType": "uint128",
              "name": "z",
              "type": "uint128"
            },
            {
              "internalType": "uint64",
              "name": "A",
              "type": "uint64"
            },
            {
              "internalType": "uint64",
              "name": "B",
              "type": "uint64"
            }
          ],
          "indexed": false,
          "internalType": "struct Order",
          "name": "order0",
          "type": "tuple"
        },
        {
          "components": [
            {
              "internalType": "uint128",
              "name": "y",
              "type": "uint128"
            },
            {
              "internalType": "uint128",
              "name": "z",
              "type": "uint128"
            },
            {
              "internalType": "uint64",
              "name": "A",
              "type": "uint64"
            },
            {
              "internalType": "uint64",
              "name": "B",
              "type": "uint64"
            }
          ],
          "indexed": false,
          "internalType": "struct Order",
          "name": "order1",
          "type": "tuple"
        },
        {
          "indexed": false,
          "internalType": "uint8",
          "name": "reason",
          "type": "uint8"
        }
      ],
      "name": "StrategyUpdated",
      "type": "event"
    },
    {
      "anonymous": false,
      "inputs": [
        {
          "indexed": true,
          "internalType": "address",
          "name": "trader",
          "type": "address"
        },
        {
          "indexed": true,
          "internalType": "Token",
          "name": "sourceToken",
          "type": "address"
        },
        {
          "indexed": true,
          "internalType": "Token",
          "name": "targetToken",
          "type": "address"
        },
        {
          "indexed": false,
          "internalType": "uint256",
          "name": "sourceAmount",
          "type": "uint256"
        },
        {
          "indexed": false,
          "internalType": "uint256",
          "name": "targetAmount",
          "type": "uint256"
        },
        {
          "indexed": false,
          "internalType": "uint128",
          "name": "tradingFeeAmount",
          "type": "uint128"
        },
        {
          "indexed": false,
          "internalType": "bool",
          "name": "byTargetAmount",
          "type": "bool"
        }
      ],
      "name": "TokensTraded",
      "type": "event"
    },
    {
      "anonymous": false,
      "inputs": [
        {
          "indexed": false,
          "internalType": "uint32",
          "name": "prevFeePPM",
          "type": "uint32"
        },
        {
          "indexed": false,
          "internalType": "uint32",
          "name": "newFeePPM",
          "type": "uint32"
        }
      ],
      "name": "TradingFeePPMUpdated",
      "type": "event"
    },
    {
      "anonymous": false,
      "inputs": [
        {
          "indexed": false,
          "internalType": "address",
          "name": "account",
          "type": "address"
        }
      ],
      "name": "Unpaused",
      "type": "event"
    },
    {
      "inputs": [],
      "name": "DEFAULT_ADMIN_ROLE",
      "outputs": [
        {
          "internalType": "bytes32",
          "name": "",
          "type": "bytes32"
        }
      ],
      "stateMutability": "view",
      "type": "function"
    },
    {
      "inputs": [
        {
          "internalType": "Token",
          "name": "token",
          "type": "address"
        }
      ],
      "name": "accumulatedFees",
      "outputs": [
        {
          "internalType": "uint256",
          "name": "",
          "type": "uint256"
        }
      ],
      "stateMutability": "view",
      "type": "function"
    },
    {
      "inputs": [
        {
          "internalType": "Token",
          "name": "sourceToken",
          "type": "address"
        },
        {
          "internalType": "Token",
          "name": "targetToken",
          "type": "address"
        },
        {
          "components": [
            {
              "internalType": "uint256",
              "name": "strategyId",
              "type": "uint256"
            },
            {
              "internalType": "uint128",
              "name": "amount",
              "type": "uint128"
            }
          ],
          "internalType": "struct TradeAction[]",
          "name": "tradeActions",
          "type": "tuple[]"
        }
      ],
      "name": "calculateTradeSourceAmount",
      "outputs": [
        {
          "internalType": "uint128",
          "name": "",
          "type": "uint128"
        }
      ],
      "stateMutability": "view",
      "type": "function"
    },
    {
      "inputs": [
        {
          "internalType": "Token",
          "name": "sourceToken",
          "type": "address"
        },
        {
          "internalType": "Token",
          "name": "targetToken",
          "type": "address"
        },
        {
          "components": [
            {
              "internalType": "uint256",
              "name": "strategyId",
              "type": "uint256"
            },
            {
              "internalType": "uint128",
              "name": "amount",
              "type": "uint128"
            }
          ],
          "internalType": "struct TradeAction[]",
          "name": "tradeActions",
          "type": "tuple[]"
        }
      ],
      "name": "calculateTradeTargetAmount",
      "outputs": [
        {
          "internalType": "uint128",
          "name": "",
          "type": "uint128"
        }
      ],
      "stateMutability": "view",
      "type": "function"
    },
    {
      "inputs": [],
      "name": "controllerType",
      "outputs": [
        {
          "internalType": "uint16",
          "name": "",
          "type": "uint16"
        }
      ],
      "stateMutability": "pure",
      "type": "function"
    },
    {
      "inputs": [
        {
          "internalType": "Token",
          "name": "token0",
          "type": "address"
        },
        {
          "internalType": "Token",
          "name": "token1",
          "type": "address"
        }
      ],
      "name": "createPair",
      "outputs": [
        {
          "components": [
            {
              "internalType": "uint128",
              "name": "id",
              "type": "uint128"
            },
            {
              "internalType": "Token[2]",
              "name": "tokens",
              "type": "address[2]"
            }
          ],
          "internalType": "struct Pair",
          "name": "",
          "type": "tuple"
        }
      ],
      "stateMutability": "nonpayable",
      "type": "function"
    },
    {
      "inputs": [
        {
          "internalType": "Token",
          "name": "token0",
          "type": "address"
        },
        {
          "internalType": "Token",
          "name": "token1",
          "type": "address"
        },
        {
          "components": [
            {
              "internalType": "uint128",
              "name": "y",
              "type": "uint128"
            },
            {
              "internalType": "uint128",
              "name": "z",
              "type": "uint128"
            },
            {
              "internalType": "uint64",
              "name": "A",
              "type": "uint64"
            },
            {
              "internalType": "uint64",
              "name": "B",
              "type": "uint64"
            }
          ],
          "internalType": "struct Order[2]",
          "name": "orders",
          "type": "tuple[2]"
        }
      ],
      "name": "createStrategy",
      "outputs": [
        {
          "internalType": "uint256",
          "name": "",
          "type": "uint256"
        }
      ],
      "stateMutability": "payable",
      "type": "function"
    },
    {
      "inputs": [
        {
          "internalType": "uint256",
          "name": "strategyId",
          "type": "uint256"
        }
      ],
      "name": "deleteStrategy",
      "outputs": [],
      "stateMutability": "nonpayable",
      "type": "function"
    },
    {
      "inputs": [
        {
          "internalType": "bytes32",
          "name": "role",
          "type": "bytes32"
        }
      ],
      "name": "getRoleAdmin",
      "outputs": [
        {
          "internalType": "bytes32",
          "name": "",
          "type": "bytes32"
        }
      ],
      "stateMutability": "view",
      "type": "function"
    },
    {
      "inputs": [
        {
          "internalType": "bytes32",
          "name": "role",
          "type": "bytes32"
        },
        {
          "internalType": "uint256",
          "name": "index",
          "type": "uint256"
        }
      ],
      "name": "getRoleMember",
      "outputs": [
        {
          "internalType": "address",
          "name": "",
          "type": "address"
        }
      ],
      "stateMutability": "view",
      "type": "function"
    },
    {
      "inputs": [
        {
          "internalType": "bytes32",
          "name": "role",
          "type": "bytes32"
        }
      ],
      "name": "getRoleMemberCount",
      "outputs": [
        {
          "internalType": "uint256",
          "name": "",
          "type": "uint256"
        }
      ],
      "stateMutability": "view",
      "type": "function"
    },
    {
      "inputs": [
        {
          "internalType": "bytes32",
          "name": "role",
          "type": "bytes32"
        },
        {
          "internalType": "address",
          "name": "account",
          "type": "address"
        }
      ],
      "name": "grantRole",
      "outputs": [],
      "stateMutability": "nonpayable",
      "type": "function"
    },
    {
      "inputs": [
        {
          "internalType": "bytes32",
          "name": "role",
          "type": "bytes32"
        },
        {
          "internalType": "address",
          "name": "account",
          "type": "address"
        }
      ],
      "name": "hasRole",
      "outputs": [
        {
          "internalType": "bool",
          "name": "",
          "type": "bool"
        }
      ],
      "stateMutability": "view",
      "type": "function"
    },
    {
      "inputs": [],
      "name": "initialize",
      "outputs": [],
      "stateMutability": "nonpayable",
      "type": "function"
    },
    {
      "inputs": [
        {
          "internalType": "Token",
          "name": "token0",
          "type": "address"
        },
        {
          "internalType": "Token",
          "name": "token1",
          "type": "address"
        }
      ],
      "name": "pair",
      "outputs": [
        {
          "components": [
            {
              "internalType": "uint128",
              "name": "id",
              "type": "uint128"
            },
            {
              "internalType": "Token[2]",
              "name": "tokens",
              "type": "address[2]"
            }
          ],
          "internalType": "struct Pair",
          "name": "",
          "type": "tuple"
        }
      ],
      "stateMutability": "view",
      "type": "function"
    },
    {
      "inputs": [
        {
          "internalType": "Token",
          "name": "token0",
          "type": "address"
        },
        {
          "internalType": "Token",
          "name": "token1",
          "type": "address"
        }
      ],
      "name": "pairTradingFeePPM",
      "outputs": [
        {
          "internalType": "uint32",
          "name": "",
          "type": "uint32"
        }
      ],
      "stateMutability": "view",
      "type": "function"
    },
    {
      "inputs": [],
      "name": "pairs",
      "outputs": [
        {
          "internalType": "Token[2][]",
          "name": "",
          "type": "address[2][]"
        }
      ],
      "stateMutability": "view",
      "type": "function"
    },
    {
      "inputs": [],
      "name": "pause",
      "outputs": [],
      "stateMutability": "nonpayable",
      "type": "function"
    },
    {
      "inputs": [],
      "name": "paused",
      "outputs": [
        {
          "internalType": "bool",
          "name": "",
          "type": "bool"
        }
      ],
      "stateMutability": "view",
      "type": "function"
    },
    {
      "inputs": [
        {
          "internalType": "bytes",
          "name": "data",
          "type": "bytes"
        }
      ],
      "name": "postUpgrade",
      "outputs": [],
      "stateMutability": "nonpayable",
      "type": "function"
    },
    {
      "inputs": [
        {
          "internalType": "bytes32",
          "name": "role",
          "type": "bytes32"
        },
        {
          "internalType": "address",
          "name": "account",
          "type": "address"
        }
      ],
      "name": "renounceRole",
      "outputs": [],
      "stateMutability": "nonpayable",
      "type": "function"
    },
    {
      "inputs": [
        {
          "internalType": "bytes32",
          "name": "role",
          "type": "bytes32"
        },
        {
          "internalType": "address",
          "name": "account",
          "type": "address"
        }
      ],
      "name": "revokeRole",
      "outputs": [],
      "stateMutability": "nonpayable",
      "type": "function"
    },
    {
      "inputs": [],
      "name": "roleAdmin",
      "outputs": [
        {
          "internalType": "bytes32",
          "name": "",
          "type": "bytes32"
        }
      ],
      "stateMutability": "pure",
      "type": "function"
    },
    {
      "inputs": [],
      "name": "roleEmergencyStopper",
      "outputs": [
        {
          "internalType": "bytes32",
          "name": "",
          "type": "bytes32"
        }
      ],
      "stateMutability": "pure",
      "type": "function"
    },
    {
      "inputs": [],
      "name": "roleFeesManager",
      "outputs": [
        {
          "internalType": "bytes32",
          "name": "",
          "type": "bytes32"
        }
      ],
      "stateMutability": "pure",
      "type": "function"
    },
    {
      "inputs": [
        {
          "internalType": "Token",
          "name": "token0",
          "type": "address"
        },
        {
          "internalType": "Token",
          "name": "token1",
          "type": "address"
        },
        {
          "internalType": "uint32",
          "name": "newPairTradingFeePPM",
          "type": "uint32"
        }
      ],
      "name": "setPairTradingFeePPM",
      "outputs": [],
      "stateMutability": "nonpayable",
      "type": "function"
    },
    {
      "inputs": [
        {
          "internalType": "uint32",
          "name": "newTradingFeePPM",
          "type": "uint32"
        }
      ],
      "name": "setTradingFeePPM",
      "outputs": [],
      "stateMutability": "nonpayable",
      "type": "function"
    },
    {
      "inputs": [
        {
          "internalType": "Token",
          "name": "token0",
          "type": "address"
        },
        {
          "internalType": "Token",
          "name": "token1",
          "type": "address"
        },
        {
          "internalType": "uint256",
          "name": "startIndex",
          "type": "uint256"
        },
        {
          "internalType": "uint256",
          "name": "endIndex",
          "type": "uint256"
        }
      ],
      "name": "strategiesByPair",
      "outputs": [
        {
          "components": [
            {
              "internalType": "uint256",
              "name": "id",
              "type": "uint256"
            },
            {
              "internalType": "address",
              "name": "owner",
              "type": "address"
            },
            {
              "internalType": "Token[2]",
              "name": "tokens",
              "type": "address[2]"
            },
            {
              "components": [
                {
                  "internalType": "uint128",
                  "name": "y",
                  "type": "uint128"
                },
                {
                  "internalType": "uint128",
                  "name": "z",
                  "type": "uint128"
                },
                {
                  "internalType": "uint64",
                  "name": "A",
                  "type": "uint64"
                },
                {
                  "internalType": "uint64",
                  "name": "B",
                  "type": "uint64"
                }
              ],
              "internalType": "struct Order[2]",
              "name": "orders",
              "type": "tuple[2]"
            }
          ],
          "internalType": "struct Strategy[]",
          "name": "",
          "type": "tuple[]"
        }
      ],
      "stateMutability": "view",
      "type": "function"
    },
    {
      "inputs": [
        {
          "internalType": "Token",
          "name": "token0",
          "type": "address"
        },
        {
          "internalType": "Token",
          "name": "token1",
          "type": "address"
        }
      ],
      "name": "strategiesByPairCount",
      "outputs": [
        {
          "internalType": "uint256",
          "name": "",
          "type": "uint256"
        }
      ],
      "stateMutability": "view",
      "type": "function"
    },
    {
      "inputs": [
        {
          "internalType": "uint256",
          "name": "id",
          "type": "uint256"
        }
      ],
      "name": "strategy",
      "outputs": [
        {
          "components": [
            {
              "internalType": "uint256",
              "name": "id",
              "type": "uint256"
            },
            {
              "internalType": "address",
              "name": "owner",
              "type": "address"
            },
            {
              "internalType": "Token[2]",
              "name": "tokens",
              "type": "address[2]"
            },
            {
              "components": [
                {
                  "internalType": "uint128",
                  "name": "y",
                  "type": "uint128"
                },
                {
                  "internalType": "uint128",
                  "name": "z",
                  "type": "uint128"
                },
                {
                  "internalType": "uint64",
                  "name": "A",
                  "type": "uint64"
                },
                {
                  "internalType": "uint64",
                  "name": "B",
                  "type": "uint64"
                }
              ],
              "internalType": "struct Order[2]",
              "name": "orders",
              "type": "tuple[2]"
            }
          ],
          "internalType": "struct Strategy",
          "name": "",
          "type": "tuple"
        }
      ],
      "stateMutability": "view",
      "type": "function"
    },
    {
      "inputs": [
        {
          "internalType": "bytes4",
          "name": "interfaceId",
          "type": "bytes4"
        }
      ],
      "name": "supportsInterface",
      "outputs": [
        {
          "internalType": "bool",
          "name": "",
          "type": "bool"
        }
      ],
      "stateMutability": "view",
      "type": "function"
    },
    {
      "inputs": [
        {
          "internalType": "Token",
          "name": "token",
          "type": "address"
        }
      ],
      "name": "testAccumulatedFees",
      "outputs": [
        {
          "internalType": "uint256",
          "name": "",
          "type": "uint256"
        }
      ],
      "stateMutability": "view",
      "type": "function"
    },
    {
      "inputs": [
        {
          "internalType": "Token",
          "name": "token",
          "type": "address"
        },
        {
          "internalType": "uint256",
          "name": "amount",
          "type": "uint256"
        }
      ],
      "name": "testSetAccumulatedFees",
      "outputs": [],
      "stateMutability": "nonpayable",
      "type": "function"
    },
    {
      "inputs": [
        {
          "internalType": "Token",
          "name": "sourceToken",
          "type": "address"
        },
        {
          "internalType": "Token",
          "name": "targetToken",
          "type": "address"
        },
        {
          "components": [
            {
              "internalType": "uint256",
              "name": "strategyId",
              "type": "uint256"
            },
            {
              "internalType": "uint128",
              "name": "amount",
              "type": "uint128"
            }
          ],
          "internalType": "struct TradeAction[]",
          "name": "tradeActions",
          "type": "tuple[]"
        },
        {
          "internalType": "uint256",
          "name": "deadline",
          "type": "uint256"
        },
        {
          "internalType": "uint128",
          "name": "minReturn",
          "type": "uint128"
        }
      ],
      "name": "tradeBySourceAmount",
      "outputs": [
        {
          "internalType": "uint128",
          "name": "",
          "type": "uint128"
        }
      ],
      "stateMutability": "payable",
      "type": "function"
    },
    {
      "inputs": [
        {
          "internalType": "Token",
          "name": "sourceToken",
          "type": "address"
        },
        {
          "internalType": "Token",
          "name": "targetToken",
          "type": "address"
        },
        {
          "components": [
            {
              "internalType": "uint256",
              "name": "strategyId",
              "type": "uint256"
            },
            {
              "internalType": "uint128",
              "name": "amount",
              "type": "uint128"
            }
          ],
          "internalType": "struct TradeAction[]",
          "name": "tradeActions",
          "type": "tuple[]"
        },
        {
          "internalType": "uint256",
          "name": "deadline",
          "type": "uint256"
        },
        {
          "internalType": "uint128",
          "name": "maxInput",
          "type": "uint128"
        }
      ],
      "name": "tradeByTargetAmount",
      "outputs": [
        {
          "internalType": "uint128",
          "name": "",
          "type": "uint128"
        }
      ],
      "stateMutability": "payable",
      "type": "function"
    },
    {
      "inputs": [],
      "name": "tradingFeePPM",
      "outputs": [
        {
          "internalType": "uint32",
          "name": "",
          "type": "uint32"
        }
      ],
      "stateMutability": "view",
      "type": "function"
    },
    {
      "inputs": [],
      "name": "unpause",
      "outputs": [],
      "stateMutability": "nonpayable",
      "type": "function"
    },
    {
      "inputs": [
        {
          "internalType": "uint256",
          "name": "strategyId",
          "type": "uint256"
        },
        {
          "components": [
            {
              "internalType": "uint128",
              "name": "y",
              "type": "uint128"
            },
            {
              "internalType": "uint128",
              "name": "z",
              "type": "uint128"
            },
            {
              "internalType": "uint64",
              "name": "A",
              "type": "uint64"
            },
            {
              "internalType": "uint64",
              "name": "B",
              "type": "uint64"
            }
          ],
          "internalType": "struct Order[2]",
          "name": "currentOrders",
          "type": "tuple[2]"
        },
        {
          "components": [
            {
              "internalType": "uint128",
              "name": "y",
              "type": "uint128"
            },
            {
              "internalType": "uint128",
              "name": "z",
              "type": "uint128"
            },
            {
              "internalType": "uint64",
              "name": "A",
              "type": "uint64"
            },
            {
              "internalType": "uint64",
              "name": "B",
              "type": "uint64"
            }
          ],
          "internalType": "struct Order[2]",
          "name": "newOrders",
          "type": "tuple[2]"
        }
      ],
      "name": "updateStrategy",
      "outputs": [],
      "stateMutability": "payable",
      "type": "function"
    },
    {
      "inputs": [],
      "name": "version",
      "outputs": [
        {
          "internalType": "uint16",
          "name": "",
          "type": "uint16"
        }
      ],
      "stateMutability": "pure",
      "type": "function"
    },
    {
      "inputs": [
        {
          "internalType": "Token",
          "name": "token",
          "type": "address"
        },
        {
          "internalType": "uint256",
          "name": "amount",
          "type": "uint256"
        },
        {
          "internalType": "address",
          "name": "recipient",
          "type": "address"
        }
      ],
      "name": "withdrawFees",
      "outputs": [
        {
          "internalType": "uint256",
          "name": "",
          "type": "uint256"
        }
      ],
      "stateMutability": "nonpayable",
      "type": "function"
    },
    {
      "stateMutability": "payable",
      "type": "receive"
    }
  ],
  "bytecode": {
    "object": "0x60c06040523480156200001157600080fd5b5060405162006aa238038062006aa2833981016040819052620000349162000995565b6001600160a01b03811660805281816200004e826200006f565b6001600160a01b03821660a052620000656200009a565b50505050620009d4565b6001600160a01b038116620000975760405163e6c4247b60e01b815260040160405180910390fd5b50565b600054610100900460ff1615808015620000bb5750600054600160ff909116105b80620000d75750303b158015620000d7575060005460ff166001145b620001405760405162461bcd60e51b815260206004820152602e60248201527f496e697469616c697a61626c653a20636f6e747261637420697320616c72656160448201526d191e481a5b9a5d1a585b1a5e995960921b60648201526084015b60405180910390fd5b6000805460ff19166001179055801562000164576000805461ff0019166101001790555b6200016e620001b7565b801562000097576000805461ff0019169055604051600181527f7f26b83ff96e1f2b6a682f133852f6798a09c465da95921460cefb38474024989060200160405180910390a150565b600054610100900460ff16620002135760405162461bcd60e51b815260206004820152602b602482015260008051602062006a8283398151915260448201526a6e697469616c697a696e6760a81b606482015260840162000137565b6200021d62000251565b62000227620002b7565b620002316200031d565b6200023b6200038d565b62000245620003f3565b6200024f62000459565b565b600054610100900460ff16620002ad5760405162461bcd60e51b815260206004820152602b602482015260008051602062006a8283398151915260448201526a6e697469616c697a696e6760a81b606482015260840162000137565b6200024f6200052b565b600054610100900460ff16620003135760405162461bcd60e51b815260206004820152602b602482015260008051602062006a8283398151915260448201526a6e697469616c697a696e6760a81b606482015260840162000137565b6200024f62000587565b600054610100900460ff16620003795760405162461bcd60e51b815260206004820152602b602482015260008051602062006a8283398151915260448201526a6e697469616c697a696e6760a81b606482015260840162000137565b620003836200052b565b6200024f620005f0565b600054610100900460ff16620003e95760405162461bcd60e51b815260206004820152602b602482015260008051602062006a8283398151915260448201526a6e697469616c697a696e6760a81b606482015260840162000137565b6200024f62000691565b600054610100900460ff166200044f5760405162461bcd60e51b815260206004820152602b602482015260008051602062006a8283398151915260448201526a6e697469616c697a696e6760a81b606482015260840162000137565b6200024f620006f5565b600054610100900460ff16620004b55760405162461bcd60e51b815260206004820152602b602482015260008051602062006a8283398151915260448201526a6e697469616c697a696e6760a81b606482015260840162000137565b620004f07ff28f409b8cbe6b50c7ca45afe893f01f69626f8a4e33cb480bc1bc2d618c084560008051602062006a628339815191526200075e565b6200024f7f24a843cae781765d8cdc3bca1cc42497522c0508f4e621c2ca36ceea2fda7b1660008051602062006a628339815191526200075e565b600054610100900460ff166200024f5760405162461bcd60e51b815260206004820152602b602482015260008051602062006a8283398151915260448201526a6e697469616c697a696e6760a81b606482015260840162000137565b600054610100900460ff16620005e35760405162461bcd60e51b815260206004820152602b602482015260008051602062006a8283398151915260448201526a6e697469616c697a696e6760a81b606482015260840162000137565b6200024f6107d0620007a9565b600054610100900460ff166200064c5760405162461bcd60e51b815260206004820152602b602482015260008051602062006a8283398151915260448201526a6e697469616c697a696e6760a81b606482015260840162000137565b61012d805461ffff191660011790556200067660008051602062006a62833981519152806200075e565b6200024f60008051602062006a62833981519152336200082e565b600054610100900460ff16620006ed5760405162461bcd60e51b815260206004820152602b602482015260008051602062006a8283398151915260448201526a6e697469616c697a696e6760a81b606482015260840162000137565b600161015f55565b600054610100900460ff16620007515760405162461bcd60e51b815260206004820152602b602482015260008051602062006a8283398151915260448201526a6e697469616c697a696e6760a81b606482015260840162000137565b610191805460ff19169055565b600082815260c96020526040808220600101805490849055905190918391839186917fbd79b86ffe0ab8e8776151514217cd7cacd52c909f66475c3af44e129f0b00ff9190a4505050565b60655463ffffffff600160801b90910481169082168103620007c9575050565b6065805463ffffffff60801b1916600160801b63ffffffff8581169182029290921790925560408051918416825260208201929092527f66db0986e1156e2e747795714bf0301c7e1c695c149a738cb01bcf5cfead8465910160405180910390a15050565b6200083a82826200083e565b5050565b6200084a828262000869565b600082815260fb602052604090206200086490826200090d565b505050565b600082815260c9602090815260408083206001600160a01b038516845290915290205460ff166200083a57600082815260c9602090815260408083206001600160a01b03851684529091529020805460ff19166001179055620008c93390565b6001600160a01b0316816001600160a01b0316837f2f8788117e7eff1d82e926ec794901d17c78024a50270940304540a733656f0d60405160405180910390a45050565b600062000924836001600160a01b0384166200092d565b90505b92915050565b6000818152600183016020526040812054620009765750815460018181018455600084815260208082209093018490558454848252828601909352604090209190915562000927565b50600062000927565b6001600160a01b03811681146200009757600080fd5b60008060408385031215620009a957600080fd5b8251620009b6816200097f565b6020840151909250620009c9816200097f565b809150509250929050565b60805160a05161604562000a1d60003960008181610a5401528181610f3101528181610fdb0152818161114b015281816113d5015261142f015260006115de01526160456000f3fe6080604052600436106102bf5760003560e01c8063873020371161016e578063c9c65396116100cb578063f2bda26d1161007f578063f74dad8111610064578063f74dad811461082a578063fcf6666414610857578063ffb0a4a01461087757600080fd5b8063f2bda26d146107f7578063f727473a1461081757600080fd5b8063d547741f116100b0578063d547741f14610795578063f06f8acd146107b5578063f1c5e014146107e457600080fd5b8063c9c6539614610755578063ca15c8731461077557600080fd5b80639ba372c211610122578063b76040cd11610107578063b76040cd146106df578063ba0a868b146106f3578063bc88d7e41461072857600080fd5b80639ba372c2146106aa578063a217fddf146106ca57600080fd5b80639010d07c116101535780639010d07c146105f957806391d148541461063157806393867fb51461067757600080fd5b806387302037146105b95780638cd2403d146105d957600080fd5b80633f4ba83a1161021c5780635c975abb116101d05780638129fc1c116101b55780638129fc1c146105625780638456cb59146105775780638672d5451461058c57600080fd5b80635c975abb1461052957806369a4dea71461054257600080fd5b806353abc0691161020157806353abc069146104b057806354fd4d50146104e657806355817d1d1461050957600080fd5b80633f4ba83a1461046857806341f435b31461047d57600080fd5b80632c40de1b116102735780633049cff9116102585780633049cff9146103f1578063322cf8441461042857806336568abe1461044857600080fd5b80632c40de1b1461039e5780632f2ff15d146103d157600080fd5b806321589fa1116102a457806321589fa11461032b578063248a9ca3146103405780632ab2fad11461037e57600080fd5b806301ffc9a7146102cb578063102ee9ba1461030057600080fd5b366102c657005b600080fd5b3480156102d757600080fd5b506102eb6102e6366004615480565b610899565b60405190151581526020015b60405180910390f35b61031361030e366004615538565b6108f5565b6040516001600160801b0390911681526020016102f7565b61033e6103393660046155cb565b610a0f565b005b34801561034c57600080fd5b5061037061035b36600461560b565b600090815260c9602052604090206001015490565b6040519081526020016102f7565b34801561038a57600080fd5b50610313610399366004615624565b610b83565b3480156103aa57600080fd5b507f24a843cae781765d8cdc3bca1cc42497522c0508f4e621c2ca36ceea2fda7b16610370565b3480156103dd57600080fd5b5061033e6103ec366004615689565b610bdd565b3480156103fd57600080fd5b5061033e61040c3660046156b9565b6001600160a01b03909116600090815260686020526040902055565b34801561043457600080fd5b506103706104433660046156e5565b610c02565b34801561045457600080fd5b5061033e610463366004615689565b610c25565b34801561047457600080fd5b5061033e610cb6565b34801561048957600080fd5b507ff28f409b8cbe6b50c7ca45afe893f01f69626f8a4e33cb480bc1bc2d618c0845610370565b3480156104bc57600080fd5b506103706104cb366004615713565b6001600160a01b031660009081526068602052604090205490565b3480156104f257600080fd5b5060025b60405161ffff90911681526020016102f7565b34801561051557600080fd5b5061033e610524366004615744565b610cec565b34801561053557600080fd5b506101915460ff166102eb565b34801561054e57600080fd5b5061033e61055d366004615782565b610d3f565b34801561056e57600080fd5b5061033e610d7c565b34801561058357600080fd5b5061033e610e9b565b34801561059857600080fd5b506105ac6105a73660046156e5565b610ece565b6040516102f791906157c9565b3480156105c557600080fd5b5061033e6105d436600461560b565b610ef1565b3480156105e557600080fd5b5061033e6105f43660046157ed565b61100c565b34801561060557600080fd5b5061061961061436600461585f565b611079565b6040516001600160a01b0390911681526020016102f7565b34801561063d57600080fd5b506102eb61064c366004615689565b600091825260c9602090815260408084206001600160a01b0393909316845291905290205460ff1690565b34801561068357600080fd5b507f2172861495e7b85edac73e3cd5fbb42dd675baadf627720e687bcfdaca025096610370565b3480156106b657600080fd5b506103706106c5366004615881565b611091565b3480156106d657600080fd5b50610370600081565b3480156106eb57600080fd5b5060016104f6565b3480156106ff57600080fd5b5061071361070e3660046156e5565b611110565b60405163ffffffff90911681526020016102f7565b34801561073457600080fd5b5061074861074336600461560b565b61112c565b6040516102f79190615965565b34801561076157600080fd5b506105ac6107703660046156e5565b611170565b34801561078157600080fd5b5061037061079036600461560b565b6111b1565b3480156107a157600080fd5b5061033e6107b0366004615689565b6111c8565b3480156107c157600080fd5b50606554700100000000000000000000000000000000900463ffffffff16610713565b6103136107f2366004615538565b6111ed565b34801561080357600080fd5b50610313610812366004615624565b6112a3565b610370610825366004615974565b6112f9565b34801561083657600080fd5b5061084a6108453660046159b4565b61140d565b6040516102f791906159fa565b34801561086357600080fd5b50610370610872366004615713565b611453565b34801561088357600080fd5b5061088c61147c565b6040516102f79190615a49565b60007fffffffff0000000000000000000000000000000000000000000000000000000082167f5a05180f0000000000000000000000000000000000000000000000000000000014806108ef57506108ef8261148b565b92915050565b60006108ff611522565b61090761157d565b61090f6115d3565b61091c8787853486611635565b61092e876001600160a01b03166116c8565b1561097657816001600160801b0316341015610976576040517f7038b89900000000000000000000000000000000000000000000000000000000815260040160405180910390fd5b600061098288886116ef565b6040805161010081018252338152815180830183526001600160a01b038c811682528b166020828101919091528201526001918101919091526001600160801b038516606082015234608082015260a08101829052600060c0820181905260e08201529091506109f3878783611793565b60c00151915050610a05600161015f55565b9695505050505050565b610a17611522565b610a1f61157d565b610a276115d3565b6000610a3b610a368560801c90565b611d58565b6040516331a9108f60e11b8152600481018690529091507f00000000000000000000000000000000000000000000000000000000000000006001600160a01b031690636352211e90602401602060405180830381865afa158015610aa3573d6000803e3d6000fd5b505050506040513d601f19601f82011682018060405250810190610ac79190615a96565b6001600160a01b0316336001600160a01b031614610af857604051634ca8886760e01b815260040160405180910390fd5b600034118015610b2457506020810151610b229060005b60200201516001600160a01b03166116c8565b155b8015610b3d57506020810151610b3b906001610b0f565b155b15610b5b57604051631334bf4f60e11b815260040160405180910390fd5b610b6482611e30565b610b72848484843334611fbc565b50610b7e600161015f55565b505050565b6000610b8f85856123d4565b6000610b9b86866116ef565b604080518082019091526001600160a01b038089168252871660208201529091506000610bcb8287878685612433565b6020015193505050505b949350505050565b600082815260c96020526040902060010154610bf8816125f7565b610b7e8383612601565b6000610c0e83836123d4565b6000610c1a84846116ef565b9050610bd581612623565b6001600160a01b0381163314610ca85760405162461bcd60e51b815260206004820152602f60248201527f416363657373436f6e74726f6c3a2063616e206f6e6c792072656e6f756e636560448201527f20726f6c657320666f722073656c66000000000000000000000000000000000060648201526084015b60405180910390fd5b610cb28282612645565b5050565b7ff28f409b8cbe6b50c7ca45afe893f01f69626f8a4e33cb480bc1bc2d618c0845610ce18133612667565b610ce96126aa565b50565b610d167f2172861495e7b85edac73e3cd5fbb42dd675baadf627720e687bcfdaca02509633612667565b80610d20816126fd565b6000610d2c85856116ef565b9050610d388184612740565b5050505050565b610d697f2172861495e7b85edac73e3cd5fbb42dd675baadf627720e687bcfdaca02509633612667565b80610d73816126fd565b610cb282612829565b600054610100900460ff1615808015610d9c5750600054600160ff909116105b80610db65750303b158015610db6575060005460ff166001145b610e285760405162461bcd60e51b815260206004820152602e60248201527f496e697469616c697a61626c653a20636f6e747261637420697320616c72656160448201527f647920696e697469616c697a65640000000000000000000000000000000000006064820152608401610c9f565b6000805460ff191660011790558015610e4b576000805461ff0019166101001790555b610e536128df565b8015610ce9576000805461ff0019169055604051600181527f7f26b83ff96e1f2b6a682f133852f6798a09c465da95921460cefb38474024989060200160405180910390a150565b7ff28f409b8cbe6b50c7ca45afe893f01f69626f8a4e33cb480bc1bc2d618c0845610ec68133612667565b610ce961297a565b610ed66152fb565b610ee083836123d4565b610eea83836116ef565b9392505050565b610ef9611522565b610f0161157d565b610f096115d3565b6000610f18610a368360801c90565b6040516331a9108f60e11b8152600481018490529091507f00000000000000000000000000000000000000000000000000000000000000006001600160a01b031690636352211e90602401602060405180830381865afa158015610f80573d6000803e3d6000fd5b505050506040513d601f19601f82011682018060405250810190610fa49190615a96565b6001600160a01b0316336001600160a01b031614610fd557604051634ca8886760e01b815260040160405180910390fd5b611000827f0000000000000000000000000000000000000000000000000000000000000000836129b8565b50610ce9600161015f55565b61012d546000906110229061ffff166001615adf565b905061ffff8116600214611062576040517f0dc149f000000000000000000000000000000000000000000000000000000000815260040160405180910390fd5b61012d805461ffff191661ffff8316179055505050565b600082815260fb60205260408120610eea9083612b77565b600061109b61157d565b7f24a843cae781765d8cdc3bca1cc42497522c0508f4e621c2ca36ceea2fda7b166110c68133612667565b826110d081612b83565b856110da81612b83565b856110e481612bc3565b6110ec611522565b6110f833888a89612bfd565b9450611105600161015f55565b505050509392505050565b60008061111d84846116ef565b9050610bd58160000151612cb1565b611134615323565b6000611143610a368460801c90565b9050610eea837f000000000000000000000000000000000000000000000000000000000000000083612d00565b6111786152fb565b611180611522565b61118861157d565b6111906115d3565b61119a83836123d4565b6111a48383612e01565b90506108ef600161015f55565b600081815260fb602052604081206108ef90612f63565b600082815260c960205260409020600101546111e3816125f7565b610b7e8383612645565b60006111f7611522565b6111ff61157d565b6112076115d3565b6112148787853486611635565b600061122088886116ef565b6040805161010081018252338152815180830183526001600160a01b038c811682528b1660208281019190915282015260009181018290526001600160801b038616606082015234608082015260a0810183905260c0810182905260e0810191909152909150611291878783611793565b60e00151915050610a05600161015f55565b60006112af85856123d4565b60006112bb86866116ef565b604080518082019091526001600160a01b0380891682528716602082015290915060006112ec828787866001612433565b5198975050505050505050565b6000611303611522565b61130b61157d565b6113136115d3565b61131d84846123d4565b60003411801561133c575061133a846001600160a01b03166116c8565b155b80156113575750611355836001600160a01b03166116c8565b155b1561137557604051631334bf4f60e11b815260040160405180910390fd5b61137e82611e30565b6113866152fb565b6113908585612f6d565b6113a55761139e8585612e01565b90506113b2565b6113af85856116ef565b90505b604080518082019091526001600160a01b038087168252851660208201526113fe7f00000000000000000000000000000000000000000000000000000000000000008286853334612fd0565b92505050610eea600161015f55565b606061141985856123d4565b600061142586866116ef565b9050610a058185857f00000000000000000000000000000000000000000000000000000000000000006131fd565b60008161145f81612b83565b50506001600160a01b031660009081526068602052604090205490565b6060611486613342565b905090565b60007fffffffff0000000000000000000000000000000000000000000000000000000082167f7965db0b0000000000000000000000000000000000000000000000000000000014806108ef57507f01ffc9a7000000000000000000000000000000000000000000000000000000007fffffffff000000000000000000000000000000000000000000000000000000008316146108ef565b600261015f54036115755760405162461bcd60e51b815260206004820152601f60248201527f5265656e7472616e637947756172643a207265656e7472616e742063616c6c006044820152606401610c9f565b600261015f55565b6101915460ff16156115d15760405162461bcd60e51b815260206004820152601060248201527f5061757361626c653a20706175736564000000000000000000000000000000006044820152606401610c9f565b565b306001600160a01b037f000000000000000000000000000000000000000000000000000000000000000016146115d1576040517fd0c8bfe500000000000000000000000000000000000000000000000000000000815260040160405180910390fd5b4283101561166f576040517f1ab7da6b00000000000000000000000000000000000000000000000000000000815260040160405180910390fd5b611681816001600160801b0316612bc3565b61168b85856123d4565b6000821180156116aa57506116a8856001600160a01b03166116c8565b155b15610d3857604051631334bf4f60e11b815260040160405180910390fd5b60006001600160a01b03821673eeeeeeeeeeeeeeeeeeeeeeeeeeeeeeeeeeeeeeee146108ef565b6116f76152fb565b6117018383612f6d565b611737576040517fc5fc4bf400000000000000000000000000000000000000000000000000000000815260040160405180910390fd5b60006117438484613461565b80516001600160a01b039081166000908152603460209081526040808320828601519094168352928152908290205482518084019093526001600160801b03168252810191909152949350505050565b60006117d28260200151602001518360a00151602001516000600281106117bc576117bc615ab3565b60200201516001600160a01b0390811691161490565b905060005b83811015611ace5760008585838181106117f3576117f3615ab3565b905060400201602001602081019061180b9190615afa565b9050600086868481811061182157611821615ab3565b60409081029290920135600081815260666020528381208451606081019586905292955093909250839060039082845b8154815260200190600101908083116118515750505050509050600080611877836134c7565b9150915061188e8960a001516000015186886135bb565b6000808215158a1515146118a857835160208501516118b0565b602084015184515b915091506000806118c6848b8f60400151613652565b91509150806001600160801b031684600001516001600160801b0316101561191a576040517fbb55fd2700000000000000000000000000000000000000000000000000000000815260040160405180910390fd5b83518190036001600160801b0316845282518290849061193b908390615b15565b6001600160801b039081169091528451602086015190821691161015905061196e5782516001600160801b031660208401525b600061197a878761372e565b80518a55602080820151908a01519192501461199b57602081015160018a01555b60408082015190890151146119b557604081015160028a01555b8d60a0015160200151866119ca5760016119cd565b60005b60ff16600281106119e0576119e0615ab3565b60200201516001600160a01b03168e60a001516020015187611a03576000611a06565b60015b60ff1660028110611a1957611a19615ab3565b60200201516001600160a01b03168b7f720da23a5c920b1d8827ec83c4d3c4d90d9419eadb0036b88cb4c2ffa91aef7d8a600060200201518b600160200201516001604051611a6a93929190615b35565b60405180910390a4828e60c001818151611a849190615b15565b6001600160801b031690525060e08e018051839190611aa4908390615b15565b6001600160801b0316905250611ac79a508b995061385c98505050505050505050565b90506117d7565b506000826040015115611b9c576000611af38460c001518560a0015160000151613862565b90508360c0015181611b059190615bd3565b6001600160801b0380831660c08701819052606087015192945091161015611b59576040517f0699263d00000000000000000000000000000000000000000000000000000000815260040160405180910390fd5b602080850151516001600160a01b0316600090815260689091526040812080546001600160801b0385169290611b90908490615bf3565b90915550611c5a915050565b6000611bb48460e001518560a0015160000151613899565b9050808460e00151611bc69190615bd3565b6001600160801b0380831660e08701819052606087015192945091161115611c1a576040517ff602de8f00000000000000000000000000000000000000000000000000000000815260040160405180910390fd5b6020808501518101516001600160a01b0316600090815260689091526040812080546001600160801b0385169290611c53908490615bf3565b9091555050505b611c8583602001516000015184600001518560c001516001600160801b0316866080015160006138d3565b611ca983602001516020015184600001518560e001516001600160801b03166139fb565b8260200151602001516001600160a01b03168360200151600001516001600160a01b031684600001516001600160a01b03167f95f3b01351225fea0e69a46f68b164c9dea10284f12cd4a907ce66510ab7af6a8660c001518760e00151868960400151604051611d4194939291906001600160801b039485168152928416602084015292166040820152901515606082015260800190565b60405180910390a45050505050565b600161015f55565b611d606152fb565b6001600160801b0382166000908152603560205260408082208151808301928390529160029082845b81546001600160a01b03168152600190910190602001808311611d89575050505050905060006001600160a01b031681600060028110611dcb57611dcb615ab3565b60200201516001600160a01b031603611e10576040517fc5fc4bf400000000000000000000000000000000000000000000000000000000815260040160405180910390fd5b604080518082019091526001600160801b03909316835260208301525090565b60005b6002811015610cb257818160028110611e4e57611e4e615ab3565b608002016000016020810190611e649190615afa565b6001600160801b0316828260028110611e7f57611e7f615ab3565b608002016020016020810190611e959190615afa565b6001600160801b03161015611ed6576040517f5cef583a00000000000000000000000000000000000000000000000000000000815260040160405180910390fd5b611f1d828260028110611eeb57611eeb615ab3565b608002016040016020810190611f019190615c1e565b67ffffffffffffffff166601000000000000908190041c151590565b611f53576040517f6a43f8d100000000000000000000000000000000000000000000000000000000815260040160405180910390fd5b611f7e828260028110611f6857611f68615ab3565b608002016060016020810190611f019190615c1e565b611fb4576040517f6a43f8d100000000000000000000000000000000000000000000000000000000815260040160405180910390fd5b600101611e33565b60008681526066602052604080822081516060810192839052909291839060039082845b815481526020019060010190808311611fe05750505050509050600080612006836134c7565b604080518082019091529193509150612056908a60026000835b8282101561204c5761203d60808302850136819003810190615c4f565b81526020019060010190612020565b5050505083613a46565b61208c576040517f811cb74a00000000000000000000000000000000000000000000000000000000815260040160405180910390fd5b604080518082019091526000906120d9908a600284835b828210156120cf576120c060808302850136819003810190615c4f565b815260200190600101906120a3565b505050508361372e565b80518551919250146120ea57805185555b602080820151908501511461210457602081015160018601555b604080820151908501511461211e57604081015160028601555b600061212a8984613ba5565b905060005b600281101561236c57600082826002811061214c5761214c615ab3565b6020020151905085826002811061216557612165615ab3565b6020020151516001600160801b03168c836002811061218657612186615ab3565b60800201600001602081019061219c9190615afa565b6001600160801b031610156122135760008c83600281106121bf576121bf615ab3565b6080020160000160208101906121d59190615afa565b8784600281106121e7576121e7615ab3565b6020020151516121f79190615bd3565b905061220d828c836001600160801b03166139fb565b506122d2565b85826002811061222557612225615ab3565b6020020151516001600160801b03168c836002811061224657612246615ab3565b60800201600001602081019061225c9190615afa565b6001600160801b031611156122d257600086836002811061227f5761227f615ab3565b6020020151518d846002811061229757612297615ab3565b6080020160000160208101906122ad9190615afa565b6122b79190615bd3565b90506122d0828c836001600160801b03168d60016138d3565b505b6000891180156122ef57506122ef816001600160a01b03166116c8565b801561234b575085826002811061230857612308615ab3565b6020020151516001600160801b03168c836002811061232957612329615ab3565b60800201600001602081019061233f9190615afa565b6001600160801b031611155b15612363576123636001600160a01b038b168a613c28565b5060010161212f565b50602081015181516040516001600160a01b0392831692909116908e907f720da23a5c920b1d8827ec83c4d3c4d90d9419eadb0036b88cb4c2ffa91aef7d906123be908f906080820190600090615d39565b60405180910390a4505050505050505050505050565b816123de81612b83565b816123e881612b83565b6001600160a01b038085169084160361242d576040517fbd969eb000000000000000000000000000000000000000000000000000000000815260040160405180910390fd5b50505050565b60408051808201909152600080825260208201526000612468876020015185602001516000600281106117bc576117bc615ab3565b905060005b858110156125a757600087878381811061248957612489615ab3565b90506040020160200160208101906124a19190615afa565b905060008888848181106124b7576124b7615ab3565b60409081029290920135600081815260666020528381208451606081019586905292955090939192509060039082845b8154815260200190600101908083116124e7575050505050905060008061250d836134c7565b915091506125208a6000015185876135bb565b60008115158815151461253457825161253a565b60208301515b905060008061254a83898e613652565b91509150818b6000018181516125609190615b15565b6001600160801b031690525060208b018051829190612580908390615b15565b6001600160801b03169052506125a0975088965061385c95505050505050565b905061246d565b5082156125cc57815184516125bc9190613862565b6001600160801b031682526125ed565b6125de82602001518560000151613899565b6001600160801b031660208301525b5095945050505050565b610ce98133613d41565b61260b8282613db6565b600082815260fb60205260409020610b7e9082613e58565b80516001600160801b03166000908152606760205260408120610eea81612f63565b61264f8282613e6d565b600082815260fb60205260409020610b7e9082613ef0565b600082815260c9602090815260408083206001600160a01b038516845290915290205460ff16610cb257604051634ca8886760e01b815260040160405180910390fd5b6126b2613f05565b610191805460ff191690557f5db9ee0a495bf2e6ff9c91a7834c1ba4fdd244a5e8aa4e537bd38aeae4b073aa335b6040516001600160a01b03909116815260200160405180910390a1565b620f424063ffffffff82161115610ce9576040517f58d620b300000000000000000000000000000000000000000000000000000000815260040160405180910390fd5b81516001600160801b031660009081526069602052604090205463ffffffff908116908216810361277057505050565b82516001600160801b03166000908152606960209081526040822080547fffffffffffffffffffffffffffffffffffffffffffffffffffffffff000000001663ffffffff861617905580850151908101516001600160a01b03169160200201516001600160a01b03167f831434d05f3ad5f63be733ea463b2933c70d2162697fd200a22b5d56f5c454b6838560405161281c92919063ffffffff92831681529116602082015260400190565b60405180910390a3505050565b60655463ffffffff70010000000000000000000000000000000090910481169082168103612855575050565b606580547fffffffffffffffffffffffff00000000ffffffffffffffffffffffffffffffff1670010000000000000000000000000000000063ffffffff8581169182029290921790925560408051918416825260208201929092527f66db0986e1156e2e747795714bf0301c7e1c695c149a738cb01bcf5cfead8465910160405180910390a15050565b600054610100900460ff1661294a5760405162461bcd60e51b815260206004820152602b60248201527f496e697469616c697a61626c653a20636f6e7472616374206973206e6f74206960448201526a6e697469616c697a696e6760a81b6064820152608401610c9f565b612952613f58565b61295a613fcb565b61296261403e565b61296a6140b9565b61297261412c565b6115d161419f565b61298261157d565b610191805460ff191660011790557f62e78cea01bee320cd4e420270b5ea74000d11b0c9f74754ebdbfc544b05a2586126e03390565b60006129c5848484612d00565b80516040517f42966c680000000000000000000000000000000000000000000000000000000081529192506001600160a01b038516916342966c6891612a119160040190815260200190565b600060405180830381600087803b158015612a2b57600080fd5b505af1158015612a3f573d6000803e3d6000fd5b505082516000908152606660205260408120818155600181018290556002015550612a679050565b805182516001600160801b03166000908152606760205260409020612a8b9161429e565b5060408101515160208201516060830151612ab992919060005b6020020151516001600160801b03166139fb565b6040810151602090810151908201516060830151612ada9291906001612aa5565b604081015160208101516001600160a01b031690600060200201516001600160a01b031682602001516001600160a01b03167f4d5b6e0627ea711d8e9312b6ba56f50e0b51d41816fd6fd38643495ac81d38b684600001518560600151600060028110612b4957612b49615ab3565b6020020151606087015160016020020151604051612b6993929190615d55565b60405180910390a450505050565b6000610eea83836142aa565b6001600160a01b038116610ce9576040517fe6c4247b00000000000000000000000000000000000000000000000000000000815260040160405180910390fd5b80600003610ce9576040517f7c946ed700000000000000000000000000000000000000000000000000000000815260040160405180910390fd5b6001600160a01b038216600090815260686020526040812054808203612c27576000915050610bd5565b80851115612c33578094505b612c3d8582615dec565b6001600160a01b038516600090815260686020526040902055612c618484876139fb565b6040516001600160a01b0387811682528691818616918716907f2f4e8fcae66f01952d258445c03f43cf56d3ce389e017ecd2afa8a79e77175889060200160405180910390a45092949350505050565b6001600160801b03811660009081526069602052604081205463ffffffff168015612cdc5780610eea565b5050606554700100000000000000000000000000000000900463ffffffff16919050565b612d08615323565b6040516331a9108f60e11b8152600481018590526000906001600160a01b03851690636352211e90602401602060405180830381865afa158015612d50573d6000803e3d6000fd5b505050506040513d601f19601f82011682018060405250810190612d749190615a96565b600086815260666020526040808220815160608101928390529394509192919060039082845b815481526020019060010190808311612d9a5750505050509050600080612dc0836134c7565b915091506000612dd08783613ba5565b604080516080810182528b81526001600160a01b039097166020880152860152505060608301525090509392505050565b612e096152fb565b612e138383612f6d565b15612e4a576040517fc9bb25eb00000000000000000000000000000000000000000000000000000000815260040160405180910390fd5b6000612e568484613461565b603354909150600090612e73906001600160801b03166001615b15565b603380546fffffffffffffffffffffffffffffffff19166001600160801b0383169081179091556000908152603560205260409020909150612eb79083600261534f565b5081516001600160a01b039081166000908152603460209081526040808320828701805186168552925280832080546fffffffffffffffffffffffffffffffff19166001600160801b0387169081179091559151865191519085169491909116927f6365c594f5448f79c1cc1e6f661bdbf1d16f2e8f85747e13f8e80f1fd168b7c391a46040518060400160405280826001600160801b03168152602001838152509250505092915050565b60006108ef825490565b600080612f7a8484613461565b80516001600160a01b039081166000908152603460209081526040808320828601519094168352929052908120549192506001600160801b039091169003612fc65760009150506108ef565b5060019392505050565b8451600090613004908487845b608002016000016020810190612ff39190615afa565b6001600160801b03168560016138d3565b60208601516130169084876001612fdd565b606554600090613030906001600160801b03166001615b15565b606580546001600160801b0383166fffffffffffffffffffffffffffffffff199182168117909255875192935060009260801b161786516001600160801b0316600090815260676020526040902090915061308b90826142d4565b50875160208701516000916130a19160016117bc565b604080518082019091529091506130ef908960026000835b828210156130e5576130d660808302850136819003810190615c4f565b815260200190600101906130b9565b505050508261372e565b60008381526066602052604090206131089160036153bb565b506040517f40c10f190000000000000000000000000000000000000000000000000000000081526001600160a01b038781166004830152602482018490528b16906340c10f1990604401600060405180830381600087803b15801561316c57600080fd5b505af1158015613180573d6000803e3d6000fd5b505050508860016002811061319757613197615ab3565b602002015189516040516001600160a01b0392831692918216918916907fff24554f8ccfe540435cfc8854831f8dcf1cf2068708cfaf46e8b52a4ccc4c8d906131e89087908e906080820190615dff565b60405180910390a45098975050505050505050565b83516001600160801b0316600090815260676020526040812060609161322282612f63565b905084158061323057508085115b15613239578094505b84861115613273576040517f2cd4dad300000000000000000000000000000000000000000000000000000000815260040160405180910390fd5b600061327f8787615dec565b905060008167ffffffffffffffff81111561329c5761329c615c39565b6040519080825280602002602001820160405280156132d557816020015b6132c2615323565b8152602001906001900390816132ba5790505b50905060005b828110156133355760006132f96132f2838c615bf3565b8790612b77565b905061330681898d612d00565b83838151811061331857613318615ab3565b60200260200101819052505061332e8160010190565b90506132db565b5098975050505050505050565b6033546060906001600160801b031660008167ffffffffffffffff81111561336c5761336c615c39565b6040519080825280602002602001820160405280156133a557816020015b6133926153e9565b81526020019060019003908161338a5790505b50905060005b826001600160801b0316816001600160801b0316101561345a57603560006133d4836001615b15565b6001600160801b03168152602081019190915260409081016000208151808301928390529160029082845b81546001600160a01b031681526001909101906020018083116133ff57505050505082826001600160801b03168151811061343c5761343c615ab3565b6020026020010181905250808061345290615e21565b9150506133ab565b5092915050565b6134696153e9565b816001600160a01b0316836001600160a01b0316106134a557604080518082019091526001600160a01b03808416825284166020820152610eea565b50604080518082019091526001600160a01b0392831681529116602082015290565b6134cf615407565b6040805160c0808201835284516001600160801b0390811683850190815260208088018051841660608701528051608090811c67ffffffffffffffff1681880152905190941c60a0860152908452845180840186528751841c8152878601519092168282015260009490840192908201908760026020020151901c67ffffffffffffffff16815260200160c160018860026003811061357057613570615ab3565b6020020151901b901c67ffffffffffffffff169052905291507f8000000000000000000000000000000000000000000000000000000000000000836002602002015110159050915091565b826001600160801b03166135cf8360801c90565b6001600160801b03161461360f576040517fb7b067f900000000000000000000000000000000000000000000000000000000815260040160405180910390fd5b806001600160801b0316600003610b7e576040517feb1a139600000000000000000000000000000000000000000000000000000000815260040160405180910390fd5b600080600085600001516001600160801b03169050600086602001516001600160801b0316905060006136a5886040015167ffffffffffffffff1665ffffffffffff811666010000000000009091041b90565b905060006136d3896060015167ffffffffffffffff1665ffffffffffff811666010000000000009091041b90565b90508615613703576136f96136f4896001600160801b0316868686866142e0565b6143df565b9550879450613722565b87955061371f6136f4896001600160801b031686868686614462565b94505b50505050935093915050565b61373661544d565b604080516060808201835260208681015151875151608091821b6fffffffffffffffffffffffffffffffff19166001600160801b03918216178552885193840151848701519484015160c09190911b7fffffffffffffffff000000000000000000000000000000000000000000000000169490921b77ffffffffffffffff00000000000000000000000000000000169116179190911790820152908101836137df576000613801565b7f80000000000000000000000000000000000000000000000000000000000000005b60c086600160200201516060015167ffffffffffffffff16901b608087600160200201516040015167ffffffffffffffff16901b60008860016020020151602001516001600160801b0316901b171717815250905092915050565b60010190565b60008061386e83612cb1565b9050610bd56136f46001600160801b038616620f424061388e8582615e47565b63ffffffff166145a1565b6000806138a583612cb1565b9050610bd56136f46001600160801b0386166138c484620f4240615e47565b63ffffffff16620f4240614609565b6138e5856001600160a01b03166116c8565b1561394e5782821015613924576040517f677606af00000000000000000000000000000000000000000000000000000000815260040160405180910390fd5b82821115613949576139496139398484615dec565b6001600160a01b03861690613c28565b610d38565b8215610d385780156139e657600061396f6001600160a01b038716306146fd565b90506139866001600160a01b0387168630876147a4565b600061399b6001600160a01b038816306146fd565b9050846139a88383615dec565b146139df576040517fca3e0a6800000000000000000000000000000000000000000000000000000000815260040160405180910390fd5b5050610d38565b610d386001600160a01b0386168530866147a4565b80600003613a0857505050565b613a1a836001600160a01b03166116c8565b15613a3257610b7e6001600160a01b03831682613c28565b610b7e6001600160a01b03841683836147ce565b6000805b6002811015612fc657828160028110613a6557613a65615ab3565b6020020151516001600160801b0316848260028110613a8657613a86615ab3565b6020020151516001600160801b0316141580613ae85750828160028110613aaf57613aaf615ab3565b6020020151602001516001600160801b0316848260028110613ad357613ad3615ab3565b6020020151602001516001600160801b031614155b80613b3b5750828160028110613b0057613b00615ab3565b60200201516040015167ffffffffffffffff16848260028110613b2557613b25615ab3565b60200201516040015167ffffffffffffffff1614155b80613b8e5750828160028110613b5357613b53615ab3565b60200201516060015167ffffffffffffffff16848260028110613b7857613b78615ab3565b60200201516060015167ffffffffffffffff1614155b15613b9d5760009150506108ef565b600101613a4a565b613bad6153e9565b81613bbc578260200151610eea565b60405180604001604052808460200151600160028110613bde57613bde615ab3565b60200201516001600160a01b03166001600160a01b031681526020018460200151600060028110613c1157613c11615ab3565b60200201516001600160a01b031690529392505050565b80471015613c785760405162461bcd60e51b815260206004820152601d60248201527f416464726573733a20696e73756666696369656e742062616c616e63650000006044820152606401610c9f565b6000826001600160a01b03168260405160006040518083038185875af1925050503d8060008114613cc5576040519150601f19603f3d011682016040523d82523d6000602084013e613cca565b606091505b5050905080610b7e5760405162461bcd60e51b815260206004820152603a60248201527f416464726573733a20756e61626c6520746f2073656e642076616c75652c207260448201527f6563697069656e74206d617920686176652072657665727465640000000000006064820152608401610c9f565b600082815260c9602090815260408083206001600160a01b038516845290915290205460ff16610cb257613d7481614833565b613d7f836020614845565b604051602001613d90929190615e9e565b60408051601f198184030181529082905262461bcd60e51b8252610c9f91600401615f1f565b600082815260c9602090815260408083206001600160a01b038516845290915290205460ff16610cb257600082815260c9602090815260408083206001600160a01b03851684529091529020805460ff19166001179055613e143390565b6001600160a01b0316816001600160a01b0316837f2f8788117e7eff1d82e926ec794901d17c78024a50270940304540a733656f0d60405160405180910390a45050565b6000610eea836001600160a01b038416614a6e565b600082815260c9602090815260408083206001600160a01b038516845290915290205460ff1615610cb257600082815260c9602090815260408083206001600160a01b0385168085529252808320805460ff1916905551339285917ff6391f5c32d9c69d2a47ea670b442974b53935d1edc7fd64eb21e047a839171b9190a45050565b6000610eea836001600160a01b038416614abd565b6101915460ff166115d15760405162461bcd60e51b815260206004820152601460248201527f5061757361626c653a206e6f74207061757365640000000000000000000000006044820152606401610c9f565b600054610100900460ff16613fc35760405162461bcd60e51b815260206004820152602b60248201527f496e697469616c697a61626c653a20636f6e7472616374206973206e6f74206960448201526a6e697469616c697a696e6760a81b6064820152608401610c9f565b6115d1614bb0565b600054610100900460ff166140365760405162461bcd60e51b815260206004820152602b60248201527f496e697469616c697a61626c653a20636f6e7472616374206973206e6f74206960448201526a6e697469616c697a696e6760a81b6064820152608401610c9f565b6115d1614c1b565b600054610100900460ff166140a95760405162461bcd60e51b815260206004820152602b60248201527f496e697469616c697a61626c653a20636f6e7472616374206973206e6f74206960448201526a6e697469616c697a696e6760a81b6064820152608401610c9f565b6140b1614bb0565b6115d1614c91565b600054610100900460ff166141245760405162461bcd60e51b815260206004820152602b60248201527f496e697469616c697a61626c653a20636f6e7472616374206973206e6f74206960448201526a6e697469616c697a696e6760a81b6064820152608401610c9f565b6115d1614d5f565b600054610100900460ff166141975760405162461bcd60e51b815260206004820152602b60248201527f496e697469616c697a61626c653a20636f6e7472616374206973206e6f74206960448201526a6e697469616c697a696e6760a81b6064820152608401610c9f565b6115d1614dca565b600054610100900460ff1661420a5760405162461bcd60e51b815260206004820152602b60248201527f496e697469616c697a61626c653a20636f6e7472616374206973206e6f74206960448201526a6e697469616c697a696e6760a81b6064820152608401610c9f565b6142547ff28f409b8cbe6b50c7ca45afe893f01f69626f8a4e33cb480bc1bc2d618c08457f2172861495e7b85edac73e3cd5fbb42dd675baadf627720e687bcfdaca025096614e42565b6115d17f24a843cae781765d8cdc3bca1cc42497522c0508f4e621c2ca36ceea2fda7b167f2172861495e7b85edac73e3cd5fbb42dd675baadf627720e687bcfdaca025096614e42565b6000610eea8383614abd565b60008260000182815481106142c1576142c1615ab3565b9060005260206000200154905092915050565b6000610eea8383614a6e565b60008260000361434f5781600003614324576040517f4e305c4b00000000000000000000000000000000000000000000000000000000815260040160405180910390fd5b61434886614339660100000000000080615f52565b6143438580615f52565b6145a1565b90506143d6565b6601000000000000840285840283860201600061436c868a615f52565b6143769083615dec565b905060006143848485614e8d565b905060006143928484614e8d565b905060006143a08383614ebc565b905060006143af8788846145a1565b905060006143be878785614609565b90506143cb8e83836145a1565b985050505050505050505b95945050505050565b60006001600160801b0382111561445e5760405162461bcd60e51b815260206004820152602760248201527f53616665436173743a2076616c756520646f65736e27742066697420696e203160448201527f32382062697473000000000000000000000000000000000000000000000000006064820152608401610c9f565b5090565b6000826000036144ca57816000036144a6576040517f4e305c4b00000000000000000000000000000000000000000000000000000000815260040160405180910390fd5b614348866144b48480615f52565b6144c5660100000000000080615f52565b614609565b660100000000000084028584028386020160006144e78983615f52565b905060006144f58485614e8d565b905060006145038389614e8d565b905060006145118383614ebc565b905060006145208788846145a1565b9050600061452f868c856145a1565b905060008061453e8484614ed2565b91509150811561456d5761455c89614556878b615f69565b83614609565b9a50505050505050505050506143d6565b6145788a8b8a6145a1565b614582908e615bf3565b61458c908a615f69565b9a505050505050505050505095945050505050565b6000806145af858585614609565b905060006145be868686614efb565b1115610bd55760001981106145ff576040517f35278d1200000000000000000000000000000000000000000000000000000000815260040160405180910390fd5b6001019050610eea565b60008060006146188686614f16565b915091508160000361463d5783818161463357614633615e64565b0492505050610eea565b838210614676576040517f35278d1200000000000000000000000000000000000000000000000000000000815260040160405180910390fd5b6000614683878787614efb565b9050600080614693858585614f4f565b91509150816000036146bb578681816146ae576146ae615e64565b0495505050505050610eea565b60008781038816906146ce848484614f7f565b905060006146ea838b816146e4576146e4615e64565b04614fbc565b919091029b9a5050505050505050505050565b6000614708836116c8565b1561471e57506001600160a01b038116316108ef565b826040517f70a082310000000000000000000000000000000000000000000000000000000081526001600160a01b03848116600483015291909116906370a0823190602401602060405180830381865afa158015614780573d6000803e3d6000fd5b505050506040513d601f19601f82011682018060405250810190610eea9190615f8b565b8015806147b557506147b5846116c8565b61242d5761242d6001600160a01b038516848484614fdd565b806000036147db57505050565b6147e4836116c8565b1561481f576040516001600160a01b0383169082156108fc029083906000818181858888f1935050505015801561242d573d6000803e3d6000fd5b610b7e6001600160a01b038416838361508e565b60606108ef6001600160a01b03831660145b60606000614854836002615f52565b61485f906002615bf3565b67ffffffffffffffff81111561487757614877615c39565b6040519080825280601f01601f1916602001820160405280156148a1576020820181803683370190505b5090507f3000000000000000000000000000000000000000000000000000000000000000816000815181106148d8576148d8615ab3565b60200101907effffffffffffffffffffffffffffffffffffffffffffffffffffffffffffff1916908160001a9053507f78000000000000000000000000000000000000000000000000000000000000008160018151811061493b5761493b615ab3565b60200101907effffffffffffffffffffffffffffffffffffffffffffffffffffffffffffff1916908160001a9053506000614977846002615f52565b614982906001615bf3565b90505b6001811115614a1f577f303132333435363738396162636465660000000000000000000000000000000085600f16601081106149c3576149c3615ab3565b1a60f81b8282815181106149d9576149d9615ab3565b60200101907effffffffffffffffffffffffffffffffffffffffffffffffffffffffffffff1916908160001a90535060049490941c93614a1881615fa4565b9050614985565b508315610eea5760405162461bcd60e51b815260206004820181905260248201527f537472696e67733a20686578206c656e67746820696e73756666696369656e746044820152606401610c9f565b6000818152600183016020526040812054614ab5575081546001818101845560008481526020808220909301849055845484825282860190935260409020919091556108ef565b5060006108ef565b60008181526001830160205260408120548015614ba6576000614ae1600183615dec565b8554909150600090614af590600190615dec565b9050818114614b5a576000866000018281548110614b1557614b15615ab3565b9060005260206000200154905080876000018481548110614b3857614b38615ab3565b6000918252602080832090910192909255918252600188019052604090208390555b8554869080614b6b57614b6b615fbb565b6001900381819060005260206000200160009055905585600101600086815260200190815260200160002060009055600193505050506108ef565b60009150506108ef565b600054610100900460ff166115d15760405162461bcd60e51b815260206004820152602b60248201527f496e697469616c697a61626c653a20636f6e7472616374206973206e6f74206960448201526a6e697469616c697a696e6760a81b6064820152608401610c9f565b600054610100900460ff16614c865760405162461bcd60e51b815260206004820152602b60248201527f496e697469616c697a61626c653a20636f6e7472616374206973206e6f74206960448201526a6e697469616c697a696e6760a81b6064820152608401610c9f565b6115d16107d0612829565b600054610100900460ff16614cfc5760405162461bcd60e51b815260206004820152602b60248201527f496e697469616c697a61626c653a20636f6e7472616374206973206e6f74206960448201526a6e697469616c697a696e6760a81b6064820152608401610c9f565b61012d805461ffff19166001179055614d357f2172861495e7b85edac73e3cd5fbb42dd675baadf627720e687bcfdaca02509680614e42565b6115d17f2172861495e7b85edac73e3cd5fbb42dd675baadf627720e687bcfdaca025096336150d7565b600054610100900460ff16611d505760405162461bcd60e51b815260206004820152602b60248201527f496e697469616c697a61626c653a20636f6e7472616374206973206e6f74206960448201526a6e697469616c697a696e6760a81b6064820152608401610c9f565b600054610100900460ff16614e355760405162461bcd60e51b815260206004820152602b60248201527f496e697469616c697a61626c653a20636f6e7472616374206973206e6f74206960448201526a6e697469616c697a696e6760a81b6064820152608401610c9f565b610191805460ff19169055565b600082815260c96020526040808220600101805490849055905190918391839186917fbd79b86ffe0ab8e8776151514217cd7cacd52c909f66475c3af44e129f0b00ff9190a4505050565b6000806000614e9c8585614f16565b9150915080198211614eb157816001016143d6565b506002019392505050565b6000818311614ecb5781610eea565b5090919050565b60008083830184811015614eed576000809250925050614ef4565b6001925090505b9250929050565b60008180614f0b57614f0b615e64565b838509949350505050565b6000806000614f2585856150e1565b9050848402808210614f3e579081900392509050614ef4565b600181830303969095509350505050565b600080828410614f655750839050818303614f77565b614f70600186615dec565b9150508183035b935093915050565b600080614f9d8380830381614f9657614f96615e64565b0460010190565b9050828481614fae57614fae615e64565b048186021795945050505050565b60006001815b600881101561345a5783820260020382029150600101614fc2565b6040516001600160a01b038085166024830152831660448201526064810182905261242d9085907f23b872dd00000000000000000000000000000000000000000000000000000000906084015b60408051601f198184030181529190526020810180517bffffffffffffffffffffffffffffffffffffffffffffffffffffffff167fffffffff00000000000000000000000000000000000000000000000000000000909316929092179091526150f0565b6040516001600160a01b038316602482015260448101829052610b7e9084907fa9059cbb000000000000000000000000000000000000000000000000000000009060640161502a565b610cb28282612601565b60006000198284099392505050565b6000615145826040518060400160405280602081526020017f5361666545524332303a206c6f772d6c6576656c2063616c6c206661696c6564815250856001600160a01b03166151d89092919063ffffffff16565b90508051600014806151665750808060200190518101906151669190615fd1565b610b7e5760405162461bcd60e51b815260206004820152602a60248201527f5361666545524332303a204552433230206f7065726174696f6e20646964206e60448201527f6f742073756363656564000000000000000000000000000000000000000000006064820152608401610c9f565b6060610bd5848460008585600080866001600160a01b031685876040516151ff9190615ff3565b60006040518083038185875af1925050503d806000811461523c576040519150601f19603f3d011682016040523d82523d6000602084013e615241565b606091505b50915091506152528783838761525d565b979650505050505050565b606083156152cc5782516000036152c5576001600160a01b0385163b6152c55760405162461bcd60e51b815260206004820152601d60248201527f416464726573733a2063616c6c20746f206e6f6e2d636f6e74726163740000006044820152606401610c9f565b5081610bd5565b610bd583838151156152e15781518083602001fd5b8060405162461bcd60e51b8152600401610c9f9190615f1f565b604051806040016040528060006001600160801b0316815260200161531e6153e9565b905290565b60408051608081018252600080825260208201529081016153426153e9565b815260200161531e615407565b82600281019282156153af579160200282015b828111156153af57825182547fffffffffffffffffffffffff0000000000000000000000000000000000000000166001600160a01b03909116178255602090920191600190910190615362565b5061445e92915061546b565b82600381019282156153af579160200282015b828111156153af5782518255916020019190600101906153ce565b60405180604001604052806002906020820280368337509192915050565b60405180604001604052806002905b6040805160808101825260008082526020808301829052928201819052606082015282526000199092019101816154165790505090565b60405180606001604052806003906020820280368337509192915050565b5b8082111561445e576000815560010161546c565b60006020828403121561549257600080fd5b81357fffffffff0000000000000000000000000000000000000000000000000000000081168114610eea57600080fd5b6001600160a01b0381168114610ce957600080fd5b60008083601f8401126154e957600080fd5b50813567ffffffffffffffff81111561550157600080fd5b6020830191508360208260061b8501011115614ef457600080fd5b80356001600160801b038116811461553357600080fd5b919050565b60008060008060008060a0878903121561555157600080fd5b863561555c816154c2565b9550602087013561556c816154c2565b9450604087013567ffffffffffffffff81111561558857600080fd5b61559489828a016154d7565b909550935050606087013591506155ad6080880161551c565b90509295509295509295565b8061010081018310156108ef57600080fd5b600080600061022084860312156155e157600080fd5b833592506155f285602086016155b9565b91506156028561012086016155b9565b90509250925092565b60006020828403121561561d57600080fd5b5035919050565b6000806000806060858703121561563a57600080fd5b8435615645816154c2565b93506020850135615655816154c2565b9250604085013567ffffffffffffffff81111561567157600080fd5b61567d878288016154d7565b95989497509550505050565b6000806040838503121561569c57600080fd5b8235915060208301356156ae816154c2565b809150509250929050565b600080604083850312156156cc57600080fd5b82356156d7816154c2565b946020939093013593505050565b600080604083850312156156f857600080fd5b8235615703816154c2565b915060208301356156ae816154c2565b60006020828403121561572557600080fd5b8135610eea816154c2565b803563ffffffff8116811461553357600080fd5b60008060006060848603121561575957600080fd5b8335615764816154c2565b92506020840135615774816154c2565b915061560260408501615730565b60006020828403121561579457600080fd5b610eea82615730565b8060005b600281101561242d5781516001600160a01b03168452602093840193909101906001016157a1565b81516001600160801b03168152602080830151606083019161345a9084018261579d565b6000806020838503121561580057600080fd5b823567ffffffffffffffff8082111561581857600080fd5b818501915085601f83011261582c57600080fd5b81358181111561583b57600080fd5b86602082850101111561584d57600080fd5b60209290920196919550909350505050565b6000806040838503121561587257600080fd5b50508035926020909101359150565b60008060006060848603121561589657600080fd5b83356158a1816154c2565b92506020840135915060408401356158b8816154c2565b809150509250925092565b8051825260206001600160a01b0381830151168184015260408201516158ec604085018261579d565b506060820151608080850160005b600281101561595c5761594c8285516001600160801b0380825116835280602083015116602084015250604081015167ffffffffffffffff808216604085015280606084015116606085015250505050565b92840192908201906001016158fa565b50505050505050565b61018081016108ef82846158c3565b6000806000610140848603121561598a57600080fd5b8335615995816154c2565b925060208401356159a5816154c2565b915061560285604086016155b9565b600080600080608085870312156159ca57600080fd5b84356159d5816154c2565b935060208501356159e5816154c2565b93969395505050506040820135916060013590565b6020808252825182820181905260009190848201906040850190845b81811015615a3d57615a298385516158c3565b928401926101809290920191600101615a16565b50909695505050505050565b602080825282518282018190526000919060409081850190868401855b82811015615a8957615a7984835161579d565b9284019290850190600101615a66565b5091979650505050505050565b600060208284031215615aa857600080fd5b8151610eea816154c2565b634e487b7160e01b600052603260045260246000fd5b634e487b7160e01b600052601160045260246000fd5b61ffff81811683821601908082111561345a5761345a615ac9565b600060208284031215615b0c57600080fd5b610eea8261551c565b6001600160801b0381811683821601908082111561345a5761345a615ac9565b6101208101615b8282866001600160801b0380825116835280602083015116602084015250604081015167ffffffffffffffff808216604085015280606084015116606085015250505050565b83516001600160801b03908116608084015260208501511660a0830152604084015167ffffffffffffffff90811660c084015260608501511660e08301525b60ff8316610100830152949350505050565b6001600160801b0382811682821603908082111561345a5761345a615ac9565b808201808211156108ef576108ef615ac9565b803567ffffffffffffffff8116811461553357600080fd5b600060208284031215615c3057600080fd5b610eea82615c06565b634e487b7160e01b600052604160045260246000fd5b600060808284031215615c6157600080fd5b6040516080810181811067ffffffffffffffff82111715615c9257634e487b7160e01b600052604160045260246000fd5b604052615c9e8361551c565b8152615cac6020840161551c565b6020820152615cbd60408401615c06565b6040820152615cce60608401615c06565b60608201529392505050565b6001600160801b0380615cec8361551c565b16835280615cfc6020840161551c565b16602084015250615d0f60408201615c06565b67ffffffffffffffff808216604085015280615d2d60608501615c06565b16606085015250505050565b6101208101615d488286615cda565b615bc16080830185615cda565b8381526101208101615da860208301856001600160801b0380825116835280602083015116602084015250604081015167ffffffffffffffff808216604085015280606084015116606085015250505050565b82516001600160801b0390811660a084015260208401511660c0830152604083015167ffffffffffffffff90811660e0840152606084015116610100830152610bd5565b818103818111156108ef576108ef615ac9565b8381526101208101615e146020830185615cda565b610bd560a0830184615cda565b60006001600160801b03808316818103615e3d57615e3d615ac9565b6001019392505050565b63ffffffff82811682821603908082111561345a5761345a615ac9565b634e487b7160e01b600052601260045260246000fd5b60005b83811015615e95578181015183820152602001615e7d565b50506000910152565b7f416363657373436f6e74726f6c3a206163636f756e7420000000000000000000815260008351615ed6816017850160208801615e7a565b7f206973206d697373696e6720726f6c65200000000000000000000000000000006017918401918201528351615f13816028840160208801615e7a565b01602801949350505050565b6020815260008251806020840152615f3e816040850160208701615e7a565b601f01601f19169190910160400192915050565b80820281158282048414176108ef576108ef615ac9565b600082615f8657634e487b7160e01b600052601260045260246000fd5b500490565b600060208284031215615f9d57600080fd5b5051919050565b600081615fb357615fb3615ac9565b506000190190565b634e487b7160e01b600052603160045260246000fd5b600060208284031215615fe357600080fd5b81518015158114610eea57600080fd5b60008251616005818460208701615e7a565b919091019291505056fea2646970667358221220dae32abfa9a70e53e162285b78336b854888b9ac8016efb335335e46a556e6b764736f6c634300081300332172861495e7b85edac73e3cd5fbb42dd675baadf627720e687bcfdaca025096496e697469616c697a61626c653a20636f6e7472616374206973206e6f742069",
    "linkReferences": {}
  },
  "methodIdentifiers": {
    "DEFAULT_ADMIN_ROLE()": "a217fddf",
    "accumulatedFees(address)": "fcf66664",
    "calculateTradeSourceAmount(address,address,(uint256,uint128)[])": "f2bda26d",
    "calculateTradeTargetAmount(address,address,(uint256,uint128)[])": "2ab2fad1",
    "controllerType()": "b76040cd",
    "createPair(address,address)": "c9c65396",
    "createStrategy(address,address,(uint128,uint128,uint64,uint64)[2])": "f727473a",
    "deleteStrategy(uint256)": "87302037",
    "getRoleAdmin(bytes32)": "248a9ca3",
    "getRoleMember(bytes32,uint256)": "9010d07c",
    "getRoleMemberCount(bytes32)": "ca15c873",
    "grantRole(bytes32,address)": "2f2ff15d",
    "hasRole(bytes32,address)": "91d14854",
    "initialize()": "8129fc1c",
    "pair(address,address)": "8672d545",
    "pairTradingFeePPM(address,address)": "ba0a868b",
    "pairs()": "ffb0a4a0",
    "pause()": "8456cb59",
    "paused()": "5c975abb",
    "postUpgrade(bytes)": "8cd2403d",
    "renounceRole(bytes32,address)": "36568abe",
    "revokeRole(bytes32,address)": "d547741f",
    "roleAdmin()": "93867fb5",
    "roleEmergencyStopper()": "41f435b3",
    "roleFeesManager()": "2c40de1b",
    "setPairTradingFeePPM(address,address,uint32)": "55817d1d",
    "setTradingFeePPM(uint32)": "69a4dea7",
    "strategiesByPair(address,address,uint256,uint256)": "f74dad81",
    "strategiesByPairCount(address,address)": "322cf844",
    "strategy(uint256)": "bc88d7e4",
    "supportsInterface(bytes4)": "01ffc9a7",
    "testAccumulatedFees(address)": "53abc069",
    "testSetAccumulatedFees(address,uint256)": "3049cff9",
    "tradeBySourceAmount(address,address,(uint256,uint128)[],uint256,uint128)": "f1c5e014",
    "tradeByTargetAmount(address,address,(uint256,uint128)[],uint256,uint128)": "102ee9ba",
    "tradingFeePPM()": "f06f8acd",
    "unpause()": "3f4ba83a",
    "updateStrategy(uint256,(uint128,uint128,uint64,uint64)[2],(uint128,uint128,uint64,uint64)[2])": "21589fa1",
    "version()": "54fd4d50",
    "withdrawFees(address,uint256,address)": "9ba372c2"
  },
  "id": 6
}