{
  "abi": [
    {
      "inputs": [],
      "name": "AccessDenied",
      "type": "error"
    },
    {
      "inputs": [],
      "name": "AlreadyInitialized",
      "type": "error"
    },
    {
      "anonymous": false,
      "inputs": [
        {
          "indexed": false,
          "internalType": "uint8",
          "name": "version",
          "type": "uint8"
        }
      ],
      "name": "Initialized",
      "type": "event"
    },
    {
      "anonymous": false,
      "inputs": [
        {
          "indexed": true,
          "internalType": "bytes32",
          "name": "role",
          "type": "bytes32"
        },
        {
          "indexed": true,
          "internalType": "bytes32",
          "name": "previousAdminRole",
          "type": "bytes32"
        },
        {
          "indexed": true,
          "internalType": "bytes32",
          "name": "newAdminRole",
          "type": "bytes32"
        }
      ],
      "name": "RoleAdminChanged",
      "type": "event"
    },
    {
      "anonymous": false,
      "inputs": [
        {
          "indexed": true,
          "internalType": "bytes32",
          "name": "role",
          "type": "bytes32"
        },
        {
          "indexed": true,
          "internalType": "address",
          "name": "account",
          "type": "address"
        },
        {
          "indexed": true,
          "internalType": "address",
          "name": "sender",
          "type": "address"
        }
      ],
      "name": "RoleGranted",
      "type": "event"
    },
    {
      "anonymous": false,
      "inputs": [
        {
          "indexed": true,
          "internalType": "bytes32",
          "name": "role",
          "type": "bytes32"
        },
        {
          "indexed": true,
          "internalType": "address",
          "name": "account",
          "type": "address"
        },
        {
          "indexed": true,
          "internalType": "address",
          "name": "sender",
          "type": "address"
        }
      ],
      "name": "RoleRevoked",
      "type": "event"
    },
    {
      "inputs": [],
      "name": "DEFAULT_ADMIN_ROLE",
      "outputs": [
        {
          "internalType": "bytes32",
          "name": "",
          "type": "bytes32"
        }
      ],
      "stateMutability": "view",
      "type": "function"
    },
    {
      "inputs": [
        {
          "internalType": "bytes32",
          "name": "role",
          "type": "bytes32"
        }
      ],
      "name": "getRoleAdmin",
      "outputs": [
        {
          "internalType": "bytes32",
          "name": "",
          "type": "bytes32"
        }
      ],
      "stateMutability": "view",
      "type": "function"
    },
    {
      "inputs": [
        {
          "internalType": "bytes32",
          "name": "role",
          "type": "bytes32"
        },
        {
          "internalType": "uint256",
          "name": "index",
          "type": "uint256"
        }
      ],
      "name": "getRoleMember",
      "outputs": [
        {
          "internalType": "address",
          "name": "",
          "type": "address"
        }
      ],
      "stateMutability": "view",
      "type": "function"
    },
    {
      "inputs": [
        {
          "internalType": "bytes32",
          "name": "role",
          "type": "bytes32"
        }
      ],
      "name": "getRoleMemberCount",
      "outputs": [
        {
          "internalType": "uint256",
          "name": "",
          "type": "uint256"
        }
      ],
      "stateMutability": "view",
      "type": "function"
    },
    {
      "inputs": [
        {
          "internalType": "bytes32",
          "name": "role",
          "type": "bytes32"
        },
        {
          "internalType": "address",
          "name": "account",
          "type": "address"
        }
      ],
      "name": "grantRole",
      "outputs": [],
      "stateMutability": "nonpayable",
      "type": "function"
    },
    {
      "inputs": [
        {
          "internalType": "bytes32",
          "name": "role",
          "type": "bytes32"
        },
        {
          "internalType": "address",
          "name": "account",
          "type": "address"
        }
      ],
      "name": "hasRole",
      "outputs": [
        {
          "internalType": "bool",
          "name": "",
          "type": "bool"
        }
      ],
      "stateMutability": "view",
      "type": "function"
    },
    {
      "inputs": [],
      "name": "initializations",
      "outputs": [
        {
          "internalType": "uint16",
          "name": "",
          "type": "uint16"
        }
      ],
      "stateMutability": "view",
      "type": "function"
    },
    {
      "inputs": [],
      "name": "initialize",
      "outputs": [],
      "stateMutability": "nonpayable",
      "type": "function"
    },
    {
      "inputs": [
        {
          "internalType": "bytes",
          "name": "data",
          "type": "bytes"
        }
      ],
      "name": "postUpgrade",
      "outputs": [],
      "stateMutability": "nonpayable",
      "type": "function"
    },
    {
      "inputs": [
        {
          "internalType": "bytes32",
          "name": "role",
          "type": "bytes32"
        },
        {
          "internalType": "address",
          "name": "account",
          "type": "address"
        }
      ],
      "name": "renounceRole",
      "outputs": [],
      "stateMutability": "nonpayable",
      "type": "function"
    },
    {
      "inputs": [],
      "name": "restricted",
      "outputs": [],
      "stateMutability": "view",
      "type": "function"
    },
    {
      "inputs": [
        {
          "internalType": "bytes32",
          "name": "role",
          "type": "bytes32"
        },
        {
          "internalType": "address",
          "name": "account",
          "type": "address"
        }
      ],
      "name": "revokeRole",
      "outputs": [],
      "stateMutability": "nonpayable",
      "type": "function"
    },
    {
      "inputs": [],
      "name": "roleAdmin",
      "outputs": [
        {
          "internalType": "bytes32",
          "name": "",
          "type": "bytes32"
        }
      ],
      "stateMutability": "pure",
      "type": "function"
    },
    {
      "inputs": [
        {
          "internalType": "uint16",
          "name": "newInitializations",
          "type": "uint16"
        }
      ],
      "name": "setInitializations",
      "outputs": [],
      "stateMutability": "nonpayable",
      "type": "function"
    },
    {
      "inputs": [
        {
          "internalType": "uint16",
          "name": "newVersion",
          "type": "uint16"
        }
      ],
      "name": "setVersion",
      "outputs": [],
      "stateMutability": "nonpayable",
      "type": "function"
    },
    {
      "inputs": [
        {
          "internalType": "bytes4",
          "name": "interfaceId",
          "type": "bytes4"
        }
      ],
      "name": "supportsInterface",
      "outputs": [
        {
          "internalType": "bool",
          "name": "",
          "type": "bool"
        }
      ],
      "stateMutability": "view",
      "type": "function"
    },
    {
      "inputs": [],
      "name": "version",
      "outputs": [
        {
          "internalType": "uint16",
          "name": "",
          "type": "uint16"
        }
      ],
      "stateMutability": "view",
      "type": "function"
    }
  ],
  "bytecode": {
    "object": "0x608060405234801561001057600080fd5b50611330806100206000396000f3fe608060405234801561001057600080fd5b506004361061011b5760003560e01c80637072c6b1116100b257806391d1485411610081578063a217fddf11610066578063a217fddf146102c1578063ca15c873146102c9578063d547741f146102dc57600080fd5b806391d148541461026257806393867fb51461029b57600080fd5b80637072c6b1146102145780638129fc1c1461021c5780638cd2403d146102245780639010d07c1461023757600080fd5b80632f2ff15d116100ee5780632f2ff15d146101c757806336568abe146101da57806351a8a3e6146101ed57806354fd4d501461020857600080fd5b806301ffc9a7146101205780630b5779e61461014857806311e96cd514610170578063248a9ca314610196575b600080fd5b61013361012e366004610fee565b6102ef565b60405190151581526020015b60405180910390f35b61016e610156366004611030565b60c9805461ffff191661ffff92909216919091179055565b005b61016e61017e366004611030565b60fb805461ffff191661ffff92909216919091179055565b6101b96101a4366004611054565b60009081526065602052604090206001015490565b60405190815260200161013f565b61016e6101d536600461106d565b61034b565b61016e6101e836600461106d565b610375565b60c95461ffff165b60405161ffff909116815260200161013f565b60fb5461ffff166101f5565b61016e610406565b61016e610432565b61016e6102323660046110a9565b610552565b61024a61024536600461111b565b6105cc565b6040516001600160a01b03909116815260200161013f565b61013361027036600461106d565b60009182526065602090815260408084206001600160a01b0393909316845291905290205460ff1690565b7f2172861495e7b85edac73e3cd5fbb42dd675baadf627720e687bcfdaca0250966101b9565b6101b9600081565b6101b96102d7366004611054565b6105eb565b61016e6102ea36600461106d565b610602565b60007fffffffff0000000000000000000000000000000000000000000000000000000082167f5a05180f000000000000000000000000000000000000000000000000000000001480610345575061034582610627565b92915050565b600082815260656020526040902060010154610366816106be565b61037083836106c8565b505050565b6001600160a01b03811633146103f85760405162461bcd60e51b815260206004820152602f60248201527f416363657373436f6e74726f6c3a2063616e206f6e6c792072656e6f756e636560448201527f20726f6c657320666f722073656c66000000000000000000000000000000000060648201526084015b60405180910390fd5b61040282826106ea565b5050565b6104307f2172861495e7b85edac73e3cd5fbb42dd675baadf627720e687bcfdaca0250963361070c565b565b600054610100900460ff16158080156104525750600054600160ff909116105b8061046c5750303b15801561046c575060005460ff166001145b6104de5760405162461bcd60e51b815260206004820152602e60248201527f496e697469616c697a61626c653a20636f6e747261637420697320616c72656160448201527f647920696e697469616c697a656400000000000000000000000000000000000060648201526084016103ef565b6000805460ff191660011790558015610501576000805461ff0019166101001790555b610509610768565b801561054f576000805461ff0019169055604051600181527f7f26b83ff96e1f2b6a682f133852f6798a09c465da95921460cefb38474024989060200160405180910390a15b50565b60c9546000906105679061ffff166001611153565b905061057660fb5461ffff1690565b61ffff168161ffff16146105b6576040517f0dc149f000000000000000000000000000000000000000000000000000000000815260040160405180910390fd5b60c9805461ffff191661ffff8316179055505050565b60008281526097602052604081206105e490836107e3565b9392505050565b6000818152609760205260408120610345906107ef565b60008281526065602052604090206001015461061d816106be565b61037083836106ea565b60007fffffffff0000000000000000000000000000000000000000000000000000000082167f7965db0b00000000000000000000000000000000000000000000000000000000148061034557507f01ffc9a7000000000000000000000000000000000000000000000000000000007fffffffff00000000000000000000000000000000000000000000000000000000831614610345565b61054f81336107f9565b6106d2828261086e565b60008281526097602052604090206103709082610910565b6106f48282610925565b600082815260976020526040902061037090826109a8565b60008281526065602090815260408083206001600160a01b038516845290915290205460ff16610402576040517f4ca8886700000000000000000000000000000000000000000000000000000000815260040160405180910390fd5b600054610100900460ff166107d35760405162461bcd60e51b815260206004820152602b60248201527f496e697469616c697a61626c653a20636f6e7472616374206973206e6f74206960448201526a6e697469616c697a696e6760a81b60648201526084016103ef565b6107db6109bd565b610430610a38565b60006105e48383610ab3565b6000610345825490565b60008281526065602090815260408083206001600160a01b038516845290915290205460ff166104025761082c81610add565b610837836020610aef565b604051602001610848929190611192565b60408051601f198184030181529082905262461bcd60e51b82526103ef91600401611213565b60008281526065602090815260408083206001600160a01b038516845290915290205460ff166104025760008281526065602090815260408083206001600160a01b03851684529091529020805460ff191660011790556108cc3390565b6001600160a01b0316816001600160a01b0316837f2f8788117e7eff1d82e926ec794901d17c78024a50270940304540a733656f0d60405160405180910390a45050565b60006105e4836001600160a01b038416610d18565b60008281526065602090815260408083206001600160a01b038516845290915290205460ff16156104025760008281526065602090815260408083206001600160a01b0385168085529252808320805460ff1916905551339285917ff6391f5c32d9c69d2a47ea670b442974b53935d1edc7fd64eb21e047a839171b9190a45050565b60006105e4836001600160a01b038416610d67565b600054610100900460ff16610a285760405162461bcd60e51b815260206004820152602b60248201527f496e697469616c697a61626c653a20636f6e7472616374206973206e6f74206960448201526a6e697469616c697a696e6760a81b60648201526084016103ef565b610a30610e61565b610430610ecc565b600054610100900460ff16610aa35760405162461bcd60e51b815260206004820152602b60248201527f496e697469616c697a61626c653a20636f6e7472616374206973206e6f74206960448201526a6e697469616c697a696e6760a81b60648201526084016103ef565b60fb805461ffff19166001179055565b6000826000018281548110610aca57610aca611246565b9060005260206000200154905092915050565b60606103456001600160a01b03831660145b60606000610afe83600261125c565b610b09906002611273565b67ffffffffffffffff811115610b2157610b21611286565b6040519080825280601f01601f191660200182016040528015610b4b576020820181803683370190505b5090507f300000000000000000000000000000000000000000000000000000000000000081600081518110610b8257610b82611246565b60200101907effffffffffffffffffffffffffffffffffffffffffffffffffffffffffffff1916908160001a9053507f780000000000000000000000000000000000000000000000000000000000000081600181518110610be557610be5611246565b60200101907effffffffffffffffffffffffffffffffffffffffffffffffffffffffffffff1916908160001a9053506000610c2184600261125c565b610c2c906001611273565b90505b6001811115610cc9577f303132333435363738396162636465660000000000000000000000000000000085600f1660108110610c6d57610c6d611246565b1a60f81b828281518110610c8357610c83611246565b60200101907effffffffffffffffffffffffffffffffffffffffffffffffffffffffffffff1916908160001a90535060049490941c93610cc28161129c565b9050610c2f565b5083156105e45760405162461bcd60e51b815260206004820181905260248201527f537472696e67733a20686578206c656e67746820696e73756666696369656e7460448201526064016103ef565b6000818152600183016020526040812054610d5f57508154600181810184556000848152602080822090930184905584548482528286019093526040902091909155610345565b506000610345565b60008181526001830160205260408120548015610e50576000610d8b6001836112d1565b8554909150600090610d9f906001906112d1565b9050818114610e04576000866000018281548110610dbf57610dbf611246565b9060005260206000200154905080876000018481548110610de257610de2611246565b6000918252602080832090910192909255918252600188019052604090208390555b8554869080610e1557610e156112e4565b600190038181906000526020600020016000905590558560010160008681526020019081526020016000206000905560019350505050610345565b6000915050610345565b5092915050565b600054610100900460ff166104305760405162461bcd60e51b815260206004820152602b60248201527f496e697469616c697a61626c653a20636f6e7472616374206973206e6f74206960448201526a6e697469616c697a696e6760a81b60648201526084016103ef565b600054610100900460ff16610f375760405162461bcd60e51b815260206004820152602b60248201527f496e697469616c697a61626c653a20636f6e7472616374206973206e6f74206960448201526a6e697469616c697a696e6760a81b60648201526084016103ef565b60c9805461ffff19166001179055610f6f7f2172861495e7b85edac73e3cd5fbb42dd675baadf627720e687bcfdaca02509680610f99565b6104307f2172861495e7b85edac73e3cd5fbb42dd675baadf627720e687bcfdaca02509633610fe4565b600082815260656020526040808220600101805490849055905190918391839186917fbd79b86ffe0ab8e8776151514217cd7cacd52c909f66475c3af44e129f0b00ff9190a4505050565b61040282826106c8565b60006020828403121561100057600080fd5b81357fffffffff00000000000000000000000000000000000000000000000000000000811681146105e457600080fd5b60006020828403121561104257600080fd5b813561ffff811681146105e457600080fd5b60006020828403121561106657600080fd5b5035919050565b6000806040838503121561108057600080fd5b8235915060208301356001600160a01b038116811461109e57600080fd5b809150509250929050565b600080602083850312156110bc57600080fd5b823567ffffffffffffffff808211156110d457600080fd5b818501915085601f8301126110e857600080fd5b8135818111156110f757600080fd5b86602082850101111561110957600080fd5b60209290920196919550909350505050565b6000806040838503121561112e57600080fd5b50508035926020909101359150565b634e487b7160e01b600052601160045260246000fd5b61ffff818116838216019080821115610e5a57610e5a61113d565b60005b83811015611189578181015183820152602001611171565b50506000910152565b7f416363657373436f6e74726f6c3a206163636f756e74200000000000000000008152600083516111ca81601785016020880161116e565b7f206973206d697373696e6720726f6c6520000000000000000000000000000000601791840191820152835161120781602884016020880161116e565b01602801949350505050565b602081526000825180602084015261123281604085016020870161116e565b601f01601f19169190910160400192915050565b634e487b7160e01b600052603260045260246000fd5b80820281158282048414176103455761034561113d565b808201808211156103455761034561113d565b634e487b7160e01b600052604160045260246000fd5b6000816112ab576112ab61113d565b507fffffffffffffffffffffffffffffffffffffffffffffffffffffffffffffffff0190565b818103818111156103455761034561113d565b634e487b7160e01b600052603160045260246000fdfea26469706673582212204ea4b391fbc94f0bc2794cb311fe885f9a31e34ff67e5002de4552cebf96163464736f6c63430008130033",
    "linkReferences": {}
  },
  "methodIdentifiers": {
    "DEFAULT_ADMIN_ROLE()": "a217fddf",
    "getRoleAdmin(bytes32)": "248a9ca3",
    "getRoleMember(bytes32,uint256)": "9010d07c",
    "getRoleMemberCount(bytes32)": "ca15c873",
    "grantRole(bytes32,address)": "2f2ff15d",
    "hasRole(bytes32,address)": "91d14854",
    "initializations()": "51a8a3e6",
    "initialize()": "8129fc1c",
    "postUpgrade(bytes)": "8cd2403d",
    "renounceRole(bytes32,address)": "36568abe",
    "restricted()": "7072c6b1",
    "revokeRole(bytes32,address)": "d547741f",
    "roleAdmin()": "93867fb5",
    "setInitializations(uint16)": "0b5779e6",
    "setVersion(uint16)": "11e96cd5",
    "supportsInterface(bytes4)": "01ffc9a7",
    "version()": "54fd4d50"
  },
  "id": 20
}